{"contracts/Consensus.sol":{"Consensus":{"abi":[{"constant":true,"inputs":[],"name":"jailedValidatorsLength","outputs":[{"name":"","type":"uint256"}],"payable":false,"stateMutability":"view","type":"function"},{"constant":true,"inputs":[{"name":"_p","type":"uint256"}],"name":"pendingValidatorsAtPosition","outputs":[{"name":"","type":"address"}],"payable":false,"stateMutability":"view","type":"function"},{"constant":true,"inputs":[{"name":"_snapshotId","type":"uint256"}],"name":"getSnapshotAddresses","outputs":[{"name":"","type":"address[]"}],"payable":false,"stateMutability":"view","type":"function"},{"constant":false,"inputs":[{"name":"_newAddress","type":"address"}],"name":"setProxyStorage","outputs":[],"payable":false,"stateMutability":"nonpayable","type":"function"},{"constant":true,"inputs":[],"name":"getMinValidatorFee","outputs":[{"name":"","type":"uint256"}],"payable":false,"stateMutability":"pure","type":"function"},{"constant":true,"inputs":[{"name":"_address","type":"address"}],"name":"isJailed","outputs":[{"name":"","type":"bool"}],"payable":false,"stateMutability":"view","type":"function"},{"constant":true,"inputs":[{"name":"_address","type":"address"},{"name":"_validator","type":"address"}],"name":"delegatedAmount","outputs":[{"name":"","type":"uint256"}],"payable":false,"stateMutability":"view","type":"function"},{"constant":true,"inputs":[],"name":"pendingValidatorsLength","outputs":[{"name":"","type":"uint256"}],"payable":false,"stateMutability":"view","type":"function"},{"constant":true,"inputs":[],"name":"newValidatorSetLength","outputs":[{"name":"","type":"uint256"}],"payable":false,"stateMutability":"view","type":"function"},{"constant":true,"inputs":[],"name":"DECIMALS","outputs":[{"name":"","type":"uint256"}],"payable":false,"stateMutability":"view","type":"function"},{"constant":false,"inputs":[{"name":"_amount","type":"uint256"}],"name":"withdraw","outputs":[],"payable":false,"stateMutability":"nonpayable","type":"function"},{"constant":true,"inputs":[],"name":"isInitialized","outputs":[{"name":"","type":"bool"}],"payable":false,"stateMutability":"view","type":"function"},{"constant":false,"inputs":[],"name":"stake","outputs":[],"payable":true,"stateMutability":"payable","type":"function"},{"constant":true,"inputs":[],"name":"currentValidatorsLength","outputs":[{"name":"","type":"uint256"}],"payable":false,"stateMutability":"view","type":"function"},{"constant":false,"inputs":[{"name":"_amount","type":"uint256"}],"name":"setValidatorFee","outputs":[],"payable":false,"stateMutability":"nonpayable","type":"function"},{"constant":true,"inputs":[],"name":"getMinStake","outputs":[{"name":"","type":"uint256"}],"payable":false,"stateMutability":"pure","type":"function"},{"constant":true,"inputs":[{"name":"_p","type":"uint256"}],"name":"currentValidatorsAtPosition","outputs":[{"name":"","type":"address"}],"payable":false,"stateMutability":"view","type":"function"},{"constant":false,"inputs":[{"name":"_validator","type":"address"}],"name":"delegate","outputs":[],"payable":true,"stateMutability":"payable","type":"function"},{"constant":true,"inputs":[],"name":"newValidatorSet","outputs":[{"name":"","type":"address[]"}],"payable":false,"stateMutability":"view","type":"function"},{"constant":true,"inputs":[],"name":"jailedValidators","outputs":[{"name":"","type":"address[]"}],"payable":false,"stateMutability":"view","type":"function"},{"constant":true,"inputs":[{"name":"_validator","type":"address"},{"name":"_rewardAmount","type":"uint256"}],"name":"getDelegatorsForRewardDistribution","outputs":[{"name":"","type":"address[]"},{"name":"","type":"uint256[]"}],"payable":false,"stateMutability":"view","type":"function"},{"constant":true,"inputs":[],"name":"STRIKE_RESET","outputs":[{"name":"","type":"uint256"}],"payable":false,"stateMutability":"view","type":"function"},{"constant":false,"inputs":[],"name":"maintenance","outputs":[],"payable":false,"stateMutability":"nonpayable","type":"function"},{"constant":false,"inputs":[],"name":"unJail","outputs":[],"payable":false,"stateMutability":"nonpayable","type":"function"},{"constant":true,"inputs":[],"name":"MAX_VALIDATORS","outputs":[{"name":"","type":"uint256"}],"payable":false,"stateMutability":"view","type":"function"},{"constant":true,"inputs":[],"name":"VALIDATOR_PRODUCTIVITY_BP","outputs":[{"name":"","type":"uint256"}],"payable":false,"stateMutability":"view","type":"function"},{"constant":false,"inputs":[],"name":"finalizeChange","outputs":[],"payable":false,"stateMutability":"nonpayable","type":"function"},{"constant":true,"inputs":[],"name":"getMaxValidators","outputs":[{"name":"","type":"uint256"}],"payable":false,"stateMutability":"pure","type":"function"},{"constant":true,"inputs":[{"name":"_validator","type":"address"}],"name":"getStrikes","outputs":[{"name":"","type":"uint256"}],"payable":false,"stateMutability":"view","type":"function"},{"constant":true,"inputs":[{"name":"_validator","type":"address"}],"name":"blockCounter","outputs":[{"name":"","type":"uint256"}],"payable":false,"stateMutability":"view","type":"function"},{"constant":true,"inputs":[],"name":"CYCLE_DURATION_BLOCKS","outputs":[{"name":"","type":"uint256"}],"payable":false,"stateMutability":"view","type":"function"},{"constant":false,"inputs":[{"name":"_validator","type":"address"}],"name":"cycle","outputs":[],"payable":false,"stateMutability":"nonpayable","type":"function"},{"constant":true,"inputs":[],"name":"MAX_STRIKE_COUNT","outputs":[{"name":"","type":"uint256"}],"payable":false,"stateMutability":"view","type":"function"},{"constant":true,"inputs":[],"name":"requiredSignatures","outputs":[{"name":"","type":"uint256"}],"payable":false,"stateMutability":"view","type":"function"},{"constant":true,"inputs":[{"name":"_validator","type":"address"}],"name":"delegators","outputs":[{"name":"","type":"address[]"}],"payable":false,"stateMutability":"view","type":"function"},{"constant":true,"inputs":[],"name":"isFinalized","outputs":[{"name":"","type":"bool"}],"payable":false,"stateMutability":"view","type":"function"},{"constant":true,"inputs":[{"name":"_p","type":"uint256"}],"name":"jailedValidatorsAtPosition","outputs":[{"name":"","type":"address"}],"payable":false,"stateMutability":"view","type":"function"},{"constant":true,"inputs":[],"name":"DEFAULT_VALIDATOR_FEE","outputs":[{"name":"","type":"uint256"}],"payable":false,"stateMutability":"view","type":"function"},{"constant":true,"inputs":[],"name":"getCurrentCycleStartBlock","outputs":[{"name":"","type":"uint256"}],"payable":false,"stateMutability":"view","type":"function"},{"constant":false,"inputs":[],"name":"emitInitiateChange","outputs":[],"payable":false,"stateMutability":"nonpayable","type":"function"},{"constant":true,"inputs":[],"name":"totalStakeAmount","outputs":[{"name":"","type":"uint256"}],"payable":false,"stateMutability":"view","type":"function"},{"constant":true,"inputs":[{"name":"_validator","type":"address"}],"name":"validatorFee","outputs":[{"name":"","type":"uint256"}],"payable":false,"stateMutability":"view","type":"function"},{"constant":true,"inputs":[{"name":"_validator","type":"address"},{"name":"_address","type":"address"}],"name":"isDelegator","outputs":[{"name":"","type":"bool"}],"payable":false,"stateMutability":"view","type":"function"},{"constant":true,"inputs":[],"name":"currentValidators","outputs":[{"name":"","type":"address[]"}],"payable":false,"stateMutability":"view","type":"function"},{"constant":true,"inputs":[],"name":"getCycleDurationBlocks","outputs":[{"name":"","type":"uint256"}],"payable":false,"stateMutability":"pure","type":"function"},{"constant":true,"inputs":[],"name":"pendingValidators","outputs":[{"name":"","type":"address[]"}],"payable":false,"stateMutability":"view","type":"function"},{"constant":true,"inputs":[],"name":"getCurrentCycleEndBlock","outputs":[{"name":"","type":"uint256"}],"payable":false,"stateMutability":"view","type":"function"},{"constant":true,"inputs":[],"name":"getValidators","outputs":[{"name":"","type":"address[]"}],"payable":false,"stateMutability":"view","type":"function"},{"constant":true,"inputs":[{"name":"_address","type":"address"}],"name":"stakeAmount","outputs":[{"name":"","type":"uint256"}],"payable":false,"stateMutability":"view","type":"function"},{"constant":false,"inputs":[{"name":"_initialValidator","type":"address"}],"name":"initialize","outputs":[],"payable":false,"stateMutability":"nonpayable","type":"function"},{"constant":true,"inputs":[],"name":"MAX_STAKE","outputs":[{"name":"","type":"uint256"}],"payable":false,"stateMutability":"view","type":"function"},{"constant":true,"inputs":[],"name":"MIN_STAKE","outputs":[{"name":"","type":"uint256"}],"payable":false,"stateMutability":"view","type":"function"},{"constant":true,"inputs":[{"name":"_validator","type":"address"}],"name":"getStrikeReset","outputs":[{"name":"","type":"uint256"}],"payable":false,"stateMutability":"view","type":"function"},{"constant":true,"inputs":[{"name":"_validator","type":"address"}],"name":"delegatorsLength","outputs":[{"name":"","type":"uint256"}],"payable":false,"stateMutability":"view","type":"function"},{"constant":true,"inputs":[{"name":"_validator","type":"address"},{"name":"_p","type":"uint256"}],"name":"delegatorsAtPosition","outputs":[{"name":"","type":"address"}],"payable":false,"stateMutability":"view","type":"function"},{"constant":true,"inputs":[],"name":"getProxyStorage","outputs":[{"name":"","type":"address"}],"payable":false,"stateMutability":"view","type":"function"},{"constant":true,"inputs":[{"name":"_validator","type":"address"}],"name":"getReleaseBlock","outputs":[{"name":"","type":"uint256"}],"payable":false,"stateMutability":"view","type":"function"},{"constant":true,"inputs":[],"name":"shouldEmitInitiateChange","outputs":[{"name":"","type":"bool"}],"payable":false,"stateMutability":"view","type":"function"},{"constant":false,"inputs":[{"name":"_validator","type":"address"},{"name":"_amount","type":"uint256"}],"name":"withdraw","outputs":[],"payable":false,"stateMutability":"nonpayable","type":"function"},{"constant":true,"inputs":[{"name":"_address","type":"address"}],"name":"isValidator","outputs":[{"name":"","type":"bool"}],"payable":false,"stateMutability":"view","type":"function"},{"constant":true,"inputs":[{"name":"_address","type":"address"}],"name":"isPendingValidator","outputs":[{"name":"","type":"bool"}],"payable":false,"stateMutability":"view","type":"function"},{"constant":true,"inputs":[],"name":"getMaxStake","outputs":[{"name":"","type":"uint256"}],"payable":false,"stateMutability":"pure","type":"function"},{"payable":true,"stateMutability":"payable","type":"fallback"},{"anonymous":false,"inputs":[{"indexed":false,"name":"newSet","type":"address[]"}],"name":"ChangeFinalized","type":"event"},{"anonymous":false,"inputs":[],"name":"ShouldEmitInitiateChange","type":"event"},{"anonymous":false,"inputs":[{"indexed":true,"name":"parentHash","type":"bytes32"},{"indexed":false,"name":"newSet","type":"address[]"}],"name":"InitiateChange","type":"event"}],"evm":{"bytecode":{"linkReferences":{},"object":"608060405234801561001057600080fd5b50614dfd806100206000396000f3006080604052600436106102c65763ffffffff60e060020a60003504166308c9007681146102d35780630fe9d28e146102fa5780631043ca281461032e578063108552691461039657806310f606e7146103b757806314bfb527146103cc57806321429e60146104015780632a807f15146104285780632bec36d21461043d5780632e0f2625146104525780632e1a7d4d14610467578063392e53cd1461047f5780633a4b66f11461049457806340c9cdeb1461049c57806355460f81146104b157806356a3b5fa146104c957806357aeefc5146104de5780635c19a95c146104f65780635ccee1de1461050a578063651d8c221461051f5780636a28f12f146105345780636bdf1d5a146105f15780636c376cc5146106065780636eae5b111461061b578063714897df1461063057806372e81e3214610645578063752862111461065a57806376bd510f1461066f5780637b1e52a5146106845780637d8f7a61146106a55780637e2bf120146106c657806385cd8464146106db5780638615b171146106fc5780638d068043146107115780638d23fc61146107265780638d4e4083146107475780638da873f81461075c57806392b391f314610774578063932781d61461078957806393b4e25e1461079e57806394409a56146107b35780639f77dc30146107c8578063a0e11929146107e9578063a2cde60914610810578063a652492314610825578063a82f255b1461083a578063af2951811461084f578063b7ab4db514610864578063bf13526714610879578063c4d66de81461089a578063c98517c5146108bb578063cb1c2b5c146108d0578063d2166ce9146108e5578063ddb3f48714610906578063eb431b6a14610927578063ec15a5e61461094b578063ee19a7fc14610960578063ef7b6d8914610981578063f3fef3a314610996578063facd743b146109ba578063fb64aac1146109db578063fe35505b146109fc575b6102d1333433610a11565b005b3480156102df57600080fd5b506102e8610ad9565b60408051918252519081900360200190f35b34801561030657600080fd5b50610312600435610b7d565b60408051600160a060020a039092168252519081900360200190f35b34801561033a57600080fd5b50610346600435610c44565b60408051602080825283518183015283519192839290830191858101910280838360005b8381101561038257818101518382015260200161036a565b505050509050019250505060405180910390f35b3480156103a257600080fd5b506102d1600160a060020a0360043516610d7f565b3480156103c357600080fd5b506102e861109e565b3480156103d857600080fd5b506103ed600160a060020a03600435166110aa565b604080519115158252519081900360200190f35b34801561040d57600080fd5b506102e8600160a060020a03600435811690602435166110fb565b34801561043457600080fd5b506102e86111bf565b34801561044957600080fd5b506102e8611221565b34801561045e57600080fd5b506102e8611295565b34801561047357600080fd5b506102d16004356112a1565b34801561048b57600080fd5b506103ed6112af565b6102d1611367565b3480156104a857600080fd5b506102e8611374565b3480156104bd57600080fd5b506102d16004356113d6565b3480156104d557600080fd5b506102e861141d565b3480156104ea57600080fd5b5061031260043561142b565b6102d1600160a060020a036004351661148d565b34801561051657600080fd5b50610346611498565b34801561052b57600080fd5b506103466115a1565b34801561054057600080fd5b50610558600160a060020a0360043516602435611603565b604051808060200180602001838103835285818151815260200191508051906020019060200280838360005b8381101561059c578181015183820152602001610584565b50505050905001838103825284818151815260200191508051906020019060200280838360005b838110156105db5781810151838201526020016105c3565b5050505090500194505050505060405180910390f35b3480156105fd57600080fd5b506102e8611701565b34801561061257600080fd5b506102d1611706565b34801561062757600080fd5b506102d1611736565b34801561063c57600080fd5b506102e861176f565b34801561065157600080fd5b506102e8611775565b34801561066657600080fd5b506102d161177b565b34801561067b57600080fd5b506102e86118f4565b34801561069057600080fd5b506102e8600160a060020a03600435166118fa565b3480156106b157600080fd5b506102e8600160a060020a03600435166119be565b3480156106d257600080fd5b506102e8611a40565b3480156106e757600080fd5b506102d1600160a060020a0360043516611a46565b34801561070857600080fd5b506102e8611d66565b34801561071d57600080fd5b506102e8611d6b565b34801561073257600080fd5b50610346600160a060020a0360043516611d90565b34801561075357600080fd5b506103ed611e12565b34801561076857600080fd5b50610312600435611e86565b34801561078057600080fd5b506102e8611ee8565b34801561079557600080fd5b506102e8611ef4565b3480156107aa57600080fd5b506102d1611f68565b3480156107bf57600080fd5b506102e861202b565b3480156107d457600080fd5b506102e8600160a060020a036004351661208d565b3480156107f557600080fd5b506103ed600160a060020a0360043581169060243516612121565b34801561081c57600080fd5b50610346612175565b34801561083157600080fd5b506102e86121d7565b34801561084657600080fd5b506103466121dd565b34801561085b57600080fd5b506102e861223f565b34801561087057600080fd5b506103466122b3565b34801561088557600080fd5b506102e8600160a060020a03600435166122bd565b3480156108a657600080fd5b506102d1600160a060020a036004351661233f565b3480156108c757600080fd5b506102e8612475565b3480156108dc57600080fd5b506102e8612484565b3480156108f157600080fd5b506102e8600160a060020a0360043516612492565b34801561091257600080fd5b506102e8600160a060020a0360043516612514565b34801561093357600080fd5b50610312600160a060020a0360043516602435612596565b34801561095757600080fd5b5061031261267e565b34801561096c57600080fd5b506102e8600160a060020a036004351661273c565b34801561098d57600080fd5b506103ed6127d0565b3480156109a257600080fd5b506102d1600160a060020a0360043516602435612844565b3480156109c657600080fd5b506103ed600160a060020a036004351661284f565b3480156109e757600080fd5b506103ed600160a060020a0360043516612895565b348015610a0857600080fd5b506102e86128db565b600160a060020a0383161515610a2657600080fd5b811515610a3257600080fd5b600160a060020a0381161515610a4757600080fd5b610a528382846128ea565b610a5c8183612aa5565b610a646128db565b610a6d826122bd565b1115610a7857600080fd5b610a8061141d565b610a89826122bd565b10158015610a9d5750610a9b81612895565b155b15610abd57610aab81612bec565b610abd81670214e8348c4f0000612ccf565b610ac68161284f565b15610ad457610ad482612d62565b505050565b6000600a60006040516020018080600080516020614c9283398151915281525060100190506040516020818303038152906040526040518082805190602001908083835b60208310610b3c5780518252601f199092019160209182019101610b1d565b51815160209384036101000a600019018019909216911617905260408051929094018290039091208652850195909552929092016000205493505050505b90565b6000600a60006040516020018080600080516020614cf283398151915281525060110190506040516020818303038152906040526040518082805190602001908083835b60208310610be05780518252601f199092019160209182019101610bc1565b51815160209384036101000a60001901801990921691161790526040805192909401829003909120865285019590955292909201600020805490935085925082109050610c2957fe5b600091825260209091200154600160a060020a031692915050565b6060600a60008360405160200180807f736e617073686f74000000000000000000000000000000000000000000000000815250600801828152602001807f61646472657373657300000000000000000000000000000000000000000000008152506009019150506040516020818303038152906040526040518082805190602001908083835b60208310610ce95780518252601f199092019160209182019101610cca565b51815160209384036101000a600019018019909216911617905260408051929094018290039091208652858101969096525092830160002080548451818702810187019095528085529394909392508401905082828015610d7357602002820191906000526020600020905b8154600160a060020a03168152600190910190602001808311610d55575b50505050509050919050565b6004600060405160200180807f6f776e657200000000000000000000000000000000000000000000000000000081525060050190506040516020818303038152906040526040518082805190602001908083835b60208310610df25780518252601f199092019160209182019101610dd3565b51815160209384036101000a6000190180199092169116179052604080519290940182900390912086528501959095529290920160002054600160a060020a031633149250610e4391505057600080fd5b600160a060020a0381161515610e5857600080fd5b6006600060405160200180807f77617350726f787953746f72616765536574000000000000000000000000000081525060120190506040516020818303038152906040526040518082805190602001908083835b60208310610ecb5780518252601f199092019160209182019101610eac565b51815160209384036101000a600019018019909216911617905260408051929094018290039091208652850195909552929092016000205460ff16159250610f1591505057600080fd5b806004600060405160200180807f70726f787953746f726167650000000000000000000000000000000000000000815250600c0190506040516020818303038152906040526040518082805190602001908083835b60208310610f895780518252601f199092019160209182019101610f6a565b51815160209384036101000a600019018019909216911617905260408051929094018290039091208652858101969096525092830160009081208054600160a060020a031916600160a060020a039790971696909617909555505080517f77617350726f787953746f7261676553657400000000000000000000000000008184015281516012818303018152603290910191829052805160019460069490939182918401908083835b602083106110515780518252601f199092019160209182019101611032565b51815160209384036101000a60001901801990921691161790526040805192909401829003909120865285019590955292909201600020805460ff19169415159490941790935550505050565b670214e8348c4f000090565b6000805b6110b6610ad9565b8110156110f0576110c681611e86565b600160a060020a031683600160a060020a031614156110e857600191506110f5565b6001016110ae565b600091505b50919050565b60408051600080516020614d92833981519152602080830191909152606060020a600160a060020a038087168202602f85015285160260438301528251603781840301815260579092019283905281516000936002938593909282918401908083835b6020831061117d5780518252601f19909201916020918201910161115e565b51815160209384036101000a60001901801990921691161790526040805192909401829003909120865285019590955292909201600020549695505050505050565b6000600a60006040516020018080600080516020614cf2833981519152815250601101905060405160208183030381529060405260405180828051906020019080838360208310610b3c5780518252601f199092019160209182019101610b1d565b6000600a600060405160200180807f6e657756616c696461746f725365740000000000000000000000000000000000815250600f01905060405160208183030381529060405260405180828051906020019080838360208310610b3c5780518252601f199092019160209182019101610b1d565b670de0b6b3a764000081565b6112ac338233612e68565b50565b60006006600060405160200180807f6973496e697469616c697a656400000000000000000000000000000000000000815250600d0190506040516020818303038152906040526040518082805190602001908083835b602083106113245780518252601f199092019160209182019101611305565b51815160209384036101000a600019018019909216911617905260408051929094018290039091208652850195909552929092016000205460ff16949350505050565b611372333433610a11565b565b6000600a60006040516020018080600080516020614d72833981519152815250601101905060405160208183030381529060405260405180828051906020019080838360208310610b3c5780518252601f199092019160209182019101610b1d565b6113df3361284f565b15156113ea57600080fd5b670de0b6b3a76400008111156113ff57600080fd5b61140761109e565b81101561141357600080fd5b6112ac3382612ccf565b69152d02c7e14af680000090565b6000600a60006040516020018080600080516020614d72833981519152815250601101905060405160208183030381529060405260405180828051906020019080838360208310610be05780518252601f199092019160209182019101610bc1565b6112ac333483610a11565b6060600a600060405160200180807f6e657756616c696461746f725365740000000000000000000000000000000000815250600f0190506040516020818303038152906040526040518082805190602001908083835b6020831061150d5780518252601f1990920191602091820191016114ee565b51815160209384036101000a60001901801990921691161790526040805192909401829003909120865285810196909652509283016000208054845181870281018701909552808552939490939250840190508282801561159757602002820191906000526020600020905b8154600160a060020a03168152600190910190602001808311611579575b5050505050905090565b6060600a60006040516020018080600080516020614c9283398151915281525060100190506040516020818303038152906040526040518082805190602001908083836020831061150d5780518252601f1990920191602091820191016114ee565b606080606080600080600061161789611d90565b94508451604051908082528060200260200182016040528015611644578160200160208202803883390190505b50935061166061165261141d565b61165b8b6122bd565b612f82565b92505b84518210156116f25761167f6116798a84612596565b8a6110fb565b90506116cf670de0b6b3a76400006116b76116998c61208d565b670de0b6b3a7640000036116c3876116b78e8863ffffffff612f9b16565b9063ffffffff612fc916565b9063ffffffff612f9b16565b84838151811015156116dd57fe5b60209081029091010152600190910190611663565b50929791965090945050505050565b603281565b61170f3361284f565b151561171a57600080fd5b611723336110aa565b1561172d57600080fd5b61137233612fec565b61173f336110aa565b151561174a57600080fd5b61175261223f565b61175b3361273c565b111561176657600080fd5b61137233612ffe565b6103e881565b610bb881565b6004600060405160200180807f53595354454d5f41444452455353000000000000000000000000000000000000815250600e0190506040516020818303038152906040526040518082805190602001908083835b602083106117ee5780518252601f1990920191602091820191016117cf565b51815160209384036101000a6000190180199092169116179052604080519290940182900390912086528501959095529290920160002054600160a060020a03163314925061183f91505057600080fd5b611847611e12565b1561185157600080fd5b600061185b611221565b11156118ea5761187161186c611498565b61303a565b7f8564cd629b15f47dc310d45bcbfc9bcf5420b0d51bf0659a16c67f91d276325361189a612175565b60408051602080825283518183015283519192839290830191858101910280838360005b838110156118d65781810151838201526020016118be565b505050509050019250505060405180910390a15b611372600161318d565b6103e890565b600060026000836040516020018080600080516020614db2833981519152815250600b0182600160a060020a0316600160a060020a0316606060020a0281526014019150506040516020818303038152906040526040518082805190602001908083835b6020831061197d5780518252601f19909201916020918201910161195e565b51815160209384036101000a600019018019909216911617905260408051929094018290039091208652850195909552929092016000205495945050505050565b600060026000836040516020018080600080516020614cd2833981519152815250600c0182600160a060020a0316600160a060020a0316606060020a0281526014019150506040516020818303038152906040526040518082805190602001908083836020831061197d5780518252601f19909201916020918201910161195e565b61870081565b6060611a5061267e565b600160a060020a031663f89d40866040518163ffffffff1660e060020a028152600401602060405180830381600087803b158015611a8d57600080fd5b505af1158015611aa1573d6000803e3d6000fd5b505050506040513d6020811015611ab757600080fd5b5051600160a060020a03163314611acd57600080fd5b611ad682613200565b611ade613330565b15611d6257611aeb61267e565b600160a060020a0316631986d3766040518163ffffffff1660e060020a028152600401602060405180830381600087803b158015611b2857600080fd5b505af1158015611b3c573d6000803e3d6000fd5b505050506040513d6020811015611b5257600080fd5b5051600160a060020a031663bbac62c8611b6a612175565b6040518263ffffffff1660e060020a0281526004018080602001828103825283818151815260200191508051906020019060200280838360005b83811015611bbc578181015183820152602001611ba4565b5050505090500192505050600060405180830381600087803b158015611be157600080fd5b505af1158015611bf5573d6000803e3d6000fd5b50505050611c01613342565b611c11611c0c612175565b6134b3565b611c196121dd565b9050600081511115611c2e57611c2e81613598565b6000611c38611221565b1115611c7c57611c48600061318d565b611c52600161365a565b6040517fad8a61077dff62d25ea1bf7cf1af88e1b48075c3d497d494ac9b129b73b0d37c90600090a15b611c8461267e565b600160a060020a031663f89d40866040518163ffffffff1660e060020a028152600401602060405180830381600087803b158015611cc157600080fd5b505af1158015611cd5573d6000803e3d6000fd5b505050506040513d6020811015611ceb57600080fd5b5051604080517fb1f0c8e10000000000000000000000000000000000000000000000000000000081529051600160a060020a039092169163b1f0c8e19160048082019260009290919082900301818387803b158015611d4957600080fd5b505af1158015611d5d573d6000803e3d6000fd5b505050505b5050565b600581565b6000611d8b6001611d7f60026116b7611374565b9063ffffffff6136cd16565b905090565b6060600a6000836040516020018080600080516020614cb2833981519152815250600a0182600160a060020a0316600160a060020a0316606060020a02815260140191505060405160208183030381529060405260405180828051906020019080838360208310610ce95780518252601f199092019160209182019101610cca565b60006006600060405160200180807f697346696e616c697a6564000000000000000000000000000000000000000000815250600b019050604051602081830303815290604052604051808280519060200190808383602083106113245780518252601f199092019160209182019101611305565b6000600a60006040516020018080600080516020614c92833981519152815250601001905060405160208183030381529060405260405180828051906020019080838360208310610be05780518252601f199092019160209182019101610bc1565b670214e8348c4f000081565b60006002600060405160200180807f63757272656e744379636c655374617274426c6f636b00000000000000000000815250601601905060405160208183030381529060405260405180828051906020019080838360208310610b3c5780518252601f199092019160209182019101610b1d565b611f713361284f565b1515611f7c57600080fd5b611f846127d0565b1515611f8f57600080fd5b6000611f99611221565b11611fa357600080fd5b6000194301407f55252fa6eee4741b4e24a74a70e9c11fd2c2281df8d6ea13126ff845f7825c89611fd2611498565b60408051602080825283518183015283519192839290830191858101910280838360005b8381101561200e578181015183820152602001611ff6565b505050509050019250505060405180910390a2611372600061365a565b6000600260006040516020018080600080516020614d52833981519152815250601001905060405160208183030381529060405260405180828051906020019080838360208310610b3c5780518252601f199092019160209182019101610b1d565b6000600260008360405160200180807f76616c696461746f724665650000000000000000000000000000000000000000815250600c0182600160a060020a0316600160a060020a0316606060020a0281526014019150506040516020818303038152906040526040518082805190602001908083836020831061197d5780518252601f19909201916020918201910161195e565b6000805b61212e84612514565b8110156121695761213f8482612596565b600160a060020a031683600160a060020a03161415612161576001915061216e565b600101612125565b600091505b5092915050565b6060600a60006040516020018080600080516020614d7283398151915281525060110190506040516020818303038152906040526040518082805190602001908083836020831061150d5780518252601f1990920191602091820191016114ee565b61870090565b6060600a60006040516020018080600080516020614cf283398151915281525060110190506040516020818303038152906040526040518082805190602001908083836020831061150d5780518252601f1990920191602091820191016114ee565b60006002600060405160200180807f63757272656e744379636c65456e64426c6f636b000000000000000000000000815250601401905060405160208183030381529060405260405180828051906020019080838360208310610b3c5780518252601f199092019160209182019101610b1d565b6060611d8b612175565b600060026000836040516020018080600080516020614d32833981519152815250600b0182600160a060020a0316600160a060020a0316606060020a0281526014019150506040516020818303038152906040526040518082805190602001908083836020831061197d5780518252601f19909201916020918201910161195e565b6004600060405160200180807f6f776e657200000000000000000000000000000000000000000000000000000081525060050190506040516020818303038152906040526040518082805190602001908083835b602083106123b25780518252601f199092019160209182019101612393565b51815160209384036101000a6000190180199092169116179052604080519290940182900390912086528501959095529290920160002054600160a060020a03163314925061240391505057600080fd5b61240b6112af565b1561241557600080fd5b61243273fffffffffffffffffffffffffffffffffffffffe6136df565b61243a613342565b600160a060020a038116151561245857612453336137af565b612461565b612461816137af565b61246b600161318d565b6112ac600161380f565b6a0422ca8b0a00a42500000081565b69152d02c7e14af680000081565b600060026000836040516020018080600080516020614d12833981519152815250600b0182600160a060020a0316600160a060020a0316606060020a0281526014019150506040516020818303038152906040526040518082805190602001908083836020831061197d5780518252601f19909201916020918201910161195e565b6000600a6000836040516020018080600080516020614cb2833981519152815250600a0182600160a060020a0316600160a060020a0316606060020a0281526014019150506040516020818303038152906040526040518082805190602001908083836020831061197d5780518252601f19909201916020918201910161195e565b6000600a6000846040516020018080600080516020614cb2833981519152815250600a0182600160a060020a0316600160a060020a0316606060020a0281526014019150506040516020818303038152906040526040518082805190602001908083835b602083106126195780518252601f1990920191602091820191016125fa565b51815160209384036101000a6000190180199092169116179052604080519290940182900390912086528501959095529290920160002080549093508592508210905061266257fe5b600091825260209091200154600160a060020a03169392505050565b60006004600060405160200180807f70726f787953746f726167650000000000000000000000000000000000000000815250600c0190506040516020818303038152906040526040518082805190602001908083835b602083106126f35780518252601f1990920191602091820191016126d4565b51815160209384036101000a6000190180199092169116179052604080519290940182900390912086528501959095529290920160002054600160a060020a0316949350505050565b6000600260008360405160200180807f72656c65617365426c6f636b0000000000000000000000000000000000000000815250600c0182600160a060020a0316600160a060020a0316606060020a0281526014019150506040516020818303038152906040526040518082805190602001908083836020831061197d5780518252601f19909201916020918201910161195e565b60006006600060405160200180807f73686f756c64456d6974496e6974696174654368616e676500000000000000008152506018019050604051602081830303815290604052604051808280519060200190808383602083106113245780518252601f199092019160209182019101611305565b611d62338284612e68565b6000805b61285b611374565b8110156110f05761286b8161142b565b600160a060020a031683600160a060020a0316141561288d57600191506110f5565b600101612853565b6000805b6128a16111bf565b8110156110f0576128b181610b7d565b600160a060020a031683600160a060020a031614156128d357600191506110f5565b600101612899565b6a0422ca8b0a00a42500000090565b60408051600080516020614d92833981519152602080830191909152606060020a600160a060020a038088168202602f85015286160260438301528251603781840301815260579092019283905281516129b493859360029360009391929182918401908083835b602083106129715780518252601f199092019160209182019101612952565b51815160209384036101000a6000190180199092169116179052604080519290940182900390912086528501959095529290920160002054939250506136cd9050565b60408051600080516020614d92833981519152602080830191909152606060020a600160a060020a038089168202602f850152871602604383015282516037818403018152605790920192839052815160029360009392909182918401908083835b60208310612a355780518252601f199092019160209182019101612a16565b51815160209384036101000a6000190180199092169116179052604080519290940182900390912086528501959095529290920160002093909355505050600160a060020a0382811690841614801590612a965750612a948284612121565b155b15610ad457610ad48383613882565b612b298160026000856040516020018080600080516020614d32833981519152815250600b0182600160a060020a0316600160a060020a0316606060020a028152601401915050604051602081830303815290604052604051808280519060200190808383602083106129715780518252601f199092019160209182019101612952565b60026000846040516020018080600080516020614d32833981519152815250600b0182600160a060020a0316600160a060020a0316606060020a0281526014019150506040516020818303038152906040526040518082805190602001908083835b60208310612baa5780518252601f199092019160209182019101612b8b565b51815160209384036101000a60001901801990921691161790526040805192909401829003909120865285019590955292909201600020939093555050505050565b612bf5816110aa565b15612bff57600080fd5b600a60006040516020018080600080516020614cf283398151915281525060110190506040516020818303038152906040526040518082805190602001908083835b60208310612c605780518252601f199092019160209182019101612c41565b51815160209384036101000a600019018019909216911617905260408051929094018290039091208652858101969096525092909201600090812080546001810182559082529390209092018054600160a060020a031916600160a060020a0394909416939093179092555050565b80600260008460405160200180807f76616c696461746f724665650000000000000000000000000000000000000000815250600c0182600160a060020a0316600160a060020a0316606060020a02815260140191505060405160208183030381529060405260405180828051906020019080838360208310612baa5780518252601f199092019160209182019101612b8b565b612dc681600260006040516020018080600080516020614d528339815191528152506010019050604051602081830303815290604052604051808280519060200190808383602083106129715780518252601f199092019160209182019101612952565b600260006040516020018080600080516020614d5283398151915281525060100190506040516020818303038152906040526040518082805190602001908083835b60208310612e275780518252601f199092019160209182019101612e08565b51815160209384036101000a600019018019909216911617905260408051929094018290039091208652850195909552929092016000209390935550505050565b6000600160a060020a0382161515612e7f57600080fd5b60008311612e8c57600080fd5b612e95826122bd565b831115612ea157600080fd5b612eab84836110fb565b831115612eb757600080fd5b612ec08261284f565b9050612eca61141d565b612ee384612ed7856122bd565b9063ffffffff61397316565b108015612eed5750805b15612f0057612efb8261398a565b612f7c565b612f0b848385613b88565b612f158284613dda565b8015612f2457612f2483613e5e565b612f2c61141d565b612f35836122bd565b1015612f4457612f448261398a565b604051600160a060020a0385169084156108fc029085906000818181858888f19350505050158015612f7a573d6000803e3d6000fd5b505b50505050565b600081831015612f925781612f94565b825b9392505050565b600080831515612fae576000915061216e565b50828202828482811515612fbe57fe5b0414612f9457600080fd5b600080808311612fd857600080fd5b8284811515612fe357fe5b04949350505050565b612ff58161398a565b6112ac81613ec2565b61300781613f22565b61300f61141d565b613018826122bd565b1015801561302c575061302a81612895565b155b156112ac576112ac81612bec565b60008080805b84518310156130d457613069858481518110151561305a57fe5b906020019060200201516122bd565b91508184019350613090858481518110151561308157fe5b9060200190602002015161208d565b905061309a61109e565b8110156130c9576130c985848151811015156130b257fe5b906020019060200201516130c461109e565b612ccf565b600190920191613040565b6130dd846140c8565b84600a60006040516020018080600080516020614d7283398151915281525060110190506040516020818303038152906040526040518082805190602001908083835b6020831061313f5780518252601f199092019160209182019101613120565b51815160001960209485036101000a01908116901991909116179052604080519490920184900390932086528583019690965250929093016000208451611d5d959194509201919050614bca565b806006600060405160200180807f697346696e616c697a6564000000000000000000000000000000000000000000815250600b019050604051602081830303815290604052604051808280519060200190808383602083106110515780518252601f199092019160209182019101611032565b60026000826040516020018080600080516020614cd2833981519152815250600c0182600160a060020a0316600160a060020a0316606060020a0281526014019150506040516020818303038152906040526040518082805190602001908083835b602083106132815780518252601f199092019160209182019101613262565b51815160209384036101000a60001901801990921691161790526040805192909401829003909120865285810196909652509283016000908120548451600080516020614cd283398151915281880152600160a060020a038816606060020a02602c8201528551808203880181529086019586905280516001909201966002969395509093508291848201918190849084908310612e275780518252601f199092019160209182019101612e08565b600061333a61223f565b431015905090565b436002600060405160200180807f63757272656e744379636c655374617274426c6f636b0000000000000000000081525060160190506040516020818303038152906040526040518082805190602001908083835b602083106133b65780518252601f199092019160209182019101613397565b51815160209384036101000a6000190180199092169116179052604080519290940182900390912086528501959095529290920160002093909355506133fe91506121d79050565b43016002600060405160200180807f63757272656e744379636c65456e64426c6f636b00000000000000000000000081525060140190506040516020818303038152906040526040518082805190602001908083835b602083106134735780518252601f199092019160209182019101613454565b51815160209384036101000a6000190180199092169116179052604080519290940182900390912086528501959095529290920160002093909355505050565b6000806134cf6127106116b785516116b7610bb86116c36121d7565b9150600090505b8251811015610ad4578161350084838151811015156134f157fe5b906020019060200201516119be565b101561352b57613526838281518110151561351757fe5b90602001906020020151614129565b613570565b61354b838281518110151561353c57fe5b906020019060200201516118fa565b1561357057613570838281518110151561356157fe5b9060200190602002015161414d565b613590838281518110151561358157fe5b9060200190602002015161438c565b6001016134d6565b80600a600060405160200180807f6e657756616c696461746f725365740000000000000000000000000000000000815250600f0190506040516020818303038152906040526040518082805190602001908083835b6020831061360c5780518252601f1990920191602091820191016135ed565b51815160001960209485036101000a01908116901991909116179052604080519490920184900390932086528583019690965250929093016000208451611d62959194509201919050614bca565b806006600060405160200180807f73686f756c64456d6974496e6974696174654368616e676500000000000000008152506018019050604051602081830303815290604052604051808280519060200190808383602083106110515780518252601f199092019160209182019101611032565b600082820183811015612f9457600080fd5b806004600060405160200180807f53595354454d5f41444452455353000000000000000000000000000000000000815250600e0190506040516020818303038152906040526040518082805190602001908083835b602083106137535780518252601f199092019160209182019101613734565b51815160209384036101000a600019018019909216911617905260408051929094018290039091208652850195909552929092016000208054600160a060020a031916600160a060020a03959095169490941790935550505050565b600a60006040516020018080600080516020614d72833981519152815250601101905060405160208183030381529060405260405180828051906020019080838360208310612c605780518252601f199092019160209182019101612c41565b806006600060405160200180807f6973496e697469616c697a656400000000000000000000000000000000000000815250600d019050604051602081830303815290604052604051808280519060200190808383602083106110515780518252601f199092019160209182019101611032565b600a6000826040516020018080600080516020614cb2833981519152815250600a0182600160a060020a0316600160a060020a0316606060020a0281526014019150506040516020818303038152906040526040518082805190602001908083835b602083106139035780518252601f1990920191602091820191016138e4565b51815160209384036101000a600019018019909216911617905260408051929094018290039091208652858101969096525092909201600090812080546001810182559082529390209092018054600160a060020a031916600160a060020a039590951694909417909355505050565b6000808383111561398357600080fd5b5050900390565b6000808080805b6139996111bf565b8310156139d9576139a983610b7d565b600160a060020a031686600160a060020a031614156139ce57829350600194506139d9565b600190920191613991565b8415611d5d5760016139e96111bf565b0391506139f582610b7d565b9050600160a060020a03811615613a1057613a10848261440e565b600a60006040516020018080600080516020614cf283398151915281525060110190506040516020818303038152906040526040518082805190602001908083835b60208310613a715780518252601f199092019160209182019101613a52565b51815160209384036101000a60001901801990921691161790526040805192909401829003909120865285019590955292909201600020805490935085925082109050613aba57fe5b600091825260208083209091018054600160a060020a031916905560408051600080516020614cf283398151915281840152815180820360110181526031909101918290528051600a94939192918291908401908083835b60208310613b315780518252601f199092019160209182019101613b12565b51815160001960209485036101000a81019182169119929092161790915260408051959093018590039094208752860196909652509290930160002080549350613b7f929091508301614c2f565b50505050505050565b60408051600080516020614d92833981519152602080830191909152606060020a600160a060020a038088168202602f8501528616026043830152825160378184030181526057909201928390528151613c5293859360029360009391929182918401908083835b60208310613c0f5780518252601f199092019160209182019101613bf0565b51815160209384036101000a6000190180199092169116179052604080519290940182900390912086528501959095529290920160002054939250506139739050565b60408051600080516020614d92833981519152602080830191909152606060020a600160a060020a038089168202602f850152871602604383015282516037818403018152605790920192839052815160029360009392909182918401908083835b60208310613cd35780518252601f199092019160209182019101613cb4565b51815160001960209485036101000a0190811690199190911617905260408051949092018490039093208652858301969096525092840160009081209590955550508151600080516020614d9283398151915281830152606060020a600160a060020a038089168202602f84015287160260438201528251603781830301815260579091019283905280516002949391928291908401908083835b60208310613d8d5780518252601f199092019160209182019101613d6e565b51815160209384036101000a600019018019909216911617905260408051929094018290039091208652850195909552929092016000205415159250610ad491505057610ad483836144eb565b612b298160026000856040516020018080600080516020614d32833981519152815250600b0182600160a060020a0316600160a060020a0316606060020a02815260140191505060405160208183030381529060405260405180828051906020019080838360208310613c0f5780518252601f199092019160209182019101613bf0565b612dc681600260006040516020018080600080516020614d52833981519152815250601001905060405160208183030381529060405260405180828051906020019080838360208310613c0f5780518252601f199092019160209182019101613bf0565b600a60006040516020018080600080516020614c92833981519152815250601001905060405160208183030381529060405260405180828051906020019080838360208310612c605780518252601f199092019160209182019101612c41565b6000808080805b613f31610ad9565b831015613f7157613f4183611e86565b600160a060020a031686600160a060020a03161415613f665782935060019450613f71565b600190920191613f29565b8415611d5d576001613f81610ad9565b039150613f8d82611e86565b9050600160a060020a03811615613fa857613fa88482614724565b600a60006040516020018080600080516020614c9283398151915281525060100190506040516020818303038152906040526040518082805190602001908083835b602083106140095780518252601f199092019160209182019101613fea565b51815160209384036101000a6000190180199092169116179052604080519290940182900390912086528501959095529290920160002080549093508592508210905061405257fe5b600091825260208083209091018054600160a060020a031916905560408051600080516020614c9283398151915281840152815180820360100181526030909101918290528051600a949391929182919084019080838360208310613b315780518252601f199092019160209182019101613b12565b80600260006040516020018080600080516020614d52833981519152815250601001905060405160208183030381529060405260405180828051906020019080838360208310612e275780518252601f199092019160209182019101612e08565b6141328161398a565b61413b81613ec2565b61414481614785565b6112ac816149c8565b60026000826040516020018080600080516020614d12833981519152815250600b0182600160a060020a0316600160a060020a0316606060020a0281526014019150506040516020818303038152906040526040518082805190602001908083835b602083106141ce5780518252601f1990920191602091820191016141af565b51815160209384036101000a60001901801990921691161790526040805192909401829003909120865285810196909652509283016000908120548451600080516020614d1283398151915281880152600160a060020a038816606060020a02602b8201528551808203601f018152603f9091019586905280516001909201966002969395509093508291908401908083835b602083106142805780518252601f199092019160209182019101614261565b51815160209384036101000a600019018019909216911617905260408051929094018290039091208652858101969096525092830160009081209590955550508051600080516020614d1283398151915281840152600160a060020a038516606060020a02602b8201528151808203601f018152603f90910191829052805160329460029490939182918401908083835b602083106143305780518252601f199092019160209182019101614311565b6001836020036101000a0380198251168184511680821785525050505050509050019150506040518091039020600019166000191681526020019081526020016000205411156112ac57614383816149c8565b6112ac81614a4a565b600060026000836040516020018080600080516020614cd2833981519152815250600c0182600160a060020a0316600160a060020a0316606060020a02815260140191505060405160208183030381529060405260405180828051906020019080838360208310612e275780518252601f199092019160209182019101612e08565b80600a60006040516020018080600080516020614cf283398151915281525060110190506040516020818303038152906040526040518082805190602001908083835b602083106144705780518252601f199092019160209182019101614451565b51815160209384036101000a600019018019909216911617905260408051929094018290039091208652850195909552929092016000208054909350869250821090506144b957fe5b9060005260206000200160006101000a815481600160a060020a030219169083600160a060020a031602179055505050565b6000808080805b6144fb86612514565b83101561453c5761450c8684612596565b600160a060020a031687600160a060020a03161415614531578293506001945061453c565b6001909201916144f2565b8415613b7f57600161454d87612514565b03915061455a8683612596565b9050600160a060020a0381161561457657614576868583614acc565b600a6000876040516020018080600080516020614cb2833981519152815250600a0182600160a060020a0316600160a060020a0316606060020a0281526014019150506040516020818303038152906040526040518082805190602001908083835b602083106145f75780518252601f1990920191602091820191016145d8565b51815160209384036101000a6000190180199092169116179052604080519290940182900390912086528501959095529290920160002080549093508592508210905061464057fe5b600091825260208083209091018054600160a060020a031916905560408051600080516020614cb283398151915281840152606060020a600160a060020a038b1602602a8201528151601e818303018152603e909101918290528051600a94939192918291908401908083835b602083106146cc5780518252601f1990920191602091820191016146ad565b51815160001960209485036101000a8101918216911992909216179091526040805195909301859003909420875286019690965250929093016000208054935061471a929091508301614c2f565b5050505050505050565b80600a60006040516020018080600080516020614c928339815191528152506010019050604051602081830303815290604052604051808280519060200190808383602083106144705780518252601f199092019160209182019101614451565b600060026000836040516020018080600080516020614db2833981519152815250600b0182600160a060020a0316600160a060020a0316606060020a0281526014019150506040516020818303038152906040526040518082805190602001908083835b602083106148085780518252601f1990920191602091820191016147e9565b6001836020036101000a03801982511681845116808217855250505050505090500191505060405180910390206000191660001916815260200190815260200160002054905061486a6001612ed7614862846116c36121d7565b611d7f61223f565b600260008460405160200180807f72656c65617365426c6f636b0000000000000000000000000000000000000000815250600c0182600160a060020a0316600160a060020a0316606060020a0281526014019150506040516020818303038152906040526040518082805190602001908083835b602083106148fd5780518252601f1990920191602091820191016148de565b51815160209384036101000a60001901801990921691161790526040805192909401829003909120865285019590955292909201600020939093555050600582119050611d62578060010160026000846040516020018080600080516020614db2833981519152815250600b0182600160a060020a0316600160a060020a0316606060020a02815260140191505060405160208183030381529060405260405180828051906020019080838360208310612baa5780518252601f199092019160209182019101612b8b565b600060026000836040516020018080600080516020614d12833981519152815250600b0182600160a060020a0316600160a060020a0316606060020a02815260140191505060405160208183030381529060405260405180828051906020019080838360208310612e275780518252601f199092019160209182019101612e08565b600060026000836040516020018080600080516020614db2833981519152815250600b0182600160a060020a0316600160a060020a0316606060020a02815260140191505060405160208183030381529060405260405180828051906020019080838360208310612e275780518252601f199092019160209182019101612e08565b80600a6000856040516020018080600080516020614cb2833981519152815250600a0182600160a060020a0316600160a060020a0316606060020a0281526014019150506040516020818303038152906040526040518082805190602001908083835b60208310614b4e5780518252601f199092019160209182019101614b2f565b51815160209384036101000a60001901801990921691161790526040805192909401829003909120865285019590955292909201600020805490935086925082109050614b9757fe5b9060005260206000200160006101000a815481600160a060020a030219169083600160a060020a03160217905550505050565b828054828255906000526020600020908101928215614c1f579160200282015b82811115614c1f5782518254600160a060020a031916600160a060020a03909116178255602090920191600190910190614bea565b50614c2b929150614c53565b5090565b815481835581811115610ad457600083815260209020610ad4918101908301614c77565b610b7a91905b80821115614c2b578054600160a060020a0319168155600101614c59565b610b7a91905b80821115614c2b5760008155600101614c7d56006a61696c656456616c696461746f72730000000000000000000000000000000064656c656761746f727300000000000000000000000000000000000000000000626c6f636b436f756e746572000000000000000000000000000000000000000070656e64696e6756616c696461746f7273000000000000000000000000000000737472696b6552657365740000000000000000000000000000000000000000007374616b65416d6f756e74000000000000000000000000000000000000000000746f74616c5374616b65416d6f756e740000000000000000000000000000000063757272656e7456616c696461746f727300000000000000000000000000000064656c656761746564416d6f756e740000000000000000000000000000000000737472696b65436f756e74000000000000000000000000000000000000000000a165627a7a72305820b2bed7f42b2ea27d676e77950578729bcd26a1ed3b7edca74fc910f416bca3b60029","opcodes":"PUSH1 0x80 PUSH1 0x40 MSTORE CALLVALUE DUP1 ISZERO PUSH2 0x10 JUMPI PUSH1 0x0 DUP1 REVERT JUMPDEST POP PUSH2 0x4DFD DUP1 PUSH2 0x20 PUSH1 0x0 CODECOPY PUSH1 0x0 RETURN STOP PUSH1 0x80 PUSH1 0x40 MSTORE PUSH1 0x4 CALLDATASIZE LT PUSH2 0x2C6 JUMPI PUSH4 0xFFFFFFFF PUSH1 0xE0 PUSH1 0x2 EXP PUSH1 0x0 CALLDATALOAD DIV AND PUSH4 0x8C90076 DUP2 EQ PUSH2 0x2D3 JUMPI DUP1 PUSH4 0xFE9D28E EQ PUSH2 0x2FA JUMPI DUP1 PUSH4 0x1043CA28 EQ PUSH2 0x32E JUMPI DUP1 PUSH4 0x10855269 EQ PUSH2 0x396 JUMPI DUP1 PUSH4 0x10F606E7 EQ PUSH2 0x3B7 JUMPI DUP1 PUSH4 0x14BFB527 EQ PUSH2 0x3CC JUMPI DUP1 PUSH4 0x21429E60 EQ PUSH2 0x401 JUMPI DUP1 PUSH4 0x2A807F15 EQ PUSH2 0x428 JUMPI DUP1 PUSH4 0x2BEC36D2 EQ PUSH2 0x43D JUMPI DUP1 PUSH4 0x2E0F2625 EQ PUSH2 0x452 JUMPI DUP1 PUSH4 0x2E1A7D4D EQ PUSH2 0x467 JUMPI DUP1 PUSH4 0x392E53CD EQ PUSH2 0x47F JUMPI DUP1 PUSH4 0x3A4B66F1 EQ PUSH2 0x494 JUMPI DUP1 PUSH4 0x40C9CDEB EQ PUSH2 0x49C JUMPI DUP1 PUSH4 0x55460F81 EQ PUSH2 0x4B1 JUMPI DUP1 PUSH4 0x56A3B5FA EQ PUSH2 0x4C9 JUMPI DUP1 PUSH4 0x57AEEFC5 EQ PUSH2 0x4DE JUMPI DUP1 PUSH4 0x5C19A95C EQ PUSH2 0x4F6 JUMPI DUP1 PUSH4 0x5CCEE1DE EQ PUSH2 0x50A JUMPI DUP1 PUSH4 0x651D8C22 EQ PUSH2 0x51F JUMPI DUP1 PUSH4 0x6A28F12F EQ PUSH2 0x534 JUMPI DUP1 PUSH4 0x6BDF1D5A EQ PUSH2 0x5F1 JUMPI DUP1 PUSH4 0x6C376CC5 EQ PUSH2 0x606 JUMPI DUP1 PUSH4 0x6EAE5B11 EQ PUSH2 0x61B JUMPI DUP1 PUSH4 0x714897DF EQ PUSH2 0x630 JUMPI DUP1 PUSH4 0x72E81E32 EQ PUSH2 0x645 JUMPI DUP1 PUSH4 0x75286211 EQ PUSH2 0x65A JUMPI DUP1 PUSH4 0x76BD510F EQ PUSH2 0x66F JUMPI DUP1 PUSH4 0x7B1E52A5 EQ PUSH2 0x684 JUMPI DUP1 PUSH4 0x7D8F7A61 EQ PUSH2 0x6A5 JUMPI DUP1 PUSH4 0x7E2BF120 EQ PUSH2 0x6C6 JUMPI DUP1 PUSH4 0x85CD8464 EQ PUSH2 0x6DB JUMPI DUP1 PUSH4 0x8615B171 EQ PUSH2 0x6FC JUMPI DUP1 PUSH4 0x8D068043 EQ PUSH2 0x711 JUMPI DUP1 PUSH4 0x8D23FC61 EQ PUSH2 0x726 JUMPI DUP1 PUSH4 0x8D4E4083 EQ PUSH2 0x747 JUMPI DUP1 PUSH4 0x8DA873F8 EQ PUSH2 0x75C JUMPI DUP1 PUSH4 0x92B391F3 EQ PUSH2 0x774 JUMPI DUP1 PUSH4 0x932781D6 EQ PUSH2 0x789 JUMPI DUP1 PUSH4 0x93B4E25E EQ PUSH2 0x79E JUMPI DUP1 PUSH4 0x94409A56 EQ PUSH2 0x7B3 JUMPI DUP1 PUSH4 0x9F77DC30 EQ PUSH2 0x7C8 JUMPI DUP1 PUSH4 0xA0E11929 EQ PUSH2 0x7E9 JUMPI DUP1 PUSH4 0xA2CDE609 EQ PUSH2 0x810 JUMPI DUP1 PUSH4 0xA6524923 EQ PUSH2 0x825 JUMPI DUP1 PUSH4 0xA82F255B EQ PUSH2 0x83A JUMPI DUP1 PUSH4 0xAF295181 EQ PUSH2 0x84F JUMPI DUP1 PUSH4 0xB7AB4DB5 EQ PUSH2 0x864 JUMPI DUP1 PUSH4 0xBF135267 EQ PUSH2 0x879 JUMPI DUP1 PUSH4 0xC4D66DE8 EQ PUSH2 0x89A JUMPI DUP1 PUSH4 0xC98517C5 EQ PUSH2 0x8BB JUMPI DUP1 PUSH4 0xCB1C2B5C EQ PUSH2 0x8D0 JUMPI DUP1 PUSH4 0xD2166CE9 EQ PUSH2 0x8E5 JUMPI DUP1 PUSH4 0xDDB3F487 EQ PUSH2 0x906 JUMPI DUP1 PUSH4 0xEB431B6A EQ PUSH2 0x927 JUMPI DUP1 PUSH4 0xEC15A5E6 EQ PUSH2 0x94B JUMPI DUP1 PUSH4 0xEE19A7FC EQ PUSH2 0x960 JUMPI DUP1 PUSH4 0xEF7B6D89 EQ PUSH2 0x981 JUMPI DUP1 PUSH4 0xF3FEF3A3 EQ PUSH2 0x996 JUMPI DUP1 PUSH4 0xFACD743B EQ PUSH2 0x9BA JUMPI DUP1 PUSH4 0xFB64AAC1 EQ PUSH2 0x9DB JUMPI DUP1 PUSH4 0xFE35505B EQ PUSH2 0x9FC JUMPI JUMPDEST PUSH2 0x2D1 CALLER CALLVALUE CALLER PUSH2 0xA11 JUMP JUMPDEST STOP JUMPDEST CALLVALUE DUP1 ISZERO PUSH2 0x2DF JUMPI PUSH1 0x0 DUP1 REVERT JUMPDEST POP PUSH2 0x2E8 PUSH2 0xAD9 JUMP JUMPDEST PUSH1 0x40 DUP1 MLOAD SWAP2 DUP3 MSTORE MLOAD SWAP1 DUP2 SWAP1 SUB PUSH1 0x20 ADD SWAP1 RETURN JUMPDEST CALLVALUE DUP1 ISZERO PUSH2 0x306 JUMPI PUSH1 0x0 DUP1 REVERT JUMPDEST POP PUSH2 0x312 PUSH1 0x4 CALLDATALOAD PUSH2 0xB7D JUMP JUMPDEST PUSH1 0x40 DUP1 MLOAD PUSH1 0x1 PUSH1 0xA0 PUSH1 0x2 EXP SUB SWAP1 SWAP3 AND DUP3 MSTORE MLOAD SWAP1 DUP2 SWAP1 SUB PUSH1 0x20 ADD SWAP1 RETURN JUMPDEST CALLVALUE DUP1 ISZERO PUSH2 0x33A JUMPI PUSH1 0x0 DUP1 REVERT JUMPDEST POP PUSH2 0x346 PUSH1 0x4 CALLDATALOAD PUSH2 0xC44 JUMP JUMPDEST PUSH1 0x40 DUP1 MLOAD PUSH1 0x20 DUP1 DUP3 MSTORE DUP4 MLOAD DUP2 DUP4 ADD MSTORE DUP4 MLOAD SWAP2 SWAP3 DUP4 SWAP3 SWAP1 DUP4 ADD SWAP2 DUP6 DUP2 ADD SWAP2 MUL DUP1 DUP4 DUP4 PUSH1 0x0 JUMPDEST DUP4 DUP2 LT ISZERO PUSH2 0x382 JUMPI DUP2 DUP2 ADD MLOAD DUP4 DUP3 ADD MSTORE PUSH1 0x20 ADD PUSH2 0x36A JUMP JUMPDEST POP POP POP POP SWAP1 POP ADD SWAP3 POP POP POP PUSH1 0x40 MLOAD DUP1 SWAP2 SUB SWAP1 RETURN JUMPDEST CALLVALUE DUP1 ISZERO PUSH2 0x3A2 JUMPI PUSH1 0x0 DUP1 REVERT JUMPDEST POP PUSH2 0x2D1 PUSH1 0x1 PUSH1 0xA0 PUSH1 0x2 EXP SUB PUSH1 0x4 CALLDATALOAD AND PUSH2 0xD7F JUMP JUMPDEST CALLVALUE DUP1 ISZERO PUSH2 0x3C3 JUMPI PUSH1 0x0 DUP1 REVERT JUMPDEST POP PUSH2 0x2E8 PUSH2 0x109E JUMP JUMPDEST CALLVALUE DUP1 ISZERO PUSH2 0x3D8 JUMPI PUSH1 0x0 DUP1 REVERT JUMPDEST POP PUSH2 0x3ED PUSH1 0x1 PUSH1 0xA0 PUSH1 0x2 EXP SUB PUSH1 0x4 CALLDATALOAD AND PUSH2 0x10AA JUMP JUMPDEST PUSH1 0x40 DUP1 MLOAD SWAP2 ISZERO ISZERO DUP3 MSTORE MLOAD SWAP1 DUP2 SWAP1 SUB PUSH1 0x20 ADD SWAP1 RETURN JUMPDEST CALLVALUE DUP1 ISZERO PUSH2 0x40D JUMPI PUSH1 0x0 DUP1 REVERT JUMPDEST POP PUSH2 0x2E8 PUSH1 0x1 PUSH1 0xA0 PUSH1 0x2 EXP SUB PUSH1 0x4 CALLDATALOAD DUP2 AND SWAP1 PUSH1 0x24 CALLDATALOAD AND PUSH2 0x10FB JUMP JUMPDEST CALLVALUE DUP1 ISZERO PUSH2 0x434 JUMPI PUSH1 0x0 DUP1 REVERT JUMPDEST POP PUSH2 0x2E8 PUSH2 0x11BF JUMP JUMPDEST CALLVALUE DUP1 ISZERO PUSH2 0x449 JUMPI PUSH1 0x0 DUP1 REVERT JUMPDEST POP PUSH2 0x2E8 PUSH2 0x1221 JUMP JUMPDEST CALLVALUE DUP1 ISZERO PUSH2 0x45E JUMPI PUSH1 0x0 DUP1 REVERT JUMPDEST POP PUSH2 0x2E8 PUSH2 0x1295 JUMP JUMPDEST CALLVALUE DUP1 ISZERO PUSH2 0x473 JUMPI PUSH1 0x0 DUP1 REVERT JUMPDEST POP PUSH2 0x2D1 PUSH1 0x4 CALLDATALOAD PUSH2 0x12A1 JUMP JUMPDEST CALLVALUE DUP1 ISZERO PUSH2 0x48B JUMPI PUSH1 0x0 DUP1 REVERT JUMPDEST POP PUSH2 0x3ED PUSH2 0x12AF JUMP JUMPDEST PUSH2 0x2D1 PUSH2 0x1367 JUMP JUMPDEST CALLVALUE DUP1 ISZERO PUSH2 0x4A8 JUMPI PUSH1 0x0 DUP1 REVERT JUMPDEST POP PUSH2 0x2E8 PUSH2 0x1374 JUMP JUMPDEST CALLVALUE DUP1 ISZERO PUSH2 0x4BD JUMPI PUSH1 0x0 DUP1 REVERT JUMPDEST POP PUSH2 0x2D1 PUSH1 0x4 CALLDATALOAD PUSH2 0x13D6 JUMP JUMPDEST CALLVALUE DUP1 ISZERO PUSH2 0x4D5 JUMPI PUSH1 0x0 DUP1 REVERT JUMPDEST POP PUSH2 0x2E8 PUSH2 0x141D JUMP JUMPDEST CALLVALUE DUP1 ISZERO PUSH2 0x4EA JUMPI PUSH1 0x0 DUP1 REVERT JUMPDEST POP PUSH2 0x312 PUSH1 0x4 CALLDATALOAD PUSH2 0x142B JUMP JUMPDEST PUSH2 0x2D1 PUSH1 0x1 PUSH1 0xA0 PUSH1 0x2 EXP SUB PUSH1 0x4 CALLDATALOAD AND PUSH2 0x148D JUMP JUMPDEST CALLVALUE DUP1 ISZERO PUSH2 0x516 JUMPI PUSH1 0x0 DUP1 REVERT JUMPDEST POP PUSH2 0x346 PUSH2 0x1498 JUMP JUMPDEST CALLVALUE DUP1 ISZERO PUSH2 0x52B JUMPI PUSH1 0x0 DUP1 REVERT JUMPDEST POP PUSH2 0x346 PUSH2 0x15A1 JUMP JUMPDEST CALLVALUE DUP1 ISZERO PUSH2 0x540 JUMPI PUSH1 0x0 DUP1 REVERT JUMPDEST POP PUSH2 0x558 PUSH1 0x1 PUSH1 0xA0 PUSH1 0x2 EXP SUB PUSH1 0x4 CALLDATALOAD AND PUSH1 0x24 CALLDATALOAD PUSH2 0x1603 JUMP JUMPDEST PUSH1 0x40 MLOAD DUP1 DUP1 PUSH1 0x20 ADD DUP1 PUSH1 0x20 ADD DUP4 DUP2 SUB DUP4 MSTORE DUP6 DUP2 DUP2 MLOAD DUP2 MSTORE PUSH1 0x20 ADD SWAP2 POP DUP1 MLOAD SWAP1 PUSH1 0x20 ADD SWAP1 PUSH1 0x20 MUL DUP1 DUP4 DUP4 PUSH1 0x0 JUMPDEST DUP4 DUP2 LT ISZERO PUSH2 0x59C JUMPI DUP2 DUP2 ADD MLOAD DUP4 DUP3 ADD MSTORE PUSH1 0x20 ADD PUSH2 0x584 JUMP JUMPDEST POP POP POP POP SWAP1 POP ADD DUP4 DUP2 SUB DUP3 MSTORE DUP5 DUP2 DUP2 MLOAD DUP2 MSTORE PUSH1 0x20 ADD SWAP2 POP DUP1 MLOAD SWAP1 PUSH1 0x20 ADD SWAP1 PUSH1 0x20 MUL DUP1 DUP4 DUP4 PUSH1 0x0 JUMPDEST DUP4 DUP2 LT ISZERO PUSH2 0x5DB JUMPI DUP2 DUP2 ADD MLOAD DUP4 DUP3 ADD MSTORE PUSH1 0x20 ADD PUSH2 0x5C3 JUMP JUMPDEST POP POP POP POP SWAP1 POP ADD SWAP5 POP POP POP POP POP PUSH1 0x40 MLOAD DUP1 SWAP2 SUB SWAP1 RETURN JUMPDEST CALLVALUE DUP1 ISZERO PUSH2 0x5FD JUMPI PUSH1 0x0 DUP1 REVERT JUMPDEST POP PUSH2 0x2E8 PUSH2 0x1701 JUMP JUMPDEST CALLVALUE DUP1 ISZERO PUSH2 0x612 JUMPI PUSH1 0x0 DUP1 REVERT JUMPDEST POP PUSH2 0x2D1 PUSH2 0x1706 JUMP JUMPDEST CALLVALUE DUP1 ISZERO PUSH2 0x627 JUMPI PUSH1 0x0 DUP1 REVERT JUMPDEST POP PUSH2 0x2D1 PUSH2 0x1736 JUMP JUMPDEST CALLVALUE DUP1 ISZERO PUSH2 0x63C JUMPI PUSH1 0x0 DUP1 REVERT JUMPDEST POP PUSH2 0x2E8 PUSH2 0x176F JUMP JUMPDEST CALLVALUE DUP1 ISZERO PUSH2 0x651 JUMPI PUSH1 0x0 DUP1 REVERT JUMPDEST POP PUSH2 0x2E8 PUSH2 0x1775 JUMP JUMPDEST CALLVALUE DUP1 ISZERO PUSH2 0x666 JUMPI PUSH1 0x0 DUP1 REVERT JUMPDEST POP PUSH2 0x2D1 PUSH2 0x177B JUMP JUMPDEST CALLVALUE DUP1 ISZERO PUSH2 0x67B JUMPI PUSH1 0x0 DUP1 REVERT JUMPDEST POP PUSH2 0x2E8 PUSH2 0x18F4 JUMP JUMPDEST CALLVALUE DUP1 ISZERO PUSH2 0x690 JUMPI PUSH1 0x0 DUP1 REVERT JUMPDEST POP PUSH2 0x2E8 PUSH1 0x1 PUSH1 0xA0 PUSH1 0x2 EXP SUB PUSH1 0x4 CALLDATALOAD AND PUSH2 0x18FA JUMP JUMPDEST CALLVALUE DUP1 ISZERO PUSH2 0x6B1 JUMPI PUSH1 0x0 DUP1 REVERT JUMPDEST POP PUSH2 0x2E8 PUSH1 0x1 PUSH1 0xA0 PUSH1 0x2 EXP SUB PUSH1 0x4 CALLDATALOAD AND PUSH2 0x19BE JUMP JUMPDEST CALLVALUE DUP1 ISZERO PUSH2 0x6D2 JUMPI PUSH1 0x0 DUP1 REVERT JUMPDEST POP PUSH2 0x2E8 PUSH2 0x1A40 JUMP JUMPDEST CALLVALUE DUP1 ISZERO PUSH2 0x6E7 JUMPI PUSH1 0x0 DUP1 REVERT JUMPDEST POP PUSH2 0x2D1 PUSH1 0x1 PUSH1 0xA0 PUSH1 0x2 EXP SUB PUSH1 0x4 CALLDATALOAD AND PUSH2 0x1A46 JUMP JUMPDEST CALLVALUE DUP1 ISZERO PUSH2 0x708 JUMPI PUSH1 0x0 DUP1 REVERT JUMPDEST POP PUSH2 0x2E8 PUSH2 0x1D66 JUMP JUMPDEST CALLVALUE DUP1 ISZERO PUSH2 0x71D JUMPI PUSH1 0x0 DUP1 REVERT JUMPDEST POP PUSH2 0x2E8 PUSH2 0x1D6B JUMP JUMPDEST CALLVALUE DUP1 ISZERO PUSH2 0x732 JUMPI PUSH1 0x0 DUP1 REVERT JUMPDEST POP PUSH2 0x346 PUSH1 0x1 PUSH1 0xA0 PUSH1 0x2 EXP SUB PUSH1 0x4 CALLDATALOAD AND PUSH2 0x1D90 JUMP JUMPDEST CALLVALUE DUP1 ISZERO PUSH2 0x753 JUMPI PUSH1 0x0 DUP1 REVERT JUMPDEST POP PUSH2 0x3ED PUSH2 0x1E12 JUMP JUMPDEST CALLVALUE DUP1 ISZERO PUSH2 0x768 JUMPI PUSH1 0x0 DUP1 REVERT JUMPDEST POP PUSH2 0x312 PUSH1 0x4 CALLDATALOAD PUSH2 0x1E86 JUMP JUMPDEST CALLVALUE DUP1 ISZERO PUSH2 0x780 JUMPI PUSH1 0x0 DUP1 REVERT JUMPDEST POP PUSH2 0x2E8 PUSH2 0x1EE8 JUMP JUMPDEST CALLVALUE DUP1 ISZERO PUSH2 0x795 JUMPI PUSH1 0x0 DUP1 REVERT JUMPDEST POP PUSH2 0x2E8 PUSH2 0x1EF4 JUMP JUMPDEST CALLVALUE DUP1 ISZERO PUSH2 0x7AA JUMPI PUSH1 0x0 DUP1 REVERT JUMPDEST POP PUSH2 0x2D1 PUSH2 0x1F68 JUMP JUMPDEST CALLVALUE DUP1 ISZERO PUSH2 0x7BF JUMPI PUSH1 0x0 DUP1 REVERT JUMPDEST POP PUSH2 0x2E8 PUSH2 0x202B JUMP JUMPDEST CALLVALUE DUP1 ISZERO PUSH2 0x7D4 JUMPI PUSH1 0x0 DUP1 REVERT JUMPDEST POP PUSH2 0x2E8 PUSH1 0x1 PUSH1 0xA0 PUSH1 0x2 EXP SUB PUSH1 0x4 CALLDATALOAD AND PUSH2 0x208D JUMP JUMPDEST CALLVALUE DUP1 ISZERO PUSH2 0x7F5 JUMPI PUSH1 0x0 DUP1 REVERT JUMPDEST POP PUSH2 0x3ED PUSH1 0x1 PUSH1 0xA0 PUSH1 0x2 EXP SUB PUSH1 0x4 CALLDATALOAD DUP2 AND SWAP1 PUSH1 0x24 CALLDATALOAD AND PUSH2 0x2121 JUMP JUMPDEST CALLVALUE DUP1 ISZERO PUSH2 0x81C JUMPI PUSH1 0x0 DUP1 REVERT JUMPDEST POP PUSH2 0x346 PUSH2 0x2175 JUMP JUMPDEST CALLVALUE DUP1 ISZERO PUSH2 0x831 JUMPI PUSH1 0x0 DUP1 REVERT JUMPDEST POP PUSH2 0x2E8 PUSH2 0x21D7 JUMP JUMPDEST CALLVALUE DUP1 ISZERO PUSH2 0x846 JUMPI PUSH1 0x0 DUP1 REVERT JUMPDEST POP PUSH2 0x346 PUSH2 0x21DD JUMP JUMPDEST CALLVALUE DUP1 ISZERO PUSH2 0x85B JUMPI PUSH1 0x0 DUP1 REVERT JUMPDEST POP PUSH2 0x2E8 PUSH2 0x223F JUMP JUMPDEST CALLVALUE DUP1 ISZERO PUSH2 0x870 JUMPI PUSH1 0x0 DUP1 REVERT JUMPDEST POP PUSH2 0x346 PUSH2 0x22B3 JUMP JUMPDEST CALLVALUE DUP1 ISZERO PUSH2 0x885 JUMPI PUSH1 0x0 DUP1 REVERT JUMPDEST POP PUSH2 0x2E8 PUSH1 0x1 PUSH1 0xA0 PUSH1 0x2 EXP SUB PUSH1 0x4 CALLDATALOAD AND PUSH2 0x22BD JUMP JUMPDEST CALLVALUE DUP1 ISZERO PUSH2 0x8A6 JUMPI PUSH1 0x0 DUP1 REVERT JUMPDEST POP PUSH2 0x2D1 PUSH1 0x1 PUSH1 0xA0 PUSH1 0x2 EXP SUB PUSH1 0x4 CALLDATALOAD AND PUSH2 0x233F JUMP JUMPDEST CALLVALUE DUP1 ISZERO PUSH2 0x8C7 JUMPI PUSH1 0x0 DUP1 REVERT JUMPDEST POP PUSH2 0x2E8 PUSH2 0x2475 JUMP JUMPDEST CALLVALUE DUP1 ISZERO PUSH2 0x8DC JUMPI PUSH1 0x0 DUP1 REVERT JUMPDEST POP PUSH2 0x2E8 PUSH2 0x2484 JUMP JUMPDEST CALLVALUE DUP1 ISZERO PUSH2 0x8F1 JUMPI PUSH1 0x0 DUP1 REVERT JUMPDEST POP PUSH2 0x2E8 PUSH1 0x1 PUSH1 0xA0 PUSH1 0x2 EXP SUB PUSH1 0x4 CALLDATALOAD AND PUSH2 0x2492 JUMP JUMPDEST CALLVALUE DUP1 ISZERO PUSH2 0x912 JUMPI PUSH1 0x0 DUP1 REVERT JUMPDEST POP PUSH2 0x2E8 PUSH1 0x1 PUSH1 0xA0 PUSH1 0x2 EXP SUB PUSH1 0x4 CALLDATALOAD AND PUSH2 0x2514 JUMP JUMPDEST CALLVALUE DUP1 ISZERO PUSH2 0x933 JUMPI PUSH1 0x0 DUP1 REVERT JUMPDEST POP PUSH2 0x312 PUSH1 0x1 PUSH1 0xA0 PUSH1 0x2 EXP SUB PUSH1 0x4 CALLDATALOAD AND PUSH1 0x24 CALLDATALOAD PUSH2 0x2596 JUMP JUMPDEST CALLVALUE DUP1 ISZERO PUSH2 0x957 JUMPI PUSH1 0x0 DUP1 REVERT JUMPDEST POP PUSH2 0x312 PUSH2 0x267E JUMP JUMPDEST CALLVALUE DUP1 ISZERO PUSH2 0x96C JUMPI PUSH1 0x0 DUP1 REVERT JUMPDEST POP PUSH2 0x2E8 PUSH1 0x1 PUSH1 0xA0 PUSH1 0x2 EXP SUB PUSH1 0x4 CALLDATALOAD AND PUSH2 0x273C JUMP JUMPDEST CALLVALUE DUP1 ISZERO PUSH2 0x98D JUMPI PUSH1 0x0 DUP1 REVERT JUMPDEST POP PUSH2 0x3ED PUSH2 0x27D0 JUMP JUMPDEST CALLVALUE DUP1 ISZERO PUSH2 0x9A2 JUMPI PUSH1 0x0 DUP1 REVERT JUMPDEST POP PUSH2 0x2D1 PUSH1 0x1 PUSH1 0xA0 PUSH1 0x2 EXP SUB PUSH1 0x4 CALLDATALOAD AND PUSH1 0x24 CALLDATALOAD PUSH2 0x2844 JUMP JUMPDEST CALLVALUE DUP1 ISZERO PUSH2 0x9C6 JUMPI PUSH1 0x0 DUP1 REVERT JUMPDEST POP PUSH2 0x3ED PUSH1 0x1 PUSH1 0xA0 PUSH1 0x2 EXP SUB PUSH1 0x4 CALLDATALOAD AND PUSH2 0x284F JUMP JUMPDEST CALLVALUE DUP1 ISZERO PUSH2 0x9E7 JUMPI PUSH1 0x0 DUP1 REVERT JUMPDEST POP PUSH2 0x3ED PUSH1 0x1 PUSH1 0xA0 PUSH1 0x2 EXP SUB PUSH1 0x4 CALLDATALOAD AND PUSH2 0x2895 JUMP JUMPDEST CALLVALUE DUP1 ISZERO PUSH2 0xA08 JUMPI PUSH1 0x0 DUP1 REVERT JUMPDEST POP PUSH2 0x2E8 PUSH2 0x28DB JUMP JUMPDEST PUSH1 0x1 PUSH1 0xA0 PUSH1 0x2 EXP SUB DUP4 AND ISZERO ISZERO PUSH2 0xA26 JUMPI PUSH1 0x0 DUP1 REVERT JUMPDEST DUP2 ISZERO ISZERO PUSH2 0xA32 JUMPI PUSH1 0x0 DUP1 REVERT JUMPDEST PUSH1 0x1 PUSH1 0xA0 PUSH1 0x2 EXP SUB DUP2 AND ISZERO ISZERO PUSH2 0xA47 JUMPI PUSH1 0x0 DUP1 REVERT JUMPDEST PUSH2 0xA52 DUP4 DUP3 DUP5 PUSH2 0x28EA JUMP JUMPDEST PUSH2 0xA5C DUP2 DUP4 PUSH2 0x2AA5 JUMP JUMPDEST PUSH2 0xA64 PUSH2 0x28DB JUMP JUMPDEST PUSH2 0xA6D DUP3 PUSH2 0x22BD JUMP JUMPDEST GT ISZERO PUSH2 0xA78 JUMPI PUSH1 0x0 DUP1 REVERT JUMPDEST PUSH2 0xA80 PUSH2 0x141D JUMP JUMPDEST PUSH2 0xA89 DUP3 PUSH2 0x22BD JUMP JUMPDEST LT ISZERO DUP1 ISZERO PUSH2 0xA9D JUMPI POP PUSH2 0xA9B DUP2 PUSH2 0x2895 JUMP JUMPDEST ISZERO JUMPDEST ISZERO PUSH2 0xABD JUMPI PUSH2 0xAAB DUP2 PUSH2 0x2BEC JUMP JUMPDEST PUSH2 0xABD DUP2 PUSH8 0x214E8348C4F0000 PUSH2 0x2CCF JUMP JUMPDEST PUSH2 0xAC6 DUP2 PUSH2 0x284F JUMP JUMPDEST ISZERO PUSH2 0xAD4 JUMPI PUSH2 0xAD4 DUP3 PUSH2 0x2D62 JUMP JUMPDEST POP POP POP JUMP JUMPDEST PUSH1 0x0 PUSH1 0xA PUSH1 0x0 PUSH1 0x40 MLOAD PUSH1 0x20 ADD DUP1 DUP1 PUSH1 0x0 DUP1 MLOAD PUSH1 0x20 PUSH2 0x4C92 DUP4 CODECOPY DUP2 MLOAD SWAP2 MSTORE DUP2 MSTORE POP PUSH1 0x10 ADD SWAP1 POP PUSH1 0x40 MLOAD PUSH1 0x20 DUP2 DUP4 SUB SUB DUP2 MSTORE SWAP1 PUSH1 0x40 MSTORE PUSH1 0x40 MLOAD DUP1 DUP3 DUP1 MLOAD SWAP1 PUSH1 0x20 ADD SWAP1 DUP1 DUP4 DUP4 JUMPDEST PUSH1 0x20 DUP4 LT PUSH2 0xB3C JUMPI DUP1 MLOAD DUP3 MSTORE PUSH1 0x1F NOT SWAP1 SWAP3 ADD SWAP2 PUSH1 0x20 SWAP2 DUP3 ADD SWAP2 ADD PUSH2 0xB1D JUMP JUMPDEST MLOAD DUP2 MLOAD PUSH1 0x20 SWAP4 DUP5 SUB PUSH2 0x100 EXP PUSH1 0x0 NOT ADD DUP1 NOT SWAP1 SWAP3 AND SWAP2 AND OR SWAP1 MSTORE PUSH1 0x40 DUP1 MLOAD SWAP3 SWAP1 SWAP5 ADD DUP3 SWAP1 SUB SWAP1 SWAP2 KECCAK256 DUP7 MSTORE DUP6 ADD SWAP6 SWAP1 SWAP6 MSTORE SWAP3 SWAP1 SWAP3 ADD PUSH1 0x0 KECCAK256 SLOAD SWAP4 POP POP POP POP JUMPDEST SWAP1 JUMP JUMPDEST PUSH1 0x0 PUSH1 0xA PUSH1 0x0 PUSH1 0x40 MLOAD PUSH1 0x20 ADD DUP1 DUP1 PUSH1 0x0 DUP1 MLOAD PUSH1 0x20 PUSH2 0x4CF2 DUP4 CODECOPY DUP2 MLOAD SWAP2 MSTORE DUP2 MSTORE POP PUSH1 0x11 ADD SWAP1 POP PUSH1 0x40 MLOAD PUSH1 0x20 DUP2 DUP4 SUB SUB DUP2 MSTORE SWAP1 PUSH1 0x40 MSTORE PUSH1 0x40 MLOAD DUP1 DUP3 DUP1 MLOAD SWAP1 PUSH1 0x20 ADD SWAP1 DUP1 DUP4 DUP4 JUMPDEST PUSH1 0x20 DUP4 LT PUSH2 0xBE0 JUMPI DUP1 MLOAD DUP3 MSTORE PUSH1 0x1F NOT SWAP1 SWAP3 ADD SWAP2 PUSH1 0x20 SWAP2 DUP3 ADD SWAP2 ADD PUSH2 0xBC1 JUMP JUMPDEST MLOAD DUP2 MLOAD PUSH1 0x20 SWAP4 DUP5 SUB PUSH2 0x100 EXP PUSH1 0x0 NOT ADD DUP1 NOT SWAP1 SWAP3 AND SWAP2 AND OR SWAP1 MSTORE PUSH1 0x40 DUP1 MLOAD SWAP3 SWAP1 SWAP5 ADD DUP3 SWAP1 SUB SWAP1 SWAP2 KECCAK256 DUP7 MSTORE DUP6 ADD SWAP6 SWAP1 SWAP6 MSTORE SWAP3 SWAP1 SWAP3 ADD PUSH1 0x0 KECCAK256 DUP1 SLOAD SWAP1 SWAP4 POP DUP6 SWAP3 POP DUP3 LT SWAP1 POP PUSH2 0xC29 JUMPI INVALID JUMPDEST PUSH1 0x0 SWAP2 DUP3 MSTORE PUSH1 0x20 SWAP1 SWAP2 KECCAK256 ADD SLOAD PUSH1 0x1 PUSH1 0xA0 PUSH1 0x2 EXP SUB AND SWAP3 SWAP2 POP POP JUMP JUMPDEST PUSH1 0x60 PUSH1 0xA PUSH1 0x0 DUP4 PUSH1 0x40 MLOAD PUSH1 0x20 ADD DUP1 DUP1 PUSH32 0x736E617073686F74000000000000000000000000000000000000000000000000 DUP2 MSTORE POP PUSH1 0x8 ADD DUP3 DUP2 MSTORE PUSH1 0x20 ADD DUP1 PUSH32 0x6164647265737365730000000000000000000000000000000000000000000000 DUP2 MSTORE POP PUSH1 0x9 ADD SWAP2 POP POP PUSH1 0x40 MLOAD PUSH1 0x20 DUP2 DUP4 SUB SUB DUP2 MSTORE SWAP1 PUSH1 0x40 MSTORE PUSH1 0x40 MLOAD DUP1 DUP3 DUP1 MLOAD SWAP1 PUSH1 0x20 ADD SWAP1 DUP1 DUP4 DUP4 JUMPDEST PUSH1 0x20 DUP4 LT PUSH2 0xCE9 JUMPI DUP1 MLOAD DUP3 MSTORE PUSH1 0x1F NOT SWAP1 SWAP3 ADD SWAP2 PUSH1 0x20 SWAP2 DUP3 ADD SWAP2 ADD PUSH2 0xCCA JUMP JUMPDEST MLOAD DUP2 MLOAD PUSH1 0x20 SWAP4 DUP5 SUB PUSH2 0x100 EXP PUSH1 0x0 NOT ADD DUP1 NOT SWAP1 SWAP3 AND SWAP2 AND OR SWAP1 MSTORE PUSH1 0x40 DUP1 MLOAD SWAP3 SWAP1 SWAP5 ADD DUP3 SWAP1 SUB SWAP1 SWAP2 KECCAK256 DUP7 MSTORE DUP6 DUP2 ADD SWAP7 SWAP1 SWAP7 MSTORE POP SWAP3 DUP4 ADD PUSH1 0x0 KECCAK256 DUP1 SLOAD DUP5 MLOAD DUP2 DUP8 MUL DUP2 ADD DUP8 ADD SWAP1 SWAP6 MSTORE DUP1 DUP6 MSTORE SWAP4 SWAP5 SWAP1 SWAP4 SWAP3 POP DUP5 ADD SWAP1 POP DUP3 DUP3 DUP1 ISZERO PUSH2 0xD73 JUMPI PUSH1 0x20 MUL DUP3 ADD SWAP2 SWAP1 PUSH1 0x0 MSTORE PUSH1 0x20 PUSH1 0x0 KECCAK256 SWAP1 JUMPDEST DUP2 SLOAD PUSH1 0x1 PUSH1 0xA0 PUSH1 0x2 EXP SUB AND DUP2 MSTORE PUSH1 0x1 SWAP1 SWAP2 ADD SWAP1 PUSH1 0x20 ADD DUP1 DUP4 GT PUSH2 0xD55 JUMPI JUMPDEST POP POP POP POP POP SWAP1 POP SWAP2 SWAP1 POP JUMP JUMPDEST PUSH1 0x4 PUSH1 0x0 PUSH1 0x40 MLOAD PUSH1 0x20 ADD DUP1 DUP1 PUSH32 0x6F776E6572000000000000000000000000000000000000000000000000000000 DUP2 MSTORE POP PUSH1 0x5 ADD SWAP1 POP PUSH1 0x40 MLOAD PUSH1 0x20 DUP2 DUP4 SUB SUB DUP2 MSTORE SWAP1 PUSH1 0x40 MSTORE PUSH1 0x40 MLOAD DUP1 DUP3 DUP1 MLOAD SWAP1 PUSH1 0x20 ADD SWAP1 DUP1 DUP4 DUP4 JUMPDEST PUSH1 0x20 DUP4 LT PUSH2 0xDF2 JUMPI DUP1 MLOAD DUP3 MSTORE PUSH1 0x1F NOT SWAP1 SWAP3 ADD SWAP2 PUSH1 0x20 SWAP2 DUP3 ADD SWAP2 ADD PUSH2 0xDD3 JUMP JUMPDEST MLOAD DUP2 MLOAD PUSH1 0x20 SWAP4 DUP5 SUB PUSH2 0x100 EXP PUSH1 0x0 NOT ADD DUP1 NOT SWAP1 SWAP3 AND SWAP2 AND OR SWAP1 MSTORE PUSH1 0x40 DUP1 MLOAD SWAP3 SWAP1 SWAP5 ADD DUP3 SWAP1 SUB SWAP1 SWAP2 KECCAK256 DUP7 MSTORE DUP6 ADD SWAP6 SWAP1 SWAP6 MSTORE SWAP3 SWAP1 SWAP3 ADD PUSH1 0x0 KECCAK256 SLOAD PUSH1 0x1 PUSH1 0xA0 PUSH1 0x2 EXP SUB AND CALLER EQ SWAP3 POP PUSH2 0xE43 SWAP2 POP POP JUMPI PUSH1 0x0 DUP1 REVERT JUMPDEST PUSH1 0x1 PUSH1 0xA0 PUSH1 0x2 EXP SUB DUP2 AND ISZERO ISZERO PUSH2 0xE58 JUMPI PUSH1 0x0 DUP1 REVERT JUMPDEST PUSH1 0x6 PUSH1 0x0 PUSH1 0x40 MLOAD PUSH1 0x20 ADD DUP1 DUP1 PUSH32 0x77617350726F787953746F726167655365740000000000000000000000000000 DUP2 MSTORE POP PUSH1 0x12 ADD SWAP1 POP PUSH1 0x40 MLOAD PUSH1 0x20 DUP2 DUP4 SUB SUB DUP2 MSTORE SWAP1 PUSH1 0x40 MSTORE PUSH1 0x40 MLOAD DUP1 DUP3 DUP1 MLOAD SWAP1 PUSH1 0x20 ADD SWAP1 DUP1 DUP4 DUP4 JUMPDEST PUSH1 0x20 DUP4 LT PUSH2 0xECB JUMPI DUP1 MLOAD DUP3 MSTORE PUSH1 0x1F NOT SWAP1 SWAP3 ADD SWAP2 PUSH1 0x20 SWAP2 DUP3 ADD SWAP2 ADD PUSH2 0xEAC JUMP JUMPDEST MLOAD DUP2 MLOAD PUSH1 0x20 SWAP4 DUP5 SUB PUSH2 0x100 EXP PUSH1 0x0 NOT ADD DUP1 NOT SWAP1 SWAP3 AND SWAP2 AND OR SWAP1 MSTORE PUSH1 0x40 DUP1 MLOAD SWAP3 SWAP1 SWAP5 ADD DUP3 SWAP1 SUB SWAP1 SWAP2 KECCAK256 DUP7 MSTORE DUP6 ADD SWAP6 SWAP1 SWAP6 MSTORE SWAP3 SWAP1 SWAP3 ADD PUSH1 0x0 KECCAK256 SLOAD PUSH1 0xFF AND ISZERO SWAP3 POP PUSH2 0xF15 SWAP2 POP POP JUMPI PUSH1 0x0 DUP1 REVERT JUMPDEST DUP1 PUSH1 0x4 PUSH1 0x0 PUSH1 0x40 MLOAD PUSH1 0x20 ADD DUP1 DUP1 PUSH32 0x70726F787953746F726167650000000000000000000000000000000000000000 DUP2 MSTORE POP PUSH1 0xC ADD SWAP1 POP PUSH1 0x40 MLOAD PUSH1 0x20 DUP2 DUP4 SUB SUB DUP2 MSTORE SWAP1 PUSH1 0x40 MSTORE PUSH1 0x40 MLOAD DUP1 DUP3 DUP1 MLOAD SWAP1 PUSH1 0x20 ADD SWAP1 DUP1 DUP4 DUP4 JUMPDEST PUSH1 0x20 DUP4 LT PUSH2 0xF89 JUMPI DUP1 MLOAD DUP3 MSTORE PUSH1 0x1F NOT SWAP1 SWAP3 ADD SWAP2 PUSH1 0x20 SWAP2 DUP3 ADD SWAP2 ADD PUSH2 0xF6A JUMP JUMPDEST MLOAD DUP2 MLOAD PUSH1 0x20 SWAP4 DUP5 SUB PUSH2 0x100 EXP PUSH1 0x0 NOT ADD DUP1 NOT SWAP1 SWAP3 AND SWAP2 AND OR SWAP1 MSTORE PUSH1 0x40 DUP1 MLOAD SWAP3 SWAP1 SWAP5 ADD DUP3 SWAP1 SUB SWAP1 SWAP2 KECCAK256 DUP7 MSTORE DUP6 DUP2 ADD SWAP7 SWAP1 SWAP7 MSTORE POP SWAP3 DUP4 ADD PUSH1 0x0 SWAP1 DUP2 KECCAK256 DUP1 SLOAD PUSH1 0x1 PUSH1 0xA0 PUSH1 0x2 EXP SUB NOT AND PUSH1 0x1 PUSH1 0xA0 PUSH1 0x2 EXP SUB SWAP8 SWAP1 SWAP8 AND SWAP7 SWAP1 SWAP7 OR SWAP1 SWAP6 SSTORE POP POP DUP1 MLOAD PUSH32 0x77617350726F787953746F726167655365740000000000000000000000000000 DUP2 DUP5 ADD MSTORE DUP2 MLOAD PUSH1 0x12 DUP2 DUP4 SUB ADD DUP2 MSTORE PUSH1 0x32 SWAP1 SWAP2 ADD SWAP2 DUP3 SWAP1 MSTORE DUP1 MLOAD PUSH1 0x1 SWAP5 PUSH1 0x6 SWAP5 SWAP1 SWAP4 SWAP2 DUP3 SWAP2 DUP5 ADD SWAP1 DUP1 DUP4 DUP4 JUMPDEST PUSH1 0x20 DUP4 LT PUSH2 0x1051 JUMPI DUP1 MLOAD DUP3 MSTORE PUSH1 0x1F NOT SWAP1 SWAP3 ADD SWAP2 PUSH1 0x20 SWAP2 DUP3 ADD SWAP2 ADD PUSH2 0x1032 JUMP JUMPDEST MLOAD DUP2 MLOAD PUSH1 0x20 SWAP4 DUP5 SUB PUSH2 0x100 EXP PUSH1 0x0 NOT ADD DUP1 NOT SWAP1 SWAP3 AND SWAP2 AND OR SWAP1 MSTORE PUSH1 0x40 DUP1 MLOAD SWAP3 SWAP1 SWAP5 ADD DUP3 SWAP1 SUB SWAP1 SWAP2 KECCAK256 DUP7 MSTORE DUP6 ADD SWAP6 SWAP1 SWAP6 MSTORE SWAP3 SWAP1 SWAP3 ADD PUSH1 0x0 KECCAK256 DUP1 SLOAD PUSH1 0xFF NOT AND SWAP5 ISZERO ISZERO SWAP5 SWAP1 SWAP5 OR SWAP1 SWAP4 SSTORE POP POP POP POP JUMP JUMPDEST PUSH8 0x214E8348C4F0000 SWAP1 JUMP JUMPDEST PUSH1 0x0 DUP1 JUMPDEST PUSH2 0x10B6 PUSH2 0xAD9 JUMP JUMPDEST DUP2 LT ISZERO PUSH2 0x10F0 JUMPI PUSH2 0x10C6 DUP2 PUSH2 0x1E86 JUMP JUMPDEST PUSH1 0x1 PUSH1 0xA0 PUSH1 0x2 EXP SUB AND DUP4 PUSH1 0x1 PUSH1 0xA0 PUSH1 0x2 EXP SUB AND EQ ISZERO PUSH2 0x10E8 JUMPI PUSH1 0x1 SWAP2 POP PUSH2 0x10F5 JUMP JUMPDEST PUSH1 0x1 ADD PUSH2 0x10AE JUMP JUMPDEST PUSH1 0x0 SWAP2 POP JUMPDEST POP SWAP2 SWAP1 POP JUMP JUMPDEST PUSH1 0x40 DUP1 MLOAD PUSH1 0x0 DUP1 MLOAD PUSH1 0x20 PUSH2 0x4D92 DUP4 CODECOPY DUP2 MLOAD SWAP2 MSTORE PUSH1 0x20 DUP1 DUP4 ADD SWAP2 SWAP1 SWAP2 MSTORE PUSH1 0x60 PUSH1 0x2 EXP PUSH1 0x1 PUSH1 0xA0 PUSH1 0x2 EXP SUB DUP1 DUP8 AND DUP3 MUL PUSH1 0x2F DUP6 ADD MSTORE DUP6 AND MUL PUSH1 0x43 DUP4 ADD MSTORE DUP3 MLOAD PUSH1 0x37 DUP2 DUP5 SUB ADD DUP2 MSTORE PUSH1 0x57 SWAP1 SWAP3 ADD SWAP3 DUP4 SWAP1 MSTORE DUP2 MLOAD PUSH1 0x0 SWAP4 PUSH1 0x2 SWAP4 DUP6 SWAP4 SWAP1 SWAP3 DUP3 SWAP2 DUP5 ADD SWAP1 DUP1 DUP4 DUP4 JUMPDEST PUSH1 0x20 DUP4 LT PUSH2 0x117D JUMPI DUP1 MLOAD DUP3 MSTORE PUSH1 0x1F NOT SWAP1 SWAP3 ADD SWAP2 PUSH1 0x20 SWAP2 DUP3 ADD SWAP2 ADD PUSH2 0x115E JUMP JUMPDEST MLOAD DUP2 MLOAD PUSH1 0x20 SWAP4 DUP5 SUB PUSH2 0x100 EXP PUSH1 0x0 NOT ADD DUP1 NOT SWAP1 SWAP3 AND SWAP2 AND OR SWAP1 MSTORE PUSH1 0x40 DUP1 MLOAD SWAP3 SWAP1 SWAP5 ADD DUP3 SWAP1 SUB SWAP1 SWAP2 KECCAK256 DUP7 MSTORE DUP6 ADD SWAP6 SWAP1 SWAP6 MSTORE SWAP3 SWAP1 SWAP3 ADD PUSH1 0x0 KECCAK256 SLOAD SWAP7 SWAP6 POP POP POP POP POP POP JUMP JUMPDEST PUSH1 0x0 PUSH1 0xA PUSH1 0x0 PUSH1 0x40 MLOAD PUSH1 0x20 ADD DUP1 DUP1 PUSH1 0x0 DUP1 MLOAD PUSH1 0x20 PUSH2 0x4CF2 DUP4 CODECOPY DUP2 MLOAD SWAP2 MSTORE DUP2 MSTORE POP PUSH1 0x11 ADD SWAP1 POP PUSH1 0x40 MLOAD PUSH1 0x20 DUP2 DUP4 SUB SUB DUP2 MSTORE SWAP1 PUSH1 0x40 MSTORE PUSH1 0x40 MLOAD DUP1 DUP3 DUP1 MLOAD SWAP1 PUSH1 0x20 ADD SWAP1 DUP1 DUP4 DUP4 PUSH1 0x20 DUP4 LT PUSH2 0xB3C JUMPI DUP1 MLOAD DUP3 MSTORE PUSH1 0x1F NOT SWAP1 SWAP3 ADD SWAP2 PUSH1 0x20 SWAP2 DUP3 ADD SWAP2 ADD PUSH2 0xB1D JUMP JUMPDEST PUSH1 0x0 PUSH1 0xA PUSH1 0x0 PUSH1 0x40 MLOAD PUSH1 0x20 ADD DUP1 DUP1 PUSH32 0x6E657756616C696461746F725365740000000000000000000000000000000000 DUP2 MSTORE POP PUSH1 0xF ADD SWAP1 POP PUSH1 0x40 MLOAD PUSH1 0x20 DUP2 DUP4 SUB SUB DUP2 MSTORE SWAP1 PUSH1 0x40 MSTORE PUSH1 0x40 MLOAD DUP1 DUP3 DUP1 MLOAD SWAP1 PUSH1 0x20 ADD SWAP1 DUP1 DUP4 DUP4 PUSH1 0x20 DUP4 LT PUSH2 0xB3C JUMPI DUP1 MLOAD DUP3 MSTORE PUSH1 0x1F NOT SWAP1 SWAP3 ADD SWAP2 PUSH1 0x20 SWAP2 DUP3 ADD SWAP2 ADD PUSH2 0xB1D JUMP JUMPDEST PUSH8 0xDE0B6B3A7640000 DUP2 JUMP JUMPDEST PUSH2 0x12AC CALLER DUP3 CALLER PUSH2 0x2E68 JUMP JUMPDEST POP JUMP JUMPDEST PUSH1 0x0 PUSH1 0x6 PUSH1 0x0 PUSH1 0x40 MLOAD PUSH1 0x20 ADD DUP1 DUP1 PUSH32 0x6973496E697469616C697A656400000000000000000000000000000000000000 DUP2 MSTORE POP PUSH1 0xD ADD SWAP1 POP PUSH1 0x40 MLOAD PUSH1 0x20 DUP2 DUP4 SUB SUB DUP2 MSTORE SWAP1 PUSH1 0x40 MSTORE PUSH1 0x40 MLOAD DUP1 DUP3 DUP1 MLOAD SWAP1 PUSH1 0x20 ADD SWAP1 DUP1 DUP4 DUP4 JUMPDEST PUSH1 0x20 DUP4 LT PUSH2 0x1324 JUMPI DUP1 MLOAD DUP3 MSTORE PUSH1 0x1F NOT SWAP1 SWAP3 ADD SWAP2 PUSH1 0x20 SWAP2 DUP3 ADD SWAP2 ADD PUSH2 0x1305 JUMP JUMPDEST MLOAD DUP2 MLOAD PUSH1 0x20 SWAP4 DUP5 SUB PUSH2 0x100 EXP PUSH1 0x0 NOT ADD DUP1 NOT SWAP1 SWAP3 AND SWAP2 AND OR SWAP1 MSTORE PUSH1 0x40 DUP1 MLOAD SWAP3 SWAP1 SWAP5 ADD DUP3 SWAP1 SUB SWAP1 SWAP2 KECCAK256 DUP7 MSTORE DUP6 ADD SWAP6 SWAP1 SWAP6 MSTORE SWAP3 SWAP1 SWAP3 ADD PUSH1 0x0 KECCAK256 SLOAD PUSH1 0xFF AND SWAP5 SWAP4 POP POP POP POP JUMP JUMPDEST PUSH2 0x1372 CALLER CALLVALUE CALLER PUSH2 0xA11 JUMP JUMPDEST JUMP JUMPDEST PUSH1 0x0 PUSH1 0xA PUSH1 0x0 PUSH1 0x40 MLOAD PUSH1 0x20 ADD DUP1 DUP1 PUSH1 0x0 DUP1 MLOAD PUSH1 0x20 PUSH2 0x4D72 DUP4 CODECOPY DUP2 MLOAD SWAP2 MSTORE DUP2 MSTORE POP PUSH1 0x11 ADD SWAP1 POP PUSH1 0x40 MLOAD PUSH1 0x20 DUP2 DUP4 SUB SUB DUP2 MSTORE SWAP1 PUSH1 0x40 MSTORE PUSH1 0x40 MLOAD DUP1 DUP3 DUP1 MLOAD SWAP1 PUSH1 0x20 ADD SWAP1 DUP1 DUP4 DUP4 PUSH1 0x20 DUP4 LT PUSH2 0xB3C JUMPI DUP1 MLOAD DUP3 MSTORE PUSH1 0x1F NOT SWAP1 SWAP3 ADD SWAP2 PUSH1 0x20 SWAP2 DUP3 ADD SWAP2 ADD PUSH2 0xB1D JUMP JUMPDEST PUSH2 0x13DF CALLER PUSH2 0x284F JUMP JUMPDEST ISZERO ISZERO PUSH2 0x13EA JUMPI PUSH1 0x0 DUP1 REVERT JUMPDEST PUSH8 0xDE0B6B3A7640000 DUP2 GT ISZERO PUSH2 0x13FF JUMPI PUSH1 0x0 DUP1 REVERT JUMPDEST PUSH2 0x1407 PUSH2 0x109E JUMP JUMPDEST DUP2 LT ISZERO PUSH2 0x1413 JUMPI PUSH1 0x0 DUP1 REVERT JUMPDEST PUSH2 0x12AC CALLER DUP3 PUSH2 0x2CCF JUMP JUMPDEST PUSH10 0x152D02C7E14AF6800000 SWAP1 JUMP JUMPDEST PUSH1 0x0 PUSH1 0xA PUSH1 0x0 PUSH1 0x40 MLOAD PUSH1 0x20 ADD DUP1 DUP1 PUSH1 0x0 DUP1 MLOAD PUSH1 0x20 PUSH2 0x4D72 DUP4 CODECOPY DUP2 MLOAD SWAP2 MSTORE DUP2 MSTORE POP PUSH1 0x11 ADD SWAP1 POP PUSH1 0x40 MLOAD PUSH1 0x20 DUP2 DUP4 SUB SUB DUP2 MSTORE SWAP1 PUSH1 0x40 MSTORE PUSH1 0x40 MLOAD DUP1 DUP3 DUP1 MLOAD SWAP1 PUSH1 0x20 ADD SWAP1 DUP1 DUP4 DUP4 PUSH1 0x20 DUP4 LT PUSH2 0xBE0 JUMPI DUP1 MLOAD DUP3 MSTORE PUSH1 0x1F NOT SWAP1 SWAP3 ADD SWAP2 PUSH1 0x20 SWAP2 DUP3 ADD SWAP2 ADD PUSH2 0xBC1 JUMP JUMPDEST PUSH2 0x12AC CALLER CALLVALUE DUP4 PUSH2 0xA11 JUMP JUMPDEST PUSH1 0x60 PUSH1 0xA PUSH1 0x0 PUSH1 0x40 MLOAD PUSH1 0x20 ADD DUP1 DUP1 PUSH32 0x6E657756616C696461746F725365740000000000000000000000000000000000 DUP2 MSTORE POP PUSH1 0xF ADD SWAP1 POP PUSH1 0x40 MLOAD PUSH1 0x20 DUP2 DUP4 SUB SUB DUP2 MSTORE SWAP1 PUSH1 0x40 MSTORE PUSH1 0x40 MLOAD DUP1 DUP3 DUP1 MLOAD SWAP1 PUSH1 0x20 ADD SWAP1 DUP1 DUP4 DUP4 JUMPDEST PUSH1 0x20 DUP4 LT PUSH2 0x150D JUMPI DUP1 MLOAD DUP3 MSTORE PUSH1 0x1F NOT SWAP1 SWAP3 ADD SWAP2 PUSH1 0x20 SWAP2 DUP3 ADD SWAP2 ADD PUSH2 0x14EE JUMP JUMPDEST MLOAD DUP2 MLOAD PUSH1 0x20 SWAP4 DUP5 SUB PUSH2 0x100 EXP PUSH1 0x0 NOT ADD DUP1 NOT SWAP1 SWAP3 AND SWAP2 AND OR SWAP1 MSTORE PUSH1 0x40 DUP1 MLOAD SWAP3 SWAP1 SWAP5 ADD DUP3 SWAP1 SUB SWAP1 SWAP2 KECCAK256 DUP7 MSTORE DUP6 DUP2 ADD SWAP7 SWAP1 SWAP7 MSTORE POP SWAP3 DUP4 ADD PUSH1 0x0 KECCAK256 DUP1 SLOAD DUP5 MLOAD DUP2 DUP8 MUL DUP2 ADD DUP8 ADD SWAP1 SWAP6 MSTORE DUP1 DUP6 MSTORE SWAP4 SWAP5 SWAP1 SWAP4 SWAP3 POP DUP5 ADD SWAP1 POP DUP3 DUP3 DUP1 ISZERO PUSH2 0x1597 JUMPI PUSH1 0x20 MUL DUP3 ADD SWAP2 SWAP1 PUSH1 0x0 MSTORE PUSH1 0x20 PUSH1 0x0 KECCAK256 SWAP1 JUMPDEST DUP2 SLOAD PUSH1 0x1 PUSH1 0xA0 PUSH1 0x2 EXP SUB AND DUP2 MSTORE PUSH1 0x1 SWAP1 SWAP2 ADD SWAP1 PUSH1 0x20 ADD DUP1 DUP4 GT PUSH2 0x1579 JUMPI JUMPDEST POP POP POP POP POP SWAP1 POP SWAP1 JUMP JUMPDEST PUSH1 0x60 PUSH1 0xA PUSH1 0x0 PUSH1 0x40 MLOAD PUSH1 0x20 ADD DUP1 DUP1 PUSH1 0x0 DUP1 MLOAD PUSH1 0x20 PUSH2 0x4C92 DUP4 CODECOPY DUP2 MLOAD SWAP2 MSTORE DUP2 MSTORE POP PUSH1 0x10 ADD SWAP1 POP PUSH1 0x40 MLOAD PUSH1 0x20 DUP2 DUP4 SUB SUB DUP2 MSTORE SWAP1 PUSH1 0x40 MSTORE PUSH1 0x40 MLOAD DUP1 DUP3 DUP1 MLOAD SWAP1 PUSH1 0x20 ADD SWAP1 DUP1 DUP4 DUP4 PUSH1 0x20 DUP4 LT PUSH2 0x150D JUMPI DUP1 MLOAD DUP3 MSTORE PUSH1 0x1F NOT SWAP1 SWAP3 ADD SWAP2 PUSH1 0x20 SWAP2 DUP3 ADD SWAP2 ADD PUSH2 0x14EE JUMP JUMPDEST PUSH1 0x60 DUP1 PUSH1 0x60 DUP1 PUSH1 0x0 DUP1 PUSH1 0x0 PUSH2 0x1617 DUP10 PUSH2 0x1D90 JUMP JUMPDEST SWAP5 POP DUP5 MLOAD PUSH1 0x40 MLOAD SWAP1 DUP1 DUP3 MSTORE DUP1 PUSH1 0x20 MUL PUSH1 0x20 ADD DUP3 ADD PUSH1 0x40 MSTORE DUP1 ISZERO PUSH2 0x1644 JUMPI DUP2 PUSH1 0x20 ADD PUSH1 0x20 DUP3 MUL DUP1 CODESIZE DUP4 CODECOPY ADD SWAP1 POP JUMPDEST POP SWAP4 POP PUSH2 0x1660 PUSH2 0x1652 PUSH2 0x141D JUMP JUMPDEST PUSH2 0x165B DUP12 PUSH2 0x22BD JUMP JUMPDEST PUSH2 0x2F82 JUMP JUMPDEST SWAP3 POP JUMPDEST DUP5 MLOAD DUP3 LT ISZERO PUSH2 0x16F2 JUMPI PUSH2 0x167F PUSH2 0x1679 DUP11 DUP5 PUSH2 0x2596 JUMP JUMPDEST DUP11 PUSH2 0x10FB JUMP JUMPDEST SWAP1 POP PUSH2 0x16CF PUSH8 0xDE0B6B3A7640000 PUSH2 0x16B7 PUSH2 0x1699 DUP13 PUSH2 0x208D JUMP JUMPDEST PUSH8 0xDE0B6B3A7640000 SUB PUSH2 0x16C3 DUP8 PUSH2 0x16B7 DUP15 DUP9 PUSH4 0xFFFFFFFF PUSH2 0x2F9B AND JUMP JUMPDEST SWAP1 PUSH4 0xFFFFFFFF PUSH2 0x2FC9 AND JUMP JUMPDEST SWAP1 PUSH4 0xFFFFFFFF PUSH2 0x2F9B AND JUMP JUMPDEST DUP5 DUP4 DUP2 MLOAD DUP2 LT ISZERO ISZERO PUSH2 0x16DD JUMPI INVALID JUMPDEST PUSH1 0x20 SWAP1 DUP2 MUL SWAP1 SWAP2 ADD ADD MSTORE PUSH1 0x1 SWAP1 SWAP2 ADD SWAP1 PUSH2 0x1663 JUMP JUMPDEST POP SWAP3 SWAP8 SWAP2 SWAP7 POP SWAP1 SWAP5 POP POP POP POP POP JUMP JUMPDEST PUSH1 0x32 DUP2 JUMP JUMPDEST PUSH2 0x170F CALLER PUSH2 0x284F JUMP JUMPDEST ISZERO ISZERO PUSH2 0x171A JUMPI PUSH1 0x0 DUP1 REVERT JUMPDEST PUSH2 0x1723 CALLER PUSH2 0x10AA JUMP JUMPDEST ISZERO PUSH2 0x172D JUMPI PUSH1 0x0 DUP1 REVERT JUMPDEST PUSH2 0x1372 CALLER PUSH2 0x2FEC JUMP JUMPDEST PUSH2 0x173F CALLER PUSH2 0x10AA JUMP JUMPDEST ISZERO ISZERO PUSH2 0x174A JUMPI PUSH1 0x0 DUP1 REVERT JUMPDEST PUSH2 0x1752 PUSH2 0x223F JUMP JUMPDEST PUSH2 0x175B CALLER PUSH2 0x273C JUMP JUMPDEST GT ISZERO PUSH2 0x1766 JUMPI PUSH1 0x0 DUP1 REVERT JUMPDEST PUSH2 0x1372 CALLER PUSH2 0x2FFE JUMP JUMPDEST PUSH2 0x3E8 DUP2 JUMP JUMPDEST PUSH2 0xBB8 DUP2 JUMP JUMPDEST PUSH1 0x4 PUSH1 0x0 PUSH1 0x40 MLOAD PUSH1 0x20 ADD DUP1 DUP1 PUSH32 0x53595354454D5F41444452455353000000000000000000000000000000000000 DUP2 MSTORE POP PUSH1 0xE ADD SWAP1 POP PUSH1 0x40 MLOAD PUSH1 0x20 DUP2 DUP4 SUB SUB DUP2 MSTORE SWAP1 PUSH1 0x40 MSTORE PUSH1 0x40 MLOAD DUP1 DUP3 DUP1 MLOAD SWAP1 PUSH1 0x20 ADD SWAP1 DUP1 DUP4 DUP4 JUMPDEST PUSH1 0x20 DUP4 LT PUSH2 0x17EE JUMPI DUP1 MLOAD DUP3 MSTORE PUSH1 0x1F NOT SWAP1 SWAP3 ADD SWAP2 PUSH1 0x20 SWAP2 DUP3 ADD SWAP2 ADD PUSH2 0x17CF JUMP JUMPDEST MLOAD DUP2 MLOAD PUSH1 0x20 SWAP4 DUP5 SUB PUSH2 0x100 EXP PUSH1 0x0 NOT ADD DUP1 NOT SWAP1 SWAP3 AND SWAP2 AND OR SWAP1 MSTORE PUSH1 0x40 DUP1 MLOAD SWAP3 SWAP1 SWAP5 ADD DUP3 SWAP1 SUB SWAP1 SWAP2 KECCAK256 DUP7 MSTORE DUP6 ADD SWAP6 SWAP1 SWAP6 MSTORE SWAP3 SWAP1 SWAP3 ADD PUSH1 0x0 KECCAK256 SLOAD PUSH1 0x1 PUSH1 0xA0 PUSH1 0x2 EXP SUB AND CALLER EQ SWAP3 POP PUSH2 0x183F SWAP2 POP POP JUMPI PUSH1 0x0 DUP1 REVERT JUMPDEST PUSH2 0x1847 PUSH2 0x1E12 JUMP JUMPDEST ISZERO PUSH2 0x1851 JUMPI PUSH1 0x0 DUP1 REVERT JUMPDEST PUSH1 0x0 PUSH2 0x185B PUSH2 0x1221 JUMP JUMPDEST GT ISZERO PUSH2 0x18EA JUMPI PUSH2 0x1871 PUSH2 0x186C PUSH2 0x1498 JUMP JUMPDEST PUSH2 0x303A JUMP JUMPDEST PUSH32 0x8564CD629B15F47DC310D45BCBFC9BCF5420B0D51BF0659A16C67F91D2763253 PUSH2 0x189A PUSH2 0x2175 JUMP JUMPDEST PUSH1 0x40 DUP1 MLOAD PUSH1 0x20 DUP1 DUP3 MSTORE DUP4 MLOAD DUP2 DUP4 ADD MSTORE DUP4 MLOAD SWAP2 SWAP3 DUP4 SWAP3 SWAP1 DUP4 ADD SWAP2 DUP6 DUP2 ADD SWAP2 MUL DUP1 DUP4 DUP4 PUSH1 0x0 JUMPDEST DUP4 DUP2 LT ISZERO PUSH2 0x18D6 JUMPI DUP2 DUP2 ADD MLOAD DUP4 DUP3 ADD MSTORE PUSH1 0x20 ADD PUSH2 0x18BE JUMP JUMPDEST POP POP POP POP SWAP1 POP ADD SWAP3 POP POP POP PUSH1 0x40 MLOAD DUP1 SWAP2 SUB SWAP1 LOG1 JUMPDEST PUSH2 0x1372 PUSH1 0x1 PUSH2 0x318D JUMP JUMPDEST PUSH2 0x3E8 SWAP1 JUMP JUMPDEST PUSH1 0x0 PUSH1 0x2 PUSH1 0x0 DUP4 PUSH1 0x40 MLOAD PUSH1 0x20 ADD DUP1 DUP1 PUSH1 0x0 DUP1 MLOAD PUSH1 0x20 PUSH2 0x4DB2 DUP4 CODECOPY DUP2 MLOAD SWAP2 MSTORE DUP2 MSTORE POP PUSH1 0xB ADD DUP3 PUSH1 0x1 PUSH1 0xA0 PUSH1 0x2 EXP SUB AND PUSH1 0x1 PUSH1 0xA0 PUSH1 0x2 EXP SUB AND PUSH1 0x60 PUSH1 0x2 EXP MUL DUP2 MSTORE PUSH1 0x14 ADD SWAP2 POP POP PUSH1 0x40 MLOAD PUSH1 0x20 DUP2 DUP4 SUB SUB DUP2 MSTORE SWAP1 PUSH1 0x40 MSTORE PUSH1 0x40 MLOAD DUP1 DUP3 DUP1 MLOAD SWAP1 PUSH1 0x20 ADD SWAP1 DUP1 DUP4 DUP4 JUMPDEST PUSH1 0x20 DUP4 LT PUSH2 0x197D JUMPI DUP1 MLOAD DUP3 MSTORE PUSH1 0x1F NOT SWAP1 SWAP3 ADD SWAP2 PUSH1 0x20 SWAP2 DUP3 ADD SWAP2 ADD PUSH2 0x195E JUMP JUMPDEST MLOAD DUP2 MLOAD PUSH1 0x20 SWAP4 DUP5 SUB PUSH2 0x100 EXP PUSH1 0x0 NOT ADD DUP1 NOT SWAP1 SWAP3 AND SWAP2 AND OR SWAP1 MSTORE PUSH1 0x40 DUP1 MLOAD SWAP3 SWAP1 SWAP5 ADD DUP3 SWAP1 SUB SWAP1 SWAP2 KECCAK256 DUP7 MSTORE DUP6 ADD SWAP6 SWAP1 SWAP6 MSTORE SWAP3 SWAP1 SWAP3 ADD PUSH1 0x0 KECCAK256 SLOAD SWAP6 SWAP5 POP POP POP POP POP JUMP JUMPDEST PUSH1 0x0 PUSH1 0x2 PUSH1 0x0 DUP4 PUSH1 0x40 MLOAD PUSH1 0x20 ADD DUP1 DUP1 PUSH1 0x0 DUP1 MLOAD PUSH1 0x20 PUSH2 0x4CD2 DUP4 CODECOPY DUP2 MLOAD SWAP2 MSTORE DUP2 MSTORE POP PUSH1 0xC ADD DUP3 PUSH1 0x1 PUSH1 0xA0 PUSH1 0x2 EXP SUB AND PUSH1 0x1 PUSH1 0xA0 PUSH1 0x2 EXP SUB AND PUSH1 0x60 PUSH1 0x2 EXP MUL DUP2 MSTORE PUSH1 0x14 ADD SWAP2 POP POP PUSH1 0x40 MLOAD PUSH1 0x20 DUP2 DUP4 SUB SUB DUP2 MSTORE SWAP1 PUSH1 0x40 MSTORE PUSH1 0x40 MLOAD DUP1 DUP3 DUP1 MLOAD SWAP1 PUSH1 0x20 ADD SWAP1 DUP1 DUP4 DUP4 PUSH1 0x20 DUP4 LT PUSH2 0x197D JUMPI DUP1 MLOAD DUP3 MSTORE PUSH1 0x1F NOT SWAP1 SWAP3 ADD SWAP2 PUSH1 0x20 SWAP2 DUP3 ADD SWAP2 ADD PUSH2 0x195E JUMP JUMPDEST PUSH2 0x8700 DUP2 JUMP JUMPDEST PUSH1 0x60 PUSH2 0x1A50 PUSH2 0x267E JUMP JUMPDEST PUSH1 0x1 PUSH1 0xA0 PUSH1 0x2 EXP SUB AND PUSH4 0xF89D4086 PUSH1 0x40 MLOAD DUP2 PUSH4 0xFFFFFFFF AND PUSH1 0xE0 PUSH1 0x2 EXP MUL DUP2 MSTORE PUSH1 0x4 ADD PUSH1 0x20 PUSH1 0x40 MLOAD DUP1 DUP4 SUB DUP2 PUSH1 0x0 DUP8 DUP1 EXTCODESIZE ISZERO DUP1 ISZERO PUSH2 0x1A8D JUMPI PUSH1 0x0 DUP1 REVERT JUMPDEST POP GAS CALL ISZERO DUP1 ISZERO PUSH2 0x1AA1 JUMPI RETURNDATASIZE PUSH1 0x0 DUP1 RETURNDATACOPY RETURNDATASIZE PUSH1 0x0 REVERT JUMPDEST POP POP POP POP PUSH1 0x40 MLOAD RETURNDATASIZE PUSH1 0x20 DUP2 LT ISZERO PUSH2 0x1AB7 JUMPI PUSH1 0x0 DUP1 REVERT JUMPDEST POP MLOAD PUSH1 0x1 PUSH1 0xA0 PUSH1 0x2 EXP SUB AND CALLER EQ PUSH2 0x1ACD JUMPI PUSH1 0x0 DUP1 REVERT JUMPDEST PUSH2 0x1AD6 DUP3 PUSH2 0x3200 JUMP JUMPDEST PUSH2 0x1ADE PUSH2 0x3330 JUMP JUMPDEST ISZERO PUSH2 0x1D62 JUMPI PUSH2 0x1AEB PUSH2 0x267E JUMP JUMPDEST PUSH1 0x1 PUSH1 0xA0 PUSH1 0x2 EXP SUB AND PUSH4 0x1986D376 PUSH1 0x40 MLOAD DUP2 PUSH4 0xFFFFFFFF AND PUSH1 0xE0 PUSH1 0x2 EXP MUL DUP2 MSTORE PUSH1 0x4 ADD PUSH1 0x20 PUSH1 0x40 MLOAD DUP1 DUP4 SUB DUP2 PUSH1 0x0 DUP8 DUP1 EXTCODESIZE ISZERO DUP1 ISZERO PUSH2 0x1B28 JUMPI PUSH1 0x0 DUP1 REVERT JUMPDEST POP GAS CALL ISZERO DUP1 ISZERO PUSH2 0x1B3C JUMPI RETURNDATASIZE PUSH1 0x0 DUP1 RETURNDATACOPY RETURNDATASIZE PUSH1 0x0 REVERT JUMPDEST POP POP POP POP PUSH1 0x40 MLOAD RETURNDATASIZE PUSH1 0x20 DUP2 LT ISZERO PUSH2 0x1B52 JUMPI PUSH1 0x0 DUP1 REVERT JUMPDEST POP MLOAD PUSH1 0x1 PUSH1 0xA0 PUSH1 0x2 EXP SUB AND PUSH4 0xBBAC62C8 PUSH2 0x1B6A PUSH2 0x2175 JUMP JUMPDEST PUSH1 0x40 MLOAD DUP3 PUSH4 0xFFFFFFFF AND PUSH1 0xE0 PUSH1 0x2 EXP MUL DUP2 MSTORE PUSH1 0x4 ADD DUP1 DUP1 PUSH1 0x20 ADD DUP3 DUP2 SUB DUP3 MSTORE DUP4 DUP2 DUP2 MLOAD DUP2 MSTORE PUSH1 0x20 ADD SWAP2 POP DUP1 MLOAD SWAP1 PUSH1 0x20 ADD SWAP1 PUSH1 0x20 MUL DUP1 DUP4 DUP4 PUSH1 0x0 JUMPDEST DUP4 DUP2 LT ISZERO PUSH2 0x1BBC JUMPI DUP2 DUP2 ADD MLOAD DUP4 DUP3 ADD MSTORE PUSH1 0x20 ADD PUSH2 0x1BA4 JUMP JUMPDEST POP POP POP POP SWAP1 POP ADD SWAP3 POP POP POP PUSH1 0x0 PUSH1 0x40 MLOAD DUP1 DUP4 SUB DUP2 PUSH1 0x0 DUP8 DUP1 EXTCODESIZE ISZERO DUP1 ISZERO PUSH2 0x1BE1 JUMPI PUSH1 0x0 DUP1 REVERT JUMPDEST POP GAS CALL ISZERO DUP1 ISZERO PUSH2 0x1BF5 JUMPI RETURNDATASIZE PUSH1 0x0 DUP1 RETURNDATACOPY RETURNDATASIZE PUSH1 0x0 REVERT JUMPDEST POP POP POP POP PUSH2 0x1C01 PUSH2 0x3342 JUMP JUMPDEST PUSH2 0x1C11 PUSH2 0x1C0C PUSH2 0x2175 JUMP JUMPDEST PUSH2 0x34B3 JUMP JUMPDEST PUSH2 0x1C19 PUSH2 0x21DD JUMP JUMPDEST SWAP1 POP PUSH1 0x0 DUP2 MLOAD GT ISZERO PUSH2 0x1C2E JUMPI PUSH2 0x1C2E DUP2 PUSH2 0x3598 JUMP JUMPDEST PUSH1 0x0 PUSH2 0x1C38 PUSH2 0x1221 JUMP JUMPDEST GT ISZERO PUSH2 0x1C7C JUMPI PUSH2 0x1C48 PUSH1 0x0 PUSH2 0x318D JUMP JUMPDEST PUSH2 0x1C52 PUSH1 0x1 PUSH2 0x365A JUMP JUMPDEST PUSH1 0x40 MLOAD PUSH32 0xAD8A61077DFF62D25EA1BF7CF1AF88E1B48075C3D497D494AC9B129B73B0D37C SWAP1 PUSH1 0x0 SWAP1 LOG1 JUMPDEST PUSH2 0x1C84 PUSH2 0x267E JUMP JUMPDEST PUSH1 0x1 PUSH1 0xA0 PUSH1 0x2 EXP SUB AND PUSH4 0xF89D4086 PUSH1 0x40 MLOAD DUP2 PUSH4 0xFFFFFFFF AND PUSH1 0xE0 PUSH1 0x2 EXP MUL DUP2 MSTORE PUSH1 0x4 ADD PUSH1 0x20 PUSH1 0x40 MLOAD DUP1 DUP4 SUB DUP2 PUSH1 0x0 DUP8 DUP1 EXTCODESIZE ISZERO DUP1 ISZERO PUSH2 0x1CC1 JUMPI PUSH1 0x0 DUP1 REVERT JUMPDEST POP GAS CALL ISZERO DUP1 ISZERO PUSH2 0x1CD5 JUMPI RETURNDATASIZE PUSH1 0x0 DUP1 RETURNDATACOPY RETURNDATASIZE PUSH1 0x0 REVERT JUMPDEST POP POP POP POP PUSH1 0x40 MLOAD RETURNDATASIZE PUSH1 0x20 DUP2 LT ISZERO PUSH2 0x1CEB JUMPI PUSH1 0x0 DUP1 REVERT JUMPDEST POP MLOAD PUSH1 0x40 DUP1 MLOAD PUSH32 0xB1F0C8E100000000000000000000000000000000000000000000000000000000 DUP2 MSTORE SWAP1 MLOAD PUSH1 0x1 PUSH1 0xA0 PUSH1 0x2 EXP SUB SWAP1 SWAP3 AND SWAP2 PUSH4 0xB1F0C8E1 SWAP2 PUSH1 0x4 DUP1 DUP3 ADD SWAP3 PUSH1 0x0 SWAP3 SWAP1 SWAP2 SWAP1 DUP3 SWAP1 SUB ADD DUP2 DUP4 DUP8 DUP1 EXTCODESIZE ISZERO DUP1 ISZERO PUSH2 0x1D49 JUMPI PUSH1 0x0 DUP1 REVERT JUMPDEST POP GAS CALL ISZERO DUP1 ISZERO PUSH2 0x1D5D JUMPI RETURNDATASIZE PUSH1 0x0 DUP1 RETURNDATACOPY RETURNDATASIZE PUSH1 0x0 REVERT JUMPDEST POP POP POP POP JUMPDEST POP POP JUMP JUMPDEST PUSH1 0x5 DUP2 JUMP JUMPDEST PUSH1 0x0 PUSH2 0x1D8B PUSH1 0x1 PUSH2 0x1D7F PUSH1 0x2 PUSH2 0x16B7 PUSH2 0x1374 JUMP JUMPDEST SWAP1 PUSH4 0xFFFFFFFF PUSH2 0x36CD AND JUMP JUMPDEST SWAP1 POP SWAP1 JUMP JUMPDEST PUSH1 0x60 PUSH1 0xA PUSH1 0x0 DUP4 PUSH1 0x40 MLOAD PUSH1 0x20 ADD DUP1 DUP1 PUSH1 0x0 DUP1 MLOAD PUSH1 0x20 PUSH2 0x4CB2 DUP4 CODECOPY DUP2 MLOAD SWAP2 MSTORE DUP2 MSTORE POP PUSH1 0xA ADD DUP3 PUSH1 0x1 PUSH1 0xA0 PUSH1 0x2 EXP SUB AND PUSH1 0x1 PUSH1 0xA0 PUSH1 0x2 EXP SUB AND PUSH1 0x60 PUSH1 0x2 EXP MUL DUP2 MSTORE PUSH1 0x14 ADD SWAP2 POP POP PUSH1 0x40 MLOAD PUSH1 0x20 DUP2 DUP4 SUB SUB DUP2 MSTORE SWAP1 PUSH1 0x40 MSTORE PUSH1 0x40 MLOAD DUP1 DUP3 DUP1 MLOAD SWAP1 PUSH1 0x20 ADD SWAP1 DUP1 DUP4 DUP4 PUSH1 0x20 DUP4 LT PUSH2 0xCE9 JUMPI DUP1 MLOAD DUP3 MSTORE PUSH1 0x1F NOT SWAP1 SWAP3 ADD SWAP2 PUSH1 0x20 SWAP2 DUP3 ADD SWAP2 ADD PUSH2 0xCCA JUMP JUMPDEST PUSH1 0x0 PUSH1 0x6 PUSH1 0x0 PUSH1 0x40 MLOAD PUSH1 0x20 ADD DUP1 DUP1 PUSH32 0x697346696E616C697A6564000000000000000000000000000000000000000000 DUP2 MSTORE POP PUSH1 0xB ADD SWAP1 POP PUSH1 0x40 MLOAD PUSH1 0x20 DUP2 DUP4 SUB SUB DUP2 MSTORE SWAP1 PUSH1 0x40 MSTORE PUSH1 0x40 MLOAD DUP1 DUP3 DUP1 MLOAD SWAP1 PUSH1 0x20 ADD SWAP1 DUP1 DUP4 DUP4 PUSH1 0x20 DUP4 LT PUSH2 0x1324 JUMPI DUP1 MLOAD DUP3 MSTORE PUSH1 0x1F NOT SWAP1 SWAP3 ADD SWAP2 PUSH1 0x20 SWAP2 DUP3 ADD SWAP2 ADD PUSH2 0x1305 JUMP JUMPDEST PUSH1 0x0 PUSH1 0xA PUSH1 0x0 PUSH1 0x40 MLOAD PUSH1 0x20 ADD DUP1 DUP1 PUSH1 0x0 DUP1 MLOAD PUSH1 0x20 PUSH2 0x4C92 DUP4 CODECOPY DUP2 MLOAD SWAP2 MSTORE DUP2 MSTORE POP PUSH1 0x10 ADD SWAP1 POP PUSH1 0x40 MLOAD PUSH1 0x20 DUP2 DUP4 SUB SUB DUP2 MSTORE SWAP1 PUSH1 0x40 MSTORE PUSH1 0x40 MLOAD DUP1 DUP3 DUP1 MLOAD SWAP1 PUSH1 0x20 ADD SWAP1 DUP1 DUP4 DUP4 PUSH1 0x20 DUP4 LT PUSH2 0xBE0 JUMPI DUP1 MLOAD DUP3 MSTORE PUSH1 0x1F NOT SWAP1 SWAP3 ADD SWAP2 PUSH1 0x20 SWAP2 DUP3 ADD SWAP2 ADD PUSH2 0xBC1 JUMP JUMPDEST PUSH8 0x214E8348C4F0000 DUP2 JUMP JUMPDEST PUSH1 0x0 PUSH1 0x2 PUSH1 0x0 PUSH1 0x40 MLOAD PUSH1 0x20 ADD DUP1 DUP1 PUSH32 0x63757272656E744379636C655374617274426C6F636B00000000000000000000 DUP2 MSTORE POP PUSH1 0x16 ADD SWAP1 POP PUSH1 0x40 MLOAD PUSH1 0x20 DUP2 DUP4 SUB SUB DUP2 MSTORE SWAP1 PUSH1 0x40 MSTORE PUSH1 0x40 MLOAD DUP1 DUP3 DUP1 MLOAD SWAP1 PUSH1 0x20 ADD SWAP1 DUP1 DUP4 DUP4 PUSH1 0x20 DUP4 LT PUSH2 0xB3C JUMPI DUP1 MLOAD DUP3 MSTORE PUSH1 0x1F NOT SWAP1 SWAP3 ADD SWAP2 PUSH1 0x20 SWAP2 DUP3 ADD SWAP2 ADD PUSH2 0xB1D JUMP JUMPDEST PUSH2 0x1F71 CALLER PUSH2 0x284F JUMP JUMPDEST ISZERO ISZERO PUSH2 0x1F7C JUMPI PUSH1 0x0 DUP1 REVERT JUMPDEST PUSH2 0x1F84 PUSH2 0x27D0 JUMP JUMPDEST ISZERO ISZERO PUSH2 0x1F8F JUMPI PUSH1 0x0 DUP1 REVERT JUMPDEST PUSH1 0x0 PUSH2 0x1F99 PUSH2 0x1221 JUMP JUMPDEST GT PUSH2 0x1FA3 JUMPI PUSH1 0x0 DUP1 REVERT JUMPDEST PUSH1 0x0 NOT NUMBER ADD BLOCKHASH PUSH32 0x55252FA6EEE4741B4E24A74A70E9C11FD2C2281DF8D6EA13126FF845F7825C89 PUSH2 0x1FD2 PUSH2 0x1498 JUMP JUMPDEST PUSH1 0x40 DUP1 MLOAD PUSH1 0x20 DUP1 DUP3 MSTORE DUP4 MLOAD DUP2 DUP4 ADD MSTORE DUP4 MLOAD SWAP2 SWAP3 DUP4 SWAP3 SWAP1 DUP4 ADD SWAP2 DUP6 DUP2 ADD SWAP2 MUL DUP1 DUP4 DUP4 PUSH1 0x0 JUMPDEST DUP4 DUP2 LT ISZERO PUSH2 0x200E JUMPI DUP2 DUP2 ADD MLOAD DUP4 DUP3 ADD MSTORE PUSH1 0x20 ADD PUSH2 0x1FF6 JUMP JUMPDEST POP POP POP POP SWAP1 POP ADD SWAP3 POP POP POP PUSH1 0x40 MLOAD DUP1 SWAP2 SUB SWAP1 LOG2 PUSH2 0x1372 PUSH1 0x0 PUSH2 0x365A JUMP JUMPDEST PUSH1 0x0 PUSH1 0x2 PUSH1 0x0 PUSH1 0x40 MLOAD PUSH1 0x20 ADD DUP1 DUP1 PUSH1 0x0 DUP1 MLOAD PUSH1 0x20 PUSH2 0x4D52 DUP4 CODECOPY DUP2 MLOAD SWAP2 MSTORE DUP2 MSTORE POP PUSH1 0x10 ADD SWAP1 POP PUSH1 0x40 MLOAD PUSH1 0x20 DUP2 DUP4 SUB SUB DUP2 MSTORE SWAP1 PUSH1 0x40 MSTORE PUSH1 0x40 MLOAD DUP1 DUP3 DUP1 MLOAD SWAP1 PUSH1 0x20 ADD SWAP1 DUP1 DUP4 DUP4 PUSH1 0x20 DUP4 LT PUSH2 0xB3C JUMPI DUP1 MLOAD DUP3 MSTORE PUSH1 0x1F NOT SWAP1 SWAP3 ADD SWAP2 PUSH1 0x20 SWAP2 DUP3 ADD SWAP2 ADD PUSH2 0xB1D JUMP JUMPDEST PUSH1 0x0 PUSH1 0x2 PUSH1 0x0 DUP4 PUSH1 0x40 MLOAD PUSH1 0x20 ADD DUP1 DUP1 PUSH32 0x76616C696461746F724665650000000000000000000000000000000000000000 DUP2 MSTORE POP PUSH1 0xC ADD DUP3 PUSH1 0x1 PUSH1 0xA0 PUSH1 0x2 EXP SUB AND PUSH1 0x1 PUSH1 0xA0 PUSH1 0x2 EXP SUB AND PUSH1 0x60 PUSH1 0x2 EXP MUL DUP2 MSTORE PUSH1 0x14 ADD SWAP2 POP POP PUSH1 0x40 MLOAD PUSH1 0x20 DUP2 DUP4 SUB SUB DUP2 MSTORE SWAP1 PUSH1 0x40 MSTORE PUSH1 0x40 MLOAD DUP1 DUP3 DUP1 MLOAD SWAP1 PUSH1 0x20 ADD SWAP1 DUP1 DUP4 DUP4 PUSH1 0x20 DUP4 LT PUSH2 0x197D JUMPI DUP1 MLOAD DUP3 MSTORE PUSH1 0x1F NOT SWAP1 SWAP3 ADD SWAP2 PUSH1 0x20 SWAP2 DUP3 ADD SWAP2 ADD PUSH2 0x195E JUMP JUMPDEST PUSH1 0x0 DUP1 JUMPDEST PUSH2 0x212E DUP5 PUSH2 0x2514 JUMP JUMPDEST DUP2 LT ISZERO PUSH2 0x2169 JUMPI PUSH2 0x213F DUP5 DUP3 PUSH2 0x2596 JUMP JUMPDEST PUSH1 0x1 PUSH1 0xA0 PUSH1 0x2 EXP SUB AND DUP4 PUSH1 0x1 PUSH1 0xA0 PUSH1 0x2 EXP SUB AND EQ ISZERO PUSH2 0x2161 JUMPI PUSH1 0x1 SWAP2 POP PUSH2 0x216E JUMP JUMPDEST PUSH1 0x1 ADD PUSH2 0x2125 JUMP JUMPDEST PUSH1 0x0 SWAP2 POP JUMPDEST POP SWAP3 SWAP2 POP POP JUMP JUMPDEST PUSH1 0x60 PUSH1 0xA PUSH1 0x0 PUSH1 0x40 MLOAD PUSH1 0x20 ADD DUP1 DUP1 PUSH1 0x0 DUP1 MLOAD PUSH1 0x20 PUSH2 0x4D72 DUP4 CODECOPY DUP2 MLOAD SWAP2 MSTORE DUP2 MSTORE POP PUSH1 0x11 ADD SWAP1 POP PUSH1 0x40 MLOAD PUSH1 0x20 DUP2 DUP4 SUB SUB DUP2 MSTORE SWAP1 PUSH1 0x40 MSTORE PUSH1 0x40 MLOAD DUP1 DUP3 DUP1 MLOAD SWAP1 PUSH1 0x20 ADD SWAP1 DUP1 DUP4 DUP4 PUSH1 0x20 DUP4 LT PUSH2 0x150D JUMPI DUP1 MLOAD DUP3 MSTORE PUSH1 0x1F NOT SWAP1 SWAP3 ADD SWAP2 PUSH1 0x20 SWAP2 DUP3 ADD SWAP2 ADD PUSH2 0x14EE JUMP JUMPDEST PUSH2 0x8700 SWAP1 JUMP JUMPDEST PUSH1 0x60 PUSH1 0xA PUSH1 0x0 PUSH1 0x40 MLOAD PUSH1 0x20 ADD DUP1 DUP1 PUSH1 0x0 DUP1 MLOAD PUSH1 0x20 PUSH2 0x4CF2 DUP4 CODECOPY DUP2 MLOAD SWAP2 MSTORE DUP2 MSTORE POP PUSH1 0x11 ADD SWAP1 POP PUSH1 0x40 MLOAD PUSH1 0x20 DUP2 DUP4 SUB SUB DUP2 MSTORE SWAP1 PUSH1 0x40 MSTORE PUSH1 0x40 MLOAD DUP1 DUP3 DUP1 MLOAD SWAP1 PUSH1 0x20 ADD SWAP1 DUP1 DUP4 DUP4 PUSH1 0x20 DUP4 LT PUSH2 0x150D JUMPI DUP1 MLOAD DUP3 MSTORE PUSH1 0x1F NOT SWAP1 SWAP3 ADD SWAP2 PUSH1 0x20 SWAP2 DUP3 ADD SWAP2 ADD PUSH2 0x14EE JUMP JUMPDEST PUSH1 0x0 PUSH1 0x2 PUSH1 0x0 PUSH1 0x40 MLOAD PUSH1 0x20 ADD DUP1 DUP1 PUSH32 0x63757272656E744379636C65456E64426C6F636B000000000000000000000000 DUP2 MSTORE POP PUSH1 0x14 ADD SWAP1 POP PUSH1 0x40 MLOAD PUSH1 0x20 DUP2 DUP4 SUB SUB DUP2 MSTORE SWAP1 PUSH1 0x40 MSTORE PUSH1 0x40 MLOAD DUP1 DUP3 DUP1 MLOAD SWAP1 PUSH1 0x20 ADD SWAP1 DUP1 DUP4 DUP4 PUSH1 0x20 DUP4 LT PUSH2 0xB3C JUMPI DUP1 MLOAD DUP3 MSTORE PUSH1 0x1F NOT SWAP1 SWAP3 ADD SWAP2 PUSH1 0x20 SWAP2 DUP3 ADD SWAP2 ADD PUSH2 0xB1D JUMP JUMPDEST PUSH1 0x60 PUSH2 0x1D8B PUSH2 0x2175 JUMP JUMPDEST PUSH1 0x0 PUSH1 0x2 PUSH1 0x0 DUP4 PUSH1 0x40 MLOAD PUSH1 0x20 ADD DUP1 DUP1 PUSH1 0x0 DUP1 MLOAD PUSH1 0x20 PUSH2 0x4D32 DUP4 CODECOPY DUP2 MLOAD SWAP2 MSTORE DUP2 MSTORE POP PUSH1 0xB ADD DUP3 PUSH1 0x1 PUSH1 0xA0 PUSH1 0x2 EXP SUB AND PUSH1 0x1 PUSH1 0xA0 PUSH1 0x2 EXP SUB AND PUSH1 0x60 PUSH1 0x2 EXP MUL DUP2 MSTORE PUSH1 0x14 ADD SWAP2 POP POP PUSH1 0x40 MLOAD PUSH1 0x20 DUP2 DUP4 SUB SUB DUP2 MSTORE SWAP1 PUSH1 0x40 MSTORE PUSH1 0x40 MLOAD DUP1 DUP3 DUP1 MLOAD SWAP1 PUSH1 0x20 ADD SWAP1 DUP1 DUP4 DUP4 PUSH1 0x20 DUP4 LT PUSH2 0x197D JUMPI DUP1 MLOAD DUP3 MSTORE PUSH1 0x1F NOT SWAP1 SWAP3 ADD SWAP2 PUSH1 0x20 SWAP2 DUP3 ADD SWAP2 ADD PUSH2 0x195E JUMP JUMPDEST PUSH1 0x4 PUSH1 0x0 PUSH1 0x40 MLOAD PUSH1 0x20 ADD DUP1 DUP1 PUSH32 0x6F776E6572000000000000000000000000000000000000000000000000000000 DUP2 MSTORE POP PUSH1 0x5 ADD SWAP1 POP PUSH1 0x40 MLOAD PUSH1 0x20 DUP2 DUP4 SUB SUB DUP2 MSTORE SWAP1 PUSH1 0x40 MSTORE PUSH1 0x40 MLOAD DUP1 DUP3 DUP1 MLOAD SWAP1 PUSH1 0x20 ADD SWAP1 DUP1 DUP4 DUP4 JUMPDEST PUSH1 0x20 DUP4 LT PUSH2 0x23B2 JUMPI DUP1 MLOAD DUP3 MSTORE PUSH1 0x1F NOT SWAP1 SWAP3 ADD SWAP2 PUSH1 0x20 SWAP2 DUP3 ADD SWAP2 ADD PUSH2 0x2393 JUMP JUMPDEST MLOAD DUP2 MLOAD PUSH1 0x20 SWAP4 DUP5 SUB PUSH2 0x100 EXP PUSH1 0x0 NOT ADD DUP1 NOT SWAP1 SWAP3 AND SWAP2 AND OR SWAP1 MSTORE PUSH1 0x40 DUP1 MLOAD SWAP3 SWAP1 SWAP5 ADD DUP3 SWAP1 SUB SWAP1 SWAP2 KECCAK256 DUP7 MSTORE DUP6 ADD SWAP6 SWAP1 SWAP6 MSTORE SWAP3 SWAP1 SWAP3 ADD PUSH1 0x0 KECCAK256 SLOAD PUSH1 0x1 PUSH1 0xA0 PUSH1 0x2 EXP SUB AND CALLER EQ SWAP3 POP PUSH2 0x2403 SWAP2 POP POP JUMPI PUSH1 0x0 DUP1 REVERT JUMPDEST PUSH2 0x240B PUSH2 0x12AF JUMP JUMPDEST ISZERO PUSH2 0x2415 JUMPI PUSH1 0x0 DUP1 REVERT JUMPDEST PUSH2 0x2432 PUSH20 0xFFFFFFFFFFFFFFFFFFFFFFFFFFFFFFFFFFFFFFFE PUSH2 0x36DF JUMP JUMPDEST PUSH2 0x243A PUSH2 0x3342 JUMP JUMPDEST PUSH1 0x1 PUSH1 0xA0 PUSH1 0x2 EXP SUB DUP2 AND ISZERO ISZERO PUSH2 0x2458 JUMPI PUSH2 0x2453 CALLER PUSH2 0x37AF JUMP JUMPDEST PUSH2 0x2461 JUMP JUMPDEST PUSH2 0x2461 DUP2 PUSH2 0x37AF JUMP JUMPDEST PUSH2 0x246B PUSH1 0x1 PUSH2 0x318D JUMP JUMPDEST PUSH2 0x12AC PUSH1 0x1 PUSH2 0x380F JUMP JUMPDEST PUSH11 0x422CA8B0A00A425000000 DUP2 JUMP JUMPDEST PUSH10 0x152D02C7E14AF6800000 DUP2 JUMP JUMPDEST PUSH1 0x0 PUSH1 0x2 PUSH1 0x0 DUP4 PUSH1 0x40 MLOAD PUSH1 0x20 ADD DUP1 DUP1 PUSH1 0x0 DUP1 MLOAD PUSH1 0x20 PUSH2 0x4D12 DUP4 CODECOPY DUP2 MLOAD SWAP2 MSTORE DUP2 MSTORE POP PUSH1 0xB ADD DUP3 PUSH1 0x1 PUSH1 0xA0 PUSH1 0x2 EXP SUB AND PUSH1 0x1 PUSH1 0xA0 PUSH1 0x2 EXP SUB AND PUSH1 0x60 PUSH1 0x2 EXP MUL DUP2 MSTORE PUSH1 0x14 ADD SWAP2 POP POP PUSH1 0x40 MLOAD PUSH1 0x20 DUP2 DUP4 SUB SUB DUP2 MSTORE SWAP1 PUSH1 0x40 MSTORE PUSH1 0x40 MLOAD DUP1 DUP3 DUP1 MLOAD SWAP1 PUSH1 0x20 ADD SWAP1 DUP1 DUP4 DUP4 PUSH1 0x20 DUP4 LT PUSH2 0x197D JUMPI DUP1 MLOAD DUP3 MSTORE PUSH1 0x1F NOT SWAP1 SWAP3 ADD SWAP2 PUSH1 0x20 SWAP2 DUP3 ADD SWAP2 ADD PUSH2 0x195E JUMP JUMPDEST PUSH1 0x0 PUSH1 0xA PUSH1 0x0 DUP4 PUSH1 0x40 MLOAD PUSH1 0x20 ADD DUP1 DUP1 PUSH1 0x0 DUP1 MLOAD PUSH1 0x20 PUSH2 0x4CB2 DUP4 CODECOPY DUP2 MLOAD SWAP2 MSTORE DUP2 MSTORE POP PUSH1 0xA ADD DUP3 PUSH1 0x1 PUSH1 0xA0 PUSH1 0x2 EXP SUB AND PUSH1 0x1 PUSH1 0xA0 PUSH1 0x2 EXP SUB AND PUSH1 0x60 PUSH1 0x2 EXP MUL DUP2 MSTORE PUSH1 0x14 ADD SWAP2 POP POP PUSH1 0x40 MLOAD PUSH1 0x20 DUP2 DUP4 SUB SUB DUP2 MSTORE SWAP1 PUSH1 0x40 MSTORE PUSH1 0x40 MLOAD DUP1 DUP3 DUP1 MLOAD SWAP1 PUSH1 0x20 ADD SWAP1 DUP1 DUP4 DUP4 PUSH1 0x20 DUP4 LT PUSH2 0x197D JUMPI DUP1 MLOAD DUP3 MSTORE PUSH1 0x1F NOT SWAP1 SWAP3 ADD SWAP2 PUSH1 0x20 SWAP2 DUP3 ADD SWAP2 ADD PUSH2 0x195E JUMP JUMPDEST PUSH1 0x0 PUSH1 0xA PUSH1 0x0 DUP5 PUSH1 0x40 MLOAD PUSH1 0x20 ADD DUP1 DUP1 PUSH1 0x0 DUP1 MLOAD PUSH1 0x20 PUSH2 0x4CB2 DUP4 CODECOPY DUP2 MLOAD SWAP2 MSTORE DUP2 MSTORE POP PUSH1 0xA ADD DUP3 PUSH1 0x1 PUSH1 0xA0 PUSH1 0x2 EXP SUB AND PUSH1 0x1 PUSH1 0xA0 PUSH1 0x2 EXP SUB AND PUSH1 0x60 PUSH1 0x2 EXP MUL DUP2 MSTORE PUSH1 0x14 ADD SWAP2 POP POP PUSH1 0x40 MLOAD PUSH1 0x20 DUP2 DUP4 SUB SUB DUP2 MSTORE SWAP1 PUSH1 0x40 MSTORE PUSH1 0x40 MLOAD DUP1 DUP3 DUP1 MLOAD SWAP1 PUSH1 0x20 ADD SWAP1 DUP1 DUP4 DUP4 JUMPDEST PUSH1 0x20 DUP4 LT PUSH2 0x2619 JUMPI DUP1 MLOAD DUP3 MSTORE PUSH1 0x1F NOT SWAP1 SWAP3 ADD SWAP2 PUSH1 0x20 SWAP2 DUP3 ADD SWAP2 ADD PUSH2 0x25FA JUMP JUMPDEST MLOAD DUP2 MLOAD PUSH1 0x20 SWAP4 DUP5 SUB PUSH2 0x100 EXP PUSH1 0x0 NOT ADD DUP1 NOT SWAP1 SWAP3 AND SWAP2 AND OR SWAP1 MSTORE PUSH1 0x40 DUP1 MLOAD SWAP3 SWAP1 SWAP5 ADD DUP3 SWAP1 SUB SWAP1 SWAP2 KECCAK256 DUP7 MSTORE DUP6 ADD SWAP6 SWAP1 SWAP6 MSTORE SWAP3 SWAP1 SWAP3 ADD PUSH1 0x0 KECCAK256 DUP1 SLOAD SWAP1 SWAP4 POP DUP6 SWAP3 POP DUP3 LT SWAP1 POP PUSH2 0x2662 JUMPI INVALID JUMPDEST PUSH1 0x0 SWAP2 DUP3 MSTORE PUSH1 0x20 SWAP1 SWAP2 KECCAK256 ADD SLOAD PUSH1 0x1 PUSH1 0xA0 PUSH1 0x2 EXP SUB AND SWAP4 SWAP3 POP POP POP JUMP JUMPDEST PUSH1 0x0 PUSH1 0x4 PUSH1 0x0 PUSH1 0x40 MLOAD PUSH1 0x20 ADD DUP1 DUP1 PUSH32 0x70726F787953746F726167650000000000000000000000000000000000000000 DUP2 MSTORE POP PUSH1 0xC ADD SWAP1 POP PUSH1 0x40 MLOAD PUSH1 0x20 DUP2 DUP4 SUB SUB DUP2 MSTORE SWAP1 PUSH1 0x40 MSTORE PUSH1 0x40 MLOAD DUP1 DUP3 DUP1 MLOAD SWAP1 PUSH1 0x20 ADD SWAP1 DUP1 DUP4 DUP4 JUMPDEST PUSH1 0x20 DUP4 LT PUSH2 0x26F3 JUMPI DUP1 MLOAD DUP3 MSTORE PUSH1 0x1F NOT SWAP1 SWAP3 ADD SWAP2 PUSH1 0x20 SWAP2 DUP3 ADD SWAP2 ADD PUSH2 0x26D4 JUMP JUMPDEST MLOAD DUP2 MLOAD PUSH1 0x20 SWAP4 DUP5 SUB PUSH2 0x100 EXP PUSH1 0x0 NOT ADD DUP1 NOT SWAP1 SWAP3 AND SWAP2 AND OR SWAP1 MSTORE PUSH1 0x40 DUP1 MLOAD SWAP3 SWAP1 SWAP5 ADD DUP3 SWAP1 SUB SWAP1 SWAP2 KECCAK256 DUP7 MSTORE DUP6 ADD SWAP6 SWAP1 SWAP6 MSTORE SWAP3 SWAP1 SWAP3 ADD PUSH1 0x0 KECCAK256 SLOAD PUSH1 0x1 PUSH1 0xA0 PUSH1 0x2 EXP SUB AND SWAP5 SWAP4 POP POP POP POP JUMP JUMPDEST PUSH1 0x0 PUSH1 0x2 PUSH1 0x0 DUP4 PUSH1 0x40 MLOAD PUSH1 0x20 ADD DUP1 DUP1 PUSH32 0x72656C65617365426C6F636B0000000000000000000000000000000000000000 DUP2 MSTORE POP PUSH1 0xC ADD DUP3 PUSH1 0x1 PUSH1 0xA0 PUSH1 0x2 EXP SUB AND PUSH1 0x1 PUSH1 0xA0 PUSH1 0x2 EXP SUB AND PUSH1 0x60 PUSH1 0x2 EXP MUL DUP2 MSTORE PUSH1 0x14 ADD SWAP2 POP POP PUSH1 0x40 MLOAD PUSH1 0x20 DUP2 DUP4 SUB SUB DUP2 MSTORE SWAP1 PUSH1 0x40 MSTORE PUSH1 0x40 MLOAD DUP1 DUP3 DUP1 MLOAD SWAP1 PUSH1 0x20 ADD SWAP1 DUP1 DUP4 DUP4 PUSH1 0x20 DUP4 LT PUSH2 0x197D JUMPI DUP1 MLOAD DUP3 MSTORE PUSH1 0x1F NOT SWAP1 SWAP3 ADD SWAP2 PUSH1 0x20 SWAP2 DUP3 ADD SWAP2 ADD PUSH2 0x195E JUMP JUMPDEST PUSH1 0x0 PUSH1 0x6 PUSH1 0x0 PUSH1 0x40 MLOAD PUSH1 0x20 ADD DUP1 DUP1 PUSH32 0x73686F756C64456D6974496E6974696174654368616E67650000000000000000 DUP2 MSTORE POP PUSH1 0x18 ADD SWAP1 POP PUSH1 0x40 MLOAD PUSH1 0x20 DUP2 DUP4 SUB SUB DUP2 MSTORE SWAP1 PUSH1 0x40 MSTORE PUSH1 0x40 MLOAD DUP1 DUP3 DUP1 MLOAD SWAP1 PUSH1 0x20 ADD SWAP1 DUP1 DUP4 DUP4 PUSH1 0x20 DUP4 LT PUSH2 0x1324 JUMPI DUP1 MLOAD DUP3 MSTORE PUSH1 0x1F NOT SWAP1 SWAP3 ADD SWAP2 PUSH1 0x20 SWAP2 DUP3 ADD SWAP2 ADD PUSH2 0x1305 JUMP JUMPDEST PUSH2 0x1D62 CALLER DUP3 DUP5 PUSH2 0x2E68 JUMP JUMPDEST PUSH1 0x0 DUP1 JUMPDEST PUSH2 0x285B PUSH2 0x1374 JUMP JUMPDEST DUP2 LT ISZERO PUSH2 0x10F0 JUMPI PUSH2 0x286B DUP2 PUSH2 0x142B JUMP JUMPDEST PUSH1 0x1 PUSH1 0xA0 PUSH1 0x2 EXP SUB AND DUP4 PUSH1 0x1 PUSH1 0xA0 PUSH1 0x2 EXP SUB AND EQ ISZERO PUSH2 0x288D JUMPI PUSH1 0x1 SWAP2 POP PUSH2 0x10F5 JUMP JUMPDEST PUSH1 0x1 ADD PUSH2 0x2853 JUMP JUMPDEST PUSH1 0x0 DUP1 JUMPDEST PUSH2 0x28A1 PUSH2 0x11BF JUMP JUMPDEST DUP2 LT ISZERO PUSH2 0x10F0 JUMPI PUSH2 0x28B1 DUP2 PUSH2 0xB7D JUMP JUMPDEST PUSH1 0x1 PUSH1 0xA0 PUSH1 0x2 EXP SUB AND DUP4 PUSH1 0x1 PUSH1 0xA0 PUSH1 0x2 EXP SUB AND EQ ISZERO PUSH2 0x28D3 JUMPI PUSH1 0x1 SWAP2 POP PUSH2 0x10F5 JUMP JUMPDEST PUSH1 0x1 ADD PUSH2 0x2899 JUMP JUMPDEST PUSH11 0x422CA8B0A00A425000000 SWAP1 JUMP JUMPDEST PUSH1 0x40 DUP1 MLOAD PUSH1 0x0 DUP1 MLOAD PUSH1 0x20 PUSH2 0x4D92 DUP4 CODECOPY DUP2 MLOAD SWAP2 MSTORE PUSH1 0x20 DUP1 DUP4 ADD SWAP2 SWAP1 SWAP2 MSTORE PUSH1 0x60 PUSH1 0x2 EXP PUSH1 0x1 PUSH1 0xA0 PUSH1 0x2 EXP SUB DUP1 DUP9 AND DUP3 MUL PUSH1 0x2F DUP6 ADD MSTORE DUP7 AND MUL PUSH1 0x43 DUP4 ADD MSTORE DUP3 MLOAD PUSH1 0x37 DUP2 DUP5 SUB ADD DUP2 MSTORE PUSH1 0x57 SWAP1 SWAP3 ADD SWAP3 DUP4 SWAP1 MSTORE DUP2 MLOAD PUSH2 0x29B4 SWAP4 DUP6 SWAP4 PUSH1 0x2 SWAP4 PUSH1 0x0 SWAP4 SWAP2 SWAP3 SWAP2 DUP3 SWAP2 DUP5 ADD SWAP1 DUP1 DUP4 DUP4 JUMPDEST PUSH1 0x20 DUP4 LT PUSH2 0x2971 JUMPI DUP1 MLOAD DUP3 MSTORE PUSH1 0x1F NOT SWAP1 SWAP3 ADD SWAP2 PUSH1 0x20 SWAP2 DUP3 ADD SWAP2 ADD PUSH2 0x2952 JUMP JUMPDEST MLOAD DUP2 MLOAD PUSH1 0x20 SWAP4 DUP5 SUB PUSH2 0x100 EXP PUSH1 0x0 NOT ADD DUP1 NOT SWAP1 SWAP3 AND SWAP2 AND OR SWAP1 MSTORE PUSH1 0x40 DUP1 MLOAD SWAP3 SWAP1 SWAP5 ADD DUP3 SWAP1 SUB SWAP1 SWAP2 KECCAK256 DUP7 MSTORE DUP6 ADD SWAP6 SWAP1 SWAP6 MSTORE SWAP3 SWAP1 SWAP3 ADD PUSH1 0x0 KECCAK256 SLOAD SWAP4 SWAP3 POP POP PUSH2 0x36CD SWAP1 POP JUMP JUMPDEST PUSH1 0x40 DUP1 MLOAD PUSH1 0x0 DUP1 MLOAD PUSH1 0x20 PUSH2 0x4D92 DUP4 CODECOPY DUP2 MLOAD SWAP2 MSTORE PUSH1 0x20 DUP1 DUP4 ADD SWAP2 SWAP1 SWAP2 MSTORE PUSH1 0x60 PUSH1 0x2 EXP PUSH1 0x1 PUSH1 0xA0 PUSH1 0x2 EXP SUB DUP1 DUP10 AND DUP3 MUL PUSH1 0x2F DUP6 ADD MSTORE DUP8 AND MUL PUSH1 0x43 DUP4 ADD MSTORE DUP3 MLOAD PUSH1 0x37 DUP2 DUP5 SUB ADD DUP2 MSTORE PUSH1 0x57 SWAP1 SWAP3 ADD SWAP3 DUP4 SWAP1 MSTORE DUP2 MLOAD PUSH1 0x2 SWAP4 PUSH1 0x0 SWAP4 SWAP3 SWAP1 SWAP2 DUP3 SWAP2 DUP5 ADD SWAP1 DUP1 DUP4 DUP4 JUMPDEST PUSH1 0x20 DUP4 LT PUSH2 0x2A35 JUMPI DUP1 MLOAD DUP3 MSTORE PUSH1 0x1F NOT SWAP1 SWAP3 ADD SWAP2 PUSH1 0x20 SWAP2 DUP3 ADD SWAP2 ADD PUSH2 0x2A16 JUMP JUMPDEST MLOAD DUP2 MLOAD PUSH1 0x20 SWAP4 DUP5 SUB PUSH2 0x100 EXP PUSH1 0x0 NOT ADD DUP1 NOT SWAP1 SWAP3 AND SWAP2 AND OR SWAP1 MSTORE PUSH1 0x40 DUP1 MLOAD SWAP3 SWAP1 SWAP5 ADD DUP3 SWAP1 SUB SWAP1 SWAP2 KECCAK256 DUP7 MSTORE DUP6 ADD SWAP6 SWAP1 SWAP6 MSTORE SWAP3 SWAP1 SWAP3 ADD PUSH1 0x0 KECCAK256 SWAP4 SWAP1 SWAP4 SSTORE POP POP POP PUSH1 0x1 PUSH1 0xA0 PUSH1 0x2 EXP SUB DUP3 DUP2 AND SWAP1 DUP5 AND EQ DUP1 ISZERO SWAP1 PUSH2 0x2A96 JUMPI POP PUSH2 0x2A94 DUP3 DUP5 PUSH2 0x2121 JUMP JUMPDEST ISZERO JUMPDEST ISZERO PUSH2 0xAD4 JUMPI PUSH2 0xAD4 DUP4 DUP4 PUSH2 0x3882 JUMP JUMPDEST PUSH2 0x2B29 DUP2 PUSH1 0x2 PUSH1 0x0 DUP6 PUSH1 0x40 MLOAD PUSH1 0x20 ADD DUP1 DUP1 PUSH1 0x0 DUP1 MLOAD PUSH1 0x20 PUSH2 0x4D32 DUP4 CODECOPY DUP2 MLOAD SWAP2 MSTORE DUP2 MSTORE POP PUSH1 0xB ADD DUP3 PUSH1 0x1 PUSH1 0xA0 PUSH1 0x2 EXP SUB AND PUSH1 0x1 PUSH1 0xA0 PUSH1 0x2 EXP SUB AND PUSH1 0x60 PUSH1 0x2 EXP MUL DUP2 MSTORE PUSH1 0x14 ADD SWAP2 POP POP PUSH1 0x40 MLOAD PUSH1 0x20 DUP2 DUP4 SUB SUB DUP2 MSTORE SWAP1 PUSH1 0x40 MSTORE PUSH1 0x40 MLOAD DUP1 DUP3 DUP1 MLOAD SWAP1 PUSH1 0x20 ADD SWAP1 DUP1 DUP4 DUP4 PUSH1 0x20 DUP4 LT PUSH2 0x2971 JUMPI DUP1 MLOAD DUP3 MSTORE PUSH1 0x1F NOT SWAP1 SWAP3 ADD SWAP2 PUSH1 0x20 SWAP2 DUP3 ADD SWAP2 ADD PUSH2 0x2952 JUMP JUMPDEST PUSH1 0x2 PUSH1 0x0 DUP5 PUSH1 0x40 MLOAD PUSH1 0x20 ADD DUP1 DUP1 PUSH1 0x0 DUP1 MLOAD PUSH1 0x20 PUSH2 0x4D32 DUP4 CODECOPY DUP2 MLOAD SWAP2 MSTORE DUP2 MSTORE POP PUSH1 0xB ADD DUP3 PUSH1 0x1 PUSH1 0xA0 PUSH1 0x2 EXP SUB AND PUSH1 0x1 PUSH1 0xA0 PUSH1 0x2 EXP SUB AND PUSH1 0x60 PUSH1 0x2 EXP MUL DUP2 MSTORE PUSH1 0x14 ADD SWAP2 POP POP PUSH1 0x40 MLOAD PUSH1 0x20 DUP2 DUP4 SUB SUB DUP2 MSTORE SWAP1 PUSH1 0x40 MSTORE PUSH1 0x40 MLOAD DUP1 DUP3 DUP1 MLOAD SWAP1 PUSH1 0x20 ADD SWAP1 DUP1 DUP4 DUP4 JUMPDEST PUSH1 0x20 DUP4 LT PUSH2 0x2BAA JUMPI DUP1 MLOAD DUP3 MSTORE PUSH1 0x1F NOT SWAP1 SWAP3 ADD SWAP2 PUSH1 0x20 SWAP2 DUP3 ADD SWAP2 ADD PUSH2 0x2B8B JUMP JUMPDEST MLOAD DUP2 MLOAD PUSH1 0x20 SWAP4 DUP5 SUB PUSH2 0x100 EXP PUSH1 0x0 NOT ADD DUP1 NOT SWAP1 SWAP3 AND SWAP2 AND OR SWAP1 MSTORE PUSH1 0x40 DUP1 MLOAD SWAP3 SWAP1 SWAP5 ADD DUP3 SWAP1 SUB SWAP1 SWAP2 KECCAK256 DUP7 MSTORE DUP6 ADD SWAP6 SWAP1 SWAP6 MSTORE SWAP3 SWAP1 SWAP3 ADD PUSH1 0x0 KECCAK256 SWAP4 SWAP1 SWAP4 SSTORE POP POP POP POP POP JUMP JUMPDEST PUSH2 0x2BF5 DUP2 PUSH2 0x10AA JUMP JUMPDEST ISZERO PUSH2 0x2BFF JUMPI PUSH1 0x0 DUP1 REVERT JUMPDEST PUSH1 0xA PUSH1 0x0 PUSH1 0x40 MLOAD PUSH1 0x20 ADD DUP1 DUP1 PUSH1 0x0 DUP1 MLOAD PUSH1 0x20 PUSH2 0x4CF2 DUP4 CODECOPY DUP2 MLOAD SWAP2 MSTORE DUP2 MSTORE POP PUSH1 0x11 ADD SWAP1 POP PUSH1 0x40 MLOAD PUSH1 0x20 DUP2 DUP4 SUB SUB DUP2 MSTORE SWAP1 PUSH1 0x40 MSTORE PUSH1 0x40 MLOAD DUP1 DUP3 DUP1 MLOAD SWAP1 PUSH1 0x20 ADD SWAP1 DUP1 DUP4 DUP4 JUMPDEST PUSH1 0x20 DUP4 LT PUSH2 0x2C60 JUMPI DUP1 MLOAD DUP3 MSTORE PUSH1 0x1F NOT SWAP1 SWAP3 ADD SWAP2 PUSH1 0x20 SWAP2 DUP3 ADD SWAP2 ADD PUSH2 0x2C41 JUMP JUMPDEST MLOAD DUP2 MLOAD PUSH1 0x20 SWAP4 DUP5 SUB PUSH2 0x100 EXP PUSH1 0x0 NOT ADD DUP1 NOT SWAP1 SWAP3 AND SWAP2 AND OR SWAP1 MSTORE PUSH1 0x40 DUP1 MLOAD SWAP3 SWAP1 SWAP5 ADD DUP3 SWAP1 SUB SWAP1 SWAP2 KECCAK256 DUP7 MSTORE DUP6 DUP2 ADD SWAP7 SWAP1 SWAP7 MSTORE POP SWAP3 SWAP1 SWAP3 ADD PUSH1 0x0 SWAP1 DUP2 KECCAK256 DUP1 SLOAD PUSH1 0x1 DUP2 ADD DUP3 SSTORE SWAP1 DUP3 MSTORE SWAP4 SWAP1 KECCAK256 SWAP1 SWAP3 ADD DUP1 SLOAD PUSH1 0x1 PUSH1 0xA0 PUSH1 0x2 EXP SUB NOT AND PUSH1 0x1 PUSH1 0xA0 PUSH1 0x2 EXP SUB SWAP5 SWAP1 SWAP5 AND SWAP4 SWAP1 SWAP4 OR SWAP1 SWAP3 SSTORE POP POP JUMP JUMPDEST DUP1 PUSH1 0x2 PUSH1 0x0 DUP5 PUSH1 0x40 MLOAD PUSH1 0x20 ADD DUP1 DUP1 PUSH32 0x76616C696461746F724665650000000000000000000000000000000000000000 DUP2 MSTORE POP PUSH1 0xC ADD DUP3 PUSH1 0x1 PUSH1 0xA0 PUSH1 0x2 EXP SUB AND PUSH1 0x1 PUSH1 0xA0 PUSH1 0x2 EXP SUB AND PUSH1 0x60 PUSH1 0x2 EXP MUL DUP2 MSTORE PUSH1 0x14 ADD SWAP2 POP POP PUSH1 0x40 MLOAD PUSH1 0x20 DUP2 DUP4 SUB SUB DUP2 MSTORE SWAP1 PUSH1 0x40 MSTORE PUSH1 0x40 MLOAD DUP1 DUP3 DUP1 MLOAD SWAP1 PUSH1 0x20 ADD SWAP1 DUP1 DUP4 DUP4 PUSH1 0x20 DUP4 LT PUSH2 0x2BAA JUMPI DUP1 MLOAD DUP3 MSTORE PUSH1 0x1F NOT SWAP1 SWAP3 ADD SWAP2 PUSH1 0x20 SWAP2 DUP3 ADD SWAP2 ADD PUSH2 0x2B8B JUMP JUMPDEST PUSH2 0x2DC6 DUP2 PUSH1 0x2 PUSH1 0x0 PUSH1 0x40 MLOAD PUSH1 0x20 ADD DUP1 DUP1 PUSH1 0x0 DUP1 MLOAD PUSH1 0x20 PUSH2 0x4D52 DUP4 CODECOPY DUP2 MLOAD SWAP2 MSTORE DUP2 MSTORE POP PUSH1 0x10 ADD SWAP1 POP PUSH1 0x40 MLOAD PUSH1 0x20 DUP2 DUP4 SUB SUB DUP2 MSTORE SWAP1 PUSH1 0x40 MSTORE PUSH1 0x40 MLOAD DUP1 DUP3 DUP1 MLOAD SWAP1 PUSH1 0x20 ADD SWAP1 DUP1 DUP4 DUP4 PUSH1 0x20 DUP4 LT PUSH2 0x2971 JUMPI DUP1 MLOAD DUP3 MSTORE PUSH1 0x1F NOT SWAP1 SWAP3 ADD SWAP2 PUSH1 0x20 SWAP2 DUP3 ADD SWAP2 ADD PUSH2 0x2952 JUMP JUMPDEST PUSH1 0x2 PUSH1 0x0 PUSH1 0x40 MLOAD PUSH1 0x20 ADD DUP1 DUP1 PUSH1 0x0 DUP1 MLOAD PUSH1 0x20 PUSH2 0x4D52 DUP4 CODECOPY DUP2 MLOAD SWAP2 MSTORE DUP2 MSTORE POP PUSH1 0x10 ADD SWAP1 POP PUSH1 0x40 MLOAD PUSH1 0x20 DUP2 DUP4 SUB SUB DUP2 MSTORE SWAP1 PUSH1 0x40 MSTORE PUSH1 0x40 MLOAD DUP1 DUP3 DUP1 MLOAD SWAP1 PUSH1 0x20 ADD SWAP1 DUP1 DUP4 DUP4 JUMPDEST PUSH1 0x20 DUP4 LT PUSH2 0x2E27 JUMPI DUP1 MLOAD DUP3 MSTORE PUSH1 0x1F NOT SWAP1 SWAP3 ADD SWAP2 PUSH1 0x20 SWAP2 DUP3 ADD SWAP2 ADD PUSH2 0x2E08 JUMP JUMPDEST MLOAD DUP2 MLOAD PUSH1 0x20 SWAP4 DUP5 SUB PUSH2 0x100 EXP PUSH1 0x0 NOT ADD DUP1 NOT SWAP1 SWAP3 AND SWAP2 AND OR SWAP1 MSTORE PUSH1 0x40 DUP1 MLOAD SWAP3 SWAP1 SWAP5 ADD DUP3 SWAP1 SUB SWAP1 SWAP2 KECCAK256 DUP7 MSTORE DUP6 ADD SWAP6 SWAP1 SWAP6 MSTORE SWAP3 SWAP1 SWAP3 ADD PUSH1 0x0 KECCAK256 SWAP4 SWAP1 SWAP4 SSTORE POP POP POP POP JUMP JUMPDEST PUSH1 0x0 PUSH1 0x1 PUSH1 0xA0 PUSH1 0x2 EXP SUB DUP3 AND ISZERO ISZERO PUSH2 0x2E7F JUMPI PUSH1 0x0 DUP1 REVERT JUMPDEST PUSH1 0x0 DUP4 GT PUSH2 0x2E8C JUMPI PUSH1 0x0 DUP1 REVERT JUMPDEST PUSH2 0x2E95 DUP3 PUSH2 0x22BD JUMP JUMPDEST DUP4 GT ISZERO PUSH2 0x2EA1 JUMPI PUSH1 0x0 DUP1 REVERT JUMPDEST PUSH2 0x2EAB DUP5 DUP4 PUSH2 0x10FB JUMP JUMPDEST DUP4 GT ISZERO PUSH2 0x2EB7 JUMPI PUSH1 0x0 DUP1 REVERT JUMPDEST PUSH2 0x2EC0 DUP3 PUSH2 0x284F JUMP JUMPDEST SWAP1 POP PUSH2 0x2ECA PUSH2 0x141D JUMP JUMPDEST PUSH2 0x2EE3 DUP5 PUSH2 0x2ED7 DUP6 PUSH2 0x22BD JUMP JUMPDEST SWAP1 PUSH4 0xFFFFFFFF PUSH2 0x3973 AND JUMP JUMPDEST LT DUP1 ISZERO PUSH2 0x2EED JUMPI POP DUP1 JUMPDEST ISZERO PUSH2 0x2F00 JUMPI PUSH2 0x2EFB DUP3 PUSH2 0x398A JUMP JUMPDEST PUSH2 0x2F7C JUMP JUMPDEST PUSH2 0x2F0B DUP5 DUP4 DUP6 PUSH2 0x3B88 JUMP JUMPDEST PUSH2 0x2F15 DUP3 DUP5 PUSH2 0x3DDA JUMP JUMPDEST DUP1 ISZERO PUSH2 0x2F24 JUMPI PUSH2 0x2F24 DUP4 PUSH2 0x3E5E JUMP JUMPDEST PUSH2 0x2F2C PUSH2 0x141D JUMP JUMPDEST PUSH2 0x2F35 DUP4 PUSH2 0x22BD JUMP JUMPDEST LT ISZERO PUSH2 0x2F44 JUMPI PUSH2 0x2F44 DUP3 PUSH2 0x398A JUMP JUMPDEST PUSH1 0x40 MLOAD PUSH1 0x1 PUSH1 0xA0 PUSH1 0x2 EXP SUB DUP6 AND SWAP1 DUP5 ISZERO PUSH2 0x8FC MUL SWAP1 DUP6 SWAP1 PUSH1 0x0 DUP2 DUP2 DUP2 DUP6 DUP9 DUP9 CALL SWAP4 POP POP POP POP ISZERO DUP1 ISZERO PUSH2 0x2F7A JUMPI RETURNDATASIZE PUSH1 0x0 DUP1 RETURNDATACOPY RETURNDATASIZE PUSH1 0x0 REVERT JUMPDEST POP JUMPDEST POP POP POP POP JUMP JUMPDEST PUSH1 0x0 DUP2 DUP4 LT ISZERO PUSH2 0x2F92 JUMPI DUP2 PUSH2 0x2F94 JUMP JUMPDEST DUP3 JUMPDEST SWAP4 SWAP3 POP POP POP JUMP JUMPDEST PUSH1 0x0 DUP1 DUP4 ISZERO ISZERO PUSH2 0x2FAE JUMPI PUSH1 0x0 SWAP2 POP PUSH2 0x216E JUMP JUMPDEST POP DUP3 DUP3 MUL DUP3 DUP5 DUP3 DUP2 ISZERO ISZERO PUSH2 0x2FBE JUMPI INVALID JUMPDEST DIV EQ PUSH2 0x2F94 JUMPI PUSH1 0x0 DUP1 REVERT JUMPDEST PUSH1 0x0 DUP1 DUP1 DUP4 GT PUSH2 0x2FD8 JUMPI PUSH1 0x0 DUP1 REVERT JUMPDEST DUP3 DUP5 DUP2 ISZERO ISZERO PUSH2 0x2FE3 JUMPI INVALID JUMPDEST DIV SWAP5 SWAP4 POP POP POP POP JUMP JUMPDEST PUSH2 0x2FF5 DUP2 PUSH2 0x398A JUMP JUMPDEST PUSH2 0x12AC DUP2 PUSH2 0x3EC2 JUMP JUMPDEST PUSH2 0x3007 DUP2 PUSH2 0x3F22 JUMP JUMPDEST PUSH2 0x300F PUSH2 0x141D JUMP JUMPDEST PUSH2 0x3018 DUP3 PUSH2 0x22BD JUMP JUMPDEST LT ISZERO DUP1 ISZERO PUSH2 0x302C JUMPI POP PUSH2 0x302A DUP2 PUSH2 0x2895 JUMP JUMPDEST ISZERO JUMPDEST ISZERO PUSH2 0x12AC JUMPI PUSH2 0x12AC DUP2 PUSH2 0x2BEC JUMP JUMPDEST PUSH1 0x0 DUP1 DUP1 DUP1 JUMPDEST DUP5 MLOAD DUP4 LT ISZERO PUSH2 0x30D4 JUMPI PUSH2 0x3069 DUP6 DUP5 DUP2 MLOAD DUP2 LT ISZERO ISZERO PUSH2 0x305A JUMPI INVALID JUMPDEST SWAP1 PUSH1 0x20 ADD SWAP1 PUSH1 0x20 MUL ADD MLOAD PUSH2 0x22BD JUMP JUMPDEST SWAP2 POP DUP2 DUP5 ADD SWAP4 POP PUSH2 0x3090 DUP6 DUP5 DUP2 MLOAD DUP2 LT ISZERO ISZERO PUSH2 0x3081 JUMPI INVALID JUMPDEST SWAP1 PUSH1 0x20 ADD SWAP1 PUSH1 0x20 MUL ADD MLOAD PUSH2 0x208D JUMP JUMPDEST SWAP1 POP PUSH2 0x309A PUSH2 0x109E JUMP JUMPDEST DUP2 LT ISZERO PUSH2 0x30C9 JUMPI PUSH2 0x30C9 DUP6 DUP5 DUP2 MLOAD DUP2 LT ISZERO ISZERO PUSH2 0x30B2 JUMPI INVALID JUMPDEST SWAP1 PUSH1 0x20 ADD SWAP1 PUSH1 0x20 MUL ADD MLOAD PUSH2 0x30C4 PUSH2 0x109E JUMP JUMPDEST PUSH2 0x2CCF JUMP JUMPDEST PUSH1 0x1 SWAP1 SWAP3 ADD SWAP2 PUSH2 0x3040 JUMP JUMPDEST PUSH2 0x30DD DUP5 PUSH2 0x40C8 JUMP JUMPDEST DUP5 PUSH1 0xA PUSH1 0x0 PUSH1 0x40 MLOAD PUSH1 0x20 ADD DUP1 DUP1 PUSH1 0x0 DUP1 MLOAD PUSH1 0x20 PUSH2 0x4D72 DUP4 CODECOPY DUP2 MLOAD SWAP2 MSTORE DUP2 MSTORE POP PUSH1 0x11 ADD SWAP1 POP PUSH1 0x40 MLOAD PUSH1 0x20 DUP2 DUP4 SUB SUB DUP2 MSTORE SWAP1 PUSH1 0x40 MSTORE PUSH1 0x40 MLOAD DUP1 DUP3 DUP1 MLOAD SWAP1 PUSH1 0x20 ADD SWAP1 DUP1 DUP4 DUP4 JUMPDEST PUSH1 0x20 DUP4 LT PUSH2 0x313F JUMPI DUP1 MLOAD DUP3 MSTORE PUSH1 0x1F NOT SWAP1 SWAP3 ADD SWAP2 PUSH1 0x20 SWAP2 DUP3 ADD SWAP2 ADD PUSH2 0x3120 JUMP JUMPDEST MLOAD DUP2 MLOAD PUSH1 0x0 NOT PUSH1 0x20 SWAP5 DUP6 SUB PUSH2 0x100 EXP ADD SWAP1 DUP2 AND SWAP1 NOT SWAP2 SWAP1 SWAP2 AND OR SWAP1 MSTORE PUSH1 0x40 DUP1 MLOAD SWAP5 SWAP1 SWAP3 ADD DUP5 SWAP1 SUB SWAP1 SWAP4 KECCAK256 DUP7 MSTORE DUP6 DUP4 ADD SWAP7 SWAP1 SWAP7 MSTORE POP SWAP3 SWAP1 SWAP4 ADD PUSH1 0x0 KECCAK256 DUP5 MLOAD PUSH2 0x1D5D SWAP6 SWAP2 SWAP5 POP SWAP3 ADD SWAP2 SWAP1 POP PUSH2 0x4BCA JUMP JUMPDEST DUP1 PUSH1 0x6 PUSH1 0x0 PUSH1 0x40 MLOAD PUSH1 0x20 ADD DUP1 DUP1 PUSH32 0x697346696E616C697A6564000000000000000000000000000000000000000000 DUP2 MSTORE POP PUSH1 0xB ADD SWAP1 POP PUSH1 0x40 MLOAD PUSH1 0x20 DUP2 DUP4 SUB SUB DUP2 MSTORE SWAP1 PUSH1 0x40 MSTORE PUSH1 0x40 MLOAD DUP1 DUP3 DUP1 MLOAD SWAP1 PUSH1 0x20 ADD SWAP1 DUP1 DUP4 DUP4 PUSH1 0x20 DUP4 LT PUSH2 0x1051 JUMPI DUP1 MLOAD DUP3 MSTORE PUSH1 0x1F NOT SWAP1 SWAP3 ADD SWAP2 PUSH1 0x20 SWAP2 DUP3 ADD SWAP2 ADD PUSH2 0x1032 JUMP JUMPDEST PUSH1 0x2 PUSH1 0x0 DUP3 PUSH1 0x40 MLOAD PUSH1 0x20 ADD DUP1 DUP1 PUSH1 0x0 DUP1 MLOAD PUSH1 0x20 PUSH2 0x4CD2 DUP4 CODECOPY DUP2 MLOAD SWAP2 MSTORE DUP2 MSTORE POP PUSH1 0xC ADD DUP3 PUSH1 0x1 PUSH1 0xA0 PUSH1 0x2 EXP SUB AND PUSH1 0x1 PUSH1 0xA0 PUSH1 0x2 EXP SUB AND PUSH1 0x60 PUSH1 0x2 EXP MUL DUP2 MSTORE PUSH1 0x14 ADD SWAP2 POP POP PUSH1 0x40 MLOAD PUSH1 0x20 DUP2 DUP4 SUB SUB DUP2 MSTORE SWAP1 PUSH1 0x40 MSTORE PUSH1 0x40 MLOAD DUP1 DUP3 DUP1 MLOAD SWAP1 PUSH1 0x20 ADD SWAP1 DUP1 DUP4 DUP4 JUMPDEST PUSH1 0x20 DUP4 LT PUSH2 0x3281 JUMPI DUP1 MLOAD DUP3 MSTORE PUSH1 0x1F NOT SWAP1 SWAP3 ADD SWAP2 PUSH1 0x20 SWAP2 DUP3 ADD SWAP2 ADD PUSH2 0x3262 JUMP JUMPDEST MLOAD DUP2 MLOAD PUSH1 0x20 SWAP4 DUP5 SUB PUSH2 0x100 EXP PUSH1 0x0 NOT ADD DUP1 NOT SWAP1 SWAP3 AND SWAP2 AND OR SWAP1 MSTORE PUSH1 0x40 DUP1 MLOAD SWAP3 SWAP1 SWAP5 ADD DUP3 SWAP1 SUB SWAP1 SWAP2 KECCAK256 DUP7 MSTORE DUP6 DUP2 ADD SWAP7 SWAP1 SWAP7 MSTORE POP SWAP3 DUP4 ADD PUSH1 0x0 SWAP1 DUP2 KECCAK256 SLOAD DUP5 MLOAD PUSH1 0x0 DUP1 MLOAD PUSH1 0x20 PUSH2 0x4CD2 DUP4 CODECOPY DUP2 MLOAD SWAP2 MSTORE DUP2 DUP9 ADD MSTORE PUSH1 0x1 PUSH1 0xA0 PUSH1 0x2 EXP SUB DUP9 AND PUSH1 0x60 PUSH1 0x2 EXP MUL PUSH1 0x2C DUP3 ADD MSTORE DUP6 MLOAD DUP1 DUP3 SUB DUP9 ADD DUP2 MSTORE SWAP1 DUP7 ADD SWAP6 DUP7 SWAP1 MSTORE DUP1 MLOAD PUSH1 0x1 SWAP1 SWAP3 ADD SWAP7 PUSH1 0x2 SWAP7 SWAP4 SWAP6 POP SWAP1 SWAP4 POP DUP3 SWAP2 DUP5 DUP3 ADD SWAP2 DUP2 SWAP1 DUP5 SWAP1 DUP5 SWAP1 DUP4 LT PUSH2 0x2E27 JUMPI DUP1 MLOAD DUP3 MSTORE PUSH1 0x1F NOT SWAP1 SWAP3 ADD SWAP2 PUSH1 0x20 SWAP2 DUP3 ADD SWAP2 ADD PUSH2 0x2E08 JUMP JUMPDEST PUSH1 0x0 PUSH2 0x333A PUSH2 0x223F JUMP JUMPDEST NUMBER LT ISZERO SWAP1 POP SWAP1 JUMP JUMPDEST NUMBER PUSH1 0x2 PUSH1 0x0 PUSH1 0x40 MLOAD PUSH1 0x20 ADD DUP1 DUP1 PUSH32 0x63757272656E744379636C655374617274426C6F636B00000000000000000000 DUP2 MSTORE POP PUSH1 0x16 ADD SWAP1 POP PUSH1 0x40 MLOAD PUSH1 0x20 DUP2 DUP4 SUB SUB DUP2 MSTORE SWAP1 PUSH1 0x40 MSTORE PUSH1 0x40 MLOAD DUP1 DUP3 DUP1 MLOAD SWAP1 PUSH1 0x20 ADD SWAP1 DUP1 DUP4 DUP4 JUMPDEST PUSH1 0x20 DUP4 LT PUSH2 0x33B6 JUMPI DUP1 MLOAD DUP3 MSTORE PUSH1 0x1F NOT SWAP1 SWAP3 ADD SWAP2 PUSH1 0x20 SWAP2 DUP3 ADD SWAP2 ADD PUSH2 0x3397 JUMP JUMPDEST MLOAD DUP2 MLOAD PUSH1 0x20 SWAP4 DUP5 SUB PUSH2 0x100 EXP PUSH1 0x0 NOT ADD DUP1 NOT SWAP1 SWAP3 AND SWAP2 AND OR SWAP1 MSTORE PUSH1 0x40 DUP1 MLOAD SWAP3 SWAP1 SWAP5 ADD DUP3 SWAP1 SUB SWAP1 SWAP2 KECCAK256 DUP7 MSTORE DUP6 ADD SWAP6 SWAP1 SWAP6 MSTORE SWAP3 SWAP1 SWAP3 ADD PUSH1 0x0 KECCAK256 SWAP4 SWAP1 SWAP4 SSTORE POP PUSH2 0x33FE SWAP2 POP PUSH2 0x21D7 SWAP1 POP JUMP JUMPDEST NUMBER ADD PUSH1 0x2 PUSH1 0x0 PUSH1 0x40 MLOAD PUSH1 0x20 ADD DUP1 DUP1 PUSH32 0x63757272656E744379636C65456E64426C6F636B000000000000000000000000 DUP2 MSTORE POP PUSH1 0x14 ADD SWAP1 POP PUSH1 0x40 MLOAD PUSH1 0x20 DUP2 DUP4 SUB SUB DUP2 MSTORE SWAP1 PUSH1 0x40 MSTORE PUSH1 0x40 MLOAD DUP1 DUP3 DUP1 MLOAD SWAP1 PUSH1 0x20 ADD SWAP1 DUP1 DUP4 DUP4 JUMPDEST PUSH1 0x20 DUP4 LT PUSH2 0x3473 JUMPI DUP1 MLOAD DUP3 MSTORE PUSH1 0x1F NOT SWAP1 SWAP3 ADD SWAP2 PUSH1 0x20 SWAP2 DUP3 ADD SWAP2 ADD PUSH2 0x3454 JUMP JUMPDEST MLOAD DUP2 MLOAD PUSH1 0x20 SWAP4 DUP5 SUB PUSH2 0x100 EXP PUSH1 0x0 NOT ADD DUP1 NOT SWAP1 SWAP3 AND SWAP2 AND OR SWAP1 MSTORE PUSH1 0x40 DUP1 MLOAD SWAP3 SWAP1 SWAP5 ADD DUP3 SWAP1 SUB SWAP1 SWAP2 KECCAK256 DUP7 MSTORE DUP6 ADD SWAP6 SWAP1 SWAP6 MSTORE SWAP3 SWAP1 SWAP3 ADD PUSH1 0x0 KECCAK256 SWAP4 SWAP1 SWAP4 SSTORE POP POP POP JUMP JUMPDEST PUSH1 0x0 DUP1 PUSH2 0x34CF PUSH2 0x2710 PUSH2 0x16B7 DUP6 MLOAD PUSH2 0x16B7 PUSH2 0xBB8 PUSH2 0x16C3 PUSH2 0x21D7 JUMP JUMPDEST SWAP2 POP PUSH1 0x0 SWAP1 POP JUMPDEST DUP3 MLOAD DUP2 LT ISZERO PUSH2 0xAD4 JUMPI DUP2 PUSH2 0x3500 DUP5 DUP4 DUP2 MLOAD DUP2 LT ISZERO ISZERO PUSH2 0x34F1 JUMPI INVALID JUMPDEST SWAP1 PUSH1 0x20 ADD SWAP1 PUSH1 0x20 MUL ADD MLOAD PUSH2 0x19BE JUMP JUMPDEST LT ISZERO PUSH2 0x352B JUMPI PUSH2 0x3526 DUP4 DUP3 DUP2 MLOAD DUP2 LT ISZERO ISZERO PUSH2 0x3517 JUMPI INVALID JUMPDEST SWAP1 PUSH1 0x20 ADD SWAP1 PUSH1 0x20 MUL ADD MLOAD PUSH2 0x4129 JUMP JUMPDEST PUSH2 0x3570 JUMP JUMPDEST PUSH2 0x354B DUP4 DUP3 DUP2 MLOAD DUP2 LT ISZERO ISZERO PUSH2 0x353C JUMPI INVALID JUMPDEST SWAP1 PUSH1 0x20 ADD SWAP1 PUSH1 0x20 MUL ADD MLOAD PUSH2 0x18FA JUMP JUMPDEST ISZERO PUSH2 0x3570 JUMPI PUSH2 0x3570 DUP4 DUP3 DUP2 MLOAD DUP2 LT ISZERO ISZERO PUSH2 0x3561 JUMPI INVALID JUMPDEST SWAP1 PUSH1 0x20 ADD SWAP1 PUSH1 0x20 MUL ADD MLOAD PUSH2 0x414D JUMP JUMPDEST PUSH2 0x3590 DUP4 DUP3 DUP2 MLOAD DUP2 LT ISZERO ISZERO PUSH2 0x3581 JUMPI INVALID JUMPDEST SWAP1 PUSH1 0x20 ADD SWAP1 PUSH1 0x20 MUL ADD MLOAD PUSH2 0x438C JUMP JUMPDEST PUSH1 0x1 ADD PUSH2 0x34D6 JUMP JUMPDEST DUP1 PUSH1 0xA PUSH1 0x0 PUSH1 0x40 MLOAD PUSH1 0x20 ADD DUP1 DUP1 PUSH32 0x6E657756616C696461746F725365740000000000000000000000000000000000 DUP2 MSTORE POP PUSH1 0xF ADD SWAP1 POP PUSH1 0x40 MLOAD PUSH1 0x20 DUP2 DUP4 SUB SUB DUP2 MSTORE SWAP1 PUSH1 0x40 MSTORE PUSH1 0x40 MLOAD DUP1 DUP3 DUP1 MLOAD SWAP1 PUSH1 0x20 ADD SWAP1 DUP1 DUP4 DUP4 JUMPDEST PUSH1 0x20 DUP4 LT PUSH2 0x360C JUMPI DUP1 MLOAD DUP3 MSTORE PUSH1 0x1F NOT SWAP1 SWAP3 ADD SWAP2 PUSH1 0x20 SWAP2 DUP3 ADD SWAP2 ADD PUSH2 0x35ED JUMP JUMPDEST MLOAD DUP2 MLOAD PUSH1 0x0 NOT PUSH1 0x20 SWAP5 DUP6 SUB PUSH2 0x100 EXP ADD SWAP1 DUP2 AND SWAP1 NOT SWAP2 SWAP1 SWAP2 AND OR SWAP1 MSTORE PUSH1 0x40 DUP1 MLOAD SWAP5 SWAP1 SWAP3 ADD DUP5 SWAP1 SUB SWAP1 SWAP4 KECCAK256 DUP7 MSTORE DUP6 DUP4 ADD SWAP7 SWAP1 SWAP7 MSTORE POP SWAP3 SWAP1 SWAP4 ADD PUSH1 0x0 KECCAK256 DUP5 MLOAD PUSH2 0x1D62 SWAP6 SWAP2 SWAP5 POP SWAP3 ADD SWAP2 SWAP1 POP PUSH2 0x4BCA JUMP JUMPDEST DUP1 PUSH1 0x6 PUSH1 0x0 PUSH1 0x40 MLOAD PUSH1 0x20 ADD DUP1 DUP1 PUSH32 0x73686F756C64456D6974496E6974696174654368616E67650000000000000000 DUP2 MSTORE POP PUSH1 0x18 ADD SWAP1 POP PUSH1 0x40 MLOAD PUSH1 0x20 DUP2 DUP4 SUB SUB DUP2 MSTORE SWAP1 PUSH1 0x40 MSTORE PUSH1 0x40 MLOAD DUP1 DUP3 DUP1 MLOAD SWAP1 PUSH1 0x20 ADD SWAP1 DUP1 DUP4 DUP4 PUSH1 0x20 DUP4 LT PUSH2 0x1051 JUMPI DUP1 MLOAD DUP3 MSTORE PUSH1 0x1F NOT SWAP1 SWAP3 ADD SWAP2 PUSH1 0x20 SWAP2 DUP3 ADD SWAP2 ADD PUSH2 0x1032 JUMP JUMPDEST PUSH1 0x0 DUP3 DUP3 ADD DUP4 DUP2 LT ISZERO PUSH2 0x2F94 JUMPI PUSH1 0x0 DUP1 REVERT JUMPDEST DUP1 PUSH1 0x4 PUSH1 0x0 PUSH1 0x40 MLOAD PUSH1 0x20 ADD DUP1 DUP1 PUSH32 0x53595354454D5F41444452455353000000000000000000000000000000000000 DUP2 MSTORE POP PUSH1 0xE ADD SWAP1 POP PUSH1 0x40 MLOAD PUSH1 0x20 DUP2 DUP4 SUB SUB DUP2 MSTORE SWAP1 PUSH1 0x40 MSTORE PUSH1 0x40 MLOAD DUP1 DUP3 DUP1 MLOAD SWAP1 PUSH1 0x20 ADD SWAP1 DUP1 DUP4 DUP4 JUMPDEST PUSH1 0x20 DUP4 LT PUSH2 0x3753 JUMPI DUP1 MLOAD DUP3 MSTORE PUSH1 0x1F NOT SWAP1 SWAP3 ADD SWAP2 PUSH1 0x20 SWAP2 DUP3 ADD SWAP2 ADD PUSH2 0x3734 JUMP JUMPDEST MLOAD DUP2 MLOAD PUSH1 0x20 SWAP4 DUP5 SUB PUSH2 0x100 EXP PUSH1 0x0 NOT ADD DUP1 NOT SWAP1 SWAP3 AND SWAP2 AND OR SWAP1 MSTORE PUSH1 0x40 DUP1 MLOAD SWAP3 SWAP1 SWAP5 ADD DUP3 SWAP1 SUB SWAP1 SWAP2 KECCAK256 DUP7 MSTORE DUP6 ADD SWAP6 SWAP1 SWAP6 MSTORE SWAP3 SWAP1 SWAP3 ADD PUSH1 0x0 KECCAK256 DUP1 SLOAD PUSH1 0x1 PUSH1 0xA0 PUSH1 0x2 EXP SUB NOT AND PUSH1 0x1 PUSH1 0xA0 PUSH1 0x2 EXP SUB SWAP6 SWAP1 SWAP6 AND SWAP5 SWAP1 SWAP5 OR SWAP1 SWAP4 SSTORE POP POP POP POP JUMP JUMPDEST PUSH1 0xA PUSH1 0x0 PUSH1 0x40 MLOAD PUSH1 0x20 ADD DUP1 DUP1 PUSH1 0x0 DUP1 MLOAD PUSH1 0x20 PUSH2 0x4D72 DUP4 CODECOPY DUP2 MLOAD SWAP2 MSTORE DUP2 MSTORE POP PUSH1 0x11 ADD SWAP1 POP PUSH1 0x40 MLOAD PUSH1 0x20 DUP2 DUP4 SUB SUB DUP2 MSTORE SWAP1 PUSH1 0x40 MSTORE PUSH1 0x40 MLOAD DUP1 DUP3 DUP1 MLOAD SWAP1 PUSH1 0x20 ADD SWAP1 DUP1 DUP4 DUP4 PUSH1 0x20 DUP4 LT PUSH2 0x2C60 JUMPI DUP1 MLOAD DUP3 MSTORE PUSH1 0x1F NOT SWAP1 SWAP3 ADD SWAP2 PUSH1 0x20 SWAP2 DUP3 ADD SWAP2 ADD PUSH2 0x2C41 JUMP JUMPDEST DUP1 PUSH1 0x6 PUSH1 0x0 PUSH1 0x40 MLOAD PUSH1 0x20 ADD DUP1 DUP1 PUSH32 0x6973496E697469616C697A656400000000000000000000000000000000000000 DUP2 MSTORE POP PUSH1 0xD ADD SWAP1 POP PUSH1 0x40 MLOAD PUSH1 0x20 DUP2 DUP4 SUB SUB DUP2 MSTORE SWAP1 PUSH1 0x40 MSTORE PUSH1 0x40 MLOAD DUP1 DUP3 DUP1 MLOAD SWAP1 PUSH1 0x20 ADD SWAP1 DUP1 DUP4 DUP4 PUSH1 0x20 DUP4 LT PUSH2 0x1051 JUMPI DUP1 MLOAD DUP3 MSTORE PUSH1 0x1F NOT SWAP1 SWAP3 ADD SWAP2 PUSH1 0x20 SWAP2 DUP3 ADD SWAP2 ADD PUSH2 0x1032 JUMP JUMPDEST PUSH1 0xA PUSH1 0x0 DUP3 PUSH1 0x40 MLOAD PUSH1 0x20 ADD DUP1 DUP1 PUSH1 0x0 DUP1 MLOAD PUSH1 0x20 PUSH2 0x4CB2 DUP4 CODECOPY DUP2 MLOAD SWAP2 MSTORE DUP2 MSTORE POP PUSH1 0xA ADD DUP3 PUSH1 0x1 PUSH1 0xA0 PUSH1 0x2 EXP SUB AND PUSH1 0x1 PUSH1 0xA0 PUSH1 0x2 EXP SUB AND PUSH1 0x60 PUSH1 0x2 EXP MUL DUP2 MSTORE PUSH1 0x14 ADD SWAP2 POP POP PUSH1 0x40 MLOAD PUSH1 0x20 DUP2 DUP4 SUB SUB DUP2 MSTORE SWAP1 PUSH1 0x40 MSTORE PUSH1 0x40 MLOAD DUP1 DUP3 DUP1 MLOAD SWAP1 PUSH1 0x20 ADD SWAP1 DUP1 DUP4 DUP4 JUMPDEST PUSH1 0x20 DUP4 LT PUSH2 0x3903 JUMPI DUP1 MLOAD DUP3 MSTORE PUSH1 0x1F NOT SWAP1 SWAP3 ADD SWAP2 PUSH1 0x20 SWAP2 DUP3 ADD SWAP2 ADD PUSH2 0x38E4 JUMP JUMPDEST MLOAD DUP2 MLOAD PUSH1 0x20 SWAP4 DUP5 SUB PUSH2 0x100 EXP PUSH1 0x0 NOT ADD DUP1 NOT SWAP1 SWAP3 AND SWAP2 AND OR SWAP1 MSTORE PUSH1 0x40 DUP1 MLOAD SWAP3 SWAP1 SWAP5 ADD DUP3 SWAP1 SUB SWAP1 SWAP2 KECCAK256 DUP7 MSTORE DUP6 DUP2 ADD SWAP7 SWAP1 SWAP7 MSTORE POP SWAP3 SWAP1 SWAP3 ADD PUSH1 0x0 SWAP1 DUP2 KECCAK256 DUP1 SLOAD PUSH1 0x1 DUP2 ADD DUP3 SSTORE SWAP1 DUP3 MSTORE SWAP4 SWAP1 KECCAK256 SWAP1 SWAP3 ADD DUP1 SLOAD PUSH1 0x1 PUSH1 0xA0 PUSH1 0x2 EXP SUB NOT AND PUSH1 0x1 PUSH1 0xA0 PUSH1 0x2 EXP SUB SWAP6 SWAP1 SWAP6 AND SWAP5 SWAP1 SWAP5 OR SWAP1 SWAP4 SSTORE POP POP POP JUMP JUMPDEST PUSH1 0x0 DUP1 DUP4 DUP4 GT ISZERO PUSH2 0x3983 JUMPI PUSH1 0x0 DUP1 REVERT JUMPDEST POP POP SWAP1 SUB SWAP1 JUMP JUMPDEST PUSH1 0x0 DUP1 DUP1 DUP1 DUP1 JUMPDEST PUSH2 0x3999 PUSH2 0x11BF JUMP JUMPDEST DUP4 LT ISZERO PUSH2 0x39D9 JUMPI PUSH2 0x39A9 DUP4 PUSH2 0xB7D JUMP JUMPDEST PUSH1 0x1 PUSH1 0xA0 PUSH1 0x2 EXP SUB AND DUP7 PUSH1 0x1 PUSH1 0xA0 PUSH1 0x2 EXP SUB AND EQ ISZERO PUSH2 0x39CE JUMPI DUP3 SWAP4 POP PUSH1 0x1 SWAP5 POP PUSH2 0x39D9 JUMP JUMPDEST PUSH1 0x1 SWAP1 SWAP3 ADD SWAP2 PUSH2 0x3991 JUMP JUMPDEST DUP5 ISZERO PUSH2 0x1D5D JUMPI PUSH1 0x1 PUSH2 0x39E9 PUSH2 0x11BF JUMP JUMPDEST SUB SWAP2 POP PUSH2 0x39F5 DUP3 PUSH2 0xB7D JUMP JUMPDEST SWAP1 POP PUSH1 0x1 PUSH1 0xA0 PUSH1 0x2 EXP SUB DUP2 AND ISZERO PUSH2 0x3A10 JUMPI PUSH2 0x3A10 DUP5 DUP3 PUSH2 0x440E JUMP JUMPDEST PUSH1 0xA PUSH1 0x0 PUSH1 0x40 MLOAD PUSH1 0x20 ADD DUP1 DUP1 PUSH1 0x0 DUP1 MLOAD PUSH1 0x20 PUSH2 0x4CF2 DUP4 CODECOPY DUP2 MLOAD SWAP2 MSTORE DUP2 MSTORE POP PUSH1 0x11 ADD SWAP1 POP PUSH1 0x40 MLOAD PUSH1 0x20 DUP2 DUP4 SUB SUB DUP2 MSTORE SWAP1 PUSH1 0x40 MSTORE PUSH1 0x40 MLOAD DUP1 DUP3 DUP1 MLOAD SWAP1 PUSH1 0x20 ADD SWAP1 DUP1 DUP4 DUP4 JUMPDEST PUSH1 0x20 DUP4 LT PUSH2 0x3A71 JUMPI DUP1 MLOAD DUP3 MSTORE PUSH1 0x1F NOT SWAP1 SWAP3 ADD SWAP2 PUSH1 0x20 SWAP2 DUP3 ADD SWAP2 ADD PUSH2 0x3A52 JUMP JUMPDEST MLOAD DUP2 MLOAD PUSH1 0x20 SWAP4 DUP5 SUB PUSH2 0x100 EXP PUSH1 0x0 NOT ADD DUP1 NOT SWAP1 SWAP3 AND SWAP2 AND OR SWAP1 MSTORE PUSH1 0x40 DUP1 MLOAD SWAP3 SWAP1 SWAP5 ADD DUP3 SWAP1 SUB SWAP1 SWAP2 KECCAK256 DUP7 MSTORE DUP6 ADD SWAP6 SWAP1 SWAP6 MSTORE SWAP3 SWAP1 SWAP3 ADD PUSH1 0x0 KECCAK256 DUP1 SLOAD SWAP1 SWAP4 POP DUP6 SWAP3 POP DUP3 LT SWAP1 POP PUSH2 0x3ABA JUMPI INVALID JUMPDEST PUSH1 0x0 SWAP2 DUP3 MSTORE PUSH1 0x20 DUP1 DUP4 KECCAK256 SWAP1 SWAP2 ADD DUP1 SLOAD PUSH1 0x1 PUSH1 0xA0 PUSH1 0x2 EXP SUB NOT AND SWAP1 SSTORE PUSH1 0x40 DUP1 MLOAD PUSH1 0x0 DUP1 MLOAD PUSH1 0x20 PUSH2 0x4CF2 DUP4 CODECOPY DUP2 MLOAD SWAP2 MSTORE DUP2 DUP5 ADD MSTORE DUP2 MLOAD DUP1 DUP3 SUB PUSH1 0x11 ADD DUP2 MSTORE PUSH1 0x31 SWAP1 SWAP2 ADD SWAP2 DUP3 SWAP1 MSTORE DUP1 MLOAD PUSH1 0xA SWAP5 SWAP4 SWAP2 SWAP3 SWAP2 DUP3 SWAP2 SWAP1 DUP5 ADD SWAP1 DUP1 DUP4 DUP4 JUMPDEST PUSH1 0x20 DUP4 LT PUSH2 0x3B31 JUMPI DUP1 MLOAD DUP3 MSTORE PUSH1 0x1F NOT SWAP1 SWAP3 ADD SWAP2 PUSH1 0x20 SWAP2 DUP3 ADD SWAP2 ADD PUSH2 0x3B12 JUMP JUMPDEST MLOAD DUP2 MLOAD PUSH1 0x0 NOT PUSH1 0x20 SWAP5 DUP6 SUB PUSH2 0x100 EXP DUP2 ADD SWAP2 DUP3 AND SWAP2 NOT SWAP3 SWAP1 SWAP3 AND OR SWAP1 SWAP2 MSTORE PUSH1 0x40 DUP1 MLOAD SWAP6 SWAP1 SWAP4 ADD DUP6 SWAP1 SUB SWAP1 SWAP5 KECCAK256 DUP8 MSTORE DUP7 ADD SWAP7 SWAP1 SWAP7 MSTORE POP SWAP3 SWAP1 SWAP4 ADD PUSH1 0x0 KECCAK256 DUP1 SLOAD SWAP4 POP PUSH2 0x3B7F SWAP3 SWAP1 SWAP2 POP DUP4 ADD PUSH2 0x4C2F JUMP JUMPDEST POP POP POP POP POP POP POP JUMP JUMPDEST PUSH1 0x40 DUP1 MLOAD PUSH1 0x0 DUP1 MLOAD PUSH1 0x20 PUSH2 0x4D92 DUP4 CODECOPY DUP2 MLOAD SWAP2 MSTORE PUSH1 0x20 DUP1 DUP4 ADD SWAP2 SWAP1 SWAP2 MSTORE PUSH1 0x60 PUSH1 0x2 EXP PUSH1 0x1 PUSH1 0xA0 PUSH1 0x2 EXP SUB DUP1 DUP9 AND DUP3 MUL PUSH1 0x2F DUP6 ADD MSTORE DUP7 AND MUL PUSH1 0x43 DUP4 ADD MSTORE DUP3 MLOAD PUSH1 0x37 DUP2 DUP5 SUB ADD DUP2 MSTORE PUSH1 0x57 SWAP1 SWAP3 ADD SWAP3 DUP4 SWAP1 MSTORE DUP2 MLOAD PUSH2 0x3C52 SWAP4 DUP6 SWAP4 PUSH1 0x2 SWAP4 PUSH1 0x0 SWAP4 SWAP2 SWAP3 SWAP2 DUP3 SWAP2 DUP5 ADD SWAP1 DUP1 DUP4 DUP4 JUMPDEST PUSH1 0x20 DUP4 LT PUSH2 0x3C0F JUMPI DUP1 MLOAD DUP3 MSTORE PUSH1 0x1F NOT SWAP1 SWAP3 ADD SWAP2 PUSH1 0x20 SWAP2 DUP3 ADD SWAP2 ADD PUSH2 0x3BF0 JUMP JUMPDEST MLOAD DUP2 MLOAD PUSH1 0x20 SWAP4 DUP5 SUB PUSH2 0x100 EXP PUSH1 0x0 NOT ADD DUP1 NOT SWAP1 SWAP3 AND SWAP2 AND OR SWAP1 MSTORE PUSH1 0x40 DUP1 MLOAD SWAP3 SWAP1 SWAP5 ADD DUP3 SWAP1 SUB SWAP1 SWAP2 KECCAK256 DUP7 MSTORE DUP6 ADD SWAP6 SWAP1 SWAP6 MSTORE SWAP3 SWAP1 SWAP3 ADD PUSH1 0x0 KECCAK256 SLOAD SWAP4 SWAP3 POP POP PUSH2 0x3973 SWAP1 POP JUMP JUMPDEST PUSH1 0x40 DUP1 MLOAD PUSH1 0x0 DUP1 MLOAD PUSH1 0x20 PUSH2 0x4D92 DUP4 CODECOPY DUP2 MLOAD SWAP2 MSTORE PUSH1 0x20 DUP1 DUP4 ADD SWAP2 SWAP1 SWAP2 MSTORE PUSH1 0x60 PUSH1 0x2 EXP PUSH1 0x1 PUSH1 0xA0 PUSH1 0x2 EXP SUB DUP1 DUP10 AND DUP3 MUL PUSH1 0x2F DUP6 ADD MSTORE DUP8 AND MUL PUSH1 0x43 DUP4 ADD MSTORE DUP3 MLOAD PUSH1 0x37 DUP2 DUP5 SUB ADD DUP2 MSTORE PUSH1 0x57 SWAP1 SWAP3 ADD SWAP3 DUP4 SWAP1 MSTORE DUP2 MLOAD PUSH1 0x2 SWAP4 PUSH1 0x0 SWAP4 SWAP3 SWAP1 SWAP2 DUP3 SWAP2 DUP5 ADD SWAP1 DUP1 DUP4 DUP4 JUMPDEST PUSH1 0x20 DUP4 LT PUSH2 0x3CD3 JUMPI DUP1 MLOAD DUP3 MSTORE PUSH1 0x1F NOT SWAP1 SWAP3 ADD SWAP2 PUSH1 0x20 SWAP2 DUP3 ADD SWAP2 ADD PUSH2 0x3CB4 JUMP JUMPDEST MLOAD DUP2 MLOAD PUSH1 0x0 NOT PUSH1 0x20 SWAP5 DUP6 SUB PUSH2 0x100 EXP ADD SWAP1 DUP2 AND SWAP1 NOT SWAP2 SWAP1 SWAP2 AND OR SWAP1 MSTORE PUSH1 0x40 DUP1 MLOAD SWAP5 SWAP1 SWAP3 ADD DUP5 SWAP1 SUB SWAP1 SWAP4 KECCAK256 DUP7 MSTORE DUP6 DUP4 ADD SWAP7 SWAP1 SWAP7 MSTORE POP SWAP3 DUP5 ADD PUSH1 0x0 SWAP1 DUP2 KECCAK256 SWAP6 SWAP1 SWAP6 SSTORE POP POP DUP2 MLOAD PUSH1 0x0 DUP1 MLOAD PUSH1 0x20 PUSH2 0x4D92 DUP4 CODECOPY DUP2 MLOAD SWAP2 MSTORE DUP2 DUP4 ADD MSTORE PUSH1 0x60 PUSH1 0x2 EXP PUSH1 0x1 PUSH1 0xA0 PUSH1 0x2 EXP SUB DUP1 DUP10 AND DUP3 MUL PUSH1 0x2F DUP5 ADD MSTORE DUP8 AND MUL PUSH1 0x43 DUP3 ADD MSTORE DUP3 MLOAD PUSH1 0x37 DUP2 DUP4 SUB ADD DUP2 MSTORE PUSH1 0x57 SWAP1 SWAP2 ADD SWAP3 DUP4 SWAP1 MSTORE DUP1 MLOAD PUSH1 0x2 SWAP5 SWAP4 SWAP2 SWAP3 DUP3 SWAP2 SWAP1 DUP5 ADD SWAP1 DUP1 DUP4 DUP4 JUMPDEST PUSH1 0x20 DUP4 LT PUSH2 0x3D8D JUMPI DUP1 MLOAD DUP3 MSTORE PUSH1 0x1F NOT SWAP1 SWAP3 ADD SWAP2 PUSH1 0x20 SWAP2 DUP3 ADD SWAP2 ADD PUSH2 0x3D6E JUMP JUMPDEST MLOAD DUP2 MLOAD PUSH1 0x20 SWAP4 DUP5 SUB PUSH2 0x100 EXP PUSH1 0x0 NOT ADD DUP1 NOT SWAP1 SWAP3 AND SWAP2 AND OR SWAP1 MSTORE PUSH1 0x40 DUP1 MLOAD SWAP3 SWAP1 SWAP5 ADD DUP3 SWAP1 SUB SWAP1 SWAP2 KECCAK256 DUP7 MSTORE DUP6 ADD SWAP6 SWAP1 SWAP6 MSTORE SWAP3 SWAP1 SWAP3 ADD PUSH1 0x0 KECCAK256 SLOAD ISZERO ISZERO SWAP3 POP PUSH2 0xAD4 SWAP2 POP POP JUMPI PUSH2 0xAD4 DUP4 DUP4 PUSH2 0x44EB JUMP JUMPDEST PUSH2 0x2B29 DUP2 PUSH1 0x2 PUSH1 0x0 DUP6 PUSH1 0x40 MLOAD PUSH1 0x20 ADD DUP1 DUP1 PUSH1 0x0 DUP1 MLOAD PUSH1 0x20 PUSH2 0x4D32 DUP4 CODECOPY DUP2 MLOAD SWAP2 MSTORE DUP2 MSTORE POP PUSH1 0xB ADD DUP3 PUSH1 0x1 PUSH1 0xA0 PUSH1 0x2 EXP SUB AND PUSH1 0x1 PUSH1 0xA0 PUSH1 0x2 EXP SUB AND PUSH1 0x60 PUSH1 0x2 EXP MUL DUP2 MSTORE PUSH1 0x14 ADD SWAP2 POP POP PUSH1 0x40 MLOAD PUSH1 0x20 DUP2 DUP4 SUB SUB DUP2 MSTORE SWAP1 PUSH1 0x40 MSTORE PUSH1 0x40 MLOAD DUP1 DUP3 DUP1 MLOAD SWAP1 PUSH1 0x20 ADD SWAP1 DUP1 DUP4 DUP4 PUSH1 0x20 DUP4 LT PUSH2 0x3C0F JUMPI DUP1 MLOAD DUP3 MSTORE PUSH1 0x1F NOT SWAP1 SWAP3 ADD SWAP2 PUSH1 0x20 SWAP2 DUP3 ADD SWAP2 ADD PUSH2 0x3BF0 JUMP JUMPDEST PUSH2 0x2DC6 DUP2 PUSH1 0x2 PUSH1 0x0 PUSH1 0x40 MLOAD PUSH1 0x20 ADD DUP1 DUP1 PUSH1 0x0 DUP1 MLOAD PUSH1 0x20 PUSH2 0x4D52 DUP4 CODECOPY DUP2 MLOAD SWAP2 MSTORE DUP2 MSTORE POP PUSH1 0x10 ADD SWAP1 POP PUSH1 0x40 MLOAD PUSH1 0x20 DUP2 DUP4 SUB SUB DUP2 MSTORE SWAP1 PUSH1 0x40 MSTORE PUSH1 0x40 MLOAD DUP1 DUP3 DUP1 MLOAD SWAP1 PUSH1 0x20 ADD SWAP1 DUP1 DUP4 DUP4 PUSH1 0x20 DUP4 LT PUSH2 0x3C0F JUMPI DUP1 MLOAD DUP3 MSTORE PUSH1 0x1F NOT SWAP1 SWAP3 ADD SWAP2 PUSH1 0x20 SWAP2 DUP3 ADD SWAP2 ADD PUSH2 0x3BF0 JUMP JUMPDEST PUSH1 0xA PUSH1 0x0 PUSH1 0x40 MLOAD PUSH1 0x20 ADD DUP1 DUP1 PUSH1 0x0 DUP1 MLOAD PUSH1 0x20 PUSH2 0x4C92 DUP4 CODECOPY DUP2 MLOAD SWAP2 MSTORE DUP2 MSTORE POP PUSH1 0x10 ADD SWAP1 POP PUSH1 0x40 MLOAD PUSH1 0x20 DUP2 DUP4 SUB SUB DUP2 MSTORE SWAP1 PUSH1 0x40 MSTORE PUSH1 0x40 MLOAD DUP1 DUP3 DUP1 MLOAD SWAP1 PUSH1 0x20 ADD SWAP1 DUP1 DUP4 DUP4 PUSH1 0x20 DUP4 LT PUSH2 0x2C60 JUMPI DUP1 MLOAD DUP3 MSTORE PUSH1 0x1F NOT SWAP1 SWAP3 ADD SWAP2 PUSH1 0x20 SWAP2 DUP3 ADD SWAP2 ADD PUSH2 0x2C41 JUMP JUMPDEST PUSH1 0x0 DUP1 DUP1 DUP1 DUP1 JUMPDEST PUSH2 0x3F31 PUSH2 0xAD9 JUMP JUMPDEST DUP4 LT ISZERO PUSH2 0x3F71 JUMPI PUSH2 0x3F41 DUP4 PUSH2 0x1E86 JUMP JUMPDEST PUSH1 0x1 PUSH1 0xA0 PUSH1 0x2 EXP SUB AND DUP7 PUSH1 0x1 PUSH1 0xA0 PUSH1 0x2 EXP SUB AND EQ ISZERO PUSH2 0x3F66 JUMPI DUP3 SWAP4 POP PUSH1 0x1 SWAP5 POP PUSH2 0x3F71 JUMP JUMPDEST PUSH1 0x1 SWAP1 SWAP3 ADD SWAP2 PUSH2 0x3F29 JUMP JUMPDEST DUP5 ISZERO PUSH2 0x1D5D JUMPI PUSH1 0x1 PUSH2 0x3F81 PUSH2 0xAD9 JUMP JUMPDEST SUB SWAP2 POP PUSH2 0x3F8D DUP3 PUSH2 0x1E86 JUMP JUMPDEST SWAP1 POP PUSH1 0x1 PUSH1 0xA0 PUSH1 0x2 EXP SUB DUP2 AND ISZERO PUSH2 0x3FA8 JUMPI PUSH2 0x3FA8 DUP5 DUP3 PUSH2 0x4724 JUMP JUMPDEST PUSH1 0xA PUSH1 0x0 PUSH1 0x40 MLOAD PUSH1 0x20 ADD DUP1 DUP1 PUSH1 0x0 DUP1 MLOAD PUSH1 0x20 PUSH2 0x4C92 DUP4 CODECOPY DUP2 MLOAD SWAP2 MSTORE DUP2 MSTORE POP PUSH1 0x10 ADD SWAP1 POP PUSH1 0x40 MLOAD PUSH1 0x20 DUP2 DUP4 SUB SUB DUP2 MSTORE SWAP1 PUSH1 0x40 MSTORE PUSH1 0x40 MLOAD DUP1 DUP3 DUP1 MLOAD SWAP1 PUSH1 0x20 ADD SWAP1 DUP1 DUP4 DUP4 JUMPDEST PUSH1 0x20 DUP4 LT PUSH2 0x4009 JUMPI DUP1 MLOAD DUP3 MSTORE PUSH1 0x1F NOT SWAP1 SWAP3 ADD SWAP2 PUSH1 0x20 SWAP2 DUP3 ADD SWAP2 ADD PUSH2 0x3FEA JUMP JUMPDEST MLOAD DUP2 MLOAD PUSH1 0x20 SWAP4 DUP5 SUB PUSH2 0x100 EXP PUSH1 0x0 NOT ADD DUP1 NOT SWAP1 SWAP3 AND SWAP2 AND OR SWAP1 MSTORE PUSH1 0x40 DUP1 MLOAD SWAP3 SWAP1 SWAP5 ADD DUP3 SWAP1 SUB SWAP1 SWAP2 KECCAK256 DUP7 MSTORE DUP6 ADD SWAP6 SWAP1 SWAP6 MSTORE SWAP3 SWAP1 SWAP3 ADD PUSH1 0x0 KECCAK256 DUP1 SLOAD SWAP1 SWAP4 POP DUP6 SWAP3 POP DUP3 LT SWAP1 POP PUSH2 0x4052 JUMPI INVALID JUMPDEST PUSH1 0x0 SWAP2 DUP3 MSTORE PUSH1 0x20 DUP1 DUP4 KECCAK256 SWAP1 SWAP2 ADD DUP1 SLOAD PUSH1 0x1 PUSH1 0xA0 PUSH1 0x2 EXP SUB NOT AND SWAP1 SSTORE PUSH1 0x40 DUP1 MLOAD PUSH1 0x0 DUP1 MLOAD PUSH1 0x20 PUSH2 0x4C92 DUP4 CODECOPY DUP2 MLOAD SWAP2 MSTORE DUP2 DUP5 ADD MSTORE DUP2 MLOAD DUP1 DUP3 SUB PUSH1 0x10 ADD DUP2 MSTORE PUSH1 0x30 SWAP1 SWAP2 ADD SWAP2 DUP3 SWAP1 MSTORE DUP1 MLOAD PUSH1 0xA SWAP5 SWAP4 SWAP2 SWAP3 SWAP2 DUP3 SWAP2 SWAP1 DUP5 ADD SWAP1 DUP1 DUP4 DUP4 PUSH1 0x20 DUP4 LT PUSH2 0x3B31 JUMPI DUP1 MLOAD DUP3 MSTORE PUSH1 0x1F NOT SWAP1 SWAP3 ADD SWAP2 PUSH1 0x20 SWAP2 DUP3 ADD SWAP2 ADD PUSH2 0x3B12 JUMP JUMPDEST DUP1 PUSH1 0x2 PUSH1 0x0 PUSH1 0x40 MLOAD PUSH1 0x20 ADD DUP1 DUP1 PUSH1 0x0 DUP1 MLOAD PUSH1 0x20 PUSH2 0x4D52 DUP4 CODECOPY DUP2 MLOAD SWAP2 MSTORE DUP2 MSTORE POP PUSH1 0x10 ADD SWAP1 POP PUSH1 0x40 MLOAD PUSH1 0x20 DUP2 DUP4 SUB SUB DUP2 MSTORE SWAP1 PUSH1 0x40 MSTORE PUSH1 0x40 MLOAD DUP1 DUP3 DUP1 MLOAD SWAP1 PUSH1 0x20 ADD SWAP1 DUP1 DUP4 DUP4 PUSH1 0x20 DUP4 LT PUSH2 0x2E27 JUMPI DUP1 MLOAD DUP3 MSTORE PUSH1 0x1F NOT SWAP1 SWAP3 ADD SWAP2 PUSH1 0x20 SWAP2 DUP3 ADD SWAP2 ADD PUSH2 0x2E08 JUMP JUMPDEST PUSH2 0x4132 DUP2 PUSH2 0x398A JUMP JUMPDEST PUSH2 0x413B DUP2 PUSH2 0x3EC2 JUMP JUMPDEST PUSH2 0x4144 DUP2 PUSH2 0x4785 JUMP JUMPDEST PUSH2 0x12AC DUP2 PUSH2 0x49C8 JUMP JUMPDEST PUSH1 0x2 PUSH1 0x0 DUP3 PUSH1 0x40 MLOAD PUSH1 0x20 ADD DUP1 DUP1 PUSH1 0x0 DUP1 MLOAD PUSH1 0x20 PUSH2 0x4D12 DUP4 CODECOPY DUP2 MLOAD SWAP2 MSTORE DUP2 MSTORE POP PUSH1 0xB ADD DUP3 PUSH1 0x1 PUSH1 0xA0 PUSH1 0x2 EXP SUB AND PUSH1 0x1 PUSH1 0xA0 PUSH1 0x2 EXP SUB AND PUSH1 0x60 PUSH1 0x2 EXP MUL DUP2 MSTORE PUSH1 0x14 ADD SWAP2 POP POP PUSH1 0x40 MLOAD PUSH1 0x20 DUP2 DUP4 SUB SUB DUP2 MSTORE SWAP1 PUSH1 0x40 MSTORE PUSH1 0x40 MLOAD DUP1 DUP3 DUP1 MLOAD SWAP1 PUSH1 0x20 ADD SWAP1 DUP1 DUP4 DUP4 JUMPDEST PUSH1 0x20 DUP4 LT PUSH2 0x41CE JUMPI DUP1 MLOAD DUP3 MSTORE PUSH1 0x1F NOT SWAP1 SWAP3 ADD SWAP2 PUSH1 0x20 SWAP2 DUP3 ADD SWAP2 ADD PUSH2 0x41AF JUMP JUMPDEST MLOAD DUP2 MLOAD PUSH1 0x20 SWAP4 DUP5 SUB PUSH2 0x100 EXP PUSH1 0x0 NOT ADD DUP1 NOT SWAP1 SWAP3 AND SWAP2 AND OR SWAP1 MSTORE PUSH1 0x40 DUP1 MLOAD SWAP3 SWAP1 SWAP5 ADD DUP3 SWAP1 SUB SWAP1 SWAP2 KECCAK256 DUP7 MSTORE DUP6 DUP2 ADD SWAP7 SWAP1 SWAP7 MSTORE POP SWAP3 DUP4 ADD PUSH1 0x0 SWAP1 DUP2 KECCAK256 SLOAD DUP5 MLOAD PUSH1 0x0 DUP1 MLOAD PUSH1 0x20 PUSH2 0x4D12 DUP4 CODECOPY DUP2 MLOAD SWAP2 MSTORE DUP2 DUP9 ADD MSTORE PUSH1 0x1 PUSH1 0xA0 PUSH1 0x2 EXP SUB DUP9 AND PUSH1 0x60 PUSH1 0x2 EXP MUL PUSH1 0x2B DUP3 ADD MSTORE DUP6 MLOAD DUP1 DUP3 SUB PUSH1 0x1F ADD DUP2 MSTORE PUSH1 0x3F SWAP1 SWAP2 ADD SWAP6 DUP7 SWAP1 MSTORE DUP1 MLOAD PUSH1 0x1 SWAP1 SWAP3 ADD SWAP7 PUSH1 0x2 SWAP7 SWAP4 SWAP6 POP SWAP1 SWAP4 POP DUP3 SWAP2 SWAP1 DUP5 ADD SWAP1 DUP1 DUP4 DUP4 JUMPDEST PUSH1 0x20 DUP4 LT PUSH2 0x4280 JUMPI DUP1 MLOAD DUP3 MSTORE PUSH1 0x1F NOT SWAP1 SWAP3 ADD SWAP2 PUSH1 0x20 SWAP2 DUP3 ADD SWAP2 ADD PUSH2 0x4261 JUMP JUMPDEST MLOAD DUP2 MLOAD PUSH1 0x20 SWAP4 DUP5 SUB PUSH2 0x100 EXP PUSH1 0x0 NOT ADD DUP1 NOT SWAP1 SWAP3 AND SWAP2 AND OR SWAP1 MSTORE PUSH1 0x40 DUP1 MLOAD SWAP3 SWAP1 SWAP5 ADD DUP3 SWAP1 SUB SWAP1 SWAP2 KECCAK256 DUP7 MSTORE DUP6 DUP2 ADD SWAP7 SWAP1 SWAP7 MSTORE POP SWAP3 DUP4 ADD PUSH1 0x0 SWAP1 DUP2 KECCAK256 SWAP6 SWAP1 SWAP6 SSTORE POP POP DUP1 MLOAD PUSH1 0x0 DUP1 MLOAD PUSH1 0x20 PUSH2 0x4D12 DUP4 CODECOPY DUP2 MLOAD SWAP2 MSTORE DUP2 DUP5 ADD MSTORE PUSH1 0x1 PUSH1 0xA0 PUSH1 0x2 EXP SUB DUP6 AND PUSH1 0x60 PUSH1 0x2 EXP MUL PUSH1 0x2B DUP3 ADD MSTORE DUP2 MLOAD DUP1 DUP3 SUB PUSH1 0x1F ADD DUP2 MSTORE PUSH1 0x3F SWAP1 SWAP2 ADD SWAP2 DUP3 SWAP1 MSTORE DUP1 MLOAD PUSH1 0x32 SWAP5 PUSH1 0x2 SWAP5 SWAP1 SWAP4 SWAP2 DUP3 SWAP2 DUP5 ADD SWAP1 DUP1 DUP4 DUP4 JUMPDEST PUSH1 0x20 DUP4 LT PUSH2 0x4330 JUMPI DUP1 MLOAD DUP3 MSTORE PUSH1 0x1F NOT SWAP1 SWAP3 ADD SWAP2 PUSH1 0x20 SWAP2 DUP3 ADD SWAP2 ADD PUSH2 0x4311 JUMP JUMPDEST PUSH1 0x1 DUP4 PUSH1 0x20 SUB PUSH2 0x100 EXP SUB DUP1 NOT DUP3 MLOAD AND DUP2 DUP5 MLOAD AND DUP1 DUP3 OR DUP6 MSTORE POP POP POP POP POP POP SWAP1 POP ADD SWAP2 POP POP PUSH1 0x40 MLOAD DUP1 SWAP2 SUB SWAP1 KECCAK256 PUSH1 0x0 NOT AND PUSH1 0x0 NOT AND DUP2 MSTORE PUSH1 0x20 ADD SWAP1 DUP2 MSTORE PUSH1 0x20 ADD PUSH1 0x0 KECCAK256 SLOAD GT ISZERO PUSH2 0x12AC JUMPI PUSH2 0x4383 DUP2 PUSH2 0x49C8 JUMP JUMPDEST PUSH2 0x12AC DUP2 PUSH2 0x4A4A JUMP JUMPDEST PUSH1 0x0 PUSH1 0x2 PUSH1 0x0 DUP4 PUSH1 0x40 MLOAD PUSH1 0x20 ADD DUP1 DUP1 PUSH1 0x0 DUP1 MLOAD PUSH1 0x20 PUSH2 0x4CD2 DUP4 CODECOPY DUP2 MLOAD SWAP2 MSTORE DUP2 MSTORE POP PUSH1 0xC ADD DUP3 PUSH1 0x1 PUSH1 0xA0 PUSH1 0x2 EXP SUB AND PUSH1 0x1 PUSH1 0xA0 PUSH1 0x2 EXP SUB AND PUSH1 0x60 PUSH1 0x2 EXP MUL DUP2 MSTORE PUSH1 0x14 ADD SWAP2 POP POP PUSH1 0x40 MLOAD PUSH1 0x20 DUP2 DUP4 SUB SUB DUP2 MSTORE SWAP1 PUSH1 0x40 MSTORE PUSH1 0x40 MLOAD DUP1 DUP3 DUP1 MLOAD SWAP1 PUSH1 0x20 ADD SWAP1 DUP1 DUP4 DUP4 PUSH1 0x20 DUP4 LT PUSH2 0x2E27 JUMPI DUP1 MLOAD DUP3 MSTORE PUSH1 0x1F NOT SWAP1 SWAP3 ADD SWAP2 PUSH1 0x20 SWAP2 DUP3 ADD SWAP2 ADD PUSH2 0x2E08 JUMP JUMPDEST DUP1 PUSH1 0xA PUSH1 0x0 PUSH1 0x40 MLOAD PUSH1 0x20 ADD DUP1 DUP1 PUSH1 0x0 DUP1 MLOAD PUSH1 0x20 PUSH2 0x4CF2 DUP4 CODECOPY DUP2 MLOAD SWAP2 MSTORE DUP2 MSTORE POP PUSH1 0x11 ADD SWAP1 POP PUSH1 0x40 MLOAD PUSH1 0x20 DUP2 DUP4 SUB SUB DUP2 MSTORE SWAP1 PUSH1 0x40 MSTORE PUSH1 0x40 MLOAD DUP1 DUP3 DUP1 MLOAD SWAP1 PUSH1 0x20 ADD SWAP1 DUP1 DUP4 DUP4 JUMPDEST PUSH1 0x20 DUP4 LT PUSH2 0x4470 JUMPI DUP1 MLOAD DUP3 MSTORE PUSH1 0x1F NOT SWAP1 SWAP3 ADD SWAP2 PUSH1 0x20 SWAP2 DUP3 ADD SWAP2 ADD PUSH2 0x4451 JUMP JUMPDEST MLOAD DUP2 MLOAD PUSH1 0x20 SWAP4 DUP5 SUB PUSH2 0x100 EXP PUSH1 0x0 NOT ADD DUP1 NOT SWAP1 SWAP3 AND SWAP2 AND OR SWAP1 MSTORE PUSH1 0x40 DUP1 MLOAD SWAP3 SWAP1 SWAP5 ADD DUP3 SWAP1 SUB SWAP1 SWAP2 KECCAK256 DUP7 MSTORE DUP6 ADD SWAP6 SWAP1 SWAP6 MSTORE SWAP3 SWAP1 SWAP3 ADD PUSH1 0x0 KECCAK256 DUP1 SLOAD SWAP1 SWAP4 POP DUP7 SWAP3 POP DUP3 LT SWAP1 POP PUSH2 0x44B9 JUMPI INVALID JUMPDEST SWAP1 PUSH1 0x0 MSTORE PUSH1 0x20 PUSH1 0x0 KECCAK256 ADD PUSH1 0x0 PUSH2 0x100 EXP DUP2 SLOAD DUP2 PUSH1 0x1 PUSH1 0xA0 PUSH1 0x2 EXP SUB MUL NOT AND SWAP1 DUP4 PUSH1 0x1 PUSH1 0xA0 PUSH1 0x2 EXP SUB AND MUL OR SWAP1 SSTORE POP POP POP JUMP JUMPDEST PUSH1 0x0 DUP1 DUP1 DUP1 DUP1 JUMPDEST PUSH2 0x44FB DUP7 PUSH2 0x2514 JUMP JUMPDEST DUP4 LT ISZERO PUSH2 0x453C JUMPI PUSH2 0x450C DUP7 DUP5 PUSH2 0x2596 JUMP JUMPDEST PUSH1 0x1 PUSH1 0xA0 PUSH1 0x2 EXP SUB AND DUP8 PUSH1 0x1 PUSH1 0xA0 PUSH1 0x2 EXP SUB AND EQ ISZERO PUSH2 0x4531 JUMPI DUP3 SWAP4 POP PUSH1 0x1 SWAP5 POP PUSH2 0x453C JUMP JUMPDEST PUSH1 0x1 SWAP1 SWAP3 ADD SWAP2 PUSH2 0x44F2 JUMP JUMPDEST DUP5 ISZERO PUSH2 0x3B7F JUMPI PUSH1 0x1 PUSH2 0x454D DUP8 PUSH2 0x2514 JUMP JUMPDEST SUB SWAP2 POP PUSH2 0x455A DUP7 DUP4 PUSH2 0x2596 JUMP JUMPDEST SWAP1 POP PUSH1 0x1 PUSH1 0xA0 PUSH1 0x2 EXP SUB DUP2 AND ISZERO PUSH2 0x4576 JUMPI PUSH2 0x4576 DUP7 DUP6 DUP4 PUSH2 0x4ACC JUMP JUMPDEST PUSH1 0xA PUSH1 0x0 DUP8 PUSH1 0x40 MLOAD PUSH1 0x20 ADD DUP1 DUP1 PUSH1 0x0 DUP1 MLOAD PUSH1 0x20 PUSH2 0x4CB2 DUP4 CODECOPY DUP2 MLOAD SWAP2 MSTORE DUP2 MSTORE POP PUSH1 0xA ADD DUP3 PUSH1 0x1 PUSH1 0xA0 PUSH1 0x2 EXP SUB AND PUSH1 0x1 PUSH1 0xA0 PUSH1 0x2 EXP SUB AND PUSH1 0x60 PUSH1 0x2 EXP MUL DUP2 MSTORE PUSH1 0x14 ADD SWAP2 POP POP PUSH1 0x40 MLOAD PUSH1 0x20 DUP2 DUP4 SUB SUB DUP2 MSTORE SWAP1 PUSH1 0x40 MSTORE PUSH1 0x40 MLOAD DUP1 DUP3 DUP1 MLOAD SWAP1 PUSH1 0x20 ADD SWAP1 DUP1 DUP4 DUP4 JUMPDEST PUSH1 0x20 DUP4 LT PUSH2 0x45F7 JUMPI DUP1 MLOAD DUP3 MSTORE PUSH1 0x1F NOT SWAP1 SWAP3 ADD SWAP2 PUSH1 0x20 SWAP2 DUP3 ADD SWAP2 ADD PUSH2 0x45D8 JUMP JUMPDEST MLOAD DUP2 MLOAD PUSH1 0x20 SWAP4 DUP5 SUB PUSH2 0x100 EXP PUSH1 0x0 NOT ADD DUP1 NOT SWAP1 SWAP3 AND SWAP2 AND OR SWAP1 MSTORE PUSH1 0x40 DUP1 MLOAD SWAP3 SWAP1 SWAP5 ADD DUP3 SWAP1 SUB SWAP1 SWAP2 KECCAK256 DUP7 MSTORE DUP6 ADD SWAP6 SWAP1 SWAP6 MSTORE SWAP3 SWAP1 SWAP3 ADD PUSH1 0x0 KECCAK256 DUP1 SLOAD SWAP1 SWAP4 POP DUP6 SWAP3 POP DUP3 LT SWAP1 POP PUSH2 0x4640 JUMPI INVALID JUMPDEST PUSH1 0x0 SWAP2 DUP3 MSTORE PUSH1 0x20 DUP1 DUP4 KECCAK256 SWAP1 SWAP2 ADD DUP1 SLOAD PUSH1 0x1 PUSH1 0xA0 PUSH1 0x2 EXP SUB NOT AND SWAP1 SSTORE PUSH1 0x40 DUP1 MLOAD PUSH1 0x0 DUP1 MLOAD PUSH1 0x20 PUSH2 0x4CB2 DUP4 CODECOPY DUP2 MLOAD SWAP2 MSTORE DUP2 DUP5 ADD MSTORE PUSH1 0x60 PUSH1 0x2 EXP PUSH1 0x1 PUSH1 0xA0 PUSH1 0x2 EXP SUB DUP12 AND MUL PUSH1 0x2A DUP3 ADD MSTORE DUP2 MLOAD PUSH1 0x1E DUP2 DUP4 SUB ADD DUP2 MSTORE PUSH1 0x3E SWAP1 SWAP2 ADD SWAP2 DUP3 SWAP1 MSTORE DUP1 MLOAD PUSH1 0xA SWAP5 SWAP4 SWAP2 SWAP3 SWAP2 DUP3 SWAP2 SWAP1 DUP5 ADD SWAP1 DUP1 DUP4 DUP4 JUMPDEST PUSH1 0x20 DUP4 LT PUSH2 0x46CC JUMPI DUP1 MLOAD DUP3 MSTORE PUSH1 0x1F NOT SWAP1 SWAP3 ADD SWAP2 PUSH1 0x20 SWAP2 DUP3 ADD SWAP2 ADD PUSH2 0x46AD JUMP JUMPDEST MLOAD DUP2 MLOAD PUSH1 0x0 NOT PUSH1 0x20 SWAP5 DUP6 SUB PUSH2 0x100 EXP DUP2 ADD SWAP2 DUP3 AND SWAP2 NOT SWAP3 SWAP1 SWAP3 AND OR SWAP1 SWAP2 MSTORE PUSH1 0x40 DUP1 MLOAD SWAP6 SWAP1 SWAP4 ADD DUP6 SWAP1 SUB SWAP1 SWAP5 KECCAK256 DUP8 MSTORE DUP7 ADD SWAP7 SWAP1 SWAP7 MSTORE POP SWAP3 SWAP1 SWAP4 ADD PUSH1 0x0 KECCAK256 DUP1 SLOAD SWAP4 POP PUSH2 0x471A SWAP3 SWAP1 SWAP2 POP DUP4 ADD PUSH2 0x4C2F JUMP JUMPDEST POP POP POP POP POP POP POP POP JUMP JUMPDEST DUP1 PUSH1 0xA PUSH1 0x0 PUSH1 0x40 MLOAD PUSH1 0x20 ADD DUP1 DUP1 PUSH1 0x0 DUP1 MLOAD PUSH1 0x20 PUSH2 0x4C92 DUP4 CODECOPY DUP2 MLOAD SWAP2 MSTORE DUP2 MSTORE POP PUSH1 0x10 ADD SWAP1 POP PUSH1 0x40 MLOAD PUSH1 0x20 DUP2 DUP4 SUB SUB DUP2 MSTORE SWAP1 PUSH1 0x40 MSTORE PUSH1 0x40 MLOAD DUP1 DUP3 DUP1 MLOAD SWAP1 PUSH1 0x20 ADD SWAP1 DUP1 DUP4 DUP4 PUSH1 0x20 DUP4 LT PUSH2 0x4470 JUMPI DUP1 MLOAD DUP3 MSTORE PUSH1 0x1F NOT SWAP1 SWAP3 ADD SWAP2 PUSH1 0x20 SWAP2 DUP3 ADD SWAP2 ADD PUSH2 0x4451 JUMP JUMPDEST PUSH1 0x0 PUSH1 0x2 PUSH1 0x0 DUP4 PUSH1 0x40 MLOAD PUSH1 0x20 ADD DUP1 DUP1 PUSH1 0x0 DUP1 MLOAD PUSH1 0x20 PUSH2 0x4DB2 DUP4 CODECOPY DUP2 MLOAD SWAP2 MSTORE DUP2 MSTORE POP PUSH1 0xB ADD DUP3 PUSH1 0x1 PUSH1 0xA0 PUSH1 0x2 EXP SUB AND PUSH1 0x1 PUSH1 0xA0 PUSH1 0x2 EXP SUB AND PUSH1 0x60 PUSH1 0x2 EXP MUL DUP2 MSTORE PUSH1 0x14 ADD SWAP2 POP POP PUSH1 0x40 MLOAD PUSH1 0x20 DUP2 DUP4 SUB SUB DUP2 MSTORE SWAP1 PUSH1 0x40 MSTORE PUSH1 0x40 MLOAD DUP1 DUP3 DUP1 MLOAD SWAP1 PUSH1 0x20 ADD SWAP1 DUP1 DUP4 DUP4 JUMPDEST PUSH1 0x20 DUP4 LT PUSH2 0x4808 JUMPI DUP1 MLOAD DUP3 MSTORE PUSH1 0x1F NOT SWAP1 SWAP3 ADD SWAP2 PUSH1 0x20 SWAP2 DUP3 ADD SWAP2 ADD PUSH2 0x47E9 JUMP JUMPDEST PUSH1 0x1 DUP4 PUSH1 0x20 SUB PUSH2 0x100 EXP SUB DUP1 NOT DUP3 MLOAD AND DUP2 DUP5 MLOAD AND DUP1 DUP3 OR DUP6 MSTORE POP POP POP POP POP POP SWAP1 POP ADD SWAP2 POP POP PUSH1 0x40 MLOAD DUP1 SWAP2 SUB SWAP1 KECCAK256 PUSH1 0x0 NOT AND PUSH1 0x0 NOT AND DUP2 MSTORE PUSH1 0x20 ADD SWAP1 DUP2 MSTORE PUSH1 0x20 ADD PUSH1 0x0 KECCAK256 SLOAD SWAP1 POP PUSH2 0x486A PUSH1 0x1 PUSH2 0x2ED7 PUSH2 0x4862 DUP5 PUSH2 0x16C3 PUSH2 0x21D7 JUMP JUMPDEST PUSH2 0x1D7F PUSH2 0x223F JUMP JUMPDEST PUSH1 0x2 PUSH1 0x0 DUP5 PUSH1 0x40 MLOAD PUSH1 0x20 ADD DUP1 DUP1 PUSH32 0x72656C65617365426C6F636B0000000000000000000000000000000000000000 DUP2 MSTORE POP PUSH1 0xC ADD DUP3 PUSH1 0x1 PUSH1 0xA0 PUSH1 0x2 EXP SUB AND PUSH1 0x1 PUSH1 0xA0 PUSH1 0x2 EXP SUB AND PUSH1 0x60 PUSH1 0x2 EXP MUL DUP2 MSTORE PUSH1 0x14 ADD SWAP2 POP POP PUSH1 0x40 MLOAD PUSH1 0x20 DUP2 DUP4 SUB SUB DUP2 MSTORE SWAP1 PUSH1 0x40 MSTORE PUSH1 0x40 MLOAD DUP1 DUP3 DUP1 MLOAD SWAP1 PUSH1 0x20 ADD SWAP1 DUP1 DUP4 DUP4 JUMPDEST PUSH1 0x20 DUP4 LT PUSH2 0x48FD JUMPI DUP1 MLOAD DUP3 MSTORE PUSH1 0x1F NOT SWAP1 SWAP3 ADD SWAP2 PUSH1 0x20 SWAP2 DUP3 ADD SWAP2 ADD PUSH2 0x48DE JUMP JUMPDEST MLOAD DUP2 MLOAD PUSH1 0x20 SWAP4 DUP5 SUB PUSH2 0x100 EXP PUSH1 0x0 NOT ADD DUP1 NOT SWAP1 SWAP3 AND SWAP2 AND OR SWAP1 MSTORE PUSH1 0x40 DUP1 MLOAD SWAP3 SWAP1 SWAP5 ADD DUP3 SWAP1 SUB SWAP1 SWAP2 KECCAK256 DUP7 MSTORE DUP6 ADD SWAP6 SWAP1 SWAP6 MSTORE SWAP3 SWAP1 SWAP3 ADD PUSH1 0x0 KECCAK256 SWAP4 SWAP1 SWAP4 SSTORE POP POP PUSH1 0x5 DUP3 GT SWAP1 POP PUSH2 0x1D62 JUMPI DUP1 PUSH1 0x1 ADD PUSH1 0x2 PUSH1 0x0 DUP5 PUSH1 0x40 MLOAD PUSH1 0x20 ADD DUP1 DUP1 PUSH1 0x0 DUP1 MLOAD PUSH1 0x20 PUSH2 0x4DB2 DUP4 CODECOPY DUP2 MLOAD SWAP2 MSTORE DUP2 MSTORE POP PUSH1 0xB ADD DUP3 PUSH1 0x1 PUSH1 0xA0 PUSH1 0x2 EXP SUB AND PUSH1 0x1 PUSH1 0xA0 PUSH1 0x2 EXP SUB AND PUSH1 0x60 PUSH1 0x2 EXP MUL DUP2 MSTORE PUSH1 0x14 ADD SWAP2 POP POP PUSH1 0x40 MLOAD PUSH1 0x20 DUP2 DUP4 SUB SUB DUP2 MSTORE SWAP1 PUSH1 0x40 MSTORE PUSH1 0x40 MLOAD DUP1 DUP3 DUP1 MLOAD SWAP1 PUSH1 0x20 ADD SWAP1 DUP1 DUP4 DUP4 PUSH1 0x20 DUP4 LT PUSH2 0x2BAA JUMPI DUP1 MLOAD DUP3 MSTORE PUSH1 0x1F NOT SWAP1 SWAP3 ADD SWAP2 PUSH1 0x20 SWAP2 DUP3 ADD SWAP2 ADD PUSH2 0x2B8B JUMP JUMPDEST PUSH1 0x0 PUSH1 0x2 PUSH1 0x0 DUP4 PUSH1 0x40 MLOAD PUSH1 0x20 ADD DUP1 DUP1 PUSH1 0x0 DUP1 MLOAD PUSH1 0x20 PUSH2 0x4D12 DUP4 CODECOPY DUP2 MLOAD SWAP2 MSTORE DUP2 MSTORE POP PUSH1 0xB ADD DUP3 PUSH1 0x1 PUSH1 0xA0 PUSH1 0x2 EXP SUB AND PUSH1 0x1 PUSH1 0xA0 PUSH1 0x2 EXP SUB AND PUSH1 0x60 PUSH1 0x2 EXP MUL DUP2 MSTORE PUSH1 0x14 ADD SWAP2 POP POP PUSH1 0x40 MLOAD PUSH1 0x20 DUP2 DUP4 SUB SUB DUP2 MSTORE SWAP1 PUSH1 0x40 MSTORE PUSH1 0x40 MLOAD DUP1 DUP3 DUP1 MLOAD SWAP1 PUSH1 0x20 ADD SWAP1 DUP1 DUP4 DUP4 PUSH1 0x20 DUP4 LT PUSH2 0x2E27 JUMPI DUP1 MLOAD DUP3 MSTORE PUSH1 0x1F NOT SWAP1 SWAP3 ADD SWAP2 PUSH1 0x20 SWAP2 DUP3 ADD SWAP2 ADD PUSH2 0x2E08 JUMP JUMPDEST PUSH1 0x0 PUSH1 0x2 PUSH1 0x0 DUP4 PUSH1 0x40 MLOAD PUSH1 0x20 ADD DUP1 DUP1 PUSH1 0x0 DUP1 MLOAD PUSH1 0x20 PUSH2 0x4DB2 DUP4 CODECOPY DUP2 MLOAD SWAP2 MSTORE DUP2 MSTORE POP PUSH1 0xB ADD DUP3 PUSH1 0x1 PUSH1 0xA0 PUSH1 0x2 EXP SUB AND PUSH1 0x1 PUSH1 0xA0 PUSH1 0x2 EXP SUB AND PUSH1 0x60 PUSH1 0x2 EXP MUL DUP2 MSTORE PUSH1 0x14 ADD SWAP2 POP POP PUSH1 0x40 MLOAD PUSH1 0x20 DUP2 DUP4 SUB SUB DUP2 MSTORE SWAP1 PUSH1 0x40 MSTORE PUSH1 0x40 MLOAD DUP1 DUP3 DUP1 MLOAD SWAP1 PUSH1 0x20 ADD SWAP1 DUP1 DUP4 DUP4 PUSH1 0x20 DUP4 LT PUSH2 0x2E27 JUMPI DUP1 MLOAD DUP3 MSTORE PUSH1 0x1F NOT SWAP1 SWAP3 ADD SWAP2 PUSH1 0x20 SWAP2 DUP3 ADD SWAP2 ADD PUSH2 0x2E08 JUMP JUMPDEST DUP1 PUSH1 0xA PUSH1 0x0 DUP6 PUSH1 0x40 MLOAD PUSH1 0x20 ADD DUP1 DUP1 PUSH1 0x0 DUP1 MLOAD PUSH1 0x20 PUSH2 0x4CB2 DUP4 CODECOPY DUP2 MLOAD SWAP2 MSTORE DUP2 MSTORE POP PUSH1 0xA ADD DUP3 PUSH1 0x1 PUSH1 0xA0 PUSH1 0x2 EXP SUB AND PUSH1 0x1 PUSH1 0xA0 PUSH1 0x2 EXP SUB AND PUSH1 0x60 PUSH1 0x2 EXP MUL DUP2 MSTORE PUSH1 0x14 ADD SWAP2 POP POP PUSH1 0x40 MLOAD PUSH1 0x20 DUP2 DUP4 SUB SUB DUP2 MSTORE SWAP1 PUSH1 0x40 MSTORE PUSH1 0x40 MLOAD DUP1 DUP3 DUP1 MLOAD SWAP1 PUSH1 0x20 ADD SWAP1 DUP1 DUP4 DUP4 JUMPDEST PUSH1 0x20 DUP4 LT PUSH2 0x4B4E JUMPI DUP1 MLOAD DUP3 MSTORE PUSH1 0x1F NOT SWAP1 SWAP3 ADD SWAP2 PUSH1 0x20 SWAP2 DUP3 ADD SWAP2 ADD PUSH2 0x4B2F JUMP JUMPDEST MLOAD DUP2 MLOAD PUSH1 0x20 SWAP4 DUP5 SUB PUSH2 0x100 EXP PUSH1 0x0 NOT ADD DUP1 NOT SWAP1 SWAP3 AND SWAP2 AND OR SWAP1 MSTORE PUSH1 0x40 DUP1 MLOAD SWAP3 SWAP1 SWAP5 ADD DUP3 SWAP1 SUB SWAP1 SWAP2 KECCAK256 DUP7 MSTORE DUP6 ADD SWAP6 SWAP1 SWAP6 MSTORE SWAP3 SWAP1 SWAP3 ADD PUSH1 0x0 KECCAK256 DUP1 SLOAD SWAP1 SWAP4 POP DUP7 SWAP3 POP DUP3 LT SWAP1 POP PUSH2 0x4B97 JUMPI INVALID JUMPDEST SWAP1 PUSH1 0x0 MSTORE PUSH1 0x20 PUSH1 0x0 KECCAK256 ADD PUSH1 0x0 PUSH2 0x100 EXP DUP2 SLOAD DUP2 PUSH1 0x1 PUSH1 0xA0 PUSH1 0x2 EXP SUB MUL NOT AND SWAP1 DUP4 PUSH1 0x1 PUSH1 0xA0 PUSH1 0x2 EXP SUB AND MUL OR SWAP1 SSTORE POP POP POP POP JUMP JUMPDEST DUP3 DUP1 SLOAD DUP3 DUP3 SSTORE SWAP1 PUSH1 0x0 MSTORE PUSH1 0x20 PUSH1 0x0 KECCAK256 SWAP1 DUP2 ADD SWAP3 DUP3 ISZERO PUSH2 0x4C1F JUMPI SWAP2 PUSH1 0x20 MUL DUP3 ADD JUMPDEST DUP3 DUP2 GT ISZERO PUSH2 0x4C1F JUMPI DUP3 MLOAD DUP3 SLOAD PUSH1 0x1 PUSH1 0xA0 PUSH1 0x2 EXP SUB NOT AND PUSH1 0x1 PUSH1 0xA0 PUSH1 0x2 EXP SUB SWAP1 SWAP2 AND OR DUP3 SSTORE PUSH1 0x20 SWAP1 SWAP3 ADD SWAP2 PUSH1 0x1 SWAP1 SWAP2 ADD SWAP1 PUSH2 0x4BEA JUMP JUMPDEST POP PUSH2 0x4C2B SWAP3 SWAP2 POP PUSH2 0x4C53 JUMP JUMPDEST POP SWAP1 JUMP JUMPDEST DUP2 SLOAD DUP2 DUP4 SSTORE DUP2 DUP2 GT ISZERO PUSH2 0xAD4 JUMPI PUSH1 0x0 DUP4 DUP2 MSTORE PUSH1 0x20 SWAP1 KECCAK256 PUSH2 0xAD4 SWAP2 DUP2 ADD SWAP1 DUP4 ADD PUSH2 0x4C77 JUMP JUMPDEST PUSH2 0xB7A SWAP2 SWAP1 JUMPDEST DUP1 DUP3 GT ISZERO PUSH2 0x4C2B JUMPI DUP1 SLOAD PUSH1 0x1 PUSH1 0xA0 PUSH1 0x2 EXP SUB NOT AND DUP2 SSTORE PUSH1 0x1 ADD PUSH2 0x4C59 JUMP JUMPDEST PUSH2 0xB7A SWAP2 SWAP1 JUMPDEST DUP1 DUP3 GT ISZERO PUSH2 0x4C2B JUMPI PUSH1 0x0 DUP2 SSTORE PUSH1 0x1 ADD PUSH2 0x4C7D JUMP STOP PUSH11 0x61696C656456616C696461 PUSH21 0x6F7273000000000000000000000000000000006465 PUSH13 0x656761746F7273000000000000 STOP STOP STOP STOP STOP STOP STOP STOP STOP STOP STOP STOP STOP STOP STOP STOP PUSH3 0x6C6F63 PUSH12 0x436F756E7465720000000000 STOP STOP STOP STOP STOP STOP STOP STOP STOP STOP STOP STOP STOP STOP STOP PUSH17 0x656E64696E6756616C696461746F727300 STOP STOP STOP STOP STOP STOP STOP STOP STOP STOP STOP STOP STOP STOP PUSH20 0x7472696B65526573657400000000000000000000 STOP STOP STOP STOP STOP STOP STOP STOP STOP STOP STOP PUSH20 0x74616B65416D6F756E7400000000000000000000 STOP STOP STOP STOP STOP STOP STOP STOP STOP STOP STOP PUSH21 0x6F74616C5374616B65416D6F756E74000000000000 STOP STOP STOP STOP STOP STOP STOP STOP STOP STOP PUSH4 0x75727265 PUSH15 0x7456616C696461746F727300000000 STOP STOP STOP STOP STOP STOP STOP STOP STOP STOP STOP PUSH5 0x656C656761 PUSH21 0x6564416D6F756E7400000000000000000000000000 STOP STOP STOP STOP PUSH20 0x7472696B65436F756E7400000000000000000000 STOP STOP STOP STOP STOP STOP STOP STOP STOP STOP STOP LOG1 PUSH6 0x627A7A723058 KECCAK256 0xb2 0xbe 0xd7 DELEGATECALL 0x2b 0x2e LOG2 PUSH30 0x676E77950578729BCD26A1ED3B7EDCA74FC910F416BCA3B6002900000000 "},"methodIdentifiers":{"CYCLE_DURATION_BLOCKS()":"7e2bf120","DECIMALS()":"2e0f2625","DEFAULT_VALIDATOR_FEE()":"92b391f3","MAX_STAKE()":"c98517c5","MAX_STRIKE_COUNT()":"8615b171","MAX_VALIDATORS()":"714897df","MIN_STAKE()":"cb1c2b5c","STRIKE_RESET()":"6bdf1d5a","VALIDATOR_PRODUCTIVITY_BP()":"72e81e32","blockCounter(address)":"7d8f7a61","currentValidators()":"a2cde609","currentValidatorsAtPosition(uint256)":"57aeefc5","currentValidatorsLength()":"40c9cdeb","cycle(address)":"85cd8464","delegate(address)":"5c19a95c","delegatedAmount(address,address)":"21429e60","delegators(address)":"8d23fc61","delegatorsAtPosition(address,uint256)":"eb431b6a","delegatorsLength(address)":"ddb3f487","emitInitiateChange()":"93b4e25e","finalizeChange()":"75286211","getCurrentCycleEndBlock()":"af295181","getCurrentCycleStartBlock()":"932781d6","getCycleDurationBlocks()":"a6524923","getDelegatorsForRewardDistribution(address,uint256)":"6a28f12f","getMaxStake()":"fe35505b","getMaxValidators()":"76bd510f","getMinStake()":"56a3b5fa","getMinValidatorFee()":"10f606e7","getProxyStorage()":"ec15a5e6","getReleaseBlock(address)":"ee19a7fc","getSnapshotAddresses(uint256)":"1043ca28","getStrikeReset(address)":"d2166ce9","getStrikes(address)":"7b1e52a5","getValidators()":"b7ab4db5","initialize(address)":"c4d66de8","isDelegator(address,address)":"a0e11929","isFinalized()":"8d4e4083","isInitialized()":"392e53cd","isJailed(address)":"14bfb527","isPendingValidator(address)":"fb64aac1","isValidator(address)":"facd743b","jailedValidators()":"651d8c22","jailedValidatorsAtPosition(uint256)":"8da873f8","jailedValidatorsLength()":"08c90076","maintenance()":"6c376cc5","newValidatorSet()":"5ccee1de","newValidatorSetLength()":"2bec36d2","pendingValidators()":"a82f255b","pendingValidatorsAtPosition(uint256)":"0fe9d28e","pendingValidatorsLength()":"2a807f15","requiredSignatures()":"8d068043","setProxyStorage(address)":"10855269","setValidatorFee(uint256)":"55460f81","shouldEmitInitiateChange()":"ef7b6d89","stake()":"3a4b66f1","stakeAmount(address)":"bf135267","totalStakeAmount()":"94409a56","unJail()":"6eae5b11","validatorFee(address)":"9f77dc30","withdraw(address,uint256)":"f3fef3a3","withdraw(uint256)":"2e1a7d4d"}}}}}