{"contracts/Consensus.sol":{"Consensus":{"abi":[{"constant":true,"inputs":[],"name":"jailedValidatorsLength","outputs":[{"name":"","type":"uint256"}],"payable":false,"stateMutability":"view","type":"function"},{"constant":true,"inputs":[{"name":"_p","type":"uint256"}],"name":"pendingValidatorsAtPosition","outputs":[{"name":"","type":"address"}],"payable":false,"stateMutability":"view","type":"function"},{"constant":true,"inputs":[{"name":"_snapshotId","type":"uint256"}],"name":"getSnapshotAddresses","outputs":[{"name":"","type":"address[]"}],"payable":false,"stateMutability":"view","type":"function"},{"constant":false,"inputs":[{"name":"_newAddress","type":"address"}],"name":"setProxyStorage","outputs":[],"payable":false,"stateMutability":"nonpayable","type":"function"},{"constant":true,"inputs":[],"name":"getMinValidatorFee","outputs":[{"name":"","type":"uint256"}],"payable":false,"stateMutability":"pure","type":"function"},{"constant":true,"inputs":[{"name":"_address","type":"address"}],"name":"isJailed","outputs":[{"name":"","type":"bool"}],"payable":false,"stateMutability":"view","type":"function"},{"constant":false,"inputs":[{"name":"_paused","type":"bool"}],"name":"setPaused","outputs":[],"payable":false,"stateMutability":"nonpayable","type":"function"},{"constant":true,"inputs":[{"name":"_address","type":"address"},{"name":"_validator","type":"address"}],"name":"delegatedAmount","outputs":[{"name":"","type":"uint256"}],"payable":false,"stateMutability":"view","type":"function"},{"constant":true,"inputs":[],"name":"pendingValidatorsLength","outputs":[{"name":"","type":"uint256"}],"payable":false,"stateMutability":"view","type":"function"},{"constant":true,"inputs":[],"name":"newValidatorSetLength","outputs":[{"name":"","type":"uint256"}],"payable":false,"stateMutability":"view","type":"function"},{"constant":true,"inputs":[],"name":"DECIMALS","outputs":[{"name":"","type":"uint256"}],"payable":false,"stateMutability":"view","type":"function"},{"constant":false,"inputs":[{"name":"_amount","type":"uint256"}],"name":"withdraw","outputs":[],"payable":false,"stateMutability":"nonpayable","type":"function"},{"constant":true,"inputs":[],"name":"isInitialized","outputs":[{"name":"","type":"bool"}],"payable":false,"stateMutability":"view","type":"function"},{"constant":false,"inputs":[],"name":"stake","outputs":[],"payable":true,"stateMutability":"payable","type":"function"},{"constant":true,"inputs":[],"name":"currentValidatorsLength","outputs":[{"name":"","type":"uint256"}],"payable":false,"stateMutability":"view","type":"function"},{"constant":false,"inputs":[{"name":"_amount","type":"uint256"}],"name":"setValidatorFee","outputs":[],"payable":false,"stateMutability":"nonpayable","type":"function"},{"constant":true,"inputs":[],"name":"getMinStake","outputs":[{"name":"","type":"uint256"}],"payable":false,"stateMutability":"pure","type":"function"},{"constant":true,"inputs":[{"name":"_p","type":"uint256"}],"name":"currentValidatorsAtPosition","outputs":[{"name":"","type":"address"}],"payable":false,"stateMutability":"view","type":"function"},{"constant":false,"inputs":[{"name":"_validator","type":"address"}],"name":"delegate","outputs":[],"payable":true,"stateMutability":"payable","type":"function"},{"constant":true,"inputs":[],"name":"paused","outputs":[{"name":"","type":"bool"}],"payable":false,"stateMutability":"view","type":"function"},{"constant":true,"inputs":[],"name":"newValidatorSet","outputs":[{"name":"","type":"address[]"}],"payable":false,"stateMutability":"view","type":"function"},{"constant":true,"inputs":[],"name":"jailedValidators","outputs":[{"name":"","type":"address[]"}],"payable":false,"stateMutability":"view","type":"function"},{"constant":true,"inputs":[{"name":"_validator","type":"address"},{"name":"_rewardAmount","type":"uint256"}],"name":"getDelegatorsForRewardDistribution","outputs":[{"name":"","type":"address[]"},{"name":"","type":"uint256[]"}],"payable":false,"stateMutability":"view","type":"function"},{"constant":true,"inputs":[],"name":"STRIKE_RESET","outputs":[{"name":"","type":"uint256"}],"payable":false,"stateMutability":"view","type":"function"},{"constant":false,"inputs":[],"name":"maintenance","outputs":[],"payable":false,"stateMutability":"nonpayable","type":"function"},{"constant":false,"inputs":[],"name":"unJail","outputs":[],"payable":false,"stateMutability":"nonpayable","type":"function"},{"constant":true,"inputs":[],"name":"MAX_VALIDATORS","outputs":[{"name":"","type":"uint256"}],"payable":false,"stateMutability":"view","type":"function"},{"constant":true,"inputs":[],"name":"VALIDATOR_PRODUCTIVITY_BP","outputs":[{"name":"","type":"uint256"}],"payable":false,"stateMutability":"view","type":"function"},{"constant":false,"inputs":[],"name":"finalizeChange","outputs":[],"payable":false,"stateMutability":"nonpayable","type":"function"},{"constant":true,"inputs":[],"name":"getMaxValidators","outputs":[{"name":"","type":"uint256"}],"payable":false,"stateMutability":"pure","type":"function"},{"constant":true,"inputs":[{"name":"_validator","type":"address"}],"name":"getStrikes","outputs":[{"name":"","type":"uint256"}],"payable":false,"stateMutability":"view","type":"function"},{"constant":true,"inputs":[{"name":"_validator","type":"address"}],"name":"blockCounter","outputs":[{"name":"","type":"uint256"}],"payable":false,"stateMutability":"view","type":"function"},{"constant":true,"inputs":[],"name":"CYCLE_DURATION_BLOCKS","outputs":[{"name":"","type":"uint256"}],"payable":false,"stateMutability":"view","type":"function"},{"constant":false,"inputs":[{"name":"_validator","type":"address"}],"name":"cycle","outputs":[],"payable":false,"stateMutability":"nonpayable","type":"function"},{"constant":true,"inputs":[],"name":"MAX_STRIKE_COUNT","outputs":[{"name":"","type":"uint256"}],"payable":false,"stateMutability":"view","type":"function"},{"constant":true,"inputs":[],"name":"requiredSignatures","outputs":[{"name":"","type":"uint256"}],"payable":false,"stateMutability":"view","type":"function"},{"constant":true,"inputs":[{"name":"_validator","type":"address"}],"name":"delegators","outputs":[{"name":"","type":"address[]"}],"payable":false,"stateMutability":"view","type":"function"},{"constant":true,"inputs":[],"name":"isFinalized","outputs":[{"name":"","type":"bool"}],"payable":false,"stateMutability":"view","type":"function"},{"constant":true,"inputs":[{"name":"_p","type":"uint256"}],"name":"jailedValidatorsAtPosition","outputs":[{"name":"","type":"address"}],"payable":false,"stateMutability":"view","type":"function"},{"constant":true,"inputs":[],"name":"DEFAULT_VALIDATOR_FEE","outputs":[{"name":"","type":"uint256"}],"payable":false,"stateMutability":"view","type":"function"},{"constant":true,"inputs":[],"name":"getCurrentCycleStartBlock","outputs":[{"name":"","type":"uint256"}],"payable":false,"stateMutability":"view","type":"function"},{"constant":false,"inputs":[],"name":"emitInitiateChange","outputs":[],"payable":false,"stateMutability":"nonpayable","type":"function"},{"constant":true,"inputs":[],"name":"totalStakeAmount","outputs":[{"name":"","type":"uint256"}],"payable":false,"stateMutability":"view","type":"function"},{"constant":true,"inputs":[{"name":"_validator","type":"address"}],"name":"validatorFee","outputs":[{"name":"","type":"uint256"}],"payable":false,"stateMutability":"view","type":"function"},{"constant":true,"inputs":[{"name":"_validator","type":"address"},{"name":"_address","type":"address"}],"name":"isDelegator","outputs":[{"name":"","type":"bool"}],"payable":false,"stateMutability":"view","type":"function"},{"constant":true,"inputs":[],"name":"currentValidators","outputs":[{"name":"","type":"address[]"}],"payable":false,"stateMutability":"view","type":"function"},{"constant":true,"inputs":[],"name":"getCycleDurationBlocks","outputs":[{"name":"","type":"uint256"}],"payable":false,"stateMutability":"pure","type":"function"},{"constant":true,"inputs":[],"name":"pendingValidators","outputs":[{"name":"","type":"address[]"}],"payable":false,"stateMutability":"view","type":"function"},{"constant":true,"inputs":[],"name":"getCurrentCycleEndBlock","outputs":[{"name":"","type":"uint256"}],"payable":false,"stateMutability":"view","type":"function"},{"constant":true,"inputs":[],"name":"getValidators","outputs":[{"name":"","type":"address[]"}],"payable":false,"stateMutability":"view","type":"function"},{"constant":true,"inputs":[{"name":"_address","type":"address"}],"name":"stakeAmount","outputs":[{"name":"","type":"uint256"}],"payable":false,"stateMutability":"view","type":"function"},{"constant":false,"inputs":[{"name":"_initialValidator","type":"address"}],"name":"initialize","outputs":[],"payable":false,"stateMutability":"nonpayable","type":"function"},{"constant":true,"inputs":[],"name":"MAX_STAKE","outputs":[{"name":"","type":"uint256"}],"payable":false,"stateMutability":"view","type":"function"},{"constant":true,"inputs":[],"name":"MIN_STAKE","outputs":[{"name":"","type":"uint256"}],"payable":false,"stateMutability":"view","type":"function"},{"constant":true,"inputs":[{"name":"_validator","type":"address"}],"name":"getStrikeReset","outputs":[{"name":"","type":"uint256"}],"payable":false,"stateMutability":"view","type":"function"},{"constant":true,"inputs":[{"name":"_validator","type":"address"}],"name":"delegatorsLength","outputs":[{"name":"","type":"uint256"}],"payable":false,"stateMutability":"view","type":"function"},{"constant":true,"inputs":[{"name":"_validator","type":"address"},{"name":"_p","type":"uint256"}],"name":"delegatorsAtPosition","outputs":[{"name":"","type":"address"}],"payable":false,"stateMutability":"view","type":"function"},{"constant":true,"inputs":[],"name":"getProxyStorage","outputs":[{"name":"","type":"address"}],"payable":false,"stateMutability":"view","type":"function"},{"constant":true,"inputs":[{"name":"_validator","type":"address"}],"name":"getReleaseBlock","outputs":[{"name":"","type":"uint256"}],"payable":false,"stateMutability":"view","type":"function"},{"constant":true,"inputs":[],"name":"shouldEmitInitiateChange","outputs":[{"name":"","type":"bool"}],"payable":false,"stateMutability":"view","type":"function"},{"constant":false,"inputs":[{"name":"_validator","type":"address"},{"name":"_amount","type":"uint256"}],"name":"withdraw","outputs":[],"payable":false,"stateMutability":"nonpayable","type":"function"},{"constant":true,"inputs":[{"name":"_address","type":"address"}],"name":"isValidator","outputs":[{"name":"","type":"bool"}],"payable":false,"stateMutability":"view","type":"function"},{"constant":true,"inputs":[{"name":"_address","type":"address"}],"name":"isPendingValidator","outputs":[{"name":"","type":"bool"}],"payable":false,"stateMutability":"view","type":"function"},{"constant":true,"inputs":[],"name":"getMaxStake","outputs":[{"name":"","type":"uint256"}],"payable":false,"stateMutability":"pure","type":"function"},{"payable":true,"stateMutability":"payable","type":"fallback"},{"anonymous":false,"inputs":[{"indexed":false,"name":"newSet","type":"address[]"}],"name":"ChangeFinalized","type":"event"},{"anonymous":false,"inputs":[],"name":"ShouldEmitInitiateChange","type":"event"},{"anonymous":false,"inputs":[{"indexed":true,"name":"parentHash","type":"bytes32"},{"indexed":false,"name":"newSet","type":"address[]"}],"name":"InitiateChange","type":"event"}],"evm":{"bytecode":{"linkReferences":{},"object":"6080604052600f805460ff1916905534801561001a57600080fd5b50614f958061002a6000396000f3006080604052600436106102dc5763ffffffff60e060020a60003504166308c9007681146102e95780630fe9d28e146103105780631043ca281461034457806310855269146103ac57806310f606e7146103cd57806314bfb527146103e257806316c38b3c1461041757806321429e60146104315780632a807f15146104585780632bec36d21461046d5780632e0f2625146104825780632e1a7d4d14610497578063392e53cd146104af5780633a4b66f1146104c457806340c9cdeb146104cc57806355460f81146104e157806356a3b5fa146104f957806357aeefc51461050e5780635c19a95c146105265780635c975abb1461053a5780635ccee1de1461054f578063651d8c22146105645780636a28f12f146105795780636bdf1d5a146106365780636c376cc51461064b5780636eae5b1114610660578063714897df1461067557806372e81e321461068a578063752862111461069f57806376bd510f146106b45780637b1e52a5146106c95780637d8f7a61146106ea5780637e2bf1201461070b57806385cd8464146107205780638615b171146107415780638d068043146107565780638d23fc611461076b5780638d4e40831461078c5780638da873f8146107a157806392b391f3146107b9578063932781d6146107ce57806393b4e25e146107e357806394409a56146107f85780639f77dc301461080d578063a0e119291461082e578063a2cde60914610855578063a65249231461086a578063a82f255b1461087f578063af29518114610894578063b7ab4db5146108a9578063bf135267146108be578063c4d66de8146108df578063c98517c514610900578063cb1c2b5c14610915578063d2166ce91461092a578063ddb3f4871461094b578063eb431b6a1461096c578063ec15a5e614610990578063ee19a7fc146109a5578063ef7b6d89146109c6578063f3fef3a3146109db578063facd743b146109ff578063fb64aac114610a20578063fe35505b14610a41575b6102e7333433610a56565b005b3480156102f557600080fd5b506102fe610b1f565b60408051918252519081900360200190f35b34801561031c57600080fd5b50610328600435610bc3565b60408051600160a060020a039092168252519081900360200190f35b34801561035057600080fd5b5061035c600435610c8a565b60408051602080825283518183015283519192839290830191858101910280838360005b83811015610398578181015183820152602001610380565b505050509050019250505060405180910390f35b3480156103b857600080fd5b506102e7600160a060020a0360043516610dc5565b3480156103d957600080fd5b506102fe6110e4565b3480156103ee57600080fd5b50610403600160a060020a03600435166110f0565b604080519115158252519081900360200190f35b34801561042357600080fd5b506102e76004351515611141565b34801561043d57600080fd5b506102fe600160a060020a0360043581169060243516611218565b34801561046457600080fd5b506102fe6112dc565b34801561047957600080fd5b506102fe61133e565b34801561048e57600080fd5b506102fe6113b2565b3480156104a357600080fd5b506102e76004356113be565b3480156104bb57600080fd5b5061040361143e565b6102e76114f6565b3480156104d857600080fd5b506102fe611503565b3480156104ed57600080fd5b506102e7600435611565565b34801561050557600080fd5b506102fe6115ac565b34801561051a57600080fd5b506103286004356115ba565b6102e7600160a060020a036004351661161c565b34801561054657600080fd5b50610403611627565b34801561055b57600080fd5b5061035c611630565b34801561057057600080fd5b5061035c611739565b34801561058557600080fd5b5061059d600160a060020a036004351660243561179b565b604051808060200180602001838103835285818151815260200191508051906020019060200280838360005b838110156105e15781810151838201526020016105c9565b50505050905001838103825284818151815260200191508051906020019060200280838360005b83811015610620578181015183820152602001610608565b5050505090500194505050505060405180910390f35b34801561064257600080fd5b506102fe61189a565b34801561065757600080fd5b506102e761189f565b34801561066c57600080fd5b506102e76118cf565b34801561068157600080fd5b506102fe611908565b34801561069657600080fd5b506102fe61190e565b3480156106ab57600080fd5b506102e7611914565b3480156106c057600080fd5b506102fe611a8d565b3480156106d557600080fd5b506102fe600160a060020a0360043516611a93565b3480156106f657600080fd5b506102fe600160a060020a0360043516611b57565b34801561071757600080fd5b506102fe611bd9565b34801561072c57600080fd5b506102e7600160a060020a0360043516611bdf565b34801561074d57600080fd5b506102fe611eff565b34801561076257600080fd5b506102fe611f04565b34801561077757600080fd5b5061035c600160a060020a0360043516611f29565b34801561079857600080fd5b50610403611fab565b3480156107ad57600080fd5b5061032860043561201f565b3480156107c557600080fd5b506102fe612081565b3480156107da57600080fd5b506102fe61208d565b3480156107ef57600080fd5b506102e7612101565b34801561080457600080fd5b506102fe6121c4565b34801561081957600080fd5b506102fe600160a060020a0360043516612226565b34801561083a57600080fd5b50610403600160a060020a03600435811690602435166122ba565b34801561086157600080fd5b5061035c61230e565b34801561087657600080fd5b506102fe612370565b34801561088b57600080fd5b5061035c612376565b3480156108a057600080fd5b506102fe6123d8565b3480156108b557600080fd5b5061035c61244c565b3480156108ca57600080fd5b506102fe600160a060020a0360043516612456565b3480156108eb57600080fd5b506102e7600160a060020a03600435166124d8565b34801561090c57600080fd5b506102fe61260e565b34801561092157600080fd5b506102fe61261d565b34801561093657600080fd5b506102fe600160a060020a036004351661262b565b34801561095757600080fd5b506102fe600160a060020a03600435166126ad565b34801561097857600080fd5b50610328600160a060020a036004351660243561272f565b34801561099c57600080fd5b50610328612817565b3480156109b157600080fd5b506102fe600160a060020a03600435166128d5565b3480156109d257600080fd5b50610403612969565b3480156109e757600080fd5b506102e7600160a060020a03600435166024356129dd565b348015610a0b57600080fd5b50610403600160a060020a03600435166129e8565b348015610a2c57600080fd5b50610403600160a060020a0360043516612a2e565b348015610a4d57600080fd5b506102fe612a74565b600160a060020a0383161515610a6b57600080fd5b60008211610a7857600080fd5b600160a060020a0381161515610a8d57600080fd5b610a98838284612a83565b610aa28183612c3e565b610aaa612a74565b610ab382612456565b1115610abe57600080fd5b610ac66115ac565b610acf82612456565b10158015610ae35750610ae181612a2e565b155b15610b0357610af181612d85565b610b0381670214e8348c4f0000612e68565b610b0c816129e8565b15610b1a57610b1a82612efb565b505050565b6000600a60006040516020018080600080516020614e2a83398151915281525060100190506040516020818303038152906040526040518082805190602001908083835b60208310610b825780518252601f199092019160209182019101610b63565b51815160209384036101000a600019018019909216911617905260408051929094018290039091208652850195909552929092016000205493505050505b90565b6000600a60006040516020018080600080516020614e8a83398151915281525060110190506040516020818303038152906040526040518082805190602001908083835b60208310610c265780518252601f199092019160209182019101610c07565b51815160209384036101000a60001901801990921691161790526040805192909401829003909120865285019590955292909201600020805490935085925082109050610c6f57fe5b600091825260209091200154600160a060020a031692915050565b6060600a60008360405160200180807f736e617073686f74000000000000000000000000000000000000000000000000815250600801828152602001807f61646472657373657300000000000000000000000000000000000000000000008152506009019150506040516020818303038152906040526040518082805190602001908083835b60208310610d2f5780518252601f199092019160209182019101610d10565b51815160209384036101000a600019018019909216911617905260408051929094018290039091208652858101969096525092830160002080548451818702810187019095528085529394909392508401905082828015610db957602002820191906000526020600020905b8154600160a060020a03168152600190910190602001808311610d9b575b50505050509050919050565b6004600060405160200180807f6f776e657200000000000000000000000000000000000000000000000000000081525060050190506040516020818303038152906040526040518082805190602001908083835b60208310610e385780518252601f199092019160209182019101610e19565b51815160209384036101000a6000190180199092169116179052604080519290940182900390912086528501959095529290920160002054600160a060020a031633149250610e8991505057600080fd5b600160a060020a0381161515610e9e57600080fd5b6006600060405160200180807f77617350726f787953746f72616765536574000000000000000000000000000081525060120190506040516020818303038152906040526040518082805190602001908083835b60208310610f115780518252601f199092019160209182019101610ef2565b51815160209384036101000a600019018019909216911617905260408051929094018290039091208652850195909552929092016000205460ff16159250610f5b91505057600080fd5b806004600060405160200180807f70726f787953746f726167650000000000000000000000000000000000000000815250600c0190506040516020818303038152906040526040518082805190602001908083835b60208310610fcf5780518252601f199092019160209182019101610fb0565b51815160209384036101000a600019018019909216911617905260408051929094018290039091208652858101969096525092830160009081208054600160a060020a031916600160a060020a039790971696909617909555505080517f77617350726f787953746f7261676553657400000000000000000000000000008184015281516012818303018152603290910191829052805160019460069490939182918401908083835b602083106110975780518252601f199092019160209182019101611078565b51815160209384036101000a60001901801990921691161790526040805192909401829003909120865285019590955292909201600020805460ff19169415159490941790935550505050565b670214e8348c4f000090565b6000805b6110fc610b1f565b8110156111365761110c8161201f565b600160a060020a031683600160a060020a0316141561112e576001915061113b565b6001016110f4565b600091505b50919050565b6004600060405160200180807f6f776e657200000000000000000000000000000000000000000000000000000081525060050190506040516020818303038152906040526040518082805190602001908083835b602083106111b45780518252601f199092019160209182019101611195565b51815160209384036101000a6000190180199092169116179052604080519290940182900390912086528501959095529290920160002054600160a060020a03163314925061120591505057600080fd5b600f805460ff1916911515919091179055565b60408051600080516020614f2a833981519152602080830191909152606060020a600160a060020a038087168202602f85015285160260438301528251603781840301815260579092019283905281516000936002938593909282918401908083835b6020831061129a5780518252601f19909201916020918201910161127b565b51815160209384036101000a60001901801990921691161790526040805192909401829003909120865285019590955292909201600020549695505050505050565b6000600a60006040516020018080600080516020614e8a833981519152815250601101905060405160208183030381529060405260405180828051906020019080838360208310610b825780518252601f199092019160209182019101610b63565b6000600a600060405160200180807f6e657756616c696461746f725365740000000000000000000000000000000000815250600f01905060405160208183030381529060405260405180828051906020019080838360208310610b825780518252601f199092019160209182019101610b63565b670de0b6b3a764000081565b600f5460ff161561143057604080517f08c379a000000000000000000000000000000000000000000000000000000000815260206004820152600f60248201527f436f6e7472616374205061757365640000000000000000000000000000000000604482015290519081900360640190fd5b61143b338233613001565b50565b60006006600060405160200180807f6973496e697469616c697a656400000000000000000000000000000000000000815250600d0190506040516020818303038152906040526040518082805190602001908083835b602083106114b35780518252601f199092019160209182019101611494565b51815160209384036101000a600019018019909216911617905260408051929094018290039091208652850195909552929092016000205460ff16949350505050565b611501333433610a56565b565b6000600a60006040516020018080600080516020614f0a833981519152815250601101905060405160208183030381529060405260405180828051906020019080838360208310610b825780518252601f199092019160209182019101610b63565b61156e336129e8565b151561157957600080fd5b670de0b6b3a764000081111561158e57600080fd5b6115966110e4565b8110156115a257600080fd5b61143b3382612e68565b69152d02c7e14af680000090565b6000600a60006040516020018080600080516020614f0a833981519152815250601101905060405160208183030381529060405260405180828051906020019080838360208310610c265780518252601f199092019160209182019101610c07565b61143b333483610a56565b600f5460ff1681565b6060600a600060405160200180807f6e657756616c696461746f725365740000000000000000000000000000000000815250600f0190506040516020818303038152906040526040518082805190602001908083835b602083106116a55780518252601f199092019160209182019101611686565b51815160209384036101000a60001901801990921691161790526040805192909401829003909120865285810196909652509283016000208054845181870281018701909552808552939490939250840190508282801561172f57602002820191906000526020600020905b8154600160a060020a03168152600190910190602001808311611711575b5050505050905090565b6060600a60006040516020018080600080516020614e2a8339815191528152506010019050604051602081830303815290604052604051808280519060200190808383602083106116a55780518252601f199092019160209182019101611686565b60608060608060008060006117af89611f29565b945084516040519080825280602002602001820160405280156117dc578160200160208202803883390190505b5093506117f86117ea6115ac565b6117f38b612456565b61311b565b92505b845182101561188b576118176118118a8461272f565b8a611218565b9050611867670de0b6b3a764000061184f6118318c612226565b670de0b6b3a76400000361185b8761184f8e8863ffffffff61313416565b9063ffffffff61316216565b9063ffffffff61313416565b848381518110151561187557fe5b60209081029091010152600191909101906117fb565b50929791965090945050505050565b603281565b6118a8336129e8565b15156118b357600080fd5b6118bc336110f0565b156118c657600080fd5b61150133613185565b6118d8336110f0565b15156118e357600080fd5b6118eb6123d8565b6118f4336128d5565b11156118ff57600080fd5b61150133613197565b6103e881565b610bb881565b6004600060405160200180807f53595354454d5f41444452455353000000000000000000000000000000000000815250600e0190506040516020818303038152906040526040518082805190602001908083835b602083106119875780518252601f199092019160209182019101611968565b51815160209384036101000a6000190180199092169116179052604080519290940182900390912086528501959095529290920160002054600160a060020a0316331492506119d891505057600080fd5b6119e0611fab565b156119ea57600080fd5b60006119f461133e565b1115611a8357611a0a611a05611630565b6131d3565b7f8564cd629b15f47dc310d45bcbfc9bcf5420b0d51bf0659a16c67f91d2763253611a3361230e565b60408051602080825283518183015283519192839290830191858101910280838360005b83811015611a6f578181015183820152602001611a57565b505050509050019250505060405180910390a15b6115016001613326565b6103e890565b600060026000836040516020018080600080516020614f4a833981519152815250600b0182600160a060020a0316600160a060020a0316606060020a0281526014019150506040516020818303038152906040526040518082805190602001908083835b60208310611b165780518252601f199092019160209182019101611af7565b51815160209384036101000a600019018019909216911617905260408051929094018290039091208652850195909552929092016000205495945050505050565b600060026000836040516020018080600080516020614e6a833981519152815250600c0182600160a060020a0316600160a060020a0316606060020a02815260140191505060405160208183030381529060405260405180828051906020019080838360208310611b165780518252601f199092019160209182019101611af7565b61870081565b6060611be9612817565b600160a060020a031663f89d40866040518163ffffffff1660e060020a028152600401602060405180830381600087803b158015611c2657600080fd5b505af1158015611c3a573d6000803e3d6000fd5b505050506040513d6020811015611c5057600080fd5b5051600160a060020a03163314611c6657600080fd5b611c6f82613399565b611c776134c9565b15611efb57611c84612817565b600160a060020a0316631986d3766040518163ffffffff1660e060020a028152600401602060405180830381600087803b158015611cc157600080fd5b505af1158015611cd5573d6000803e3d6000fd5b505050506040513d6020811015611ceb57600080fd5b5051600160a060020a031663bbac62c8611d0361230e565b6040518263ffffffff1660e060020a0281526004018080602001828103825283818151815260200191508051906020019060200280838360005b83811015611d55578181015183820152602001611d3d565b5050505090500192505050600060405180830381600087803b158015611d7a57600080fd5b505af1158015611d8e573d6000803e3d6000fd5b50505050611d9a6134db565b611daa611da561230e565b61364c565b611db2612376565b9050600081511115611dc757611dc781613730565b6000611dd161133e565b1115611e1557611de16000613326565b611deb60016137f2565b6040517fad8a61077dff62d25ea1bf7cf1af88e1b48075c3d497d494ac9b129b73b0d37c90600090a15b611e1d612817565b600160a060020a031663f89d40866040518163ffffffff1660e060020a028152600401602060405180830381600087803b158015611e5a57600080fd5b505af1158015611e6e573d6000803e3d6000fd5b505050506040513d6020811015611e8457600080fd5b5051604080517fb1f0c8e10000000000000000000000000000000000000000000000000000000081529051600160a060020a039092169163b1f0c8e19160048082019260009290919082900301818387803b158015611ee257600080fd5b505af1158015611ef6573d6000803e3d6000fd5b505050505b5050565b600581565b6000611f246001611f18600261184f611503565b9063ffffffff61386516565b905090565b6060600a6000836040516020018080600080516020614e4a833981519152815250600a0182600160a060020a0316600160a060020a0316606060020a02815260140191505060405160208183030381529060405260405180828051906020019080838360208310610d2f5780518252601f199092019160209182019101610d10565b60006006600060405160200180807f697346696e616c697a6564000000000000000000000000000000000000000000815250600b019050604051602081830303815290604052604051808280519060200190808383602083106114b35780518252601f199092019160209182019101611494565b6000600a60006040516020018080600080516020614e2a833981519152815250601001905060405160208183030381529060405260405180828051906020019080838360208310610c265780518252601f199092019160209182019101610c07565b670214e8348c4f000081565b60006002600060405160200180807f63757272656e744379636c655374617274426c6f636b00000000000000000000815250601601905060405160208183030381529060405260405180828051906020019080838360208310610b825780518252601f199092019160209182019101610b63565b61210a336129e8565b151561211557600080fd5b61211d612969565b151561212857600080fd5b600061213261133e565b1161213c57600080fd5b6000194301407f55252fa6eee4741b4e24a74a70e9c11fd2c2281df8d6ea13126ff845f7825c8961216b611630565b60408051602080825283518183015283519192839290830191858101910280838360005b838110156121a757818101518382015260200161218f565b505050509050019250505060405180910390a261150160006137f2565b6000600260006040516020018080600080516020614eea833981519152815250601001905060405160208183030381529060405260405180828051906020019080838360208310610b825780518252601f199092019160209182019101610b63565b6000600260008360405160200180807f76616c696461746f724665650000000000000000000000000000000000000000815250600c0182600160a060020a0316600160a060020a0316606060020a02815260140191505060405160208183030381529060405260405180828051906020019080838360208310611b165780518252601f199092019160209182019101611af7565b6000805b6122c7846126ad565b811015612302576122d8848261272f565b600160a060020a031683600160a060020a031614156122fa5760019150612307565b6001016122be565b600091505b5092915050565b6060600a60006040516020018080600080516020614f0a8339815191528152506011019050604051602081830303815290604052604051808280519060200190808383602083106116a55780518252601f199092019160209182019101611686565b61870090565b6060600a60006040516020018080600080516020614e8a8339815191528152506011019050604051602081830303815290604052604051808280519060200190808383602083106116a55780518252601f199092019160209182019101611686565b60006002600060405160200180807f63757272656e744379636c65456e64426c6f636b000000000000000000000000815250601401905060405160208183030381529060405260405180828051906020019080838360208310610b825780518252601f199092019160209182019101610b63565b6060611f2461230e565b600060026000836040516020018080600080516020614eca833981519152815250600b0182600160a060020a0316600160a060020a0316606060020a02815260140191505060405160208183030381529060405260405180828051906020019080838360208310611b165780518252601f199092019160209182019101611af7565b6004600060405160200180807f6f776e657200000000000000000000000000000000000000000000000000000081525060050190506040516020818303038152906040526040518082805190602001908083835b6020831061254b5780518252601f19909201916020918201910161252c565b51815160209384036101000a6000190180199092169116179052604080519290940182900390912086528501959095529290920160002054600160a060020a03163314925061259c91505057600080fd5b6125a461143e565b156125ae57600080fd5b6125cb73fffffffffffffffffffffffffffffffffffffffe613877565b6125d36134db565b600160a060020a03811615156125f1576125ec33613947565b6125fa565b6125fa81613947565b6126046001613326565b61143b60016139a7565b6a0422ca8b0a00a42500000081565b69152d02c7e14af680000081565b600060026000836040516020018080600080516020614eaa833981519152815250600b0182600160a060020a0316600160a060020a0316606060020a02815260140191505060405160208183030381529060405260405180828051906020019080838360208310611b165780518252601f199092019160209182019101611af7565b6000600a6000836040516020018080600080516020614e4a833981519152815250600a0182600160a060020a0316600160a060020a0316606060020a02815260140191505060405160208183030381529060405260405180828051906020019080838360208310611b165780518252601f199092019160209182019101611af7565b6000600a6000846040516020018080600080516020614e4a833981519152815250600a0182600160a060020a0316600160a060020a0316606060020a0281526014019150506040516020818303038152906040526040518082805190602001908083835b602083106127b25780518252601f199092019160209182019101612793565b51815160209384036101000a600019018019909216911617905260408051929094018290039091208652850195909552929092016000208054909350859250821090506127fb57fe5b600091825260209091200154600160a060020a03169392505050565b60006004600060405160200180807f70726f787953746f726167650000000000000000000000000000000000000000815250600c0190506040516020818303038152906040526040518082805190602001908083835b6020831061288c5780518252601f19909201916020918201910161286d565b51815160209384036101000a6000190180199092169116179052604080519290940182900390912086528501959095529290920160002054600160a060020a0316949350505050565b6000600260008360405160200180807f72656c65617365426c6f636b0000000000000000000000000000000000000000815250600c0182600160a060020a0316600160a060020a0316606060020a02815260140191505060405160208183030381529060405260405180828051906020019080838360208310611b165780518252601f199092019160209182019101611af7565b60006006600060405160200180807f73686f756c64456d6974496e6974696174654368616e676500000000000000008152506018019050604051602081830303815290604052604051808280519060200190808383602083106114b35780518252601f199092019160209182019101611494565b611efb338284613001565b6000805b6129f4611503565b81101561113657612a04816115ba565b600160a060020a031683600160a060020a03161415612a26576001915061113b565b6001016129ec565b6000805b612a3a6112dc565b81101561113657612a4a81610bc3565b600160a060020a031683600160a060020a03161415612a6c576001915061113b565b600101612a32565b6a0422ca8b0a00a42500000090565b60408051600080516020614f2a833981519152602080830191909152606060020a600160a060020a038088168202602f8501528616026043830152825160378184030181526057909201928390528151612b4d93859360029360009391929182918401908083835b60208310612b0a5780518252601f199092019160209182019101612aeb565b51815160209384036101000a6000190180199092169116179052604080519290940182900390912086528501959095529290920160002054939250506138659050565b60408051600080516020614f2a833981519152602080830191909152606060020a600160a060020a038089168202602f850152871602604383015282516037818403018152605790920192839052815160029360009392909182918401908083835b60208310612bce5780518252601f199092019160209182019101612baf565b51815160209384036101000a6000190180199092169116179052604080519290940182900390912086528501959095529290920160002093909355505050600160a060020a0382811690841614801590612c2f5750612c2d82846122ba565b155b15610b1a57610b1a8383613a1a565b612cc28160026000856040516020018080600080516020614eca833981519152815250600b0182600160a060020a0316600160a060020a0316606060020a02815260140191505060405160208183030381529060405260405180828051906020019080838360208310612b0a5780518252601f199092019160209182019101612aeb565b60026000846040516020018080600080516020614eca833981519152815250600b0182600160a060020a0316600160a060020a0316606060020a0281526014019150506040516020818303038152906040526040518082805190602001908083835b60208310612d435780518252601f199092019160209182019101612d24565b51815160209384036101000a60001901801990921691161790526040805192909401829003909120865285019590955292909201600020939093555050505050565b612d8e816110f0565b15612d9857600080fd5b600a60006040516020018080600080516020614e8a83398151915281525060110190506040516020818303038152906040526040518082805190602001908083835b60208310612df95780518252601f199092019160209182019101612dda565b51815160209384036101000a600019018019909216911617905260408051929094018290039091208652858101969096525092909201600090812080546001810182559082529390209092018054600160a060020a031916600160a060020a0394909416939093179092555050565b80600260008460405160200180807f76616c696461746f724665650000000000000000000000000000000000000000815250600c0182600160a060020a0316600160a060020a0316606060020a02815260140191505060405160208183030381529060405260405180828051906020019080838360208310612d435780518252601f199092019160209182019101612d24565b612f5f81600260006040516020018080600080516020614eea833981519152815250601001905060405160208183030381529060405260405180828051906020019080838360208310612b0a5780518252601f199092019160209182019101612aeb565b600260006040516020018080600080516020614eea83398151915281525060100190506040516020818303038152906040526040518082805190602001908083835b60208310612fc05780518252601f199092019160209182019101612fa1565b51815160209384036101000a600019018019909216911617905260408051929094018290039091208652850195909552929092016000209390935550505050565b6000600160a060020a038216151561301857600080fd5b6000831161302557600080fd5b61302e82612456565b83111561303a57600080fd5b6130448483611218565b83111561305057600080fd5b613059826129e8565b90506130636115ac565b61307c8461307085612456565b9063ffffffff613b0b16565b1080156130865750805b156130995761309482613b22565b613115565b6130a4848385613d20565b6130ae8284613f72565b80156130bd576130bd83613ff6565b6130c56115ac565b6130ce83612456565b10156130dd576130dd82613b22565b604051600160a060020a0385169084156108fc029085906000818181858888f19350505050158015613113573d6000803e3d6000fd5b505b50505050565b60008183101561312b578161312d565b825b9392505050565b6000808315156131475760009150612307565b5082820282848281151561315757fe5b041461312d57600080fd5b60008080831161317157600080fd5b828481151561317c57fe5b04949350505050565b61318e81613b22565b61143b8161405a565b6131a0816140ba565b6131a86115ac565b6131b182612456565b101580156131c557506131c381612a2e565b155b1561143b5761143b81612d85565b60008080805b845183101561326d5761320285848151811015156131f357fe5b90602001906020020151612456565b91508184019350613229858481518110151561321a57fe5b90602001906020020151612226565b90506132336110e4565b81101561326257613262858481518110151561324b57fe5b9060200190602002015161325d6110e4565b612e68565b6001830192506131d9565b61327684614260565b84600a60006040516020018080600080516020614f0a83398151915281525060110190506040516020818303038152906040526040518082805190602001908083835b602083106132d85780518252601f1990920191602091820191016132b9565b51815160001960209485036101000a01908116901991909116179052604080519490920184900390932086528583019690965250929093016000208451611ef6959194509201919050614d62565b806006600060405160200180807f697346696e616c697a6564000000000000000000000000000000000000000000815250600b019050604051602081830303815290604052604051808280519060200190808383602083106110975780518252601f199092019160209182019101611078565b60026000826040516020018080600080516020614e6a833981519152815250600c0182600160a060020a0316600160a060020a0316606060020a0281526014019150506040516020818303038152906040526040518082805190602001908083835b6020831061341a5780518252601f1990920191602091820191016133fb565b51815160209384036101000a60001901801990921691161790526040805192909401829003909120865285810196909652509283016000908120548451600080516020614e6a83398151915281880152600160a060020a038816606060020a02602c8201528551808203880181529086019586905280516001909201966002969395509093508291848201918190849084908310612fc05780518252601f199092019160209182019101612fa1565b60006134d36123d8565b431015905090565b436002600060405160200180807f63757272656e744379636c655374617274426c6f636b0000000000000000000081525060160190506040516020818303038152906040526040518082805190602001908083835b6020831061354f5780518252601f199092019160209182019101613530565b51815160209384036101000a60001901801990921691161790526040805192909401829003909120865285019590955292909201600020939093555061359791506123709050565b43016002600060405160200180807f63757272656e744379636c65456e64426c6f636b00000000000000000000000081525060140190506040516020818303038152906040526040518082805190602001908083835b6020831061360c5780518252601f1990920191602091820191016135ed565b51815160209384036101000a6000190180199092169116179052604080519290940182900390912086528501959095529290920160002093909355505050565b60008061366861271061184f855161184f610bb861185b612370565b91505b8251811015610b1a5781613695848381518110151561368657fe5b90602001906020020151611b57565b10156136c0576136bb83828151811015156136ac57fe5b906020019060200201516142c1565b613708565b60006136e284838151811015156136d357fe5b90602001906020020151611a93565b11156137085761370883828151811015156136f957fe5b906020019060200201516142e5565b613728838281518110151561371957fe5b90602001906020020151614524565b60010161366b565b80600a600060405160200180807f6e657756616c696461746f725365740000000000000000000000000000000000815250600f0190506040516020818303038152906040526040518082805190602001908083835b602083106137a45780518252601f199092019160209182019101613785565b51815160001960209485036101000a01908116901991909116179052604080519490920184900390932086528583019690965250929093016000208451611efb959194509201919050614d62565b806006600060405160200180807f73686f756c64456d6974496e6974696174654368616e676500000000000000008152506018019050604051602081830303815290604052604051808280519060200190808383602083106110975780518252601f199092019160209182019101611078565b60008282018381101561312d57600080fd5b806004600060405160200180807f53595354454d5f41444452455353000000000000000000000000000000000000815250600e0190506040516020818303038152906040526040518082805190602001908083835b602083106138eb5780518252601f1990920191602091820191016138cc565b51815160209384036101000a600019018019909216911617905260408051929094018290039091208652850195909552929092016000208054600160a060020a031916600160a060020a03959095169490941790935550505050565b600a60006040516020018080600080516020614f0a833981519152815250601101905060405160208183030381529060405260405180828051906020019080838360208310612df95780518252601f199092019160209182019101612dda565b806006600060405160200180807f6973496e697469616c697a656400000000000000000000000000000000000000815250600d019050604051602081830303815290604052604051808280519060200190808383602083106110975780518252601f199092019160209182019101611078565b600a6000826040516020018080600080516020614e4a833981519152815250600a0182600160a060020a0316600160a060020a0316606060020a0281526014019150506040516020818303038152906040526040518082805190602001908083835b60208310613a9b5780518252601f199092019160209182019101613a7c565b51815160209384036101000a600019018019909216911617905260408051929094018290039091208652858101969096525092909201600090812080546001810182559082529390209092018054600160a060020a031916600160a060020a039590951694909417909355505050565b60008083831115613b1b57600080fd5b5050900390565b6000808080805b613b316112dc565b831015613b7157613b4183610bc3565b600160a060020a031686600160a060020a03161415613b665782935060019450613b71565b600183019250613b29565b8415611ef6576001613b816112dc565b039150613b8d82610bc3565b9050600160a060020a03811615613ba857613ba884826145a6565b600a60006040516020018080600080516020614e8a83398151915281525060110190506040516020818303038152906040526040518082805190602001908083835b60208310613c095780518252601f199092019160209182019101613bea565b51815160209384036101000a60001901801990921691161790526040805192909401829003909120865285019590955292909201600020805490935085925082109050613c5257fe5b600091825260208083209091018054600160a060020a031916905560408051600080516020614e8a83398151915281840152815180820360110181526031909101918290528051600a94939192918291908401908083835b60208310613cc95780518252601f199092019160209182019101613caa565b51815160001960209485036101000a81019182169119929092161790915260408051959093018590039094208752860196909652509290930160002080549350613d17929091508301614dc7565b50505050505050565b60408051600080516020614f2a833981519152602080830191909152606060020a600160a060020a038088168202602f8501528616026043830152825160378184030181526057909201928390528151613dea93859360029360009391929182918401908083835b60208310613da75780518252601f199092019160209182019101613d88565b51815160209384036101000a600019018019909216911617905260408051929094018290039091208652850195909552929092016000205493925050613b0b9050565b60408051600080516020614f2a833981519152602080830191909152606060020a600160a060020a038089168202602f850152871602604383015282516037818403018152605790920192839052815160029360009392909182918401908083835b60208310613e6b5780518252601f199092019160209182019101613e4c565b51815160001960209485036101000a0190811690199190911617905260408051949092018490039093208652858301969096525092840160009081209590955550508151600080516020614f2a83398151915281830152606060020a600160a060020a038089168202602f84015287160260438201528251603781830301815260579091019283905280516002949391928291908401908083835b60208310613f255780518252601f199092019160209182019101613f06565b51815160209384036101000a600019018019909216911617905260408051929094018290039091208652850195909552929092016000205415159250610b1a91505057610b1a8383614683565b612cc28160026000856040516020018080600080516020614eca833981519152815250600b0182600160a060020a0316600160a060020a0316606060020a02815260140191505060405160208183030381529060405260405180828051906020019080838360208310613da75780518252601f199092019160209182019101613d88565b612f5f81600260006040516020018080600080516020614eea833981519152815250601001905060405160208183030381529060405260405180828051906020019080838360208310613da75780518252601f199092019160209182019101613d88565b600a60006040516020018080600080516020614e2a833981519152815250601001905060405160208183030381529060405260405180828051906020019080838360208310612df95780518252601f199092019160209182019101612dda565b6000808080805b6140c9610b1f565b831015614109576140d98361201f565b600160a060020a031686600160a060020a031614156140fe5782935060019450614109565b6001830192506140c1565b8415611ef6576001614119610b1f565b0391506141258261201f565b9050600160a060020a038116156141405761414084826148bc565b600a60006040516020018080600080516020614e2a83398151915281525060100190506040516020818303038152906040526040518082805190602001908083835b602083106141a15780518252601f199092019160209182019101614182565b51815160209384036101000a600019018019909216911617905260408051929094018290039091208652850195909552929092016000208054909350859250821090506141ea57fe5b600091825260208083209091018054600160a060020a031916905560408051600080516020614e2a83398151915281840152815180820360100181526030909101918290528051600a949391929182919084019080838360208310613cc95780518252601f199092019160209182019101613caa565b80600260006040516020018080600080516020614eea833981519152815250601001905060405160208183030381529060405260405180828051906020019080838360208310612fc05780518252601f199092019160209182019101612fa1565b6142ca81613b22565b6142d38161405a565b6142dc8161491d565b61143b81614b60565b60026000826040516020018080600080516020614eaa833981519152815250600b0182600160a060020a0316600160a060020a0316606060020a0281526014019150506040516020818303038152906040526040518082805190602001908083835b602083106143665780518252601f199092019160209182019101614347565b51815160209384036101000a60001901801990921691161790526040805192909401829003909120865285810196909652509283016000908120548451600080516020614eaa83398151915281880152600160a060020a038816606060020a02602b8201528551808203601f018152603f9091019586905280516001909201966002969395509093508291908401908083835b602083106144185780518252601f1990920191602091820191016143f9565b51815160209384036101000a600019018019909216911617905260408051929094018290039091208652858101969096525092830160009081209590955550508051600080516020614eaa83398151915281840152600160a060020a038516606060020a02602b8201528151808203601f018152603f90910191829052805160329460029490939182918401908083835b602083106144c85780518252601f1990920191602091820191016144a9565b6001836020036101000a03801982511681845116808217855250505050505090500191505060405180910390206000191660001916815260200190815260200160002054111561143b5761451b81614b60565b61143b81614be2565b600060026000836040516020018080600080516020614e6a833981519152815250600c0182600160a060020a0316600160a060020a0316606060020a02815260140191505060405160208183030381529060405260405180828051906020019080838360208310612fc05780518252601f199092019160209182019101612fa1565b80600a60006040516020018080600080516020614e8a83398151915281525060110190506040516020818303038152906040526040518082805190602001908083835b602083106146085780518252601f1990920191602091820191016145e9565b51815160209384036101000a6000190180199092169116179052604080519290940182900390912086528501959095529290920160002080549093508692508210905061465157fe5b9060005260206000200160006101000a815481600160a060020a030219169083600160a060020a031602179055505050565b6000808080805b614693866126ad565b8310156146d4576146a4868461272f565b600160a060020a031687600160a060020a031614156146c957829350600194506146d4565b60018301925061468a565b8415613d175760016146e5876126ad565b0391506146f2868361272f565b9050600160a060020a0381161561470e5761470e868583614c64565b600a6000876040516020018080600080516020614e4a833981519152815250600a0182600160a060020a0316600160a060020a0316606060020a0281526014019150506040516020818303038152906040526040518082805190602001908083835b6020831061478f5780518252601f199092019160209182019101614770565b51815160209384036101000a600019018019909216911617905260408051929094018290039091208652850195909552929092016000208054909350859250821090506147d857fe5b600091825260208083209091018054600160a060020a031916905560408051600080516020614e4a83398151915281840152606060020a600160a060020a038b1602602a8201528151601e818303018152603e909101918290528051600a94939192918291908401908083835b602083106148645780518252601f199092019160209182019101614845565b51815160001960209485036101000a810191821691199290921617909152604080519590930185900390942087528601969096525092909301600020805493506148b2929091508301614dc7565b5050505050505050565b80600a60006040516020018080600080516020614e2a8339815191528152506010019050604051602081830303815290604052604051808280519060200190808383602083106146085780518252601f1990920191602091820191016145e9565b600060026000836040516020018080600080516020614f4a833981519152815250600b0182600160a060020a0316600160a060020a0316606060020a0281526014019150506040516020818303038152906040526040518082805190602001908083835b602083106149a05780518252601f199092019160209182019101614981565b6001836020036101000a038019825116818451168082178552505050505050905001915050604051809103902060001916600019168152602001908152602001600020549050614a0260016130706149fa8461185b612370565b611f186123d8565b600260008460405160200180807f72656c65617365426c6f636b0000000000000000000000000000000000000000815250600c0182600160a060020a0316600160a060020a0316606060020a0281526014019150506040516020818303038152906040526040518082805190602001908083835b60208310614a955780518252601f199092019160209182019101614a76565b51815160209384036101000a60001901801990921691161790526040805192909401829003909120865285019590955292909201600020939093555050600582119050611efb578060010160026000846040516020018080600080516020614f4a833981519152815250600b0182600160a060020a0316600160a060020a0316606060020a02815260140191505060405160208183030381529060405260405180828051906020019080838360208310612d435780518252601f199092019160209182019101612d24565b600060026000836040516020018080600080516020614eaa833981519152815250600b0182600160a060020a0316600160a060020a0316606060020a02815260140191505060405160208183030381529060405260405180828051906020019080838360208310612fc05780518252601f199092019160209182019101612fa1565b600060026000836040516020018080600080516020614f4a833981519152815250600b0182600160a060020a0316600160a060020a0316606060020a02815260140191505060405160208183030381529060405260405180828051906020019080838360208310612fc05780518252601f199092019160209182019101612fa1565b80600a6000856040516020018080600080516020614e4a833981519152815250600a0182600160a060020a0316600160a060020a0316606060020a0281526014019150506040516020818303038152906040526040518082805190602001908083835b60208310614ce65780518252601f199092019160209182019101614cc7565b51815160209384036101000a60001901801990921691161790526040805192909401829003909120865285019590955292909201600020805490935086925082109050614d2f57fe5b9060005260206000200160006101000a815481600160a060020a030219169083600160a060020a03160217905550505050565b828054828255906000526020600020908101928215614db7579160200282015b82811115614db75782518254600160a060020a031916600160a060020a03909116178255602090920191600190910190614d82565b50614dc3929150614deb565b5090565b815481835581811115610b1a57600083815260209020610b1a918101908301614e0f565b610bc091905b80821115614dc3578054600160a060020a0319168155600101614df1565b610bc091905b80821115614dc35760008155600101614e1556006a61696c656456616c696461746f72730000000000000000000000000000000064656c656761746f727300000000000000000000000000000000000000000000626c6f636b436f756e746572000000000000000000000000000000000000000070656e64696e6756616c696461746f7273000000000000000000000000000000737472696b6552657365740000000000000000000000000000000000000000007374616b65416d6f756e74000000000000000000000000000000000000000000746f74616c5374616b65416d6f756e740000000000000000000000000000000063757272656e7456616c696461746f727300000000000000000000000000000064656c656761746564416d6f756e740000000000000000000000000000000000737472696b65436f756e74000000000000000000000000000000000000000000a165627a7a72305820f597296437c96cea9d1bb08905eebf8846944d8880bbbfc088242577138de6a60029","opcodes":"PUSH1 0x80 PUSH1 0x40 MSTORE PUSH1 0xF DUP1 SLOAD PUSH1 0xFF NOT AND SWAP1 SSTORE CALLVALUE DUP1 ISZERO PUSH2 0x1A JUMPI PUSH1 0x0 DUP1 REVERT JUMPDEST POP PUSH2 0x4F95 DUP1 PUSH2 0x2A PUSH1 0x0 CODECOPY PUSH1 0x0 RETURN STOP PUSH1 0x80 PUSH1 0x40 MSTORE PUSH1 0x4 CALLDATASIZE LT PUSH2 0x2DC JUMPI PUSH4 0xFFFFFFFF PUSH1 0xE0 PUSH1 0x2 EXP PUSH1 0x0 CALLDATALOAD DIV AND PUSH4 0x8C90076 DUP2 EQ PUSH2 0x2E9 JUMPI DUP1 PUSH4 0xFE9D28E EQ PUSH2 0x310 JUMPI DUP1 PUSH4 0x1043CA28 EQ PUSH2 0x344 JUMPI DUP1 PUSH4 0x10855269 EQ PUSH2 0x3AC JUMPI DUP1 PUSH4 0x10F606E7 EQ PUSH2 0x3CD JUMPI DUP1 PUSH4 0x14BFB527 EQ PUSH2 0x3E2 JUMPI DUP1 PUSH4 0x16C38B3C EQ PUSH2 0x417 JUMPI DUP1 PUSH4 0x21429E60 EQ PUSH2 0x431 JUMPI DUP1 PUSH4 0x2A807F15 EQ PUSH2 0x458 JUMPI DUP1 PUSH4 0x2BEC36D2 EQ PUSH2 0x46D JUMPI DUP1 PUSH4 0x2E0F2625 EQ PUSH2 0x482 JUMPI DUP1 PUSH4 0x2E1A7D4D EQ PUSH2 0x497 JUMPI DUP1 PUSH4 0x392E53CD EQ PUSH2 0x4AF JUMPI DUP1 PUSH4 0x3A4B66F1 EQ PUSH2 0x4C4 JUMPI DUP1 PUSH4 0x40C9CDEB EQ PUSH2 0x4CC JUMPI DUP1 PUSH4 0x55460F81 EQ PUSH2 0x4E1 JUMPI DUP1 PUSH4 0x56A3B5FA EQ PUSH2 0x4F9 JUMPI DUP1 PUSH4 0x57AEEFC5 EQ PUSH2 0x50E JUMPI DUP1 PUSH4 0x5C19A95C EQ PUSH2 0x526 JUMPI DUP1 PUSH4 0x5C975ABB EQ PUSH2 0x53A JUMPI DUP1 PUSH4 0x5CCEE1DE EQ PUSH2 0x54F JUMPI DUP1 PUSH4 0x651D8C22 EQ PUSH2 0x564 JUMPI DUP1 PUSH4 0x6A28F12F EQ PUSH2 0x579 JUMPI DUP1 PUSH4 0x6BDF1D5A EQ PUSH2 0x636 JUMPI DUP1 PUSH4 0x6C376CC5 EQ PUSH2 0x64B JUMPI DUP1 PUSH4 0x6EAE5B11 EQ PUSH2 0x660 JUMPI DUP1 PUSH4 0x714897DF EQ PUSH2 0x675 JUMPI DUP1 PUSH4 0x72E81E32 EQ PUSH2 0x68A JUMPI DUP1 PUSH4 0x75286211 EQ PUSH2 0x69F JUMPI DUP1 PUSH4 0x76BD510F EQ PUSH2 0x6B4 JUMPI DUP1 PUSH4 0x7B1E52A5 EQ PUSH2 0x6C9 JUMPI DUP1 PUSH4 0x7D8F7A61 EQ PUSH2 0x6EA JUMPI DUP1 PUSH4 0x7E2BF120 EQ PUSH2 0x70B JUMPI DUP1 PUSH4 0x85CD8464 EQ PUSH2 0x720 JUMPI DUP1 PUSH4 0x8615B171 EQ PUSH2 0x741 JUMPI DUP1 PUSH4 0x8D068043 EQ PUSH2 0x756 JUMPI DUP1 PUSH4 0x8D23FC61 EQ PUSH2 0x76B JUMPI DUP1 PUSH4 0x8D4E4083 EQ PUSH2 0x78C JUMPI DUP1 PUSH4 0x8DA873F8 EQ PUSH2 0x7A1 JUMPI DUP1 PUSH4 0x92B391F3 EQ PUSH2 0x7B9 JUMPI DUP1 PUSH4 0x932781D6 EQ PUSH2 0x7CE JUMPI DUP1 PUSH4 0x93B4E25E EQ PUSH2 0x7E3 JUMPI DUP1 PUSH4 0x94409A56 EQ PUSH2 0x7F8 JUMPI DUP1 PUSH4 0x9F77DC30 EQ PUSH2 0x80D JUMPI DUP1 PUSH4 0xA0E11929 EQ PUSH2 0x82E JUMPI DUP1 PUSH4 0xA2CDE609 EQ PUSH2 0x855 JUMPI DUP1 PUSH4 0xA6524923 EQ PUSH2 0x86A JUMPI DUP1 PUSH4 0xA82F255B EQ PUSH2 0x87F JUMPI DUP1 PUSH4 0xAF295181 EQ PUSH2 0x894 JUMPI DUP1 PUSH4 0xB7AB4DB5 EQ PUSH2 0x8A9 JUMPI DUP1 PUSH4 0xBF135267 EQ PUSH2 0x8BE JUMPI DUP1 PUSH4 0xC4D66DE8 EQ PUSH2 0x8DF JUMPI DUP1 PUSH4 0xC98517C5 EQ PUSH2 0x900 JUMPI DUP1 PUSH4 0xCB1C2B5C EQ PUSH2 0x915 JUMPI DUP1 PUSH4 0xD2166CE9 EQ PUSH2 0x92A JUMPI DUP1 PUSH4 0xDDB3F487 EQ PUSH2 0x94B JUMPI DUP1 PUSH4 0xEB431B6A EQ PUSH2 0x96C JUMPI DUP1 PUSH4 0xEC15A5E6 EQ PUSH2 0x990 JUMPI DUP1 PUSH4 0xEE19A7FC EQ PUSH2 0x9A5 JUMPI DUP1 PUSH4 0xEF7B6D89 EQ PUSH2 0x9C6 JUMPI DUP1 PUSH4 0xF3FEF3A3 EQ PUSH2 0x9DB JUMPI DUP1 PUSH4 0xFACD743B EQ PUSH2 0x9FF JUMPI DUP1 PUSH4 0xFB64AAC1 EQ PUSH2 0xA20 JUMPI DUP1 PUSH4 0xFE35505B EQ PUSH2 0xA41 JUMPI JUMPDEST PUSH2 0x2E7 CALLER CALLVALUE CALLER PUSH2 0xA56 JUMP JUMPDEST STOP JUMPDEST CALLVALUE DUP1 ISZERO PUSH2 0x2F5 JUMPI PUSH1 0x0 DUP1 REVERT JUMPDEST POP PUSH2 0x2FE PUSH2 0xB1F JUMP JUMPDEST PUSH1 0x40 DUP1 MLOAD SWAP2 DUP3 MSTORE MLOAD SWAP1 DUP2 SWAP1 SUB PUSH1 0x20 ADD SWAP1 RETURN JUMPDEST CALLVALUE DUP1 ISZERO PUSH2 0x31C JUMPI PUSH1 0x0 DUP1 REVERT JUMPDEST POP PUSH2 0x328 PUSH1 0x4 CALLDATALOAD PUSH2 0xBC3 JUMP JUMPDEST PUSH1 0x40 DUP1 MLOAD PUSH1 0x1 PUSH1 0xA0 PUSH1 0x2 EXP SUB SWAP1 SWAP3 AND DUP3 MSTORE MLOAD SWAP1 DUP2 SWAP1 SUB PUSH1 0x20 ADD SWAP1 RETURN JUMPDEST CALLVALUE DUP1 ISZERO PUSH2 0x350 JUMPI PUSH1 0x0 DUP1 REVERT JUMPDEST POP PUSH2 0x35C PUSH1 0x4 CALLDATALOAD PUSH2 0xC8A JUMP JUMPDEST PUSH1 0x40 DUP1 MLOAD PUSH1 0x20 DUP1 DUP3 MSTORE DUP4 MLOAD DUP2 DUP4 ADD MSTORE DUP4 MLOAD SWAP2 SWAP3 DUP4 SWAP3 SWAP1 DUP4 ADD SWAP2 DUP6 DUP2 ADD SWAP2 MUL DUP1 DUP4 DUP4 PUSH1 0x0 JUMPDEST DUP4 DUP2 LT ISZERO PUSH2 0x398 JUMPI DUP2 DUP2 ADD MLOAD DUP4 DUP3 ADD MSTORE PUSH1 0x20 ADD PUSH2 0x380 JUMP JUMPDEST POP POP POP POP SWAP1 POP ADD SWAP3 POP POP POP PUSH1 0x40 MLOAD DUP1 SWAP2 SUB SWAP1 RETURN JUMPDEST CALLVALUE DUP1 ISZERO PUSH2 0x3B8 JUMPI PUSH1 0x0 DUP1 REVERT JUMPDEST POP PUSH2 0x2E7 PUSH1 0x1 PUSH1 0xA0 PUSH1 0x2 EXP SUB PUSH1 0x4 CALLDATALOAD AND PUSH2 0xDC5 JUMP JUMPDEST CALLVALUE DUP1 ISZERO PUSH2 0x3D9 JUMPI PUSH1 0x0 DUP1 REVERT JUMPDEST POP PUSH2 0x2FE PUSH2 0x10E4 JUMP JUMPDEST CALLVALUE DUP1 ISZERO PUSH2 0x3EE JUMPI PUSH1 0x0 DUP1 REVERT JUMPDEST POP PUSH2 0x403 PUSH1 0x1 PUSH1 0xA0 PUSH1 0x2 EXP SUB PUSH1 0x4 CALLDATALOAD AND PUSH2 0x10F0 JUMP JUMPDEST PUSH1 0x40 DUP1 MLOAD SWAP2 ISZERO ISZERO DUP3 MSTORE MLOAD SWAP1 DUP2 SWAP1 SUB PUSH1 0x20 ADD SWAP1 RETURN JUMPDEST CALLVALUE DUP1 ISZERO PUSH2 0x423 JUMPI PUSH1 0x0 DUP1 REVERT JUMPDEST POP PUSH2 0x2E7 PUSH1 0x4 CALLDATALOAD ISZERO ISZERO PUSH2 0x1141 JUMP JUMPDEST CALLVALUE DUP1 ISZERO PUSH2 0x43D JUMPI PUSH1 0x0 DUP1 REVERT JUMPDEST POP PUSH2 0x2FE PUSH1 0x1 PUSH1 0xA0 PUSH1 0x2 EXP SUB PUSH1 0x4 CALLDATALOAD DUP2 AND SWAP1 PUSH1 0x24 CALLDATALOAD AND PUSH2 0x1218 JUMP JUMPDEST CALLVALUE DUP1 ISZERO PUSH2 0x464 JUMPI PUSH1 0x0 DUP1 REVERT JUMPDEST POP PUSH2 0x2FE PUSH2 0x12DC JUMP JUMPDEST CALLVALUE DUP1 ISZERO PUSH2 0x479 JUMPI PUSH1 0x0 DUP1 REVERT JUMPDEST POP PUSH2 0x2FE PUSH2 0x133E JUMP JUMPDEST CALLVALUE DUP1 ISZERO PUSH2 0x48E JUMPI PUSH1 0x0 DUP1 REVERT JUMPDEST POP PUSH2 0x2FE PUSH2 0x13B2 JUMP JUMPDEST CALLVALUE DUP1 ISZERO PUSH2 0x4A3 JUMPI PUSH1 0x0 DUP1 REVERT JUMPDEST POP PUSH2 0x2E7 PUSH1 0x4 CALLDATALOAD PUSH2 0x13BE JUMP JUMPDEST CALLVALUE DUP1 ISZERO PUSH2 0x4BB JUMPI PUSH1 0x0 DUP1 REVERT JUMPDEST POP PUSH2 0x403 PUSH2 0x143E JUMP JUMPDEST PUSH2 0x2E7 PUSH2 0x14F6 JUMP JUMPDEST CALLVALUE DUP1 ISZERO PUSH2 0x4D8 JUMPI PUSH1 0x0 DUP1 REVERT JUMPDEST POP PUSH2 0x2FE PUSH2 0x1503 JUMP JUMPDEST CALLVALUE DUP1 ISZERO PUSH2 0x4ED JUMPI PUSH1 0x0 DUP1 REVERT JUMPDEST POP PUSH2 0x2E7 PUSH1 0x4 CALLDATALOAD PUSH2 0x1565 JUMP JUMPDEST CALLVALUE DUP1 ISZERO PUSH2 0x505 JUMPI PUSH1 0x0 DUP1 REVERT JUMPDEST POP PUSH2 0x2FE PUSH2 0x15AC JUMP JUMPDEST CALLVALUE DUP1 ISZERO PUSH2 0x51A JUMPI PUSH1 0x0 DUP1 REVERT JUMPDEST POP PUSH2 0x328 PUSH1 0x4 CALLDATALOAD PUSH2 0x15BA JUMP JUMPDEST PUSH2 0x2E7 PUSH1 0x1 PUSH1 0xA0 PUSH1 0x2 EXP SUB PUSH1 0x4 CALLDATALOAD AND PUSH2 0x161C JUMP JUMPDEST CALLVALUE DUP1 ISZERO PUSH2 0x546 JUMPI PUSH1 0x0 DUP1 REVERT JUMPDEST POP PUSH2 0x403 PUSH2 0x1627 JUMP JUMPDEST CALLVALUE DUP1 ISZERO PUSH2 0x55B JUMPI PUSH1 0x0 DUP1 REVERT JUMPDEST POP PUSH2 0x35C PUSH2 0x1630 JUMP JUMPDEST CALLVALUE DUP1 ISZERO PUSH2 0x570 JUMPI PUSH1 0x0 DUP1 REVERT JUMPDEST POP PUSH2 0x35C PUSH2 0x1739 JUMP JUMPDEST CALLVALUE DUP1 ISZERO PUSH2 0x585 JUMPI PUSH1 0x0 DUP1 REVERT JUMPDEST POP PUSH2 0x59D PUSH1 0x1 PUSH1 0xA0 PUSH1 0x2 EXP SUB PUSH1 0x4 CALLDATALOAD AND PUSH1 0x24 CALLDATALOAD PUSH2 0x179B JUMP JUMPDEST PUSH1 0x40 MLOAD DUP1 DUP1 PUSH1 0x20 ADD DUP1 PUSH1 0x20 ADD DUP4 DUP2 SUB DUP4 MSTORE DUP6 DUP2 DUP2 MLOAD DUP2 MSTORE PUSH1 0x20 ADD SWAP2 POP DUP1 MLOAD SWAP1 PUSH1 0x20 ADD SWAP1 PUSH1 0x20 MUL DUP1 DUP4 DUP4 PUSH1 0x0 JUMPDEST DUP4 DUP2 LT ISZERO PUSH2 0x5E1 JUMPI DUP2 DUP2 ADD MLOAD DUP4 DUP3 ADD MSTORE PUSH1 0x20 ADD PUSH2 0x5C9 JUMP JUMPDEST POP POP POP POP SWAP1 POP ADD DUP4 DUP2 SUB DUP3 MSTORE DUP5 DUP2 DUP2 MLOAD DUP2 MSTORE PUSH1 0x20 ADD SWAP2 POP DUP1 MLOAD SWAP1 PUSH1 0x20 ADD SWAP1 PUSH1 0x20 MUL DUP1 DUP4 DUP4 PUSH1 0x0 JUMPDEST DUP4 DUP2 LT ISZERO PUSH2 0x620 JUMPI DUP2 DUP2 ADD MLOAD DUP4 DUP3 ADD MSTORE PUSH1 0x20 ADD PUSH2 0x608 JUMP JUMPDEST POP POP POP POP SWAP1 POP ADD SWAP5 POP POP POP POP POP PUSH1 0x40 MLOAD DUP1 SWAP2 SUB SWAP1 RETURN JUMPDEST CALLVALUE DUP1 ISZERO PUSH2 0x642 JUMPI PUSH1 0x0 DUP1 REVERT JUMPDEST POP PUSH2 0x2FE PUSH2 0x189A JUMP JUMPDEST CALLVALUE DUP1 ISZERO PUSH2 0x657 JUMPI PUSH1 0x0 DUP1 REVERT JUMPDEST POP PUSH2 0x2E7 PUSH2 0x189F JUMP JUMPDEST CALLVALUE DUP1 ISZERO PUSH2 0x66C JUMPI PUSH1 0x0 DUP1 REVERT JUMPDEST POP PUSH2 0x2E7 PUSH2 0x18CF JUMP JUMPDEST CALLVALUE DUP1 ISZERO PUSH2 0x681 JUMPI PUSH1 0x0 DUP1 REVERT JUMPDEST POP PUSH2 0x2FE PUSH2 0x1908 JUMP JUMPDEST CALLVALUE DUP1 ISZERO PUSH2 0x696 JUMPI PUSH1 0x0 DUP1 REVERT JUMPDEST POP PUSH2 0x2FE PUSH2 0x190E JUMP JUMPDEST CALLVALUE DUP1 ISZERO PUSH2 0x6AB JUMPI PUSH1 0x0 DUP1 REVERT JUMPDEST POP PUSH2 0x2E7 PUSH2 0x1914 JUMP JUMPDEST CALLVALUE DUP1 ISZERO PUSH2 0x6C0 JUMPI PUSH1 0x0 DUP1 REVERT JUMPDEST POP PUSH2 0x2FE PUSH2 0x1A8D JUMP JUMPDEST CALLVALUE DUP1 ISZERO PUSH2 0x6D5 JUMPI PUSH1 0x0 DUP1 REVERT JUMPDEST POP PUSH2 0x2FE PUSH1 0x1 PUSH1 0xA0 PUSH1 0x2 EXP SUB PUSH1 0x4 CALLDATALOAD AND PUSH2 0x1A93 JUMP JUMPDEST CALLVALUE DUP1 ISZERO PUSH2 0x6F6 JUMPI PUSH1 0x0 DUP1 REVERT JUMPDEST POP PUSH2 0x2FE PUSH1 0x1 PUSH1 0xA0 PUSH1 0x2 EXP SUB PUSH1 0x4 CALLDATALOAD AND PUSH2 0x1B57 JUMP JUMPDEST CALLVALUE DUP1 ISZERO PUSH2 0x717 JUMPI PUSH1 0x0 DUP1 REVERT JUMPDEST POP PUSH2 0x2FE PUSH2 0x1BD9 JUMP JUMPDEST CALLVALUE DUP1 ISZERO PUSH2 0x72C JUMPI PUSH1 0x0 DUP1 REVERT JUMPDEST POP PUSH2 0x2E7 PUSH1 0x1 PUSH1 0xA0 PUSH1 0x2 EXP SUB PUSH1 0x4 CALLDATALOAD AND PUSH2 0x1BDF JUMP JUMPDEST CALLVALUE DUP1 ISZERO PUSH2 0x74D JUMPI PUSH1 0x0 DUP1 REVERT JUMPDEST POP PUSH2 0x2FE PUSH2 0x1EFF JUMP JUMPDEST CALLVALUE DUP1 ISZERO PUSH2 0x762 JUMPI PUSH1 0x0 DUP1 REVERT JUMPDEST POP PUSH2 0x2FE PUSH2 0x1F04 JUMP JUMPDEST CALLVALUE DUP1 ISZERO PUSH2 0x777 JUMPI PUSH1 0x0 DUP1 REVERT JUMPDEST POP PUSH2 0x35C PUSH1 0x1 PUSH1 0xA0 PUSH1 0x2 EXP SUB PUSH1 0x4 CALLDATALOAD AND PUSH2 0x1F29 JUMP JUMPDEST CALLVALUE DUP1 ISZERO PUSH2 0x798 JUMPI PUSH1 0x0 DUP1 REVERT JUMPDEST POP PUSH2 0x403 PUSH2 0x1FAB JUMP JUMPDEST CALLVALUE DUP1 ISZERO PUSH2 0x7AD JUMPI PUSH1 0x0 DUP1 REVERT JUMPDEST POP PUSH2 0x328 PUSH1 0x4 CALLDATALOAD PUSH2 0x201F JUMP JUMPDEST CALLVALUE DUP1 ISZERO PUSH2 0x7C5 JUMPI PUSH1 0x0 DUP1 REVERT JUMPDEST POP PUSH2 0x2FE PUSH2 0x2081 JUMP JUMPDEST CALLVALUE DUP1 ISZERO PUSH2 0x7DA JUMPI PUSH1 0x0 DUP1 REVERT JUMPDEST POP PUSH2 0x2FE PUSH2 0x208D JUMP JUMPDEST CALLVALUE DUP1 ISZERO PUSH2 0x7EF JUMPI PUSH1 0x0 DUP1 REVERT JUMPDEST POP PUSH2 0x2E7 PUSH2 0x2101 JUMP JUMPDEST CALLVALUE DUP1 ISZERO PUSH2 0x804 JUMPI PUSH1 0x0 DUP1 REVERT JUMPDEST POP PUSH2 0x2FE PUSH2 0x21C4 JUMP JUMPDEST CALLVALUE DUP1 ISZERO PUSH2 0x819 JUMPI PUSH1 0x0 DUP1 REVERT JUMPDEST POP PUSH2 0x2FE PUSH1 0x1 PUSH1 0xA0 PUSH1 0x2 EXP SUB PUSH1 0x4 CALLDATALOAD AND PUSH2 0x2226 JUMP JUMPDEST CALLVALUE DUP1 ISZERO PUSH2 0x83A JUMPI PUSH1 0x0 DUP1 REVERT JUMPDEST POP PUSH2 0x403 PUSH1 0x1 PUSH1 0xA0 PUSH1 0x2 EXP SUB PUSH1 0x4 CALLDATALOAD DUP2 AND SWAP1 PUSH1 0x24 CALLDATALOAD AND PUSH2 0x22BA JUMP JUMPDEST CALLVALUE DUP1 ISZERO PUSH2 0x861 JUMPI PUSH1 0x0 DUP1 REVERT JUMPDEST POP PUSH2 0x35C PUSH2 0x230E JUMP JUMPDEST CALLVALUE DUP1 ISZERO PUSH2 0x876 JUMPI PUSH1 0x0 DUP1 REVERT JUMPDEST POP PUSH2 0x2FE PUSH2 0x2370 JUMP JUMPDEST CALLVALUE DUP1 ISZERO PUSH2 0x88B JUMPI PUSH1 0x0 DUP1 REVERT JUMPDEST POP PUSH2 0x35C PUSH2 0x2376 JUMP JUMPDEST CALLVALUE DUP1 ISZERO PUSH2 0x8A0 JUMPI PUSH1 0x0 DUP1 REVERT JUMPDEST POP PUSH2 0x2FE PUSH2 0x23D8 JUMP JUMPDEST CALLVALUE DUP1 ISZERO PUSH2 0x8B5 JUMPI PUSH1 0x0 DUP1 REVERT JUMPDEST POP PUSH2 0x35C PUSH2 0x244C JUMP JUMPDEST CALLVALUE DUP1 ISZERO PUSH2 0x8CA JUMPI PUSH1 0x0 DUP1 REVERT JUMPDEST POP PUSH2 0x2FE PUSH1 0x1 PUSH1 0xA0 PUSH1 0x2 EXP SUB PUSH1 0x4 CALLDATALOAD AND PUSH2 0x2456 JUMP JUMPDEST CALLVALUE DUP1 ISZERO PUSH2 0x8EB JUMPI PUSH1 0x0 DUP1 REVERT JUMPDEST POP PUSH2 0x2E7 PUSH1 0x1 PUSH1 0xA0 PUSH1 0x2 EXP SUB PUSH1 0x4 CALLDATALOAD AND PUSH2 0x24D8 JUMP JUMPDEST CALLVALUE DUP1 ISZERO PUSH2 0x90C JUMPI PUSH1 0x0 DUP1 REVERT JUMPDEST POP PUSH2 0x2FE PUSH2 0x260E JUMP JUMPDEST CALLVALUE DUP1 ISZERO PUSH2 0x921 JUMPI PUSH1 0x0 DUP1 REVERT JUMPDEST POP PUSH2 0x2FE PUSH2 0x261D JUMP JUMPDEST CALLVALUE DUP1 ISZERO PUSH2 0x936 JUMPI PUSH1 0x0 DUP1 REVERT JUMPDEST POP PUSH2 0x2FE PUSH1 0x1 PUSH1 0xA0 PUSH1 0x2 EXP SUB PUSH1 0x4 CALLDATALOAD AND PUSH2 0x262B JUMP JUMPDEST CALLVALUE DUP1 ISZERO PUSH2 0x957 JUMPI PUSH1 0x0 DUP1 REVERT JUMPDEST POP PUSH2 0x2FE PUSH1 0x1 PUSH1 0xA0 PUSH1 0x2 EXP SUB PUSH1 0x4 CALLDATALOAD AND PUSH2 0x26AD JUMP JUMPDEST CALLVALUE DUP1 ISZERO PUSH2 0x978 JUMPI PUSH1 0x0 DUP1 REVERT JUMPDEST POP PUSH2 0x328 PUSH1 0x1 PUSH1 0xA0 PUSH1 0x2 EXP SUB PUSH1 0x4 CALLDATALOAD AND PUSH1 0x24 CALLDATALOAD PUSH2 0x272F JUMP JUMPDEST CALLVALUE DUP1 ISZERO PUSH2 0x99C JUMPI PUSH1 0x0 DUP1 REVERT JUMPDEST POP PUSH2 0x328 PUSH2 0x2817 JUMP JUMPDEST CALLVALUE DUP1 ISZERO PUSH2 0x9B1 JUMPI PUSH1 0x0 DUP1 REVERT JUMPDEST POP PUSH2 0x2FE PUSH1 0x1 PUSH1 0xA0 PUSH1 0x2 EXP SUB PUSH1 0x4 CALLDATALOAD AND PUSH2 0x28D5 JUMP JUMPDEST CALLVALUE DUP1 ISZERO PUSH2 0x9D2 JUMPI PUSH1 0x0 DUP1 REVERT JUMPDEST POP PUSH2 0x403 PUSH2 0x2969 JUMP JUMPDEST CALLVALUE DUP1 ISZERO PUSH2 0x9E7 JUMPI PUSH1 0x0 DUP1 REVERT JUMPDEST POP PUSH2 0x2E7 PUSH1 0x1 PUSH1 0xA0 PUSH1 0x2 EXP SUB PUSH1 0x4 CALLDATALOAD AND PUSH1 0x24 CALLDATALOAD PUSH2 0x29DD JUMP JUMPDEST CALLVALUE DUP1 ISZERO PUSH2 0xA0B JUMPI PUSH1 0x0 DUP1 REVERT JUMPDEST POP PUSH2 0x403 PUSH1 0x1 PUSH1 0xA0 PUSH1 0x2 EXP SUB PUSH1 0x4 CALLDATALOAD AND PUSH2 0x29E8 JUMP JUMPDEST CALLVALUE DUP1 ISZERO PUSH2 0xA2C JUMPI PUSH1 0x0 DUP1 REVERT JUMPDEST POP PUSH2 0x403 PUSH1 0x1 PUSH1 0xA0 PUSH1 0x2 EXP SUB PUSH1 0x4 CALLDATALOAD AND PUSH2 0x2A2E JUMP JUMPDEST CALLVALUE DUP1 ISZERO PUSH2 0xA4D JUMPI PUSH1 0x0 DUP1 REVERT JUMPDEST POP PUSH2 0x2FE PUSH2 0x2A74 JUMP JUMPDEST PUSH1 0x1 PUSH1 0xA0 PUSH1 0x2 EXP SUB DUP4 AND ISZERO ISZERO PUSH2 0xA6B JUMPI PUSH1 0x0 DUP1 REVERT JUMPDEST PUSH1 0x0 DUP3 GT PUSH2 0xA78 JUMPI PUSH1 0x0 DUP1 REVERT JUMPDEST PUSH1 0x1 PUSH1 0xA0 PUSH1 0x2 EXP SUB DUP2 AND ISZERO ISZERO PUSH2 0xA8D JUMPI PUSH1 0x0 DUP1 REVERT JUMPDEST PUSH2 0xA98 DUP4 DUP3 DUP5 PUSH2 0x2A83 JUMP JUMPDEST PUSH2 0xAA2 DUP2 DUP4 PUSH2 0x2C3E JUMP JUMPDEST PUSH2 0xAAA PUSH2 0x2A74 JUMP JUMPDEST PUSH2 0xAB3 DUP3 PUSH2 0x2456 JUMP JUMPDEST GT ISZERO PUSH2 0xABE JUMPI PUSH1 0x0 DUP1 REVERT JUMPDEST PUSH2 0xAC6 PUSH2 0x15AC JUMP JUMPDEST PUSH2 0xACF DUP3 PUSH2 0x2456 JUMP JUMPDEST LT ISZERO DUP1 ISZERO PUSH2 0xAE3 JUMPI POP PUSH2 0xAE1 DUP2 PUSH2 0x2A2E JUMP JUMPDEST ISZERO JUMPDEST ISZERO PUSH2 0xB03 JUMPI PUSH2 0xAF1 DUP2 PUSH2 0x2D85 JUMP JUMPDEST PUSH2 0xB03 DUP2 PUSH8 0x214E8348C4F0000 PUSH2 0x2E68 JUMP JUMPDEST PUSH2 0xB0C DUP2 PUSH2 0x29E8 JUMP JUMPDEST ISZERO PUSH2 0xB1A JUMPI PUSH2 0xB1A DUP3 PUSH2 0x2EFB JUMP JUMPDEST POP POP POP JUMP JUMPDEST PUSH1 0x0 PUSH1 0xA PUSH1 0x0 PUSH1 0x40 MLOAD PUSH1 0x20 ADD DUP1 DUP1 PUSH1 0x0 DUP1 MLOAD PUSH1 0x20 PUSH2 0x4E2A DUP4 CODECOPY DUP2 MLOAD SWAP2 MSTORE DUP2 MSTORE POP PUSH1 0x10 ADD SWAP1 POP PUSH1 0x40 MLOAD PUSH1 0x20 DUP2 DUP4 SUB SUB DUP2 MSTORE SWAP1 PUSH1 0x40 MSTORE PUSH1 0x40 MLOAD DUP1 DUP3 DUP1 MLOAD SWAP1 PUSH1 0x20 ADD SWAP1 DUP1 DUP4 DUP4 JUMPDEST PUSH1 0x20 DUP4 LT PUSH2 0xB82 JUMPI DUP1 MLOAD DUP3 MSTORE PUSH1 0x1F NOT SWAP1 SWAP3 ADD SWAP2 PUSH1 0x20 SWAP2 DUP3 ADD SWAP2 ADD PUSH2 0xB63 JUMP JUMPDEST MLOAD DUP2 MLOAD PUSH1 0x20 SWAP4 DUP5 SUB PUSH2 0x100 EXP PUSH1 0x0 NOT ADD DUP1 NOT SWAP1 SWAP3 AND SWAP2 AND OR SWAP1 MSTORE PUSH1 0x40 DUP1 MLOAD SWAP3 SWAP1 SWAP5 ADD DUP3 SWAP1 SUB SWAP1 SWAP2 KECCAK256 DUP7 MSTORE DUP6 ADD SWAP6 SWAP1 SWAP6 MSTORE SWAP3 SWAP1 SWAP3 ADD PUSH1 0x0 KECCAK256 SLOAD SWAP4 POP POP POP POP JUMPDEST SWAP1 JUMP JUMPDEST PUSH1 0x0 PUSH1 0xA PUSH1 0x0 PUSH1 0x40 MLOAD PUSH1 0x20 ADD DUP1 DUP1 PUSH1 0x0 DUP1 MLOAD PUSH1 0x20 PUSH2 0x4E8A DUP4 CODECOPY DUP2 MLOAD SWAP2 MSTORE DUP2 MSTORE POP PUSH1 0x11 ADD SWAP1 POP PUSH1 0x40 MLOAD PUSH1 0x20 DUP2 DUP4 SUB SUB DUP2 MSTORE SWAP1 PUSH1 0x40 MSTORE PUSH1 0x40 MLOAD DUP1 DUP3 DUP1 MLOAD SWAP1 PUSH1 0x20 ADD SWAP1 DUP1 DUP4 DUP4 JUMPDEST PUSH1 0x20 DUP4 LT PUSH2 0xC26 JUMPI DUP1 MLOAD DUP3 MSTORE PUSH1 0x1F NOT SWAP1 SWAP3 ADD SWAP2 PUSH1 0x20 SWAP2 DUP3 ADD SWAP2 ADD PUSH2 0xC07 JUMP JUMPDEST MLOAD DUP2 MLOAD PUSH1 0x20 SWAP4 DUP5 SUB PUSH2 0x100 EXP PUSH1 0x0 NOT ADD DUP1 NOT SWAP1 SWAP3 AND SWAP2 AND OR SWAP1 MSTORE PUSH1 0x40 DUP1 MLOAD SWAP3 SWAP1 SWAP5 ADD DUP3 SWAP1 SUB SWAP1 SWAP2 KECCAK256 DUP7 MSTORE DUP6 ADD SWAP6 SWAP1 SWAP6 MSTORE SWAP3 SWAP1 SWAP3 ADD PUSH1 0x0 KECCAK256 DUP1 SLOAD SWAP1 SWAP4 POP DUP6 SWAP3 POP DUP3 LT SWAP1 POP PUSH2 0xC6F JUMPI INVALID JUMPDEST PUSH1 0x0 SWAP2 DUP3 MSTORE PUSH1 0x20 SWAP1 SWAP2 KECCAK256 ADD SLOAD PUSH1 0x1 PUSH1 0xA0 PUSH1 0x2 EXP SUB AND SWAP3 SWAP2 POP POP JUMP JUMPDEST PUSH1 0x60 PUSH1 0xA PUSH1 0x0 DUP4 PUSH1 0x40 MLOAD PUSH1 0x20 ADD DUP1 DUP1 PUSH32 0x736E617073686F74000000000000000000000000000000000000000000000000 DUP2 MSTORE POP PUSH1 0x8 ADD DUP3 DUP2 MSTORE PUSH1 0x20 ADD DUP1 PUSH32 0x6164647265737365730000000000000000000000000000000000000000000000 DUP2 MSTORE POP PUSH1 0x9 ADD SWAP2 POP POP PUSH1 0x40 MLOAD PUSH1 0x20 DUP2 DUP4 SUB SUB DUP2 MSTORE SWAP1 PUSH1 0x40 MSTORE PUSH1 0x40 MLOAD DUP1 DUP3 DUP1 MLOAD SWAP1 PUSH1 0x20 ADD SWAP1 DUP1 DUP4 DUP4 JUMPDEST PUSH1 0x20 DUP4 LT PUSH2 0xD2F JUMPI DUP1 MLOAD DUP3 MSTORE PUSH1 0x1F NOT SWAP1 SWAP3 ADD SWAP2 PUSH1 0x20 SWAP2 DUP3 ADD SWAP2 ADD PUSH2 0xD10 JUMP JUMPDEST MLOAD DUP2 MLOAD PUSH1 0x20 SWAP4 DUP5 SUB PUSH2 0x100 EXP PUSH1 0x0 NOT ADD DUP1 NOT SWAP1 SWAP3 AND SWAP2 AND OR SWAP1 MSTORE PUSH1 0x40 DUP1 MLOAD SWAP3 SWAP1 SWAP5 ADD DUP3 SWAP1 SUB SWAP1 SWAP2 KECCAK256 DUP7 MSTORE DUP6 DUP2 ADD SWAP7 SWAP1 SWAP7 MSTORE POP SWAP3 DUP4 ADD PUSH1 0x0 KECCAK256 DUP1 SLOAD DUP5 MLOAD DUP2 DUP8 MUL DUP2 ADD DUP8 ADD SWAP1 SWAP6 MSTORE DUP1 DUP6 MSTORE SWAP4 SWAP5 SWAP1 SWAP4 SWAP3 POP DUP5 ADD SWAP1 POP DUP3 DUP3 DUP1 ISZERO PUSH2 0xDB9 JUMPI PUSH1 0x20 MUL DUP3 ADD SWAP2 SWAP1 PUSH1 0x0 MSTORE PUSH1 0x20 PUSH1 0x0 KECCAK256 SWAP1 JUMPDEST DUP2 SLOAD PUSH1 0x1 PUSH1 0xA0 PUSH1 0x2 EXP SUB AND DUP2 MSTORE PUSH1 0x1 SWAP1 SWAP2 ADD SWAP1 PUSH1 0x20 ADD DUP1 DUP4 GT PUSH2 0xD9B JUMPI JUMPDEST POP POP POP POP POP SWAP1 POP SWAP2 SWAP1 POP JUMP JUMPDEST PUSH1 0x4 PUSH1 0x0 PUSH1 0x40 MLOAD PUSH1 0x20 ADD DUP1 DUP1 PUSH32 0x6F776E6572000000000000000000000000000000000000000000000000000000 DUP2 MSTORE POP PUSH1 0x5 ADD SWAP1 POP PUSH1 0x40 MLOAD PUSH1 0x20 DUP2 DUP4 SUB SUB DUP2 MSTORE SWAP1 PUSH1 0x40 MSTORE PUSH1 0x40 MLOAD DUP1 DUP3 DUP1 MLOAD SWAP1 PUSH1 0x20 ADD SWAP1 DUP1 DUP4 DUP4 JUMPDEST PUSH1 0x20 DUP4 LT PUSH2 0xE38 JUMPI DUP1 MLOAD DUP3 MSTORE PUSH1 0x1F NOT SWAP1 SWAP3 ADD SWAP2 PUSH1 0x20 SWAP2 DUP3 ADD SWAP2 ADD PUSH2 0xE19 JUMP JUMPDEST MLOAD DUP2 MLOAD PUSH1 0x20 SWAP4 DUP5 SUB PUSH2 0x100 EXP PUSH1 0x0 NOT ADD DUP1 NOT SWAP1 SWAP3 AND SWAP2 AND OR SWAP1 MSTORE PUSH1 0x40 DUP1 MLOAD SWAP3 SWAP1 SWAP5 ADD DUP3 SWAP1 SUB SWAP1 SWAP2 KECCAK256 DUP7 MSTORE DUP6 ADD SWAP6 SWAP1 SWAP6 MSTORE SWAP3 SWAP1 SWAP3 ADD PUSH1 0x0 KECCAK256 SLOAD PUSH1 0x1 PUSH1 0xA0 PUSH1 0x2 EXP SUB AND CALLER EQ SWAP3 POP PUSH2 0xE89 SWAP2 POP POP JUMPI PUSH1 0x0 DUP1 REVERT JUMPDEST PUSH1 0x1 PUSH1 0xA0 PUSH1 0x2 EXP SUB DUP2 AND ISZERO ISZERO PUSH2 0xE9E JUMPI PUSH1 0x0 DUP1 REVERT JUMPDEST PUSH1 0x6 PUSH1 0x0 PUSH1 0x40 MLOAD PUSH1 0x20 ADD DUP1 DUP1 PUSH32 0x77617350726F787953746F726167655365740000000000000000000000000000 DUP2 MSTORE POP PUSH1 0x12 ADD SWAP1 POP PUSH1 0x40 MLOAD PUSH1 0x20 DUP2 DUP4 SUB SUB DUP2 MSTORE SWAP1 PUSH1 0x40 MSTORE PUSH1 0x40 MLOAD DUP1 DUP3 DUP1 MLOAD SWAP1 PUSH1 0x20 ADD SWAP1 DUP1 DUP4 DUP4 JUMPDEST PUSH1 0x20 DUP4 LT PUSH2 0xF11 JUMPI DUP1 MLOAD DUP3 MSTORE PUSH1 0x1F NOT SWAP1 SWAP3 ADD SWAP2 PUSH1 0x20 SWAP2 DUP3 ADD SWAP2 ADD PUSH2 0xEF2 JUMP JUMPDEST MLOAD DUP2 MLOAD PUSH1 0x20 SWAP4 DUP5 SUB PUSH2 0x100 EXP PUSH1 0x0 NOT ADD DUP1 NOT SWAP1 SWAP3 AND SWAP2 AND OR SWAP1 MSTORE PUSH1 0x40 DUP1 MLOAD SWAP3 SWAP1 SWAP5 ADD DUP3 SWAP1 SUB SWAP1 SWAP2 KECCAK256 DUP7 MSTORE DUP6 ADD SWAP6 SWAP1 SWAP6 MSTORE SWAP3 SWAP1 SWAP3 ADD PUSH1 0x0 KECCAK256 SLOAD PUSH1 0xFF AND ISZERO SWAP3 POP PUSH2 0xF5B SWAP2 POP POP JUMPI PUSH1 0x0 DUP1 REVERT JUMPDEST DUP1 PUSH1 0x4 PUSH1 0x0 PUSH1 0x40 MLOAD PUSH1 0x20 ADD DUP1 DUP1 PUSH32 0x70726F787953746F726167650000000000000000000000000000000000000000 DUP2 MSTORE POP PUSH1 0xC ADD SWAP1 POP PUSH1 0x40 MLOAD PUSH1 0x20 DUP2 DUP4 SUB SUB DUP2 MSTORE SWAP1 PUSH1 0x40 MSTORE PUSH1 0x40 MLOAD DUP1 DUP3 DUP1 MLOAD SWAP1 PUSH1 0x20 ADD SWAP1 DUP1 DUP4 DUP4 JUMPDEST PUSH1 0x20 DUP4 LT PUSH2 0xFCF JUMPI DUP1 MLOAD DUP3 MSTORE PUSH1 0x1F NOT SWAP1 SWAP3 ADD SWAP2 PUSH1 0x20 SWAP2 DUP3 ADD SWAP2 ADD PUSH2 0xFB0 JUMP JUMPDEST MLOAD DUP2 MLOAD PUSH1 0x20 SWAP4 DUP5 SUB PUSH2 0x100 EXP PUSH1 0x0 NOT ADD DUP1 NOT SWAP1 SWAP3 AND SWAP2 AND OR SWAP1 MSTORE PUSH1 0x40 DUP1 MLOAD SWAP3 SWAP1 SWAP5 ADD DUP3 SWAP1 SUB SWAP1 SWAP2 KECCAK256 DUP7 MSTORE DUP6 DUP2 ADD SWAP7 SWAP1 SWAP7 MSTORE POP SWAP3 DUP4 ADD PUSH1 0x0 SWAP1 DUP2 KECCAK256 DUP1 SLOAD PUSH1 0x1 PUSH1 0xA0 PUSH1 0x2 EXP SUB NOT AND PUSH1 0x1 PUSH1 0xA0 PUSH1 0x2 EXP SUB SWAP8 SWAP1 SWAP8 AND SWAP7 SWAP1 SWAP7 OR SWAP1 SWAP6 SSTORE POP POP DUP1 MLOAD PUSH32 0x77617350726F787953746F726167655365740000000000000000000000000000 DUP2 DUP5 ADD MSTORE DUP2 MLOAD PUSH1 0x12 DUP2 DUP4 SUB ADD DUP2 MSTORE PUSH1 0x32 SWAP1 SWAP2 ADD SWAP2 DUP3 SWAP1 MSTORE DUP1 MLOAD PUSH1 0x1 SWAP5 PUSH1 0x6 SWAP5 SWAP1 SWAP4 SWAP2 DUP3 SWAP2 DUP5 ADD SWAP1 DUP1 DUP4 DUP4 JUMPDEST PUSH1 0x20 DUP4 LT PUSH2 0x1097 JUMPI DUP1 MLOAD DUP3 MSTORE PUSH1 0x1F NOT SWAP1 SWAP3 ADD SWAP2 PUSH1 0x20 SWAP2 DUP3 ADD SWAP2 ADD PUSH2 0x1078 JUMP JUMPDEST MLOAD DUP2 MLOAD PUSH1 0x20 SWAP4 DUP5 SUB PUSH2 0x100 EXP PUSH1 0x0 NOT ADD DUP1 NOT SWAP1 SWAP3 AND SWAP2 AND OR SWAP1 MSTORE PUSH1 0x40 DUP1 MLOAD SWAP3 SWAP1 SWAP5 ADD DUP3 SWAP1 SUB SWAP1 SWAP2 KECCAK256 DUP7 MSTORE DUP6 ADD SWAP6 SWAP1 SWAP6 MSTORE SWAP3 SWAP1 SWAP3 ADD PUSH1 0x0 KECCAK256 DUP1 SLOAD PUSH1 0xFF NOT AND SWAP5 ISZERO ISZERO SWAP5 SWAP1 SWAP5 OR SWAP1 SWAP4 SSTORE POP POP POP POP JUMP JUMPDEST PUSH8 0x214E8348C4F0000 SWAP1 JUMP JUMPDEST PUSH1 0x0 DUP1 JUMPDEST PUSH2 0x10FC PUSH2 0xB1F JUMP JUMPDEST DUP2 LT ISZERO PUSH2 0x1136 JUMPI PUSH2 0x110C DUP2 PUSH2 0x201F JUMP JUMPDEST PUSH1 0x1 PUSH1 0xA0 PUSH1 0x2 EXP SUB AND DUP4 PUSH1 0x1 PUSH1 0xA0 PUSH1 0x2 EXP SUB AND EQ ISZERO PUSH2 0x112E JUMPI PUSH1 0x1 SWAP2 POP PUSH2 0x113B JUMP JUMPDEST PUSH1 0x1 ADD PUSH2 0x10F4 JUMP JUMPDEST PUSH1 0x0 SWAP2 POP JUMPDEST POP SWAP2 SWAP1 POP JUMP JUMPDEST PUSH1 0x4 PUSH1 0x0 PUSH1 0x40 MLOAD PUSH1 0x20 ADD DUP1 DUP1 PUSH32 0x6F776E6572000000000000000000000000000000000000000000000000000000 DUP2 MSTORE POP PUSH1 0x5 ADD SWAP1 POP PUSH1 0x40 MLOAD PUSH1 0x20 DUP2 DUP4 SUB SUB DUP2 MSTORE SWAP1 PUSH1 0x40 MSTORE PUSH1 0x40 MLOAD DUP1 DUP3 DUP1 MLOAD SWAP1 PUSH1 0x20 ADD SWAP1 DUP1 DUP4 DUP4 JUMPDEST PUSH1 0x20 DUP4 LT PUSH2 0x11B4 JUMPI DUP1 MLOAD DUP3 MSTORE PUSH1 0x1F NOT SWAP1 SWAP3 ADD SWAP2 PUSH1 0x20 SWAP2 DUP3 ADD SWAP2 ADD PUSH2 0x1195 JUMP JUMPDEST MLOAD DUP2 MLOAD PUSH1 0x20 SWAP4 DUP5 SUB PUSH2 0x100 EXP PUSH1 0x0 NOT ADD DUP1 NOT SWAP1 SWAP3 AND SWAP2 AND OR SWAP1 MSTORE PUSH1 0x40 DUP1 MLOAD SWAP3 SWAP1 SWAP5 ADD DUP3 SWAP1 SUB SWAP1 SWAP2 KECCAK256 DUP7 MSTORE DUP6 ADD SWAP6 SWAP1 SWAP6 MSTORE SWAP3 SWAP1 SWAP3 ADD PUSH1 0x0 KECCAK256 SLOAD PUSH1 0x1 PUSH1 0xA0 PUSH1 0x2 EXP SUB AND CALLER EQ SWAP3 POP PUSH2 0x1205 SWAP2 POP POP JUMPI PUSH1 0x0 DUP1 REVERT JUMPDEST PUSH1 0xF DUP1 SLOAD PUSH1 0xFF NOT AND SWAP2 ISZERO ISZERO SWAP2 SWAP1 SWAP2 OR SWAP1 SSTORE JUMP JUMPDEST PUSH1 0x40 DUP1 MLOAD PUSH1 0x0 DUP1 MLOAD PUSH1 0x20 PUSH2 0x4F2A DUP4 CODECOPY DUP2 MLOAD SWAP2 MSTORE PUSH1 0x20 DUP1 DUP4 ADD SWAP2 SWAP1 SWAP2 MSTORE PUSH1 0x60 PUSH1 0x2 EXP PUSH1 0x1 PUSH1 0xA0 PUSH1 0x2 EXP SUB DUP1 DUP8 AND DUP3 MUL PUSH1 0x2F DUP6 ADD MSTORE DUP6 AND MUL PUSH1 0x43 DUP4 ADD MSTORE DUP3 MLOAD PUSH1 0x37 DUP2 DUP5 SUB ADD DUP2 MSTORE PUSH1 0x57 SWAP1 SWAP3 ADD SWAP3 DUP4 SWAP1 MSTORE DUP2 MLOAD PUSH1 0x0 SWAP4 PUSH1 0x2 SWAP4 DUP6 SWAP4 SWAP1 SWAP3 DUP3 SWAP2 DUP5 ADD SWAP1 DUP1 DUP4 DUP4 JUMPDEST PUSH1 0x20 DUP4 LT PUSH2 0x129A JUMPI DUP1 MLOAD DUP3 MSTORE PUSH1 0x1F NOT SWAP1 SWAP3 ADD SWAP2 PUSH1 0x20 SWAP2 DUP3 ADD SWAP2 ADD PUSH2 0x127B JUMP JUMPDEST MLOAD DUP2 MLOAD PUSH1 0x20 SWAP4 DUP5 SUB PUSH2 0x100 EXP PUSH1 0x0 NOT ADD DUP1 NOT SWAP1 SWAP3 AND SWAP2 AND OR SWAP1 MSTORE PUSH1 0x40 DUP1 MLOAD SWAP3 SWAP1 SWAP5 ADD DUP3 SWAP1 SUB SWAP1 SWAP2 KECCAK256 DUP7 MSTORE DUP6 ADD SWAP6 SWAP1 SWAP6 MSTORE SWAP3 SWAP1 SWAP3 ADD PUSH1 0x0 KECCAK256 SLOAD SWAP7 SWAP6 POP POP POP POP POP POP JUMP JUMPDEST PUSH1 0x0 PUSH1 0xA PUSH1 0x0 PUSH1 0x40 MLOAD PUSH1 0x20 ADD DUP1 DUP1 PUSH1 0x0 DUP1 MLOAD PUSH1 0x20 PUSH2 0x4E8A DUP4 CODECOPY DUP2 MLOAD SWAP2 MSTORE DUP2 MSTORE POP PUSH1 0x11 ADD SWAP1 POP PUSH1 0x40 MLOAD PUSH1 0x20 DUP2 DUP4 SUB SUB DUP2 MSTORE SWAP1 PUSH1 0x40 MSTORE PUSH1 0x40 MLOAD DUP1 DUP3 DUP1 MLOAD SWAP1 PUSH1 0x20 ADD SWAP1 DUP1 DUP4 DUP4 PUSH1 0x20 DUP4 LT PUSH2 0xB82 JUMPI DUP1 MLOAD DUP3 MSTORE PUSH1 0x1F NOT SWAP1 SWAP3 ADD SWAP2 PUSH1 0x20 SWAP2 DUP3 ADD SWAP2 ADD PUSH2 0xB63 JUMP JUMPDEST PUSH1 0x0 PUSH1 0xA PUSH1 0x0 PUSH1 0x40 MLOAD PUSH1 0x20 ADD DUP1 DUP1 PUSH32 0x6E657756616C696461746F725365740000000000000000000000000000000000 DUP2 MSTORE POP PUSH1 0xF ADD SWAP1 POP PUSH1 0x40 MLOAD PUSH1 0x20 DUP2 DUP4 SUB SUB DUP2 MSTORE SWAP1 PUSH1 0x40 MSTORE PUSH1 0x40 MLOAD DUP1 DUP3 DUP1 MLOAD SWAP1 PUSH1 0x20 ADD SWAP1 DUP1 DUP4 DUP4 PUSH1 0x20 DUP4 LT PUSH2 0xB82 JUMPI DUP1 MLOAD DUP3 MSTORE PUSH1 0x1F NOT SWAP1 SWAP3 ADD SWAP2 PUSH1 0x20 SWAP2 DUP3 ADD SWAP2 ADD PUSH2 0xB63 JUMP JUMPDEST PUSH8 0xDE0B6B3A7640000 DUP2 JUMP JUMPDEST PUSH1 0xF SLOAD PUSH1 0xFF AND ISZERO PUSH2 0x1430 JUMPI PUSH1 0x40 DUP1 MLOAD PUSH32 0x8C379A000000000000000000000000000000000000000000000000000000000 DUP2 MSTORE PUSH1 0x20 PUSH1 0x4 DUP3 ADD MSTORE PUSH1 0xF PUSH1 0x24 DUP3 ADD MSTORE PUSH32 0x436F6E7472616374205061757365640000000000000000000000000000000000 PUSH1 0x44 DUP3 ADD MSTORE SWAP1 MLOAD SWAP1 DUP2 SWAP1 SUB PUSH1 0x64 ADD SWAP1 REVERT JUMPDEST PUSH2 0x143B CALLER DUP3 CALLER PUSH2 0x3001 JUMP JUMPDEST POP JUMP JUMPDEST PUSH1 0x0 PUSH1 0x6 PUSH1 0x0 PUSH1 0x40 MLOAD PUSH1 0x20 ADD DUP1 DUP1 PUSH32 0x6973496E697469616C697A656400000000000000000000000000000000000000 DUP2 MSTORE POP PUSH1 0xD ADD SWAP1 POP PUSH1 0x40 MLOAD PUSH1 0x20 DUP2 DUP4 SUB SUB DUP2 MSTORE SWAP1 PUSH1 0x40 MSTORE PUSH1 0x40 MLOAD DUP1 DUP3 DUP1 MLOAD SWAP1 PUSH1 0x20 ADD SWAP1 DUP1 DUP4 DUP4 JUMPDEST PUSH1 0x20 DUP4 LT PUSH2 0x14B3 JUMPI DUP1 MLOAD DUP3 MSTORE PUSH1 0x1F NOT SWAP1 SWAP3 ADD SWAP2 PUSH1 0x20 SWAP2 DUP3 ADD SWAP2 ADD PUSH2 0x1494 JUMP JUMPDEST MLOAD DUP2 MLOAD PUSH1 0x20 SWAP4 DUP5 SUB PUSH2 0x100 EXP PUSH1 0x0 NOT ADD DUP1 NOT SWAP1 SWAP3 AND SWAP2 AND OR SWAP1 MSTORE PUSH1 0x40 DUP1 MLOAD SWAP3 SWAP1 SWAP5 ADD DUP3 SWAP1 SUB SWAP1 SWAP2 KECCAK256 DUP7 MSTORE DUP6 ADD SWAP6 SWAP1 SWAP6 MSTORE SWAP3 SWAP1 SWAP3 ADD PUSH1 0x0 KECCAK256 SLOAD PUSH1 0xFF AND SWAP5 SWAP4 POP POP POP POP JUMP JUMPDEST PUSH2 0x1501 CALLER CALLVALUE CALLER PUSH2 0xA56 JUMP JUMPDEST JUMP JUMPDEST PUSH1 0x0 PUSH1 0xA PUSH1 0x0 PUSH1 0x40 MLOAD PUSH1 0x20 ADD DUP1 DUP1 PUSH1 0x0 DUP1 MLOAD PUSH1 0x20 PUSH2 0x4F0A DUP4 CODECOPY DUP2 MLOAD SWAP2 MSTORE DUP2 MSTORE POP PUSH1 0x11 ADD SWAP1 POP PUSH1 0x40 MLOAD PUSH1 0x20 DUP2 DUP4 SUB SUB DUP2 MSTORE SWAP1 PUSH1 0x40 MSTORE PUSH1 0x40 MLOAD DUP1 DUP3 DUP1 MLOAD SWAP1 PUSH1 0x20 ADD SWAP1 DUP1 DUP4 DUP4 PUSH1 0x20 DUP4 LT PUSH2 0xB82 JUMPI DUP1 MLOAD DUP3 MSTORE PUSH1 0x1F NOT SWAP1 SWAP3 ADD SWAP2 PUSH1 0x20 SWAP2 DUP3 ADD SWAP2 ADD PUSH2 0xB63 JUMP JUMPDEST PUSH2 0x156E CALLER PUSH2 0x29E8 JUMP JUMPDEST ISZERO ISZERO PUSH2 0x1579 JUMPI PUSH1 0x0 DUP1 REVERT JUMPDEST PUSH8 0xDE0B6B3A7640000 DUP2 GT ISZERO PUSH2 0x158E JUMPI PUSH1 0x0 DUP1 REVERT JUMPDEST PUSH2 0x1596 PUSH2 0x10E4 JUMP JUMPDEST DUP2 LT ISZERO PUSH2 0x15A2 JUMPI PUSH1 0x0 DUP1 REVERT JUMPDEST PUSH2 0x143B CALLER DUP3 PUSH2 0x2E68 JUMP JUMPDEST PUSH10 0x152D02C7E14AF6800000 SWAP1 JUMP JUMPDEST PUSH1 0x0 PUSH1 0xA PUSH1 0x0 PUSH1 0x40 MLOAD PUSH1 0x20 ADD DUP1 DUP1 PUSH1 0x0 DUP1 MLOAD PUSH1 0x20 PUSH2 0x4F0A DUP4 CODECOPY DUP2 MLOAD SWAP2 MSTORE DUP2 MSTORE POP PUSH1 0x11 ADD SWAP1 POP PUSH1 0x40 MLOAD PUSH1 0x20 DUP2 DUP4 SUB SUB DUP2 MSTORE SWAP1 PUSH1 0x40 MSTORE PUSH1 0x40 MLOAD DUP1 DUP3 DUP1 MLOAD SWAP1 PUSH1 0x20 ADD SWAP1 DUP1 DUP4 DUP4 PUSH1 0x20 DUP4 LT PUSH2 0xC26 JUMPI DUP1 MLOAD DUP3 MSTORE PUSH1 0x1F NOT SWAP1 SWAP3 ADD SWAP2 PUSH1 0x20 SWAP2 DUP3 ADD SWAP2 ADD PUSH2 0xC07 JUMP JUMPDEST PUSH2 0x143B CALLER CALLVALUE DUP4 PUSH2 0xA56 JUMP JUMPDEST PUSH1 0xF SLOAD PUSH1 0xFF AND DUP2 JUMP JUMPDEST PUSH1 0x60 PUSH1 0xA PUSH1 0x0 PUSH1 0x40 MLOAD PUSH1 0x20 ADD DUP1 DUP1 PUSH32 0x6E657756616C696461746F725365740000000000000000000000000000000000 DUP2 MSTORE POP PUSH1 0xF ADD SWAP1 POP PUSH1 0x40 MLOAD PUSH1 0x20 DUP2 DUP4 SUB SUB DUP2 MSTORE SWAP1 PUSH1 0x40 MSTORE PUSH1 0x40 MLOAD DUP1 DUP3 DUP1 MLOAD SWAP1 PUSH1 0x20 ADD SWAP1 DUP1 DUP4 DUP4 JUMPDEST PUSH1 0x20 DUP4 LT PUSH2 0x16A5 JUMPI DUP1 MLOAD DUP3 MSTORE PUSH1 0x1F NOT SWAP1 SWAP3 ADD SWAP2 PUSH1 0x20 SWAP2 DUP3 ADD SWAP2 ADD PUSH2 0x1686 JUMP JUMPDEST MLOAD DUP2 MLOAD PUSH1 0x20 SWAP4 DUP5 SUB PUSH2 0x100 EXP PUSH1 0x0 NOT ADD DUP1 NOT SWAP1 SWAP3 AND SWAP2 AND OR SWAP1 MSTORE PUSH1 0x40 DUP1 MLOAD SWAP3 SWAP1 SWAP5 ADD DUP3 SWAP1 SUB SWAP1 SWAP2 KECCAK256 DUP7 MSTORE DUP6 DUP2 ADD SWAP7 SWAP1 SWAP7 MSTORE POP SWAP3 DUP4 ADD PUSH1 0x0 KECCAK256 DUP1 SLOAD DUP5 MLOAD DUP2 DUP8 MUL DUP2 ADD DUP8 ADD SWAP1 SWAP6 MSTORE DUP1 DUP6 MSTORE SWAP4 SWAP5 SWAP1 SWAP4 SWAP3 POP DUP5 ADD SWAP1 POP DUP3 DUP3 DUP1 ISZERO PUSH2 0x172F JUMPI PUSH1 0x20 MUL DUP3 ADD SWAP2 SWAP1 PUSH1 0x0 MSTORE PUSH1 0x20 PUSH1 0x0 KECCAK256 SWAP1 JUMPDEST DUP2 SLOAD PUSH1 0x1 PUSH1 0xA0 PUSH1 0x2 EXP SUB AND DUP2 MSTORE PUSH1 0x1 SWAP1 SWAP2 ADD SWAP1 PUSH1 0x20 ADD DUP1 DUP4 GT PUSH2 0x1711 JUMPI JUMPDEST POP POP POP POP POP SWAP1 POP SWAP1 JUMP JUMPDEST PUSH1 0x60 PUSH1 0xA PUSH1 0x0 PUSH1 0x40 MLOAD PUSH1 0x20 ADD DUP1 DUP1 PUSH1 0x0 DUP1 MLOAD PUSH1 0x20 PUSH2 0x4E2A DUP4 CODECOPY DUP2 MLOAD SWAP2 MSTORE DUP2 MSTORE POP PUSH1 0x10 ADD SWAP1 POP PUSH1 0x40 MLOAD PUSH1 0x20 DUP2 DUP4 SUB SUB DUP2 MSTORE SWAP1 PUSH1 0x40 MSTORE PUSH1 0x40 MLOAD DUP1 DUP3 DUP1 MLOAD SWAP1 PUSH1 0x20 ADD SWAP1 DUP1 DUP4 DUP4 PUSH1 0x20 DUP4 LT PUSH2 0x16A5 JUMPI DUP1 MLOAD DUP3 MSTORE PUSH1 0x1F NOT SWAP1 SWAP3 ADD SWAP2 PUSH1 0x20 SWAP2 DUP3 ADD SWAP2 ADD PUSH2 0x1686 JUMP JUMPDEST PUSH1 0x60 DUP1 PUSH1 0x60 DUP1 PUSH1 0x0 DUP1 PUSH1 0x0 PUSH2 0x17AF DUP10 PUSH2 0x1F29 JUMP JUMPDEST SWAP5 POP DUP5 MLOAD PUSH1 0x40 MLOAD SWAP1 DUP1 DUP3 MSTORE DUP1 PUSH1 0x20 MUL PUSH1 0x20 ADD DUP3 ADD PUSH1 0x40 MSTORE DUP1 ISZERO PUSH2 0x17DC JUMPI DUP2 PUSH1 0x20 ADD PUSH1 0x20 DUP3 MUL DUP1 CODESIZE DUP4 CODECOPY ADD SWAP1 POP JUMPDEST POP SWAP4 POP PUSH2 0x17F8 PUSH2 0x17EA PUSH2 0x15AC JUMP JUMPDEST PUSH2 0x17F3 DUP12 PUSH2 0x2456 JUMP JUMPDEST PUSH2 0x311B JUMP JUMPDEST SWAP3 POP JUMPDEST DUP5 MLOAD DUP3 LT ISZERO PUSH2 0x188B JUMPI PUSH2 0x1817 PUSH2 0x1811 DUP11 DUP5 PUSH2 0x272F JUMP JUMPDEST DUP11 PUSH2 0x1218 JUMP JUMPDEST SWAP1 POP PUSH2 0x1867 PUSH8 0xDE0B6B3A7640000 PUSH2 0x184F PUSH2 0x1831 DUP13 PUSH2 0x2226 JUMP JUMPDEST PUSH8 0xDE0B6B3A7640000 SUB PUSH2 0x185B DUP8 PUSH2 0x184F DUP15 DUP9 PUSH4 0xFFFFFFFF PUSH2 0x3134 AND JUMP JUMPDEST SWAP1 PUSH4 0xFFFFFFFF PUSH2 0x3162 AND JUMP JUMPDEST SWAP1 PUSH4 0xFFFFFFFF PUSH2 0x3134 AND JUMP JUMPDEST DUP5 DUP4 DUP2 MLOAD DUP2 LT ISZERO ISZERO PUSH2 0x1875 JUMPI INVALID JUMPDEST PUSH1 0x20 SWAP1 DUP2 MUL SWAP1 SWAP2 ADD ADD MSTORE PUSH1 0x1 SWAP2 SWAP1 SWAP2 ADD SWAP1 PUSH2 0x17FB JUMP JUMPDEST POP SWAP3 SWAP8 SWAP2 SWAP7 POP SWAP1 SWAP5 POP POP POP POP POP JUMP JUMPDEST PUSH1 0x32 DUP2 JUMP JUMPDEST PUSH2 0x18A8 CALLER PUSH2 0x29E8 JUMP JUMPDEST ISZERO ISZERO PUSH2 0x18B3 JUMPI PUSH1 0x0 DUP1 REVERT JUMPDEST PUSH2 0x18BC CALLER PUSH2 0x10F0 JUMP JUMPDEST ISZERO PUSH2 0x18C6 JUMPI PUSH1 0x0 DUP1 REVERT JUMPDEST PUSH2 0x1501 CALLER PUSH2 0x3185 JUMP JUMPDEST PUSH2 0x18D8 CALLER PUSH2 0x10F0 JUMP JUMPDEST ISZERO ISZERO PUSH2 0x18E3 JUMPI PUSH1 0x0 DUP1 REVERT JUMPDEST PUSH2 0x18EB PUSH2 0x23D8 JUMP JUMPDEST PUSH2 0x18F4 CALLER PUSH2 0x28D5 JUMP JUMPDEST GT ISZERO PUSH2 0x18FF JUMPI PUSH1 0x0 DUP1 REVERT JUMPDEST PUSH2 0x1501 CALLER PUSH2 0x3197 JUMP JUMPDEST PUSH2 0x3E8 DUP2 JUMP JUMPDEST PUSH2 0xBB8 DUP2 JUMP JUMPDEST PUSH1 0x4 PUSH1 0x0 PUSH1 0x40 MLOAD PUSH1 0x20 ADD DUP1 DUP1 PUSH32 0x53595354454D5F41444452455353000000000000000000000000000000000000 DUP2 MSTORE POP PUSH1 0xE ADD SWAP1 POP PUSH1 0x40 MLOAD PUSH1 0x20 DUP2 DUP4 SUB SUB DUP2 MSTORE SWAP1 PUSH1 0x40 MSTORE PUSH1 0x40 MLOAD DUP1 DUP3 DUP1 MLOAD SWAP1 PUSH1 0x20 ADD SWAP1 DUP1 DUP4 DUP4 JUMPDEST PUSH1 0x20 DUP4 LT PUSH2 0x1987 JUMPI DUP1 MLOAD DUP3 MSTORE PUSH1 0x1F NOT SWAP1 SWAP3 ADD SWAP2 PUSH1 0x20 SWAP2 DUP3 ADD SWAP2 ADD PUSH2 0x1968 JUMP JUMPDEST MLOAD DUP2 MLOAD PUSH1 0x20 SWAP4 DUP5 SUB PUSH2 0x100 EXP PUSH1 0x0 NOT ADD DUP1 NOT SWAP1 SWAP3 AND SWAP2 AND OR SWAP1 MSTORE PUSH1 0x40 DUP1 MLOAD SWAP3 SWAP1 SWAP5 ADD DUP3 SWAP1 SUB SWAP1 SWAP2 KECCAK256 DUP7 MSTORE DUP6 ADD SWAP6 SWAP1 SWAP6 MSTORE SWAP3 SWAP1 SWAP3 ADD PUSH1 0x0 KECCAK256 SLOAD PUSH1 0x1 PUSH1 0xA0 PUSH1 0x2 EXP SUB AND CALLER EQ SWAP3 POP PUSH2 0x19D8 SWAP2 POP POP JUMPI PUSH1 0x0 DUP1 REVERT JUMPDEST PUSH2 0x19E0 PUSH2 0x1FAB JUMP JUMPDEST ISZERO PUSH2 0x19EA JUMPI PUSH1 0x0 DUP1 REVERT JUMPDEST PUSH1 0x0 PUSH2 0x19F4 PUSH2 0x133E JUMP JUMPDEST GT ISZERO PUSH2 0x1A83 JUMPI PUSH2 0x1A0A PUSH2 0x1A05 PUSH2 0x1630 JUMP JUMPDEST PUSH2 0x31D3 JUMP JUMPDEST PUSH32 0x8564CD629B15F47DC310D45BCBFC9BCF5420B0D51BF0659A16C67F91D2763253 PUSH2 0x1A33 PUSH2 0x230E JUMP JUMPDEST PUSH1 0x40 DUP1 MLOAD PUSH1 0x20 DUP1 DUP3 MSTORE DUP4 MLOAD DUP2 DUP4 ADD MSTORE DUP4 MLOAD SWAP2 SWAP3 DUP4 SWAP3 SWAP1 DUP4 ADD SWAP2 DUP6 DUP2 ADD SWAP2 MUL DUP1 DUP4 DUP4 PUSH1 0x0 JUMPDEST DUP4 DUP2 LT ISZERO PUSH2 0x1A6F JUMPI DUP2 DUP2 ADD MLOAD DUP4 DUP3 ADD MSTORE PUSH1 0x20 ADD PUSH2 0x1A57 JUMP JUMPDEST POP POP POP POP SWAP1 POP ADD SWAP3 POP POP POP PUSH1 0x40 MLOAD DUP1 SWAP2 SUB SWAP1 LOG1 JUMPDEST PUSH2 0x1501 PUSH1 0x1 PUSH2 0x3326 JUMP JUMPDEST PUSH2 0x3E8 SWAP1 JUMP JUMPDEST PUSH1 0x0 PUSH1 0x2 PUSH1 0x0 DUP4 PUSH1 0x40 MLOAD PUSH1 0x20 ADD DUP1 DUP1 PUSH1 0x0 DUP1 MLOAD PUSH1 0x20 PUSH2 0x4F4A DUP4 CODECOPY DUP2 MLOAD SWAP2 MSTORE DUP2 MSTORE POP PUSH1 0xB ADD DUP3 PUSH1 0x1 PUSH1 0xA0 PUSH1 0x2 EXP SUB AND PUSH1 0x1 PUSH1 0xA0 PUSH1 0x2 EXP SUB AND PUSH1 0x60 PUSH1 0x2 EXP MUL DUP2 MSTORE PUSH1 0x14 ADD SWAP2 POP POP PUSH1 0x40 MLOAD PUSH1 0x20 DUP2 DUP4 SUB SUB DUP2 MSTORE SWAP1 PUSH1 0x40 MSTORE PUSH1 0x40 MLOAD DUP1 DUP3 DUP1 MLOAD SWAP1 PUSH1 0x20 ADD SWAP1 DUP1 DUP4 DUP4 JUMPDEST PUSH1 0x20 DUP4 LT PUSH2 0x1B16 JUMPI DUP1 MLOAD DUP3 MSTORE PUSH1 0x1F NOT SWAP1 SWAP3 ADD SWAP2 PUSH1 0x20 SWAP2 DUP3 ADD SWAP2 ADD PUSH2 0x1AF7 JUMP JUMPDEST MLOAD DUP2 MLOAD PUSH1 0x20 SWAP4 DUP5 SUB PUSH2 0x100 EXP PUSH1 0x0 NOT ADD DUP1 NOT SWAP1 SWAP3 AND SWAP2 AND OR SWAP1 MSTORE PUSH1 0x40 DUP1 MLOAD SWAP3 SWAP1 SWAP5 ADD DUP3 SWAP1 SUB SWAP1 SWAP2 KECCAK256 DUP7 MSTORE DUP6 ADD SWAP6 SWAP1 SWAP6 MSTORE SWAP3 SWAP1 SWAP3 ADD PUSH1 0x0 KECCAK256 SLOAD SWAP6 SWAP5 POP POP POP POP POP JUMP JUMPDEST PUSH1 0x0 PUSH1 0x2 PUSH1 0x0 DUP4 PUSH1 0x40 MLOAD PUSH1 0x20 ADD DUP1 DUP1 PUSH1 0x0 DUP1 MLOAD PUSH1 0x20 PUSH2 0x4E6A DUP4 CODECOPY DUP2 MLOAD SWAP2 MSTORE DUP2 MSTORE POP PUSH1 0xC ADD DUP3 PUSH1 0x1 PUSH1 0xA0 PUSH1 0x2 EXP SUB AND PUSH1 0x1 PUSH1 0xA0 PUSH1 0x2 EXP SUB AND PUSH1 0x60 PUSH1 0x2 EXP MUL DUP2 MSTORE PUSH1 0x14 ADD SWAP2 POP POP PUSH1 0x40 MLOAD PUSH1 0x20 DUP2 DUP4 SUB SUB DUP2 MSTORE SWAP1 PUSH1 0x40 MSTORE PUSH1 0x40 MLOAD DUP1 DUP3 DUP1 MLOAD SWAP1 PUSH1 0x20 ADD SWAP1 DUP1 DUP4 DUP4 PUSH1 0x20 DUP4 LT PUSH2 0x1B16 JUMPI DUP1 MLOAD DUP3 MSTORE PUSH1 0x1F NOT SWAP1 SWAP3 ADD SWAP2 PUSH1 0x20 SWAP2 DUP3 ADD SWAP2 ADD PUSH2 0x1AF7 JUMP JUMPDEST PUSH2 0x8700 DUP2 JUMP JUMPDEST PUSH1 0x60 PUSH2 0x1BE9 PUSH2 0x2817 JUMP JUMPDEST PUSH1 0x1 PUSH1 0xA0 PUSH1 0x2 EXP SUB AND PUSH4 0xF89D4086 PUSH1 0x40 MLOAD DUP2 PUSH4 0xFFFFFFFF AND PUSH1 0xE0 PUSH1 0x2 EXP MUL DUP2 MSTORE PUSH1 0x4 ADD PUSH1 0x20 PUSH1 0x40 MLOAD DUP1 DUP4 SUB DUP2 PUSH1 0x0 DUP8 DUP1 EXTCODESIZE ISZERO DUP1 ISZERO PUSH2 0x1C26 JUMPI PUSH1 0x0 DUP1 REVERT JUMPDEST POP GAS CALL ISZERO DUP1 ISZERO PUSH2 0x1C3A JUMPI RETURNDATASIZE PUSH1 0x0 DUP1 RETURNDATACOPY RETURNDATASIZE PUSH1 0x0 REVERT JUMPDEST POP POP POP POP PUSH1 0x40 MLOAD RETURNDATASIZE PUSH1 0x20 DUP2 LT ISZERO PUSH2 0x1C50 JUMPI PUSH1 0x0 DUP1 REVERT JUMPDEST POP MLOAD PUSH1 0x1 PUSH1 0xA0 PUSH1 0x2 EXP SUB AND CALLER EQ PUSH2 0x1C66 JUMPI PUSH1 0x0 DUP1 REVERT JUMPDEST PUSH2 0x1C6F DUP3 PUSH2 0x3399 JUMP JUMPDEST PUSH2 0x1C77 PUSH2 0x34C9 JUMP JUMPDEST ISZERO PUSH2 0x1EFB JUMPI PUSH2 0x1C84 PUSH2 0x2817 JUMP JUMPDEST PUSH1 0x1 PUSH1 0xA0 PUSH1 0x2 EXP SUB AND PUSH4 0x1986D376 PUSH1 0x40 MLOAD DUP2 PUSH4 0xFFFFFFFF AND PUSH1 0xE0 PUSH1 0x2 EXP MUL DUP2 MSTORE PUSH1 0x4 ADD PUSH1 0x20 PUSH1 0x40 MLOAD DUP1 DUP4 SUB DUP2 PUSH1 0x0 DUP8 DUP1 EXTCODESIZE ISZERO DUP1 ISZERO PUSH2 0x1CC1 JUMPI PUSH1 0x0 DUP1 REVERT JUMPDEST POP GAS CALL ISZERO DUP1 ISZERO PUSH2 0x1CD5 JUMPI RETURNDATASIZE PUSH1 0x0 DUP1 RETURNDATACOPY RETURNDATASIZE PUSH1 0x0 REVERT JUMPDEST POP POP POP POP PUSH1 0x40 MLOAD RETURNDATASIZE PUSH1 0x20 DUP2 LT ISZERO PUSH2 0x1CEB JUMPI PUSH1 0x0 DUP1 REVERT JUMPDEST POP MLOAD PUSH1 0x1 PUSH1 0xA0 PUSH1 0x2 EXP SUB AND PUSH4 0xBBAC62C8 PUSH2 0x1D03 PUSH2 0x230E JUMP JUMPDEST PUSH1 0x40 MLOAD DUP3 PUSH4 0xFFFFFFFF AND PUSH1 0xE0 PUSH1 0x2 EXP MUL DUP2 MSTORE PUSH1 0x4 ADD DUP1 DUP1 PUSH1 0x20 ADD DUP3 DUP2 SUB DUP3 MSTORE DUP4 DUP2 DUP2 MLOAD DUP2 MSTORE PUSH1 0x20 ADD SWAP2 POP DUP1 MLOAD SWAP1 PUSH1 0x20 ADD SWAP1 PUSH1 0x20 MUL DUP1 DUP4 DUP4 PUSH1 0x0 JUMPDEST DUP4 DUP2 LT ISZERO PUSH2 0x1D55 JUMPI DUP2 DUP2 ADD MLOAD DUP4 DUP3 ADD MSTORE PUSH1 0x20 ADD PUSH2 0x1D3D JUMP JUMPDEST POP POP POP POP SWAP1 POP ADD SWAP3 POP POP POP PUSH1 0x0 PUSH1 0x40 MLOAD DUP1 DUP4 SUB DUP2 PUSH1 0x0 DUP8 DUP1 EXTCODESIZE ISZERO DUP1 ISZERO PUSH2 0x1D7A JUMPI PUSH1 0x0 DUP1 REVERT JUMPDEST POP GAS CALL ISZERO DUP1 ISZERO PUSH2 0x1D8E JUMPI RETURNDATASIZE PUSH1 0x0 DUP1 RETURNDATACOPY RETURNDATASIZE PUSH1 0x0 REVERT JUMPDEST POP POP POP POP PUSH2 0x1D9A PUSH2 0x34DB JUMP JUMPDEST PUSH2 0x1DAA PUSH2 0x1DA5 PUSH2 0x230E JUMP JUMPDEST PUSH2 0x364C JUMP JUMPDEST PUSH2 0x1DB2 PUSH2 0x2376 JUMP JUMPDEST SWAP1 POP PUSH1 0x0 DUP2 MLOAD GT ISZERO PUSH2 0x1DC7 JUMPI PUSH2 0x1DC7 DUP2 PUSH2 0x3730 JUMP JUMPDEST PUSH1 0x0 PUSH2 0x1DD1 PUSH2 0x133E JUMP JUMPDEST GT ISZERO PUSH2 0x1E15 JUMPI PUSH2 0x1DE1 PUSH1 0x0 PUSH2 0x3326 JUMP JUMPDEST PUSH2 0x1DEB PUSH1 0x1 PUSH2 0x37F2 JUMP JUMPDEST PUSH1 0x40 MLOAD PUSH32 0xAD8A61077DFF62D25EA1BF7CF1AF88E1B48075C3D497D494AC9B129B73B0D37C SWAP1 PUSH1 0x0 SWAP1 LOG1 JUMPDEST PUSH2 0x1E1D PUSH2 0x2817 JUMP JUMPDEST PUSH1 0x1 PUSH1 0xA0 PUSH1 0x2 EXP SUB AND PUSH4 0xF89D4086 PUSH1 0x40 MLOAD DUP2 PUSH4 0xFFFFFFFF AND PUSH1 0xE0 PUSH1 0x2 EXP MUL DUP2 MSTORE PUSH1 0x4 ADD PUSH1 0x20 PUSH1 0x40 MLOAD DUP1 DUP4 SUB DUP2 PUSH1 0x0 DUP8 DUP1 EXTCODESIZE ISZERO DUP1 ISZERO PUSH2 0x1E5A JUMPI PUSH1 0x0 DUP1 REVERT JUMPDEST POP GAS CALL ISZERO DUP1 ISZERO PUSH2 0x1E6E JUMPI RETURNDATASIZE PUSH1 0x0 DUP1 RETURNDATACOPY RETURNDATASIZE PUSH1 0x0 REVERT JUMPDEST POP POP POP POP PUSH1 0x40 MLOAD RETURNDATASIZE PUSH1 0x20 DUP2 LT ISZERO PUSH2 0x1E84 JUMPI PUSH1 0x0 DUP1 REVERT JUMPDEST POP MLOAD PUSH1 0x40 DUP1 MLOAD PUSH32 0xB1F0C8E100000000000000000000000000000000000000000000000000000000 DUP2 MSTORE SWAP1 MLOAD PUSH1 0x1 PUSH1 0xA0 PUSH1 0x2 EXP SUB SWAP1 SWAP3 AND SWAP2 PUSH4 0xB1F0C8E1 SWAP2 PUSH1 0x4 DUP1 DUP3 ADD SWAP3 PUSH1 0x0 SWAP3 SWAP1 SWAP2 SWAP1 DUP3 SWAP1 SUB ADD DUP2 DUP4 DUP8 DUP1 EXTCODESIZE ISZERO DUP1 ISZERO PUSH2 0x1EE2 JUMPI PUSH1 0x0 DUP1 REVERT JUMPDEST POP GAS CALL ISZERO DUP1 ISZERO PUSH2 0x1EF6 JUMPI RETURNDATASIZE PUSH1 0x0 DUP1 RETURNDATACOPY RETURNDATASIZE PUSH1 0x0 REVERT JUMPDEST POP POP POP POP JUMPDEST POP POP JUMP JUMPDEST PUSH1 0x5 DUP2 JUMP JUMPDEST PUSH1 0x0 PUSH2 0x1F24 PUSH1 0x1 PUSH2 0x1F18 PUSH1 0x2 PUSH2 0x184F PUSH2 0x1503 JUMP JUMPDEST SWAP1 PUSH4 0xFFFFFFFF PUSH2 0x3865 AND JUMP JUMPDEST SWAP1 POP SWAP1 JUMP JUMPDEST PUSH1 0x60 PUSH1 0xA PUSH1 0x0 DUP4 PUSH1 0x40 MLOAD PUSH1 0x20 ADD DUP1 DUP1 PUSH1 0x0 DUP1 MLOAD PUSH1 0x20 PUSH2 0x4E4A DUP4 CODECOPY DUP2 MLOAD SWAP2 MSTORE DUP2 MSTORE POP PUSH1 0xA ADD DUP3 PUSH1 0x1 PUSH1 0xA0 PUSH1 0x2 EXP SUB AND PUSH1 0x1 PUSH1 0xA0 PUSH1 0x2 EXP SUB AND PUSH1 0x60 PUSH1 0x2 EXP MUL DUP2 MSTORE PUSH1 0x14 ADD SWAP2 POP POP PUSH1 0x40 MLOAD PUSH1 0x20 DUP2 DUP4 SUB SUB DUP2 MSTORE SWAP1 PUSH1 0x40 MSTORE PUSH1 0x40 MLOAD DUP1 DUP3 DUP1 MLOAD SWAP1 PUSH1 0x20 ADD SWAP1 DUP1 DUP4 DUP4 PUSH1 0x20 DUP4 LT PUSH2 0xD2F JUMPI DUP1 MLOAD DUP3 MSTORE PUSH1 0x1F NOT SWAP1 SWAP3 ADD SWAP2 PUSH1 0x20 SWAP2 DUP3 ADD SWAP2 ADD PUSH2 0xD10 JUMP JUMPDEST PUSH1 0x0 PUSH1 0x6 PUSH1 0x0 PUSH1 0x40 MLOAD PUSH1 0x20 ADD DUP1 DUP1 PUSH32 0x697346696E616C697A6564000000000000000000000000000000000000000000 DUP2 MSTORE POP PUSH1 0xB ADD SWAP1 POP PUSH1 0x40 MLOAD PUSH1 0x20 DUP2 DUP4 SUB SUB DUP2 MSTORE SWAP1 PUSH1 0x40 MSTORE PUSH1 0x40 MLOAD DUP1 DUP3 DUP1 MLOAD SWAP1 PUSH1 0x20 ADD SWAP1 DUP1 DUP4 DUP4 PUSH1 0x20 DUP4 LT PUSH2 0x14B3 JUMPI DUP1 MLOAD DUP3 MSTORE PUSH1 0x1F NOT SWAP1 SWAP3 ADD SWAP2 PUSH1 0x20 SWAP2 DUP3 ADD SWAP2 ADD PUSH2 0x1494 JUMP JUMPDEST PUSH1 0x0 PUSH1 0xA PUSH1 0x0 PUSH1 0x40 MLOAD PUSH1 0x20 ADD DUP1 DUP1 PUSH1 0x0 DUP1 MLOAD PUSH1 0x20 PUSH2 0x4E2A DUP4 CODECOPY DUP2 MLOAD SWAP2 MSTORE DUP2 MSTORE POP PUSH1 0x10 ADD SWAP1 POP PUSH1 0x40 MLOAD PUSH1 0x20 DUP2 DUP4 SUB SUB DUP2 MSTORE SWAP1 PUSH1 0x40 MSTORE PUSH1 0x40 MLOAD DUP1 DUP3 DUP1 MLOAD SWAP1 PUSH1 0x20 ADD SWAP1 DUP1 DUP4 DUP4 PUSH1 0x20 DUP4 LT PUSH2 0xC26 JUMPI DUP1 MLOAD DUP3 MSTORE PUSH1 0x1F NOT SWAP1 SWAP3 ADD SWAP2 PUSH1 0x20 SWAP2 DUP3 ADD SWAP2 ADD PUSH2 0xC07 JUMP JUMPDEST PUSH8 0x214E8348C4F0000 DUP2 JUMP JUMPDEST PUSH1 0x0 PUSH1 0x2 PUSH1 0x0 PUSH1 0x40 MLOAD PUSH1 0x20 ADD DUP1 DUP1 PUSH32 0x63757272656E744379636C655374617274426C6F636B00000000000000000000 DUP2 MSTORE POP PUSH1 0x16 ADD SWAP1 POP PUSH1 0x40 MLOAD PUSH1 0x20 DUP2 DUP4 SUB SUB DUP2 MSTORE SWAP1 PUSH1 0x40 MSTORE PUSH1 0x40 MLOAD DUP1 DUP3 DUP1 MLOAD SWAP1 PUSH1 0x20 ADD SWAP1 DUP1 DUP4 DUP4 PUSH1 0x20 DUP4 LT PUSH2 0xB82 JUMPI DUP1 MLOAD DUP3 MSTORE PUSH1 0x1F NOT SWAP1 SWAP3 ADD SWAP2 PUSH1 0x20 SWAP2 DUP3 ADD SWAP2 ADD PUSH2 0xB63 JUMP JUMPDEST PUSH2 0x210A CALLER PUSH2 0x29E8 JUMP JUMPDEST ISZERO ISZERO PUSH2 0x2115 JUMPI PUSH1 0x0 DUP1 REVERT JUMPDEST PUSH2 0x211D PUSH2 0x2969 JUMP JUMPDEST ISZERO ISZERO PUSH2 0x2128 JUMPI PUSH1 0x0 DUP1 REVERT JUMPDEST PUSH1 0x0 PUSH2 0x2132 PUSH2 0x133E JUMP JUMPDEST GT PUSH2 0x213C JUMPI PUSH1 0x0 DUP1 REVERT JUMPDEST PUSH1 0x0 NOT NUMBER ADD BLOCKHASH PUSH32 0x55252FA6EEE4741B4E24A74A70E9C11FD2C2281DF8D6EA13126FF845F7825C89 PUSH2 0x216B PUSH2 0x1630 JUMP JUMPDEST PUSH1 0x40 DUP1 MLOAD PUSH1 0x20 DUP1 DUP3 MSTORE DUP4 MLOAD DUP2 DUP4 ADD MSTORE DUP4 MLOAD SWAP2 SWAP3 DUP4 SWAP3 SWAP1 DUP4 ADD SWAP2 DUP6 DUP2 ADD SWAP2 MUL DUP1 DUP4 DUP4 PUSH1 0x0 JUMPDEST DUP4 DUP2 LT ISZERO PUSH2 0x21A7 JUMPI DUP2 DUP2 ADD MLOAD DUP4 DUP3 ADD MSTORE PUSH1 0x20 ADD PUSH2 0x218F JUMP JUMPDEST POP POP POP POP SWAP1 POP ADD SWAP3 POP POP POP PUSH1 0x40 MLOAD DUP1 SWAP2 SUB SWAP1 LOG2 PUSH2 0x1501 PUSH1 0x0 PUSH2 0x37F2 JUMP JUMPDEST PUSH1 0x0 PUSH1 0x2 PUSH1 0x0 PUSH1 0x40 MLOAD PUSH1 0x20 ADD DUP1 DUP1 PUSH1 0x0 DUP1 MLOAD PUSH1 0x20 PUSH2 0x4EEA DUP4 CODECOPY DUP2 MLOAD SWAP2 MSTORE DUP2 MSTORE POP PUSH1 0x10 ADD SWAP1 POP PUSH1 0x40 MLOAD PUSH1 0x20 DUP2 DUP4 SUB SUB DUP2 MSTORE SWAP1 PUSH1 0x40 MSTORE PUSH1 0x40 MLOAD DUP1 DUP3 DUP1 MLOAD SWAP1 PUSH1 0x20 ADD SWAP1 DUP1 DUP4 DUP4 PUSH1 0x20 DUP4 LT PUSH2 0xB82 JUMPI DUP1 MLOAD DUP3 MSTORE PUSH1 0x1F NOT SWAP1 SWAP3 ADD SWAP2 PUSH1 0x20 SWAP2 DUP3 ADD SWAP2 ADD PUSH2 0xB63 JUMP JUMPDEST PUSH1 0x0 PUSH1 0x2 PUSH1 0x0 DUP4 PUSH1 0x40 MLOAD PUSH1 0x20 ADD DUP1 DUP1 PUSH32 0x76616C696461746F724665650000000000000000000000000000000000000000 DUP2 MSTORE POP PUSH1 0xC ADD DUP3 PUSH1 0x1 PUSH1 0xA0 PUSH1 0x2 EXP SUB AND PUSH1 0x1 PUSH1 0xA0 PUSH1 0x2 EXP SUB AND PUSH1 0x60 PUSH1 0x2 EXP MUL DUP2 MSTORE PUSH1 0x14 ADD SWAP2 POP POP PUSH1 0x40 MLOAD PUSH1 0x20 DUP2 DUP4 SUB SUB DUP2 MSTORE SWAP1 PUSH1 0x40 MSTORE PUSH1 0x40 MLOAD DUP1 DUP3 DUP1 MLOAD SWAP1 PUSH1 0x20 ADD SWAP1 DUP1 DUP4 DUP4 PUSH1 0x20 DUP4 LT PUSH2 0x1B16 JUMPI DUP1 MLOAD DUP3 MSTORE PUSH1 0x1F NOT SWAP1 SWAP3 ADD SWAP2 PUSH1 0x20 SWAP2 DUP3 ADD SWAP2 ADD PUSH2 0x1AF7 JUMP JUMPDEST PUSH1 0x0 DUP1 JUMPDEST PUSH2 0x22C7 DUP5 PUSH2 0x26AD JUMP JUMPDEST DUP2 LT ISZERO PUSH2 0x2302 JUMPI PUSH2 0x22D8 DUP5 DUP3 PUSH2 0x272F JUMP JUMPDEST PUSH1 0x1 PUSH1 0xA0 PUSH1 0x2 EXP SUB AND DUP4 PUSH1 0x1 PUSH1 0xA0 PUSH1 0x2 EXP SUB AND EQ ISZERO PUSH2 0x22FA JUMPI PUSH1 0x1 SWAP2 POP PUSH2 0x2307 JUMP JUMPDEST PUSH1 0x1 ADD PUSH2 0x22BE JUMP JUMPDEST PUSH1 0x0 SWAP2 POP JUMPDEST POP SWAP3 SWAP2 POP POP JUMP JUMPDEST PUSH1 0x60 PUSH1 0xA PUSH1 0x0 PUSH1 0x40 MLOAD PUSH1 0x20 ADD DUP1 DUP1 PUSH1 0x0 DUP1 MLOAD PUSH1 0x20 PUSH2 0x4F0A DUP4 CODECOPY DUP2 MLOAD SWAP2 MSTORE DUP2 MSTORE POP PUSH1 0x11 ADD SWAP1 POP PUSH1 0x40 MLOAD PUSH1 0x20 DUP2 DUP4 SUB SUB DUP2 MSTORE SWAP1 PUSH1 0x40 MSTORE PUSH1 0x40 MLOAD DUP1 DUP3 DUP1 MLOAD SWAP1 PUSH1 0x20 ADD SWAP1 DUP1 DUP4 DUP4 PUSH1 0x20 DUP4 LT PUSH2 0x16A5 JUMPI DUP1 MLOAD DUP3 MSTORE PUSH1 0x1F NOT SWAP1 SWAP3 ADD SWAP2 PUSH1 0x20 SWAP2 DUP3 ADD SWAP2 ADD PUSH2 0x1686 JUMP JUMPDEST PUSH2 0x8700 SWAP1 JUMP JUMPDEST PUSH1 0x60 PUSH1 0xA PUSH1 0x0 PUSH1 0x40 MLOAD PUSH1 0x20 ADD DUP1 DUP1 PUSH1 0x0 DUP1 MLOAD PUSH1 0x20 PUSH2 0x4E8A DUP4 CODECOPY DUP2 MLOAD SWAP2 MSTORE DUP2 MSTORE POP PUSH1 0x11 ADD SWAP1 POP PUSH1 0x40 MLOAD PUSH1 0x20 DUP2 DUP4 SUB SUB DUP2 MSTORE SWAP1 PUSH1 0x40 MSTORE PUSH1 0x40 MLOAD DUP1 DUP3 DUP1 MLOAD SWAP1 PUSH1 0x20 ADD SWAP1 DUP1 DUP4 DUP4 PUSH1 0x20 DUP4 LT PUSH2 0x16A5 JUMPI DUP1 MLOAD DUP3 MSTORE PUSH1 0x1F NOT SWAP1 SWAP3 ADD SWAP2 PUSH1 0x20 SWAP2 DUP3 ADD SWAP2 ADD PUSH2 0x1686 JUMP JUMPDEST PUSH1 0x0 PUSH1 0x2 PUSH1 0x0 PUSH1 0x40 MLOAD PUSH1 0x20 ADD DUP1 DUP1 PUSH32 0x63757272656E744379636C65456E64426C6F636B000000000000000000000000 DUP2 MSTORE POP PUSH1 0x14 ADD SWAP1 POP PUSH1 0x40 MLOAD PUSH1 0x20 DUP2 DUP4 SUB SUB DUP2 MSTORE SWAP1 PUSH1 0x40 MSTORE PUSH1 0x40 MLOAD DUP1 DUP3 DUP1 MLOAD SWAP1 PUSH1 0x20 ADD SWAP1 DUP1 DUP4 DUP4 PUSH1 0x20 DUP4 LT PUSH2 0xB82 JUMPI DUP1 MLOAD DUP3 MSTORE PUSH1 0x1F NOT SWAP1 SWAP3 ADD SWAP2 PUSH1 0x20 SWAP2 DUP3 ADD SWAP2 ADD PUSH2 0xB63 JUMP JUMPDEST PUSH1 0x60 PUSH2 0x1F24 PUSH2 0x230E JUMP JUMPDEST PUSH1 0x0 PUSH1 0x2 PUSH1 0x0 DUP4 PUSH1 0x40 MLOAD PUSH1 0x20 ADD DUP1 DUP1 PUSH1 0x0 DUP1 MLOAD PUSH1 0x20 PUSH2 0x4ECA DUP4 CODECOPY DUP2 MLOAD SWAP2 MSTORE DUP2 MSTORE POP PUSH1 0xB ADD DUP3 PUSH1 0x1 PUSH1 0xA0 PUSH1 0x2 EXP SUB AND PUSH1 0x1 PUSH1 0xA0 PUSH1 0x2 EXP SUB AND PUSH1 0x60 PUSH1 0x2 EXP MUL DUP2 MSTORE PUSH1 0x14 ADD SWAP2 POP POP PUSH1 0x40 MLOAD PUSH1 0x20 DUP2 DUP4 SUB SUB DUP2 MSTORE SWAP1 PUSH1 0x40 MSTORE PUSH1 0x40 MLOAD DUP1 DUP3 DUP1 MLOAD SWAP1 PUSH1 0x20 ADD SWAP1 DUP1 DUP4 DUP4 PUSH1 0x20 DUP4 LT PUSH2 0x1B16 JUMPI DUP1 MLOAD DUP3 MSTORE PUSH1 0x1F NOT SWAP1 SWAP3 ADD SWAP2 PUSH1 0x20 SWAP2 DUP3 ADD SWAP2 ADD PUSH2 0x1AF7 JUMP JUMPDEST PUSH1 0x4 PUSH1 0x0 PUSH1 0x40 MLOAD PUSH1 0x20 ADD DUP1 DUP1 PUSH32 0x6F776E6572000000000000000000000000000000000000000000000000000000 DUP2 MSTORE POP PUSH1 0x5 ADD SWAP1 POP PUSH1 0x40 MLOAD PUSH1 0x20 DUP2 DUP4 SUB SUB DUP2 MSTORE SWAP1 PUSH1 0x40 MSTORE PUSH1 0x40 MLOAD DUP1 DUP3 DUP1 MLOAD SWAP1 PUSH1 0x20 ADD SWAP1 DUP1 DUP4 DUP4 JUMPDEST PUSH1 0x20 DUP4 LT PUSH2 0x254B JUMPI DUP1 MLOAD DUP3 MSTORE PUSH1 0x1F NOT SWAP1 SWAP3 ADD SWAP2 PUSH1 0x20 SWAP2 DUP3 ADD SWAP2 ADD PUSH2 0x252C JUMP JUMPDEST MLOAD DUP2 MLOAD PUSH1 0x20 SWAP4 DUP5 SUB PUSH2 0x100 EXP PUSH1 0x0 NOT ADD DUP1 NOT SWAP1 SWAP3 AND SWAP2 AND OR SWAP1 MSTORE PUSH1 0x40 DUP1 MLOAD SWAP3 SWAP1 SWAP5 ADD DUP3 SWAP1 SUB SWAP1 SWAP2 KECCAK256 DUP7 MSTORE DUP6 ADD SWAP6 SWAP1 SWAP6 MSTORE SWAP3 SWAP1 SWAP3 ADD PUSH1 0x0 KECCAK256 SLOAD PUSH1 0x1 PUSH1 0xA0 PUSH1 0x2 EXP SUB AND CALLER EQ SWAP3 POP PUSH2 0x259C SWAP2 POP POP JUMPI PUSH1 0x0 DUP1 REVERT JUMPDEST PUSH2 0x25A4 PUSH2 0x143E JUMP JUMPDEST ISZERO PUSH2 0x25AE JUMPI PUSH1 0x0 DUP1 REVERT JUMPDEST PUSH2 0x25CB PUSH20 0xFFFFFFFFFFFFFFFFFFFFFFFFFFFFFFFFFFFFFFFE PUSH2 0x3877 JUMP JUMPDEST PUSH2 0x25D3 PUSH2 0x34DB JUMP JUMPDEST PUSH1 0x1 PUSH1 0xA0 PUSH1 0x2 EXP SUB DUP2 AND ISZERO ISZERO PUSH2 0x25F1 JUMPI PUSH2 0x25EC CALLER PUSH2 0x3947 JUMP JUMPDEST PUSH2 0x25FA JUMP JUMPDEST PUSH2 0x25FA DUP2 PUSH2 0x3947 JUMP JUMPDEST PUSH2 0x2604 PUSH1 0x1 PUSH2 0x3326 JUMP JUMPDEST PUSH2 0x143B PUSH1 0x1 PUSH2 0x39A7 JUMP JUMPDEST PUSH11 0x422CA8B0A00A425000000 DUP2 JUMP JUMPDEST PUSH10 0x152D02C7E14AF6800000 DUP2 JUMP JUMPDEST PUSH1 0x0 PUSH1 0x2 PUSH1 0x0 DUP4 PUSH1 0x40 MLOAD PUSH1 0x20 ADD DUP1 DUP1 PUSH1 0x0 DUP1 MLOAD PUSH1 0x20 PUSH2 0x4EAA DUP4 CODECOPY DUP2 MLOAD SWAP2 MSTORE DUP2 MSTORE POP PUSH1 0xB ADD DUP3 PUSH1 0x1 PUSH1 0xA0 PUSH1 0x2 EXP SUB AND PUSH1 0x1 PUSH1 0xA0 PUSH1 0x2 EXP SUB AND PUSH1 0x60 PUSH1 0x2 EXP MUL DUP2 MSTORE PUSH1 0x14 ADD SWAP2 POP POP PUSH1 0x40 MLOAD PUSH1 0x20 DUP2 DUP4 SUB SUB DUP2 MSTORE SWAP1 PUSH1 0x40 MSTORE PUSH1 0x40 MLOAD DUP1 DUP3 DUP1 MLOAD SWAP1 PUSH1 0x20 ADD SWAP1 DUP1 DUP4 DUP4 PUSH1 0x20 DUP4 LT PUSH2 0x1B16 JUMPI DUP1 MLOAD DUP3 MSTORE PUSH1 0x1F NOT SWAP1 SWAP3 ADD SWAP2 PUSH1 0x20 SWAP2 DUP3 ADD SWAP2 ADD PUSH2 0x1AF7 JUMP JUMPDEST PUSH1 0x0 PUSH1 0xA PUSH1 0x0 DUP4 PUSH1 0x40 MLOAD PUSH1 0x20 ADD DUP1 DUP1 PUSH1 0x0 DUP1 MLOAD PUSH1 0x20 PUSH2 0x4E4A DUP4 CODECOPY DUP2 MLOAD SWAP2 MSTORE DUP2 MSTORE POP PUSH1 0xA ADD DUP3 PUSH1 0x1 PUSH1 0xA0 PUSH1 0x2 EXP SUB AND PUSH1 0x1 PUSH1 0xA0 PUSH1 0x2 EXP SUB AND PUSH1 0x60 PUSH1 0x2 EXP MUL DUP2 MSTORE PUSH1 0x14 ADD SWAP2 POP POP PUSH1 0x40 MLOAD PUSH1 0x20 DUP2 DUP4 SUB SUB DUP2 MSTORE SWAP1 PUSH1 0x40 MSTORE PUSH1 0x40 MLOAD DUP1 DUP3 DUP1 MLOAD SWAP1 PUSH1 0x20 ADD SWAP1 DUP1 DUP4 DUP4 PUSH1 0x20 DUP4 LT PUSH2 0x1B16 JUMPI DUP1 MLOAD DUP3 MSTORE PUSH1 0x1F NOT SWAP1 SWAP3 ADD SWAP2 PUSH1 0x20 SWAP2 DUP3 ADD SWAP2 ADD PUSH2 0x1AF7 JUMP JUMPDEST PUSH1 0x0 PUSH1 0xA PUSH1 0x0 DUP5 PUSH1 0x40 MLOAD PUSH1 0x20 ADD DUP1 DUP1 PUSH1 0x0 DUP1 MLOAD PUSH1 0x20 PUSH2 0x4E4A DUP4 CODECOPY DUP2 MLOAD SWAP2 MSTORE DUP2 MSTORE POP PUSH1 0xA ADD DUP3 PUSH1 0x1 PUSH1 0xA0 PUSH1 0x2 EXP SUB AND PUSH1 0x1 PUSH1 0xA0 PUSH1 0x2 EXP SUB AND PUSH1 0x60 PUSH1 0x2 EXP MUL DUP2 MSTORE PUSH1 0x14 ADD SWAP2 POP POP PUSH1 0x40 MLOAD PUSH1 0x20 DUP2 DUP4 SUB SUB DUP2 MSTORE SWAP1 PUSH1 0x40 MSTORE PUSH1 0x40 MLOAD DUP1 DUP3 DUP1 MLOAD SWAP1 PUSH1 0x20 ADD SWAP1 DUP1 DUP4 DUP4 JUMPDEST PUSH1 0x20 DUP4 LT PUSH2 0x27B2 JUMPI DUP1 MLOAD DUP3 MSTORE PUSH1 0x1F NOT SWAP1 SWAP3 ADD SWAP2 PUSH1 0x20 SWAP2 DUP3 ADD SWAP2 ADD PUSH2 0x2793 JUMP JUMPDEST MLOAD DUP2 MLOAD PUSH1 0x20 SWAP4 DUP5 SUB PUSH2 0x100 EXP PUSH1 0x0 NOT ADD DUP1 NOT SWAP1 SWAP3 AND SWAP2 AND OR SWAP1 MSTORE PUSH1 0x40 DUP1 MLOAD SWAP3 SWAP1 SWAP5 ADD DUP3 SWAP1 SUB SWAP1 SWAP2 KECCAK256 DUP7 MSTORE DUP6 ADD SWAP6 SWAP1 SWAP6 MSTORE SWAP3 SWAP1 SWAP3 ADD PUSH1 0x0 KECCAK256 DUP1 SLOAD SWAP1 SWAP4 POP DUP6 SWAP3 POP DUP3 LT SWAP1 POP PUSH2 0x27FB JUMPI INVALID JUMPDEST PUSH1 0x0 SWAP2 DUP3 MSTORE PUSH1 0x20 SWAP1 SWAP2 KECCAK256 ADD SLOAD PUSH1 0x1 PUSH1 0xA0 PUSH1 0x2 EXP SUB AND SWAP4 SWAP3 POP POP POP JUMP JUMPDEST PUSH1 0x0 PUSH1 0x4 PUSH1 0x0 PUSH1 0x40 MLOAD PUSH1 0x20 ADD DUP1 DUP1 PUSH32 0x70726F787953746F726167650000000000000000000000000000000000000000 DUP2 MSTORE POP PUSH1 0xC ADD SWAP1 POP PUSH1 0x40 MLOAD PUSH1 0x20 DUP2 DUP4 SUB SUB DUP2 MSTORE SWAP1 PUSH1 0x40 MSTORE PUSH1 0x40 MLOAD DUP1 DUP3 DUP1 MLOAD SWAP1 PUSH1 0x20 ADD SWAP1 DUP1 DUP4 DUP4 JUMPDEST PUSH1 0x20 DUP4 LT PUSH2 0x288C JUMPI DUP1 MLOAD DUP3 MSTORE PUSH1 0x1F NOT SWAP1 SWAP3 ADD SWAP2 PUSH1 0x20 SWAP2 DUP3 ADD SWAP2 ADD PUSH2 0x286D JUMP JUMPDEST MLOAD DUP2 MLOAD PUSH1 0x20 SWAP4 DUP5 SUB PUSH2 0x100 EXP PUSH1 0x0 NOT ADD DUP1 NOT SWAP1 SWAP3 AND SWAP2 AND OR SWAP1 MSTORE PUSH1 0x40 DUP1 MLOAD SWAP3 SWAP1 SWAP5 ADD DUP3 SWAP1 SUB SWAP1 SWAP2 KECCAK256 DUP7 MSTORE DUP6 ADD SWAP6 SWAP1 SWAP6 MSTORE SWAP3 SWAP1 SWAP3 ADD PUSH1 0x0 KECCAK256 SLOAD PUSH1 0x1 PUSH1 0xA0 PUSH1 0x2 EXP SUB AND SWAP5 SWAP4 POP POP POP POP JUMP JUMPDEST PUSH1 0x0 PUSH1 0x2 PUSH1 0x0 DUP4 PUSH1 0x40 MLOAD PUSH1 0x20 ADD DUP1 DUP1 PUSH32 0x72656C65617365426C6F636B0000000000000000000000000000000000000000 DUP2 MSTORE POP PUSH1 0xC ADD DUP3 PUSH1 0x1 PUSH1 0xA0 PUSH1 0x2 EXP SUB AND PUSH1 0x1 PUSH1 0xA0 PUSH1 0x2 EXP SUB AND PUSH1 0x60 PUSH1 0x2 EXP MUL DUP2 MSTORE PUSH1 0x14 ADD SWAP2 POP POP PUSH1 0x40 MLOAD PUSH1 0x20 DUP2 DUP4 SUB SUB DUP2 MSTORE SWAP1 PUSH1 0x40 MSTORE PUSH1 0x40 MLOAD DUP1 DUP3 DUP1 MLOAD SWAP1 PUSH1 0x20 ADD SWAP1 DUP1 DUP4 DUP4 PUSH1 0x20 DUP4 LT PUSH2 0x1B16 JUMPI DUP1 MLOAD DUP3 MSTORE PUSH1 0x1F NOT SWAP1 SWAP3 ADD SWAP2 PUSH1 0x20 SWAP2 DUP3 ADD SWAP2 ADD PUSH2 0x1AF7 JUMP JUMPDEST PUSH1 0x0 PUSH1 0x6 PUSH1 0x0 PUSH1 0x40 MLOAD PUSH1 0x20 ADD DUP1 DUP1 PUSH32 0x73686F756C64456D6974496E6974696174654368616E67650000000000000000 DUP2 MSTORE POP PUSH1 0x18 ADD SWAP1 POP PUSH1 0x40 MLOAD PUSH1 0x20 DUP2 DUP4 SUB SUB DUP2 MSTORE SWAP1 PUSH1 0x40 MSTORE PUSH1 0x40 MLOAD DUP1 DUP3 DUP1 MLOAD SWAP1 PUSH1 0x20 ADD SWAP1 DUP1 DUP4 DUP4 PUSH1 0x20 DUP4 LT PUSH2 0x14B3 JUMPI DUP1 MLOAD DUP3 MSTORE PUSH1 0x1F NOT SWAP1 SWAP3 ADD SWAP2 PUSH1 0x20 SWAP2 DUP3 ADD SWAP2 ADD PUSH2 0x1494 JUMP JUMPDEST PUSH2 0x1EFB CALLER DUP3 DUP5 PUSH2 0x3001 JUMP JUMPDEST PUSH1 0x0 DUP1 JUMPDEST PUSH2 0x29F4 PUSH2 0x1503 JUMP JUMPDEST DUP2 LT ISZERO PUSH2 0x1136 JUMPI PUSH2 0x2A04 DUP2 PUSH2 0x15BA JUMP JUMPDEST PUSH1 0x1 PUSH1 0xA0 PUSH1 0x2 EXP SUB AND DUP4 PUSH1 0x1 PUSH1 0xA0 PUSH1 0x2 EXP SUB AND EQ ISZERO PUSH2 0x2A26 JUMPI PUSH1 0x1 SWAP2 POP PUSH2 0x113B JUMP JUMPDEST PUSH1 0x1 ADD PUSH2 0x29EC JUMP JUMPDEST PUSH1 0x0 DUP1 JUMPDEST PUSH2 0x2A3A PUSH2 0x12DC JUMP JUMPDEST DUP2 LT ISZERO PUSH2 0x1136 JUMPI PUSH2 0x2A4A DUP2 PUSH2 0xBC3 JUMP JUMPDEST PUSH1 0x1 PUSH1 0xA0 PUSH1 0x2 EXP SUB AND DUP4 PUSH1 0x1 PUSH1 0xA0 PUSH1 0x2 EXP SUB AND EQ ISZERO PUSH2 0x2A6C JUMPI PUSH1 0x1 SWAP2 POP PUSH2 0x113B JUMP JUMPDEST PUSH1 0x1 ADD PUSH2 0x2A32 JUMP JUMPDEST PUSH11 0x422CA8B0A00A425000000 SWAP1 JUMP JUMPDEST PUSH1 0x40 DUP1 MLOAD PUSH1 0x0 DUP1 MLOAD PUSH1 0x20 PUSH2 0x4F2A DUP4 CODECOPY DUP2 MLOAD SWAP2 MSTORE PUSH1 0x20 DUP1 DUP4 ADD SWAP2 SWAP1 SWAP2 MSTORE PUSH1 0x60 PUSH1 0x2 EXP PUSH1 0x1 PUSH1 0xA0 PUSH1 0x2 EXP SUB DUP1 DUP9 AND DUP3 MUL PUSH1 0x2F DUP6 ADD MSTORE DUP7 AND MUL PUSH1 0x43 DUP4 ADD MSTORE DUP3 MLOAD PUSH1 0x37 DUP2 DUP5 SUB ADD DUP2 MSTORE PUSH1 0x57 SWAP1 SWAP3 ADD SWAP3 DUP4 SWAP1 MSTORE DUP2 MLOAD PUSH2 0x2B4D SWAP4 DUP6 SWAP4 PUSH1 0x2 SWAP4 PUSH1 0x0 SWAP4 SWAP2 SWAP3 SWAP2 DUP3 SWAP2 DUP5 ADD SWAP1 DUP1 DUP4 DUP4 JUMPDEST PUSH1 0x20 DUP4 LT PUSH2 0x2B0A JUMPI DUP1 MLOAD DUP3 MSTORE PUSH1 0x1F NOT SWAP1 SWAP3 ADD SWAP2 PUSH1 0x20 SWAP2 DUP3 ADD SWAP2 ADD PUSH2 0x2AEB JUMP JUMPDEST MLOAD DUP2 MLOAD PUSH1 0x20 SWAP4 DUP5 SUB PUSH2 0x100 EXP PUSH1 0x0 NOT ADD DUP1 NOT SWAP1 SWAP3 AND SWAP2 AND OR SWAP1 MSTORE PUSH1 0x40 DUP1 MLOAD SWAP3 SWAP1 SWAP5 ADD DUP3 SWAP1 SUB SWAP1 SWAP2 KECCAK256 DUP7 MSTORE DUP6 ADD SWAP6 SWAP1 SWAP6 MSTORE SWAP3 SWAP1 SWAP3 ADD PUSH1 0x0 KECCAK256 SLOAD SWAP4 SWAP3 POP POP PUSH2 0x3865 SWAP1 POP JUMP JUMPDEST PUSH1 0x40 DUP1 MLOAD PUSH1 0x0 DUP1 MLOAD PUSH1 0x20 PUSH2 0x4F2A DUP4 CODECOPY DUP2 MLOAD SWAP2 MSTORE PUSH1 0x20 DUP1 DUP4 ADD SWAP2 SWAP1 SWAP2 MSTORE PUSH1 0x60 PUSH1 0x2 EXP PUSH1 0x1 PUSH1 0xA0 PUSH1 0x2 EXP SUB DUP1 DUP10 AND DUP3 MUL PUSH1 0x2F DUP6 ADD MSTORE DUP8 AND MUL PUSH1 0x43 DUP4 ADD MSTORE DUP3 MLOAD PUSH1 0x37 DUP2 DUP5 SUB ADD DUP2 MSTORE PUSH1 0x57 SWAP1 SWAP3 ADD SWAP3 DUP4 SWAP1 MSTORE DUP2 MLOAD PUSH1 0x2 SWAP4 PUSH1 0x0 SWAP4 SWAP3 SWAP1 SWAP2 DUP3 SWAP2 DUP5 ADD SWAP1 DUP1 DUP4 DUP4 JUMPDEST PUSH1 0x20 DUP4 LT PUSH2 0x2BCE JUMPI DUP1 MLOAD DUP3 MSTORE PUSH1 0x1F NOT SWAP1 SWAP3 ADD SWAP2 PUSH1 0x20 SWAP2 DUP3 ADD SWAP2 ADD PUSH2 0x2BAF JUMP JUMPDEST MLOAD DUP2 MLOAD PUSH1 0x20 SWAP4 DUP5 SUB PUSH2 0x100 EXP PUSH1 0x0 NOT ADD DUP1 NOT SWAP1 SWAP3 AND SWAP2 AND OR SWAP1 MSTORE PUSH1 0x40 DUP1 MLOAD SWAP3 SWAP1 SWAP5 ADD DUP3 SWAP1 SUB SWAP1 SWAP2 KECCAK256 DUP7 MSTORE DUP6 ADD SWAP6 SWAP1 SWAP6 MSTORE SWAP3 SWAP1 SWAP3 ADD PUSH1 0x0 KECCAK256 SWAP4 SWAP1 SWAP4 SSTORE POP POP POP PUSH1 0x1 PUSH1 0xA0 PUSH1 0x2 EXP SUB DUP3 DUP2 AND SWAP1 DUP5 AND EQ DUP1 ISZERO SWAP1 PUSH2 0x2C2F JUMPI POP PUSH2 0x2C2D DUP3 DUP5 PUSH2 0x22BA JUMP JUMPDEST ISZERO JUMPDEST ISZERO PUSH2 0xB1A JUMPI PUSH2 0xB1A DUP4 DUP4 PUSH2 0x3A1A JUMP JUMPDEST PUSH2 0x2CC2 DUP2 PUSH1 0x2 PUSH1 0x0 DUP6 PUSH1 0x40 MLOAD PUSH1 0x20 ADD DUP1 DUP1 PUSH1 0x0 DUP1 MLOAD PUSH1 0x20 PUSH2 0x4ECA DUP4 CODECOPY DUP2 MLOAD SWAP2 MSTORE DUP2 MSTORE POP PUSH1 0xB ADD DUP3 PUSH1 0x1 PUSH1 0xA0 PUSH1 0x2 EXP SUB AND PUSH1 0x1 PUSH1 0xA0 PUSH1 0x2 EXP SUB AND PUSH1 0x60 PUSH1 0x2 EXP MUL DUP2 MSTORE PUSH1 0x14 ADD SWAP2 POP POP PUSH1 0x40 MLOAD PUSH1 0x20 DUP2 DUP4 SUB SUB DUP2 MSTORE SWAP1 PUSH1 0x40 MSTORE PUSH1 0x40 MLOAD DUP1 DUP3 DUP1 MLOAD SWAP1 PUSH1 0x20 ADD SWAP1 DUP1 DUP4 DUP4 PUSH1 0x20 DUP4 LT PUSH2 0x2B0A JUMPI DUP1 MLOAD DUP3 MSTORE PUSH1 0x1F NOT SWAP1 SWAP3 ADD SWAP2 PUSH1 0x20 SWAP2 DUP3 ADD SWAP2 ADD PUSH2 0x2AEB JUMP JUMPDEST PUSH1 0x2 PUSH1 0x0 DUP5 PUSH1 0x40 MLOAD PUSH1 0x20 ADD DUP1 DUP1 PUSH1 0x0 DUP1 MLOAD PUSH1 0x20 PUSH2 0x4ECA DUP4 CODECOPY DUP2 MLOAD SWAP2 MSTORE DUP2 MSTORE POP PUSH1 0xB ADD DUP3 PUSH1 0x1 PUSH1 0xA0 PUSH1 0x2 EXP SUB AND PUSH1 0x1 PUSH1 0xA0 PUSH1 0x2 EXP SUB AND PUSH1 0x60 PUSH1 0x2 EXP MUL DUP2 MSTORE PUSH1 0x14 ADD SWAP2 POP POP PUSH1 0x40 MLOAD PUSH1 0x20 DUP2 DUP4 SUB SUB DUP2 MSTORE SWAP1 PUSH1 0x40 MSTORE PUSH1 0x40 MLOAD DUP1 DUP3 DUP1 MLOAD SWAP1 PUSH1 0x20 ADD SWAP1 DUP1 DUP4 DUP4 JUMPDEST PUSH1 0x20 DUP4 LT PUSH2 0x2D43 JUMPI DUP1 MLOAD DUP3 MSTORE PUSH1 0x1F NOT SWAP1 SWAP3 ADD SWAP2 PUSH1 0x20 SWAP2 DUP3 ADD SWAP2 ADD PUSH2 0x2D24 JUMP JUMPDEST MLOAD DUP2 MLOAD PUSH1 0x20 SWAP4 DUP5 SUB PUSH2 0x100 EXP PUSH1 0x0 NOT ADD DUP1 NOT SWAP1 SWAP3 AND SWAP2 AND OR SWAP1 MSTORE PUSH1 0x40 DUP1 MLOAD SWAP3 SWAP1 SWAP5 ADD DUP3 SWAP1 SUB SWAP1 SWAP2 KECCAK256 DUP7 MSTORE DUP6 ADD SWAP6 SWAP1 SWAP6 MSTORE SWAP3 SWAP1 SWAP3 ADD PUSH1 0x0 KECCAK256 SWAP4 SWAP1 SWAP4 SSTORE POP POP POP POP POP JUMP JUMPDEST PUSH2 0x2D8E DUP2 PUSH2 0x10F0 JUMP JUMPDEST ISZERO PUSH2 0x2D98 JUMPI PUSH1 0x0 DUP1 REVERT JUMPDEST PUSH1 0xA PUSH1 0x0 PUSH1 0x40 MLOAD PUSH1 0x20 ADD DUP1 DUP1 PUSH1 0x0 DUP1 MLOAD PUSH1 0x20 PUSH2 0x4E8A DUP4 CODECOPY DUP2 MLOAD SWAP2 MSTORE DUP2 MSTORE POP PUSH1 0x11 ADD SWAP1 POP PUSH1 0x40 MLOAD PUSH1 0x20 DUP2 DUP4 SUB SUB DUP2 MSTORE SWAP1 PUSH1 0x40 MSTORE PUSH1 0x40 MLOAD DUP1 DUP3 DUP1 MLOAD SWAP1 PUSH1 0x20 ADD SWAP1 DUP1 DUP4 DUP4 JUMPDEST PUSH1 0x20 DUP4 LT PUSH2 0x2DF9 JUMPI DUP1 MLOAD DUP3 MSTORE PUSH1 0x1F NOT SWAP1 SWAP3 ADD SWAP2 PUSH1 0x20 SWAP2 DUP3 ADD SWAP2 ADD PUSH2 0x2DDA JUMP JUMPDEST MLOAD DUP2 MLOAD PUSH1 0x20 SWAP4 DUP5 SUB PUSH2 0x100 EXP PUSH1 0x0 NOT ADD DUP1 NOT SWAP1 SWAP3 AND SWAP2 AND OR SWAP1 MSTORE PUSH1 0x40 DUP1 MLOAD SWAP3 SWAP1 SWAP5 ADD DUP3 SWAP1 SUB SWAP1 SWAP2 KECCAK256 DUP7 MSTORE DUP6 DUP2 ADD SWAP7 SWAP1 SWAP7 MSTORE POP SWAP3 SWAP1 SWAP3 ADD PUSH1 0x0 SWAP1 DUP2 KECCAK256 DUP1 SLOAD PUSH1 0x1 DUP2 ADD DUP3 SSTORE SWAP1 DUP3 MSTORE SWAP4 SWAP1 KECCAK256 SWAP1 SWAP3 ADD DUP1 SLOAD PUSH1 0x1 PUSH1 0xA0 PUSH1 0x2 EXP SUB NOT AND PUSH1 0x1 PUSH1 0xA0 PUSH1 0x2 EXP SUB SWAP5 SWAP1 SWAP5 AND SWAP4 SWAP1 SWAP4 OR SWAP1 SWAP3 SSTORE POP POP JUMP JUMPDEST DUP1 PUSH1 0x2 PUSH1 0x0 DUP5 PUSH1 0x40 MLOAD PUSH1 0x20 ADD DUP1 DUP1 PUSH32 0x76616C696461746F724665650000000000000000000000000000000000000000 DUP2 MSTORE POP PUSH1 0xC ADD DUP3 PUSH1 0x1 PUSH1 0xA0 PUSH1 0x2 EXP SUB AND PUSH1 0x1 PUSH1 0xA0 PUSH1 0x2 EXP SUB AND PUSH1 0x60 PUSH1 0x2 EXP MUL DUP2 MSTORE PUSH1 0x14 ADD SWAP2 POP POP PUSH1 0x40 MLOAD PUSH1 0x20 DUP2 DUP4 SUB SUB DUP2 MSTORE SWAP1 PUSH1 0x40 MSTORE PUSH1 0x40 MLOAD DUP1 DUP3 DUP1 MLOAD SWAP1 PUSH1 0x20 ADD SWAP1 DUP1 DUP4 DUP4 PUSH1 0x20 DUP4 LT PUSH2 0x2D43 JUMPI DUP1 MLOAD DUP3 MSTORE PUSH1 0x1F NOT SWAP1 SWAP3 ADD SWAP2 PUSH1 0x20 SWAP2 DUP3 ADD SWAP2 ADD PUSH2 0x2D24 JUMP JUMPDEST PUSH2 0x2F5F DUP2 PUSH1 0x2 PUSH1 0x0 PUSH1 0x40 MLOAD PUSH1 0x20 ADD DUP1 DUP1 PUSH1 0x0 DUP1 MLOAD PUSH1 0x20 PUSH2 0x4EEA DUP4 CODECOPY DUP2 MLOAD SWAP2 MSTORE DUP2 MSTORE POP PUSH1 0x10 ADD SWAP1 POP PUSH1 0x40 MLOAD PUSH1 0x20 DUP2 DUP4 SUB SUB DUP2 MSTORE SWAP1 PUSH1 0x40 MSTORE PUSH1 0x40 MLOAD DUP1 DUP3 DUP1 MLOAD SWAP1 PUSH1 0x20 ADD SWAP1 DUP1 DUP4 DUP4 PUSH1 0x20 DUP4 LT PUSH2 0x2B0A JUMPI DUP1 MLOAD DUP3 MSTORE PUSH1 0x1F NOT SWAP1 SWAP3 ADD SWAP2 PUSH1 0x20 SWAP2 DUP3 ADD SWAP2 ADD PUSH2 0x2AEB JUMP JUMPDEST PUSH1 0x2 PUSH1 0x0 PUSH1 0x40 MLOAD PUSH1 0x20 ADD DUP1 DUP1 PUSH1 0x0 DUP1 MLOAD PUSH1 0x20 PUSH2 0x4EEA DUP4 CODECOPY DUP2 MLOAD SWAP2 MSTORE DUP2 MSTORE POP PUSH1 0x10 ADD SWAP1 POP PUSH1 0x40 MLOAD PUSH1 0x20 DUP2 DUP4 SUB SUB DUP2 MSTORE SWAP1 PUSH1 0x40 MSTORE PUSH1 0x40 MLOAD DUP1 DUP3 DUP1 MLOAD SWAP1 PUSH1 0x20 ADD SWAP1 DUP1 DUP4 DUP4 JUMPDEST PUSH1 0x20 DUP4 LT PUSH2 0x2FC0 JUMPI DUP1 MLOAD DUP3 MSTORE PUSH1 0x1F NOT SWAP1 SWAP3 ADD SWAP2 PUSH1 0x20 SWAP2 DUP3 ADD SWAP2 ADD PUSH2 0x2FA1 JUMP JUMPDEST MLOAD DUP2 MLOAD PUSH1 0x20 SWAP4 DUP5 SUB PUSH2 0x100 EXP PUSH1 0x0 NOT ADD DUP1 NOT SWAP1 SWAP3 AND SWAP2 AND OR SWAP1 MSTORE PUSH1 0x40 DUP1 MLOAD SWAP3 SWAP1 SWAP5 ADD DUP3 SWAP1 SUB SWAP1 SWAP2 KECCAK256 DUP7 MSTORE DUP6 ADD SWAP6 SWAP1 SWAP6 MSTORE SWAP3 SWAP1 SWAP3 ADD PUSH1 0x0 KECCAK256 SWAP4 SWAP1 SWAP4 SSTORE POP POP POP POP JUMP JUMPDEST PUSH1 0x0 PUSH1 0x1 PUSH1 0xA0 PUSH1 0x2 EXP SUB DUP3 AND ISZERO ISZERO PUSH2 0x3018 JUMPI PUSH1 0x0 DUP1 REVERT JUMPDEST PUSH1 0x0 DUP4 GT PUSH2 0x3025 JUMPI PUSH1 0x0 DUP1 REVERT JUMPDEST PUSH2 0x302E DUP3 PUSH2 0x2456 JUMP JUMPDEST DUP4 GT ISZERO PUSH2 0x303A JUMPI PUSH1 0x0 DUP1 REVERT JUMPDEST PUSH2 0x3044 DUP5 DUP4 PUSH2 0x1218 JUMP JUMPDEST DUP4 GT ISZERO PUSH2 0x3050 JUMPI PUSH1 0x0 DUP1 REVERT JUMPDEST PUSH2 0x3059 DUP3 PUSH2 0x29E8 JUMP JUMPDEST SWAP1 POP PUSH2 0x3063 PUSH2 0x15AC JUMP JUMPDEST PUSH2 0x307C DUP5 PUSH2 0x3070 DUP6 PUSH2 0x2456 JUMP JUMPDEST SWAP1 PUSH4 0xFFFFFFFF PUSH2 0x3B0B AND JUMP JUMPDEST LT DUP1 ISZERO PUSH2 0x3086 JUMPI POP DUP1 JUMPDEST ISZERO PUSH2 0x3099 JUMPI PUSH2 0x3094 DUP3 PUSH2 0x3B22 JUMP JUMPDEST PUSH2 0x3115 JUMP JUMPDEST PUSH2 0x30A4 DUP5 DUP4 DUP6 PUSH2 0x3D20 JUMP JUMPDEST PUSH2 0x30AE DUP3 DUP5 PUSH2 0x3F72 JUMP JUMPDEST DUP1 ISZERO PUSH2 0x30BD JUMPI PUSH2 0x30BD DUP4 PUSH2 0x3FF6 JUMP JUMPDEST PUSH2 0x30C5 PUSH2 0x15AC JUMP JUMPDEST PUSH2 0x30CE DUP4 PUSH2 0x2456 JUMP JUMPDEST LT ISZERO PUSH2 0x30DD JUMPI PUSH2 0x30DD DUP3 PUSH2 0x3B22 JUMP JUMPDEST PUSH1 0x40 MLOAD PUSH1 0x1 PUSH1 0xA0 PUSH1 0x2 EXP SUB DUP6 AND SWAP1 DUP5 ISZERO PUSH2 0x8FC MUL SWAP1 DUP6 SWAP1 PUSH1 0x0 DUP2 DUP2 DUP2 DUP6 DUP9 DUP9 CALL SWAP4 POP POP POP POP ISZERO DUP1 ISZERO PUSH2 0x3113 JUMPI RETURNDATASIZE PUSH1 0x0 DUP1 RETURNDATACOPY RETURNDATASIZE PUSH1 0x0 REVERT JUMPDEST POP JUMPDEST POP POP POP POP JUMP JUMPDEST PUSH1 0x0 DUP2 DUP4 LT ISZERO PUSH2 0x312B JUMPI DUP2 PUSH2 0x312D JUMP JUMPDEST DUP3 JUMPDEST SWAP4 SWAP3 POP POP POP JUMP JUMPDEST PUSH1 0x0 DUP1 DUP4 ISZERO ISZERO PUSH2 0x3147 JUMPI PUSH1 0x0 SWAP2 POP PUSH2 0x2307 JUMP JUMPDEST POP DUP3 DUP3 MUL DUP3 DUP5 DUP3 DUP2 ISZERO ISZERO PUSH2 0x3157 JUMPI INVALID JUMPDEST DIV EQ PUSH2 0x312D JUMPI PUSH1 0x0 DUP1 REVERT JUMPDEST PUSH1 0x0 DUP1 DUP1 DUP4 GT PUSH2 0x3171 JUMPI PUSH1 0x0 DUP1 REVERT JUMPDEST DUP3 DUP5 DUP2 ISZERO ISZERO PUSH2 0x317C JUMPI INVALID JUMPDEST DIV SWAP5 SWAP4 POP POP POP POP JUMP JUMPDEST PUSH2 0x318E DUP2 PUSH2 0x3B22 JUMP JUMPDEST PUSH2 0x143B DUP2 PUSH2 0x405A JUMP JUMPDEST PUSH2 0x31A0 DUP2 PUSH2 0x40BA JUMP JUMPDEST PUSH2 0x31A8 PUSH2 0x15AC JUMP JUMPDEST PUSH2 0x31B1 DUP3 PUSH2 0x2456 JUMP JUMPDEST LT ISZERO DUP1 ISZERO PUSH2 0x31C5 JUMPI POP PUSH2 0x31C3 DUP2 PUSH2 0x2A2E JUMP JUMPDEST ISZERO JUMPDEST ISZERO PUSH2 0x143B JUMPI PUSH2 0x143B DUP2 PUSH2 0x2D85 JUMP JUMPDEST PUSH1 0x0 DUP1 DUP1 DUP1 JUMPDEST DUP5 MLOAD DUP4 LT ISZERO PUSH2 0x326D JUMPI PUSH2 0x3202 DUP6 DUP5 DUP2 MLOAD DUP2 LT ISZERO ISZERO PUSH2 0x31F3 JUMPI INVALID JUMPDEST SWAP1 PUSH1 0x20 ADD SWAP1 PUSH1 0x20 MUL ADD MLOAD PUSH2 0x2456 JUMP JUMPDEST SWAP2 POP DUP2 DUP5 ADD SWAP4 POP PUSH2 0x3229 DUP6 DUP5 DUP2 MLOAD DUP2 LT ISZERO ISZERO PUSH2 0x321A JUMPI INVALID JUMPDEST SWAP1 PUSH1 0x20 ADD SWAP1 PUSH1 0x20 MUL ADD MLOAD PUSH2 0x2226 JUMP JUMPDEST SWAP1 POP PUSH2 0x3233 PUSH2 0x10E4 JUMP JUMPDEST DUP2 LT ISZERO PUSH2 0x3262 JUMPI PUSH2 0x3262 DUP6 DUP5 DUP2 MLOAD DUP2 LT ISZERO ISZERO PUSH2 0x324B JUMPI INVALID JUMPDEST SWAP1 PUSH1 0x20 ADD SWAP1 PUSH1 0x20 MUL ADD MLOAD PUSH2 0x325D PUSH2 0x10E4 JUMP JUMPDEST PUSH2 0x2E68 JUMP JUMPDEST PUSH1 0x1 DUP4 ADD SWAP3 POP PUSH2 0x31D9 JUMP JUMPDEST PUSH2 0x3276 DUP5 PUSH2 0x4260 JUMP JUMPDEST DUP5 PUSH1 0xA PUSH1 0x0 PUSH1 0x40 MLOAD PUSH1 0x20 ADD DUP1 DUP1 PUSH1 0x0 DUP1 MLOAD PUSH1 0x20 PUSH2 0x4F0A DUP4 CODECOPY DUP2 MLOAD SWAP2 MSTORE DUP2 MSTORE POP PUSH1 0x11 ADD SWAP1 POP PUSH1 0x40 MLOAD PUSH1 0x20 DUP2 DUP4 SUB SUB DUP2 MSTORE SWAP1 PUSH1 0x40 MSTORE PUSH1 0x40 MLOAD DUP1 DUP3 DUP1 MLOAD SWAP1 PUSH1 0x20 ADD SWAP1 DUP1 DUP4 DUP4 JUMPDEST PUSH1 0x20 DUP4 LT PUSH2 0x32D8 JUMPI DUP1 MLOAD DUP3 MSTORE PUSH1 0x1F NOT SWAP1 SWAP3 ADD SWAP2 PUSH1 0x20 SWAP2 DUP3 ADD SWAP2 ADD PUSH2 0x32B9 JUMP JUMPDEST MLOAD DUP2 MLOAD PUSH1 0x0 NOT PUSH1 0x20 SWAP5 DUP6 SUB PUSH2 0x100 EXP ADD SWAP1 DUP2 AND SWAP1 NOT SWAP2 SWAP1 SWAP2 AND OR SWAP1 MSTORE PUSH1 0x40 DUP1 MLOAD SWAP5 SWAP1 SWAP3 ADD DUP5 SWAP1 SUB SWAP1 SWAP4 KECCAK256 DUP7 MSTORE DUP6 DUP4 ADD SWAP7 SWAP1 SWAP7 MSTORE POP SWAP3 SWAP1 SWAP4 ADD PUSH1 0x0 KECCAK256 DUP5 MLOAD PUSH2 0x1EF6 SWAP6 SWAP2 SWAP5 POP SWAP3 ADD SWAP2 SWAP1 POP PUSH2 0x4D62 JUMP JUMPDEST DUP1 PUSH1 0x6 PUSH1 0x0 PUSH1 0x40 MLOAD PUSH1 0x20 ADD DUP1 DUP1 PUSH32 0x697346696E616C697A6564000000000000000000000000000000000000000000 DUP2 MSTORE POP PUSH1 0xB ADD SWAP1 POP PUSH1 0x40 MLOAD PUSH1 0x20 DUP2 DUP4 SUB SUB DUP2 MSTORE SWAP1 PUSH1 0x40 MSTORE PUSH1 0x40 MLOAD DUP1 DUP3 DUP1 MLOAD SWAP1 PUSH1 0x20 ADD SWAP1 DUP1 DUP4 DUP4 PUSH1 0x20 DUP4 LT PUSH2 0x1097 JUMPI DUP1 MLOAD DUP3 MSTORE PUSH1 0x1F NOT SWAP1 SWAP3 ADD SWAP2 PUSH1 0x20 SWAP2 DUP3 ADD SWAP2 ADD PUSH2 0x1078 JUMP JUMPDEST PUSH1 0x2 PUSH1 0x0 DUP3 PUSH1 0x40 MLOAD PUSH1 0x20 ADD DUP1 DUP1 PUSH1 0x0 DUP1 MLOAD PUSH1 0x20 PUSH2 0x4E6A DUP4 CODECOPY DUP2 MLOAD SWAP2 MSTORE DUP2 MSTORE POP PUSH1 0xC ADD DUP3 PUSH1 0x1 PUSH1 0xA0 PUSH1 0x2 EXP SUB AND PUSH1 0x1 PUSH1 0xA0 PUSH1 0x2 EXP SUB AND PUSH1 0x60 PUSH1 0x2 EXP MUL DUP2 MSTORE PUSH1 0x14 ADD SWAP2 POP POP PUSH1 0x40 MLOAD PUSH1 0x20 DUP2 DUP4 SUB SUB DUP2 MSTORE SWAP1 PUSH1 0x40 MSTORE PUSH1 0x40 MLOAD DUP1 DUP3 DUP1 MLOAD SWAP1 PUSH1 0x20 ADD SWAP1 DUP1 DUP4 DUP4 JUMPDEST PUSH1 0x20 DUP4 LT PUSH2 0x341A JUMPI DUP1 MLOAD DUP3 MSTORE PUSH1 0x1F NOT SWAP1 SWAP3 ADD SWAP2 PUSH1 0x20 SWAP2 DUP3 ADD SWAP2 ADD PUSH2 0x33FB JUMP JUMPDEST MLOAD DUP2 MLOAD PUSH1 0x20 SWAP4 DUP5 SUB PUSH2 0x100 EXP PUSH1 0x0 NOT ADD DUP1 NOT SWAP1 SWAP3 AND SWAP2 AND OR SWAP1 MSTORE PUSH1 0x40 DUP1 MLOAD SWAP3 SWAP1 SWAP5 ADD DUP3 SWAP1 SUB SWAP1 SWAP2 KECCAK256 DUP7 MSTORE DUP6 DUP2 ADD SWAP7 SWAP1 SWAP7 MSTORE POP SWAP3 DUP4 ADD PUSH1 0x0 SWAP1 DUP2 KECCAK256 SLOAD DUP5 MLOAD PUSH1 0x0 DUP1 MLOAD PUSH1 0x20 PUSH2 0x4E6A DUP4 CODECOPY DUP2 MLOAD SWAP2 MSTORE DUP2 DUP9 ADD MSTORE PUSH1 0x1 PUSH1 0xA0 PUSH1 0x2 EXP SUB DUP9 AND PUSH1 0x60 PUSH1 0x2 EXP MUL PUSH1 0x2C DUP3 ADD MSTORE DUP6 MLOAD DUP1 DUP3 SUB DUP9 ADD DUP2 MSTORE SWAP1 DUP7 ADD SWAP6 DUP7 SWAP1 MSTORE DUP1 MLOAD PUSH1 0x1 SWAP1 SWAP3 ADD SWAP7 PUSH1 0x2 SWAP7 SWAP4 SWAP6 POP SWAP1 SWAP4 POP DUP3 SWAP2 DUP5 DUP3 ADD SWAP2 DUP2 SWAP1 DUP5 SWAP1 DUP5 SWAP1 DUP4 LT PUSH2 0x2FC0 JUMPI DUP1 MLOAD DUP3 MSTORE PUSH1 0x1F NOT SWAP1 SWAP3 ADD SWAP2 PUSH1 0x20 SWAP2 DUP3 ADD SWAP2 ADD PUSH2 0x2FA1 JUMP JUMPDEST PUSH1 0x0 PUSH2 0x34D3 PUSH2 0x23D8 JUMP JUMPDEST NUMBER LT ISZERO SWAP1 POP SWAP1 JUMP JUMPDEST NUMBER PUSH1 0x2 PUSH1 0x0 PUSH1 0x40 MLOAD PUSH1 0x20 ADD DUP1 DUP1 PUSH32 0x63757272656E744379636C655374617274426C6F636B00000000000000000000 DUP2 MSTORE POP PUSH1 0x16 ADD SWAP1 POP PUSH1 0x40 MLOAD PUSH1 0x20 DUP2 DUP4 SUB SUB DUP2 MSTORE SWAP1 PUSH1 0x40 MSTORE PUSH1 0x40 MLOAD DUP1 DUP3 DUP1 MLOAD SWAP1 PUSH1 0x20 ADD SWAP1 DUP1 DUP4 DUP4 JUMPDEST PUSH1 0x20 DUP4 LT PUSH2 0x354F JUMPI DUP1 MLOAD DUP3 MSTORE PUSH1 0x1F NOT SWAP1 SWAP3 ADD SWAP2 PUSH1 0x20 SWAP2 DUP3 ADD SWAP2 ADD PUSH2 0x3530 JUMP JUMPDEST MLOAD DUP2 MLOAD PUSH1 0x20 SWAP4 DUP5 SUB PUSH2 0x100 EXP PUSH1 0x0 NOT ADD DUP1 NOT SWAP1 SWAP3 AND SWAP2 AND OR SWAP1 MSTORE PUSH1 0x40 DUP1 MLOAD SWAP3 SWAP1 SWAP5 ADD DUP3 SWAP1 SUB SWAP1 SWAP2 KECCAK256 DUP7 MSTORE DUP6 ADD SWAP6 SWAP1 SWAP6 MSTORE SWAP3 SWAP1 SWAP3 ADD PUSH1 0x0 KECCAK256 SWAP4 SWAP1 SWAP4 SSTORE POP PUSH2 0x3597 SWAP2 POP PUSH2 0x2370 SWAP1 POP JUMP JUMPDEST NUMBER ADD PUSH1 0x2 PUSH1 0x0 PUSH1 0x40 MLOAD PUSH1 0x20 ADD DUP1 DUP1 PUSH32 0x63757272656E744379636C65456E64426C6F636B000000000000000000000000 DUP2 MSTORE POP PUSH1 0x14 ADD SWAP1 POP PUSH1 0x40 MLOAD PUSH1 0x20 DUP2 DUP4 SUB SUB DUP2 MSTORE SWAP1 PUSH1 0x40 MSTORE PUSH1 0x40 MLOAD DUP1 DUP3 DUP1 MLOAD SWAP1 PUSH1 0x20 ADD SWAP1 DUP1 DUP4 DUP4 JUMPDEST PUSH1 0x20 DUP4 LT PUSH2 0x360C JUMPI DUP1 MLOAD DUP3 MSTORE PUSH1 0x1F NOT SWAP1 SWAP3 ADD SWAP2 PUSH1 0x20 SWAP2 DUP3 ADD SWAP2 ADD PUSH2 0x35ED JUMP JUMPDEST MLOAD DUP2 MLOAD PUSH1 0x20 SWAP4 DUP5 SUB PUSH2 0x100 EXP PUSH1 0x0 NOT ADD DUP1 NOT SWAP1 SWAP3 AND SWAP2 AND OR SWAP1 MSTORE PUSH1 0x40 DUP1 MLOAD SWAP3 SWAP1 SWAP5 ADD DUP3 SWAP1 SUB SWAP1 SWAP2 KECCAK256 DUP7 MSTORE DUP6 ADD SWAP6 SWAP1 SWAP6 MSTORE SWAP3 SWAP1 SWAP3 ADD PUSH1 0x0 KECCAK256 SWAP4 SWAP1 SWAP4 SSTORE POP POP POP JUMP JUMPDEST PUSH1 0x0 DUP1 PUSH2 0x3668 PUSH2 0x2710 PUSH2 0x184F DUP6 MLOAD PUSH2 0x184F PUSH2 0xBB8 PUSH2 0x185B PUSH2 0x2370 JUMP JUMPDEST SWAP2 POP JUMPDEST DUP3 MLOAD DUP2 LT ISZERO PUSH2 0xB1A JUMPI DUP2 PUSH2 0x3695 DUP5 DUP4 DUP2 MLOAD DUP2 LT ISZERO ISZERO PUSH2 0x3686 JUMPI INVALID JUMPDEST SWAP1 PUSH1 0x20 ADD SWAP1 PUSH1 0x20 MUL ADD MLOAD PUSH2 0x1B57 JUMP JUMPDEST LT ISZERO PUSH2 0x36C0 JUMPI PUSH2 0x36BB DUP4 DUP3 DUP2 MLOAD DUP2 LT ISZERO ISZERO PUSH2 0x36AC JUMPI INVALID JUMPDEST SWAP1 PUSH1 0x20 ADD SWAP1 PUSH1 0x20 MUL ADD MLOAD PUSH2 0x42C1 JUMP JUMPDEST PUSH2 0x3708 JUMP JUMPDEST PUSH1 0x0 PUSH2 0x36E2 DUP5 DUP4 DUP2 MLOAD DUP2 LT ISZERO ISZERO PUSH2 0x36D3 JUMPI INVALID JUMPDEST SWAP1 PUSH1 0x20 ADD SWAP1 PUSH1 0x20 MUL ADD MLOAD PUSH2 0x1A93 JUMP JUMPDEST GT ISZERO PUSH2 0x3708 JUMPI PUSH2 0x3708 DUP4 DUP3 DUP2 MLOAD DUP2 LT ISZERO ISZERO PUSH2 0x36F9 JUMPI INVALID JUMPDEST SWAP1 PUSH1 0x20 ADD SWAP1 PUSH1 0x20 MUL ADD MLOAD PUSH2 0x42E5 JUMP JUMPDEST PUSH2 0x3728 DUP4 DUP3 DUP2 MLOAD DUP2 LT ISZERO ISZERO PUSH2 0x3719 JUMPI INVALID JUMPDEST SWAP1 PUSH1 0x20 ADD SWAP1 PUSH1 0x20 MUL ADD MLOAD PUSH2 0x4524 JUMP JUMPDEST PUSH1 0x1 ADD PUSH2 0x366B JUMP JUMPDEST DUP1 PUSH1 0xA PUSH1 0x0 PUSH1 0x40 MLOAD PUSH1 0x20 ADD DUP1 DUP1 PUSH32 0x6E657756616C696461746F725365740000000000000000000000000000000000 DUP2 MSTORE POP PUSH1 0xF ADD SWAP1 POP PUSH1 0x40 MLOAD PUSH1 0x20 DUP2 DUP4 SUB SUB DUP2 MSTORE SWAP1 PUSH1 0x40 MSTORE PUSH1 0x40 MLOAD DUP1 DUP3 DUP1 MLOAD SWAP1 PUSH1 0x20 ADD SWAP1 DUP1 DUP4 DUP4 JUMPDEST PUSH1 0x20 DUP4 LT PUSH2 0x37A4 JUMPI DUP1 MLOAD DUP3 MSTORE PUSH1 0x1F NOT SWAP1 SWAP3 ADD SWAP2 PUSH1 0x20 SWAP2 DUP3 ADD SWAP2 ADD PUSH2 0x3785 JUMP JUMPDEST MLOAD DUP2 MLOAD PUSH1 0x0 NOT PUSH1 0x20 SWAP5 DUP6 SUB PUSH2 0x100 EXP ADD SWAP1 DUP2 AND SWAP1 NOT SWAP2 SWAP1 SWAP2 AND OR SWAP1 MSTORE PUSH1 0x40 DUP1 MLOAD SWAP5 SWAP1 SWAP3 ADD DUP5 SWAP1 SUB SWAP1 SWAP4 KECCAK256 DUP7 MSTORE DUP6 DUP4 ADD SWAP7 SWAP1 SWAP7 MSTORE POP SWAP3 SWAP1 SWAP4 ADD PUSH1 0x0 KECCAK256 DUP5 MLOAD PUSH2 0x1EFB SWAP6 SWAP2 SWAP5 POP SWAP3 ADD SWAP2 SWAP1 POP PUSH2 0x4D62 JUMP JUMPDEST DUP1 PUSH1 0x6 PUSH1 0x0 PUSH1 0x40 MLOAD PUSH1 0x20 ADD DUP1 DUP1 PUSH32 0x73686F756C64456D6974496E6974696174654368616E67650000000000000000 DUP2 MSTORE POP PUSH1 0x18 ADD SWAP1 POP PUSH1 0x40 MLOAD PUSH1 0x20 DUP2 DUP4 SUB SUB DUP2 MSTORE SWAP1 PUSH1 0x40 MSTORE PUSH1 0x40 MLOAD DUP1 DUP3 DUP1 MLOAD SWAP1 PUSH1 0x20 ADD SWAP1 DUP1 DUP4 DUP4 PUSH1 0x20 DUP4 LT PUSH2 0x1097 JUMPI DUP1 MLOAD DUP3 MSTORE PUSH1 0x1F NOT SWAP1 SWAP3 ADD SWAP2 PUSH1 0x20 SWAP2 DUP3 ADD SWAP2 ADD PUSH2 0x1078 JUMP JUMPDEST PUSH1 0x0 DUP3 DUP3 ADD DUP4 DUP2 LT ISZERO PUSH2 0x312D JUMPI PUSH1 0x0 DUP1 REVERT JUMPDEST DUP1 PUSH1 0x4 PUSH1 0x0 PUSH1 0x40 MLOAD PUSH1 0x20 ADD DUP1 DUP1 PUSH32 0x53595354454D5F41444452455353000000000000000000000000000000000000 DUP2 MSTORE POP PUSH1 0xE ADD SWAP1 POP PUSH1 0x40 MLOAD PUSH1 0x20 DUP2 DUP4 SUB SUB DUP2 MSTORE SWAP1 PUSH1 0x40 MSTORE PUSH1 0x40 MLOAD DUP1 DUP3 DUP1 MLOAD SWAP1 PUSH1 0x20 ADD SWAP1 DUP1 DUP4 DUP4 JUMPDEST PUSH1 0x20 DUP4 LT PUSH2 0x38EB JUMPI DUP1 MLOAD DUP3 MSTORE PUSH1 0x1F NOT SWAP1 SWAP3 ADD SWAP2 PUSH1 0x20 SWAP2 DUP3 ADD SWAP2 ADD PUSH2 0x38CC JUMP JUMPDEST MLOAD DUP2 MLOAD PUSH1 0x20 SWAP4 DUP5 SUB PUSH2 0x100 EXP PUSH1 0x0 NOT ADD DUP1 NOT SWAP1 SWAP3 AND SWAP2 AND OR SWAP1 MSTORE PUSH1 0x40 DUP1 MLOAD SWAP3 SWAP1 SWAP5 ADD DUP3 SWAP1 SUB SWAP1 SWAP2 KECCAK256 DUP7 MSTORE DUP6 ADD SWAP6 SWAP1 SWAP6 MSTORE SWAP3 SWAP1 SWAP3 ADD PUSH1 0x0 KECCAK256 DUP1 SLOAD PUSH1 0x1 PUSH1 0xA0 PUSH1 0x2 EXP SUB NOT AND PUSH1 0x1 PUSH1 0xA0 PUSH1 0x2 EXP SUB SWAP6 SWAP1 SWAP6 AND SWAP5 SWAP1 SWAP5 OR SWAP1 SWAP4 SSTORE POP POP POP POP JUMP JUMPDEST PUSH1 0xA PUSH1 0x0 PUSH1 0x40 MLOAD PUSH1 0x20 ADD DUP1 DUP1 PUSH1 0x0 DUP1 MLOAD PUSH1 0x20 PUSH2 0x4F0A DUP4 CODECOPY DUP2 MLOAD SWAP2 MSTORE DUP2 MSTORE POP PUSH1 0x11 ADD SWAP1 POP PUSH1 0x40 MLOAD PUSH1 0x20 DUP2 DUP4 SUB SUB DUP2 MSTORE SWAP1 PUSH1 0x40 MSTORE PUSH1 0x40 MLOAD DUP1 DUP3 DUP1 MLOAD SWAP1 PUSH1 0x20 ADD SWAP1 DUP1 DUP4 DUP4 PUSH1 0x20 DUP4 LT PUSH2 0x2DF9 JUMPI DUP1 MLOAD DUP3 MSTORE PUSH1 0x1F NOT SWAP1 SWAP3 ADD SWAP2 PUSH1 0x20 SWAP2 DUP3 ADD SWAP2 ADD PUSH2 0x2DDA JUMP JUMPDEST DUP1 PUSH1 0x6 PUSH1 0x0 PUSH1 0x40 MLOAD PUSH1 0x20 ADD DUP1 DUP1 PUSH32 0x6973496E697469616C697A656400000000000000000000000000000000000000 DUP2 MSTORE POP PUSH1 0xD ADD SWAP1 POP PUSH1 0x40 MLOAD PUSH1 0x20 DUP2 DUP4 SUB SUB DUP2 MSTORE SWAP1 PUSH1 0x40 MSTORE PUSH1 0x40 MLOAD DUP1 DUP3 DUP1 MLOAD SWAP1 PUSH1 0x20 ADD SWAP1 DUP1 DUP4 DUP4 PUSH1 0x20 DUP4 LT PUSH2 0x1097 JUMPI DUP1 MLOAD DUP3 MSTORE PUSH1 0x1F NOT SWAP1 SWAP3 ADD SWAP2 PUSH1 0x20 SWAP2 DUP3 ADD SWAP2 ADD PUSH2 0x1078 JUMP JUMPDEST PUSH1 0xA PUSH1 0x0 DUP3 PUSH1 0x40 MLOAD PUSH1 0x20 ADD DUP1 DUP1 PUSH1 0x0 DUP1 MLOAD PUSH1 0x20 PUSH2 0x4E4A DUP4 CODECOPY DUP2 MLOAD SWAP2 MSTORE DUP2 MSTORE POP PUSH1 0xA ADD DUP3 PUSH1 0x1 PUSH1 0xA0 PUSH1 0x2 EXP SUB AND PUSH1 0x1 PUSH1 0xA0 PUSH1 0x2 EXP SUB AND PUSH1 0x60 PUSH1 0x2 EXP MUL DUP2 MSTORE PUSH1 0x14 ADD SWAP2 POP POP PUSH1 0x40 MLOAD PUSH1 0x20 DUP2 DUP4 SUB SUB DUP2 MSTORE SWAP1 PUSH1 0x40 MSTORE PUSH1 0x40 MLOAD DUP1 DUP3 DUP1 MLOAD SWAP1 PUSH1 0x20 ADD SWAP1 DUP1 DUP4 DUP4 JUMPDEST PUSH1 0x20 DUP4 LT PUSH2 0x3A9B JUMPI DUP1 MLOAD DUP3 MSTORE PUSH1 0x1F NOT SWAP1 SWAP3 ADD SWAP2 PUSH1 0x20 SWAP2 DUP3 ADD SWAP2 ADD PUSH2 0x3A7C JUMP JUMPDEST MLOAD DUP2 MLOAD PUSH1 0x20 SWAP4 DUP5 SUB PUSH2 0x100 EXP PUSH1 0x0 NOT ADD DUP1 NOT SWAP1 SWAP3 AND SWAP2 AND OR SWAP1 MSTORE PUSH1 0x40 DUP1 MLOAD SWAP3 SWAP1 SWAP5 ADD DUP3 SWAP1 SUB SWAP1 SWAP2 KECCAK256 DUP7 MSTORE DUP6 DUP2 ADD SWAP7 SWAP1 SWAP7 MSTORE POP SWAP3 SWAP1 SWAP3 ADD PUSH1 0x0 SWAP1 DUP2 KECCAK256 DUP1 SLOAD PUSH1 0x1 DUP2 ADD DUP3 SSTORE SWAP1 DUP3 MSTORE SWAP4 SWAP1 KECCAK256 SWAP1 SWAP3 ADD DUP1 SLOAD PUSH1 0x1 PUSH1 0xA0 PUSH1 0x2 EXP SUB NOT AND PUSH1 0x1 PUSH1 0xA0 PUSH1 0x2 EXP SUB SWAP6 SWAP1 SWAP6 AND SWAP5 SWAP1 SWAP5 OR SWAP1 SWAP4 SSTORE POP POP POP JUMP JUMPDEST PUSH1 0x0 DUP1 DUP4 DUP4 GT ISZERO PUSH2 0x3B1B JUMPI PUSH1 0x0 DUP1 REVERT JUMPDEST POP POP SWAP1 SUB SWAP1 JUMP JUMPDEST PUSH1 0x0 DUP1 DUP1 DUP1 DUP1 JUMPDEST PUSH2 0x3B31 PUSH2 0x12DC JUMP JUMPDEST DUP4 LT ISZERO PUSH2 0x3B71 JUMPI PUSH2 0x3B41 DUP4 PUSH2 0xBC3 JUMP JUMPDEST PUSH1 0x1 PUSH1 0xA0 PUSH1 0x2 EXP SUB AND DUP7 PUSH1 0x1 PUSH1 0xA0 PUSH1 0x2 EXP SUB AND EQ ISZERO PUSH2 0x3B66 JUMPI DUP3 SWAP4 POP PUSH1 0x1 SWAP5 POP PUSH2 0x3B71 JUMP JUMPDEST PUSH1 0x1 DUP4 ADD SWAP3 POP PUSH2 0x3B29 JUMP JUMPDEST DUP5 ISZERO PUSH2 0x1EF6 JUMPI PUSH1 0x1 PUSH2 0x3B81 PUSH2 0x12DC JUMP JUMPDEST SUB SWAP2 POP PUSH2 0x3B8D DUP3 PUSH2 0xBC3 JUMP JUMPDEST SWAP1 POP PUSH1 0x1 PUSH1 0xA0 PUSH1 0x2 EXP SUB DUP2 AND ISZERO PUSH2 0x3BA8 JUMPI PUSH2 0x3BA8 DUP5 DUP3 PUSH2 0x45A6 JUMP JUMPDEST PUSH1 0xA PUSH1 0x0 PUSH1 0x40 MLOAD PUSH1 0x20 ADD DUP1 DUP1 PUSH1 0x0 DUP1 MLOAD PUSH1 0x20 PUSH2 0x4E8A DUP4 CODECOPY DUP2 MLOAD SWAP2 MSTORE DUP2 MSTORE POP PUSH1 0x11 ADD SWAP1 POP PUSH1 0x40 MLOAD PUSH1 0x20 DUP2 DUP4 SUB SUB DUP2 MSTORE SWAP1 PUSH1 0x40 MSTORE PUSH1 0x40 MLOAD DUP1 DUP3 DUP1 MLOAD SWAP1 PUSH1 0x20 ADD SWAP1 DUP1 DUP4 DUP4 JUMPDEST PUSH1 0x20 DUP4 LT PUSH2 0x3C09 JUMPI DUP1 MLOAD DUP3 MSTORE PUSH1 0x1F NOT SWAP1 SWAP3 ADD SWAP2 PUSH1 0x20 SWAP2 DUP3 ADD SWAP2 ADD PUSH2 0x3BEA JUMP JUMPDEST MLOAD DUP2 MLOAD PUSH1 0x20 SWAP4 DUP5 SUB PUSH2 0x100 EXP PUSH1 0x0 NOT ADD DUP1 NOT SWAP1 SWAP3 AND SWAP2 AND OR SWAP1 MSTORE PUSH1 0x40 DUP1 MLOAD SWAP3 SWAP1 SWAP5 ADD DUP3 SWAP1 SUB SWAP1 SWAP2 KECCAK256 DUP7 MSTORE DUP6 ADD SWAP6 SWAP1 SWAP6 MSTORE SWAP3 SWAP1 SWAP3 ADD PUSH1 0x0 KECCAK256 DUP1 SLOAD SWAP1 SWAP4 POP DUP6 SWAP3 POP DUP3 LT SWAP1 POP PUSH2 0x3C52 JUMPI INVALID JUMPDEST PUSH1 0x0 SWAP2 DUP3 MSTORE PUSH1 0x20 DUP1 DUP4 KECCAK256 SWAP1 SWAP2 ADD DUP1 SLOAD PUSH1 0x1 PUSH1 0xA0 PUSH1 0x2 EXP SUB NOT AND SWAP1 SSTORE PUSH1 0x40 DUP1 MLOAD PUSH1 0x0 DUP1 MLOAD PUSH1 0x20 PUSH2 0x4E8A DUP4 CODECOPY DUP2 MLOAD SWAP2 MSTORE DUP2 DUP5 ADD MSTORE DUP2 MLOAD DUP1 DUP3 SUB PUSH1 0x11 ADD DUP2 MSTORE PUSH1 0x31 SWAP1 SWAP2 ADD SWAP2 DUP3 SWAP1 MSTORE DUP1 MLOAD PUSH1 0xA SWAP5 SWAP4 SWAP2 SWAP3 SWAP2 DUP3 SWAP2 SWAP1 DUP5 ADD SWAP1 DUP1 DUP4 DUP4 JUMPDEST PUSH1 0x20 DUP4 LT PUSH2 0x3CC9 JUMPI DUP1 MLOAD DUP3 MSTORE PUSH1 0x1F NOT SWAP1 SWAP3 ADD SWAP2 PUSH1 0x20 SWAP2 DUP3 ADD SWAP2 ADD PUSH2 0x3CAA JUMP JUMPDEST MLOAD DUP2 MLOAD PUSH1 0x0 NOT PUSH1 0x20 SWAP5 DUP6 SUB PUSH2 0x100 EXP DUP2 ADD SWAP2 DUP3 AND SWAP2 NOT SWAP3 SWAP1 SWAP3 AND OR SWAP1 SWAP2 MSTORE PUSH1 0x40 DUP1 MLOAD SWAP6 SWAP1 SWAP4 ADD DUP6 SWAP1 SUB SWAP1 SWAP5 KECCAK256 DUP8 MSTORE DUP7 ADD SWAP7 SWAP1 SWAP7 MSTORE POP SWAP3 SWAP1 SWAP4 ADD PUSH1 0x0 KECCAK256 DUP1 SLOAD SWAP4 POP PUSH2 0x3D17 SWAP3 SWAP1 SWAP2 POP DUP4 ADD PUSH2 0x4DC7 JUMP JUMPDEST POP POP POP POP POP POP POP JUMP JUMPDEST PUSH1 0x40 DUP1 MLOAD PUSH1 0x0 DUP1 MLOAD PUSH1 0x20 PUSH2 0x4F2A DUP4 CODECOPY DUP2 MLOAD SWAP2 MSTORE PUSH1 0x20 DUP1 DUP4 ADD SWAP2 SWAP1 SWAP2 MSTORE PUSH1 0x60 PUSH1 0x2 EXP PUSH1 0x1 PUSH1 0xA0 PUSH1 0x2 EXP SUB DUP1 DUP9 AND DUP3 MUL PUSH1 0x2F DUP6 ADD MSTORE DUP7 AND MUL PUSH1 0x43 DUP4 ADD MSTORE DUP3 MLOAD PUSH1 0x37 DUP2 DUP5 SUB ADD DUP2 MSTORE PUSH1 0x57 SWAP1 SWAP3 ADD SWAP3 DUP4 SWAP1 MSTORE DUP2 MLOAD PUSH2 0x3DEA SWAP4 DUP6 SWAP4 PUSH1 0x2 SWAP4 PUSH1 0x0 SWAP4 SWAP2 SWAP3 SWAP2 DUP3 SWAP2 DUP5 ADD SWAP1 DUP1 DUP4 DUP4 JUMPDEST PUSH1 0x20 DUP4 LT PUSH2 0x3DA7 JUMPI DUP1 MLOAD DUP3 MSTORE PUSH1 0x1F NOT SWAP1 SWAP3 ADD SWAP2 PUSH1 0x20 SWAP2 DUP3 ADD SWAP2 ADD PUSH2 0x3D88 JUMP JUMPDEST MLOAD DUP2 MLOAD PUSH1 0x20 SWAP4 DUP5 SUB PUSH2 0x100 EXP PUSH1 0x0 NOT ADD DUP1 NOT SWAP1 SWAP3 AND SWAP2 AND OR SWAP1 MSTORE PUSH1 0x40 DUP1 MLOAD SWAP3 SWAP1 SWAP5 ADD DUP3 SWAP1 SUB SWAP1 SWAP2 KECCAK256 DUP7 MSTORE DUP6 ADD SWAP6 SWAP1 SWAP6 MSTORE SWAP3 SWAP1 SWAP3 ADD PUSH1 0x0 KECCAK256 SLOAD SWAP4 SWAP3 POP POP PUSH2 0x3B0B SWAP1 POP JUMP JUMPDEST PUSH1 0x40 DUP1 MLOAD PUSH1 0x0 DUP1 MLOAD PUSH1 0x20 PUSH2 0x4F2A DUP4 CODECOPY DUP2 MLOAD SWAP2 MSTORE PUSH1 0x20 DUP1 DUP4 ADD SWAP2 SWAP1 SWAP2 MSTORE PUSH1 0x60 PUSH1 0x2 EXP PUSH1 0x1 PUSH1 0xA0 PUSH1 0x2 EXP SUB DUP1 DUP10 AND DUP3 MUL PUSH1 0x2F DUP6 ADD MSTORE DUP8 AND MUL PUSH1 0x43 DUP4 ADD MSTORE DUP3 MLOAD PUSH1 0x37 DUP2 DUP5 SUB ADD DUP2 MSTORE PUSH1 0x57 SWAP1 SWAP3 ADD SWAP3 DUP4 SWAP1 MSTORE DUP2 MLOAD PUSH1 0x2 SWAP4 PUSH1 0x0 SWAP4 SWAP3 SWAP1 SWAP2 DUP3 SWAP2 DUP5 ADD SWAP1 DUP1 DUP4 DUP4 JUMPDEST PUSH1 0x20 DUP4 LT PUSH2 0x3E6B JUMPI DUP1 MLOAD DUP3 MSTORE PUSH1 0x1F NOT SWAP1 SWAP3 ADD SWAP2 PUSH1 0x20 SWAP2 DUP3 ADD SWAP2 ADD PUSH2 0x3E4C JUMP JUMPDEST MLOAD DUP2 MLOAD PUSH1 0x0 NOT PUSH1 0x20 SWAP5 DUP6 SUB PUSH2 0x100 EXP ADD SWAP1 DUP2 AND SWAP1 NOT SWAP2 SWAP1 SWAP2 AND OR SWAP1 MSTORE PUSH1 0x40 DUP1 MLOAD SWAP5 SWAP1 SWAP3 ADD DUP5 SWAP1 SUB SWAP1 SWAP4 KECCAK256 DUP7 MSTORE DUP6 DUP4 ADD SWAP7 SWAP1 SWAP7 MSTORE POP SWAP3 DUP5 ADD PUSH1 0x0 SWAP1 DUP2 KECCAK256 SWAP6 SWAP1 SWAP6 SSTORE POP POP DUP2 MLOAD PUSH1 0x0 DUP1 MLOAD PUSH1 0x20 PUSH2 0x4F2A DUP4 CODECOPY DUP2 MLOAD SWAP2 MSTORE DUP2 DUP4 ADD MSTORE PUSH1 0x60 PUSH1 0x2 EXP PUSH1 0x1 PUSH1 0xA0 PUSH1 0x2 EXP SUB DUP1 DUP10 AND DUP3 MUL PUSH1 0x2F DUP5 ADD MSTORE DUP8 AND MUL PUSH1 0x43 DUP3 ADD MSTORE DUP3 MLOAD PUSH1 0x37 DUP2 DUP4 SUB ADD DUP2 MSTORE PUSH1 0x57 SWAP1 SWAP2 ADD SWAP3 DUP4 SWAP1 MSTORE DUP1 MLOAD PUSH1 0x2 SWAP5 SWAP4 SWAP2 SWAP3 DUP3 SWAP2 SWAP1 DUP5 ADD SWAP1 DUP1 DUP4 DUP4 JUMPDEST PUSH1 0x20 DUP4 LT PUSH2 0x3F25 JUMPI DUP1 MLOAD DUP3 MSTORE PUSH1 0x1F NOT SWAP1 SWAP3 ADD SWAP2 PUSH1 0x20 SWAP2 DUP3 ADD SWAP2 ADD PUSH2 0x3F06 JUMP JUMPDEST MLOAD DUP2 MLOAD PUSH1 0x20 SWAP4 DUP5 SUB PUSH2 0x100 EXP PUSH1 0x0 NOT ADD DUP1 NOT SWAP1 SWAP3 AND SWAP2 AND OR SWAP1 MSTORE PUSH1 0x40 DUP1 MLOAD SWAP3 SWAP1 SWAP5 ADD DUP3 SWAP1 SUB SWAP1 SWAP2 KECCAK256 DUP7 MSTORE DUP6 ADD SWAP6 SWAP1 SWAP6 MSTORE SWAP3 SWAP1 SWAP3 ADD PUSH1 0x0 KECCAK256 SLOAD ISZERO ISZERO SWAP3 POP PUSH2 0xB1A SWAP2 POP POP JUMPI PUSH2 0xB1A DUP4 DUP4 PUSH2 0x4683 JUMP JUMPDEST PUSH2 0x2CC2 DUP2 PUSH1 0x2 PUSH1 0x0 DUP6 PUSH1 0x40 MLOAD PUSH1 0x20 ADD DUP1 DUP1 PUSH1 0x0 DUP1 MLOAD PUSH1 0x20 PUSH2 0x4ECA DUP4 CODECOPY DUP2 MLOAD SWAP2 MSTORE DUP2 MSTORE POP PUSH1 0xB ADD DUP3 PUSH1 0x1 PUSH1 0xA0 PUSH1 0x2 EXP SUB AND PUSH1 0x1 PUSH1 0xA0 PUSH1 0x2 EXP SUB AND PUSH1 0x60 PUSH1 0x2 EXP MUL DUP2 MSTORE PUSH1 0x14 ADD SWAP2 POP POP PUSH1 0x40 MLOAD PUSH1 0x20 DUP2 DUP4 SUB SUB DUP2 MSTORE SWAP1 PUSH1 0x40 MSTORE PUSH1 0x40 MLOAD DUP1 DUP3 DUP1 MLOAD SWAP1 PUSH1 0x20 ADD SWAP1 DUP1 DUP4 DUP4 PUSH1 0x20 DUP4 LT PUSH2 0x3DA7 JUMPI DUP1 MLOAD DUP3 MSTORE PUSH1 0x1F NOT SWAP1 SWAP3 ADD SWAP2 PUSH1 0x20 SWAP2 DUP3 ADD SWAP2 ADD PUSH2 0x3D88 JUMP JUMPDEST PUSH2 0x2F5F DUP2 PUSH1 0x2 PUSH1 0x0 PUSH1 0x40 MLOAD PUSH1 0x20 ADD DUP1 DUP1 PUSH1 0x0 DUP1 MLOAD PUSH1 0x20 PUSH2 0x4EEA DUP4 CODECOPY DUP2 MLOAD SWAP2 MSTORE DUP2 MSTORE POP PUSH1 0x10 ADD SWAP1 POP PUSH1 0x40 MLOAD PUSH1 0x20 DUP2 DUP4 SUB SUB DUP2 MSTORE SWAP1 PUSH1 0x40 MSTORE PUSH1 0x40 MLOAD DUP1 DUP3 DUP1 MLOAD SWAP1 PUSH1 0x20 ADD SWAP1 DUP1 DUP4 DUP4 PUSH1 0x20 DUP4 LT PUSH2 0x3DA7 JUMPI DUP1 MLOAD DUP3 MSTORE PUSH1 0x1F NOT SWAP1 SWAP3 ADD SWAP2 PUSH1 0x20 SWAP2 DUP3 ADD SWAP2 ADD PUSH2 0x3D88 JUMP JUMPDEST PUSH1 0xA PUSH1 0x0 PUSH1 0x40 MLOAD PUSH1 0x20 ADD DUP1 DUP1 PUSH1 0x0 DUP1 MLOAD PUSH1 0x20 PUSH2 0x4E2A DUP4 CODECOPY DUP2 MLOAD SWAP2 MSTORE DUP2 MSTORE POP PUSH1 0x10 ADD SWAP1 POP PUSH1 0x40 MLOAD PUSH1 0x20 DUP2 DUP4 SUB SUB DUP2 MSTORE SWAP1 PUSH1 0x40 MSTORE PUSH1 0x40 MLOAD DUP1 DUP3 DUP1 MLOAD SWAP1 PUSH1 0x20 ADD SWAP1 DUP1 DUP4 DUP4 PUSH1 0x20 DUP4 LT PUSH2 0x2DF9 JUMPI DUP1 MLOAD DUP3 MSTORE PUSH1 0x1F NOT SWAP1 SWAP3 ADD SWAP2 PUSH1 0x20 SWAP2 DUP3 ADD SWAP2 ADD PUSH2 0x2DDA JUMP JUMPDEST PUSH1 0x0 DUP1 DUP1 DUP1 DUP1 JUMPDEST PUSH2 0x40C9 PUSH2 0xB1F JUMP JUMPDEST DUP4 LT ISZERO PUSH2 0x4109 JUMPI PUSH2 0x40D9 DUP4 PUSH2 0x201F JUMP JUMPDEST PUSH1 0x1 PUSH1 0xA0 PUSH1 0x2 EXP SUB AND DUP7 PUSH1 0x1 PUSH1 0xA0 PUSH1 0x2 EXP SUB AND EQ ISZERO PUSH2 0x40FE JUMPI DUP3 SWAP4 POP PUSH1 0x1 SWAP5 POP PUSH2 0x4109 JUMP JUMPDEST PUSH1 0x1 DUP4 ADD SWAP3 POP PUSH2 0x40C1 JUMP JUMPDEST DUP5 ISZERO PUSH2 0x1EF6 JUMPI PUSH1 0x1 PUSH2 0x4119 PUSH2 0xB1F JUMP JUMPDEST SUB SWAP2 POP PUSH2 0x4125 DUP3 PUSH2 0x201F JUMP JUMPDEST SWAP1 POP PUSH1 0x1 PUSH1 0xA0 PUSH1 0x2 EXP SUB DUP2 AND ISZERO PUSH2 0x4140 JUMPI PUSH2 0x4140 DUP5 DUP3 PUSH2 0x48BC JUMP JUMPDEST PUSH1 0xA PUSH1 0x0 PUSH1 0x40 MLOAD PUSH1 0x20 ADD DUP1 DUP1 PUSH1 0x0 DUP1 MLOAD PUSH1 0x20 PUSH2 0x4E2A DUP4 CODECOPY DUP2 MLOAD SWAP2 MSTORE DUP2 MSTORE POP PUSH1 0x10 ADD SWAP1 POP PUSH1 0x40 MLOAD PUSH1 0x20 DUP2 DUP4 SUB SUB DUP2 MSTORE SWAP1 PUSH1 0x40 MSTORE PUSH1 0x40 MLOAD DUP1 DUP3 DUP1 MLOAD SWAP1 PUSH1 0x20 ADD SWAP1 DUP1 DUP4 DUP4 JUMPDEST PUSH1 0x20 DUP4 LT PUSH2 0x41A1 JUMPI DUP1 MLOAD DUP3 MSTORE PUSH1 0x1F NOT SWAP1 SWAP3 ADD SWAP2 PUSH1 0x20 SWAP2 DUP3 ADD SWAP2 ADD PUSH2 0x4182 JUMP JUMPDEST MLOAD DUP2 MLOAD PUSH1 0x20 SWAP4 DUP5 SUB PUSH2 0x100 EXP PUSH1 0x0 NOT ADD DUP1 NOT SWAP1 SWAP3 AND SWAP2 AND OR SWAP1 MSTORE PUSH1 0x40 DUP1 MLOAD SWAP3 SWAP1 SWAP5 ADD DUP3 SWAP1 SUB SWAP1 SWAP2 KECCAK256 DUP7 MSTORE DUP6 ADD SWAP6 SWAP1 SWAP6 MSTORE SWAP3 SWAP1 SWAP3 ADD PUSH1 0x0 KECCAK256 DUP1 SLOAD SWAP1 SWAP4 POP DUP6 SWAP3 POP DUP3 LT SWAP1 POP PUSH2 0x41EA JUMPI INVALID JUMPDEST PUSH1 0x0 SWAP2 DUP3 MSTORE PUSH1 0x20 DUP1 DUP4 KECCAK256 SWAP1 SWAP2 ADD DUP1 SLOAD PUSH1 0x1 PUSH1 0xA0 PUSH1 0x2 EXP SUB NOT AND SWAP1 SSTORE PUSH1 0x40 DUP1 MLOAD PUSH1 0x0 DUP1 MLOAD PUSH1 0x20 PUSH2 0x4E2A DUP4 CODECOPY DUP2 MLOAD SWAP2 MSTORE DUP2 DUP5 ADD MSTORE DUP2 MLOAD DUP1 DUP3 SUB PUSH1 0x10 ADD DUP2 MSTORE PUSH1 0x30 SWAP1 SWAP2 ADD SWAP2 DUP3 SWAP1 MSTORE DUP1 MLOAD PUSH1 0xA SWAP5 SWAP4 SWAP2 SWAP3 SWAP2 DUP3 SWAP2 SWAP1 DUP5 ADD SWAP1 DUP1 DUP4 DUP4 PUSH1 0x20 DUP4 LT PUSH2 0x3CC9 JUMPI DUP1 MLOAD DUP3 MSTORE PUSH1 0x1F NOT SWAP1 SWAP3 ADD SWAP2 PUSH1 0x20 SWAP2 DUP3 ADD SWAP2 ADD PUSH2 0x3CAA JUMP JUMPDEST DUP1 PUSH1 0x2 PUSH1 0x0 PUSH1 0x40 MLOAD PUSH1 0x20 ADD DUP1 DUP1 PUSH1 0x0 DUP1 MLOAD PUSH1 0x20 PUSH2 0x4EEA DUP4 CODECOPY DUP2 MLOAD SWAP2 MSTORE DUP2 MSTORE POP PUSH1 0x10 ADD SWAP1 POP PUSH1 0x40 MLOAD PUSH1 0x20 DUP2 DUP4 SUB SUB DUP2 MSTORE SWAP1 PUSH1 0x40 MSTORE PUSH1 0x40 MLOAD DUP1 DUP3 DUP1 MLOAD SWAP1 PUSH1 0x20 ADD SWAP1 DUP1 DUP4 DUP4 PUSH1 0x20 DUP4 LT PUSH2 0x2FC0 JUMPI DUP1 MLOAD DUP3 MSTORE PUSH1 0x1F NOT SWAP1 SWAP3 ADD SWAP2 PUSH1 0x20 SWAP2 DUP3 ADD SWAP2 ADD PUSH2 0x2FA1 JUMP JUMPDEST PUSH2 0x42CA DUP2 PUSH2 0x3B22 JUMP JUMPDEST PUSH2 0x42D3 DUP2 PUSH2 0x405A JUMP JUMPDEST PUSH2 0x42DC DUP2 PUSH2 0x491D JUMP JUMPDEST PUSH2 0x143B DUP2 PUSH2 0x4B60 JUMP JUMPDEST PUSH1 0x2 PUSH1 0x0 DUP3 PUSH1 0x40 MLOAD PUSH1 0x20 ADD DUP1 DUP1 PUSH1 0x0 DUP1 MLOAD PUSH1 0x20 PUSH2 0x4EAA DUP4 CODECOPY DUP2 MLOAD SWAP2 MSTORE DUP2 MSTORE POP PUSH1 0xB ADD DUP3 PUSH1 0x1 PUSH1 0xA0 PUSH1 0x2 EXP SUB AND PUSH1 0x1 PUSH1 0xA0 PUSH1 0x2 EXP SUB AND PUSH1 0x60 PUSH1 0x2 EXP MUL DUP2 MSTORE PUSH1 0x14 ADD SWAP2 POP POP PUSH1 0x40 MLOAD PUSH1 0x20 DUP2 DUP4 SUB SUB DUP2 MSTORE SWAP1 PUSH1 0x40 MSTORE PUSH1 0x40 MLOAD DUP1 DUP3 DUP1 MLOAD SWAP1 PUSH1 0x20 ADD SWAP1 DUP1 DUP4 DUP4 JUMPDEST PUSH1 0x20 DUP4 LT PUSH2 0x4366 JUMPI DUP1 MLOAD DUP3 MSTORE PUSH1 0x1F NOT SWAP1 SWAP3 ADD SWAP2 PUSH1 0x20 SWAP2 DUP3 ADD SWAP2 ADD PUSH2 0x4347 JUMP JUMPDEST MLOAD DUP2 MLOAD PUSH1 0x20 SWAP4 DUP5 SUB PUSH2 0x100 EXP PUSH1 0x0 NOT ADD DUP1 NOT SWAP1 SWAP3 AND SWAP2 AND OR SWAP1 MSTORE PUSH1 0x40 DUP1 MLOAD SWAP3 SWAP1 SWAP5 ADD DUP3 SWAP1 SUB SWAP1 SWAP2 KECCAK256 DUP7 MSTORE DUP6 DUP2 ADD SWAP7 SWAP1 SWAP7 MSTORE POP SWAP3 DUP4 ADD PUSH1 0x0 SWAP1 DUP2 KECCAK256 SLOAD DUP5 MLOAD PUSH1 0x0 DUP1 MLOAD PUSH1 0x20 PUSH2 0x4EAA DUP4 CODECOPY DUP2 MLOAD SWAP2 MSTORE DUP2 DUP9 ADD MSTORE PUSH1 0x1 PUSH1 0xA0 PUSH1 0x2 EXP SUB DUP9 AND PUSH1 0x60 PUSH1 0x2 EXP MUL PUSH1 0x2B DUP3 ADD MSTORE DUP6 MLOAD DUP1 DUP3 SUB PUSH1 0x1F ADD DUP2 MSTORE PUSH1 0x3F SWAP1 SWAP2 ADD SWAP6 DUP7 SWAP1 MSTORE DUP1 MLOAD PUSH1 0x1 SWAP1 SWAP3 ADD SWAP7 PUSH1 0x2 SWAP7 SWAP4 SWAP6 POP SWAP1 SWAP4 POP DUP3 SWAP2 SWAP1 DUP5 ADD SWAP1 DUP1 DUP4 DUP4 JUMPDEST PUSH1 0x20 DUP4 LT PUSH2 0x4418 JUMPI DUP1 MLOAD DUP3 MSTORE PUSH1 0x1F NOT SWAP1 SWAP3 ADD SWAP2 PUSH1 0x20 SWAP2 DUP3 ADD SWAP2 ADD PUSH2 0x43F9 JUMP JUMPDEST MLOAD DUP2 MLOAD PUSH1 0x20 SWAP4 DUP5 SUB PUSH2 0x100 EXP PUSH1 0x0 NOT ADD DUP1 NOT SWAP1 SWAP3 AND SWAP2 AND OR SWAP1 MSTORE PUSH1 0x40 DUP1 MLOAD SWAP3 SWAP1 SWAP5 ADD DUP3 SWAP1 SUB SWAP1 SWAP2 KECCAK256 DUP7 MSTORE DUP6 DUP2 ADD SWAP7 SWAP1 SWAP7 MSTORE POP SWAP3 DUP4 ADD PUSH1 0x0 SWAP1 DUP2 KECCAK256 SWAP6 SWAP1 SWAP6 SSTORE POP POP DUP1 MLOAD PUSH1 0x0 DUP1 MLOAD PUSH1 0x20 PUSH2 0x4EAA DUP4 CODECOPY DUP2 MLOAD SWAP2 MSTORE DUP2 DUP5 ADD MSTORE PUSH1 0x1 PUSH1 0xA0 PUSH1 0x2 EXP SUB DUP6 AND PUSH1 0x60 PUSH1 0x2 EXP MUL PUSH1 0x2B DUP3 ADD MSTORE DUP2 MLOAD DUP1 DUP3 SUB PUSH1 0x1F ADD DUP2 MSTORE PUSH1 0x3F SWAP1 SWAP2 ADD SWAP2 DUP3 SWAP1 MSTORE DUP1 MLOAD PUSH1 0x32 SWAP5 PUSH1 0x2 SWAP5 SWAP1 SWAP4 SWAP2 DUP3 SWAP2 DUP5 ADD SWAP1 DUP1 DUP4 DUP4 JUMPDEST PUSH1 0x20 DUP4 LT PUSH2 0x44C8 JUMPI DUP1 MLOAD DUP3 MSTORE PUSH1 0x1F NOT SWAP1 SWAP3 ADD SWAP2 PUSH1 0x20 SWAP2 DUP3 ADD SWAP2 ADD PUSH2 0x44A9 JUMP JUMPDEST PUSH1 0x1 DUP4 PUSH1 0x20 SUB PUSH2 0x100 EXP SUB DUP1 NOT DUP3 MLOAD AND DUP2 DUP5 MLOAD AND DUP1 DUP3 OR DUP6 MSTORE POP POP POP POP POP POP SWAP1 POP ADD SWAP2 POP POP PUSH1 0x40 MLOAD DUP1 SWAP2 SUB SWAP1 KECCAK256 PUSH1 0x0 NOT AND PUSH1 0x0 NOT AND DUP2 MSTORE PUSH1 0x20 ADD SWAP1 DUP2 MSTORE PUSH1 0x20 ADD PUSH1 0x0 KECCAK256 SLOAD GT ISZERO PUSH2 0x143B JUMPI PUSH2 0x451B DUP2 PUSH2 0x4B60 JUMP JUMPDEST PUSH2 0x143B DUP2 PUSH2 0x4BE2 JUMP JUMPDEST PUSH1 0x0 PUSH1 0x2 PUSH1 0x0 DUP4 PUSH1 0x40 MLOAD PUSH1 0x20 ADD DUP1 DUP1 PUSH1 0x0 DUP1 MLOAD PUSH1 0x20 PUSH2 0x4E6A DUP4 CODECOPY DUP2 MLOAD SWAP2 MSTORE DUP2 MSTORE POP PUSH1 0xC ADD DUP3 PUSH1 0x1 PUSH1 0xA0 PUSH1 0x2 EXP SUB AND PUSH1 0x1 PUSH1 0xA0 PUSH1 0x2 EXP SUB AND PUSH1 0x60 PUSH1 0x2 EXP MUL DUP2 MSTORE PUSH1 0x14 ADD SWAP2 POP POP PUSH1 0x40 MLOAD PUSH1 0x20 DUP2 DUP4 SUB SUB DUP2 MSTORE SWAP1 PUSH1 0x40 MSTORE PUSH1 0x40 MLOAD DUP1 DUP3 DUP1 MLOAD SWAP1 PUSH1 0x20 ADD SWAP1 DUP1 DUP4 DUP4 PUSH1 0x20 DUP4 LT PUSH2 0x2FC0 JUMPI DUP1 MLOAD DUP3 MSTORE PUSH1 0x1F NOT SWAP1 SWAP3 ADD SWAP2 PUSH1 0x20 SWAP2 DUP3 ADD SWAP2 ADD PUSH2 0x2FA1 JUMP JUMPDEST DUP1 PUSH1 0xA PUSH1 0x0 PUSH1 0x40 MLOAD PUSH1 0x20 ADD DUP1 DUP1 PUSH1 0x0 DUP1 MLOAD PUSH1 0x20 PUSH2 0x4E8A DUP4 CODECOPY DUP2 MLOAD SWAP2 MSTORE DUP2 MSTORE POP PUSH1 0x11 ADD SWAP1 POP PUSH1 0x40 MLOAD PUSH1 0x20 DUP2 DUP4 SUB SUB DUP2 MSTORE SWAP1 PUSH1 0x40 MSTORE PUSH1 0x40 MLOAD DUP1 DUP3 DUP1 MLOAD SWAP1 PUSH1 0x20 ADD SWAP1 DUP1 DUP4 DUP4 JUMPDEST PUSH1 0x20 DUP4 LT PUSH2 0x4608 JUMPI DUP1 MLOAD DUP3 MSTORE PUSH1 0x1F NOT SWAP1 SWAP3 ADD SWAP2 PUSH1 0x20 SWAP2 DUP3 ADD SWAP2 ADD PUSH2 0x45E9 JUMP JUMPDEST MLOAD DUP2 MLOAD PUSH1 0x20 SWAP4 DUP5 SUB PUSH2 0x100 EXP PUSH1 0x0 NOT ADD DUP1 NOT SWAP1 SWAP3 AND SWAP2 AND OR SWAP1 MSTORE PUSH1 0x40 DUP1 MLOAD SWAP3 SWAP1 SWAP5 ADD DUP3 SWAP1 SUB SWAP1 SWAP2 KECCAK256 DUP7 MSTORE DUP6 ADD SWAP6 SWAP1 SWAP6 MSTORE SWAP3 SWAP1 SWAP3 ADD PUSH1 0x0 KECCAK256 DUP1 SLOAD SWAP1 SWAP4 POP DUP7 SWAP3 POP DUP3 LT SWAP1 POP PUSH2 0x4651 JUMPI INVALID JUMPDEST SWAP1 PUSH1 0x0 MSTORE PUSH1 0x20 PUSH1 0x0 KECCAK256 ADD PUSH1 0x0 PUSH2 0x100 EXP DUP2 SLOAD DUP2 PUSH1 0x1 PUSH1 0xA0 PUSH1 0x2 EXP SUB MUL NOT AND SWAP1 DUP4 PUSH1 0x1 PUSH1 0xA0 PUSH1 0x2 EXP SUB AND MUL OR SWAP1 SSTORE POP POP POP JUMP JUMPDEST PUSH1 0x0 DUP1 DUP1 DUP1 DUP1 JUMPDEST PUSH2 0x4693 DUP7 PUSH2 0x26AD JUMP JUMPDEST DUP4 LT ISZERO PUSH2 0x46D4 JUMPI PUSH2 0x46A4 DUP7 DUP5 PUSH2 0x272F JUMP JUMPDEST PUSH1 0x1 PUSH1 0xA0 PUSH1 0x2 EXP SUB AND DUP8 PUSH1 0x1 PUSH1 0xA0 PUSH1 0x2 EXP SUB AND EQ ISZERO PUSH2 0x46C9 JUMPI DUP3 SWAP4 POP PUSH1 0x1 SWAP5 POP PUSH2 0x46D4 JUMP JUMPDEST PUSH1 0x1 DUP4 ADD SWAP3 POP PUSH2 0x468A JUMP JUMPDEST DUP5 ISZERO PUSH2 0x3D17 JUMPI PUSH1 0x1 PUSH2 0x46E5 DUP8 PUSH2 0x26AD JUMP JUMPDEST SUB SWAP2 POP PUSH2 0x46F2 DUP7 DUP4 PUSH2 0x272F JUMP JUMPDEST SWAP1 POP PUSH1 0x1 PUSH1 0xA0 PUSH1 0x2 EXP SUB DUP2 AND ISZERO PUSH2 0x470E JUMPI PUSH2 0x470E DUP7 DUP6 DUP4 PUSH2 0x4C64 JUMP JUMPDEST PUSH1 0xA PUSH1 0x0 DUP8 PUSH1 0x40 MLOAD PUSH1 0x20 ADD DUP1 DUP1 PUSH1 0x0 DUP1 MLOAD PUSH1 0x20 PUSH2 0x4E4A DUP4 CODECOPY DUP2 MLOAD SWAP2 MSTORE DUP2 MSTORE POP PUSH1 0xA ADD DUP3 PUSH1 0x1 PUSH1 0xA0 PUSH1 0x2 EXP SUB AND PUSH1 0x1 PUSH1 0xA0 PUSH1 0x2 EXP SUB AND PUSH1 0x60 PUSH1 0x2 EXP MUL DUP2 MSTORE PUSH1 0x14 ADD SWAP2 POP POP PUSH1 0x40 MLOAD PUSH1 0x20 DUP2 DUP4 SUB SUB DUP2 MSTORE SWAP1 PUSH1 0x40 MSTORE PUSH1 0x40 MLOAD DUP1 DUP3 DUP1 MLOAD SWAP1 PUSH1 0x20 ADD SWAP1 DUP1 DUP4 DUP4 JUMPDEST PUSH1 0x20 DUP4 LT PUSH2 0x478F JUMPI DUP1 MLOAD DUP3 MSTORE PUSH1 0x1F NOT SWAP1 SWAP3 ADD SWAP2 PUSH1 0x20 SWAP2 DUP3 ADD SWAP2 ADD PUSH2 0x4770 JUMP JUMPDEST MLOAD DUP2 MLOAD PUSH1 0x20 SWAP4 DUP5 SUB PUSH2 0x100 EXP PUSH1 0x0 NOT ADD DUP1 NOT SWAP1 SWAP3 AND SWAP2 AND OR SWAP1 MSTORE PUSH1 0x40 DUP1 MLOAD SWAP3 SWAP1 SWAP5 ADD DUP3 SWAP1 SUB SWAP1 SWAP2 KECCAK256 DUP7 MSTORE DUP6 ADD SWAP6 SWAP1 SWAP6 MSTORE SWAP3 SWAP1 SWAP3 ADD PUSH1 0x0 KECCAK256 DUP1 SLOAD SWAP1 SWAP4 POP DUP6 SWAP3 POP DUP3 LT SWAP1 POP PUSH2 0x47D8 JUMPI INVALID JUMPDEST PUSH1 0x0 SWAP2 DUP3 MSTORE PUSH1 0x20 DUP1 DUP4 KECCAK256 SWAP1 SWAP2 ADD DUP1 SLOAD PUSH1 0x1 PUSH1 0xA0 PUSH1 0x2 EXP SUB NOT AND SWAP1 SSTORE PUSH1 0x40 DUP1 MLOAD PUSH1 0x0 DUP1 MLOAD PUSH1 0x20 PUSH2 0x4E4A DUP4 CODECOPY DUP2 MLOAD SWAP2 MSTORE DUP2 DUP5 ADD MSTORE PUSH1 0x60 PUSH1 0x2 EXP PUSH1 0x1 PUSH1 0xA0 PUSH1 0x2 EXP SUB DUP12 AND MUL PUSH1 0x2A DUP3 ADD MSTORE DUP2 MLOAD PUSH1 0x1E DUP2 DUP4 SUB ADD DUP2 MSTORE PUSH1 0x3E SWAP1 SWAP2 ADD SWAP2 DUP3 SWAP1 MSTORE DUP1 MLOAD PUSH1 0xA SWAP5 SWAP4 SWAP2 SWAP3 SWAP2 DUP3 SWAP2 SWAP1 DUP5 ADD SWAP1 DUP1 DUP4 DUP4 JUMPDEST PUSH1 0x20 DUP4 LT PUSH2 0x4864 JUMPI DUP1 MLOAD DUP3 MSTORE PUSH1 0x1F NOT SWAP1 SWAP3 ADD SWAP2 PUSH1 0x20 SWAP2 DUP3 ADD SWAP2 ADD PUSH2 0x4845 JUMP JUMPDEST MLOAD DUP2 MLOAD PUSH1 0x0 NOT PUSH1 0x20 SWAP5 DUP6 SUB PUSH2 0x100 EXP DUP2 ADD SWAP2 DUP3 AND SWAP2 NOT SWAP3 SWAP1 SWAP3 AND OR SWAP1 SWAP2 MSTORE PUSH1 0x40 DUP1 MLOAD SWAP6 SWAP1 SWAP4 ADD DUP6 SWAP1 SUB SWAP1 SWAP5 KECCAK256 DUP8 MSTORE DUP7 ADD SWAP7 SWAP1 SWAP7 MSTORE POP SWAP3 SWAP1 SWAP4 ADD PUSH1 0x0 KECCAK256 DUP1 SLOAD SWAP4 POP PUSH2 0x48B2 SWAP3 SWAP1 SWAP2 POP DUP4 ADD PUSH2 0x4DC7 JUMP JUMPDEST POP POP POP POP POP POP POP POP JUMP JUMPDEST DUP1 PUSH1 0xA PUSH1 0x0 PUSH1 0x40 MLOAD PUSH1 0x20 ADD DUP1 DUP1 PUSH1 0x0 DUP1 MLOAD PUSH1 0x20 PUSH2 0x4E2A DUP4 CODECOPY DUP2 MLOAD SWAP2 MSTORE DUP2 MSTORE POP PUSH1 0x10 ADD SWAP1 POP PUSH1 0x40 MLOAD PUSH1 0x20 DUP2 DUP4 SUB SUB DUP2 MSTORE SWAP1 PUSH1 0x40 MSTORE PUSH1 0x40 MLOAD DUP1 DUP3 DUP1 MLOAD SWAP1 PUSH1 0x20 ADD SWAP1 DUP1 DUP4 DUP4 PUSH1 0x20 DUP4 LT PUSH2 0x4608 JUMPI DUP1 MLOAD DUP3 MSTORE PUSH1 0x1F NOT SWAP1 SWAP3 ADD SWAP2 PUSH1 0x20 SWAP2 DUP3 ADD SWAP2 ADD PUSH2 0x45E9 JUMP JUMPDEST PUSH1 0x0 PUSH1 0x2 PUSH1 0x0 DUP4 PUSH1 0x40 MLOAD PUSH1 0x20 ADD DUP1 DUP1 PUSH1 0x0 DUP1 MLOAD PUSH1 0x20 PUSH2 0x4F4A DUP4 CODECOPY DUP2 MLOAD SWAP2 MSTORE DUP2 MSTORE POP PUSH1 0xB ADD DUP3 PUSH1 0x1 PUSH1 0xA0 PUSH1 0x2 EXP SUB AND PUSH1 0x1 PUSH1 0xA0 PUSH1 0x2 EXP SUB AND PUSH1 0x60 PUSH1 0x2 EXP MUL DUP2 MSTORE PUSH1 0x14 ADD SWAP2 POP POP PUSH1 0x40 MLOAD PUSH1 0x20 DUP2 DUP4 SUB SUB DUP2 MSTORE SWAP1 PUSH1 0x40 MSTORE PUSH1 0x40 MLOAD DUP1 DUP3 DUP1 MLOAD SWAP1 PUSH1 0x20 ADD SWAP1 DUP1 DUP4 DUP4 JUMPDEST PUSH1 0x20 DUP4 LT PUSH2 0x49A0 JUMPI DUP1 MLOAD DUP3 MSTORE PUSH1 0x1F NOT SWAP1 SWAP3 ADD SWAP2 PUSH1 0x20 SWAP2 DUP3 ADD SWAP2 ADD PUSH2 0x4981 JUMP JUMPDEST PUSH1 0x1 DUP4 PUSH1 0x20 SUB PUSH2 0x100 EXP SUB DUP1 NOT DUP3 MLOAD AND DUP2 DUP5 MLOAD AND DUP1 DUP3 OR DUP6 MSTORE POP POP POP POP POP POP SWAP1 POP ADD SWAP2 POP POP PUSH1 0x40 MLOAD DUP1 SWAP2 SUB SWAP1 KECCAK256 PUSH1 0x0 NOT AND PUSH1 0x0 NOT AND DUP2 MSTORE PUSH1 0x20 ADD SWAP1 DUP2 MSTORE PUSH1 0x20 ADD PUSH1 0x0 KECCAK256 SLOAD SWAP1 POP PUSH2 0x4A02 PUSH1 0x1 PUSH2 0x3070 PUSH2 0x49FA DUP5 PUSH2 0x185B PUSH2 0x2370 JUMP JUMPDEST PUSH2 0x1F18 PUSH2 0x23D8 JUMP JUMPDEST PUSH1 0x2 PUSH1 0x0 DUP5 PUSH1 0x40 MLOAD PUSH1 0x20 ADD DUP1 DUP1 PUSH32 0x72656C65617365426C6F636B0000000000000000000000000000000000000000 DUP2 MSTORE POP PUSH1 0xC ADD DUP3 PUSH1 0x1 PUSH1 0xA0 PUSH1 0x2 EXP SUB AND PUSH1 0x1 PUSH1 0xA0 PUSH1 0x2 EXP SUB AND PUSH1 0x60 PUSH1 0x2 EXP MUL DUP2 MSTORE PUSH1 0x14 ADD SWAP2 POP POP PUSH1 0x40 MLOAD PUSH1 0x20 DUP2 DUP4 SUB SUB DUP2 MSTORE SWAP1 PUSH1 0x40 MSTORE PUSH1 0x40 MLOAD DUP1 DUP3 DUP1 MLOAD SWAP1 PUSH1 0x20 ADD SWAP1 DUP1 DUP4 DUP4 JUMPDEST PUSH1 0x20 DUP4 LT PUSH2 0x4A95 JUMPI DUP1 MLOAD DUP3 MSTORE PUSH1 0x1F NOT SWAP1 SWAP3 ADD SWAP2 PUSH1 0x20 SWAP2 DUP3 ADD SWAP2 ADD PUSH2 0x4A76 JUMP JUMPDEST MLOAD DUP2 MLOAD PUSH1 0x20 SWAP4 DUP5 SUB PUSH2 0x100 EXP PUSH1 0x0 NOT ADD DUP1 NOT SWAP1 SWAP3 AND SWAP2 AND OR SWAP1 MSTORE PUSH1 0x40 DUP1 MLOAD SWAP3 SWAP1 SWAP5 ADD DUP3 SWAP1 SUB SWAP1 SWAP2 KECCAK256 DUP7 MSTORE DUP6 ADD SWAP6 SWAP1 SWAP6 MSTORE SWAP3 SWAP1 SWAP3 ADD PUSH1 0x0 KECCAK256 SWAP4 SWAP1 SWAP4 SSTORE POP POP PUSH1 0x5 DUP3 GT SWAP1 POP PUSH2 0x1EFB JUMPI DUP1 PUSH1 0x1 ADD PUSH1 0x2 PUSH1 0x0 DUP5 PUSH1 0x40 MLOAD PUSH1 0x20 ADD DUP1 DUP1 PUSH1 0x0 DUP1 MLOAD PUSH1 0x20 PUSH2 0x4F4A DUP4 CODECOPY DUP2 MLOAD SWAP2 MSTORE DUP2 MSTORE POP PUSH1 0xB ADD DUP3 PUSH1 0x1 PUSH1 0xA0 PUSH1 0x2 EXP SUB AND PUSH1 0x1 PUSH1 0xA0 PUSH1 0x2 EXP SUB AND PUSH1 0x60 PUSH1 0x2 EXP MUL DUP2 MSTORE PUSH1 0x14 ADD SWAP2 POP POP PUSH1 0x40 MLOAD PUSH1 0x20 DUP2 DUP4 SUB SUB DUP2 MSTORE SWAP1 PUSH1 0x40 MSTORE PUSH1 0x40 MLOAD DUP1 DUP3 DUP1 MLOAD SWAP1 PUSH1 0x20 ADD SWAP1 DUP1 DUP4 DUP4 PUSH1 0x20 DUP4 LT PUSH2 0x2D43 JUMPI DUP1 MLOAD DUP3 MSTORE PUSH1 0x1F NOT SWAP1 SWAP3 ADD SWAP2 PUSH1 0x20 SWAP2 DUP3 ADD SWAP2 ADD PUSH2 0x2D24 JUMP JUMPDEST PUSH1 0x0 PUSH1 0x2 PUSH1 0x0 DUP4 PUSH1 0x40 MLOAD PUSH1 0x20 ADD DUP1 DUP1 PUSH1 0x0 DUP1 MLOAD PUSH1 0x20 PUSH2 0x4EAA DUP4 CODECOPY DUP2 MLOAD SWAP2 MSTORE DUP2 MSTORE POP PUSH1 0xB ADD DUP3 PUSH1 0x1 PUSH1 0xA0 PUSH1 0x2 EXP SUB AND PUSH1 0x1 PUSH1 0xA0 PUSH1 0x2 EXP SUB AND PUSH1 0x60 PUSH1 0x2 EXP MUL DUP2 MSTORE PUSH1 0x14 ADD SWAP2 POP POP PUSH1 0x40 MLOAD PUSH1 0x20 DUP2 DUP4 SUB SUB DUP2 MSTORE SWAP1 PUSH1 0x40 MSTORE PUSH1 0x40 MLOAD DUP1 DUP3 DUP1 MLOAD SWAP1 PUSH1 0x20 ADD SWAP1 DUP1 DUP4 DUP4 PUSH1 0x20 DUP4 LT PUSH2 0x2FC0 JUMPI DUP1 MLOAD DUP3 MSTORE PUSH1 0x1F NOT SWAP1 SWAP3 ADD SWAP2 PUSH1 0x20 SWAP2 DUP3 ADD SWAP2 ADD PUSH2 0x2FA1 JUMP JUMPDEST PUSH1 0x0 PUSH1 0x2 PUSH1 0x0 DUP4 PUSH1 0x40 MLOAD PUSH1 0x20 ADD DUP1 DUP1 PUSH1 0x0 DUP1 MLOAD PUSH1 0x20 PUSH2 0x4F4A DUP4 CODECOPY DUP2 MLOAD SWAP2 MSTORE DUP2 MSTORE POP PUSH1 0xB ADD DUP3 PUSH1 0x1 PUSH1 0xA0 PUSH1 0x2 EXP SUB AND PUSH1 0x1 PUSH1 0xA0 PUSH1 0x2 EXP SUB AND PUSH1 0x60 PUSH1 0x2 EXP MUL DUP2 MSTORE PUSH1 0x14 ADD SWAP2 POP POP PUSH1 0x40 MLOAD PUSH1 0x20 DUP2 DUP4 SUB SUB DUP2 MSTORE SWAP1 PUSH1 0x40 MSTORE PUSH1 0x40 MLOAD DUP1 DUP3 DUP1 MLOAD SWAP1 PUSH1 0x20 ADD SWAP1 DUP1 DUP4 DUP4 PUSH1 0x20 DUP4 LT PUSH2 0x2FC0 JUMPI DUP1 MLOAD DUP3 MSTORE PUSH1 0x1F NOT SWAP1 SWAP3 ADD SWAP2 PUSH1 0x20 SWAP2 DUP3 ADD SWAP2 ADD PUSH2 0x2FA1 JUMP JUMPDEST DUP1 PUSH1 0xA PUSH1 0x0 DUP6 PUSH1 0x40 MLOAD PUSH1 0x20 ADD DUP1 DUP1 PUSH1 0x0 DUP1 MLOAD PUSH1 0x20 PUSH2 0x4E4A DUP4 CODECOPY DUP2 MLOAD SWAP2 MSTORE DUP2 MSTORE POP PUSH1 0xA ADD DUP3 PUSH1 0x1 PUSH1 0xA0 PUSH1 0x2 EXP SUB AND PUSH1 0x1 PUSH1 0xA0 PUSH1 0x2 EXP SUB AND PUSH1 0x60 PUSH1 0x2 EXP MUL DUP2 MSTORE PUSH1 0x14 ADD SWAP2 POP POP PUSH1 0x40 MLOAD PUSH1 0x20 DUP2 DUP4 SUB SUB DUP2 MSTORE SWAP1 PUSH1 0x40 MSTORE PUSH1 0x40 MLOAD DUP1 DUP3 DUP1 MLOAD SWAP1 PUSH1 0x20 ADD SWAP1 DUP1 DUP4 DUP4 JUMPDEST PUSH1 0x20 DUP4 LT PUSH2 0x4CE6 JUMPI DUP1 MLOAD DUP3 MSTORE PUSH1 0x1F NOT SWAP1 SWAP3 ADD SWAP2 PUSH1 0x20 SWAP2 DUP3 ADD SWAP2 ADD PUSH2 0x4CC7 JUMP JUMPDEST MLOAD DUP2 MLOAD PUSH1 0x20 SWAP4 DUP5 SUB PUSH2 0x100 EXP PUSH1 0x0 NOT ADD DUP1 NOT SWAP1 SWAP3 AND SWAP2 AND OR SWAP1 MSTORE PUSH1 0x40 DUP1 MLOAD SWAP3 SWAP1 SWAP5 ADD DUP3 SWAP1 SUB SWAP1 SWAP2 KECCAK256 DUP7 MSTORE DUP6 ADD SWAP6 SWAP1 SWAP6 MSTORE SWAP3 SWAP1 SWAP3 ADD PUSH1 0x0 KECCAK256 DUP1 SLOAD SWAP1 SWAP4 POP DUP7 SWAP3 POP DUP3 LT SWAP1 POP PUSH2 0x4D2F JUMPI INVALID JUMPDEST SWAP1 PUSH1 0x0 MSTORE PUSH1 0x20 PUSH1 0x0 KECCAK256 ADD PUSH1 0x0 PUSH2 0x100 EXP DUP2 SLOAD DUP2 PUSH1 0x1 PUSH1 0xA0 PUSH1 0x2 EXP SUB MUL NOT AND SWAP1 DUP4 PUSH1 0x1 PUSH1 0xA0 PUSH1 0x2 EXP SUB AND MUL OR SWAP1 SSTORE POP POP POP POP JUMP JUMPDEST DUP3 DUP1 SLOAD DUP3 DUP3 SSTORE SWAP1 PUSH1 0x0 MSTORE PUSH1 0x20 PUSH1 0x0 KECCAK256 SWAP1 DUP2 ADD SWAP3 DUP3 ISZERO PUSH2 0x4DB7 JUMPI SWAP2 PUSH1 0x20 MUL DUP3 ADD JUMPDEST DUP3 DUP2 GT ISZERO PUSH2 0x4DB7 JUMPI DUP3 MLOAD DUP3 SLOAD PUSH1 0x1 PUSH1 0xA0 PUSH1 0x2 EXP SUB NOT AND PUSH1 0x1 PUSH1 0xA0 PUSH1 0x2 EXP SUB SWAP1 SWAP2 AND OR DUP3 SSTORE PUSH1 0x20 SWAP1 SWAP3 ADD SWAP2 PUSH1 0x1 SWAP1 SWAP2 ADD SWAP1 PUSH2 0x4D82 JUMP JUMPDEST POP PUSH2 0x4DC3 SWAP3 SWAP2 POP PUSH2 0x4DEB JUMP JUMPDEST POP SWAP1 JUMP JUMPDEST DUP2 SLOAD DUP2 DUP4 SSTORE DUP2 DUP2 GT ISZERO PUSH2 0xB1A JUMPI PUSH1 0x0 DUP4 DUP2 MSTORE PUSH1 0x20 SWAP1 KECCAK256 PUSH2 0xB1A SWAP2 DUP2 ADD SWAP1 DUP4 ADD PUSH2 0x4E0F JUMP JUMPDEST PUSH2 0xBC0 SWAP2 SWAP1 JUMPDEST DUP1 DUP3 GT ISZERO PUSH2 0x4DC3 JUMPI DUP1 SLOAD PUSH1 0x1 PUSH1 0xA0 PUSH1 0x2 EXP SUB NOT AND DUP2 SSTORE PUSH1 0x1 ADD PUSH2 0x4DF1 JUMP JUMPDEST PUSH2 0xBC0 SWAP2 SWAP1 JUMPDEST DUP1 DUP3 GT ISZERO PUSH2 0x4DC3 JUMPI PUSH1 0x0 DUP2 SSTORE PUSH1 0x1 ADD PUSH2 0x4E15 JUMP STOP PUSH11 0x61696C656456616C696461 PUSH21 0x6F7273000000000000000000000000000000006465 PUSH13 0x656761746F7273000000000000 STOP STOP STOP STOP STOP STOP STOP STOP STOP STOP STOP STOP STOP STOP STOP STOP PUSH3 0x6C6F63 PUSH12 0x436F756E7465720000000000 STOP STOP STOP STOP STOP STOP STOP STOP STOP STOP STOP STOP STOP STOP STOP PUSH17 0x656E64696E6756616C696461746F727300 STOP STOP STOP STOP STOP STOP STOP STOP STOP STOP STOP STOP STOP STOP PUSH20 0x7472696B65526573657400000000000000000000 STOP STOP STOP STOP STOP STOP STOP STOP STOP STOP STOP PUSH20 0x74616B65416D6F756E7400000000000000000000 STOP STOP STOP STOP STOP STOP STOP STOP STOP STOP STOP PUSH21 0x6F74616C5374616B65416D6F756E74000000000000 STOP STOP STOP STOP STOP STOP STOP STOP STOP STOP PUSH4 0x75727265 PUSH15 0x7456616C696461746F727300000000 STOP STOP STOP STOP STOP STOP STOP STOP STOP STOP STOP PUSH5 0x656C656761 PUSH21 0x6564416D6F756E7400000000000000000000000000 STOP STOP STOP STOP PUSH20 0x7472696B65436F756E7400000000000000000000 STOP STOP STOP STOP STOP STOP STOP STOP STOP STOP STOP LOG1 PUSH6 0x627A7A723058 KECCAK256 0xf5 SWAP8 0x29 PUSH5 0x37C96CEA9D SHL 0xb0 DUP10 SDIV 0xee 0xbf DUP9 0x46 SWAP5 0x4d DUP9 DUP1 0xbb 0xbf 0xc0 DUP9 0x24 0x25 PUSH24 0x138DE6A60029000000000000000000000000000000000000 "},"methodIdentifiers":{"CYCLE_DURATION_BLOCKS()":"7e2bf120","DECIMALS()":"2e0f2625","DEFAULT_VALIDATOR_FEE()":"92b391f3","MAX_STAKE()":"c98517c5","MAX_STRIKE_COUNT()":"8615b171","MAX_VALIDATORS()":"714897df","MIN_STAKE()":"cb1c2b5c","STRIKE_RESET()":"6bdf1d5a","VALIDATOR_PRODUCTIVITY_BP()":"72e81e32","blockCounter(address)":"7d8f7a61","currentValidators()":"a2cde609","currentValidatorsAtPosition(uint256)":"57aeefc5","currentValidatorsLength()":"40c9cdeb","cycle(address)":"85cd8464","delegate(address)":"5c19a95c","delegatedAmount(address,address)":"21429e60","delegators(address)":"8d23fc61","delegatorsAtPosition(address,uint256)":"eb431b6a","delegatorsLength(address)":"ddb3f487","emitInitiateChange()":"93b4e25e","finalizeChange()":"75286211","getCurrentCycleEndBlock()":"af295181","getCurrentCycleStartBlock()":"932781d6","getCycleDurationBlocks()":"a6524923","getDelegatorsForRewardDistribution(address,uint256)":"6a28f12f","getMaxStake()":"fe35505b","getMaxValidators()":"76bd510f","getMinStake()":"56a3b5fa","getMinValidatorFee()":"10f606e7","getProxyStorage()":"ec15a5e6","getReleaseBlock(address)":"ee19a7fc","getSnapshotAddresses(uint256)":"1043ca28","getStrikeReset(address)":"d2166ce9","getStrikes(address)":"7b1e52a5","getValidators()":"b7ab4db5","initialize(address)":"c4d66de8","isDelegator(address,address)":"a0e11929","isFinalized()":"8d4e4083","isInitialized()":"392e53cd","isJailed(address)":"14bfb527","isPendingValidator(address)":"fb64aac1","isValidator(address)":"facd743b","jailedValidators()":"651d8c22","jailedValidatorsAtPosition(uint256)":"8da873f8","jailedValidatorsLength()":"08c90076","maintenance()":"6c376cc5","newValidatorSet()":"5ccee1de","newValidatorSetLength()":"2bec36d2","paused()":"5c975abb","pendingValidators()":"a82f255b","pendingValidatorsAtPosition(uint256)":"0fe9d28e","pendingValidatorsLength()":"2a807f15","requiredSignatures()":"8d068043","setPaused(bool)":"16c38b3c","setProxyStorage(address)":"10855269","setValidatorFee(uint256)":"55460f81","shouldEmitInitiateChange()":"ef7b6d89","stake()":"3a4b66f1","stakeAmount(address)":"bf135267","totalStakeAmount()":"94409a56","unJail()":"6eae5b11","validatorFee(address)":"9f77dc30","withdraw(address,uint256)":"f3fef3a3","withdraw(uint256)":"2e1a7d4d"}}}}}