{"contracts/test/VotingMock.sol":{"VotingMock":{"abi":[{"constant":true,"inputs":[{"name":"_id","type":"uint256"}],"name":"getStartBlock","outputs":[{"name":"","type":"uint256"}],"payable":false,"stateMutability":"view","type":"function"},{"constant":true,"inputs":[{"name":"_id","type":"uint256"}],"name":"getQuorumState","outputs":[{"name":"","type":"uint256"}],"payable":false,"stateMutability":"view","type":"function"},{"constant":true,"inputs":[],"name":"MIN_BALLOT_DURATION_CYCLES","outputs":[{"name":"","type":"uint256"}],"payable":false,"stateMutability":"view","type":"function"},{"constant":true,"inputs":[{"name":"_id","type":"uint256"},{"name":"_key","type":"address"}],"name":"getVoterChoice","outputs":[{"name":"","type":"uint256"}],"payable":false,"stateMutability":"view","type":"function"},{"constant":true,"inputs":[{"name":"_id","type":"uint256"}],"name":"getAccepted","outputs":[{"name":"","type":"uint256"}],"payable":false,"stateMutability":"view","type":"function"},{"constant":true,"inputs":[{"name":"_id","type":"uint256"}],"name":"getIsFinalized","outputs":[{"name":"","type":"bool"}],"payable":false,"stateMutability":"view","type":"function"},{"constant":true,"inputs":[{"name":"_id","type":"uint256"}],"name":"isActiveBallot","outputs":[{"name":"","type":"bool"}],"payable":false,"stateMutability":"view","type":"function"},{"constant":true,"inputs":[{"name":"_id","type":"uint256"}],"name":"getFinalizeCalled","outputs":[{"name":"","type":"bool"}],"payable":false,"stateMutability":"view","type":"function"},{"constant":true,"inputs":[],"name":"DECIMALS","outputs":[{"name":"","type":"uint256"}],"payable":false,"stateMutability":"view","type":"function"},{"constant":true,"inputs":[],"name":"MINIMUM_TURNOUT_BP","outputs":[{"name":"","type":"uint256"}],"payable":false,"stateMutability":"view","type":"function"},{"constant":true,"inputs":[],"name":"isInitialized","outputs":[{"name":"","type":"bool"}],"payable":false,"stateMutability":"view","type":"function"},{"constant":true,"inputs":[],"name":"getNextBallotId","outputs":[{"name":"","type":"uint256"}],"payable":false,"stateMutability":"view","type":"function"},{"constant":true,"inputs":[{"name":"_id","type":"uint256"}],"name":"getTotalStake","outputs":[{"name":"","type":"uint256"}],"payable":false,"stateMutability":"view","type":"function"},{"constant":true,"inputs":[],"name":"MAX_BALLOT_DURATION_CYCLES","outputs":[{"name":"","type":"uint256"}],"payable":false,"stateMutability":"view","type":"function"},{"constant":true,"inputs":[{"name":"_id","type":"uint256"}],"name":"getDescription","outputs":[{"name":"","type":"string"}],"payable":false,"stateMutability":"view","type":"function"},{"constant":true,"inputs":[{"name":"_id","type":"uint256"}],"name":"getBelowTurnOut","outputs":[{"name":"","type":"bool"}],"payable":false,"stateMutability":"view","type":"function"},{"constant":true,"inputs":[{"name":"_id","type":"uint256"}],"name":"getRejected","outputs":[{"name":"","type":"uint256"}],"payable":false,"stateMutability":"view","type":"function"},{"constant":true,"inputs":[],"name":"activeBallotsLength","outputs":[{"name":"","type":"uint256"}],"payable":false,"stateMutability":"view","type":"function"},{"constant":true,"inputs":[{"name":"_address","type":"address"}],"name":"isValidVotingKey","outputs":[{"name":"","type":"bool"}],"payable":false,"stateMutability":"view","type":"function"},{"constant":false,"inputs":[],"name":"initialize","outputs":[],"payable":false,"stateMutability":"nonpayable","type":"function"},{"constant":true,"inputs":[{"name":"_id","type":"uint256"}],"name":"canBeFinalized","outputs":[{"name":"","type":"bool"}],"payable":false,"stateMutability":"view","type":"function"},{"constant":true,"inputs":[],"name":"MAX_LIMIT_OF_BALLOTS","outputs":[{"name":"","type":"uint256"}],"payable":false,"stateMutability":"view","type":"function"},{"constant":true,"inputs":[],"name":"getMaxBallotDurationCycles","outputs":[{"name":"","type":"uint256"}],"payable":false,"stateMutability":"pure","type":"function"},{"constant":true,"inputs":[{"name":"_id","type":"uint256"},{"name":"_key","type":"address"}],"name":"getBallotInfo","outputs":[{"name":"startBlock","type":"uint256"},{"name":"endBlock","type":"uint256"},{"name":"isFinalized","type":"bool"},{"name":"proposedValue","type":"address"},{"name":"contractType","type":"uint256"},{"name":"creator","type":"address"},{"name":"description","type":"string"},{"name":"canBeFinalizedNow","type":"bool"},{"name":"alreadyVoted","type":"bool"},{"name":"belowTurnOut","type":"bool"},{"name":"accepted","type":"uint256"},{"name":"rejected","type":"uint256"},{"name":"totalStake","type":"uint256"}],"payable":false,"stateMutability":"view","type":"function"},{"constant":true,"inputs":[{"name":"_id","type":"uint256"}],"name":"getEndBlock","outputs":[{"name":"","type":"uint256"}],"payable":false,"stateMutability":"view","type":"function"},{"constant":true,"inputs":[{"name":"_id","type":"uint256"}],"name":"getIndex","outputs":[{"name":"","type":"uint256"}],"payable":false,"stateMutability":"view","type":"function"},{"constant":false,"inputs":[{"name":"_id","type":"uint256"}],"name":"setNextBallotIdMock","outputs":[],"payable":false,"stateMutability":"nonpayable","type":"function"},{"constant":false,"inputs":[{"name":"_consensus","type":"address"}],"name":"setConsensusMock","outputs":[],"payable":false,"stateMutability":"nonpayable","type":"function"},{"constant":false,"inputs":[{"name":"_id","type":"uint256"},{"name":"_choice","type":"uint256"}],"name":"vote","outputs":[],"payable":false,"stateMutability":"nonpayable","type":"function"},{"constant":false,"inputs":[{"name":"validators","type":"address[]"}],"name":"onCycleEnd","outputs":[],"payable":false,"stateMutability":"nonpayable","type":"function"},{"constant":true,"inputs":[{"name":"_id","type":"uint256"}],"name":"getContractType","outputs":[{"name":"","type":"uint256"}],"payable":false,"stateMutability":"view","type":"function"},{"constant":false,"inputs":[{"name":"_startAfterNumberOfCycles","type":"uint256"},{"name":"_cyclesDuration","type":"uint256"},{"name":"_contractType","type":"uint256"},{"name":"_proposedValue","type":"address"},{"name":"_description","type":"string"}],"name":"newBallot","outputs":[{"name":"","type":"uint256"}],"payable":false,"stateMutability":"nonpayable","type":"function"},{"constant":true,"inputs":[{"name":"_id","type":"uint256"},{"name":"_key","type":"address"}],"name":"hasAlreadyVoted","outputs":[{"name":"","type":"bool"}],"payable":false,"stateMutability":"view","type":"function"},{"constant":true,"inputs":[],"name":"activeBallots","outputs":[{"name":"","type":"uint256[]"}],"payable":false,"stateMutability":"view","type":"function"},{"constant":true,"inputs":[{"name":"_id","type":"uint256"}],"name":"getCreator","outputs":[{"name":"","type":"address"}],"payable":false,"stateMutability":"view","type":"function"},{"constant":true,"inputs":[{"name":"_id","type":"uint256"}],"name":"getProposedValue","outputs":[{"name":"","type":"address"}],"payable":false,"stateMutability":"view","type":"function"},{"constant":true,"inputs":[{"name":"_index","type":"uint256"}],"name":"activeBallotsAtIndex","outputs":[{"name":"","type":"uint256"}],"payable":false,"stateMutability":"view","type":"function"},{"constant":true,"inputs":[],"name":"getProxyStorage","outputs":[{"name":"","type":"address"}],"payable":false,"stateMutability":"view","type":"function"},{"constant":true,"inputs":[{"name":"_contractType","type":"uint256"}],"name":"validContractType","outputs":[{"name":"","type":"bool"}],"payable":false,"stateMutability":"view","type":"function"},{"constant":true,"inputs":[],"name":"getMinBallotDurationCycles","outputs":[{"name":"","type":"uint256"}],"payable":false,"stateMutability":"pure","type":"function"},{"constant":true,"inputs":[{"name":"_key","type":"address"}],"name":"validatorActiveBallots","outputs":[{"name":"","type":"uint256"}],"payable":false,"stateMutability":"view","type":"function"},{"constant":true,"inputs":[],"name":"getBallotLimitPerValidator","outputs":[{"name":"","type":"uint256"}],"payable":false,"stateMutability":"view","type":"function"},{"anonymous":false,"inputs":[{"indexed":true,"name":"id","type":"uint256"},{"indexed":true,"name":"creator","type":"address"}],"name":"BallotCreated","type":"event"},{"anonymous":false,"inputs":[{"indexed":true,"name":"id","type":"uint256"}],"name":"BallotFinalized","type":"event"},{"anonymous":false,"inputs":[{"indexed":true,"name":"id","type":"uint256"},{"indexed":false,"name":"decision","type":"uint256"},{"indexed":true,"name":"voter","type":"address"}],"name":"Vote","type":"event"}],"evm":{"bytecode":{"linkReferences":{},"object":"608060405234801561001057600080fd5b50613bb4806100206000396000f3006080604052600436106101ea5763ffffffff60e060020a60003504166301b2320e81146101ef57806308dbb18e146102195780630af58e77146102315780630eac27f41461024657806322e5fe9d1461026a57806323e1a0a8146102825780632b592f92146102ae5780632dfba528146102c65780632e0f2625146102de578063340d3dc2146102f3578063392e53cd146103085780633ee2f2121461031d57806345367f2314610332578063480ca3801461034a5780634925ec551461035f57806360970b6f146103ec57806362f4c26b146104045780636ccc02341461041c57806377da7930146104315780638129fc1c1461045257806382c4c96314610469578063897ba3e4146104815780638be774d3146104965780638c64a20d146104ab5780638c8ab7ad146105cf5780638e7cb6e1146105e757806399695e42146105ff578063b11b5c7714610617578063b384abef14610638578063bbac62c814610653578063bdd4ae5514610673578063c12eefd21461068b578063c14bfd29146106c4578063d21dc68a146106e8578063d48e638a1461074d578063d6edcb3814610781578063df04447714610799578063ec15a5e6146107b1578063edaab223146107c6578063f3161a4d146107de578063f49774ee146107f3578063fcff021c14610814575b600080fd5b3480156101fb57600080fd5b50610207600435610829565b60408051918252519081900360200190f35b34801561022557600080fd5b506102076004356108ff565b34801561023d57600080fd5b50610207610991565b34801561025257600080fd5b50610207600435600160a060020a0360243516610996565b34801561027657600080fd5b50610207600435610a88565b34801561028e57600080fd5b5061029a600435610b1a565b604080519115158252519081900360200190f35b3480156102ba57600080fd5b5061029a600435610bf1565b3480156102d257600080fd5b5061029a600435610c16565b3480156102ea57600080fd5b50610207610c92565b3480156102ff57600080fd5b50610207610c9e565b34801561031457600080fd5b5061029a610ca4565b34801561032957600080fd5b50610207610d5d565b34801561033e57600080fd5b50610207600435610e12565b34801561035657600080fd5b50610207610ea4565b34801561036b57600080fd5b50610377600435610ea9565b6040805160208082528351818301528351919283929083019185019080838360005b838110156103b1578181015183820152602001610399565b50505050905090810190601f1680156103de5780820380516001836020036101000a031916815260200191505b509250505060405180910390f35b3480156103f857600080fd5b5061029a60043561101f565b34801561041057600080fd5b506102076004356110b1565b34801561042857600080fd5b50610207611143565b34801561043d57600080fd5b5061029a600160a060020a03600435166111a5565b34801561045e57600080fd5b50610467611335565b005b34801561047557600080fd5b5061029a600435611417565b34801561048d57600080fd5b5061020761146f565b3480156104a257600080fd5b50610207611474565b3480156104b757600080fd5b506104cf600435600160a060020a0360243516611479565b604051808e81526020018d81526020018c1515151581526020018b600160a060020a0316600160a060020a031681526020018a815260200189600160a060020a0316600160a060020a0316815260200180602001881515151581526020018715151515815260200186151515158152602001858152602001848152602001838152602001828103825289818151815260200191508051906020019080838360005b83811015610588578181015183820152602001610570565b50505050905090810190601f1680156105b55780820380516001836020036101000a031916815260200191505b509e50505050505050505050505050505060405180910390f35b3480156105db57600080fd5b5061020760043561152f565b3480156105f357600080fd5b506102076004356115c1565b34801561060b57600080fd5b50610467600435611653565b34801561062357600080fd5b50610467600160a060020a0360043516611708565b34801561064457600080fd5b506104676004356024356117e5565b34801561065f57600080fd5b50610467600480356024810191013561188e565b34801561067f57600080fd5b50610207600435611c19565b34801561069757600080fd5b506102076004803590602480359160443591600160a060020a036064351691608435918201910135611cab565b3480156106d057600080fd5b5061029a600435600160a060020a0360243516611d90565b3480156106f457600080fd5b506106fd611dbe565b60408051602080825283518183015283519192839290830191858101910280838360005b83811015610739578181015183820152602001610721565b505050509050019250505060405180910390f35b34801561075957600080fd5b50610765600435611eab565b60408051600160a060020a039092168252519081900360200190f35b34801561078d57600080fd5b50610765600435611f88565b3480156107a557600080fd5b5061020760043561201a565b3480156107bd57600080fd5b506107656120d8565b3480156107d257600080fd5b5061029a600435612196565b3480156107ea57600080fd5b5061020761221a565b3480156107ff57600080fd5b50610207600160a060020a036004351661221f565b34801561082057600080fd5b506102076122bc565b600060026000836040516020018080600080516020613b69833981519152815250600b01828152602001807f7374617274426c6f636b00000000000000000000000000000000000000000000815250600a019150506040516020818303038152906040526040518082805190602001908083835b602083106108bc5780518252601f19909201916020918201910161089d565b51815160209384036101000a600019018019909216911617905260408051929094018290039091208652850195909552929092016000205493505050505b919050565b600060026000836040516020018080600080516020613b69833981519152815250600b01828152602001807f71756f72756d5374617465000000000000000000000000000000000000000000815250600b01915050604051602081830303815290604052604051808280519060200190808383602083106108bc5780518252601f19909201916020918201910161089d565b600281565b60408051600080516020613b69833981519152602080830191909152602b82018590527f766f746572730000000000000000000000000000000000000000000000000000604b8301526c01000000000000000000000000600160a060020a0385160260518301528251604581840301815260659092019283905281516000936002938593909282918401908083835b60208310610a445780518252601f199092019160209182019101610a25565b51815160209384036101000a600019018019909216911617905260408051929094018290039091208652850195909552929092016000205493505050505b92915050565b600060026000836040516020018080600080516020613b69833981519152815250600b01828152602001807f6163636570746564000000000000000000000000000000000000000000000000815250600801915050604051602081830303815290604052604051808280519060200190808383602083106108bc5780518252601f19909201916020918201910161089d565b600060066000836040516020018080600080516020613b69833981519152815250600b01828152602001807f697346696e616c697a6564000000000000000000000000000000000000000000815250600b019150506040516020818303038152906040526040518082805190602001908083835b60208310610bad5780518252601f199092019160209182019101610b8e565b51815160209384036101000a600019018019909216911617905260408051929094018290039091208652850195909552929092016000205460ff1695945050505050565b600043610bfd83610829565b108015610a825750610c0e8261152f565b431092915050565b6000600660008360405160200180807f66696e616c697a6543616c6c6564000000000000000000000000000000000000815250600e0182815260200191505060405160208183030381529060405260405180828051906020019080838360208310610bad5780518252601f199092019160209182019101610b8e565b670de0b6b3a764000081565b6107d081565b60006006600060405160200180807f6973496e697469616c697a656400000000000000000000000000000000000000815250600d0190506040516020818303038152906040526040518082805190602001908083835b60208310610d195780518252601f199092019160209182019101610cfa565b51815160209384036101000a600019018019909216911617905260408051929094018290039091208652850195909552929092016000205460ff1693505050505b90565b60006002600060405160200180807f6e65787442616c6c6f7449640000000000000000000000000000000000000000815250600c0190506040516020818303038152906040526040518082805190602001908083835b60208310610dd25780518252601f199092019160209182019101610db3565b51815160209384036101000a6000190180199092169116179052604080519290940182900390912086528501959095529290920160002054949350505050565b600060026000836040516020018080600080516020613b69833981519152815250600b01828152602001807f746f74616c5374616b6500000000000000000000000000000000000000000000815250600a01915050604051602081830303815290604052604051808280519060200190808383602083106108bc5780518252601f19909201916020918201910161089d565b600e81565b606060036000836040516020018080600080516020613b69833981519152815250600b01828152602001807f6465736372697074696f6e000000000000000000000000000000000000000000815250600b019150506040516020818303038152906040526040518082805190602001908083835b60208310610f3c5780518252601f199092019160209182019101610f1d565b6001836020036101000a0380198251168184511680821785525050505050509050019150506040518091039020600019166000191681526020019081526020016000208054600181600116156101000203166002900480601f0160208091040260200160405190810160405280929190818152602001828054600181600116156101000203166002900480156110135780601f10610fe857610100808354040283529160200191611013565b820191906000526020600020905b815481529060010190602001808311610ff657829003601f168201915b50505050509050919050565b600060066000836040516020018080600080516020613b69833981519152815250600b01828152602001807f62656c6f775475726e4f75740000000000000000000000000000000000000000815250600c0191505060405160208183030381529060405260405180828051906020019080838360208310610bad5780518252601f199092019160209182019101610b8e565b600060026000836040516020018080600080516020613b69833981519152815250600b01828152602001807f72656a6563746564000000000000000000000000000000000000000000000000815250600801915050604051602081830303815290604052604051808280519060200190808383602083106108bc5780518252601f19909201916020918201910161089d565b6000600860006040516020018080600080516020613b49833981519152815250600d01905060405160208183030381529060405260405180828051906020019080838360208310610dd25780518252601f199092019160209182019101610db3565b6000808080806111b36120d8565b600160a060020a031663179e740b6040518163ffffffff1660e060020a028152600401602060405180830381600087803b1580156111f057600080fd5b505af1158015611204573d6000803e3d6000fd5b505050506040513d602081101561121a57600080fd5b505192505b82600160a060020a03166340c9cdeb6040518163ffffffff1660e060020a028152600401602060405180830381600087803b15801561125d57600080fd5b505af1158015611271573d6000803e3d6000fd5b505050506040513d602081101561128757600080fd5b505182101561132b5782600160a060020a03166357aeefc5836040518263ffffffff1660e060020a02815260040180828152602001915050602060405180830381600087803b1580156112d957600080fd5b505af11580156112ed573d6000803e3d6000fd5b505050506040513d602081101561130357600080fd5b50519050600160a060020a03808216908716141561132057600193505b60018201915061121f565b5091949350505050565b6004600060405160200180807f6f776e657200000000000000000000000000000000000000000000000000000081525060050190506040516020818303038152906040526040518082805190602001908083835b602083106113a85780518252601f199092019160209182019101611389565b51815160209384036101000a6000190180199092169116179052604080519290940182900390912086528501959095529290920160002054600160a060020a0316331492506113f991505057600080fd5b611401610ca4565b1561140b57600080fd5b6114156001612302565b565b6000611421610d5d565b821061142f575060006108fa565b4361143983610829565b1115611447575060006108fa565b61145082610b1a565b1561145d575060006108fa565b6114668261152f565b43101592915050565b606481565b600e90565b60008060008060008060606000806000806000806114968f610829565b9c506114a18f61152f565b9b506114ac8f610b1a565b9a506114b78f611f88565b99506114c28f611c19565b98506114cd8f611eab565b97506114d88f610ea9565b96506114e38f611417565b95506114ef8f8f611d90565b94506114fa8f61101f565b93506115058f610a88565b92506115108f6110b1565b915061151b8f610e12565b90509295989b9e9194979a9d509295989b50565b600060026000836040516020018080600080516020613b69833981519152815250600b01828152602001807f656e64426c6f636b000000000000000000000000000000000000000000000000815250600801915050604051602081830303815290604052604051808280519060200190808383602083106108bc5780518252601f19909201916020918201910161089d565b600060026000836040516020018080600080516020613b69833981519152815250600b01828152602001807f696e646578000000000000000000000000000000000000000000000000000000815250600501915050604051602081830303815290604052604051808280519060200190808383602083106108bc5780518252601f19909201916020918201910161089d565b806002600060405160200180807f6e65787442616c6c6f7449640000000000000000000000000000000000000000815250600c0190506040516020818303038152906040526040518082805190602001908083835b602083106116c75780518252601f1990920191602091820191016116a8565b51815160209384036101000a600019018019909216911617905260408051929094018290039091208652850195909552929092016000209390935550505050565b806004600060405160200180807f636f6e73656e7375734d6f636b00000000000000000000000000000000000000815250600d0190506040516020818303038152906040526040518082805190602001908083835b6020831061177c5780518252601f19909201916020918201910161175d565b51815160209384036101000a60001901801990921691161790526040805192909401829003909120865285019590955292909201600020805473ffffffffffffffffffffffffffffffffffffffff1916600160a060020a03959095169490941790935550505050565b60006117f083610b1a565b156117fa57600080fd5b503361180583610bf1565b151561181057600080fd5b61181a8382611d90565b1561182457600080fd5b60018214806118335750600282145b151561183e57600080fd5b6118498382846123c3565b604080518381529051600160a060020a0383169185917f7c2f48a4bf2e759e77b1e77a8bf1034cdf16e9034dad596d3655bb8b315f85eb9181900360200190a3505050565b600060606000806000806000806000600160a060020a03166004600060405160200180807f636f6e73656e7375734d6f636b00000000000000000000000000000000000000815250600d0190506040516020818303038152906040526040518082805190602001908083835b602083106119195780518252601f1990920191602091820191016118fa565b51815160209384036101000a6000190180199092169116179052604080519290940182900390912086528501959095529290920160002054600160a060020a0316939093149250611a30915050576004600060405160200180807f636f6e73656e7375734d6f636b00000000000000000000000000000000000000815250600d0190506040516020818303038152906040526040518082805190602001908083835b602083106119da5780518252601f1990920191602091820191016119bb565b51815160209384036101000a6000190180199092169116179052604080519290940182900390912086528501959095529290920160002054600160a060020a031633149250611a2b91505057600080fd5b611ab5565b611a386120d8565b600160a060020a031663179e740b6040518163ffffffff1660e060020a028152600401602060405180830381600087803b158015611a7557600080fd5b505af1158015611a89573d6000803e3d6000fd5b505050506040513d6020811015611a9f57600080fd5b5051600160a060020a03163314611ab557600080fd5b889750871515611ac457611c0d565b611acc611dbe565b9650600095505b8651861015611c0d578686815181101515611aea57fe5b90602001906020020151945043611b0086610829565b108015611b135750611b1185610c16565b155b15611c0257611b2185611417565b15611c02576000935060009250600091505b87821015611bdc57611b60858b8b85818110611b4b57fe5b90506020020135600160a060020a0316610996565b90506001811415611ba657611b9f611b928b8b85818110611b7d57fe5b90506020020135600160a060020a03166124b4565b859063ffffffff61258c16565b9350611bd1565b6002811415611bd157611bce611bc18b8b85818110611b7d57fe5b849063ffffffff61258c16565b92505b600190910190611b33565b611be685856125a9565b611bf0858461267d565b611bf98561270e565b611c0285612896565b600190950194611ad3565b50505050505050505050565b600060026000836040516020018080600080516020613b69833981519152815250600b01828152602001807f636f6e7472616374547970650000000000000000000000000000000000000000815250600c01915050604051602081830303815290604052604051808280519060200190808383602083106108bc5780518252601f19909201916020918201910161089d565b60008033611cb8816111a5565b1515611cc357600080fd5b888860008211611cd257600080fd5b60008111611cdf57600080fd5b611ce761221a565b811015611cf357600080fd5b611cfb611474565b811115611d0757600080fd5b600160a060020a0388161515611d1c57600080fd5b611d2589612196565b1515611d3057600080fd5b611d6b8b8b89898080601f0160208091040260200160405190810160405280939291908181526020018383808284375061297a945050505050565b9350611d778489612a77565b611d81848a612b73565b50919998505050505050505050565b6000600160a060020a0382161515611daa57506000610a82565b6000611db68484610996565b119392505050565b6060600860006040516020018080600080516020613b49833981519152815250600d0190506040516020818303038152906040526040518082805190602001908083835b60208310611e215780518252601f199092019160209182019101611e02565b51815160209384036101000a600019018019909216911617905260408051929094018290039091208652858101969096525092830160002080548451818702810187019095528085529394909392508401905082828015611ea157602002820191906000526020600020905b815481526020019060010190808311611e8d575b5050505050905090565b600060046000836040516020018080600080516020613b69833981519152815250600b01828152602001807f63726561746f72000000000000000000000000000000000000000000000000008152506007019150506040516020818303038152906040526040518082805190602001908083835b60208310611f3e5780518252601f199092019160209182019101611f1f565b51815160209384036101000a6000190180199092169116179052604080519290940182900390912086528501959095529290920160002054600160a060020a031695945050505050565b600060046000836040516020018080600080516020613b69833981519152815250600b01828152602001807f70726f706f73656456616c756500000000000000000000000000000000000000815250600d0191505060405160208183030381529060405260405180828051906020019080838360208310611f3e5780518252601f199092019160209182019101611f1f565b6000600860006040516020018080600080516020613b49833981519152815250600d0190506040516020818303038152906040526040518082805190602001908083835b6020831061207d5780518252601f19909201916020918201910161205e565b51815160209384036101000a600019018019909216911617905260408051929094018290039091208652850195909552929092016000208054909350859250821090506120c657fe5b90600052602060002001549050919050565b60006004600060405160200180807f70726f787953746f726167650000000000000000000000000000000000000000815250600c0190506040516020818303038152906040526040518082805190602001908083835b6020831061214d5780518252601f19909201916020918201910161212e565b51815160209384036101000a6000190180199092169116179052604080519290940182900390912086528501959095529290920160002054600160a060020a0316949350505050565b60006121a06120d8565b600160a060020a03166333875fdd836040518263ffffffff1660e060020a02815260040180828152602001915050602060405180830381600087803b1580156121e857600080fd5b505af11580156121fc573d6000803e3d6000fd5b505050506040513d602081101561221257600080fd5b505192915050565b600290565b6000600260008360405160200180807f76616c696461746f7241637469766542616c6c6f74730000000000000000000081525060160182600160a060020a0316600160a060020a03166c01000000000000000000000000028152601401915050604051602081830303815290604052604051808280519060200190808383602083106108bc5780518252601f19909201916020918201910161089d565b60008060006122c9612c04565b91508115156122db57606492506122fd565b6122ec60648363ffffffff612d0516565b90508015156122f9575060015b8092505b505090565b806006600060405160200180807f6973496e697469616c697a656400000000000000000000000000000000000000815250600d0190506040516020818303038152906040526040518082805190602001908083835b602083106123765780518252601f199092019160209182019101612357565b51815160209384036101000a60001901801990921691161790526040805192909401829003909120865285019590955292909201600020805460ff19169415159490941790935550505050565b60408051600080516020613b69833981519152602080830191909152602b82018690527f766f746572730000000000000000000000000000000000000000000000000000604b8301526c01000000000000000000000000600160a060020a0386160260518301528251604581840301815260659092019283905281518493600293600093909282918401908083835b602083106124715780518252601f199092019160209182019101612452565b51815160209384036101000a6000190180199092169116179052604080519290940182900390912086528501959095529290920160002093909355505050505050565b60006124be6120d8565b600160a060020a031663179e740b6040518163ffffffff1660e060020a028152600401602060405180830381600087803b1580156124fb57600080fd5b505af115801561250f573d6000803e3d6000fd5b505050506040513d602081101561252557600080fd5b5051604080517fbf135267000000000000000000000000000000000000000000000000000000008152600160a060020a0385811660048301529151919092169163bf1352679160248083019260209291908290030181600087803b1580156121e857600080fd5b60008282018381101561259e57600080fd5b8091505b5092915050565b8060026000846040516020018080600080516020613b69833981519152815250600b01828152602001807f61636365707465640000000000000000000000000000000000000000000000008152506008019150506040516020818303038152906040526040518082805190602001908083835b6020831061263b5780518252601f19909201916020918201910161261c565b51815160209384036101000a60001901801990921691161790526040805192909401829003909120865285019590955292909201600020939093555050505050565b8060026000846040516020018080600080516020613b69833981519152815250600b01828152602001807f72656a65637465640000000000000000000000000000000000000000000000008152506008019150506040516020818303038152906040526040518082805190602001908083836020831061263b5780518252601f19909201916020918201910161261c565b6127166120d8565b600160a060020a031663179e740b6040518163ffffffff1660e060020a028152600401602060405180830381600087803b15801561275357600080fd5b505af1158015612767573d6000803e3d6000fd5b505050506040513d602081101561277d57600080fd5b5051604080517f94409a560000000000000000000000000000000000000000000000000000000081529051600160a060020a03909216916394409a56916004808201926020929091908290030181600087803b1580156127dc57600080fd5b505af11580156127f0573d6000803e3d6000fd5b505050506040513d602081101561280657600080fd5b505160408051600080516020613b69833981519152602082810191909152602b82018590527f746f74616c5374616b6500000000000000000000000000000000000000000000604b8301528251603581840301815260559092019283905281516002936000939290918291840190808383602083106116c75780518252601f1990920191602091820191016116a8565b61289f81610c16565b15156128b7576128ae81612d28565b6128b781612d5c565b6128c081612dd8565b15612921576128ce816110b1565b6128d782610a88565b1115612906576128e681612e09565b156128fc576128f78160025b612e85565b612901565b612977565b612911565b6129118160036128f2565b61291c816000612f16565b612937565b61292c816001612f16565b6129378160036128f2565b61294081612ff6565b61294b81600161304b565b60405181907fd470bb0d3dcb39ff5a62757e0a1cdfe60f8200eba22fd0d82383630d457f868690600090a25b50565b6000806000612987610ca4565b151561299257600080fd5b33915061299e826130dc565b15156129a957600080fd5b6129b1610d5d565b90506129cc6129c782600163ffffffff61258c16565b611653565b6129d681876130f6565b6129e0818661337f565b6129eb81600061304b565b6129f68160016128f2565b612a008183613577565b612a0a8185613608565b612a1b81612a16611143565b6136e8565b612a26816000612f16565b612a2f81613779565b612a388261382e565b604051600160a060020a0383169082907fe64b3864f6f22f8969f8cb16c039eaf6454ef5e23c09791df010163000a7023590600090a395945050505050565b8060046000846040516020018080600080516020613b69833981519152815250600b01828152602001807f70726f706f73656456616c756500000000000000000000000000000000000000815250600d019150506040516020818303038152906040526040518082805190602001908083835b60208310612b095780518252601f199092019160209182019101612aea565b51815160209384036101000a60001901801990921691161790526040805192909401829003909120865285019590955292909201600020805473ffffffffffffffffffffffffffffffffffffffff1916600160a060020a0395909516949094179093555050505050565b8060026000846040516020018080600080516020613b69833981519152815250600b01828152602001807f636f6e7472616374547970650000000000000000000000000000000000000000815250600c019150506040516020818303038152906040526040518082805190602001908083836020831061263b5780518252601f19909201916020918201910161261c565b6000612c0e6120d8565b600160a060020a031663179e740b6040518163ffffffff1660e060020a028152600401602060405180830381600087803b158015612c4b57600080fd5b505af1158015612c5f573d6000803e3d6000fd5b505050506040513d6020811015612c7557600080fd5b5051604080517f40c9cdeb0000000000000000000000000000000000000000000000000000000081529051600160a060020a03909216916340c9cdeb916004808201926020929091908290030181600087803b158015612cd457600080fd5b505af1158015612ce8573d6000803e3d6000fd5b505050506040513d6020811015612cfe57600080fd5b5051905090565b600080808311612d1457600080fd5b8284811515612d1f57fe5b04949350505050565b600080612d3483611eab565b9150612d3f8261221f565b90506000811115612d5757612d57826001830361384c565b505050565b6001600660008360405160200180807f66696e616c697a6543616c6c6564000000000000000000000000000000000000815250600e01828152602001915050604051602081830303815290604052604051808280519060200190808383602083106123765780518252601f199092019160209182019101612357565b600080600080612de785610e12565b92506127106107d08402049150612dfd85610a88565b91909111949350505050565b6000612e136120d8565b600160a060020a031663bb0165b1612e2a84611c19565b612e3385611f88565b6040518363ffffffff1660e060020a0281526004018083815260200182600160a060020a0316600160a060020a0316815260200192505050602060405180830381600087803b1580156121e857600080fd5b8060026000846040516020018080600080516020613b69833981519152815250600b01828152602001807f71756f72756d5374617465000000000000000000000000000000000000000000815250600b019150506040516020818303038152906040526040518082805190602001908083836020831061263b5780518252601f19909201916020918201910161261c565b8060066000846040516020018080600080516020613b69833981519152815250600b01828152602001807f62656c6f775475726e4f75740000000000000000000000000000000000000000815250600c019150506040516020818303038152906040526040518082805190602001908083835b60208310612fa85780518252601f199092019160209182019101612f89565b51815160209384036101000a60001901801990921691161790526040805192909401829003909120865285019590955292909201600020805460ff1916941515949094179093555050505050565b6000806000613004846115c1565b92506001613010611143565b03915061301c8261201a565b905061302883826138e8565b61303281846136e8565b61303d8260006138e8565b6130456139a3565b50505050565b8060066000846040516020018080600080516020613b69833981519152815250600b01828152602001807f697346696e616c697a6564000000000000000000000000000000000000000000815250600b0191505060405160208183030381529060405260405180828051906020019080838360208310612fa85780518252601f199092019160209182019101612f89565b60006130e66122bc565b6130ef8361221f565b1092915050565b6000806000806131046120d8565b600160a060020a031663179e740b6040518163ffffffff1660e060020a028152600401602060405180830381600087803b15801561314157600080fd5b505af1158015613155573d6000803e3d6000fd5b505050506040513d602081101561316b57600080fd5b5051604080517fa65249230000000000000000000000000000000000000000000000000000000081529051919550600160a060020a0386169163a6524923916004808201926020929091908290030181600087803b1580156131cc57600080fd5b505af11580156131e0573d6000803e3d6000fd5b505050506040513d60208110156131f657600080fd5b5051604080517faf2951810000000000000000000000000000000000000000000000000000000081529051919450600160a060020a0386169163af295181916004808201926020929091908290030181600087803b15801561325757600080fd5b505af115801561326b573d6000803e3d6000fd5b505050506040513d602081101561328157600080fd5b505191506132a5613298868563ffffffff613a6216565b839063ffffffff61258c16565b90508060026000886040516020018080600080516020613b69833981519152815250600b01828152602001807f7374617274426c6f636b00000000000000000000000000000000000000000000815250600a019150506040516020818303038152906040526040518082805190602001908083835b602083106133395780518252601f19909201916020918201910161331a565b51815160209384036101000a6000190180199092169116179052604080519290940182900390912086528501959095529290920160002093909355505050505050505050565b600080600061338c6120d8565b600160a060020a031663179e740b6040518163ffffffff1660e060020a028152600401602060405180830381600087803b1580156133c957600080fd5b505af11580156133dd573d6000803e3d6000fd5b505050506040513d60208110156133f357600080fd5b5051604080517fa65249230000000000000000000000000000000000000000000000000000000081529051600160a060020a039092169163a6524923916004808201926020929091908290030181600087803b15801561345257600080fd5b505af1158015613466573d6000803e3d6000fd5b505050506040513d602081101561347c57600080fd5b5051925061348985610829565b915061349e613298858563ffffffff613a6216565b90508060026000876040516020018080600080516020613b69833981519152815250600b01828152602001807f656e64426c6f636b0000000000000000000000000000000000000000000000008152506008019150506040516020818303038152906040526040518082805190602001908083835b602083106135325780518252601f199092019160209182019101613513565b51815160209384036101000a60001901801990921691161790526040805192909401829003909120865285019590955292909201600020939093555050505050505050565b8060046000846040516020018080600080516020613b69833981519152815250600b01828152602001807f63726561746f720000000000000000000000000000000000000000000000000081525060070191505060405160208183030381529060405260405180828051906020019080838360208310612b095780518252601f199092019160209182019101612aea565b8060036000846040516020018080600080516020613b69833981519152815250600b01828152602001807f6465736372697074696f6e000000000000000000000000000000000000000000815250600b019150506040516020818303038152906040526040518082805190602001908083835b6020831061369a5780518252601f19909201916020918201910161367b565b51815160001960209485036101000a01908116901991909116179052604080519490920184900390932086528583019690965250929093016000208451612d57959194509201919050613a90565b8060026000846040516020018080600080516020613b69833981519152815250600b01828152602001807f696e6465780000000000000000000000000000000000000000000000000000008152506005019150506040516020818303038152906040526040518082805190602001908083836020831061263b5780518252601f19909201916020918201910161261c565b600860006040516020018080600080516020613b49833981519152815250600d0190506040516020818303038152906040526040518082805190602001908083835b602083106137da5780518252601f1990920191602091820191016137bb565b51815160209384036101000a60001901801990921691161790526040805192909401829003909120865285810196909652509290920160009081208054600181018255908252939020909201929092555050565b6129778161384c60016138408561221f565b9063ffffffff61258c16565b80600260008460405160200180807f76616c696461746f7241637469766542616c6c6f74730000000000000000000081525060160182600160a060020a0316600160a060020a03166c010000000000000000000000000281526014019150506040516020818303038152906040526040518082805190602001908083836020831061263b5780518252601f19909201916020918201910161261c565b80600860006040516020018080600080516020613b49833981519152815250600d0190506040516020818303038152906040526040518082805190602001908083835b6020831061394a5780518252601f19909201916020918201910161392b565b51815160209384036101000a6000190180199092169116179052604080519290940182900390912086528501959095529290920160002080549093508692508210905061399357fe5b6000918252602090912001555050565b60006139ad611143565b111561141557600860006040516020018080600080516020613b49833981519152815250600d0190506040516020818303038152906040526040518082805190602001908083835b60208310613a145780518252601f1990920191602091820191016139f5565b51815160001960209485036101000a81019182169119929092161790915260408051959093018590039094208752860196909652509290930160002080549350612977929091508301613b0e565b600080831515613a7557600091506125a2565b50828202828482811515613a8557fe5b041461259e57600080fd5b828054600181600116156101000203166002900490600052602060002090601f016020900481019282601f10613ad157805160ff1916838001178555613afe565b82800160010185558215613afe579182015b82811115613afe578251825591602001919060010190613ae3565b50613b0a929150613b2e565b5090565b815481835581811115612d5757600083815260209020612d579181019083015b610d5a91905b80821115613b0a5760008155600101613b34560061637469766542616c6c6f747300000000000000000000000000000000000000766f74696e675374617465000000000000000000000000000000000000000000a165627a7a72305820cac41d15a7d72ee6b6d73ea981ead6a37fe47cb80cad9028cd9fe7eb4a6728660029","opcodes":"PUSH1 0x80 PUSH1 0x40 MSTORE CALLVALUE DUP1 ISZERO PUSH2 0x10 JUMPI PUSH1 0x0 DUP1 REVERT JUMPDEST POP PUSH2 0x3BB4 DUP1 PUSH2 0x20 PUSH1 0x0 CODECOPY PUSH1 0x0 RETURN STOP PUSH1 0x80 PUSH1 0x40 MSTORE PUSH1 0x4 CALLDATASIZE LT PUSH2 0x1EA JUMPI PUSH4 0xFFFFFFFF PUSH1 0xE0 PUSH1 0x2 EXP PUSH1 0x0 CALLDATALOAD DIV AND PUSH4 0x1B2320E DUP2 EQ PUSH2 0x1EF JUMPI DUP1 PUSH4 0x8DBB18E EQ PUSH2 0x219 JUMPI DUP1 PUSH4 0xAF58E77 EQ PUSH2 0x231 JUMPI DUP1 PUSH4 0xEAC27F4 EQ PUSH2 0x246 JUMPI DUP1 PUSH4 0x22E5FE9D EQ PUSH2 0x26A JUMPI DUP1 PUSH4 0x23E1A0A8 EQ PUSH2 0x282 JUMPI DUP1 PUSH4 0x2B592F92 EQ PUSH2 0x2AE JUMPI DUP1 PUSH4 0x2DFBA528 EQ PUSH2 0x2C6 JUMPI DUP1 PUSH4 0x2E0F2625 EQ PUSH2 0x2DE JUMPI DUP1 PUSH4 0x340D3DC2 EQ PUSH2 0x2F3 JUMPI DUP1 PUSH4 0x392E53CD EQ PUSH2 0x308 JUMPI DUP1 PUSH4 0x3EE2F212 EQ PUSH2 0x31D JUMPI DUP1 PUSH4 0x45367F23 EQ PUSH2 0x332 JUMPI DUP1 PUSH4 0x480CA380 EQ PUSH2 0x34A JUMPI DUP1 PUSH4 0x4925EC55 EQ PUSH2 0x35F JUMPI DUP1 PUSH4 0x60970B6F EQ PUSH2 0x3EC JUMPI DUP1 PUSH4 0x62F4C26B EQ PUSH2 0x404 JUMPI DUP1 PUSH4 0x6CCC0234 EQ PUSH2 0x41C JUMPI DUP1 PUSH4 0x77DA7930 EQ PUSH2 0x431 JUMPI DUP1 PUSH4 0x8129FC1C EQ PUSH2 0x452 JUMPI DUP1 PUSH4 0x82C4C963 EQ PUSH2 0x469 JUMPI DUP1 PUSH4 0x897BA3E4 EQ PUSH2 0x481 JUMPI DUP1 PUSH4 0x8BE774D3 EQ PUSH2 0x496 JUMPI DUP1 PUSH4 0x8C64A20D EQ PUSH2 0x4AB JUMPI DUP1 PUSH4 0x8C8AB7AD EQ PUSH2 0x5CF JUMPI DUP1 PUSH4 0x8E7CB6E1 EQ PUSH2 0x5E7 JUMPI DUP1 PUSH4 0x99695E42 EQ PUSH2 0x5FF JUMPI DUP1 PUSH4 0xB11B5C77 EQ PUSH2 0x617 JUMPI DUP1 PUSH4 0xB384ABEF EQ PUSH2 0x638 JUMPI DUP1 PUSH4 0xBBAC62C8 EQ PUSH2 0x653 JUMPI DUP1 PUSH4 0xBDD4AE55 EQ PUSH2 0x673 JUMPI DUP1 PUSH4 0xC12EEFD2 EQ PUSH2 0x68B JUMPI DUP1 PUSH4 0xC14BFD29 EQ PUSH2 0x6C4 JUMPI DUP1 PUSH4 0xD21DC68A EQ PUSH2 0x6E8 JUMPI DUP1 PUSH4 0xD48E638A EQ PUSH2 0x74D JUMPI DUP1 PUSH4 0xD6EDCB38 EQ PUSH2 0x781 JUMPI DUP1 PUSH4 0xDF044477 EQ PUSH2 0x799 JUMPI DUP1 PUSH4 0xEC15A5E6 EQ PUSH2 0x7B1 JUMPI DUP1 PUSH4 0xEDAAB223 EQ PUSH2 0x7C6 JUMPI DUP1 PUSH4 0xF3161A4D EQ PUSH2 0x7DE JUMPI DUP1 PUSH4 0xF49774EE EQ PUSH2 0x7F3 JUMPI DUP1 PUSH4 0xFCFF021C EQ PUSH2 0x814 JUMPI JUMPDEST PUSH1 0x0 DUP1 REVERT JUMPDEST CALLVALUE DUP1 ISZERO PUSH2 0x1FB JUMPI PUSH1 0x0 DUP1 REVERT JUMPDEST POP PUSH2 0x207 PUSH1 0x4 CALLDATALOAD PUSH2 0x829 JUMP JUMPDEST PUSH1 0x40 DUP1 MLOAD SWAP2 DUP3 MSTORE MLOAD SWAP1 DUP2 SWAP1 SUB PUSH1 0x20 ADD SWAP1 RETURN JUMPDEST CALLVALUE DUP1 ISZERO PUSH2 0x225 JUMPI PUSH1 0x0 DUP1 REVERT JUMPDEST POP PUSH2 0x207 PUSH1 0x4 CALLDATALOAD PUSH2 0x8FF JUMP JUMPDEST CALLVALUE DUP1 ISZERO PUSH2 0x23D JUMPI PUSH1 0x0 DUP1 REVERT JUMPDEST POP PUSH2 0x207 PUSH2 0x991 JUMP JUMPDEST CALLVALUE DUP1 ISZERO PUSH2 0x252 JUMPI PUSH1 0x0 DUP1 REVERT JUMPDEST POP PUSH2 0x207 PUSH1 0x4 CALLDATALOAD PUSH1 0x1 PUSH1 0xA0 PUSH1 0x2 EXP SUB PUSH1 0x24 CALLDATALOAD AND PUSH2 0x996 JUMP JUMPDEST CALLVALUE DUP1 ISZERO PUSH2 0x276 JUMPI PUSH1 0x0 DUP1 REVERT JUMPDEST POP PUSH2 0x207 PUSH1 0x4 CALLDATALOAD PUSH2 0xA88 JUMP JUMPDEST CALLVALUE DUP1 ISZERO PUSH2 0x28E JUMPI PUSH1 0x0 DUP1 REVERT JUMPDEST POP PUSH2 0x29A PUSH1 0x4 CALLDATALOAD PUSH2 0xB1A JUMP JUMPDEST PUSH1 0x40 DUP1 MLOAD SWAP2 ISZERO ISZERO DUP3 MSTORE MLOAD SWAP1 DUP2 SWAP1 SUB PUSH1 0x20 ADD SWAP1 RETURN JUMPDEST CALLVALUE DUP1 ISZERO PUSH2 0x2BA JUMPI PUSH1 0x0 DUP1 REVERT JUMPDEST POP PUSH2 0x29A PUSH1 0x4 CALLDATALOAD PUSH2 0xBF1 JUMP JUMPDEST CALLVALUE DUP1 ISZERO PUSH2 0x2D2 JUMPI PUSH1 0x0 DUP1 REVERT JUMPDEST POP PUSH2 0x29A PUSH1 0x4 CALLDATALOAD PUSH2 0xC16 JUMP JUMPDEST CALLVALUE DUP1 ISZERO PUSH2 0x2EA JUMPI PUSH1 0x0 DUP1 REVERT JUMPDEST POP PUSH2 0x207 PUSH2 0xC92 JUMP JUMPDEST CALLVALUE DUP1 ISZERO PUSH2 0x2FF JUMPI PUSH1 0x0 DUP1 REVERT JUMPDEST POP PUSH2 0x207 PUSH2 0xC9E JUMP JUMPDEST CALLVALUE DUP1 ISZERO PUSH2 0x314 JUMPI PUSH1 0x0 DUP1 REVERT JUMPDEST POP PUSH2 0x29A PUSH2 0xCA4 JUMP JUMPDEST CALLVALUE DUP1 ISZERO PUSH2 0x329 JUMPI PUSH1 0x0 DUP1 REVERT JUMPDEST POP PUSH2 0x207 PUSH2 0xD5D JUMP JUMPDEST CALLVALUE DUP1 ISZERO PUSH2 0x33E JUMPI PUSH1 0x0 DUP1 REVERT JUMPDEST POP PUSH2 0x207 PUSH1 0x4 CALLDATALOAD PUSH2 0xE12 JUMP JUMPDEST CALLVALUE DUP1 ISZERO PUSH2 0x356 JUMPI PUSH1 0x0 DUP1 REVERT JUMPDEST POP PUSH2 0x207 PUSH2 0xEA4 JUMP JUMPDEST CALLVALUE DUP1 ISZERO PUSH2 0x36B JUMPI PUSH1 0x0 DUP1 REVERT JUMPDEST POP PUSH2 0x377 PUSH1 0x4 CALLDATALOAD PUSH2 0xEA9 JUMP JUMPDEST PUSH1 0x40 DUP1 MLOAD PUSH1 0x20 DUP1 DUP3 MSTORE DUP4 MLOAD DUP2 DUP4 ADD MSTORE DUP4 MLOAD SWAP2 SWAP3 DUP4 SWAP3 SWAP1 DUP4 ADD SWAP2 DUP6 ADD SWAP1 DUP1 DUP4 DUP4 PUSH1 0x0 JUMPDEST DUP4 DUP2 LT ISZERO PUSH2 0x3B1 JUMPI DUP2 DUP2 ADD MLOAD DUP4 DUP3 ADD MSTORE PUSH1 0x20 ADD PUSH2 0x399 JUMP JUMPDEST POP POP POP POP SWAP1 POP SWAP1 DUP2 ADD SWAP1 PUSH1 0x1F AND DUP1 ISZERO PUSH2 0x3DE JUMPI DUP1 DUP3 SUB DUP1 MLOAD PUSH1 0x1 DUP4 PUSH1 0x20 SUB PUSH2 0x100 EXP SUB NOT AND DUP2 MSTORE PUSH1 0x20 ADD SWAP2 POP JUMPDEST POP SWAP3 POP POP POP PUSH1 0x40 MLOAD DUP1 SWAP2 SUB SWAP1 RETURN JUMPDEST CALLVALUE DUP1 ISZERO PUSH2 0x3F8 JUMPI PUSH1 0x0 DUP1 REVERT JUMPDEST POP PUSH2 0x29A PUSH1 0x4 CALLDATALOAD PUSH2 0x101F JUMP JUMPDEST CALLVALUE DUP1 ISZERO PUSH2 0x410 JUMPI PUSH1 0x0 DUP1 REVERT JUMPDEST POP PUSH2 0x207 PUSH1 0x4 CALLDATALOAD PUSH2 0x10B1 JUMP JUMPDEST CALLVALUE DUP1 ISZERO PUSH2 0x428 JUMPI PUSH1 0x0 DUP1 REVERT JUMPDEST POP PUSH2 0x207 PUSH2 0x1143 JUMP JUMPDEST CALLVALUE DUP1 ISZERO PUSH2 0x43D JUMPI PUSH1 0x0 DUP1 REVERT JUMPDEST POP PUSH2 0x29A PUSH1 0x1 PUSH1 0xA0 PUSH1 0x2 EXP SUB PUSH1 0x4 CALLDATALOAD AND PUSH2 0x11A5 JUMP JUMPDEST CALLVALUE DUP1 ISZERO PUSH2 0x45E JUMPI PUSH1 0x0 DUP1 REVERT JUMPDEST POP PUSH2 0x467 PUSH2 0x1335 JUMP JUMPDEST STOP JUMPDEST CALLVALUE DUP1 ISZERO PUSH2 0x475 JUMPI PUSH1 0x0 DUP1 REVERT JUMPDEST POP PUSH2 0x29A PUSH1 0x4 CALLDATALOAD PUSH2 0x1417 JUMP JUMPDEST CALLVALUE DUP1 ISZERO PUSH2 0x48D JUMPI PUSH1 0x0 DUP1 REVERT JUMPDEST POP PUSH2 0x207 PUSH2 0x146F JUMP JUMPDEST CALLVALUE DUP1 ISZERO PUSH2 0x4A2 JUMPI PUSH1 0x0 DUP1 REVERT JUMPDEST POP PUSH2 0x207 PUSH2 0x1474 JUMP JUMPDEST CALLVALUE DUP1 ISZERO PUSH2 0x4B7 JUMPI PUSH1 0x0 DUP1 REVERT JUMPDEST POP PUSH2 0x4CF PUSH1 0x4 CALLDATALOAD PUSH1 0x1 PUSH1 0xA0 PUSH1 0x2 EXP SUB PUSH1 0x24 CALLDATALOAD AND PUSH2 0x1479 JUMP JUMPDEST PUSH1 0x40 MLOAD DUP1 DUP15 DUP2 MSTORE PUSH1 0x20 ADD DUP14 DUP2 MSTORE PUSH1 0x20 ADD DUP13 ISZERO ISZERO ISZERO ISZERO DUP2 MSTORE PUSH1 0x20 ADD DUP12 PUSH1 0x1 PUSH1 0xA0 PUSH1 0x2 EXP SUB AND PUSH1 0x1 PUSH1 0xA0 PUSH1 0x2 EXP SUB AND DUP2 MSTORE PUSH1 0x20 ADD DUP11 DUP2 MSTORE PUSH1 0x20 ADD DUP10 PUSH1 0x1 PUSH1 0xA0 PUSH1 0x2 EXP SUB AND PUSH1 0x1 PUSH1 0xA0 PUSH1 0x2 EXP SUB AND DUP2 MSTORE PUSH1 0x20 ADD DUP1 PUSH1 0x20 ADD DUP9 ISZERO ISZERO ISZERO ISZERO DUP2 MSTORE PUSH1 0x20 ADD DUP8 ISZERO ISZERO ISZERO ISZERO DUP2 MSTORE PUSH1 0x20 ADD DUP7 ISZERO ISZERO ISZERO ISZERO DUP2 MSTORE PUSH1 0x20 ADD DUP6 DUP2 MSTORE PUSH1 0x20 ADD DUP5 DUP2 MSTORE PUSH1 0x20 ADD DUP4 DUP2 MSTORE PUSH1 0x20 ADD DUP3 DUP2 SUB DUP3 MSTORE DUP10 DUP2 DUP2 MLOAD DUP2 MSTORE PUSH1 0x20 ADD SWAP2 POP DUP1 MLOAD SWAP1 PUSH1 0x20 ADD SWAP1 DUP1 DUP4 DUP4 PUSH1 0x0 JUMPDEST DUP4 DUP2 LT ISZERO PUSH2 0x588 JUMPI DUP2 DUP2 ADD MLOAD DUP4 DUP3 ADD MSTORE PUSH1 0x20 ADD PUSH2 0x570 JUMP JUMPDEST POP POP POP POP SWAP1 POP SWAP1 DUP2 ADD SWAP1 PUSH1 0x1F AND DUP1 ISZERO PUSH2 0x5B5 JUMPI DUP1 DUP3 SUB DUP1 MLOAD PUSH1 0x1 DUP4 PUSH1 0x20 SUB PUSH2 0x100 EXP SUB NOT AND DUP2 MSTORE PUSH1 0x20 ADD SWAP2 POP JUMPDEST POP SWAP15 POP POP POP POP POP POP POP POP POP POP POP POP POP POP POP PUSH1 0x40 MLOAD DUP1 SWAP2 SUB SWAP1 RETURN JUMPDEST CALLVALUE DUP1 ISZERO PUSH2 0x5DB JUMPI PUSH1 0x0 DUP1 REVERT JUMPDEST POP PUSH2 0x207 PUSH1 0x4 CALLDATALOAD PUSH2 0x152F JUMP JUMPDEST CALLVALUE DUP1 ISZERO PUSH2 0x5F3 JUMPI PUSH1 0x0 DUP1 REVERT JUMPDEST POP PUSH2 0x207 PUSH1 0x4 CALLDATALOAD PUSH2 0x15C1 JUMP JUMPDEST CALLVALUE DUP1 ISZERO PUSH2 0x60B JUMPI PUSH1 0x0 DUP1 REVERT JUMPDEST POP PUSH2 0x467 PUSH1 0x4 CALLDATALOAD PUSH2 0x1653 JUMP JUMPDEST CALLVALUE DUP1 ISZERO PUSH2 0x623 JUMPI PUSH1 0x0 DUP1 REVERT JUMPDEST POP PUSH2 0x467 PUSH1 0x1 PUSH1 0xA0 PUSH1 0x2 EXP SUB PUSH1 0x4 CALLDATALOAD AND PUSH2 0x1708 JUMP JUMPDEST CALLVALUE DUP1 ISZERO PUSH2 0x644 JUMPI PUSH1 0x0 DUP1 REVERT JUMPDEST POP PUSH2 0x467 PUSH1 0x4 CALLDATALOAD PUSH1 0x24 CALLDATALOAD PUSH2 0x17E5 JUMP JUMPDEST CALLVALUE DUP1 ISZERO PUSH2 0x65F JUMPI PUSH1 0x0 DUP1 REVERT JUMPDEST POP PUSH2 0x467 PUSH1 0x4 DUP1 CALLDATALOAD PUSH1 0x24 DUP2 ADD SWAP2 ADD CALLDATALOAD PUSH2 0x188E JUMP JUMPDEST CALLVALUE DUP1 ISZERO PUSH2 0x67F JUMPI PUSH1 0x0 DUP1 REVERT JUMPDEST POP PUSH2 0x207 PUSH1 0x4 CALLDATALOAD PUSH2 0x1C19 JUMP JUMPDEST CALLVALUE DUP1 ISZERO PUSH2 0x697 JUMPI PUSH1 0x0 DUP1 REVERT JUMPDEST POP PUSH2 0x207 PUSH1 0x4 DUP1 CALLDATALOAD SWAP1 PUSH1 0x24 DUP1 CALLDATALOAD SWAP2 PUSH1 0x44 CALLDATALOAD SWAP2 PUSH1 0x1 PUSH1 0xA0 PUSH1 0x2 EXP SUB PUSH1 0x64 CALLDATALOAD AND SWAP2 PUSH1 0x84 CALLDATALOAD SWAP2 DUP3 ADD SWAP2 ADD CALLDATALOAD PUSH2 0x1CAB JUMP JUMPDEST CALLVALUE DUP1 ISZERO PUSH2 0x6D0 JUMPI PUSH1 0x0 DUP1 REVERT JUMPDEST POP PUSH2 0x29A PUSH1 0x4 CALLDATALOAD PUSH1 0x1 PUSH1 0xA0 PUSH1 0x2 EXP SUB PUSH1 0x24 CALLDATALOAD AND PUSH2 0x1D90 JUMP JUMPDEST CALLVALUE DUP1 ISZERO PUSH2 0x6F4 JUMPI PUSH1 0x0 DUP1 REVERT JUMPDEST POP PUSH2 0x6FD PUSH2 0x1DBE JUMP JUMPDEST PUSH1 0x40 DUP1 MLOAD PUSH1 0x20 DUP1 DUP3 MSTORE DUP4 MLOAD DUP2 DUP4 ADD MSTORE DUP4 MLOAD SWAP2 SWAP3 DUP4 SWAP3 SWAP1 DUP4 ADD SWAP2 DUP6 DUP2 ADD SWAP2 MUL DUP1 DUP4 DUP4 PUSH1 0x0 JUMPDEST DUP4 DUP2 LT ISZERO PUSH2 0x739 JUMPI DUP2 DUP2 ADD MLOAD DUP4 DUP3 ADD MSTORE PUSH1 0x20 ADD PUSH2 0x721 JUMP JUMPDEST POP POP POP POP SWAP1 POP ADD SWAP3 POP POP POP PUSH1 0x40 MLOAD DUP1 SWAP2 SUB SWAP1 RETURN JUMPDEST CALLVALUE DUP1 ISZERO PUSH2 0x759 JUMPI PUSH1 0x0 DUP1 REVERT JUMPDEST POP PUSH2 0x765 PUSH1 0x4 CALLDATALOAD PUSH2 0x1EAB JUMP JUMPDEST PUSH1 0x40 DUP1 MLOAD PUSH1 0x1 PUSH1 0xA0 PUSH1 0x2 EXP SUB SWAP1 SWAP3 AND DUP3 MSTORE MLOAD SWAP1 DUP2 SWAP1 SUB PUSH1 0x20 ADD SWAP1 RETURN JUMPDEST CALLVALUE DUP1 ISZERO PUSH2 0x78D JUMPI PUSH1 0x0 DUP1 REVERT JUMPDEST POP PUSH2 0x765 PUSH1 0x4 CALLDATALOAD PUSH2 0x1F88 JUMP JUMPDEST CALLVALUE DUP1 ISZERO PUSH2 0x7A5 JUMPI PUSH1 0x0 DUP1 REVERT JUMPDEST POP PUSH2 0x207 PUSH1 0x4 CALLDATALOAD PUSH2 0x201A JUMP JUMPDEST CALLVALUE DUP1 ISZERO PUSH2 0x7BD JUMPI PUSH1 0x0 DUP1 REVERT JUMPDEST POP PUSH2 0x765 PUSH2 0x20D8 JUMP JUMPDEST CALLVALUE DUP1 ISZERO PUSH2 0x7D2 JUMPI PUSH1 0x0 DUP1 REVERT JUMPDEST POP PUSH2 0x29A PUSH1 0x4 CALLDATALOAD PUSH2 0x2196 JUMP JUMPDEST CALLVALUE DUP1 ISZERO PUSH2 0x7EA JUMPI PUSH1 0x0 DUP1 REVERT JUMPDEST POP PUSH2 0x207 PUSH2 0x221A JUMP JUMPDEST CALLVALUE DUP1 ISZERO PUSH2 0x7FF JUMPI PUSH1 0x0 DUP1 REVERT JUMPDEST POP PUSH2 0x207 PUSH1 0x1 PUSH1 0xA0 PUSH1 0x2 EXP SUB PUSH1 0x4 CALLDATALOAD AND PUSH2 0x221F JUMP JUMPDEST CALLVALUE DUP1 ISZERO PUSH2 0x820 JUMPI PUSH1 0x0 DUP1 REVERT JUMPDEST POP PUSH2 0x207 PUSH2 0x22BC JUMP JUMPDEST PUSH1 0x0 PUSH1 0x2 PUSH1 0x0 DUP4 PUSH1 0x40 MLOAD PUSH1 0x20 ADD DUP1 DUP1 PUSH1 0x0 DUP1 MLOAD PUSH1 0x20 PUSH2 0x3B69 DUP4 CODECOPY DUP2 MLOAD SWAP2 MSTORE DUP2 MSTORE POP PUSH1 0xB ADD DUP3 DUP2 MSTORE PUSH1 0x20 ADD DUP1 PUSH32 0x7374617274426C6F636B00000000000000000000000000000000000000000000 DUP2 MSTORE POP PUSH1 0xA ADD SWAP2 POP POP PUSH1 0x40 MLOAD PUSH1 0x20 DUP2 DUP4 SUB SUB DUP2 MSTORE SWAP1 PUSH1 0x40 MSTORE PUSH1 0x40 MLOAD DUP1 DUP3 DUP1 MLOAD SWAP1 PUSH1 0x20 ADD SWAP1 DUP1 DUP4 DUP4 JUMPDEST PUSH1 0x20 DUP4 LT PUSH2 0x8BC JUMPI DUP1 MLOAD DUP3 MSTORE PUSH1 0x1F NOT SWAP1 SWAP3 ADD SWAP2 PUSH1 0x20 SWAP2 DUP3 ADD SWAP2 ADD PUSH2 0x89D JUMP JUMPDEST MLOAD DUP2 MLOAD PUSH1 0x20 SWAP4 DUP5 SUB PUSH2 0x100 EXP PUSH1 0x0 NOT ADD DUP1 NOT SWAP1 SWAP3 AND SWAP2 AND OR SWAP1 MSTORE PUSH1 0x40 DUP1 MLOAD SWAP3 SWAP1 SWAP5 ADD DUP3 SWAP1 SUB SWAP1 SWAP2 KECCAK256 DUP7 MSTORE DUP6 ADD SWAP6 SWAP1 SWAP6 MSTORE SWAP3 SWAP1 SWAP3 ADD PUSH1 0x0 KECCAK256 SLOAD SWAP4 POP POP POP POP JUMPDEST SWAP2 SWAP1 POP JUMP JUMPDEST PUSH1 0x0 PUSH1 0x2 PUSH1 0x0 DUP4 PUSH1 0x40 MLOAD PUSH1 0x20 ADD DUP1 DUP1 PUSH1 0x0 DUP1 MLOAD PUSH1 0x20 PUSH2 0x3B69 DUP4 CODECOPY DUP2 MLOAD SWAP2 MSTORE DUP2 MSTORE POP PUSH1 0xB ADD DUP3 DUP2 MSTORE PUSH1 0x20 ADD DUP1 PUSH32 0x71756F72756D5374617465000000000000000000000000000000000000000000 DUP2 MSTORE POP PUSH1 0xB ADD SWAP2 POP POP PUSH1 0x40 MLOAD PUSH1 0x20 DUP2 DUP4 SUB SUB DUP2 MSTORE SWAP1 PUSH1 0x40 MSTORE PUSH1 0x40 MLOAD DUP1 DUP3 DUP1 MLOAD SWAP1 PUSH1 0x20 ADD SWAP1 DUP1 DUP4 DUP4 PUSH1 0x20 DUP4 LT PUSH2 0x8BC JUMPI DUP1 MLOAD DUP3 MSTORE PUSH1 0x1F NOT SWAP1 SWAP3 ADD SWAP2 PUSH1 0x20 SWAP2 DUP3 ADD SWAP2 ADD PUSH2 0x89D JUMP JUMPDEST PUSH1 0x2 DUP2 JUMP JUMPDEST PUSH1 0x40 DUP1 MLOAD PUSH1 0x0 DUP1 MLOAD PUSH1 0x20 PUSH2 0x3B69 DUP4 CODECOPY DUP2 MLOAD SWAP2 MSTORE PUSH1 0x20 DUP1 DUP4 ADD SWAP2 SWAP1 SWAP2 MSTORE PUSH1 0x2B DUP3 ADD DUP6 SWAP1 MSTORE PUSH32 0x766F746572730000000000000000000000000000000000000000000000000000 PUSH1 0x4B DUP4 ADD MSTORE PUSH13 0x1000000000000000000000000 PUSH1 0x1 PUSH1 0xA0 PUSH1 0x2 EXP SUB DUP6 AND MUL PUSH1 0x51 DUP4 ADD MSTORE DUP3 MLOAD PUSH1 0x45 DUP2 DUP5 SUB ADD DUP2 MSTORE PUSH1 0x65 SWAP1 SWAP3 ADD SWAP3 DUP4 SWAP1 MSTORE DUP2 MLOAD PUSH1 0x0 SWAP4 PUSH1 0x2 SWAP4 DUP6 SWAP4 SWAP1 SWAP3 DUP3 SWAP2 DUP5 ADD SWAP1 DUP1 DUP4 DUP4 JUMPDEST PUSH1 0x20 DUP4 LT PUSH2 0xA44 JUMPI DUP1 MLOAD DUP3 MSTORE PUSH1 0x1F NOT SWAP1 SWAP3 ADD SWAP2 PUSH1 0x20 SWAP2 DUP3 ADD SWAP2 ADD PUSH2 0xA25 JUMP JUMPDEST MLOAD DUP2 MLOAD PUSH1 0x20 SWAP4 DUP5 SUB PUSH2 0x100 EXP PUSH1 0x0 NOT ADD DUP1 NOT SWAP1 SWAP3 AND SWAP2 AND OR SWAP1 MSTORE PUSH1 0x40 DUP1 MLOAD SWAP3 SWAP1 SWAP5 ADD DUP3 SWAP1 SUB SWAP1 SWAP2 KECCAK256 DUP7 MSTORE DUP6 ADD SWAP6 SWAP1 SWAP6 MSTORE SWAP3 SWAP1 SWAP3 ADD PUSH1 0x0 KECCAK256 SLOAD SWAP4 POP POP POP POP JUMPDEST SWAP3 SWAP2 POP POP JUMP JUMPDEST PUSH1 0x0 PUSH1 0x2 PUSH1 0x0 DUP4 PUSH1 0x40 MLOAD PUSH1 0x20 ADD DUP1 DUP1 PUSH1 0x0 DUP1 MLOAD PUSH1 0x20 PUSH2 0x3B69 DUP4 CODECOPY DUP2 MLOAD SWAP2 MSTORE DUP2 MSTORE POP PUSH1 0xB ADD DUP3 DUP2 MSTORE PUSH1 0x20 ADD DUP1 PUSH32 0x6163636570746564000000000000000000000000000000000000000000000000 DUP2 MSTORE POP PUSH1 0x8 ADD SWAP2 POP POP PUSH1 0x40 MLOAD PUSH1 0x20 DUP2 DUP4 SUB SUB DUP2 MSTORE SWAP1 PUSH1 0x40 MSTORE PUSH1 0x40 MLOAD DUP1 DUP3 DUP1 MLOAD SWAP1 PUSH1 0x20 ADD SWAP1 DUP1 DUP4 DUP4 PUSH1 0x20 DUP4 LT PUSH2 0x8BC JUMPI DUP1 MLOAD DUP3 MSTORE PUSH1 0x1F NOT SWAP1 SWAP3 ADD SWAP2 PUSH1 0x20 SWAP2 DUP3 ADD SWAP2 ADD PUSH2 0x89D JUMP JUMPDEST PUSH1 0x0 PUSH1 0x6 PUSH1 0x0 DUP4 PUSH1 0x40 MLOAD PUSH1 0x20 ADD DUP1 DUP1 PUSH1 0x0 DUP1 MLOAD PUSH1 0x20 PUSH2 0x3B69 DUP4 CODECOPY DUP2 MLOAD SWAP2 MSTORE DUP2 MSTORE POP PUSH1 0xB ADD DUP3 DUP2 MSTORE PUSH1 0x20 ADD DUP1 PUSH32 0x697346696E616C697A6564000000000000000000000000000000000000000000 DUP2 MSTORE POP PUSH1 0xB ADD SWAP2 POP POP PUSH1 0x40 MLOAD PUSH1 0x20 DUP2 DUP4 SUB SUB DUP2 MSTORE SWAP1 PUSH1 0x40 MSTORE PUSH1 0x40 MLOAD DUP1 DUP3 DUP1 MLOAD SWAP1 PUSH1 0x20 ADD SWAP1 DUP1 DUP4 DUP4 JUMPDEST PUSH1 0x20 DUP4 LT PUSH2 0xBAD JUMPI DUP1 MLOAD DUP3 MSTORE PUSH1 0x1F NOT SWAP1 SWAP3 ADD SWAP2 PUSH1 0x20 SWAP2 DUP3 ADD SWAP2 ADD PUSH2 0xB8E JUMP JUMPDEST MLOAD DUP2 MLOAD PUSH1 0x20 SWAP4 DUP5 SUB PUSH2 0x100 EXP PUSH1 0x0 NOT ADD DUP1 NOT SWAP1 SWAP3 AND SWAP2 AND OR SWAP1 MSTORE PUSH1 0x40 DUP1 MLOAD SWAP3 SWAP1 SWAP5 ADD DUP3 SWAP1 SUB SWAP1 SWAP2 KECCAK256 DUP7 MSTORE DUP6 ADD SWAP6 SWAP1 SWAP6 MSTORE SWAP3 SWAP1 SWAP3 ADD PUSH1 0x0 KECCAK256 SLOAD PUSH1 0xFF AND SWAP6 SWAP5 POP POP POP POP POP JUMP JUMPDEST PUSH1 0x0 NUMBER PUSH2 0xBFD DUP4 PUSH2 0x829 JUMP JUMPDEST LT DUP1 ISZERO PUSH2 0xA82 JUMPI POP PUSH2 0xC0E DUP3 PUSH2 0x152F JUMP JUMPDEST NUMBER LT SWAP3 SWAP2 POP POP JUMP JUMPDEST PUSH1 0x0 PUSH1 0x6 PUSH1 0x0 DUP4 PUSH1 0x40 MLOAD PUSH1 0x20 ADD DUP1 DUP1 PUSH32 0x66696E616C697A6543616C6C6564000000000000000000000000000000000000 DUP2 MSTORE POP PUSH1 0xE ADD DUP3 DUP2 MSTORE PUSH1 0x20 ADD SWAP2 POP POP PUSH1 0x40 MLOAD PUSH1 0x20 DUP2 DUP4 SUB SUB DUP2 MSTORE SWAP1 PUSH1 0x40 MSTORE PUSH1 0x40 MLOAD DUP1 DUP3 DUP1 MLOAD SWAP1 PUSH1 0x20 ADD SWAP1 DUP1 DUP4 DUP4 PUSH1 0x20 DUP4 LT PUSH2 0xBAD JUMPI DUP1 MLOAD DUP3 MSTORE PUSH1 0x1F NOT SWAP1 SWAP3 ADD SWAP2 PUSH1 0x20 SWAP2 DUP3 ADD SWAP2 ADD PUSH2 0xB8E JUMP JUMPDEST PUSH8 0xDE0B6B3A7640000 DUP2 JUMP JUMPDEST PUSH2 0x7D0 DUP2 JUMP JUMPDEST PUSH1 0x0 PUSH1 0x6 PUSH1 0x0 PUSH1 0x40 MLOAD PUSH1 0x20 ADD DUP1 DUP1 PUSH32 0x6973496E697469616C697A656400000000000000000000000000000000000000 DUP2 MSTORE POP PUSH1 0xD ADD SWAP1 POP PUSH1 0x40 MLOAD PUSH1 0x20 DUP2 DUP4 SUB SUB DUP2 MSTORE SWAP1 PUSH1 0x40 MSTORE PUSH1 0x40 MLOAD DUP1 DUP3 DUP1 MLOAD SWAP1 PUSH1 0x20 ADD SWAP1 DUP1 DUP4 DUP4 JUMPDEST PUSH1 0x20 DUP4 LT PUSH2 0xD19 JUMPI DUP1 MLOAD DUP3 MSTORE PUSH1 0x1F NOT SWAP1 SWAP3 ADD SWAP2 PUSH1 0x20 SWAP2 DUP3 ADD SWAP2 ADD PUSH2 0xCFA JUMP JUMPDEST MLOAD DUP2 MLOAD PUSH1 0x20 SWAP4 DUP5 SUB PUSH2 0x100 EXP PUSH1 0x0 NOT ADD DUP1 NOT SWAP1 SWAP3 AND SWAP2 AND OR SWAP1 MSTORE PUSH1 0x40 DUP1 MLOAD SWAP3 SWAP1 SWAP5 ADD DUP3 SWAP1 SUB SWAP1 SWAP2 KECCAK256 DUP7 MSTORE DUP6 ADD SWAP6 SWAP1 SWAP6 MSTORE SWAP3 SWAP1 SWAP3 ADD PUSH1 0x0 KECCAK256 SLOAD PUSH1 0xFF AND SWAP4 POP POP POP POP JUMPDEST SWAP1 JUMP JUMPDEST PUSH1 0x0 PUSH1 0x2 PUSH1 0x0 PUSH1 0x40 MLOAD PUSH1 0x20 ADD DUP1 DUP1 PUSH32 0x6E65787442616C6C6F7449640000000000000000000000000000000000000000 DUP2 MSTORE POP PUSH1 0xC ADD SWAP1 POP PUSH1 0x40 MLOAD PUSH1 0x20 DUP2 DUP4 SUB SUB DUP2 MSTORE SWAP1 PUSH1 0x40 MSTORE PUSH1 0x40 MLOAD DUP1 DUP3 DUP1 MLOAD SWAP1 PUSH1 0x20 ADD SWAP1 DUP1 DUP4 DUP4 JUMPDEST PUSH1 0x20 DUP4 LT PUSH2 0xDD2 JUMPI DUP1 MLOAD DUP3 MSTORE PUSH1 0x1F NOT SWAP1 SWAP3 ADD SWAP2 PUSH1 0x20 SWAP2 DUP3 ADD SWAP2 ADD PUSH2 0xDB3 JUMP JUMPDEST MLOAD DUP2 MLOAD PUSH1 0x20 SWAP4 DUP5 SUB PUSH2 0x100 EXP PUSH1 0x0 NOT ADD DUP1 NOT SWAP1 SWAP3 AND SWAP2 AND OR SWAP1 MSTORE PUSH1 0x40 DUP1 MLOAD SWAP3 SWAP1 SWAP5 ADD DUP3 SWAP1 SUB SWAP1 SWAP2 KECCAK256 DUP7 MSTORE DUP6 ADD SWAP6 SWAP1 SWAP6 MSTORE SWAP3 SWAP1 SWAP3 ADD PUSH1 0x0 KECCAK256 SLOAD SWAP5 SWAP4 POP POP POP POP JUMP JUMPDEST PUSH1 0x0 PUSH1 0x2 PUSH1 0x0 DUP4 PUSH1 0x40 MLOAD PUSH1 0x20 ADD DUP1 DUP1 PUSH1 0x0 DUP1 MLOAD PUSH1 0x20 PUSH2 0x3B69 DUP4 CODECOPY DUP2 MLOAD SWAP2 MSTORE DUP2 MSTORE POP PUSH1 0xB ADD DUP3 DUP2 MSTORE PUSH1 0x20 ADD DUP1 PUSH32 0x746F74616C5374616B6500000000000000000000000000000000000000000000 DUP2 MSTORE POP PUSH1 0xA ADD SWAP2 POP POP PUSH1 0x40 MLOAD PUSH1 0x20 DUP2 DUP4 SUB SUB DUP2 MSTORE SWAP1 PUSH1 0x40 MSTORE PUSH1 0x40 MLOAD DUP1 DUP3 DUP1 MLOAD SWAP1 PUSH1 0x20 ADD SWAP1 DUP1 DUP4 DUP4 PUSH1 0x20 DUP4 LT PUSH2 0x8BC JUMPI DUP1 MLOAD DUP3 MSTORE PUSH1 0x1F NOT SWAP1 SWAP3 ADD SWAP2 PUSH1 0x20 SWAP2 DUP3 ADD SWAP2 ADD PUSH2 0x89D JUMP JUMPDEST PUSH1 0xE DUP2 JUMP JUMPDEST PUSH1 0x60 PUSH1 0x3 PUSH1 0x0 DUP4 PUSH1 0x40 MLOAD PUSH1 0x20 ADD DUP1 DUP1 PUSH1 0x0 DUP1 MLOAD PUSH1 0x20 PUSH2 0x3B69 DUP4 CODECOPY DUP2 MLOAD SWAP2 MSTORE DUP2 MSTORE POP PUSH1 0xB ADD DUP3 DUP2 MSTORE PUSH1 0x20 ADD DUP1 PUSH32 0x6465736372697074696F6E000000000000000000000000000000000000000000 DUP2 MSTORE POP PUSH1 0xB ADD SWAP2 POP POP PUSH1 0x40 MLOAD PUSH1 0x20 DUP2 DUP4 SUB SUB DUP2 MSTORE SWAP1 PUSH1 0x40 MSTORE PUSH1 0x40 MLOAD DUP1 DUP3 DUP1 MLOAD SWAP1 PUSH1 0x20 ADD SWAP1 DUP1 DUP4 DUP4 JUMPDEST PUSH1 0x20 DUP4 LT PUSH2 0xF3C JUMPI DUP1 MLOAD DUP3 MSTORE PUSH1 0x1F NOT SWAP1 SWAP3 ADD SWAP2 PUSH1 0x20 SWAP2 DUP3 ADD SWAP2 ADD PUSH2 0xF1D JUMP JUMPDEST PUSH1 0x1 DUP4 PUSH1 0x20 SUB PUSH2 0x100 EXP SUB DUP1 NOT DUP3 MLOAD AND DUP2 DUP5 MLOAD AND DUP1 DUP3 OR DUP6 MSTORE POP POP POP POP POP POP SWAP1 POP ADD SWAP2 POP POP PUSH1 0x40 MLOAD DUP1 SWAP2 SUB SWAP1 KECCAK256 PUSH1 0x0 NOT AND PUSH1 0x0 NOT AND DUP2 MSTORE PUSH1 0x20 ADD SWAP1 DUP2 MSTORE PUSH1 0x20 ADD PUSH1 0x0 KECCAK256 DUP1 SLOAD PUSH1 0x1 DUP2 PUSH1 0x1 AND ISZERO PUSH2 0x100 MUL SUB AND PUSH1 0x2 SWAP1 DIV DUP1 PUSH1 0x1F ADD PUSH1 0x20 DUP1 SWAP2 DIV MUL PUSH1 0x20 ADD PUSH1 0x40 MLOAD SWAP1 DUP2 ADD PUSH1 0x40 MSTORE DUP1 SWAP3 SWAP2 SWAP1 DUP2 DUP2 MSTORE PUSH1 0x20 ADD DUP3 DUP1 SLOAD PUSH1 0x1 DUP2 PUSH1 0x1 AND ISZERO PUSH2 0x100 MUL SUB AND PUSH1 0x2 SWAP1 DIV DUP1 ISZERO PUSH2 0x1013 JUMPI DUP1 PUSH1 0x1F LT PUSH2 0xFE8 JUMPI PUSH2 0x100 DUP1 DUP4 SLOAD DIV MUL DUP4 MSTORE SWAP2 PUSH1 0x20 ADD SWAP2 PUSH2 0x1013 JUMP JUMPDEST DUP3 ADD SWAP2 SWAP1 PUSH1 0x0 MSTORE PUSH1 0x20 PUSH1 0x0 KECCAK256 SWAP1 JUMPDEST DUP2 SLOAD DUP2 MSTORE SWAP1 PUSH1 0x1 ADD SWAP1 PUSH1 0x20 ADD DUP1 DUP4 GT PUSH2 0xFF6 JUMPI DUP3 SWAP1 SUB PUSH1 0x1F AND DUP3 ADD SWAP2 JUMPDEST POP POP POP POP POP SWAP1 POP SWAP2 SWAP1 POP JUMP JUMPDEST PUSH1 0x0 PUSH1 0x6 PUSH1 0x0 DUP4 PUSH1 0x40 MLOAD PUSH1 0x20 ADD DUP1 DUP1 PUSH1 0x0 DUP1 MLOAD PUSH1 0x20 PUSH2 0x3B69 DUP4 CODECOPY DUP2 MLOAD SWAP2 MSTORE DUP2 MSTORE POP PUSH1 0xB ADD DUP3 DUP2 MSTORE PUSH1 0x20 ADD DUP1 PUSH32 0x62656C6F775475726E4F75740000000000000000000000000000000000000000 DUP2 MSTORE POP PUSH1 0xC ADD SWAP2 POP POP PUSH1 0x40 MLOAD PUSH1 0x20 DUP2 DUP4 SUB SUB DUP2 MSTORE SWAP1 PUSH1 0x40 MSTORE PUSH1 0x40 MLOAD DUP1 DUP3 DUP1 MLOAD SWAP1 PUSH1 0x20 ADD SWAP1 DUP1 DUP4 DUP4 PUSH1 0x20 DUP4 LT PUSH2 0xBAD JUMPI DUP1 MLOAD DUP3 MSTORE PUSH1 0x1F NOT SWAP1 SWAP3 ADD SWAP2 PUSH1 0x20 SWAP2 DUP3 ADD SWAP2 ADD PUSH2 0xB8E JUMP JUMPDEST PUSH1 0x0 PUSH1 0x2 PUSH1 0x0 DUP4 PUSH1 0x40 MLOAD PUSH1 0x20 ADD DUP1 DUP1 PUSH1 0x0 DUP1 MLOAD PUSH1 0x20 PUSH2 0x3B69 DUP4 CODECOPY DUP2 MLOAD SWAP2 MSTORE DUP2 MSTORE POP PUSH1 0xB ADD DUP3 DUP2 MSTORE PUSH1 0x20 ADD DUP1 PUSH32 0x72656A6563746564000000000000000000000000000000000000000000000000 DUP2 MSTORE POP PUSH1 0x8 ADD SWAP2 POP POP PUSH1 0x40 MLOAD PUSH1 0x20 DUP2 DUP4 SUB SUB DUP2 MSTORE SWAP1 PUSH1 0x40 MSTORE PUSH1 0x40 MLOAD DUP1 DUP3 DUP1 MLOAD SWAP1 PUSH1 0x20 ADD SWAP1 DUP1 DUP4 DUP4 PUSH1 0x20 DUP4 LT PUSH2 0x8BC JUMPI DUP1 MLOAD DUP3 MSTORE PUSH1 0x1F NOT SWAP1 SWAP3 ADD SWAP2 PUSH1 0x20 SWAP2 DUP3 ADD SWAP2 ADD PUSH2 0x89D JUMP JUMPDEST PUSH1 0x0 PUSH1 0x8 PUSH1 0x0 PUSH1 0x40 MLOAD PUSH1 0x20 ADD DUP1 DUP1 PUSH1 0x0 DUP1 MLOAD PUSH1 0x20 PUSH2 0x3B49 DUP4 CODECOPY DUP2 MLOAD SWAP2 MSTORE DUP2 MSTORE POP PUSH1 0xD ADD SWAP1 POP PUSH1 0x40 MLOAD PUSH1 0x20 DUP2 DUP4 SUB SUB DUP2 MSTORE SWAP1 PUSH1 0x40 MSTORE PUSH1 0x40 MLOAD DUP1 DUP3 DUP1 MLOAD SWAP1 PUSH1 0x20 ADD SWAP1 DUP1 DUP4 DUP4 PUSH1 0x20 DUP4 LT PUSH2 0xDD2 JUMPI DUP1 MLOAD DUP3 MSTORE PUSH1 0x1F NOT SWAP1 SWAP3 ADD SWAP2 PUSH1 0x20 SWAP2 DUP3 ADD SWAP2 ADD PUSH2 0xDB3 JUMP JUMPDEST PUSH1 0x0 DUP1 DUP1 DUP1 DUP1 PUSH2 0x11B3 PUSH2 0x20D8 JUMP JUMPDEST PUSH1 0x1 PUSH1 0xA0 PUSH1 0x2 EXP SUB AND PUSH4 0x179E740B PUSH1 0x40 MLOAD DUP2 PUSH4 0xFFFFFFFF AND PUSH1 0xE0 PUSH1 0x2 EXP MUL DUP2 MSTORE PUSH1 0x4 ADD PUSH1 0x20 PUSH1 0x40 MLOAD DUP1 DUP4 SUB DUP2 PUSH1 0x0 DUP8 DUP1 EXTCODESIZE ISZERO DUP1 ISZERO PUSH2 0x11F0 JUMPI PUSH1 0x0 DUP1 REVERT JUMPDEST POP GAS CALL ISZERO DUP1 ISZERO PUSH2 0x1204 JUMPI RETURNDATASIZE PUSH1 0x0 DUP1 RETURNDATACOPY RETURNDATASIZE PUSH1 0x0 REVERT JUMPDEST POP POP POP POP PUSH1 0x40 MLOAD RETURNDATASIZE PUSH1 0x20 DUP2 LT ISZERO PUSH2 0x121A JUMPI PUSH1 0x0 DUP1 REVERT JUMPDEST POP MLOAD SWAP3 POP JUMPDEST DUP3 PUSH1 0x1 PUSH1 0xA0 PUSH1 0x2 EXP SUB AND PUSH4 0x40C9CDEB PUSH1 0x40 MLOAD DUP2 PUSH4 0xFFFFFFFF AND PUSH1 0xE0 PUSH1 0x2 EXP MUL DUP2 MSTORE PUSH1 0x4 ADD PUSH1 0x20 PUSH1 0x40 MLOAD DUP1 DUP4 SUB DUP2 PUSH1 0x0 DUP8 DUP1 EXTCODESIZE ISZERO DUP1 ISZERO PUSH2 0x125D JUMPI PUSH1 0x0 DUP1 REVERT JUMPDEST POP GAS CALL ISZERO DUP1 ISZERO PUSH2 0x1271 JUMPI RETURNDATASIZE PUSH1 0x0 DUP1 RETURNDATACOPY RETURNDATASIZE PUSH1 0x0 REVERT JUMPDEST POP POP POP POP PUSH1 0x40 MLOAD RETURNDATASIZE PUSH1 0x20 DUP2 LT ISZERO PUSH2 0x1287 JUMPI PUSH1 0x0 DUP1 REVERT JUMPDEST POP MLOAD DUP3 LT ISZERO PUSH2 0x132B JUMPI DUP3 PUSH1 0x1 PUSH1 0xA0 PUSH1 0x2 EXP SUB AND PUSH4 0x57AEEFC5 DUP4 PUSH1 0x40 MLOAD DUP3 PUSH4 0xFFFFFFFF AND PUSH1 0xE0 PUSH1 0x2 EXP MUL DUP2 MSTORE PUSH1 0x4 ADD DUP1 DUP3 DUP2 MSTORE PUSH1 0x20 ADD SWAP2 POP POP PUSH1 0x20 PUSH1 0x40 MLOAD DUP1 DUP4 SUB DUP2 PUSH1 0x0 DUP8 DUP1 EXTCODESIZE ISZERO DUP1 ISZERO PUSH2 0x12D9 JUMPI PUSH1 0x0 DUP1 REVERT JUMPDEST POP GAS CALL ISZERO DUP1 ISZERO PUSH2 0x12ED JUMPI RETURNDATASIZE PUSH1 0x0 DUP1 RETURNDATACOPY RETURNDATASIZE PUSH1 0x0 REVERT JUMPDEST POP POP POP POP PUSH1 0x40 MLOAD RETURNDATASIZE PUSH1 0x20 DUP2 LT ISZERO PUSH2 0x1303 JUMPI PUSH1 0x0 DUP1 REVERT JUMPDEST POP MLOAD SWAP1 POP PUSH1 0x1 PUSH1 0xA0 PUSH1 0x2 EXP SUB DUP1 DUP3 AND SWAP1 DUP8 AND EQ ISZERO PUSH2 0x1320 JUMPI PUSH1 0x1 SWAP4 POP JUMPDEST PUSH1 0x1 DUP3 ADD SWAP2 POP PUSH2 0x121F JUMP JUMPDEST POP SWAP2 SWAP5 SWAP4 POP POP POP POP JUMP JUMPDEST PUSH1 0x4 PUSH1 0x0 PUSH1 0x40 MLOAD PUSH1 0x20 ADD DUP1 DUP1 PUSH32 0x6F776E6572000000000000000000000000000000000000000000000000000000 DUP2 MSTORE POP PUSH1 0x5 ADD SWAP1 POP PUSH1 0x40 MLOAD PUSH1 0x20 DUP2 DUP4 SUB SUB DUP2 MSTORE SWAP1 PUSH1 0x40 MSTORE PUSH1 0x40 MLOAD DUP1 DUP3 DUP1 MLOAD SWAP1 PUSH1 0x20 ADD SWAP1 DUP1 DUP4 DUP4 JUMPDEST PUSH1 0x20 DUP4 LT PUSH2 0x13A8 JUMPI DUP1 MLOAD DUP3 MSTORE PUSH1 0x1F NOT SWAP1 SWAP3 ADD SWAP2 PUSH1 0x20 SWAP2 DUP3 ADD SWAP2 ADD PUSH2 0x1389 JUMP JUMPDEST MLOAD DUP2 MLOAD PUSH1 0x20 SWAP4 DUP5 SUB PUSH2 0x100 EXP PUSH1 0x0 NOT ADD DUP1 NOT SWAP1 SWAP3 AND SWAP2 AND OR SWAP1 MSTORE PUSH1 0x40 DUP1 MLOAD SWAP3 SWAP1 SWAP5 ADD DUP3 SWAP1 SUB SWAP1 SWAP2 KECCAK256 DUP7 MSTORE DUP6 ADD SWAP6 SWAP1 SWAP6 MSTORE SWAP3 SWAP1 SWAP3 ADD PUSH1 0x0 KECCAK256 SLOAD PUSH1 0x1 PUSH1 0xA0 PUSH1 0x2 EXP SUB AND CALLER EQ SWAP3 POP PUSH2 0x13F9 SWAP2 POP POP JUMPI PUSH1 0x0 DUP1 REVERT JUMPDEST PUSH2 0x1401 PUSH2 0xCA4 JUMP JUMPDEST ISZERO PUSH2 0x140B JUMPI PUSH1 0x0 DUP1 REVERT JUMPDEST PUSH2 0x1415 PUSH1 0x1 PUSH2 0x2302 JUMP JUMPDEST JUMP JUMPDEST PUSH1 0x0 PUSH2 0x1421 PUSH2 0xD5D JUMP JUMPDEST DUP3 LT PUSH2 0x142F JUMPI POP PUSH1 0x0 PUSH2 0x8FA JUMP JUMPDEST NUMBER PUSH2 0x1439 DUP4 PUSH2 0x829 JUMP JUMPDEST GT ISZERO PUSH2 0x1447 JUMPI POP PUSH1 0x0 PUSH2 0x8FA JUMP JUMPDEST PUSH2 0x1450 DUP3 PUSH2 0xB1A JUMP JUMPDEST ISZERO PUSH2 0x145D JUMPI POP PUSH1 0x0 PUSH2 0x8FA JUMP JUMPDEST PUSH2 0x1466 DUP3 PUSH2 0x152F JUMP JUMPDEST NUMBER LT ISZERO SWAP3 SWAP2 POP POP JUMP JUMPDEST PUSH1 0x64 DUP2 JUMP JUMPDEST PUSH1 0xE SWAP1 JUMP JUMPDEST PUSH1 0x0 DUP1 PUSH1 0x0 DUP1 PUSH1 0x0 DUP1 PUSH1 0x60 PUSH1 0x0 DUP1 PUSH1 0x0 DUP1 PUSH1 0x0 DUP1 PUSH2 0x1496 DUP16 PUSH2 0x829 JUMP JUMPDEST SWAP13 POP PUSH2 0x14A1 DUP16 PUSH2 0x152F JUMP JUMPDEST SWAP12 POP PUSH2 0x14AC DUP16 PUSH2 0xB1A JUMP JUMPDEST SWAP11 POP PUSH2 0x14B7 DUP16 PUSH2 0x1F88 JUMP JUMPDEST SWAP10 POP PUSH2 0x14C2 DUP16 PUSH2 0x1C19 JUMP JUMPDEST SWAP9 POP PUSH2 0x14CD DUP16 PUSH2 0x1EAB JUMP JUMPDEST SWAP8 POP PUSH2 0x14D8 DUP16 PUSH2 0xEA9 JUMP JUMPDEST SWAP7 POP PUSH2 0x14E3 DUP16 PUSH2 0x1417 JUMP JUMPDEST SWAP6 POP PUSH2 0x14EF DUP16 DUP16 PUSH2 0x1D90 JUMP JUMPDEST SWAP5 POP PUSH2 0x14FA DUP16 PUSH2 0x101F JUMP JUMPDEST SWAP4 POP PUSH2 0x1505 DUP16 PUSH2 0xA88 JUMP JUMPDEST SWAP3 POP PUSH2 0x1510 DUP16 PUSH2 0x10B1 JUMP JUMPDEST SWAP2 POP PUSH2 0x151B DUP16 PUSH2 0xE12 JUMP JUMPDEST SWAP1 POP SWAP3 SWAP6 SWAP9 SWAP12 SWAP15 SWAP2 SWAP5 SWAP8 SWAP11 SWAP14 POP SWAP3 SWAP6 SWAP9 SWAP12 POP JUMP JUMPDEST PUSH1 0x0 PUSH1 0x2 PUSH1 0x0 DUP4 PUSH1 0x40 MLOAD PUSH1 0x20 ADD DUP1 DUP1 PUSH1 0x0 DUP1 MLOAD PUSH1 0x20 PUSH2 0x3B69 DUP4 CODECOPY DUP2 MLOAD SWAP2 MSTORE DUP2 MSTORE POP PUSH1 0xB ADD DUP3 DUP2 MSTORE PUSH1 0x20 ADD DUP1 PUSH32 0x656E64426C6F636B000000000000000000000000000000000000000000000000 DUP2 MSTORE POP PUSH1 0x8 ADD SWAP2 POP POP PUSH1 0x40 MLOAD PUSH1 0x20 DUP2 DUP4 SUB SUB DUP2 MSTORE SWAP1 PUSH1 0x40 MSTORE PUSH1 0x40 MLOAD DUP1 DUP3 DUP1 MLOAD SWAP1 PUSH1 0x20 ADD SWAP1 DUP1 DUP4 DUP4 PUSH1 0x20 DUP4 LT PUSH2 0x8BC JUMPI DUP1 MLOAD DUP3 MSTORE PUSH1 0x1F NOT SWAP1 SWAP3 ADD SWAP2 PUSH1 0x20 SWAP2 DUP3 ADD SWAP2 ADD PUSH2 0x89D JUMP JUMPDEST PUSH1 0x0 PUSH1 0x2 PUSH1 0x0 DUP4 PUSH1 0x40 MLOAD PUSH1 0x20 ADD DUP1 DUP1 PUSH1 0x0 DUP1 MLOAD PUSH1 0x20 PUSH2 0x3B69 DUP4 CODECOPY DUP2 MLOAD SWAP2 MSTORE DUP2 MSTORE POP PUSH1 0xB ADD DUP3 DUP2 MSTORE PUSH1 0x20 ADD DUP1 PUSH32 0x696E646578000000000000000000000000000000000000000000000000000000 DUP2 MSTORE POP PUSH1 0x5 ADD SWAP2 POP POP PUSH1 0x40 MLOAD PUSH1 0x20 DUP2 DUP4 SUB SUB DUP2 MSTORE SWAP1 PUSH1 0x40 MSTORE PUSH1 0x40 MLOAD DUP1 DUP3 DUP1 MLOAD SWAP1 PUSH1 0x20 ADD SWAP1 DUP1 DUP4 DUP4 PUSH1 0x20 DUP4 LT PUSH2 0x8BC JUMPI DUP1 MLOAD DUP3 MSTORE PUSH1 0x1F NOT SWAP1 SWAP3 ADD SWAP2 PUSH1 0x20 SWAP2 DUP3 ADD SWAP2 ADD PUSH2 0x89D JUMP JUMPDEST DUP1 PUSH1 0x2 PUSH1 0x0 PUSH1 0x40 MLOAD PUSH1 0x20 ADD DUP1 DUP1 PUSH32 0x6E65787442616C6C6F7449640000000000000000000000000000000000000000 DUP2 MSTORE POP PUSH1 0xC ADD SWAP1 POP PUSH1 0x40 MLOAD PUSH1 0x20 DUP2 DUP4 SUB SUB DUP2 MSTORE SWAP1 PUSH1 0x40 MSTORE PUSH1 0x40 MLOAD DUP1 DUP3 DUP1 MLOAD SWAP1 PUSH1 0x20 ADD SWAP1 DUP1 DUP4 DUP4 JUMPDEST PUSH1 0x20 DUP4 LT PUSH2 0x16C7 JUMPI DUP1 MLOAD DUP3 MSTORE PUSH1 0x1F NOT SWAP1 SWAP3 ADD SWAP2 PUSH1 0x20 SWAP2 DUP3 ADD SWAP2 ADD PUSH2 0x16A8 JUMP JUMPDEST MLOAD DUP2 MLOAD PUSH1 0x20 SWAP4 DUP5 SUB PUSH2 0x100 EXP PUSH1 0x0 NOT ADD DUP1 NOT SWAP1 SWAP3 AND SWAP2 AND OR SWAP1 MSTORE PUSH1 0x40 DUP1 MLOAD SWAP3 SWAP1 SWAP5 ADD DUP3 SWAP1 SUB SWAP1 SWAP2 KECCAK256 DUP7 MSTORE DUP6 ADD SWAP6 SWAP1 SWAP6 MSTORE SWAP3 SWAP1 SWAP3 ADD PUSH1 0x0 KECCAK256 SWAP4 SWAP1 SWAP4 SSTORE POP POP POP POP JUMP JUMPDEST DUP1 PUSH1 0x4 PUSH1 0x0 PUSH1 0x40 MLOAD PUSH1 0x20 ADD DUP1 DUP1 PUSH32 0x636F6E73656E7375734D6F636B00000000000000000000000000000000000000 DUP2 MSTORE POP PUSH1 0xD ADD SWAP1 POP PUSH1 0x40 MLOAD PUSH1 0x20 DUP2 DUP4 SUB SUB DUP2 MSTORE SWAP1 PUSH1 0x40 MSTORE PUSH1 0x40 MLOAD DUP1 DUP3 DUP1 MLOAD SWAP1 PUSH1 0x20 ADD SWAP1 DUP1 DUP4 DUP4 JUMPDEST PUSH1 0x20 DUP4 LT PUSH2 0x177C JUMPI DUP1 MLOAD DUP3 MSTORE PUSH1 0x1F NOT SWAP1 SWAP3 ADD SWAP2 PUSH1 0x20 SWAP2 DUP3 ADD SWAP2 ADD PUSH2 0x175D JUMP JUMPDEST MLOAD DUP2 MLOAD PUSH1 0x20 SWAP4 DUP5 SUB PUSH2 0x100 EXP PUSH1 0x0 NOT ADD DUP1 NOT SWAP1 SWAP3 AND SWAP2 AND OR SWAP1 MSTORE PUSH1 0x40 DUP1 MLOAD SWAP3 SWAP1 SWAP5 ADD DUP3 SWAP1 SUB SWAP1 SWAP2 KECCAK256 DUP7 MSTORE DUP6 ADD SWAP6 SWAP1 SWAP6 MSTORE SWAP3 SWAP1 SWAP3 ADD PUSH1 0x0 KECCAK256 DUP1 SLOAD PUSH20 0xFFFFFFFFFFFFFFFFFFFFFFFFFFFFFFFFFFFFFFFF NOT AND PUSH1 0x1 PUSH1 0xA0 PUSH1 0x2 EXP SUB SWAP6 SWAP1 SWAP6 AND SWAP5 SWAP1 SWAP5 OR SWAP1 SWAP4 SSTORE POP POP POP POP JUMP JUMPDEST PUSH1 0x0 PUSH2 0x17F0 DUP4 PUSH2 0xB1A JUMP JUMPDEST ISZERO PUSH2 0x17FA JUMPI PUSH1 0x0 DUP1 REVERT JUMPDEST POP CALLER PUSH2 0x1805 DUP4 PUSH2 0xBF1 JUMP JUMPDEST ISZERO ISZERO PUSH2 0x1810 JUMPI PUSH1 0x0 DUP1 REVERT JUMPDEST PUSH2 0x181A DUP4 DUP3 PUSH2 0x1D90 JUMP JUMPDEST ISZERO PUSH2 0x1824 JUMPI PUSH1 0x0 DUP1 REVERT JUMPDEST PUSH1 0x1 DUP3 EQ DUP1 PUSH2 0x1833 JUMPI POP PUSH1 0x2 DUP3 EQ JUMPDEST ISZERO ISZERO PUSH2 0x183E JUMPI PUSH1 0x0 DUP1 REVERT JUMPDEST PUSH2 0x1849 DUP4 DUP3 DUP5 PUSH2 0x23C3 JUMP JUMPDEST PUSH1 0x40 DUP1 MLOAD DUP4 DUP2 MSTORE SWAP1 MLOAD PUSH1 0x1 PUSH1 0xA0 PUSH1 0x2 EXP SUB DUP4 AND SWAP2 DUP6 SWAP2 PUSH32 0x7C2F48A4BF2E759E77B1E77A8BF1034CDF16E9034DAD596D3655BB8B315F85EB SWAP2 DUP2 SWAP1 SUB PUSH1 0x20 ADD SWAP1 LOG3 POP POP POP JUMP JUMPDEST PUSH1 0x0 PUSH1 0x60 PUSH1 0x0 DUP1 PUSH1 0x0 DUP1 PUSH1 0x0 DUP1 PUSH1 0x0 PUSH1 0x1 PUSH1 0xA0 PUSH1 0x2 EXP SUB AND PUSH1 0x4 PUSH1 0x0 PUSH1 0x40 MLOAD PUSH1 0x20 ADD DUP1 DUP1 PUSH32 0x636F6E73656E7375734D6F636B00000000000000000000000000000000000000 DUP2 MSTORE POP PUSH1 0xD ADD SWAP1 POP PUSH1 0x40 MLOAD PUSH1 0x20 DUP2 DUP4 SUB SUB DUP2 MSTORE SWAP1 PUSH1 0x40 MSTORE PUSH1 0x40 MLOAD DUP1 DUP3 DUP1 MLOAD SWAP1 PUSH1 0x20 ADD SWAP1 DUP1 DUP4 DUP4 JUMPDEST PUSH1 0x20 DUP4 LT PUSH2 0x1919 JUMPI DUP1 MLOAD DUP3 MSTORE PUSH1 0x1F NOT SWAP1 SWAP3 ADD SWAP2 PUSH1 0x20 SWAP2 DUP3 ADD SWAP2 ADD PUSH2 0x18FA JUMP JUMPDEST MLOAD DUP2 MLOAD PUSH1 0x20 SWAP4 DUP5 SUB PUSH2 0x100 EXP PUSH1 0x0 NOT ADD DUP1 NOT SWAP1 SWAP3 AND SWAP2 AND OR SWAP1 MSTORE PUSH1 0x40 DUP1 MLOAD SWAP3 SWAP1 SWAP5 ADD DUP3 SWAP1 SUB SWAP1 SWAP2 KECCAK256 DUP7 MSTORE DUP6 ADD SWAP6 SWAP1 SWAP6 MSTORE SWAP3 SWAP1 SWAP3 ADD PUSH1 0x0 KECCAK256 SLOAD PUSH1 0x1 PUSH1 0xA0 PUSH1 0x2 EXP SUB AND SWAP4 SWAP1 SWAP4 EQ SWAP3 POP PUSH2 0x1A30 SWAP2 POP POP JUMPI PUSH1 0x4 PUSH1 0x0 PUSH1 0x40 MLOAD PUSH1 0x20 ADD DUP1 DUP1 PUSH32 0x636F6E73656E7375734D6F636B00000000000000000000000000000000000000 DUP2 MSTORE POP PUSH1 0xD ADD SWAP1 POP PUSH1 0x40 MLOAD PUSH1 0x20 DUP2 DUP4 SUB SUB DUP2 MSTORE SWAP1 PUSH1 0x40 MSTORE PUSH1 0x40 MLOAD DUP1 DUP3 DUP1 MLOAD SWAP1 PUSH1 0x20 ADD SWAP1 DUP1 DUP4 DUP4 JUMPDEST PUSH1 0x20 DUP4 LT PUSH2 0x19DA JUMPI DUP1 MLOAD DUP3 MSTORE PUSH1 0x1F NOT SWAP1 SWAP3 ADD SWAP2 PUSH1 0x20 SWAP2 DUP3 ADD SWAP2 ADD PUSH2 0x19BB JUMP JUMPDEST MLOAD DUP2 MLOAD PUSH1 0x20 SWAP4 DUP5 SUB PUSH2 0x100 EXP PUSH1 0x0 NOT ADD DUP1 NOT SWAP1 SWAP3 AND SWAP2 AND OR SWAP1 MSTORE PUSH1 0x40 DUP1 MLOAD SWAP3 SWAP1 SWAP5 ADD DUP3 SWAP1 SUB SWAP1 SWAP2 KECCAK256 DUP7 MSTORE DUP6 ADD SWAP6 SWAP1 SWAP6 MSTORE SWAP3 SWAP1 SWAP3 ADD PUSH1 0x0 KECCAK256 SLOAD PUSH1 0x1 PUSH1 0xA0 PUSH1 0x2 EXP SUB AND CALLER EQ SWAP3 POP PUSH2 0x1A2B SWAP2 POP POP JUMPI PUSH1 0x0 DUP1 REVERT JUMPDEST PUSH2 0x1AB5 JUMP JUMPDEST PUSH2 0x1A38 PUSH2 0x20D8 JUMP JUMPDEST PUSH1 0x1 PUSH1 0xA0 PUSH1 0x2 EXP SUB AND PUSH4 0x179E740B PUSH1 0x40 MLOAD DUP2 PUSH4 0xFFFFFFFF AND PUSH1 0xE0 PUSH1 0x2 EXP MUL DUP2 MSTORE PUSH1 0x4 ADD PUSH1 0x20 PUSH1 0x40 MLOAD DUP1 DUP4 SUB DUP2 PUSH1 0x0 DUP8 DUP1 EXTCODESIZE ISZERO DUP1 ISZERO PUSH2 0x1A75 JUMPI PUSH1 0x0 DUP1 REVERT JUMPDEST POP GAS CALL ISZERO DUP1 ISZERO PUSH2 0x1A89 JUMPI RETURNDATASIZE PUSH1 0x0 DUP1 RETURNDATACOPY RETURNDATASIZE PUSH1 0x0 REVERT JUMPDEST POP POP POP POP PUSH1 0x40 MLOAD RETURNDATASIZE PUSH1 0x20 DUP2 LT ISZERO PUSH2 0x1A9F JUMPI PUSH1 0x0 DUP1 REVERT JUMPDEST POP MLOAD PUSH1 0x1 PUSH1 0xA0 PUSH1 0x2 EXP SUB AND CALLER EQ PUSH2 0x1AB5 JUMPI PUSH1 0x0 DUP1 REVERT JUMPDEST DUP9 SWAP8 POP DUP8 ISZERO ISZERO PUSH2 0x1AC4 JUMPI PUSH2 0x1C0D JUMP JUMPDEST PUSH2 0x1ACC PUSH2 0x1DBE JUMP JUMPDEST SWAP7 POP PUSH1 0x0 SWAP6 POP JUMPDEST DUP7 MLOAD DUP7 LT ISZERO PUSH2 0x1C0D JUMPI DUP7 DUP7 DUP2 MLOAD DUP2 LT ISZERO ISZERO PUSH2 0x1AEA JUMPI INVALID JUMPDEST SWAP1 PUSH1 0x20 ADD SWAP1 PUSH1 0x20 MUL ADD MLOAD SWAP5 POP NUMBER PUSH2 0x1B00 DUP7 PUSH2 0x829 JUMP JUMPDEST LT DUP1 ISZERO PUSH2 0x1B13 JUMPI POP PUSH2 0x1B11 DUP6 PUSH2 0xC16 JUMP JUMPDEST ISZERO JUMPDEST ISZERO PUSH2 0x1C02 JUMPI PUSH2 0x1B21 DUP6 PUSH2 0x1417 JUMP JUMPDEST ISZERO PUSH2 0x1C02 JUMPI PUSH1 0x0 SWAP4 POP PUSH1 0x0 SWAP3 POP PUSH1 0x0 SWAP2 POP JUMPDEST DUP8 DUP3 LT ISZERO PUSH2 0x1BDC JUMPI PUSH2 0x1B60 DUP6 DUP12 DUP12 DUP6 DUP2 DUP2 LT PUSH2 0x1B4B JUMPI INVALID JUMPDEST SWAP1 POP PUSH1 0x20 MUL ADD CALLDATALOAD PUSH1 0x1 PUSH1 0xA0 PUSH1 0x2 EXP SUB AND PUSH2 0x996 JUMP JUMPDEST SWAP1 POP PUSH1 0x1 DUP2 EQ ISZERO PUSH2 0x1BA6 JUMPI PUSH2 0x1B9F PUSH2 0x1B92 DUP12 DUP12 DUP6 DUP2 DUP2 LT PUSH2 0x1B7D JUMPI INVALID JUMPDEST SWAP1 POP PUSH1 0x20 MUL ADD CALLDATALOAD PUSH1 0x1 PUSH1 0xA0 PUSH1 0x2 EXP SUB AND PUSH2 0x24B4 JUMP JUMPDEST DUP6 SWAP1 PUSH4 0xFFFFFFFF PUSH2 0x258C AND JUMP JUMPDEST SWAP4 POP PUSH2 0x1BD1 JUMP JUMPDEST PUSH1 0x2 DUP2 EQ ISZERO PUSH2 0x1BD1 JUMPI PUSH2 0x1BCE PUSH2 0x1BC1 DUP12 DUP12 DUP6 DUP2 DUP2 LT PUSH2 0x1B7D JUMPI INVALID JUMPDEST DUP5 SWAP1 PUSH4 0xFFFFFFFF PUSH2 0x258C AND JUMP JUMPDEST SWAP3 POP JUMPDEST PUSH1 0x1 SWAP1 SWAP2 ADD SWAP1 PUSH2 0x1B33 JUMP JUMPDEST PUSH2 0x1BE6 DUP6 DUP6 PUSH2 0x25A9 JUMP JUMPDEST PUSH2 0x1BF0 DUP6 DUP5 PUSH2 0x267D JUMP JUMPDEST PUSH2 0x1BF9 DUP6 PUSH2 0x270E JUMP JUMPDEST PUSH2 0x1C02 DUP6 PUSH2 0x2896 JUMP JUMPDEST PUSH1 0x1 SWAP1 SWAP6 ADD SWAP5 PUSH2 0x1AD3 JUMP JUMPDEST POP POP POP POP POP POP POP POP POP POP JUMP JUMPDEST PUSH1 0x0 PUSH1 0x2 PUSH1 0x0 DUP4 PUSH1 0x40 MLOAD PUSH1 0x20 ADD DUP1 DUP1 PUSH1 0x0 DUP1 MLOAD PUSH1 0x20 PUSH2 0x3B69 DUP4 CODECOPY DUP2 MLOAD SWAP2 MSTORE DUP2 MSTORE POP PUSH1 0xB ADD DUP3 DUP2 MSTORE PUSH1 0x20 ADD DUP1 PUSH32 0x636F6E7472616374547970650000000000000000000000000000000000000000 DUP2 MSTORE POP PUSH1 0xC ADD SWAP2 POP POP PUSH1 0x40 MLOAD PUSH1 0x20 DUP2 DUP4 SUB SUB DUP2 MSTORE SWAP1 PUSH1 0x40 MSTORE PUSH1 0x40 MLOAD DUP1 DUP3 DUP1 MLOAD SWAP1 PUSH1 0x20 ADD SWAP1 DUP1 DUP4 DUP4 PUSH1 0x20 DUP4 LT PUSH2 0x8BC JUMPI DUP1 MLOAD DUP3 MSTORE PUSH1 0x1F NOT SWAP1 SWAP3 ADD SWAP2 PUSH1 0x20 SWAP2 DUP3 ADD SWAP2 ADD PUSH2 0x89D JUMP JUMPDEST PUSH1 0x0 DUP1 CALLER PUSH2 0x1CB8 DUP2 PUSH2 0x11A5 JUMP JUMPDEST ISZERO ISZERO PUSH2 0x1CC3 JUMPI PUSH1 0x0 DUP1 REVERT JUMPDEST DUP9 DUP9 PUSH1 0x0 DUP3 GT PUSH2 0x1CD2 JUMPI PUSH1 0x0 DUP1 REVERT JUMPDEST PUSH1 0x0 DUP2 GT PUSH2 0x1CDF JUMPI PUSH1 0x0 DUP1 REVERT JUMPDEST PUSH2 0x1CE7 PUSH2 0x221A JUMP JUMPDEST DUP2 LT ISZERO PUSH2 0x1CF3 JUMPI PUSH1 0x0 DUP1 REVERT JUMPDEST PUSH2 0x1CFB PUSH2 0x1474 JUMP JUMPDEST DUP2 GT ISZERO PUSH2 0x1D07 JUMPI PUSH1 0x0 DUP1 REVERT JUMPDEST PUSH1 0x1 PUSH1 0xA0 PUSH1 0x2 EXP SUB DUP9 AND ISZERO ISZERO PUSH2 0x1D1C JUMPI PUSH1 0x0 DUP1 REVERT JUMPDEST PUSH2 0x1D25 DUP10 PUSH2 0x2196 JUMP JUMPDEST ISZERO ISZERO PUSH2 0x1D30 JUMPI PUSH1 0x0 DUP1 REVERT JUMPDEST PUSH2 0x1D6B DUP12 DUP12 DUP10 DUP10 DUP1 DUP1 PUSH1 0x1F ADD PUSH1 0x20 DUP1 SWAP2 DIV MUL PUSH1 0x20 ADD PUSH1 0x40 MLOAD SWAP1 DUP2 ADD PUSH1 0x40 MSTORE DUP1 SWAP4 SWAP3 SWAP2 SWAP1 DUP2 DUP2 MSTORE PUSH1 0x20 ADD DUP4 DUP4 DUP1 DUP3 DUP5 CALLDATACOPY POP PUSH2 0x297A SWAP5 POP POP POP POP POP JUMP JUMPDEST SWAP4 POP PUSH2 0x1D77 DUP5 DUP10 PUSH2 0x2A77 JUMP JUMPDEST PUSH2 0x1D81 DUP5 DUP11 PUSH2 0x2B73 JUMP JUMPDEST POP SWAP2 SWAP10 SWAP9 POP POP POP POP POP POP POP POP POP JUMP JUMPDEST PUSH1 0x0 PUSH1 0x1 PUSH1 0xA0 PUSH1 0x2 EXP SUB DUP3 AND ISZERO ISZERO PUSH2 0x1DAA JUMPI POP PUSH1 0x0 PUSH2 0xA82 JUMP JUMPDEST PUSH1 0x0 PUSH2 0x1DB6 DUP5 DUP5 PUSH2 0x996 JUMP JUMPDEST GT SWAP4 SWAP3 POP POP POP JUMP JUMPDEST PUSH1 0x60 PUSH1 0x8 PUSH1 0x0 PUSH1 0x40 MLOAD PUSH1 0x20 ADD DUP1 DUP1 PUSH1 0x0 DUP1 MLOAD PUSH1 0x20 PUSH2 0x3B49 DUP4 CODECOPY DUP2 MLOAD SWAP2 MSTORE DUP2 MSTORE POP PUSH1 0xD ADD SWAP1 POP PUSH1 0x40 MLOAD PUSH1 0x20 DUP2 DUP4 SUB SUB DUP2 MSTORE SWAP1 PUSH1 0x40 MSTORE PUSH1 0x40 MLOAD DUP1 DUP3 DUP1 MLOAD SWAP1 PUSH1 0x20 ADD SWAP1 DUP1 DUP4 DUP4 JUMPDEST PUSH1 0x20 DUP4 LT PUSH2 0x1E21 JUMPI DUP1 MLOAD DUP3 MSTORE PUSH1 0x1F NOT SWAP1 SWAP3 ADD SWAP2 PUSH1 0x20 SWAP2 DUP3 ADD SWAP2 ADD PUSH2 0x1E02 JUMP JUMPDEST MLOAD DUP2 MLOAD PUSH1 0x20 SWAP4 DUP5 SUB PUSH2 0x100 EXP PUSH1 0x0 NOT ADD DUP1 NOT SWAP1 SWAP3 AND SWAP2 AND OR SWAP1 MSTORE PUSH1 0x40 DUP1 MLOAD SWAP3 SWAP1 SWAP5 ADD DUP3 SWAP1 SUB SWAP1 SWAP2 KECCAK256 DUP7 MSTORE DUP6 DUP2 ADD SWAP7 SWAP1 SWAP7 MSTORE POP SWAP3 DUP4 ADD PUSH1 0x0 KECCAK256 DUP1 SLOAD DUP5 MLOAD DUP2 DUP8 MUL DUP2 ADD DUP8 ADD SWAP1 SWAP6 MSTORE DUP1 DUP6 MSTORE SWAP4 SWAP5 SWAP1 SWAP4 SWAP3 POP DUP5 ADD SWAP1 POP DUP3 DUP3 DUP1 ISZERO PUSH2 0x1EA1 JUMPI PUSH1 0x20 MUL DUP3 ADD SWAP2 SWAP1 PUSH1 0x0 MSTORE PUSH1 0x20 PUSH1 0x0 KECCAK256 SWAP1 JUMPDEST DUP2 SLOAD DUP2 MSTORE PUSH1 0x20 ADD SWAP1 PUSH1 0x1 ADD SWAP1 DUP1 DUP4 GT PUSH2 0x1E8D JUMPI JUMPDEST POP POP POP POP POP SWAP1 POP SWAP1 JUMP JUMPDEST PUSH1 0x0 PUSH1 0x4 PUSH1 0x0 DUP4 PUSH1 0x40 MLOAD PUSH1 0x20 ADD DUP1 DUP1 PUSH1 0x0 DUP1 MLOAD PUSH1 0x20 PUSH2 0x3B69 DUP4 CODECOPY DUP2 MLOAD SWAP2 MSTORE DUP2 MSTORE POP PUSH1 0xB ADD DUP3 DUP2 MSTORE PUSH1 0x20 ADD DUP1 PUSH32 0x63726561746F7200000000000000000000000000000000000000000000000000 DUP2 MSTORE POP PUSH1 0x7 ADD SWAP2 POP POP PUSH1 0x40 MLOAD PUSH1 0x20 DUP2 DUP4 SUB SUB DUP2 MSTORE SWAP1 PUSH1 0x40 MSTORE PUSH1 0x40 MLOAD DUP1 DUP3 DUP1 MLOAD SWAP1 PUSH1 0x20 ADD SWAP1 DUP1 DUP4 DUP4 JUMPDEST PUSH1 0x20 DUP4 LT PUSH2 0x1F3E JUMPI DUP1 MLOAD DUP3 MSTORE PUSH1 0x1F NOT SWAP1 SWAP3 ADD SWAP2 PUSH1 0x20 SWAP2 DUP3 ADD SWAP2 ADD PUSH2 0x1F1F JUMP JUMPDEST MLOAD DUP2 MLOAD PUSH1 0x20 SWAP4 DUP5 SUB PUSH2 0x100 EXP PUSH1 0x0 NOT ADD DUP1 NOT SWAP1 SWAP3 AND SWAP2 AND OR SWAP1 MSTORE PUSH1 0x40 DUP1 MLOAD SWAP3 SWAP1 SWAP5 ADD DUP3 SWAP1 SUB SWAP1 SWAP2 KECCAK256 DUP7 MSTORE DUP6 ADD SWAP6 SWAP1 SWAP6 MSTORE SWAP3 SWAP1 SWAP3 ADD PUSH1 0x0 KECCAK256 SLOAD PUSH1 0x1 PUSH1 0xA0 PUSH1 0x2 EXP SUB AND SWAP6 SWAP5 POP POP POP POP POP JUMP JUMPDEST PUSH1 0x0 PUSH1 0x4 PUSH1 0x0 DUP4 PUSH1 0x40 MLOAD PUSH1 0x20 ADD DUP1 DUP1 PUSH1 0x0 DUP1 MLOAD PUSH1 0x20 PUSH2 0x3B69 DUP4 CODECOPY DUP2 MLOAD SWAP2 MSTORE DUP2 MSTORE POP PUSH1 0xB ADD DUP3 DUP2 MSTORE PUSH1 0x20 ADD DUP1 PUSH32 0x70726F706F73656456616C756500000000000000000000000000000000000000 DUP2 MSTORE POP PUSH1 0xD ADD SWAP2 POP POP PUSH1 0x40 MLOAD PUSH1 0x20 DUP2 DUP4 SUB SUB DUP2 MSTORE SWAP1 PUSH1 0x40 MSTORE PUSH1 0x40 MLOAD DUP1 DUP3 DUP1 MLOAD SWAP1 PUSH1 0x20 ADD SWAP1 DUP1 DUP4 DUP4 PUSH1 0x20 DUP4 LT PUSH2 0x1F3E JUMPI DUP1 MLOAD DUP3 MSTORE PUSH1 0x1F NOT SWAP1 SWAP3 ADD SWAP2 PUSH1 0x20 SWAP2 DUP3 ADD SWAP2 ADD PUSH2 0x1F1F JUMP JUMPDEST PUSH1 0x0 PUSH1 0x8 PUSH1 0x0 PUSH1 0x40 MLOAD PUSH1 0x20 ADD DUP1 DUP1 PUSH1 0x0 DUP1 MLOAD PUSH1 0x20 PUSH2 0x3B49 DUP4 CODECOPY DUP2 MLOAD SWAP2 MSTORE DUP2 MSTORE POP PUSH1 0xD ADD SWAP1 POP PUSH1 0x40 MLOAD PUSH1 0x20 DUP2 DUP4 SUB SUB DUP2 MSTORE SWAP1 PUSH1 0x40 MSTORE PUSH1 0x40 MLOAD DUP1 DUP3 DUP1 MLOAD SWAP1 PUSH1 0x20 ADD SWAP1 DUP1 DUP4 DUP4 JUMPDEST PUSH1 0x20 DUP4 LT PUSH2 0x207D JUMPI DUP1 MLOAD DUP3 MSTORE PUSH1 0x1F NOT SWAP1 SWAP3 ADD SWAP2 PUSH1 0x20 SWAP2 DUP3 ADD SWAP2 ADD PUSH2 0x205E JUMP JUMPDEST MLOAD DUP2 MLOAD PUSH1 0x20 SWAP4 DUP5 SUB PUSH2 0x100 EXP PUSH1 0x0 NOT ADD DUP1 NOT SWAP1 SWAP3 AND SWAP2 AND OR SWAP1 MSTORE PUSH1 0x40 DUP1 MLOAD SWAP3 SWAP1 SWAP5 ADD DUP3 SWAP1 SUB SWAP1 SWAP2 KECCAK256 DUP7 MSTORE DUP6 ADD SWAP6 SWAP1 SWAP6 MSTORE SWAP3 SWAP1 SWAP3 ADD PUSH1 0x0 KECCAK256 DUP1 SLOAD SWAP1 SWAP4 POP DUP6 SWAP3 POP DUP3 LT SWAP1 POP PUSH2 0x20C6 JUMPI INVALID JUMPDEST SWAP1 PUSH1 0x0 MSTORE PUSH1 0x20 PUSH1 0x0 KECCAK256 ADD SLOAD SWAP1 POP SWAP2 SWAP1 POP JUMP JUMPDEST PUSH1 0x0 PUSH1 0x4 PUSH1 0x0 PUSH1 0x40 MLOAD PUSH1 0x20 ADD DUP1 DUP1 PUSH32 0x70726F787953746F726167650000000000000000000000000000000000000000 DUP2 MSTORE POP PUSH1 0xC ADD SWAP1 POP PUSH1 0x40 MLOAD PUSH1 0x20 DUP2 DUP4 SUB SUB DUP2 MSTORE SWAP1 PUSH1 0x40 MSTORE PUSH1 0x40 MLOAD DUP1 DUP3 DUP1 MLOAD SWAP1 PUSH1 0x20 ADD SWAP1 DUP1 DUP4 DUP4 JUMPDEST PUSH1 0x20 DUP4 LT PUSH2 0x214D JUMPI DUP1 MLOAD DUP3 MSTORE PUSH1 0x1F NOT SWAP1 SWAP3 ADD SWAP2 PUSH1 0x20 SWAP2 DUP3 ADD SWAP2 ADD PUSH2 0x212E JUMP JUMPDEST MLOAD DUP2 MLOAD PUSH1 0x20 SWAP4 DUP5 SUB PUSH2 0x100 EXP PUSH1 0x0 NOT ADD DUP1 NOT SWAP1 SWAP3 AND SWAP2 AND OR SWAP1 MSTORE PUSH1 0x40 DUP1 MLOAD SWAP3 SWAP1 SWAP5 ADD DUP3 SWAP1 SUB SWAP1 SWAP2 KECCAK256 DUP7 MSTORE DUP6 ADD SWAP6 SWAP1 SWAP6 MSTORE SWAP3 SWAP1 SWAP3 ADD PUSH1 0x0 KECCAK256 SLOAD PUSH1 0x1 PUSH1 0xA0 PUSH1 0x2 EXP SUB AND SWAP5 SWAP4 POP POP POP POP JUMP JUMPDEST PUSH1 0x0 PUSH2 0x21A0 PUSH2 0x20D8 JUMP JUMPDEST PUSH1 0x1 PUSH1 0xA0 PUSH1 0x2 EXP SUB AND PUSH4 0x33875FDD DUP4 PUSH1 0x40 MLOAD DUP3 PUSH4 0xFFFFFFFF AND PUSH1 0xE0 PUSH1 0x2 EXP MUL DUP2 MSTORE PUSH1 0x4 ADD DUP1 DUP3 DUP2 MSTORE PUSH1 0x20 ADD SWAP2 POP POP PUSH1 0x20 PUSH1 0x40 MLOAD DUP1 DUP4 SUB DUP2 PUSH1 0x0 DUP8 DUP1 EXTCODESIZE ISZERO DUP1 ISZERO PUSH2 0x21E8 JUMPI PUSH1 0x0 DUP1 REVERT JUMPDEST POP GAS CALL ISZERO DUP1 ISZERO PUSH2 0x21FC JUMPI RETURNDATASIZE PUSH1 0x0 DUP1 RETURNDATACOPY RETURNDATASIZE PUSH1 0x0 REVERT JUMPDEST POP POP POP POP PUSH1 0x40 MLOAD RETURNDATASIZE PUSH1 0x20 DUP2 LT ISZERO PUSH2 0x2212 JUMPI PUSH1 0x0 DUP1 REVERT JUMPDEST POP MLOAD SWAP3 SWAP2 POP POP JUMP JUMPDEST PUSH1 0x2 SWAP1 JUMP JUMPDEST PUSH1 0x0 PUSH1 0x2 PUSH1 0x0 DUP4 PUSH1 0x40 MLOAD PUSH1 0x20 ADD DUP1 DUP1 PUSH32 0x76616C696461746F7241637469766542616C6C6F747300000000000000000000 DUP2 MSTORE POP PUSH1 0x16 ADD DUP3 PUSH1 0x1 PUSH1 0xA0 PUSH1 0x2 EXP SUB AND PUSH1 0x1 PUSH1 0xA0 PUSH1 0x2 EXP SUB AND PUSH13 0x1000000000000000000000000 MUL DUP2 MSTORE PUSH1 0x14 ADD SWAP2 POP POP PUSH1 0x40 MLOAD PUSH1 0x20 DUP2 DUP4 SUB SUB DUP2 MSTORE SWAP1 PUSH1 0x40 MSTORE PUSH1 0x40 MLOAD DUP1 DUP3 DUP1 MLOAD SWAP1 PUSH1 0x20 ADD SWAP1 DUP1 DUP4 DUP4 PUSH1 0x20 DUP4 LT PUSH2 0x8BC JUMPI DUP1 MLOAD DUP3 MSTORE PUSH1 0x1F NOT SWAP1 SWAP3 ADD SWAP2 PUSH1 0x20 SWAP2 DUP3 ADD SWAP2 ADD PUSH2 0x89D JUMP JUMPDEST PUSH1 0x0 DUP1 PUSH1 0x0 PUSH2 0x22C9 PUSH2 0x2C04 JUMP JUMPDEST SWAP2 POP DUP2 ISZERO ISZERO PUSH2 0x22DB JUMPI PUSH1 0x64 SWAP3 POP PUSH2 0x22FD JUMP JUMPDEST PUSH2 0x22EC PUSH1 0x64 DUP4 PUSH4 0xFFFFFFFF PUSH2 0x2D05 AND JUMP JUMPDEST SWAP1 POP DUP1 ISZERO ISZERO PUSH2 0x22F9 JUMPI POP PUSH1 0x1 JUMPDEST DUP1 SWAP3 POP JUMPDEST POP POP SWAP1 JUMP JUMPDEST DUP1 PUSH1 0x6 PUSH1 0x0 PUSH1 0x40 MLOAD PUSH1 0x20 ADD DUP1 DUP1 PUSH32 0x6973496E697469616C697A656400000000000000000000000000000000000000 DUP2 MSTORE POP PUSH1 0xD ADD SWAP1 POP PUSH1 0x40 MLOAD PUSH1 0x20 DUP2 DUP4 SUB SUB DUP2 MSTORE SWAP1 PUSH1 0x40 MSTORE PUSH1 0x40 MLOAD DUP1 DUP3 DUP1 MLOAD SWAP1 PUSH1 0x20 ADD SWAP1 DUP1 DUP4 DUP4 JUMPDEST PUSH1 0x20 DUP4 LT PUSH2 0x2376 JUMPI DUP1 MLOAD DUP3 MSTORE PUSH1 0x1F NOT SWAP1 SWAP3 ADD SWAP2 PUSH1 0x20 SWAP2 DUP3 ADD SWAP2 ADD PUSH2 0x2357 JUMP JUMPDEST MLOAD DUP2 MLOAD PUSH1 0x20 SWAP4 DUP5 SUB PUSH2 0x100 EXP PUSH1 0x0 NOT ADD DUP1 NOT SWAP1 SWAP3 AND SWAP2 AND OR SWAP1 MSTORE PUSH1 0x40 DUP1 MLOAD SWAP3 SWAP1 SWAP5 ADD DUP3 SWAP1 SUB SWAP1 SWAP2 KECCAK256 DUP7 MSTORE DUP6 ADD SWAP6 SWAP1 SWAP6 MSTORE SWAP3 SWAP1 SWAP3 ADD PUSH1 0x0 KECCAK256 DUP1 SLOAD PUSH1 0xFF NOT AND SWAP5 ISZERO ISZERO SWAP5 SWAP1 SWAP5 OR SWAP1 SWAP4 SSTORE POP POP POP POP JUMP JUMPDEST PUSH1 0x40 DUP1 MLOAD PUSH1 0x0 DUP1 MLOAD PUSH1 0x20 PUSH2 0x3B69 DUP4 CODECOPY DUP2 MLOAD SWAP2 MSTORE PUSH1 0x20 DUP1 DUP4 ADD SWAP2 SWAP1 SWAP2 MSTORE PUSH1 0x2B DUP3 ADD DUP7 SWAP1 MSTORE PUSH32 0x766F746572730000000000000000000000000000000000000000000000000000 PUSH1 0x4B DUP4 ADD MSTORE PUSH13 0x1000000000000000000000000 PUSH1 0x1 PUSH1 0xA0 PUSH1 0x2 EXP SUB DUP7 AND MUL PUSH1 0x51 DUP4 ADD MSTORE DUP3 MLOAD PUSH1 0x45 DUP2 DUP5 SUB ADD DUP2 MSTORE PUSH1 0x65 SWAP1 SWAP3 ADD SWAP3 DUP4 SWAP1 MSTORE DUP2 MLOAD DUP5 SWAP4 PUSH1 0x2 SWAP4 PUSH1 0x0 SWAP4 SWAP1 SWAP3 DUP3 SWAP2 DUP5 ADD SWAP1 DUP1 DUP4 DUP4 JUMPDEST PUSH1 0x20 DUP4 LT PUSH2 0x2471 JUMPI DUP1 MLOAD DUP3 MSTORE PUSH1 0x1F NOT SWAP1 SWAP3 ADD SWAP2 PUSH1 0x20 SWAP2 DUP3 ADD SWAP2 ADD PUSH2 0x2452 JUMP JUMPDEST MLOAD DUP2 MLOAD PUSH1 0x20 SWAP4 DUP5 SUB PUSH2 0x100 EXP PUSH1 0x0 NOT ADD DUP1 NOT SWAP1 SWAP3 AND SWAP2 AND OR SWAP1 MSTORE PUSH1 0x40 DUP1 MLOAD SWAP3 SWAP1 SWAP5 ADD DUP3 SWAP1 SUB SWAP1 SWAP2 KECCAK256 DUP7 MSTORE DUP6 ADD SWAP6 SWAP1 SWAP6 MSTORE SWAP3 SWAP1 SWAP3 ADD PUSH1 0x0 KECCAK256 SWAP4 SWAP1 SWAP4 SSTORE POP POP POP POP POP POP JUMP JUMPDEST PUSH1 0x0 PUSH2 0x24BE PUSH2 0x20D8 JUMP JUMPDEST PUSH1 0x1 PUSH1 0xA0 PUSH1 0x2 EXP SUB AND PUSH4 0x179E740B PUSH1 0x40 MLOAD DUP2 PUSH4 0xFFFFFFFF AND PUSH1 0xE0 PUSH1 0x2 EXP MUL DUP2 MSTORE PUSH1 0x4 ADD PUSH1 0x20 PUSH1 0x40 MLOAD DUP1 DUP4 SUB DUP2 PUSH1 0x0 DUP8 DUP1 EXTCODESIZE ISZERO DUP1 ISZERO PUSH2 0x24FB JUMPI PUSH1 0x0 DUP1 REVERT JUMPDEST POP GAS CALL ISZERO DUP1 ISZERO PUSH2 0x250F JUMPI RETURNDATASIZE PUSH1 0x0 DUP1 RETURNDATACOPY RETURNDATASIZE PUSH1 0x0 REVERT JUMPDEST POP POP POP POP PUSH1 0x40 MLOAD RETURNDATASIZE PUSH1 0x20 DUP2 LT ISZERO PUSH2 0x2525 JUMPI PUSH1 0x0 DUP1 REVERT JUMPDEST POP MLOAD PUSH1 0x40 DUP1 MLOAD PUSH32 0xBF13526700000000000000000000000000000000000000000000000000000000 DUP2 MSTORE PUSH1 0x1 PUSH1 0xA0 PUSH1 0x2 EXP SUB DUP6 DUP2 AND PUSH1 0x4 DUP4 ADD MSTORE SWAP2 MLOAD SWAP2 SWAP1 SWAP3 AND SWAP2 PUSH4 0xBF135267 SWAP2 PUSH1 0x24 DUP1 DUP4 ADD SWAP3 PUSH1 0x20 SWAP3 SWAP2 SWAP1 DUP3 SWAP1 SUB ADD DUP2 PUSH1 0x0 DUP8 DUP1 EXTCODESIZE ISZERO DUP1 ISZERO PUSH2 0x21E8 JUMPI PUSH1 0x0 DUP1 REVERT JUMPDEST PUSH1 0x0 DUP3 DUP3 ADD DUP4 DUP2 LT ISZERO PUSH2 0x259E JUMPI PUSH1 0x0 DUP1 REVERT JUMPDEST DUP1 SWAP2 POP JUMPDEST POP SWAP3 SWAP2 POP POP JUMP JUMPDEST DUP1 PUSH1 0x2 PUSH1 0x0 DUP5 PUSH1 0x40 MLOAD PUSH1 0x20 ADD DUP1 DUP1 PUSH1 0x0 DUP1 MLOAD PUSH1 0x20 PUSH2 0x3B69 DUP4 CODECOPY DUP2 MLOAD SWAP2 MSTORE DUP2 MSTORE POP PUSH1 0xB ADD DUP3 DUP2 MSTORE PUSH1 0x20 ADD DUP1 PUSH32 0x6163636570746564000000000000000000000000000000000000000000000000 DUP2 MSTORE POP PUSH1 0x8 ADD SWAP2 POP POP PUSH1 0x40 MLOAD PUSH1 0x20 DUP2 DUP4 SUB SUB DUP2 MSTORE SWAP1 PUSH1 0x40 MSTORE PUSH1 0x40 MLOAD DUP1 DUP3 DUP1 MLOAD SWAP1 PUSH1 0x20 ADD SWAP1 DUP1 DUP4 DUP4 JUMPDEST PUSH1 0x20 DUP4 LT PUSH2 0x263B JUMPI DUP1 MLOAD DUP3 MSTORE PUSH1 0x1F NOT SWAP1 SWAP3 ADD SWAP2 PUSH1 0x20 SWAP2 DUP3 ADD SWAP2 ADD PUSH2 0x261C JUMP JUMPDEST MLOAD DUP2 MLOAD PUSH1 0x20 SWAP4 DUP5 SUB PUSH2 0x100 EXP PUSH1 0x0 NOT ADD DUP1 NOT SWAP1 SWAP3 AND SWAP2 AND OR SWAP1 MSTORE PUSH1 0x40 DUP1 MLOAD SWAP3 SWAP1 SWAP5 ADD DUP3 SWAP1 SUB SWAP1 SWAP2 KECCAK256 DUP7 MSTORE DUP6 ADD SWAP6 SWAP1 SWAP6 MSTORE SWAP3 SWAP1 SWAP3 ADD PUSH1 0x0 KECCAK256 SWAP4 SWAP1 SWAP4 SSTORE POP POP POP POP POP JUMP JUMPDEST DUP1 PUSH1 0x2 PUSH1 0x0 DUP5 PUSH1 0x40 MLOAD PUSH1 0x20 ADD DUP1 DUP1 PUSH1 0x0 DUP1 MLOAD PUSH1 0x20 PUSH2 0x3B69 DUP4 CODECOPY DUP2 MLOAD SWAP2 MSTORE DUP2 MSTORE POP PUSH1 0xB ADD DUP3 DUP2 MSTORE PUSH1 0x20 ADD DUP1 PUSH32 0x72656A6563746564000000000000000000000000000000000000000000000000 DUP2 MSTORE POP PUSH1 0x8 ADD SWAP2 POP POP PUSH1 0x40 MLOAD PUSH1 0x20 DUP2 DUP4 SUB SUB DUP2 MSTORE SWAP1 PUSH1 0x40 MSTORE PUSH1 0x40 MLOAD DUP1 DUP3 DUP1 MLOAD SWAP1 PUSH1 0x20 ADD SWAP1 DUP1 DUP4 DUP4 PUSH1 0x20 DUP4 LT PUSH2 0x263B JUMPI DUP1 MLOAD DUP3 MSTORE PUSH1 0x1F NOT SWAP1 SWAP3 ADD SWAP2 PUSH1 0x20 SWAP2 DUP3 ADD SWAP2 ADD PUSH2 0x261C JUMP JUMPDEST PUSH2 0x2716 PUSH2 0x20D8 JUMP JUMPDEST PUSH1 0x1 PUSH1 0xA0 PUSH1 0x2 EXP SUB AND PUSH4 0x179E740B PUSH1 0x40 MLOAD DUP2 PUSH4 0xFFFFFFFF AND PUSH1 0xE0 PUSH1 0x2 EXP MUL DUP2 MSTORE PUSH1 0x4 ADD PUSH1 0x20 PUSH1 0x40 MLOAD DUP1 DUP4 SUB DUP2 PUSH1 0x0 DUP8 DUP1 EXTCODESIZE ISZERO DUP1 ISZERO PUSH2 0x2753 JUMPI PUSH1 0x0 DUP1 REVERT JUMPDEST POP GAS CALL ISZERO DUP1 ISZERO PUSH2 0x2767 JUMPI RETURNDATASIZE PUSH1 0x0 DUP1 RETURNDATACOPY RETURNDATASIZE PUSH1 0x0 REVERT JUMPDEST POP POP POP POP PUSH1 0x40 MLOAD RETURNDATASIZE PUSH1 0x20 DUP2 LT ISZERO PUSH2 0x277D JUMPI PUSH1 0x0 DUP1 REVERT JUMPDEST POP MLOAD PUSH1 0x40 DUP1 MLOAD PUSH32 0x94409A5600000000000000000000000000000000000000000000000000000000 DUP2 MSTORE SWAP1 MLOAD PUSH1 0x1 PUSH1 0xA0 PUSH1 0x2 EXP SUB SWAP1 SWAP3 AND SWAP2 PUSH4 0x94409A56 SWAP2 PUSH1 0x4 DUP1 DUP3 ADD SWAP3 PUSH1 0x20 SWAP3 SWAP1 SWAP2 SWAP1 DUP3 SWAP1 SUB ADD DUP2 PUSH1 0x0 DUP8 DUP1 EXTCODESIZE ISZERO DUP1 ISZERO PUSH2 0x27DC JUMPI PUSH1 0x0 DUP1 REVERT JUMPDEST POP GAS CALL ISZERO DUP1 ISZERO PUSH2 0x27F0 JUMPI RETURNDATASIZE PUSH1 0x0 DUP1 RETURNDATACOPY RETURNDATASIZE PUSH1 0x0 REVERT JUMPDEST POP POP POP POP PUSH1 0x40 MLOAD RETURNDATASIZE PUSH1 0x20 DUP2 LT ISZERO PUSH2 0x2806 JUMPI PUSH1 0x0 DUP1 REVERT JUMPDEST POP MLOAD PUSH1 0x40 DUP1 MLOAD PUSH1 0x0 DUP1 MLOAD PUSH1 0x20 PUSH2 0x3B69 DUP4 CODECOPY DUP2 MLOAD SWAP2 MSTORE PUSH1 0x20 DUP3 DUP2 ADD SWAP2 SWAP1 SWAP2 MSTORE PUSH1 0x2B DUP3 ADD DUP6 SWAP1 MSTORE PUSH32 0x746F74616C5374616B6500000000000000000000000000000000000000000000 PUSH1 0x4B DUP4 ADD MSTORE DUP3 MLOAD PUSH1 0x35 DUP2 DUP5 SUB ADD DUP2 MSTORE PUSH1 0x55 SWAP1 SWAP3 ADD SWAP3 DUP4 SWAP1 MSTORE DUP2 MLOAD PUSH1 0x2 SWAP4 PUSH1 0x0 SWAP4 SWAP3 SWAP1 SWAP2 DUP3 SWAP2 DUP5 ADD SWAP1 DUP1 DUP4 DUP4 PUSH1 0x20 DUP4 LT PUSH2 0x16C7 JUMPI DUP1 MLOAD DUP3 MSTORE PUSH1 0x1F NOT SWAP1 SWAP3 ADD SWAP2 PUSH1 0x20 SWAP2 DUP3 ADD SWAP2 ADD PUSH2 0x16A8 JUMP JUMPDEST PUSH2 0x289F DUP2 PUSH2 0xC16 JUMP JUMPDEST ISZERO ISZERO PUSH2 0x28B7 JUMPI PUSH2 0x28AE DUP2 PUSH2 0x2D28 JUMP JUMPDEST PUSH2 0x28B7 DUP2 PUSH2 0x2D5C JUMP JUMPDEST PUSH2 0x28C0 DUP2 PUSH2 0x2DD8 JUMP JUMPDEST ISZERO PUSH2 0x2921 JUMPI PUSH2 0x28CE DUP2 PUSH2 0x10B1 JUMP JUMPDEST PUSH2 0x28D7 DUP3 PUSH2 0xA88 JUMP JUMPDEST GT ISZERO PUSH2 0x2906 JUMPI PUSH2 0x28E6 DUP2 PUSH2 0x2E09 JUMP JUMPDEST ISZERO PUSH2 0x28FC JUMPI PUSH2 0x28F7 DUP2 PUSH1 0x2 JUMPDEST PUSH2 0x2E85 JUMP JUMPDEST PUSH2 0x2901 JUMP JUMPDEST PUSH2 0x2977 JUMP JUMPDEST PUSH2 0x2911 JUMP JUMPDEST PUSH2 0x2911 DUP2 PUSH1 0x3 PUSH2 0x28F2 JUMP JUMPDEST PUSH2 0x291C DUP2 PUSH1 0x0 PUSH2 0x2F16 JUMP JUMPDEST PUSH2 0x2937 JUMP JUMPDEST PUSH2 0x292C DUP2 PUSH1 0x1 PUSH2 0x2F16 JUMP JUMPDEST PUSH2 0x2937 DUP2 PUSH1 0x3 PUSH2 0x28F2 JUMP JUMPDEST PUSH2 0x2940 DUP2 PUSH2 0x2FF6 JUMP JUMPDEST PUSH2 0x294B DUP2 PUSH1 0x1 PUSH2 0x304B JUMP JUMPDEST PUSH1 0x40 MLOAD DUP2 SWAP1 PUSH32 0xD470BB0D3DCB39FF5A62757E0A1CDFE60F8200EBA22FD0D82383630D457F8686 SWAP1 PUSH1 0x0 SWAP1 LOG2 JUMPDEST POP JUMP JUMPDEST PUSH1 0x0 DUP1 PUSH1 0x0 PUSH2 0x2987 PUSH2 0xCA4 JUMP JUMPDEST ISZERO ISZERO PUSH2 0x2992 JUMPI PUSH1 0x0 DUP1 REVERT JUMPDEST CALLER SWAP2 POP PUSH2 0x299E DUP3 PUSH2 0x30DC JUMP JUMPDEST ISZERO ISZERO PUSH2 0x29A9 JUMPI PUSH1 0x0 DUP1 REVERT JUMPDEST PUSH2 0x29B1 PUSH2 0xD5D JUMP JUMPDEST SWAP1 POP PUSH2 0x29CC PUSH2 0x29C7 DUP3 PUSH1 0x1 PUSH4 0xFFFFFFFF PUSH2 0x258C AND JUMP JUMPDEST PUSH2 0x1653 JUMP JUMPDEST PUSH2 0x29D6 DUP2 DUP8 PUSH2 0x30F6 JUMP JUMPDEST PUSH2 0x29E0 DUP2 DUP7 PUSH2 0x337F JUMP JUMPDEST PUSH2 0x29EB DUP2 PUSH1 0x0 PUSH2 0x304B JUMP JUMPDEST PUSH2 0x29F6 DUP2 PUSH1 0x1 PUSH2 0x28F2 JUMP JUMPDEST PUSH2 0x2A00 DUP2 DUP4 PUSH2 0x3577 JUMP JUMPDEST PUSH2 0x2A0A DUP2 DUP6 PUSH2 0x3608 JUMP JUMPDEST PUSH2 0x2A1B DUP2 PUSH2 0x2A16 PUSH2 0x1143 JUMP JUMPDEST PUSH2 0x36E8 JUMP JUMPDEST PUSH2 0x2A26 DUP2 PUSH1 0x0 PUSH2 0x2F16 JUMP JUMPDEST PUSH2 0x2A2F DUP2 PUSH2 0x3779 JUMP JUMPDEST PUSH2 0x2A38 DUP3 PUSH2 0x382E JUMP JUMPDEST PUSH1 0x40 MLOAD PUSH1 0x1 PUSH1 0xA0 PUSH1 0x2 EXP SUB DUP4 AND SWAP1 DUP3 SWAP1 PUSH32 0xE64B3864F6F22F8969F8CB16C039EAF6454EF5E23C09791DF010163000A70235 SWAP1 PUSH1 0x0 SWAP1 LOG3 SWAP6 SWAP5 POP POP POP POP POP JUMP JUMPDEST DUP1 PUSH1 0x4 PUSH1 0x0 DUP5 PUSH1 0x40 MLOAD PUSH1 0x20 ADD DUP1 DUP1 PUSH1 0x0 DUP1 MLOAD PUSH1 0x20 PUSH2 0x3B69 DUP4 CODECOPY DUP2 MLOAD SWAP2 MSTORE DUP2 MSTORE POP PUSH1 0xB ADD DUP3 DUP2 MSTORE PUSH1 0x20 ADD DUP1 PUSH32 0x70726F706F73656456616C756500000000000000000000000000000000000000 DUP2 MSTORE POP PUSH1 0xD ADD SWAP2 POP POP PUSH1 0x40 MLOAD PUSH1 0x20 DUP2 DUP4 SUB SUB DUP2 MSTORE SWAP1 PUSH1 0x40 MSTORE PUSH1 0x40 MLOAD DUP1 DUP3 DUP1 MLOAD SWAP1 PUSH1 0x20 ADD SWAP1 DUP1 DUP4 DUP4 JUMPDEST PUSH1 0x20 DUP4 LT PUSH2 0x2B09 JUMPI DUP1 MLOAD DUP3 MSTORE PUSH1 0x1F NOT SWAP1 SWAP3 ADD SWAP2 PUSH1 0x20 SWAP2 DUP3 ADD SWAP2 ADD PUSH2 0x2AEA JUMP JUMPDEST MLOAD DUP2 MLOAD PUSH1 0x20 SWAP4 DUP5 SUB PUSH2 0x100 EXP PUSH1 0x0 NOT ADD DUP1 NOT SWAP1 SWAP3 AND SWAP2 AND OR SWAP1 MSTORE PUSH1 0x40 DUP1 MLOAD SWAP3 SWAP1 SWAP5 ADD DUP3 SWAP1 SUB SWAP1 SWAP2 KECCAK256 DUP7 MSTORE DUP6 ADD SWAP6 SWAP1 SWAP6 MSTORE SWAP3 SWAP1 SWAP3 ADD PUSH1 0x0 KECCAK256 DUP1 SLOAD PUSH20 0xFFFFFFFFFFFFFFFFFFFFFFFFFFFFFFFFFFFFFFFF NOT AND PUSH1 0x1 PUSH1 0xA0 PUSH1 0x2 EXP SUB SWAP6 SWAP1 SWAP6 AND SWAP5 SWAP1 SWAP5 OR SWAP1 SWAP4 SSTORE POP POP POP POP POP JUMP JUMPDEST DUP1 PUSH1 0x2 PUSH1 0x0 DUP5 PUSH1 0x40 MLOAD PUSH1 0x20 ADD DUP1 DUP1 PUSH1 0x0 DUP1 MLOAD PUSH1 0x20 PUSH2 0x3B69 DUP4 CODECOPY DUP2 MLOAD SWAP2 MSTORE DUP2 MSTORE POP PUSH1 0xB ADD DUP3 DUP2 MSTORE PUSH1 0x20 ADD DUP1 PUSH32 0x636F6E7472616374547970650000000000000000000000000000000000000000 DUP2 MSTORE POP PUSH1 0xC ADD SWAP2 POP POP PUSH1 0x40 MLOAD PUSH1 0x20 DUP2 DUP4 SUB SUB DUP2 MSTORE SWAP1 PUSH1 0x40 MSTORE PUSH1 0x40 MLOAD DUP1 DUP3 DUP1 MLOAD SWAP1 PUSH1 0x20 ADD SWAP1 DUP1 DUP4 DUP4 PUSH1 0x20 DUP4 LT PUSH2 0x263B JUMPI DUP1 MLOAD DUP3 MSTORE PUSH1 0x1F NOT SWAP1 SWAP3 ADD SWAP2 PUSH1 0x20 SWAP2 DUP3 ADD SWAP2 ADD PUSH2 0x261C JUMP JUMPDEST PUSH1 0x0 PUSH2 0x2C0E PUSH2 0x20D8 JUMP JUMPDEST PUSH1 0x1 PUSH1 0xA0 PUSH1 0x2 EXP SUB AND PUSH4 0x179E740B PUSH1 0x40 MLOAD DUP2 PUSH4 0xFFFFFFFF AND PUSH1 0xE0 PUSH1 0x2 EXP MUL DUP2 MSTORE PUSH1 0x4 ADD PUSH1 0x20 PUSH1 0x40 MLOAD DUP1 DUP4 SUB DUP2 PUSH1 0x0 DUP8 DUP1 EXTCODESIZE ISZERO DUP1 ISZERO PUSH2 0x2C4B JUMPI PUSH1 0x0 DUP1 REVERT JUMPDEST POP GAS CALL ISZERO DUP1 ISZERO PUSH2 0x2C5F JUMPI RETURNDATASIZE PUSH1 0x0 DUP1 RETURNDATACOPY RETURNDATASIZE PUSH1 0x0 REVERT JUMPDEST POP POP POP POP PUSH1 0x40 MLOAD RETURNDATASIZE PUSH1 0x20 DUP2 LT ISZERO PUSH2 0x2C75 JUMPI PUSH1 0x0 DUP1 REVERT JUMPDEST POP MLOAD PUSH1 0x40 DUP1 MLOAD PUSH32 0x40C9CDEB00000000000000000000000000000000000000000000000000000000 DUP2 MSTORE SWAP1 MLOAD PUSH1 0x1 PUSH1 0xA0 PUSH1 0x2 EXP SUB SWAP1 SWAP3 AND SWAP2 PUSH4 0x40C9CDEB SWAP2 PUSH1 0x4 DUP1 DUP3 ADD SWAP3 PUSH1 0x20 SWAP3 SWAP1 SWAP2 SWAP1 DUP3 SWAP1 SUB ADD DUP2 PUSH1 0x0 DUP8 DUP1 EXTCODESIZE ISZERO DUP1 ISZERO PUSH2 0x2CD4 JUMPI PUSH1 0x0 DUP1 REVERT JUMPDEST POP GAS CALL ISZERO DUP1 ISZERO PUSH2 0x2CE8 JUMPI RETURNDATASIZE PUSH1 0x0 DUP1 RETURNDATACOPY RETURNDATASIZE PUSH1 0x0 REVERT JUMPDEST POP POP POP POP PUSH1 0x40 MLOAD RETURNDATASIZE PUSH1 0x20 DUP2 LT ISZERO PUSH2 0x2CFE JUMPI PUSH1 0x0 DUP1 REVERT JUMPDEST POP MLOAD SWAP1 POP SWAP1 JUMP JUMPDEST PUSH1 0x0 DUP1 DUP1 DUP4 GT PUSH2 0x2D14 JUMPI PUSH1 0x0 DUP1 REVERT JUMPDEST DUP3 DUP5 DUP2 ISZERO ISZERO PUSH2 0x2D1F JUMPI INVALID JUMPDEST DIV SWAP5 SWAP4 POP POP POP POP JUMP JUMPDEST PUSH1 0x0 DUP1 PUSH2 0x2D34 DUP4 PUSH2 0x1EAB JUMP JUMPDEST SWAP2 POP PUSH2 0x2D3F DUP3 PUSH2 0x221F JUMP JUMPDEST SWAP1 POP PUSH1 0x0 DUP2 GT ISZERO PUSH2 0x2D57 JUMPI PUSH2 0x2D57 DUP3 PUSH1 0x1 DUP4 SUB PUSH2 0x384C JUMP JUMPDEST POP POP POP JUMP JUMPDEST PUSH1 0x1 PUSH1 0x6 PUSH1 0x0 DUP4 PUSH1 0x40 MLOAD PUSH1 0x20 ADD DUP1 DUP1 PUSH32 0x66696E616C697A6543616C6C6564000000000000000000000000000000000000 DUP2 MSTORE POP PUSH1 0xE ADD DUP3 DUP2 MSTORE PUSH1 0x20 ADD SWAP2 POP POP PUSH1 0x40 MLOAD PUSH1 0x20 DUP2 DUP4 SUB SUB DUP2 MSTORE SWAP1 PUSH1 0x40 MSTORE PUSH1 0x40 MLOAD DUP1 DUP3 DUP1 MLOAD SWAP1 PUSH1 0x20 ADD SWAP1 DUP1 DUP4 DUP4 PUSH1 0x20 DUP4 LT PUSH2 0x2376 JUMPI DUP1 MLOAD DUP3 MSTORE PUSH1 0x1F NOT SWAP1 SWAP3 ADD SWAP2 PUSH1 0x20 SWAP2 DUP3 ADD SWAP2 ADD PUSH2 0x2357 JUMP JUMPDEST PUSH1 0x0 DUP1 PUSH1 0x0 DUP1 PUSH2 0x2DE7 DUP6 PUSH2 0xE12 JUMP JUMPDEST SWAP3 POP PUSH2 0x2710 PUSH2 0x7D0 DUP5 MUL DIV SWAP2 POP PUSH2 0x2DFD DUP6 PUSH2 0xA88 JUMP JUMPDEST SWAP2 SWAP1 SWAP2 GT SWAP5 SWAP4 POP POP POP POP JUMP JUMPDEST PUSH1 0x0 PUSH2 0x2E13 PUSH2 0x20D8 JUMP JUMPDEST PUSH1 0x1 PUSH1 0xA0 PUSH1 0x2 EXP SUB AND PUSH4 0xBB0165B1 PUSH2 0x2E2A DUP5 PUSH2 0x1C19 JUMP JUMPDEST PUSH2 0x2E33 DUP6 PUSH2 0x1F88 JUMP JUMPDEST PUSH1 0x40 MLOAD DUP4 PUSH4 0xFFFFFFFF AND PUSH1 0xE0 PUSH1 0x2 EXP MUL DUP2 MSTORE PUSH1 0x4 ADD DUP1 DUP4 DUP2 MSTORE PUSH1 0x20 ADD DUP3 PUSH1 0x1 PUSH1 0xA0 PUSH1 0x2 EXP SUB AND PUSH1 0x1 PUSH1 0xA0 PUSH1 0x2 EXP SUB AND DUP2 MSTORE PUSH1 0x20 ADD SWAP3 POP POP POP PUSH1 0x20 PUSH1 0x40 MLOAD DUP1 DUP4 SUB DUP2 PUSH1 0x0 DUP8 DUP1 EXTCODESIZE ISZERO DUP1 ISZERO PUSH2 0x21E8 JUMPI PUSH1 0x0 DUP1 REVERT JUMPDEST DUP1 PUSH1 0x2 PUSH1 0x0 DUP5 PUSH1 0x40 MLOAD PUSH1 0x20 ADD DUP1 DUP1 PUSH1 0x0 DUP1 MLOAD PUSH1 0x20 PUSH2 0x3B69 DUP4 CODECOPY DUP2 MLOAD SWAP2 MSTORE DUP2 MSTORE POP PUSH1 0xB ADD DUP3 DUP2 MSTORE PUSH1 0x20 ADD DUP1 PUSH32 0x71756F72756D5374617465000000000000000000000000000000000000000000 DUP2 MSTORE POP PUSH1 0xB ADD SWAP2 POP POP PUSH1 0x40 MLOAD PUSH1 0x20 DUP2 DUP4 SUB SUB DUP2 MSTORE SWAP1 PUSH1 0x40 MSTORE PUSH1 0x40 MLOAD DUP1 DUP3 DUP1 MLOAD SWAP1 PUSH1 0x20 ADD SWAP1 DUP1 DUP4 DUP4 PUSH1 0x20 DUP4 LT PUSH2 0x263B JUMPI DUP1 MLOAD DUP3 MSTORE PUSH1 0x1F NOT SWAP1 SWAP3 ADD SWAP2 PUSH1 0x20 SWAP2 DUP3 ADD SWAP2 ADD PUSH2 0x261C JUMP JUMPDEST DUP1 PUSH1 0x6 PUSH1 0x0 DUP5 PUSH1 0x40 MLOAD PUSH1 0x20 ADD DUP1 DUP1 PUSH1 0x0 DUP1 MLOAD PUSH1 0x20 PUSH2 0x3B69 DUP4 CODECOPY DUP2 MLOAD SWAP2 MSTORE DUP2 MSTORE POP PUSH1 0xB ADD DUP3 DUP2 MSTORE PUSH1 0x20 ADD DUP1 PUSH32 0x62656C6F775475726E4F75740000000000000000000000000000000000000000 DUP2 MSTORE POP PUSH1 0xC ADD SWAP2 POP POP PUSH1 0x40 MLOAD PUSH1 0x20 DUP2 DUP4 SUB SUB DUP2 MSTORE SWAP1 PUSH1 0x40 MSTORE PUSH1 0x40 MLOAD DUP1 DUP3 DUP1 MLOAD SWAP1 PUSH1 0x20 ADD SWAP1 DUP1 DUP4 DUP4 JUMPDEST PUSH1 0x20 DUP4 LT PUSH2 0x2FA8 JUMPI DUP1 MLOAD DUP3 MSTORE PUSH1 0x1F NOT SWAP1 SWAP3 ADD SWAP2 PUSH1 0x20 SWAP2 DUP3 ADD SWAP2 ADD PUSH2 0x2F89 JUMP JUMPDEST MLOAD DUP2 MLOAD PUSH1 0x20 SWAP4 DUP5 SUB PUSH2 0x100 EXP PUSH1 0x0 NOT ADD DUP1 NOT SWAP1 SWAP3 AND SWAP2 AND OR SWAP1 MSTORE PUSH1 0x40 DUP1 MLOAD SWAP3 SWAP1 SWAP5 ADD DUP3 SWAP1 SUB SWAP1 SWAP2 KECCAK256 DUP7 MSTORE DUP6 ADD SWAP6 SWAP1 SWAP6 MSTORE SWAP3 SWAP1 SWAP3 ADD PUSH1 0x0 KECCAK256 DUP1 SLOAD PUSH1 0xFF NOT AND SWAP5 ISZERO ISZERO SWAP5 SWAP1 SWAP5 OR SWAP1 SWAP4 SSTORE POP POP POP POP POP JUMP JUMPDEST PUSH1 0x0 DUP1 PUSH1 0x0 PUSH2 0x3004 DUP5 PUSH2 0x15C1 JUMP JUMPDEST SWAP3 POP PUSH1 0x1 PUSH2 0x3010 PUSH2 0x1143 JUMP JUMPDEST SUB SWAP2 POP PUSH2 0x301C DUP3 PUSH2 0x201A JUMP JUMPDEST SWAP1 POP PUSH2 0x3028 DUP4 DUP3 PUSH2 0x38E8 JUMP JUMPDEST PUSH2 0x3032 DUP2 DUP5 PUSH2 0x36E8 JUMP JUMPDEST PUSH2 0x303D DUP3 PUSH1 0x0 PUSH2 0x38E8 JUMP JUMPDEST PUSH2 0x3045 PUSH2 0x39A3 JUMP JUMPDEST POP POP POP POP JUMP JUMPDEST DUP1 PUSH1 0x6 PUSH1 0x0 DUP5 PUSH1 0x40 MLOAD PUSH1 0x20 ADD DUP1 DUP1 PUSH1 0x0 DUP1 MLOAD PUSH1 0x20 PUSH2 0x3B69 DUP4 CODECOPY DUP2 MLOAD SWAP2 MSTORE DUP2 MSTORE POP PUSH1 0xB ADD DUP3 DUP2 MSTORE PUSH1 0x20 ADD DUP1 PUSH32 0x697346696E616C697A6564000000000000000000000000000000000000000000 DUP2 MSTORE POP PUSH1 0xB ADD SWAP2 POP POP PUSH1 0x40 MLOAD PUSH1 0x20 DUP2 DUP4 SUB SUB DUP2 MSTORE SWAP1 PUSH1 0x40 MSTORE PUSH1 0x40 MLOAD DUP1 DUP3 DUP1 MLOAD SWAP1 PUSH1 0x20 ADD SWAP1 DUP1 DUP4 DUP4 PUSH1 0x20 DUP4 LT PUSH2 0x2FA8 JUMPI DUP1 MLOAD DUP3 MSTORE PUSH1 0x1F NOT SWAP1 SWAP3 ADD SWAP2 PUSH1 0x20 SWAP2 DUP3 ADD SWAP2 ADD PUSH2 0x2F89 JUMP JUMPDEST PUSH1 0x0 PUSH2 0x30E6 PUSH2 0x22BC JUMP JUMPDEST PUSH2 0x30EF DUP4 PUSH2 0x221F JUMP JUMPDEST LT SWAP3 SWAP2 POP POP JUMP JUMPDEST PUSH1 0x0 DUP1 PUSH1 0x0 DUP1 PUSH2 0x3104 PUSH2 0x20D8 JUMP JUMPDEST PUSH1 0x1 PUSH1 0xA0 PUSH1 0x2 EXP SUB AND PUSH4 0x179E740B PUSH1 0x40 MLOAD DUP2 PUSH4 0xFFFFFFFF AND PUSH1 0xE0 PUSH1 0x2 EXP MUL DUP2 MSTORE PUSH1 0x4 ADD PUSH1 0x20 PUSH1 0x40 MLOAD DUP1 DUP4 SUB DUP2 PUSH1 0x0 DUP8 DUP1 EXTCODESIZE ISZERO DUP1 ISZERO PUSH2 0x3141 JUMPI PUSH1 0x0 DUP1 REVERT JUMPDEST POP GAS CALL ISZERO DUP1 ISZERO PUSH2 0x3155 JUMPI RETURNDATASIZE PUSH1 0x0 DUP1 RETURNDATACOPY RETURNDATASIZE PUSH1 0x0 REVERT JUMPDEST POP POP POP POP PUSH1 0x40 MLOAD RETURNDATASIZE PUSH1 0x20 DUP2 LT ISZERO PUSH2 0x316B JUMPI PUSH1 0x0 DUP1 REVERT JUMPDEST POP MLOAD PUSH1 0x40 DUP1 MLOAD PUSH32 0xA652492300000000000000000000000000000000000000000000000000000000 DUP2 MSTORE SWAP1 MLOAD SWAP2 SWAP6 POP PUSH1 0x1 PUSH1 0xA0 PUSH1 0x2 EXP SUB DUP7 AND SWAP2 PUSH4 0xA6524923 SWAP2 PUSH1 0x4 DUP1 DUP3 ADD SWAP3 PUSH1 0x20 SWAP3 SWAP1 SWAP2 SWAP1 DUP3 SWAP1 SUB ADD DUP2 PUSH1 0x0 DUP8 DUP1 EXTCODESIZE ISZERO DUP1 ISZERO PUSH2 0x31CC JUMPI PUSH1 0x0 DUP1 REVERT JUMPDEST POP GAS CALL ISZERO DUP1 ISZERO PUSH2 0x31E0 JUMPI RETURNDATASIZE PUSH1 0x0 DUP1 RETURNDATACOPY RETURNDATASIZE PUSH1 0x0 REVERT JUMPDEST POP POP POP POP PUSH1 0x40 MLOAD RETURNDATASIZE PUSH1 0x20 DUP2 LT ISZERO PUSH2 0x31F6 JUMPI PUSH1 0x0 DUP1 REVERT JUMPDEST POP MLOAD PUSH1 0x40 DUP1 MLOAD PUSH32 0xAF29518100000000000000000000000000000000000000000000000000000000 DUP2 MSTORE SWAP1 MLOAD SWAP2 SWAP5 POP PUSH1 0x1 PUSH1 0xA0 PUSH1 0x2 EXP SUB DUP7 AND SWAP2 PUSH4 0xAF295181 SWAP2 PUSH1 0x4 DUP1 DUP3 ADD SWAP3 PUSH1 0x20 SWAP3 SWAP1 SWAP2 SWAP1 DUP3 SWAP1 SUB ADD DUP2 PUSH1 0x0 DUP8 DUP1 EXTCODESIZE ISZERO DUP1 ISZERO PUSH2 0x3257 JUMPI PUSH1 0x0 DUP1 REVERT JUMPDEST POP GAS CALL ISZERO DUP1 ISZERO PUSH2 0x326B JUMPI RETURNDATASIZE PUSH1 0x0 DUP1 RETURNDATACOPY RETURNDATASIZE PUSH1 0x0 REVERT JUMPDEST POP POP POP POP PUSH1 0x40 MLOAD RETURNDATASIZE PUSH1 0x20 DUP2 LT ISZERO PUSH2 0x3281 JUMPI PUSH1 0x0 DUP1 REVERT JUMPDEST POP MLOAD SWAP2 POP PUSH2 0x32A5 PUSH2 0x3298 DUP7 DUP6 PUSH4 0xFFFFFFFF PUSH2 0x3A62 AND JUMP JUMPDEST DUP4 SWAP1 PUSH4 0xFFFFFFFF PUSH2 0x258C AND JUMP JUMPDEST SWAP1 POP DUP1 PUSH1 0x2 PUSH1 0x0 DUP9 PUSH1 0x40 MLOAD PUSH1 0x20 ADD DUP1 DUP1 PUSH1 0x0 DUP1 MLOAD PUSH1 0x20 PUSH2 0x3B69 DUP4 CODECOPY DUP2 MLOAD SWAP2 MSTORE DUP2 MSTORE POP PUSH1 0xB ADD DUP3 DUP2 MSTORE PUSH1 0x20 ADD DUP1 PUSH32 0x7374617274426C6F636B00000000000000000000000000000000000000000000 DUP2 MSTORE POP PUSH1 0xA ADD SWAP2 POP POP PUSH1 0x40 MLOAD PUSH1 0x20 DUP2 DUP4 SUB SUB DUP2 MSTORE SWAP1 PUSH1 0x40 MSTORE PUSH1 0x40 MLOAD DUP1 DUP3 DUP1 MLOAD SWAP1 PUSH1 0x20 ADD SWAP1 DUP1 DUP4 DUP4 JUMPDEST PUSH1 0x20 DUP4 LT PUSH2 0x3339 JUMPI DUP1 MLOAD DUP3 MSTORE PUSH1 0x1F NOT SWAP1 SWAP3 ADD SWAP2 PUSH1 0x20 SWAP2 DUP3 ADD SWAP2 ADD PUSH2 0x331A JUMP JUMPDEST MLOAD DUP2 MLOAD PUSH1 0x20 SWAP4 DUP5 SUB PUSH2 0x100 EXP PUSH1 0x0 NOT ADD DUP1 NOT SWAP1 SWAP3 AND SWAP2 AND OR SWAP1 MSTORE PUSH1 0x40 DUP1 MLOAD SWAP3 SWAP1 SWAP5 ADD DUP3 SWAP1 SUB SWAP1 SWAP2 KECCAK256 DUP7 MSTORE DUP6 ADD SWAP6 SWAP1 SWAP6 MSTORE SWAP3 SWAP1 SWAP3 ADD PUSH1 0x0 KECCAK256 SWAP4 SWAP1 SWAP4 SSTORE POP POP POP POP POP POP POP POP POP JUMP JUMPDEST PUSH1 0x0 DUP1 PUSH1 0x0 PUSH2 0x338C PUSH2 0x20D8 JUMP JUMPDEST PUSH1 0x1 PUSH1 0xA0 PUSH1 0x2 EXP SUB AND PUSH4 0x179E740B PUSH1 0x40 MLOAD DUP2 PUSH4 0xFFFFFFFF AND PUSH1 0xE0 PUSH1 0x2 EXP MUL DUP2 MSTORE PUSH1 0x4 ADD PUSH1 0x20 PUSH1 0x40 MLOAD DUP1 DUP4 SUB DUP2 PUSH1 0x0 DUP8 DUP1 EXTCODESIZE ISZERO DUP1 ISZERO PUSH2 0x33C9 JUMPI PUSH1 0x0 DUP1 REVERT JUMPDEST POP GAS CALL ISZERO DUP1 ISZERO PUSH2 0x33DD JUMPI RETURNDATASIZE PUSH1 0x0 DUP1 RETURNDATACOPY RETURNDATASIZE PUSH1 0x0 REVERT JUMPDEST POP POP POP POP PUSH1 0x40 MLOAD RETURNDATASIZE PUSH1 0x20 DUP2 LT ISZERO PUSH2 0x33F3 JUMPI PUSH1 0x0 DUP1 REVERT JUMPDEST POP MLOAD PUSH1 0x40 DUP1 MLOAD PUSH32 0xA652492300000000000000000000000000000000000000000000000000000000 DUP2 MSTORE SWAP1 MLOAD PUSH1 0x1 PUSH1 0xA0 PUSH1 0x2 EXP SUB SWAP1 SWAP3 AND SWAP2 PUSH4 0xA6524923 SWAP2 PUSH1 0x4 DUP1 DUP3 ADD SWAP3 PUSH1 0x20 SWAP3 SWAP1 SWAP2 SWAP1 DUP3 SWAP1 SUB ADD DUP2 PUSH1 0x0 DUP8 DUP1 EXTCODESIZE ISZERO DUP1 ISZERO PUSH2 0x3452 JUMPI PUSH1 0x0 DUP1 REVERT JUMPDEST POP GAS CALL ISZERO DUP1 ISZERO PUSH2 0x3466 JUMPI RETURNDATASIZE PUSH1 0x0 DUP1 RETURNDATACOPY RETURNDATASIZE PUSH1 0x0 REVERT JUMPDEST POP POP POP POP PUSH1 0x40 MLOAD RETURNDATASIZE PUSH1 0x20 DUP2 LT ISZERO PUSH2 0x347C JUMPI PUSH1 0x0 DUP1 REVERT JUMPDEST POP MLOAD SWAP3 POP PUSH2 0x3489 DUP6 PUSH2 0x829 JUMP JUMPDEST SWAP2 POP PUSH2 0x349E PUSH2 0x3298 DUP6 DUP6 PUSH4 0xFFFFFFFF PUSH2 0x3A62 AND JUMP JUMPDEST SWAP1 POP DUP1 PUSH1 0x2 PUSH1 0x0 DUP8 PUSH1 0x40 MLOAD PUSH1 0x20 ADD DUP1 DUP1 PUSH1 0x0 DUP1 MLOAD PUSH1 0x20 PUSH2 0x3B69 DUP4 CODECOPY DUP2 MLOAD SWAP2 MSTORE DUP2 MSTORE POP PUSH1 0xB ADD DUP3 DUP2 MSTORE PUSH1 0x20 ADD DUP1 PUSH32 0x656E64426C6F636B000000000000000000000000000000000000000000000000 DUP2 MSTORE POP PUSH1 0x8 ADD SWAP2 POP POP PUSH1 0x40 MLOAD PUSH1 0x20 DUP2 DUP4 SUB SUB DUP2 MSTORE SWAP1 PUSH1 0x40 MSTORE PUSH1 0x40 MLOAD DUP1 DUP3 DUP1 MLOAD SWAP1 PUSH1 0x20 ADD SWAP1 DUP1 DUP4 DUP4 JUMPDEST PUSH1 0x20 DUP4 LT PUSH2 0x3532 JUMPI DUP1 MLOAD DUP3 MSTORE PUSH1 0x1F NOT SWAP1 SWAP3 ADD SWAP2 PUSH1 0x20 SWAP2 DUP3 ADD SWAP2 ADD PUSH2 0x3513 JUMP JUMPDEST MLOAD DUP2 MLOAD PUSH1 0x20 SWAP4 DUP5 SUB PUSH2 0x100 EXP PUSH1 0x0 NOT ADD DUP1 NOT SWAP1 SWAP3 AND SWAP2 AND OR SWAP1 MSTORE PUSH1 0x40 DUP1 MLOAD SWAP3 SWAP1 SWAP5 ADD DUP3 SWAP1 SUB SWAP1 SWAP2 KECCAK256 DUP7 MSTORE DUP6 ADD SWAP6 SWAP1 SWAP6 MSTORE SWAP3 SWAP1 SWAP3 ADD PUSH1 0x0 KECCAK256 SWAP4 SWAP1 SWAP4 SSTORE POP POP POP POP POP POP POP POP JUMP JUMPDEST DUP1 PUSH1 0x4 PUSH1 0x0 DUP5 PUSH1 0x40 MLOAD PUSH1 0x20 ADD DUP1 DUP1 PUSH1 0x0 DUP1 MLOAD PUSH1 0x20 PUSH2 0x3B69 DUP4 CODECOPY DUP2 MLOAD SWAP2 MSTORE DUP2 MSTORE POP PUSH1 0xB ADD DUP3 DUP2 MSTORE PUSH1 0x20 ADD DUP1 PUSH32 0x63726561746F7200000000000000000000000000000000000000000000000000 DUP2 MSTORE POP PUSH1 0x7 ADD SWAP2 POP POP PUSH1 0x40 MLOAD PUSH1 0x20 DUP2 DUP4 SUB SUB DUP2 MSTORE SWAP1 PUSH1 0x40 MSTORE PUSH1 0x40 MLOAD DUP1 DUP3 DUP1 MLOAD SWAP1 PUSH1 0x20 ADD SWAP1 DUP1 DUP4 DUP4 PUSH1 0x20 DUP4 LT PUSH2 0x2B09 JUMPI DUP1 MLOAD DUP3 MSTORE PUSH1 0x1F NOT SWAP1 SWAP3 ADD SWAP2 PUSH1 0x20 SWAP2 DUP3 ADD SWAP2 ADD PUSH2 0x2AEA JUMP JUMPDEST DUP1 PUSH1 0x3 PUSH1 0x0 DUP5 PUSH1 0x40 MLOAD PUSH1 0x20 ADD DUP1 DUP1 PUSH1 0x0 DUP1 MLOAD PUSH1 0x20 PUSH2 0x3B69 DUP4 CODECOPY DUP2 MLOAD SWAP2 MSTORE DUP2 MSTORE POP PUSH1 0xB ADD DUP3 DUP2 MSTORE PUSH1 0x20 ADD DUP1 PUSH32 0x6465736372697074696F6E000000000000000000000000000000000000000000 DUP2 MSTORE POP PUSH1 0xB ADD SWAP2 POP POP PUSH1 0x40 MLOAD PUSH1 0x20 DUP2 DUP4 SUB SUB DUP2 MSTORE SWAP1 PUSH1 0x40 MSTORE PUSH1 0x40 MLOAD DUP1 DUP3 DUP1 MLOAD SWAP1 PUSH1 0x20 ADD SWAP1 DUP1 DUP4 DUP4 JUMPDEST PUSH1 0x20 DUP4 LT PUSH2 0x369A JUMPI DUP1 MLOAD DUP3 MSTORE PUSH1 0x1F NOT SWAP1 SWAP3 ADD SWAP2 PUSH1 0x20 SWAP2 DUP3 ADD SWAP2 ADD PUSH2 0x367B JUMP JUMPDEST MLOAD DUP2 MLOAD PUSH1 0x0 NOT PUSH1 0x20 SWAP5 DUP6 SUB PUSH2 0x100 EXP ADD SWAP1 DUP2 AND SWAP1 NOT SWAP2 SWAP1 SWAP2 AND OR SWAP1 MSTORE PUSH1 0x40 DUP1 MLOAD SWAP5 SWAP1 SWAP3 ADD DUP5 SWAP1 SUB SWAP1 SWAP4 KECCAK256 DUP7 MSTORE DUP6 DUP4 ADD SWAP7 SWAP1 SWAP7 MSTORE POP SWAP3 SWAP1 SWAP4 ADD PUSH1 0x0 KECCAK256 DUP5 MLOAD PUSH2 0x2D57 SWAP6 SWAP2 SWAP5 POP SWAP3 ADD SWAP2 SWAP1 POP PUSH2 0x3A90 JUMP JUMPDEST DUP1 PUSH1 0x2 PUSH1 0x0 DUP5 PUSH1 0x40 MLOAD PUSH1 0x20 ADD DUP1 DUP1 PUSH1 0x0 DUP1 MLOAD PUSH1 0x20 PUSH2 0x3B69 DUP4 CODECOPY DUP2 MLOAD SWAP2 MSTORE DUP2 MSTORE POP PUSH1 0xB ADD DUP3 DUP2 MSTORE PUSH1 0x20 ADD DUP1 PUSH32 0x696E646578000000000000000000000000000000000000000000000000000000 DUP2 MSTORE POP PUSH1 0x5 ADD SWAP2 POP POP PUSH1 0x40 MLOAD PUSH1 0x20 DUP2 DUP4 SUB SUB DUP2 MSTORE SWAP1 PUSH1 0x40 MSTORE PUSH1 0x40 MLOAD DUP1 DUP3 DUP1 MLOAD SWAP1 PUSH1 0x20 ADD SWAP1 DUP1 DUP4 DUP4 PUSH1 0x20 DUP4 LT PUSH2 0x263B JUMPI DUP1 MLOAD DUP3 MSTORE PUSH1 0x1F NOT SWAP1 SWAP3 ADD SWAP2 PUSH1 0x20 SWAP2 DUP3 ADD SWAP2 ADD PUSH2 0x261C JUMP JUMPDEST PUSH1 0x8 PUSH1 0x0 PUSH1 0x40 MLOAD PUSH1 0x20 ADD DUP1 DUP1 PUSH1 0x0 DUP1 MLOAD PUSH1 0x20 PUSH2 0x3B49 DUP4 CODECOPY DUP2 MLOAD SWAP2 MSTORE DUP2 MSTORE POP PUSH1 0xD ADD SWAP1 POP PUSH1 0x40 MLOAD PUSH1 0x20 DUP2 DUP4 SUB SUB DUP2 MSTORE SWAP1 PUSH1 0x40 MSTORE PUSH1 0x40 MLOAD DUP1 DUP3 DUP1 MLOAD SWAP1 PUSH1 0x20 ADD SWAP1 DUP1 DUP4 DUP4 JUMPDEST PUSH1 0x20 DUP4 LT PUSH2 0x37DA JUMPI DUP1 MLOAD DUP3 MSTORE PUSH1 0x1F NOT SWAP1 SWAP3 ADD SWAP2 PUSH1 0x20 SWAP2 DUP3 ADD SWAP2 ADD PUSH2 0x37BB JUMP JUMPDEST MLOAD DUP2 MLOAD PUSH1 0x20 SWAP4 DUP5 SUB PUSH2 0x100 EXP PUSH1 0x0 NOT ADD DUP1 NOT SWAP1 SWAP3 AND SWAP2 AND OR SWAP1 MSTORE PUSH1 0x40 DUP1 MLOAD SWAP3 SWAP1 SWAP5 ADD DUP3 SWAP1 SUB SWAP1 SWAP2 KECCAK256 DUP7 MSTORE DUP6 DUP2 ADD SWAP7 SWAP1 SWAP7 MSTORE POP SWAP3 SWAP1 SWAP3 ADD PUSH1 0x0 SWAP1 DUP2 KECCAK256 DUP1 SLOAD PUSH1 0x1 DUP2 ADD DUP3 SSTORE SWAP1 DUP3 MSTORE SWAP4 SWAP1 KECCAK256 SWAP1 SWAP3 ADD SWAP3 SWAP1 SWAP3 SSTORE POP POP JUMP JUMPDEST PUSH2 0x2977 DUP2 PUSH2 0x384C PUSH1 0x1 PUSH2 0x3840 DUP6 PUSH2 0x221F JUMP JUMPDEST SWAP1 PUSH4 0xFFFFFFFF PUSH2 0x258C AND JUMP JUMPDEST DUP1 PUSH1 0x2 PUSH1 0x0 DUP5 PUSH1 0x40 MLOAD PUSH1 0x20 ADD DUP1 DUP1 PUSH32 0x76616C696461746F7241637469766542616C6C6F747300000000000000000000 DUP2 MSTORE POP PUSH1 0x16 ADD DUP3 PUSH1 0x1 PUSH1 0xA0 PUSH1 0x2 EXP SUB AND PUSH1 0x1 PUSH1 0xA0 PUSH1 0x2 EXP SUB AND PUSH13 0x1000000000000000000000000 MUL DUP2 MSTORE PUSH1 0x14 ADD SWAP2 POP POP PUSH1 0x40 MLOAD PUSH1 0x20 DUP2 DUP4 SUB SUB DUP2 MSTORE SWAP1 PUSH1 0x40 MSTORE PUSH1 0x40 MLOAD DUP1 DUP3 DUP1 MLOAD SWAP1 PUSH1 0x20 ADD SWAP1 DUP1 DUP4 DUP4 PUSH1 0x20 DUP4 LT PUSH2 0x263B JUMPI DUP1 MLOAD DUP3 MSTORE PUSH1 0x1F NOT SWAP1 SWAP3 ADD SWAP2 PUSH1 0x20 SWAP2 DUP3 ADD SWAP2 ADD PUSH2 0x261C JUMP JUMPDEST DUP1 PUSH1 0x8 PUSH1 0x0 PUSH1 0x40 MLOAD PUSH1 0x20 ADD DUP1 DUP1 PUSH1 0x0 DUP1 MLOAD PUSH1 0x20 PUSH2 0x3B49 DUP4 CODECOPY DUP2 MLOAD SWAP2 MSTORE DUP2 MSTORE POP PUSH1 0xD ADD SWAP1 POP PUSH1 0x40 MLOAD PUSH1 0x20 DUP2 DUP4 SUB SUB DUP2 MSTORE SWAP1 PUSH1 0x40 MSTORE PUSH1 0x40 MLOAD DUP1 DUP3 DUP1 MLOAD SWAP1 PUSH1 0x20 ADD SWAP1 DUP1 DUP4 DUP4 JUMPDEST PUSH1 0x20 DUP4 LT PUSH2 0x394A JUMPI DUP1 MLOAD DUP3 MSTORE PUSH1 0x1F NOT SWAP1 SWAP3 ADD SWAP2 PUSH1 0x20 SWAP2 DUP3 ADD SWAP2 ADD PUSH2 0x392B JUMP JUMPDEST MLOAD DUP2 MLOAD PUSH1 0x20 SWAP4 DUP5 SUB PUSH2 0x100 EXP PUSH1 0x0 NOT ADD DUP1 NOT SWAP1 SWAP3 AND SWAP2 AND OR SWAP1 MSTORE PUSH1 0x40 DUP1 MLOAD SWAP3 SWAP1 SWAP5 ADD DUP3 SWAP1 SUB SWAP1 SWAP2 KECCAK256 DUP7 MSTORE DUP6 ADD SWAP6 SWAP1 SWAP6 MSTORE SWAP3 SWAP1 SWAP3 ADD PUSH1 0x0 KECCAK256 DUP1 SLOAD SWAP1 SWAP4 POP DUP7 SWAP3 POP DUP3 LT SWAP1 POP PUSH2 0x3993 JUMPI INVALID JUMPDEST PUSH1 0x0 SWAP2 DUP3 MSTORE PUSH1 0x20 SWAP1 SWAP2 KECCAK256 ADD SSTORE POP POP JUMP JUMPDEST PUSH1 0x0 PUSH2 0x39AD PUSH2 0x1143 JUMP JUMPDEST GT ISZERO PUSH2 0x1415 JUMPI PUSH1 0x8 PUSH1 0x0 PUSH1 0x40 MLOAD PUSH1 0x20 ADD DUP1 DUP1 PUSH1 0x0 DUP1 MLOAD PUSH1 0x20 PUSH2 0x3B49 DUP4 CODECOPY DUP2 MLOAD SWAP2 MSTORE DUP2 MSTORE POP PUSH1 0xD ADD SWAP1 POP PUSH1 0x40 MLOAD PUSH1 0x20 DUP2 DUP4 SUB SUB DUP2 MSTORE SWAP1 PUSH1 0x40 MSTORE PUSH1 0x40 MLOAD DUP1 DUP3 DUP1 MLOAD SWAP1 PUSH1 0x20 ADD SWAP1 DUP1 DUP4 DUP4 JUMPDEST PUSH1 0x20 DUP4 LT PUSH2 0x3A14 JUMPI DUP1 MLOAD DUP3 MSTORE PUSH1 0x1F NOT SWAP1 SWAP3 ADD SWAP2 PUSH1 0x20 SWAP2 DUP3 ADD SWAP2 ADD PUSH2 0x39F5 JUMP JUMPDEST MLOAD DUP2 MLOAD PUSH1 0x0 NOT PUSH1 0x20 SWAP5 DUP6 SUB PUSH2 0x100 EXP DUP2 ADD SWAP2 DUP3 AND SWAP2 NOT SWAP3 SWAP1 SWAP3 AND OR SWAP1 SWAP2 MSTORE PUSH1 0x40 DUP1 MLOAD SWAP6 SWAP1 SWAP4 ADD DUP6 SWAP1 SUB SWAP1 SWAP5 KECCAK256 DUP8 MSTORE DUP7 ADD SWAP7 SWAP1 SWAP7 MSTORE POP SWAP3 SWAP1 SWAP4 ADD PUSH1 0x0 KECCAK256 DUP1 SLOAD SWAP4 POP PUSH2 0x2977 SWAP3 SWAP1 SWAP2 POP DUP4 ADD PUSH2 0x3B0E JUMP JUMPDEST PUSH1 0x0 DUP1 DUP4 ISZERO ISZERO PUSH2 0x3A75 JUMPI PUSH1 0x0 SWAP2 POP PUSH2 0x25A2 JUMP JUMPDEST POP DUP3 DUP3 MUL DUP3 DUP5 DUP3 DUP2 ISZERO ISZERO PUSH2 0x3A85 JUMPI INVALID JUMPDEST DIV EQ PUSH2 0x259E JUMPI PUSH1 0x0 DUP1 REVERT JUMPDEST DUP3 DUP1 SLOAD PUSH1 0x1 DUP2 PUSH1 0x1 AND ISZERO PUSH2 0x100 MUL SUB AND PUSH1 0x2 SWAP1 DIV SWAP1 PUSH1 0x0 MSTORE PUSH1 0x20 PUSH1 0x0 KECCAK256 SWAP1 PUSH1 0x1F ADD PUSH1 0x20 SWAP1 DIV DUP2 ADD SWAP3 DUP3 PUSH1 0x1F LT PUSH2 0x3AD1 JUMPI DUP1 MLOAD PUSH1 0xFF NOT AND DUP4 DUP1 ADD OR DUP6 SSTORE PUSH2 0x3AFE JUMP JUMPDEST DUP3 DUP1 ADD PUSH1 0x1 ADD DUP6 SSTORE DUP3 ISZERO PUSH2 0x3AFE JUMPI SWAP2 DUP3 ADD JUMPDEST DUP3 DUP2 GT ISZERO PUSH2 0x3AFE JUMPI DUP3 MLOAD DUP3 SSTORE SWAP2 PUSH1 0x20 ADD SWAP2 SWAP1 PUSH1 0x1 ADD SWAP1 PUSH2 0x3AE3 JUMP JUMPDEST POP PUSH2 0x3B0A SWAP3 SWAP2 POP PUSH2 0x3B2E JUMP JUMPDEST POP SWAP1 JUMP JUMPDEST DUP2 SLOAD DUP2 DUP4 SSTORE DUP2 DUP2 GT ISZERO PUSH2 0x2D57 JUMPI PUSH1 0x0 DUP4 DUP2 MSTORE PUSH1 0x20 SWAP1 KECCAK256 PUSH2 0x2D57 SWAP2 DUP2 ADD SWAP1 DUP4 ADD JUMPDEST PUSH2 0xD5A SWAP2 SWAP1 JUMPDEST DUP1 DUP3 GT ISZERO PUSH2 0x3B0A JUMPI PUSH1 0x0 DUP2 SSTORE PUSH1 0x1 ADD PUSH2 0x3B34 JUMP STOP PUSH2 0x6374 PUSH10 0x766542616C6C6F747300 STOP STOP STOP STOP STOP STOP STOP STOP STOP STOP STOP STOP STOP STOP STOP STOP STOP STOP PUSH23 0x6F74696E67537461746500000000000000000000000000 STOP STOP STOP STOP STOP STOP STOP STOP LOG1 PUSH6 0x627A7A723058 KECCAK256 0xca 0xc4 SAR ISZERO 0xa7 0xd7 0x2e 0xe6 0xb6 0xd7 RETURNDATACOPY 0xa9 DUP2 0xea 0xd6 LOG3 PUSH32 0xE47CB80CAD9028CD9FE7EB4A6728660029000000000000000000000000000000 "},"methodIdentifiers":{"DECIMALS()":"2e0f2625","MAX_BALLOT_DURATION_CYCLES()":"480ca380","MAX_LIMIT_OF_BALLOTS()":"897ba3e4","MINIMUM_TURNOUT_BP()":"340d3dc2","MIN_BALLOT_DURATION_CYCLES()":"0af58e77","activeBallots()":"d21dc68a","activeBallotsAtIndex(uint256)":"df044477","activeBallotsLength()":"6ccc0234","canBeFinalized(uint256)":"82c4c963","getAccepted(uint256)":"22e5fe9d","getBallotInfo(uint256,address)":"8c64a20d","getBallotLimitPerValidator()":"fcff021c","getBelowTurnOut(uint256)":"60970b6f","getContractType(uint256)":"bdd4ae55","getCreator(uint256)":"d48e638a","getDescription(uint256)":"4925ec55","getEndBlock(uint256)":"8c8ab7ad","getFinalizeCalled(uint256)":"2dfba528","getIndex(uint256)":"8e7cb6e1","getIsFinalized(uint256)":"23e1a0a8","getMaxBallotDurationCycles()":"8be774d3","getMinBallotDurationCycles()":"f3161a4d","getNextBallotId()":"3ee2f212","getProposedValue(uint256)":"d6edcb38","getProxyStorage()":"ec15a5e6","getQuorumState(uint256)":"08dbb18e","getRejected(uint256)":"62f4c26b","getStartBlock(uint256)":"01b2320e","getTotalStake(uint256)":"45367f23","getVoterChoice(uint256,address)":"0eac27f4","hasAlreadyVoted(uint256,address)":"c14bfd29","initialize()":"8129fc1c","isActiveBallot(uint256)":"2b592f92","isInitialized()":"392e53cd","isValidVotingKey(address)":"77da7930","newBallot(uint256,uint256,uint256,address,string)":"c12eefd2","onCycleEnd(address[])":"bbac62c8","setConsensusMock(address)":"b11b5c77","setNextBallotIdMock(uint256)":"99695e42","validContractType(uint256)":"edaab223","validatorActiveBallots(address)":"f49774ee","vote(uint256,uint256)":"b384abef"}}}}}