{
  "_format": "hh-sol-artifact-1",
  "contractName": "ConsensusMock",
  "sourceName": "contracts/test/ConsensusMock.sol",
  "abi": [
    {
      "constant": true,
      "inputs": [],
      "name": "jailedValidatorsLength",
      "outputs": [
        {
          "name": "",
          "type": "uint256"
        }
      ],
      "payable": false,
      "stateMutability": "view",
      "type": "function"
    },
    {
      "constant": true,
      "inputs": [
        {
          "name": "_p",
          "type": "uint256"
        }
      ],
      "name": "pendingValidatorsAtPosition",
      "outputs": [
        {
          "name": "",
          "type": "address"
        }
      ],
      "payable": false,
      "stateMutability": "view",
      "type": "function"
    },
    {
      "constant": true,
      "inputs": [
        {
          "name": "_snapshotId",
          "type": "uint256"
        }
      ],
      "name": "getSnapshotAddresses",
      "outputs": [
        {
          "name": "",
          "type": "address[]"
        }
      ],
      "payable": false,
      "stateMutability": "view",
      "type": "function"
    },
    {
      "constant": false,
      "inputs": [
        {
          "name": "_newAddress",
          "type": "address"
        }
      ],
      "name": "setProxyStorage",
      "outputs": [],
      "payable": false,
      "stateMutability": "nonpayable",
      "type": "function"
    },
    {
      "constant": true,
      "inputs": [],
      "name": "getMinValidatorFee",
      "outputs": [
        {
          "name": "",
          "type": "uint256"
        }
      ],
      "payable": false,
      "stateMutability": "pure",
      "type": "function"
    },
    {
      "constant": true,
      "inputs": [
        {
          "name": "_address",
          "type": "address"
        }
      ],
      "name": "isJailed",
      "outputs": [
        {
          "name": "",
          "type": "bool"
        }
      ],
      "payable": false,
      "stateMutability": "view",
      "type": "function"
    },
    {
      "constant": true,
      "inputs": [],
      "name": "hasCycleEnded",
      "outputs": [
        {
          "name": "",
          "type": "bool"
        }
      ],
      "payable": false,
      "stateMutability": "view",
      "type": "function"
    },
    {
      "constant": true,
      "inputs": [
        {
          "name": "_address",
          "type": "address"
        },
        {
          "name": "_validator",
          "type": "address"
        }
      ],
      "name": "delegatedAmount",
      "outputs": [
        {
          "name": "",
          "type": "uint256"
        }
      ],
      "payable": false,
      "stateMutability": "view",
      "type": "function"
    },
    {
      "constant": true,
      "inputs": [],
      "name": "pendingValidatorsLength",
      "outputs": [
        {
          "name": "",
          "type": "uint256"
        }
      ],
      "payable": false,
      "stateMutability": "view",
      "type": "function"
    },
    {
      "constant": true,
      "inputs": [],
      "name": "newValidatorSetLength",
      "outputs": [
        {
          "name": "",
          "type": "uint256"
        }
      ],
      "payable": false,
      "stateMutability": "view",
      "type": "function"
    },
    {
      "constant": false,
      "inputs": [
        {
          "name": "_currentValidatorsLengthMock",
          "type": "uint256"
        }
      ],
      "name": "setCurrentValidatorsLengthMock",
      "outputs": [],
      "payable": false,
      "stateMutability": "nonpayable",
      "type": "function"
    },
    {
      "constant": true,
      "inputs": [],
      "name": "DECIMALS",
      "outputs": [
        {
          "name": "",
          "type": "uint256"
        }
      ],
      "payable": false,
      "stateMutability": "view",
      "type": "function"
    },
    {
      "constant": false,
      "inputs": [
        {
          "name": "_amount",
          "type": "uint256"
        }
      ],
      "name": "withdraw",
      "outputs": [],
      "payable": false,
      "stateMutability": "nonpayable",
      "type": "function"
    },
    {
      "constant": true,
      "inputs": [],
      "name": "isInitialized",
      "outputs": [
        {
          "name": "",
          "type": "bool"
        }
      ],
      "payable": false,
      "stateMutability": "view",
      "type": "function"
    },
    {
      "constant": false,
      "inputs": [],
      "name": "stake",
      "outputs": [],
      "payable": true,
      "stateMutability": "payable",
      "type": "function"
    },
    {
      "constant": true,
      "inputs": [],
      "name": "currentValidatorsLength",
      "outputs": [
        {
          "name": "",
          "type": "uint256"
        }
      ],
      "payable": false,
      "stateMutability": "view",
      "type": "function"
    },
    {
      "constant": false,
      "inputs": [
        {
          "name": "_val",
          "type": "address"
        },
        {
          "name": "counter",
          "type": "uint256"
        }
      ],
      "name": "setBlockCounterMock",
      "outputs": [],
      "payable": false,
      "stateMutability": "nonpayable",
      "type": "function"
    },
    {
      "constant": false,
      "inputs": [
        {
          "name": "_status",
          "type": "bool"
        }
      ],
      "name": "setShouldEmitInitiateChangeMock",
      "outputs": [],
      "payable": false,
      "stateMutability": "nonpayable",
      "type": "function"
    },
    {
      "constant": false,
      "inputs": [
        {
          "name": "_amount",
          "type": "uint256"
        }
      ],
      "name": "setValidatorFee",
      "outputs": [],
      "payable": false,
      "stateMutability": "nonpayable",
      "type": "function"
    },
    {
      "constant": true,
      "inputs": [],
      "name": "getMinStake",
      "outputs": [
        {
          "name": "",
          "type": "uint256"
        }
      ],
      "payable": false,
      "stateMutability": "pure",
      "type": "function"
    },
    {
      "constant": true,
      "inputs": [
        {
          "name": "_p",
          "type": "uint256"
        }
      ],
      "name": "currentValidatorsAtPosition",
      "outputs": [
        {
          "name": "",
          "type": "address"
        }
      ],
      "payable": false,
      "stateMutability": "view",
      "type": "function"
    },
    {
      "constant": false,
      "inputs": [
        {
          "name": "_validator",
          "type": "address"
        }
      ],
      "name": "delegate",
      "outputs": [],
      "payable": true,
      "stateMutability": "payable",
      "type": "function"
    },
    {
      "constant": true,
      "inputs": [],
      "name": "newValidatorSet",
      "outputs": [
        {
          "name": "",
          "type": "address[]"
        }
      ],
      "payable": false,
      "stateMutability": "view",
      "type": "function"
    },
    {
      "constant": true,
      "inputs": [],
      "name": "jailedValidators",
      "outputs": [
        {
          "name": "",
          "type": "address[]"
        }
      ],
      "payable": false,
      "stateMutability": "view",
      "type": "function"
    },
    {
      "constant": true,
      "inputs": [
        {
          "name": "_validator",
          "type": "address"
        },
        {
          "name": "_rewardAmount",
          "type": "uint256"
        }
      ],
      "name": "getDelegatorsForRewardDistribution",
      "outputs": [
        {
          "name": "",
          "type": "address[]"
        },
        {
          "name": "",
          "type": "uint256[]"
        }
      ],
      "payable": false,
      "stateMutability": "view",
      "type": "function"
    },
    {
      "constant": true,
      "inputs": [],
      "name": "STRIKE_RESET",
      "outputs": [
        {
          "name": "",
          "type": "uint256"
        }
      ],
      "payable": false,
      "stateMutability": "view",
      "type": "function"
    },
    {
      "constant": false,
      "inputs": [],
      "name": "maintenance",
      "outputs": [],
      "payable": false,
      "stateMutability": "nonpayable",
      "type": "function"
    },
    {
      "constant": false,
      "inputs": [
        {
          "name": "_amount",
          "type": "uint256"
        }
      ],
      "name": "setValidatorFeeMock",
      "outputs": [],
      "payable": false,
      "stateMutability": "nonpayable",
      "type": "function"
    },
    {
      "constant": false,
      "inputs": [],
      "name": "unJail",
      "outputs": [],
      "payable": false,
      "stateMutability": "nonpayable",
      "type": "function"
    },
    {
      "constant": true,
      "inputs": [],
      "name": "MAX_VALIDATORS",
      "outputs": [
        {
          "name": "",
          "type": "uint256"
        }
      ],
      "payable": false,
      "stateMutability": "view",
      "type": "function"
    },
    {
      "constant": true,
      "inputs": [],
      "name": "VALIDATOR_PRODUCTIVITY_BP",
      "outputs": [
        {
          "name": "",
          "type": "uint256"
        }
      ],
      "payable": false,
      "stateMutability": "view",
      "type": "function"
    },
    {
      "constant": false,
      "inputs": [],
      "name": "finalizeChange",
      "outputs": [],
      "payable": false,
      "stateMutability": "nonpayable",
      "type": "function"
    },
    {
      "constant": true,
      "inputs": [],
      "name": "getMaxValidators",
      "outputs": [
        {
          "name": "",
          "type": "uint256"
        }
      ],
      "payable": false,
      "stateMutability": "pure",
      "type": "function"
    },
    {
      "constant": false,
      "inputs": [
        {
          "name": "_newAddress",
          "type": "address"
        }
      ],
      "name": "setSystemAddressMock",
      "outputs": [],
      "payable": false,
      "stateMutability": "nonpayable",
      "type": "function"
    },
    {
      "constant": true,
      "inputs": [
        {
          "name": "_validator",
          "type": "address"
        }
      ],
      "name": "getStrikes",
      "outputs": [
        {
          "name": "",
          "type": "uint256"
        }
      ],
      "payable": false,
      "stateMutability": "view",
      "type": "function"
    },
    {
      "constant": true,
      "inputs": [
        {
          "name": "_validator",
          "type": "address"
        }
      ],
      "name": "blockCounter",
      "outputs": [
        {
          "name": "",
          "type": "uint256"
        }
      ],
      "payable": false,
      "stateMutability": "view",
      "type": "function"
    },
    {
      "constant": true,
      "inputs": [],
      "name": "CYCLE_DURATION_BLOCKS",
      "outputs": [
        {
          "name": "",
          "type": "uint256"
        }
      ],
      "payable": false,
      "stateMutability": "view",
      "type": "function"
    },
    {
      "constant": false,
      "inputs": [
        {
          "name": "_validator",
          "type": "address"
        }
      ],
      "name": "cycle",
      "outputs": [],
      "payable": false,
      "stateMutability": "nonpayable",
      "type": "function"
    },
    {
      "constant": true,
      "inputs": [],
      "name": "MAX_STRIKE_COUNT",
      "outputs": [
        {
          "name": "",
          "type": "uint256"
        }
      ],
      "payable": false,
      "stateMutability": "view",
      "type": "function"
    },
    {
      "constant": true,
      "inputs": [],
      "name": "requiredSignatures",
      "outputs": [
        {
          "name": "",
          "type": "uint256"
        }
      ],
      "payable": false,
      "stateMutability": "view",
      "type": "function"
    },
    {
      "constant": true,
      "inputs": [
        {
          "name": "_validator",
          "type": "address"
        }
      ],
      "name": "delegators",
      "outputs": [
        {
          "name": "",
          "type": "address[]"
        }
      ],
      "payable": false,
      "stateMutability": "view",
      "type": "function"
    },
    {
      "constant": true,
      "inputs": [],
      "name": "isFinalized",
      "outputs": [
        {
          "name": "",
          "type": "bool"
        }
      ],
      "payable": false,
      "stateMutability": "view",
      "type": "function"
    },
    {
      "constant": true,
      "inputs": [
        {
          "name": "_p",
          "type": "uint256"
        }
      ],
      "name": "jailedValidatorsAtPosition",
      "outputs": [
        {
          "name": "",
          "type": "address"
        }
      ],
      "payable": false,
      "stateMutability": "view",
      "type": "function"
    },
    {
      "constant": true,
      "inputs": [],
      "name": "getSystemAddress",
      "outputs": [
        {
          "name": "",
          "type": "address"
        }
      ],
      "payable": false,
      "stateMutability": "view",
      "type": "function"
    },
    {
      "constant": true,
      "inputs": [],
      "name": "DEFAULT_VALIDATOR_FEE",
      "outputs": [
        {
          "name": "",
          "type": "uint256"
        }
      ],
      "payable": false,
      "stateMutability": "view",
      "type": "function"
    },
    {
      "constant": true,
      "inputs": [],
      "name": "getCurrentCycleStartBlock",
      "outputs": [
        {
          "name": "",
          "type": "uint256"
        }
      ],
      "payable": false,
      "stateMutability": "view",
      "type": "function"
    },
    {
      "constant": false,
      "inputs": [],
      "name": "emitInitiateChange",
      "outputs": [],
      "payable": false,
      "stateMutability": "nonpayable",
      "type": "function"
    },
    {
      "constant": true,
      "inputs": [],
      "name": "totalStakeAmount",
      "outputs": [
        {
          "name": "",
          "type": "uint256"
        }
      ],
      "payable": false,
      "stateMutability": "view",
      "type": "function"
    },
    {
      "constant": true,
      "inputs": [
        {
          "name": "_validator",
          "type": "address"
        }
      ],
      "name": "validatorFee",
      "outputs": [
        {
          "name": "",
          "type": "uint256"
        }
      ],
      "payable": false,
      "stateMutability": "view",
      "type": "function"
    },
    {
      "constant": false,
      "inputs": [
        {
          "name": "_newSet",
          "type": "address[]"
        }
      ],
      "name": "setNewValidatorSetMock",
      "outputs": [],
      "payable": false,
      "stateMutability": "nonpayable",
      "type": "function"
    },
    {
      "constant": true,
      "inputs": [
        {
          "name": "_validator",
          "type": "address"
        },
        {
          "name": "_address",
          "type": "address"
        }
      ],
      "name": "isDelegator",
      "outputs": [
        {
          "name": "",
          "type": "bool"
        }
      ],
      "payable": false,
      "stateMutability": "view",
      "type": "function"
    },
    {
      "constant": true,
      "inputs": [],
      "name": "currentValidators",
      "outputs": [
        {
          "name": "",
          "type": "address[]"
        }
      ],
      "payable": false,
      "stateMutability": "view",
      "type": "function"
    },
    {
      "constant": true,
      "inputs": [],
      "name": "getCycleDurationBlocks",
      "outputs": [
        {
          "name": "",
          "type": "uint256"
        }
      ],
      "payable": false,
      "stateMutability": "pure",
      "type": "function"
    },
    {
      "constant": true,
      "inputs": [],
      "name": "pendingValidators",
      "outputs": [
        {
          "name": "",
          "type": "address[]"
        }
      ],
      "payable": false,
      "stateMutability": "view",
      "type": "function"
    },
    {
      "constant": true,
      "inputs": [],
      "name": "getCurrentCycleEndBlock",
      "outputs": [
        {
          "name": "",
          "type": "uint256"
        }
      ],
      "payable": false,
      "stateMutability": "view",
      "type": "function"
    },
    {
      "constant": true,
      "inputs": [],
      "name": "getValidators",
      "outputs": [
        {
          "name": "",
          "type": "address[]"
        }
      ],
      "payable": false,
      "stateMutability": "view",
      "type": "function"
    },
    {
      "constant": true,
      "inputs": [
        {
          "name": "_address",
          "type": "address"
        }
      ],
      "name": "stakeAmount",
      "outputs": [
        {
          "name": "",
          "type": "uint256"
        }
      ],
      "payable": false,
      "stateMutability": "view",
      "type": "function"
    },
    {
      "constant": false,
      "inputs": [
        {
          "name": "_initialValidator",
          "type": "address"
        }
      ],
      "name": "initialize",
      "outputs": [],
      "payable": false,
      "stateMutability": "nonpayable",
      "type": "function"
    },
    {
      "constant": true,
      "inputs": [],
      "name": "MAX_STAKE",
      "outputs": [
        {
          "name": "",
          "type": "uint256"
        }
      ],
      "payable": false,
      "stateMutability": "view",
      "type": "function"
    },
    {
      "constant": true,
      "inputs": [],
      "name": "MIN_STAKE",
      "outputs": [
        {
          "name": "",
          "type": "uint256"
        }
      ],
      "payable": false,
      "stateMutability": "view",
      "type": "function"
    },
    {
      "constant": true,
      "inputs": [
        {
          "name": "_validator",
          "type": "address"
        }
      ],
      "name": "getStrikeReset",
      "outputs": [
        {
          "name": "",
          "type": "uint256"
        }
      ],
      "payable": false,
      "stateMutability": "view",
      "type": "function"
    },
    {
      "constant": false,
      "inputs": [
        {
          "name": "_status",
          "type": "bool"
        }
      ],
      "name": "setFinalizedMock",
      "outputs": [],
      "payable": false,
      "stateMutability": "nonpayable",
      "type": "function"
    },
    {
      "constant": true,
      "inputs": [
        {
          "name": "_validator",
          "type": "address"
        }
      ],
      "name": "delegatorsLength",
      "outputs": [
        {
          "name": "",
          "type": "uint256"
        }
      ],
      "payable": false,
      "stateMutability": "view",
      "type": "function"
    },
    {
      "constant": false,
      "inputs": [
        {
          "name": "addr",
          "type": "address"
        },
        {
          "name": "amount",
          "type": "uint256"
        }
      ],
      "name": "addStakeAmountMock",
      "outputs": [],
      "payable": false,
      "stateMutability": "nonpayable",
      "type": "function"
    },
    {
      "constant": true,
      "inputs": [
        {
          "name": "_validator",
          "type": "address"
        },
        {
          "name": "_p",
          "type": "uint256"
        }
      ],
      "name": "delegatorsAtPosition",
      "outputs": [
        {
          "name": "",
          "type": "address"
        }
      ],
      "payable": false,
      "stateMutability": "view",
      "type": "function"
    },
    {
      "constant": true,
      "inputs": [],
      "name": "getProxyStorage",
      "outputs": [
        {
          "name": "",
          "type": "address"
        }
      ],
      "payable": false,
      "stateMutability": "view",
      "type": "function"
    },
    {
      "constant": true,
      "inputs": [
        {
          "name": "_validator",
          "type": "address"
        }
      ],
      "name": "getReleaseBlock",
      "outputs": [
        {
          "name": "",
          "type": "uint256"
        }
      ],
      "payable": false,
      "stateMutability": "view",
      "type": "function"
    },
    {
      "constant": true,
      "inputs": [],
      "name": "shouldEmitInitiateChange",
      "outputs": [
        {
          "name": "",
          "type": "bool"
        }
      ],
      "payable": false,
      "stateMutability": "view",
      "type": "function"
    },
    {
      "constant": false,
      "inputs": [
        {
          "name": "_newSet",
          "type": "address[]"
        }
      ],
      "name": "setStakeAmountMockGroup",
      "outputs": [],
      "payable": false,
      "stateMutability": "nonpayable",
      "type": "function"
    },
    {
      "constant": false,
      "inputs": [
        {
          "name": "_validator",
          "type": "address"
        },
        {
          "name": "_amount",
          "type": "uint256"
        }
      ],
      "name": "withdraw",
      "outputs": [],
      "payable": false,
      "stateMutability": "nonpayable",
      "type": "function"
    },
    {
      "constant": true,
      "inputs": [
        {
          "name": "_address",
          "type": "address"
        }
      ],
      "name": "isValidator",
      "outputs": [
        {
          "name": "",
          "type": "bool"
        }
      ],
      "payable": false,
      "stateMutability": "view",
      "type": "function"
    },
    {
      "constant": true,
      "inputs": [
        {
          "name": "_address",
          "type": "address"
        }
      ],
      "name": "isPendingValidator",
      "outputs": [
        {
          "name": "",
          "type": "bool"
        }
      ],
      "payable": false,
      "stateMutability": "view",
      "type": "function"
    },
    {
      "constant": false,
      "inputs": [
        {
          "name": "_totalStake",
          "type": "uint256"
        }
      ],
      "name": "setTotalStakeAmountMock",
      "outputs": [],
      "payable": false,
      "stateMutability": "nonpayable",
      "type": "function"
    },
    {
      "constant": true,
      "inputs": [],
      "name": "getMaxStake",
      "outputs": [
        {
          "name": "",
          "type": "uint256"
        }
      ],
      "payable": false,
      "stateMutability": "pure",
      "type": "function"
    },
    {
      "payable": true,
      "stateMutability": "payable",
      "type": "fallback"
    },
    {
      "anonymous": false,
      "inputs": [
        {
          "indexed": false,
          "name": "newSet",
          "type": "address[]"
        }
      ],
      "name": "ChangeFinalized",
      "type": "event"
    },
    {
      "anonymous": false,
      "inputs": [],
      "name": "ShouldEmitInitiateChange",
      "type": "event"
    },
    {
      "anonymous": false,
      "inputs": [
        {
          "indexed": true,
          "name": "parentHash",
          "type": "bytes32"
        },
        {
          "indexed": false,
          "name": "newSet",
          "type": "address[]"
        }
      ],
      "name": "InitiateChange",
      "type": "event"
    }
  ],
  "bytecode": "0x60806040526000600f5534801561001557600080fd5b50615281806100256000396000f30060806040526004361061034a5763ffffffff60e060020a60003504166308c9007681146103575780630fe9d28e1461037e5780631043ca28146103b2578063108552691461041a57806310f606e71461043b57806314bfb527146104505780631ffbaf681461048557806321429e601461049a5780632a807f15146104c15780632bec36d2146104d65780632c443851146104eb5780632e0f2625146105035780632e1a7d4d14610518578063392e53cd146105305780633a4b66f11461054557806340c9cdeb1461054d578063416fab2f14610562578063532e3aaa1461058657806355460f81146105a057806356a3b5fa146105b857806357aeefc5146105cd5780635c19a95c146105e55780635ccee1de146105f9578063651d8c221461060e5780636a28f12f146106235780636bdf1d5a146106e05780636c376cc5146106f55780636d6f7e4c1461070a5780636eae5b1114610722578063714897df1461073757806372e81e321461074c578063752862111461076157806376bd510f14610776578063770c63201461078b5780637b1e52a5146107ac5780637d8f7a61146107cd5780637e2bf120146107ee57806385cd8464146108035780638615b171146108245780638d068043146108395780638d23fc611461084e5780638d4e40831461086f5780638da873f8146108845780638dd3848f1461089c57806392b391f3146108b1578063932781d6146108c657806393b4e25e146108db57806394409a56146108f05780639f77dc3014610905578063a0535deb14610926578063a0e119291461097b578063a2cde609146109a2578063a6524923146109b7578063a82f255b146109cc578063af295181146109e1578063b7ab4db5146109f6578063bf13526714610a0b578063c4d66de814610a2c578063c98517c514610a4d578063cb1c2b5c14610a62578063d2166ce914610a77578063d8da60b114610a98578063ddb3f48714610ab2578063e552fec414610ad3578063eb431b6a14610af7578063ec15a5e614610b1b578063ee19a7fc14610b30578063ef7b6d8914610b51578063f0a7d43d14610b66578063f3fef3a314610bbb578063facd743b14610bdf578063fb64aac114610c00578063fe03d2e514610c21578063fe35505b14610c39575b610355333433610c4e565b005b34801561036357600080fd5b5061036c610d16565b60408051918252519081900360200190f35b34801561038a57600080fd5b50610396600435610dba565b60408051600160a060020a039092168252519081900360200190f35b3480156103be57600080fd5b506103ca600435610e81565b60408051602080825283518183015283519192839290830191858101910280838360005b838110156104065781810151838201526020016103ee565b505050509050019250505060405180910390f35b34801561042657600080fd5b50610355600160a060020a0360043516610fbc565b34801561044757600080fd5b5061036c6112db565b34801561045c57600080fd5b50610471600160a060020a03600435166112e7565b604080519115158252519081900360200190f35b34801561049157600080fd5b50610471611338565b3480156104a657600080fd5b5061036c600160a060020a0360043581169060243516611347565b3480156104cd57600080fd5b5061036c61140b565b3480156104e257600080fd5b5061036c61146d565b3480156104f757600080fd5b506103556004356114e1565b34801561050f57600080fd5b5061036c6114e6565b34801561052457600080fd5b506103556004356114f2565b34801561053c57600080fd5b50610471611500565b6103556115b8565b34801561055957600080fd5b5061036c6115c5565b34801561056e57600080fd5b50610355600160a060020a03600435166024356115e1565b34801561059257600080fd5b5061035560043515156116a5565b3480156105ac57600080fd5b50610355600435611718565b3480156105c457600080fd5b5061036c61175f565b3480156105d957600080fd5b5061039660043561176d565b610355600160a060020a03600435166117cf565b34801561060557600080fd5b506103ca6117da565b34801561061a57600080fd5b506103ca6118e3565b34801561062f57600080fd5b50610647600160a060020a0360043516602435611945565b604051808060200180602001838103835285818151815260200191508051906020019060200280838360005b8381101561068b578181015183820152602001610673565b50505050905001838103825284818151815260200191508051906020019060200280838360005b838110156106ca5781810151838201526020016106b2565b5050505090500194505050505060405180910390f35b3480156106ec57600080fd5b5061036c611a43565b34801561070157600080fd5b50610355611a48565b34801561071657600080fd5b50610355600435611a78565b34801561072e57600080fd5b50610355611a8d565b34801561074357600080fd5b5061036c611ac6565b34801561075857600080fd5b5061036c611acc565b34801561076d57600080fd5b50610355611ad2565b34801561078257600080fd5b5061036c611c4b565b34801561079757600080fd5b50610355600160a060020a0360043516611c51565b3480156107b857600080fd5b5061036c600160a060020a0360043516611de5565b3480156107d957600080fd5b5061036c600160a060020a0360043516611ea9565b3480156107fa57600080fd5b5061036c611f2b565b34801561080f57600080fd5b50610355600160a060020a0360043516611f31565b34801561083057600080fd5b5061036c612251565b34801561084557600080fd5b5061036c612256565b34801561085a57600080fd5b506103ca600160a060020a0360043516612276565b34801561087b57600080fd5b506104716122f8565b34801561089057600080fd5b5061039660043561236c565b3480156108a857600080fd5b506103966123ce565b3480156108bd57600080fd5b5061036c61248c565b3480156108d257600080fd5b5061036c612498565b3480156108e757600080fd5b5061035561250c565b3480156108fc57600080fd5b5061036c6125cf565b34801561091157600080fd5b5061036c600160a060020a0360043516612631565b34801561093257600080fd5b5060408051602060048035808201358381028086018501909652808552610355953695939460249493850192918291850190849080828437509497506126c59650505050505050565b34801561098757600080fd5b50610471600160a060020a0360043581169060243516612787565b3480156109ae57600080fd5b506103ca6127db565b3480156109c357600080fd5b5061036c61283d565b3480156109d857600080fd5b506103ca612842565b3480156109ed57600080fd5b5061036c6128a4565b348015610a0257600080fd5b506103ca612918565b348015610a1757600080fd5b5061036c600160a060020a0360043516612922565b348015610a3857600080fd5b50610355600160a060020a03600435166129a4565b348015610a5957600080fd5b5061036c612ada565b348015610a6e57600080fd5b5061036c612ae9565b348015610a8357600080fd5b5061036c600160a060020a0360043516612af7565b348015610aa457600080fd5b506103556004351515612b79565b348015610abe57600080fd5b5061036c600160a060020a0360043516612bec565b348015610adf57600080fd5b50610355600160a060020a0360043516602435612c6e565b348015610b0357600080fd5b50610396600160a060020a0360043516602435612c78565b348015610b2757600080fd5b50610396612d60565b348015610b3c57600080fd5b5061036c600160a060020a0360043516612dd4565b348015610b5d57600080fd5b50610471612e68565b348015610b7257600080fd5b506040805160206004803580820135838102808601850190965280855261035595369593946024949385019291829185019084908082843750949750612edc9650505050505050565b348015610bc757600080fd5b50610355600160a060020a0360043516602435612f19565b348015610beb57600080fd5b50610471600160a060020a0360043516612f24565b348015610c0c57600080fd5b50610471600160a060020a0360043516612f6a565b348015610c2d57600080fd5b50610355600435612fb0565b348015610c4557600080fd5b5061036c612fb9565b600160a060020a0383161515610c6357600080fd5b811515610c6f57600080fd5b600160a060020a0381161515610c8457600080fd5b610c8f838284612fc7565b610c998183613182565b610ca1612fb9565b610caa82612922565b1115610cb557600080fd5b610cbd61175f565b610cc682612922565b10158015610cda5750610cd881612f6a565b155b15610cfa57610ce881613286565b610cfa81670214e8348c4f0000613369565b610d0381612f24565b15610d1157610d11826133fc565b505050565b6000600a6000604051602001808060008051602061511683398151915281525060100190506040516020818303038152906040526040518082805190602001908083835b60208310610d795780518252601f199092019160209182019101610d5a565b51815160209384036101000a600019018019909216911617905260408051929094018290039091208652850195909552929092016000205493505050505b90565b6000600a6000604051602001808060008051602061517683398151915281525060110190506040516020818303038152906040526040518082805190602001908083835b60208310610e1d5780518252601f199092019160209182019101610dfe565b51815160209384036101000a60001901801990921691161790526040805192909401829003909120865285019590955292909201600020805490935085925082109050610e6657fe5b600091825260209091200154600160a060020a031692915050565b6060600a60008360405160200180807f736e617073686f74000000000000000000000000000000000000000000000000815250600801828152602001807f61646472657373657300000000000000000000000000000000000000000000008152506009019150506040516020818303038152906040526040518082805190602001908083835b60208310610f265780518252601f199092019160209182019101610f07565b51815160209384036101000a600019018019909216911617905260408051929094018290039091208652858101969096525092830160002080548451818702810187019095528085529394909392508401905082828015610fb057602002820191906000526020600020905b8154600160a060020a03168152600190910190602001808311610f92575b50505050509050919050565b6004600060405160200180807f6f776e657200000000000000000000000000000000000000000000000000000081525060050190506040516020818303038152906040526040518082805190602001908083835b6020831061102f5780518252601f199092019160209182019101611010565b51815160209384036101000a6000190180199092169116179052604080519290940182900390912086528501959095529290920160002054600160a060020a03163314925061108091505057600080fd5b600160a060020a038116151561109557600080fd5b6006600060405160200180807f77617350726f787953746f72616765536574000000000000000000000000000081525060120190506040516020818303038152906040526040518082805190602001908083835b602083106111085780518252601f1990920191602091820191016110e9565b51815160209384036101000a600019018019909216911617905260408051929094018290039091208652850195909552929092016000205460ff1615925061115291505057600080fd5b806004600060405160200180807f70726f787953746f726167650000000000000000000000000000000000000000815250600c0190506040516020818303038152906040526040518082805190602001908083835b602083106111c65780518252601f1990920191602091820191016111a7565b51815160209384036101000a600019018019909216911617905260408051929094018290039091208652858101969096525092830160009081208054600160a060020a031916600160a060020a039790971696909617909555505080517f77617350726f787953746f7261676553657400000000000000000000000000008184015281516012818303018152603290910191829052805160019460069490939182918401908083835b6020831061128e5780518252601f19909201916020918201910161126f565b51815160209384036101000a60001901801990921691161790526040805192909401829003909120865285019590955292909201600020805460ff19169415159490941790935550505050565b670214e8348c4f000090565b6000805b6112f3610d16565b81101561132d576113038161236c565b600160a060020a031683600160a060020a031614156113255760019150611332565b6001016112eb565b600091505b50919050565b6000611342613502565b905090565b60408051600080516020615216833981519152602080830191909152606060020a600160a060020a038087168202602f85015285160260438301528251603781840301815260579092019283905281516000936002938593909282918401908083835b602083106113c95780518252601f1990920191602091820191016113aa565b51815160209384036101000a60001901801990921691161790526040805192909401829003909120865285019590955292909201600020549695505050505050565b6000600a60006040516020018080600080516020615176833981519152815250601101905060405160208183030381529060405260405180828051906020019080838360208310610d795780518252601f199092019160209182019101610d5a565b6000600a600060405160200180807f6e657756616c696461746f725365740000000000000000000000000000000000815250600f01905060405160208183030381529060405260405180828051906020019080838360208310610d795780518252601f199092019160209182019101610d5a565b600f55565b670de0b6b3a764000081565b6114fd338233613514565b50565b60006006600060405160200180807f6973496e697469616c697a656400000000000000000000000000000000000000815250600d0190506040516020818303038152906040526040518082805190602001908083835b602083106115755780518252601f199092019160209182019101611556565b51815160209384036101000a600019018019909216911617905260408051929094018290039091208652850195909552929092016000205460ff16949350505050565b6115c3333433610c4e565b565b600f54600090156115d95750600f54610db7565b61134261362e565b8060026000846040516020018080600080516020615156833981519152815250600c0182600160a060020a0316600160a060020a0316606060020a0281526014019150506040516020818303038152906040526040518082805190602001908083835b602083106116635780518252601f199092019160209182019101611644565b51815160209384036101000a60001901801990921691161790526040805192909401829003909120865285019590955292909201600020939093555050505050565b806006600060405160200180807f73686f756c64456d6974496e6974696174654368616e6765000000000000000081525060180190506040516020818303038152906040526040518082805190602001908083836020831061128e5780518252601f19909201916020918201910161126f565b61172133612f24565b151561172c57600080fd5b670de0b6b3a764000081111561174157600080fd5b6117496112db565b81101561175557600080fd5b6114fd3382613369565b69021e19e0c9bab240000090565b6000600a600060405160200180806000805160206151f6833981519152815250601101905060405160208183030381529060405260405180828051906020019080838360208310610e1d5780518252601f199092019160209182019101610dfe565b6114fd333483610c4e565b6060600a600060405160200180807f6e657756616c696461746f725365740000000000000000000000000000000000815250600f0190506040516020818303038152906040526040518082805190602001908083835b6020831061184f5780518252601f199092019160209182019101611830565b51815160209384036101000a6000190180199092169116179052604080519290940182900390912086528581019690965250928301600020805484518187028101870190955280855293949093925084019050828280156118d957602002820191906000526020600020905b8154600160a060020a031681526001909101906020018083116118bb575b5050505050905090565b6060600a6000604051602001808060008051602061511683398151915281525060100190506040516020818303038152906040526040518082805190602001908083836020831061184f5780518252601f199092019160209182019101611830565b606080606080600080600061195989612276565b94508451604051908082528060200260200182016040528015611986578160200160208202803883390190505b5093506119a261199461175f565b61199d8b612922565b613690565b92505b8451821015611a34576119c16119bb8a84612c78565b8a611347565b9050611a11670de0b6b3a76400006119f96119db8c612631565b670de0b6b3a764000003611a05876119f98e8863ffffffff6136a916565b9063ffffffff6136d716565b9063ffffffff6136a916565b8483815181101515611a1f57fe5b602090810290910101526001909101906119a5565b50929791965090945050505050565b603281565b611a5133612f24565b1515611a5c57600080fd5b611a65336112e7565b15611a6f57600080fd5b6115c3336136fa565b670de0b6b3a764000081111561175557600080fd5b611a96336112e7565b1515611aa157600080fd5b611aa96128a4565b611ab233612dd4565b1115611abd57600080fd5b6115c33361370c565b6103e881565b610bb881565b6004600060405160200180807f53595354454d5f41444452455353000000000000000000000000000000000000815250600e0190506040516020818303038152906040526040518082805190602001908083835b60208310611b455780518252601f199092019160209182019101611b26565b51815160209384036101000a6000190180199092169116179052604080519290940182900390912086528501959095529290920160002054600160a060020a031633149250611b9691505057600080fd5b611b9e6122f8565b15611ba857600080fd5b6000611bb261146d565b1115611c4157611bc8611bc36117da565b613748565b7f8564cd629b15f47dc310d45bcbfc9bcf5420b0d51bf0659a16c67f91d2763253611bf16127db565b60408051602080825283518183015283519192839290830191858101910280838360005b83811015611c2d578181015183820152602001611c15565b505050509050019250505060405180910390a15b6115c36001612b79565b6103e890565b6004600060405160200180807f6f776e657200000000000000000000000000000000000000000000000000000081525060050190506040516020818303038152906040526040518082805190602001908083835b60208310611cc45780518252601f199092019160209182019101611ca5565b51815160209384036101000a6000190180199092169116179052604080519290940182900390912086528501959095529290920160002054600160a060020a031633149250611d1591505057600080fd5b806004600060405160200180807f53595354454d5f41444452455353000000000000000000000000000000000000815250600e0190506040516020818303038152906040526040518082805190602001908083835b60208310611d895780518252601f199092019160209182019101611d6a565b51815160209384036101000a600019018019909216911617905260408051929094018290039091208652850195909552929092016000208054600160a060020a031916600160a060020a03959095169490941790935550505050565b600060026000836040516020018080600080516020615236833981519152815250600b0182600160a060020a0316600160a060020a0316606060020a0281526014019150506040516020818303038152906040526040518082805190602001908083835b60208310611e685780518252601f199092019160209182019101611e49565b51815160209384036101000a600019018019909216911617905260408051929094018290039091208652850195909552929092016000205495945050505050565b600060026000836040516020018080600080516020615156833981519152815250600c0182600160a060020a0316600160a060020a0316606060020a02815260140191505060405160208183030381529060405260405180828051906020019080838360208310611e685780518252601f199092019160209182019101611e49565b61870081565b6060611f3b612d60565b600160a060020a031663f89d40866040518163ffffffff1660e060020a028152600401602060405180830381600087803b158015611f7857600080fd5b505af1158015611f8c573d6000803e3d6000fd5b505050506040513d6020811015611fa257600080fd5b5051600160a060020a03163314611fb857600080fd5b611fc18261389b565b611fc9613502565b1561224d57611fd6612d60565b600160a060020a0316631986d3766040518163ffffffff1660e060020a028152600401602060405180830381600087803b15801561201357600080fd5b505af1158015612027573d6000803e3d6000fd5b505050506040513d602081101561203d57600080fd5b5051600160a060020a031663bbac62c86120556127db565b6040518263ffffffff1660e060020a0281526004018080602001828103825283818151815260200191508051906020019060200280838360005b838110156120a757818101518382015260200161208f565b5050505090500192505050600060405180830381600087803b1580156120cc57600080fd5b505af11580156120e0573d6000803e3d6000fd5b505050506120ec6139cb565b6120fc6120f76127db565b613b3c565b612104612842565b905060008151111561211957612119816126c5565b600061212361146d565b1115612167576121336000612b79565b61213d60016116a5565b6040517fad8a61077dff62d25ea1bf7cf1af88e1b48075c3d497d494ac9b129b73b0d37c90600090a15b61216f612d60565b600160a060020a031663f89d40866040518163ffffffff1660e060020a028152600401602060405180830381600087803b1580156121ac57600080fd5b505af11580156121c0573d6000803e3d6000fd5b505050506040513d60208110156121d657600080fd5b5051604080517fb1f0c8e10000000000000000000000000000000000000000000000000000000081529051600160a060020a039092169163b1f0c8e19160048082019260009290919082900301818387803b15801561223457600080fd5b505af1158015612248573d6000803e3d6000fd5b505050505b5050565b600581565b6000611342600161226a60026119f96115c5565b9063ffffffff613c2116565b6060600a6000836040516020018080600080516020615136833981519152815250600a0182600160a060020a0316600160a060020a0316606060020a02815260140191505060405160208183030381529060405260405180828051906020019080838360208310610f265780518252601f199092019160209182019101610f07565b60006006600060405160200180807f697346696e616c697a6564000000000000000000000000000000000000000000815250600b019050604051602081830303815290604052604051808280519060200190808383602083106115755780518252601f199092019160209182019101611556565b6000600a60006040516020018080600080516020615116833981519152815250601001905060405160208183030381529060405260405180828051906020019080838360208310610e1d5780518252601f199092019160209182019101610dfe565b60006004600060405160200180807f53595354454d5f41444452455353000000000000000000000000000000000000815250600e0190506040516020818303038152906040526040518082805190602001908083835b602083106124435780518252601f199092019160209182019101612424565b51815160209384036101000a6000190180199092169116179052604080519290940182900390912086528501959095529290920160002054600160a060020a0316949350505050565b670214e8348c4f000081565b60006002600060405160200180807f63757272656e744379636c655374617274426c6f636b00000000000000000000815250601601905060405160208183030381529060405260405180828051906020019080838360208310610d795780518252601f199092019160209182019101610d5a565b61251533612f24565b151561252057600080fd5b612528612e68565b151561253357600080fd5b600061253d61146d565b1161254757600080fd5b6000194301407f55252fa6eee4741b4e24a74a70e9c11fd2c2281df8d6ea13126ff845f7825c896125766117da565b60408051602080825283518183015283519192839290830191858101910280838360005b838110156125b257818101518382015260200161259a565b505050509050019250505060405180910390a26115c360006116a5565b60006002600060405160200180806000805160206151d6833981519152815250601001905060405160208183030381529060405260405180828051906020019080838360208310610d795780518252601f199092019160209182019101610d5a565b6000600260008360405160200180807f76616c696461746f724665650000000000000000000000000000000000000000815250600c0182600160a060020a0316600160a060020a0316606060020a02815260140191505060405160208183030381529060405260405180828051906020019080838360208310611e685780518252601f199092019160209182019101611e49565b80600a600060405160200180807f6e657756616c696461746f725365740000000000000000000000000000000000815250600f0190506040516020818303038152906040526040518082805190602001908083835b602083106127395780518252601f19909201916020918201910161271a565b51815160001960209485036101000a0190811690199190911617905260408051949092018490039093208652858301969096525092909301600020845161224d95919450920191905061504e565b6000805b61279484612bec565b8110156127cf576127a58482612c78565b600160a060020a031683600160a060020a031614156127c757600191506127d4565b60010161278b565b600091505b5092915050565b6060600a600060405160200180806000805160206151f683398151915281525060110190506040516020818303038152906040526040518082805190602001908083836020831061184f5780518252601f199092019160209182019101611830565b607890565b6060600a6000604051602001808060008051602061517683398151915281525060110190506040516020818303038152906040526040518082805190602001908083836020831061184f5780518252601f199092019160209182019101611830565b60006002600060405160200180807f63757272656e744379636c65456e64426c6f636b000000000000000000000000815250601401905060405160208183030381529060405260405180828051906020019080838360208310610d795780518252601f199092019160209182019101610d5a565b60606113426127db565b6000600260008360405160200180806000805160206151b6833981519152815250600b0182600160a060020a0316600160a060020a0316606060020a02815260140191505060405160208183030381529060405260405180828051906020019080838360208310611e685780518252601f199092019160209182019101611e49565b6004600060405160200180807f6f776e657200000000000000000000000000000000000000000000000000000081525060050190506040516020818303038152906040526040518082805190602001908083835b60208310612a175780518252601f1990920191602091820191016129f8565b51815160209384036101000a6000190180199092169116179052604080519290940182900390912086528501959095529290920160002054600160a060020a031633149250612a6891505057600080fd5b612a70611500565b15612a7a57600080fd5b612a9773fffffffffffffffffffffffffffffffffffffffe611d15565b612a9f6139cb565b600160a060020a0381161515612abd57612ab833613c33565b612ac6565b612ac681613c33565b612ad06001612b79565b6114fd6001613c93565b6a0422ca8b0a00a42500000081565b69152d02c7e14af680000081565b600060026000836040516020018080600080516020615196833981519152815250600b0182600160a060020a0316600160a060020a0316606060020a02815260140191505060405160208183030381529060405260405180828051906020019080838360208310611e685780518252601f199092019160209182019101611e49565b806006600060405160200180807f697346696e616c697a6564000000000000000000000000000000000000000000815250600b0190506040516020818303038152906040526040518082805190602001908083836020831061128e5780518252601f19909201916020918201910161126f565b6000600a6000836040516020018080600080516020615136833981519152815250600a0182600160a060020a0316600160a060020a0316606060020a02815260140191505060405160208183030381529060405260405180828051906020019080838360208310611e685780518252601f199092019160209182019101611e49565b61224d8282613182565b6000600a6000846040516020018080600080516020615136833981519152815250600a0182600160a060020a0316600160a060020a0316606060020a0281526014019150506040516020818303038152906040526040518082805190602001908083835b60208310612cfb5780518252601f199092019160209182019101612cdc565b51815160209384036101000a60001901801990921691161790526040805192909401829003909120865285019590955292909201600020805490935085925082109050612d4457fe5b600091825260209091200154600160a060020a03169392505050565b60006004600060405160200180807f70726f787953746f726167650000000000000000000000000000000000000000815250600c019050604051602081830303815290604052604051808280519060200190808383602083106124435780518252601f199092019160209182019101612424565b6000600260008360405160200180807f72656c65617365426c6f636b0000000000000000000000000000000000000000815250600c0182600160a060020a0316600160a060020a0316606060020a02815260140191505060405160208183030381529060405260405180828051906020019080838360208310611e685780518252601f199092019160209182019101611e49565b60006006600060405160200180807f73686f756c64456d6974496e6974696174654368616e676500000000000000008152506018019050604051602081830303815290604052604051808280519060200190808383602083106115755780518252601f199092019160209182019101611556565b60005b815181101561224d57612f118282815181101515612ef957fe5b90602001906020020151670de0b6b3a7640000613182565b600101612edf565b61224d338284613514565b6000805b612f306115c5565b81101561132d57612f408161176d565b600160a060020a031683600160a060020a03161415612f625760019150611332565b600101612f28565b6000805b612f7661140b565b81101561132d57612f8681610dba565b600160a060020a031683600160a060020a03161415612fa85760019150611332565b600101612f6e565b6114fd81613d06565b690a968163f0a57b40000090565b60408051600080516020615216833981519152602080830191909152606060020a600160a060020a038088168202602f850152861602604383015282516037818403018152605790920192839052815161309193859360029360009391929182918401908083835b6020831061304e5780518252601f19909201916020918201910161302f565b51815160209384036101000a600019018019909216911617905260408051929094018290039091208652850195909552929092016000205493925050613c219050565b60408051600080516020615216833981519152602080830191909152606060020a600160a060020a038089168202602f850152871602604383015282516037818403018152605790920192839052815160029360009392909182918401908083835b602083106131125780518252601f1990920191602091820191016130f3565b51815160209384036101000a6000190180199092169116179052604080519290940182900390912086528501959095529290920160002093909355505050600160a060020a038281169084161480159061317357506131718284612787565b155b15610d1157610d118383613d67565b61320681600260008560405160200180806000805160206151b6833981519152815250600b0182600160a060020a0316600160a060020a0316606060020a0281526014019150506040516020818303038152906040526040518082805190602001908083836020831061304e5780518252601f19909201916020918201910161302f565b600260008460405160200180806000805160206151b6833981519152815250600b0182600160a060020a0316600160a060020a0316606060020a028152601401915050604051602081830303815290604052604051808280519060200190808383602083106116635780518252601f199092019160209182019101611644565b61328f816112e7565b1561329957600080fd5b600a6000604051602001808060008051602061517683398151915281525060110190506040516020818303038152906040526040518082805190602001908083835b602083106132fa5780518252601f1990920191602091820191016132db565b51815160209384036101000a600019018019909216911617905260408051929094018290039091208652858101969096525092909201600090812080546001810182559082529390209092018054600160a060020a031916600160a060020a0394909416939093179092555050565b80600260008460405160200180807f76616c696461746f724665650000000000000000000000000000000000000000815250600c0182600160a060020a0316600160a060020a0316606060020a028152601401915050604051602081830303815290604052604051808280519060200190808383602083106116635780518252601f199092019160209182019101611644565b613460816002600060405160200180806000805160206151d683398151915281525060100190506040516020818303038152906040526040518082805190602001908083836020831061304e5780518252601f19909201916020918201910161302f565b6002600060405160200180806000805160206151d683398151915281525060100190506040516020818303038152906040526040518082805190602001908083835b602083106134c15780518252601f1990920191602091820191016134a2565b51815160209384036101000a600019018019909216911617905260408051929094018290039091208652850195909552929092016000209390935550505050565b600061350c6128a4565b431015905090565b6000600160a060020a038216151561352b57600080fd5b6000831161353857600080fd5b61354182612922565b83111561354d57600080fd5b6135578483611347565b83111561356357600080fd5b61356c82612f24565b905061357661175f565b61358f8461358385612922565b9063ffffffff613e5816565b1080156135995750805b156135ac576135a782613e6f565b613628565b6135b784838561406d565b6135c182846142bf565b80156135d0576135d083614343565b6135d861175f565b6135e183612922565b10156135f0576135f082613e6f565b604051600160a060020a0385169084156108fc029085906000818181858888f19350505050158015613626573d6000803e3d6000fd5b505b50505050565b6000600a600060405160200180806000805160206151f6833981519152815250601101905060405160208183030381529060405260405180828051906020019080838360208310610d795780518252601f199092019160209182019101610d5a565b6000818310156136a057816136a2565b825b9392505050565b6000808315156136bc57600091506127d4565b508282028284828115156136cc57fe5b04146136a257600080fd5b6000808083116136e657600080fd5b82848115156136f157fe5b04949350505050565b61370381613e6f565b6114fd816143a7565b61371581614407565b61371d61175f565b61372682612922565b1015801561373a575061373881612f6a565b155b156114fd576114fd81613286565b60008080805b84518310156137e257613777858481518110151561376857fe5b90602001906020020151612922565b9150818401935061379e858481518110151561378f57fe5b90602001906020020151612631565b90506137a86112db565b8110156137d7576137d785848151811015156137c057fe5b906020019060200201516137d26112db565b613369565b60019092019161374e565b6137eb84613d06565b84600a600060405160200180806000805160206151f683398151915281525060110190506040516020818303038152906040526040518082805190602001908083835b6020831061384d5780518252601f19909201916020918201910161382e565b51815160001960209485036101000a0190811690199190911617905260408051949092018490039093208652858301969096525092909301600020845161224895919450920191905061504e565b60026000826040516020018080600080516020615156833981519152815250600c0182600160a060020a0316600160a060020a0316606060020a0281526014019150506040516020818303038152906040526040518082805190602001908083835b6020831061391c5780518252601f1990920191602091820191016138fd565b51815160209384036101000a6000190180199092169116179052604080519290940182900390912086528581019690965250928301600090812054845160008051602061515683398151915281880152600160a060020a038816606060020a02602c82015285518082038801815290860195869052805160019092019660029693955090935082918482019181908490849083106134c15780518252601f1990920191602091820191016134a2565b436002600060405160200180807f63757272656e744379636c655374617274426c6f636b0000000000000000000081525060160190506040516020818303038152906040526040518082805190602001908083835b60208310613a3f5780518252601f199092019160209182019101613a20565b51815160209384036101000a600019018019909216911617905260408051929094018290039091208652850195909552929092016000209390935550613a87915061283d9050565b43016002600060405160200180807f63757272656e744379636c65456e64426c6f636b00000000000000000000000081525060140190506040516020818303038152906040526040518082805190602001908083835b60208310613afc5780518252601f199092019160209182019101613add565b51815160209384036101000a6000190180199092169116179052604080519290940182900390912086528501959095529290920160002093909355505050565b600080613b586127106119f985516119f9610bb8611a0561283d565b9150600090505b8251811015610d115781613b898483815181101515613b7a57fe5b90602001906020020151611ea9565b1015613bb457613baf8382815181101515613ba057fe5b906020019060200201516145ad565b613bf9565b613bd48382815181101515613bc557fe5b90602001906020020151611de5565b15613bf957613bf98382815181101515613bea57fe5b906020019060200201516145d1565b613c198382815181101515613c0a57fe5b90602001906020020151614810565b600101613b5f565b6000828201838110156136a257600080fd5b600a600060405160200180806000805160206151f68339815191528152506011019050604051602081830303815290604052604051808280519060200190808383602083106132fa5780518252601f1990920191602091820191016132db565b806006600060405160200180807f6973496e697469616c697a656400000000000000000000000000000000000000815250600d0190506040516020818303038152906040526040518082805190602001908083836020831061128e5780518252601f19909201916020918201910161126f565b806002600060405160200180806000805160206151d68339815191528152506010019050604051602081830303815290604052604051808280519060200190808383602083106134c15780518252601f1990920191602091820191016134a2565b600a6000826040516020018080600080516020615136833981519152815250600a0182600160a060020a0316600160a060020a0316606060020a0281526014019150506040516020818303038152906040526040518082805190602001908083835b60208310613de85780518252601f199092019160209182019101613dc9565b51815160209384036101000a600019018019909216911617905260408051929094018290039091208652858101969096525092909201600090812080546001810182559082529390209092018054600160a060020a031916600160a060020a039590951694909417909355505050565b60008083831115613e6857600080fd5b5050900390565b6000808080805b613e7e61140b565b831015613ebe57613e8e83610dba565b600160a060020a031686600160a060020a03161415613eb35782935060019450613ebe565b600190920191613e76565b8415612248576001613ece61140b565b039150613eda82610dba565b9050600160a060020a03811615613ef557613ef58482614892565b600a6000604051602001808060008051602061517683398151915281525060110190506040516020818303038152906040526040518082805190602001908083835b60208310613f565780518252601f199092019160209182019101613f37565b51815160209384036101000a60001901801990921691161790526040805192909401829003909120865285019590955292909201600020805490935085925082109050613f9f57fe5b600091825260208083209091018054600160a060020a03191690556040805160008051602061517683398151915281840152815180820360110181526031909101918290528051600a94939192918291908401908083835b602083106140165780518252601f199092019160209182019101613ff7565b51815160001960209485036101000a810191821691199290921617909152604080519590930185900390942087528601969096525092909301600020805493506140649290915083016150b3565b50505050505050565b60408051600080516020615216833981519152602080830191909152606060020a600160a060020a038088168202602f850152861602604383015282516037818403018152605790920192839052815161413793859360029360009391929182918401908083835b602083106140f45780518252601f1990920191602091820191016140d5565b51815160209384036101000a600019018019909216911617905260408051929094018290039091208652850195909552929092016000205493925050613e589050565b60408051600080516020615216833981519152602080830191909152606060020a600160a060020a038089168202602f850152871602604383015282516037818403018152605790920192839052815160029360009392909182918401908083835b602083106141b85780518252601f199092019160209182019101614199565b51815160001960209485036101000a019081169019919091161790526040805194909201849003909320865285830196909652509284016000908120959095555050815160008051602061521683398151915281830152606060020a600160a060020a038089168202602f84015287160260438201528251603781830301815260579091019283905280516002949391928291908401908083835b602083106142725780518252601f199092019160209182019101614253565b51815160209384036101000a600019018019909216911617905260408051929094018290039091208652850195909552929092016000205415159250610d1191505057610d11838361496f565b61320681600260008560405160200180806000805160206151b6833981519152815250600b0182600160a060020a0316600160a060020a0316606060020a028152601401915050604051602081830303815290604052604051808280519060200190808383602083106140f45780518252601f1990920191602091820191016140d5565b613460816002600060405160200180806000805160206151d68339815191528152506010019050604051602081830303815290604052604051808280519060200190808383602083106140f45780518252601f1990920191602091820191016140d5565b600a600060405160200180806000805160206151168339815191528152506010019050604051602081830303815290604052604051808280519060200190808383602083106132fa5780518252601f1990920191602091820191016132db565b6000808080805b614416610d16565b831015614456576144268361236c565b600160a060020a031686600160a060020a0316141561444b5782935060019450614456565b60019092019161440e565b8415612248576001614466610d16565b0391506144728261236c565b9050600160a060020a0381161561448d5761448d8482614ba8565b600a6000604051602001808060008051602061511683398151915281525060100190506040516020818303038152906040526040518082805190602001908083835b602083106144ee5780518252601f1990920191602091820191016144cf565b51815160209384036101000a6000190180199092169116179052604080519290940182900390912086528501959095529290920160002080549093508592508210905061453757fe5b600091825260208083209091018054600160a060020a03191690556040805160008051602061511683398151915281840152815180820360100181526030909101918290528051600a9493919291829190840190808383602083106140165780518252601f199092019160209182019101613ff7565b6145b681613e6f565b6145bf816143a7565b6145c881614c09565b6114fd81614e4c565b60026000826040516020018080600080516020615196833981519152815250600b0182600160a060020a0316600160a060020a0316606060020a0281526014019150506040516020818303038152906040526040518082805190602001908083835b602083106146525780518252601f199092019160209182019101614633565b51815160209384036101000a6000190180199092169116179052604080519290940182900390912086528581019690965250928301600090812054845160008051602061519683398151915281880152600160a060020a038816606060020a02602b8201528551808203601f018152603f9091019586905280516001909201966002969395509093508291908401908083835b602083106147045780518252601f1990920191602091820191016146e5565b51815160209384036101000a60001901801990921691161790526040805192909401829003909120865285810196909652509283016000908120959095555050805160008051602061519683398151915281840152600160a060020a038516606060020a02602b8201528151808203601f018152603f90910191829052805160329460029490939182918401908083835b602083106147b45780518252601f199092019160209182019101614795565b6001836020036101000a0380198251168184511680821785525050505050509050019150506040518091039020600019166000191681526020019081526020016000205411156114fd5761480781614e4c565b6114fd81614ece565b600060026000836040516020018080600080516020615156833981519152815250600c0182600160a060020a0316600160a060020a0316606060020a028152601401915050604051602081830303815290604052604051808280519060200190808383602083106134c15780518252601f1990920191602091820191016134a2565b80600a6000604051602001808060008051602061517683398151915281525060110190506040516020818303038152906040526040518082805190602001908083835b602083106148f45780518252601f1990920191602091820191016148d5565b51815160209384036101000a6000190180199092169116179052604080519290940182900390912086528501959095529290920160002080549093508692508210905061493d57fe5b9060005260206000200160006101000a815481600160a060020a030219169083600160a060020a031602179055505050565b6000808080805b61497f86612bec565b8310156149c0576149908684612c78565b600160a060020a031687600160a060020a031614156149b557829350600194506149c0565b600190920191614976565b84156140645760016149d187612bec565b0391506149de8683612c78565b9050600160a060020a038116156149fa576149fa868583614f50565b600a6000876040516020018080600080516020615136833981519152815250600a0182600160a060020a0316600160a060020a0316606060020a0281526014019150506040516020818303038152906040526040518082805190602001908083835b60208310614a7b5780518252601f199092019160209182019101614a5c565b51815160209384036101000a60001901801990921691161790526040805192909401829003909120865285019590955292909201600020805490935085925082109050614ac457fe5b600091825260208083209091018054600160a060020a03191690556040805160008051602061513683398151915281840152606060020a600160a060020a038b1602602a8201528151601e818303018152603e909101918290528051600a94939192918291908401908083835b60208310614b505780518252601f199092019160209182019101614b31565b51815160001960209485036101000a81019182169119929092161790915260408051959093018590039094208752860196909652509290930160002080549350614b9e9290915083016150b3565b5050505050505050565b80600a600060405160200180806000805160206151168339815191528152506010019050604051602081830303815290604052604051808280519060200190808383602083106148f45780518252601f1990920191602091820191016148d5565b600060026000836040516020018080600080516020615236833981519152815250600b0182600160a060020a0316600160a060020a0316606060020a0281526014019150506040516020818303038152906040526040518082805190602001908083835b60208310614c8c5780518252601f199092019160209182019101614c6d565b6001836020036101000a038019825116818451168082178552505050505050905001915050604051809103902060001916600019168152602001908152602001600020549050614cee6001613583614ce684611a0561283d565b61226a6128a4565b600260008460405160200180807f72656c65617365426c6f636b0000000000000000000000000000000000000000815250600c0182600160a060020a0316600160a060020a0316606060020a0281526014019150506040516020818303038152906040526040518082805190602001908083835b60208310614d815780518252601f199092019160209182019101614d62565b51815160209384036101000a6000190180199092169116179052604080519290940182900390912086528501959095529290920160002093909355505060058211905061224d578060010160026000846040516020018080600080516020615236833981519152815250600b0182600160a060020a0316600160a060020a0316606060020a028152601401915050604051602081830303815290604052604051808280519060200190808383602083106116635780518252601f199092019160209182019101611644565b600060026000836040516020018080600080516020615196833981519152815250600b0182600160a060020a0316600160a060020a0316606060020a028152601401915050604051602081830303815290604052604051808280519060200190808383602083106134c15780518252601f1990920191602091820191016134a2565b600060026000836040516020018080600080516020615236833981519152815250600b0182600160a060020a0316600160a060020a0316606060020a028152601401915050604051602081830303815290604052604051808280519060200190808383602083106134c15780518252601f1990920191602091820191016134a2565b80600a6000856040516020018080600080516020615136833981519152815250600a0182600160a060020a0316600160a060020a0316606060020a0281526014019150506040516020818303038152906040526040518082805190602001908083835b60208310614fd25780518252601f199092019160209182019101614fb3565b51815160209384036101000a6000190180199092169116179052604080519290940182900390912086528501959095529290920160002080549093508692508210905061501b57fe5b9060005260206000200160006101000a815481600160a060020a030219169083600160a060020a03160217905550505050565b8280548282559060005260206000209081019282156150a3579160200282015b828111156150a35782518254600160a060020a031916600160a060020a0390911617825560209092019160019091019061506e565b506150af9291506150d7565b5090565b815481835581811115610d1157600083815260209020610d119181019083016150fb565b610db791905b808211156150af578054600160a060020a03191681556001016150dd565b610db791905b808211156150af576000815560010161510156006a61696c656456616c696461746f72730000000000000000000000000000000064656c656761746f727300000000000000000000000000000000000000000000626c6f636b436f756e746572000000000000000000000000000000000000000070656e64696e6756616c696461746f7273000000000000000000000000000000737472696b6552657365740000000000000000000000000000000000000000007374616b65416d6f756e74000000000000000000000000000000000000000000746f74616c5374616b65416d6f756e740000000000000000000000000000000063757272656e7456616c696461746f727300000000000000000000000000000064656c656761746564416d6f756e740000000000000000000000000000000000737472696b65436f756e74000000000000000000000000000000000000000000a165627a7a72305820c4bd63bc999362a086d11e7be5cf10ce24dacda4c1b018a294279d980e1305600029",
  "linkReferences": {},
  "deployedLinkReferences": {}
}