{
  "_format": "hh-sol-artifact-1",
  "contractName": "OwnershipDataEncoder",
  "sourceName": "contracts/multisig-wallet/OwnershipDataEncoder.sol",
  "abi": [
    {
      "anonymous": false,
      "inputs": [
        {
          "indexed": true,
          "internalType": "address",
          "name": "previousOwner",
          "type": "address"
        },
        {
          "indexed": true,
          "internalType": "address",
          "name": "newOwner",
          "type": "address"
        }
      ],
      "name": "OwnershipTransferred",
      "type": "event"
    },
    {
      "inputs": [
        {
          "internalType": "address",
          "name": "_newOwner",
          "type": "address"
        }
      ],
      "name": "getData",
      "outputs": [
        {
          "internalType": "bytes",
          "name": "",
          "type": "bytes"
        }
      ],
      "stateMutability": "pure",
      "type": "function"
    },
    {
      "inputs": [],
      "name": "getOwner",
      "outputs": [
        {
          "internalType": "address",
          "name": "",
          "type": "address"
        }
      ],
      "stateMutability": "view",
      "type": "function"
    },
    {
      "inputs": [
        {
          "internalType": "address",
          "name": "_newOwner",
          "type": "address"
        }
      ],
      "name": "transferOwnership",
      "outputs": [],
      "stateMutability": "nonpayable",
      "type": "function"
    }
  ],
  "bytecode": "0x608060405234801561001057600080fd5b506102bf806100206000396000f3fe608060405234801561001057600080fd5b50600436106100415760003560e01c806338266b2214610046578063893d20e8146100b2578063f2fde38b146100d2575b600080fd5b61009c61005436600461020b565b6040516001600160a01b038216602482015260609060440160408051601f198184030181529190526020810180516001600160e01b031663f2fde38b60e01b17905292915050565b6040516100a9919061023b565b60405180910390f35b6100ba6100e7565b6040516001600160a01b0390911681526020016100a9565b6100e56100e036600461020b565b61013b565b005b6000806000604051602001610107906437bbb732b960d91b815260050190565b60408051601f19818403018152918152815160209283012083529082019290925201600020546001600160a01b0316919050565b6001600160a01b03811661014e57600080fd5b806001600160a01b03166101606100e7565b6001600160a01b03167f8be0079c531659141344cd1fd0a4f28419497f9722a3daafe3b4186f6b6457e060405160405180910390a361019e816101a1565b50565b806000806040516020016101c0906437bbb732b960d91b815260050190565b60405160208183030381529060405280519060200120815260200190815260200160002060006101000a8154816001600160a01b0302191690836001600160a01b0316021790555050565b60006020828403121561021d57600080fd5b81356001600160a01b038116811461023457600080fd5b9392505050565b600060208083528351808285015260005b818110156102685785810183015185820160400152820161024c565b506000604082860101526040601f19601f830116850101925050509291505056fea26469706673582212208b5f955b1275ce1db1a6b5f7eed21890bb33fe259eda9ddc5242d9decb9ceb4264736f6c63430008110033",
  "linkReferences": {},
  "deployedLinkReferences": {}
}