{
  "_format": "hh-sol-artifact-1",
  "contractName": "Consensus",
  "sourceName": "contracts/Consensus.sol",
  "abi": [
    {
      "constant": true,
      "inputs": [],
      "name": "jailedValidatorsLength",
      "outputs": [
        {
          "name": "",
          "type": "uint256"
        }
      ],
      "payable": false,
      "stateMutability": "view",
      "type": "function"
    },
    {
      "constant": true,
      "inputs": [
        {
          "name": "_p",
          "type": "uint256"
        }
      ],
      "name": "pendingValidatorsAtPosition",
      "outputs": [
        {
          "name": "",
          "type": "address"
        }
      ],
      "payable": false,
      "stateMutability": "view",
      "type": "function"
    },
    {
      "constant": true,
      "inputs": [
        {
          "name": "_snapshotId",
          "type": "uint256"
        }
      ],
      "name": "getSnapshotAddresses",
      "outputs": [
        {
          "name": "",
          "type": "address[]"
        }
      ],
      "payable": false,
      "stateMutability": "view",
      "type": "function"
    },
    {
      "constant": false,
      "inputs": [
        {
          "name": "_newAddress",
          "type": "address"
        }
      ],
      "name": "setProxyStorage",
      "outputs": [],
      "payable": false,
      "stateMutability": "nonpayable",
      "type": "function"
    },
    {
      "constant": true,
      "inputs": [],
      "name": "getMinValidatorFee",
      "outputs": [
        {
          "name": "",
          "type": "uint256"
        }
      ],
      "payable": false,
      "stateMutability": "pure",
      "type": "function"
    },
    {
      "constant": true,
      "inputs": [
        {
          "name": "_address",
          "type": "address"
        }
      ],
      "name": "isJailed",
      "outputs": [
        {
          "name": "",
          "type": "bool"
        }
      ],
      "payable": false,
      "stateMutability": "view",
      "type": "function"
    },
    {
      "constant": false,
      "inputs": [
        {
          "name": "_paused",
          "type": "bool"
        }
      ],
      "name": "setPaused",
      "outputs": [],
      "payable": false,
      "stateMutability": "nonpayable",
      "type": "function"
    },
    {
      "constant": true,
      "inputs": [
        {
          "name": "_address",
          "type": "address"
        },
        {
          "name": "_validator",
          "type": "address"
        }
      ],
      "name": "delegatedAmount",
      "outputs": [
        {
          "name": "",
          "type": "uint256"
        }
      ],
      "payable": false,
      "stateMutability": "view",
      "type": "function"
    },
    {
      "constant": true,
      "inputs": [],
      "name": "pendingValidatorsLength",
      "outputs": [
        {
          "name": "",
          "type": "uint256"
        }
      ],
      "payable": false,
      "stateMutability": "view",
      "type": "function"
    },
    {
      "constant": true,
      "inputs": [],
      "name": "newValidatorSetLength",
      "outputs": [
        {
          "name": "",
          "type": "uint256"
        }
      ],
      "payable": false,
      "stateMutability": "view",
      "type": "function"
    },
    {
      "constant": true,
      "inputs": [],
      "name": "DECIMALS",
      "outputs": [
        {
          "name": "",
          "type": "uint256"
        }
      ],
      "payable": false,
      "stateMutability": "view",
      "type": "function"
    },
    {
      "constant": false,
      "inputs": [
        {
          "name": "_amount",
          "type": "uint256"
        }
      ],
      "name": "withdraw",
      "outputs": [],
      "payable": false,
      "stateMutability": "nonpayable",
      "type": "function"
    },
    {
      "constant": true,
      "inputs": [],
      "name": "isInitialized",
      "outputs": [
        {
          "name": "",
          "type": "bool"
        }
      ],
      "payable": false,
      "stateMutability": "view",
      "type": "function"
    },
    {
      "constant": false,
      "inputs": [],
      "name": "stake",
      "outputs": [],
      "payable": true,
      "stateMutability": "payable",
      "type": "function"
    },
    {
      "constant": true,
      "inputs": [],
      "name": "currentValidatorsLength",
      "outputs": [
        {
          "name": "",
          "type": "uint256"
        }
      ],
      "payable": false,
      "stateMutability": "view",
      "type": "function"
    },
    {
      "constant": false,
      "inputs": [
        {
          "name": "_amount",
          "type": "uint256"
        }
      ],
      "name": "setValidatorFee",
      "outputs": [],
      "payable": false,
      "stateMutability": "nonpayable",
      "type": "function"
    },
    {
      "constant": true,
      "inputs": [],
      "name": "getMinStake",
      "outputs": [
        {
          "name": "",
          "type": "uint256"
        }
      ],
      "payable": false,
      "stateMutability": "pure",
      "type": "function"
    },
    {
      "constant": true,
      "inputs": [
        {
          "name": "_p",
          "type": "uint256"
        }
      ],
      "name": "currentValidatorsAtPosition",
      "outputs": [
        {
          "name": "",
          "type": "address"
        }
      ],
      "payable": false,
      "stateMutability": "view",
      "type": "function"
    },
    {
      "constant": false,
      "inputs": [
        {
          "name": "_validator",
          "type": "address"
        }
      ],
      "name": "delegate",
      "outputs": [],
      "payable": true,
      "stateMutability": "payable",
      "type": "function"
    },
    {
      "constant": true,
      "inputs": [],
      "name": "paused",
      "outputs": [
        {
          "name": "",
          "type": "bool"
        }
      ],
      "payable": false,
      "stateMutability": "view",
      "type": "function"
    },
    {
      "constant": true,
      "inputs": [],
      "name": "newValidatorSet",
      "outputs": [
        {
          "name": "",
          "type": "address[]"
        }
      ],
      "payable": false,
      "stateMutability": "view",
      "type": "function"
    },
    {
      "constant": true,
      "inputs": [],
      "name": "jailedValidators",
      "outputs": [
        {
          "name": "",
          "type": "address[]"
        }
      ],
      "payable": false,
      "stateMutability": "view",
      "type": "function"
    },
    {
      "constant": true,
      "inputs": [
        {
          "name": "_validator",
          "type": "address"
        },
        {
          "name": "_rewardAmount",
          "type": "uint256"
        }
      ],
      "name": "getDelegatorsForRewardDistribution",
      "outputs": [
        {
          "name": "",
          "type": "address[]"
        },
        {
          "name": "",
          "type": "uint256[]"
        }
      ],
      "payable": false,
      "stateMutability": "view",
      "type": "function"
    },
    {
      "constant": true,
      "inputs": [],
      "name": "STRIKE_RESET",
      "outputs": [
        {
          "name": "",
          "type": "uint256"
        }
      ],
      "payable": false,
      "stateMutability": "view",
      "type": "function"
    },
    {
      "constant": false,
      "inputs": [],
      "name": "maintenance",
      "outputs": [],
      "payable": false,
      "stateMutability": "nonpayable",
      "type": "function"
    },
    {
      "constant": false,
      "inputs": [],
      "name": "unJail",
      "outputs": [],
      "payable": false,
      "stateMutability": "nonpayable",
      "type": "function"
    },
    {
      "constant": true,
      "inputs": [],
      "name": "MAX_VALIDATORS",
      "outputs": [
        {
          "name": "",
          "type": "uint256"
        }
      ],
      "payable": false,
      "stateMutability": "view",
      "type": "function"
    },
    {
      "constant": true,
      "inputs": [],
      "name": "VALIDATOR_PRODUCTIVITY_BP",
      "outputs": [
        {
          "name": "",
          "type": "uint256"
        }
      ],
      "payable": false,
      "stateMutability": "view",
      "type": "function"
    },
    {
      "constant": false,
      "inputs": [],
      "name": "finalizeChange",
      "outputs": [],
      "payable": false,
      "stateMutability": "nonpayable",
      "type": "function"
    },
    {
      "constant": true,
      "inputs": [],
      "name": "getMaxValidators",
      "outputs": [
        {
          "name": "",
          "type": "uint256"
        }
      ],
      "payable": false,
      "stateMutability": "pure",
      "type": "function"
    },
    {
      "constant": true,
      "inputs": [
        {
          "name": "_validator",
          "type": "address"
        }
      ],
      "name": "getStrikes",
      "outputs": [
        {
          "name": "",
          "type": "uint256"
        }
      ],
      "payable": false,
      "stateMutability": "view",
      "type": "function"
    },
    {
      "constant": true,
      "inputs": [
        {
          "name": "_validator",
          "type": "address"
        }
      ],
      "name": "blockCounter",
      "outputs": [
        {
          "name": "",
          "type": "uint256"
        }
      ],
      "payable": false,
      "stateMutability": "view",
      "type": "function"
    },
    {
      "constant": true,
      "inputs": [],
      "name": "CYCLE_DURATION_BLOCKS",
      "outputs": [
        {
          "name": "",
          "type": "uint256"
        }
      ],
      "payable": false,
      "stateMutability": "view",
      "type": "function"
    },
    {
      "constant": false,
      "inputs": [
        {
          "name": "_validator",
          "type": "address"
        }
      ],
      "name": "cycle",
      "outputs": [],
      "payable": false,
      "stateMutability": "nonpayable",
      "type": "function"
    },
    {
      "constant": true,
      "inputs": [],
      "name": "MAX_STRIKE_COUNT",
      "outputs": [
        {
          "name": "",
          "type": "uint256"
        }
      ],
      "payable": false,
      "stateMutability": "view",
      "type": "function"
    },
    {
      "constant": true,
      "inputs": [],
      "name": "requiredSignatures",
      "outputs": [
        {
          "name": "",
          "type": "uint256"
        }
      ],
      "payable": false,
      "stateMutability": "view",
      "type": "function"
    },
    {
      "constant": true,
      "inputs": [
        {
          "name": "_validator",
          "type": "address"
        }
      ],
      "name": "delegators",
      "outputs": [
        {
          "name": "",
          "type": "address[]"
        }
      ],
      "payable": false,
      "stateMutability": "view",
      "type": "function"
    },
    {
      "constant": true,
      "inputs": [],
      "name": "isFinalized",
      "outputs": [
        {
          "name": "",
          "type": "bool"
        }
      ],
      "payable": false,
      "stateMutability": "view",
      "type": "function"
    },
    {
      "constant": true,
      "inputs": [
        {
          "name": "_p",
          "type": "uint256"
        }
      ],
      "name": "jailedValidatorsAtPosition",
      "outputs": [
        {
          "name": "",
          "type": "address"
        }
      ],
      "payable": false,
      "stateMutability": "view",
      "type": "function"
    },
    {
      "constant": true,
      "inputs": [],
      "name": "DEFAULT_VALIDATOR_FEE",
      "outputs": [
        {
          "name": "",
          "type": "uint256"
        }
      ],
      "payable": false,
      "stateMutability": "view",
      "type": "function"
    },
    {
      "constant": true,
      "inputs": [],
      "name": "getCurrentCycleStartBlock",
      "outputs": [
        {
          "name": "",
          "type": "uint256"
        }
      ],
      "payable": false,
      "stateMutability": "view",
      "type": "function"
    },
    {
      "constant": false,
      "inputs": [],
      "name": "emitInitiateChange",
      "outputs": [],
      "payable": false,
      "stateMutability": "nonpayable",
      "type": "function"
    },
    {
      "constant": true,
      "inputs": [],
      "name": "totalStakeAmount",
      "outputs": [
        {
          "name": "",
          "type": "uint256"
        }
      ],
      "payable": false,
      "stateMutability": "view",
      "type": "function"
    },
    {
      "constant": true,
      "inputs": [
        {
          "name": "_validator",
          "type": "address"
        }
      ],
      "name": "validatorFee",
      "outputs": [
        {
          "name": "",
          "type": "uint256"
        }
      ],
      "payable": false,
      "stateMutability": "view",
      "type": "function"
    },
    {
      "constant": true,
      "inputs": [
        {
          "name": "_validator",
          "type": "address"
        },
        {
          "name": "_address",
          "type": "address"
        }
      ],
      "name": "isDelegator",
      "outputs": [
        {
          "name": "",
          "type": "bool"
        }
      ],
      "payable": false,
      "stateMutability": "view",
      "type": "function"
    },
    {
      "constant": true,
      "inputs": [],
      "name": "currentValidators",
      "outputs": [
        {
          "name": "",
          "type": "address[]"
        }
      ],
      "payable": false,
      "stateMutability": "view",
      "type": "function"
    },
    {
      "constant": true,
      "inputs": [],
      "name": "getCycleDurationBlocks",
      "outputs": [
        {
          "name": "",
          "type": "uint256"
        }
      ],
      "payable": false,
      "stateMutability": "pure",
      "type": "function"
    },
    {
      "constant": true,
      "inputs": [],
      "name": "pendingValidators",
      "outputs": [
        {
          "name": "",
          "type": "address[]"
        }
      ],
      "payable": false,
      "stateMutability": "view",
      "type": "function"
    },
    {
      "constant": true,
      "inputs": [],
      "name": "getCurrentCycleEndBlock",
      "outputs": [
        {
          "name": "",
          "type": "uint256"
        }
      ],
      "payable": false,
      "stateMutability": "view",
      "type": "function"
    },
    {
      "constant": true,
      "inputs": [],
      "name": "getValidators",
      "outputs": [
        {
          "name": "",
          "type": "address[]"
        }
      ],
      "payable": false,
      "stateMutability": "view",
      "type": "function"
    },
    {
      "constant": true,
      "inputs": [
        {
          "name": "_address",
          "type": "address"
        }
      ],
      "name": "stakeAmount",
      "outputs": [
        {
          "name": "",
          "type": "uint256"
        }
      ],
      "payable": false,
      "stateMutability": "view",
      "type": "function"
    },
    {
      "constant": false,
      "inputs": [
        {
          "name": "_initialValidator",
          "type": "address"
        }
      ],
      "name": "initialize",
      "outputs": [],
      "payable": false,
      "stateMutability": "nonpayable",
      "type": "function"
    },
    {
      "constant": true,
      "inputs": [],
      "name": "MAX_STAKE",
      "outputs": [
        {
          "name": "",
          "type": "uint256"
        }
      ],
      "payable": false,
      "stateMutability": "view",
      "type": "function"
    },
    {
      "constant": true,
      "inputs": [],
      "name": "MIN_STAKE",
      "outputs": [
        {
          "name": "",
          "type": "uint256"
        }
      ],
      "payable": false,
      "stateMutability": "view",
      "type": "function"
    },
    {
      "constant": true,
      "inputs": [
        {
          "name": "_validator",
          "type": "address"
        }
      ],
      "name": "getStrikeReset",
      "outputs": [
        {
          "name": "",
          "type": "uint256"
        }
      ],
      "payable": false,
      "stateMutability": "view",
      "type": "function"
    },
    {
      "constant": true,
      "inputs": [
        {
          "name": "_validator",
          "type": "address"
        }
      ],
      "name": "delegatorsLength",
      "outputs": [
        {
          "name": "",
          "type": "uint256"
        }
      ],
      "payable": false,
      "stateMutability": "view",
      "type": "function"
    },
    {
      "constant": true,
      "inputs": [
        {
          "name": "_validator",
          "type": "address"
        },
        {
          "name": "_p",
          "type": "uint256"
        }
      ],
      "name": "delegatorsAtPosition",
      "outputs": [
        {
          "name": "",
          "type": "address"
        }
      ],
      "payable": false,
      "stateMutability": "view",
      "type": "function"
    },
    {
      "constant": true,
      "inputs": [],
      "name": "getProxyStorage",
      "outputs": [
        {
          "name": "",
          "type": "address"
        }
      ],
      "payable": false,
      "stateMutability": "view",
      "type": "function"
    },
    {
      "constant": true,
      "inputs": [
        {
          "name": "_validator",
          "type": "address"
        }
      ],
      "name": "getReleaseBlock",
      "outputs": [
        {
          "name": "",
          "type": "uint256"
        }
      ],
      "payable": false,
      "stateMutability": "view",
      "type": "function"
    },
    {
      "constant": true,
      "inputs": [],
      "name": "shouldEmitInitiateChange",
      "outputs": [
        {
          "name": "",
          "type": "bool"
        }
      ],
      "payable": false,
      "stateMutability": "view",
      "type": "function"
    },
    {
      "constant": false,
      "inputs": [
        {
          "name": "_validator",
          "type": "address"
        },
        {
          "name": "_amount",
          "type": "uint256"
        }
      ],
      "name": "withdraw",
      "outputs": [],
      "payable": false,
      "stateMutability": "nonpayable",
      "type": "function"
    },
    {
      "constant": true,
      "inputs": [
        {
          "name": "_address",
          "type": "address"
        }
      ],
      "name": "isValidator",
      "outputs": [
        {
          "name": "",
          "type": "bool"
        }
      ],
      "payable": false,
      "stateMutability": "view",
      "type": "function"
    },
    {
      "constant": true,
      "inputs": [
        {
          "name": "_address",
          "type": "address"
        }
      ],
      "name": "isPendingValidator",
      "outputs": [
        {
          "name": "",
          "type": "bool"
        }
      ],
      "payable": false,
      "stateMutability": "view",
      "type": "function"
    },
    {
      "constant": true,
      "inputs": [],
      "name": "getMaxStake",
      "outputs": [
        {
          "name": "",
          "type": "uint256"
        }
      ],
      "payable": false,
      "stateMutability": "pure",
      "type": "function"
    },
    {
      "payable": true,
      "stateMutability": "payable",
      "type": "fallback"
    },
    {
      "anonymous": false,
      "inputs": [
        {
          "indexed": false,
          "name": "newSet",
          "type": "address[]"
        }
      ],
      "name": "ChangeFinalized",
      "type": "event"
    },
    {
      "anonymous": false,
      "inputs": [],
      "name": "ShouldEmitInitiateChange",
      "type": "event"
    },
    {
      "anonymous": false,
      "inputs": [
        {
          "indexed": true,
          "name": "parentHash",
          "type": "bytes32"
        },
        {
          "indexed": false,
          "name": "newSet",
          "type": "address[]"
        }
      ],
      "name": "InitiateChange",
      "type": "event"
    }
  ],
  "bytecode": "0x6080604052600f805460ff1916905534801561001a57600080fd5b50614f958061002a6000396000f3006080604052600436106102dc5763ffffffff60e060020a60003504166308c9007681146102e95780630fe9d28e146103105780631043ca281461034457806310855269146103ac57806310f606e7146103cd57806314bfb527146103e257806316c38b3c1461041757806321429e60146104315780632a807f15146104585780632bec36d21461046d5780632e0f2625146104825780632e1a7d4d14610497578063392e53cd146104af5780633a4b66f1146104c457806340c9cdeb146104cc57806355460f81146104e157806356a3b5fa146104f957806357aeefc51461050e5780635c19a95c146105265780635c975abb1461053a5780635ccee1de1461054f578063651d8c22146105645780636a28f12f146105795780636bdf1d5a146106365780636c376cc51461064b5780636eae5b1114610660578063714897df1461067557806372e81e321461068a578063752862111461069f57806376bd510f146106b45780637b1e52a5146106c95780637d8f7a61146106ea5780637e2bf1201461070b57806385cd8464146107205780638615b171146107415780638d068043146107565780638d23fc611461076b5780638d4e40831461078c5780638da873f8146107a157806392b391f3146107b9578063932781d6146107ce57806393b4e25e146107e357806394409a56146107f85780639f77dc301461080d578063a0e119291461082e578063a2cde60914610855578063a65249231461086a578063a82f255b1461087f578063af29518114610894578063b7ab4db5146108a9578063bf135267146108be578063c4d66de8146108df578063c98517c514610900578063cb1c2b5c14610915578063d2166ce91461092a578063ddb3f4871461094b578063eb431b6a1461096c578063ec15a5e614610990578063ee19a7fc146109a5578063ef7b6d89146109c6578063f3fef3a3146109db578063facd743b146109ff578063fb64aac114610a20578063fe35505b14610a41575b6102e7333433610a56565b005b3480156102f557600080fd5b506102fe610b1f565b60408051918252519081900360200190f35b34801561031c57600080fd5b50610328600435610bc3565b60408051600160a060020a039092168252519081900360200190f35b34801561035057600080fd5b5061035c600435610c8a565b60408051602080825283518183015283519192839290830191858101910280838360005b83811015610398578181015183820152602001610380565b505050509050019250505060405180910390f35b3480156103b857600080fd5b506102e7600160a060020a0360043516610dc5565b3480156103d957600080fd5b506102fe6110e4565b3480156103ee57600080fd5b50610403600160a060020a03600435166110f0565b604080519115158252519081900360200190f35b34801561042357600080fd5b506102e76004351515611141565b34801561043d57600080fd5b506102fe600160a060020a0360043581169060243516611218565b34801561046457600080fd5b506102fe6112dc565b34801561047957600080fd5b506102fe61133e565b34801561048e57600080fd5b506102fe6113b2565b3480156104a357600080fd5b506102e76004356113be565b3480156104bb57600080fd5b5061040361143e565b6102e76114f6565b3480156104d857600080fd5b506102fe611503565b3480156104ed57600080fd5b506102e7600435611565565b34801561050557600080fd5b506102fe6115ac565b34801561051a57600080fd5b506103286004356115ba565b6102e7600160a060020a036004351661161c565b34801561054657600080fd5b50610403611627565b34801561055b57600080fd5b5061035c611630565b34801561057057600080fd5b5061035c611739565b34801561058557600080fd5b5061059d600160a060020a036004351660243561179b565b604051808060200180602001838103835285818151815260200191508051906020019060200280838360005b838110156105e15781810151838201526020016105c9565b50505050905001838103825284818151815260200191508051906020019060200280838360005b83811015610620578181015183820152602001610608565b5050505090500194505050505060405180910390f35b34801561064257600080fd5b506102fe61189a565b34801561065757600080fd5b506102e761189f565b34801561066c57600080fd5b506102e76118cf565b34801561068157600080fd5b506102fe611908565b34801561069657600080fd5b506102fe61190e565b3480156106ab57600080fd5b506102e7611914565b3480156106c057600080fd5b506102fe611a8d565b3480156106d557600080fd5b506102fe600160a060020a0360043516611a93565b3480156106f657600080fd5b506102fe600160a060020a0360043516611b57565b34801561071757600080fd5b506102fe611bd9565b34801561072c57600080fd5b506102e7600160a060020a0360043516611bdf565b34801561074d57600080fd5b506102fe611eff565b34801561076257600080fd5b506102fe611f04565b34801561077757600080fd5b5061035c600160a060020a0360043516611f29565b34801561079857600080fd5b50610403611fab565b3480156107ad57600080fd5b5061032860043561201f565b3480156107c557600080fd5b506102fe612081565b3480156107da57600080fd5b506102fe61208d565b3480156107ef57600080fd5b506102e7612101565b34801561080457600080fd5b506102fe6121c4565b34801561081957600080fd5b506102fe600160a060020a0360043516612226565b34801561083a57600080fd5b50610403600160a060020a03600435811690602435166122ba565b34801561086157600080fd5b5061035c61230e565b34801561087657600080fd5b506102fe612370565b34801561088b57600080fd5b5061035c612376565b3480156108a057600080fd5b506102fe6123d8565b3480156108b557600080fd5b5061035c61244c565b3480156108ca57600080fd5b506102fe600160a060020a0360043516612456565b3480156108eb57600080fd5b506102e7600160a060020a03600435166124d8565b34801561090c57600080fd5b506102fe61260e565b34801561092157600080fd5b506102fe61261d565b34801561093657600080fd5b506102fe600160a060020a036004351661262b565b34801561095757600080fd5b506102fe600160a060020a03600435166126ad565b34801561097857600080fd5b50610328600160a060020a036004351660243561272f565b34801561099c57600080fd5b50610328612817565b3480156109b157600080fd5b506102fe600160a060020a03600435166128d5565b3480156109d257600080fd5b50610403612969565b3480156109e757600080fd5b506102e7600160a060020a03600435166024356129dd565b348015610a0b57600080fd5b50610403600160a060020a03600435166129e8565b348015610a2c57600080fd5b50610403600160a060020a0360043516612a2e565b348015610a4d57600080fd5b506102fe612a74565b600160a060020a0383161515610a6b57600080fd5b60008211610a7857600080fd5b600160a060020a0381161515610a8d57600080fd5b610a98838284612a83565b610aa28183612c3e565b610aaa612a74565b610ab382612456565b1115610abe57600080fd5b610ac66115ac565b610acf82612456565b10158015610ae35750610ae181612a2e565b155b15610b0357610af181612d85565b610b0381670214e8348c4f0000612e68565b610b0c816129e8565b15610b1a57610b1a82612efb565b505050565b6000600a60006040516020018080600080516020614e2a83398151915281525060100190506040516020818303038152906040526040518082805190602001908083835b60208310610b825780518252601f199092019160209182019101610b63565b51815160209384036101000a600019018019909216911617905260408051929094018290039091208652850195909552929092016000205493505050505b90565b6000600a60006040516020018080600080516020614e8a83398151915281525060110190506040516020818303038152906040526040518082805190602001908083835b60208310610c265780518252601f199092019160209182019101610c07565b51815160209384036101000a60001901801990921691161790526040805192909401829003909120865285019590955292909201600020805490935085925082109050610c6f57fe5b600091825260209091200154600160a060020a031692915050565b6060600a60008360405160200180807f736e617073686f74000000000000000000000000000000000000000000000000815250600801828152602001807f61646472657373657300000000000000000000000000000000000000000000008152506009019150506040516020818303038152906040526040518082805190602001908083835b60208310610d2f5780518252601f199092019160209182019101610d10565b51815160209384036101000a600019018019909216911617905260408051929094018290039091208652858101969096525092830160002080548451818702810187019095528085529394909392508401905082828015610db957602002820191906000526020600020905b8154600160a060020a03168152600190910190602001808311610d9b575b50505050509050919050565b6004600060405160200180807f6f776e657200000000000000000000000000000000000000000000000000000081525060050190506040516020818303038152906040526040518082805190602001908083835b60208310610e385780518252601f199092019160209182019101610e19565b51815160209384036101000a6000190180199092169116179052604080519290940182900390912086528501959095529290920160002054600160a060020a031633149250610e8991505057600080fd5b600160a060020a0381161515610e9e57600080fd5b6006600060405160200180807f77617350726f787953746f72616765536574000000000000000000000000000081525060120190506040516020818303038152906040526040518082805190602001908083835b60208310610f115780518252601f199092019160209182019101610ef2565b51815160209384036101000a600019018019909216911617905260408051929094018290039091208652850195909552929092016000205460ff16159250610f5b91505057600080fd5b806004600060405160200180807f70726f787953746f726167650000000000000000000000000000000000000000815250600c0190506040516020818303038152906040526040518082805190602001908083835b60208310610fcf5780518252601f199092019160209182019101610fb0565b51815160209384036101000a600019018019909216911617905260408051929094018290039091208652858101969096525092830160009081208054600160a060020a031916600160a060020a039790971696909617909555505080517f77617350726f787953746f7261676553657400000000000000000000000000008184015281516012818303018152603290910191829052805160019460069490939182918401908083835b602083106110975780518252601f199092019160209182019101611078565b51815160209384036101000a60001901801990921691161790526040805192909401829003909120865285019590955292909201600020805460ff19169415159490941790935550505050565b670214e8348c4f000090565b6000805b6110fc610b1f565b8110156111365761110c8161201f565b600160a060020a031683600160a060020a0316141561112e576001915061113b565b6001016110f4565b600091505b50919050565b6004600060405160200180807f6f776e657200000000000000000000000000000000000000000000000000000081525060050190506040516020818303038152906040526040518082805190602001908083835b602083106111b45780518252601f199092019160209182019101611195565b51815160209384036101000a6000190180199092169116179052604080519290940182900390912086528501959095529290920160002054600160a060020a03163314925061120591505057600080fd5b600f805460ff1916911515919091179055565b60408051600080516020614f2a833981519152602080830191909152606060020a600160a060020a038087168202602f85015285160260438301528251603781840301815260579092019283905281516000936002938593909282918401908083835b6020831061129a5780518252601f19909201916020918201910161127b565b51815160209384036101000a60001901801990921691161790526040805192909401829003909120865285019590955292909201600020549695505050505050565b6000600a60006040516020018080600080516020614e8a833981519152815250601101905060405160208183030381529060405260405180828051906020019080838360208310610b825780518252601f199092019160209182019101610b63565b6000600a600060405160200180807f6e657756616c696461746f725365740000000000000000000000000000000000815250600f01905060405160208183030381529060405260405180828051906020019080838360208310610b825780518252601f199092019160209182019101610b63565b670de0b6b3a764000081565b600f5460ff161561143057604080517f08c379a000000000000000000000000000000000000000000000000000000000815260206004820152600f60248201527f436f6e7472616374205061757365640000000000000000000000000000000000604482015290519081900360640190fd5b61143b338233613001565b50565b60006006600060405160200180807f6973496e697469616c697a656400000000000000000000000000000000000000815250600d0190506040516020818303038152906040526040518082805190602001908083835b602083106114b35780518252601f199092019160209182019101611494565b51815160209384036101000a600019018019909216911617905260408051929094018290039091208652850195909552929092016000205460ff16949350505050565b611501333433610a56565b565b6000600a60006040516020018080600080516020614f0a833981519152815250601101905060405160208183030381529060405260405180828051906020019080838360208310610b825780518252601f199092019160209182019101610b63565b61156e336129e8565b151561157957600080fd5b670de0b6b3a764000081111561158e57600080fd5b6115966110e4565b8110156115a257600080fd5b61143b3382612e68565b69152d02c7e14af680000090565b6000600a60006040516020018080600080516020614f0a833981519152815250601101905060405160208183030381529060405260405180828051906020019080838360208310610c265780518252601f199092019160209182019101610c07565b61143b333483610a56565b600f5460ff1681565b6060600a600060405160200180807f6e657756616c696461746f725365740000000000000000000000000000000000815250600f0190506040516020818303038152906040526040518082805190602001908083835b602083106116a55780518252601f199092019160209182019101611686565b51815160209384036101000a60001901801990921691161790526040805192909401829003909120865285810196909652509283016000208054845181870281018701909552808552939490939250840190508282801561172f57602002820191906000526020600020905b8154600160a060020a03168152600190910190602001808311611711575b5050505050905090565b6060600a60006040516020018080600080516020614e2a8339815191528152506010019050604051602081830303815290604052604051808280519060200190808383602083106116a55780518252601f199092019160209182019101611686565b60608060608060008060006117af89611f29565b945084516040519080825280602002602001820160405280156117dc578160200160208202803883390190505b5093506117f86117ea6115ac565b6117f38b612456565b61311b565b92505b845182101561188b576118176118118a8461272f565b8a611218565b9050611867670de0b6b3a764000061184f6118318c612226565b670de0b6b3a76400000361185b8761184f8e8863ffffffff61313416565b9063ffffffff61316216565b9063ffffffff61313416565b848381518110151561187557fe5b60209081029091010152600191909101906117fb565b50929791965090945050505050565b603281565b6118a8336129e8565b15156118b357600080fd5b6118bc336110f0565b156118c657600080fd5b61150133613185565b6118d8336110f0565b15156118e357600080fd5b6118eb6123d8565b6118f4336128d5565b11156118ff57600080fd5b61150133613197565b6103e881565b610bb881565b6004600060405160200180807f53595354454d5f41444452455353000000000000000000000000000000000000815250600e0190506040516020818303038152906040526040518082805190602001908083835b602083106119875780518252601f199092019160209182019101611968565b51815160209384036101000a6000190180199092169116179052604080519290940182900390912086528501959095529290920160002054600160a060020a0316331492506119d891505057600080fd5b6119e0611fab565b156119ea57600080fd5b60006119f461133e565b1115611a8357611a0a611a05611630565b6131d3565b7f8564cd629b15f47dc310d45bcbfc9bcf5420b0d51bf0659a16c67f91d2763253611a3361230e565b60408051602080825283518183015283519192839290830191858101910280838360005b83811015611a6f578181015183820152602001611a57565b505050509050019250505060405180910390a15b6115016001613326565b6103e890565b600060026000836040516020018080600080516020614f4a833981519152815250600b0182600160a060020a0316600160a060020a0316606060020a0281526014019150506040516020818303038152906040526040518082805190602001908083835b60208310611b165780518252601f199092019160209182019101611af7565b51815160209384036101000a600019018019909216911617905260408051929094018290039091208652850195909552929092016000205495945050505050565b600060026000836040516020018080600080516020614e6a833981519152815250600c0182600160a060020a0316600160a060020a0316606060020a02815260140191505060405160208183030381529060405260405180828051906020019080838360208310611b165780518252601f199092019160209182019101611af7565b61870081565b6060611be9612817565b600160a060020a031663f89d40866040518163ffffffff1660e060020a028152600401602060405180830381600087803b158015611c2657600080fd5b505af1158015611c3a573d6000803e3d6000fd5b505050506040513d6020811015611c5057600080fd5b5051600160a060020a03163314611c6657600080fd5b611c6f82613399565b611c776134c9565b15611efb57611c84612817565b600160a060020a0316631986d3766040518163ffffffff1660e060020a028152600401602060405180830381600087803b158015611cc157600080fd5b505af1158015611cd5573d6000803e3d6000fd5b505050506040513d6020811015611ceb57600080fd5b5051600160a060020a031663bbac62c8611d0361230e565b6040518263ffffffff1660e060020a0281526004018080602001828103825283818151815260200191508051906020019060200280838360005b83811015611d55578181015183820152602001611d3d565b5050505090500192505050600060405180830381600087803b158015611d7a57600080fd5b505af1158015611d8e573d6000803e3d6000fd5b50505050611d9a6134db565b611daa611da561230e565b61364c565b611db2612376565b9050600081511115611dc757611dc781613730565b6000611dd161133e565b1115611e1557611de16000613326565b611deb60016137f2565b6040517fad8a61077dff62d25ea1bf7cf1af88e1b48075c3d497d494ac9b129b73b0d37c90600090a15b611e1d612817565b600160a060020a031663f89d40866040518163ffffffff1660e060020a028152600401602060405180830381600087803b158015611e5a57600080fd5b505af1158015611e6e573d6000803e3d6000fd5b505050506040513d6020811015611e8457600080fd5b5051604080517fb1f0c8e10000000000000000000000000000000000000000000000000000000081529051600160a060020a039092169163b1f0c8e19160048082019260009290919082900301818387803b158015611ee257600080fd5b505af1158015611ef6573d6000803e3d6000fd5b505050505b5050565b600581565b6000611f246001611f18600261184f611503565b9063ffffffff61386516565b905090565b6060600a6000836040516020018080600080516020614e4a833981519152815250600a0182600160a060020a0316600160a060020a0316606060020a02815260140191505060405160208183030381529060405260405180828051906020019080838360208310610d2f5780518252601f199092019160209182019101610d10565b60006006600060405160200180807f697346696e616c697a6564000000000000000000000000000000000000000000815250600b019050604051602081830303815290604052604051808280519060200190808383602083106114b35780518252601f199092019160209182019101611494565b6000600a60006040516020018080600080516020614e2a833981519152815250601001905060405160208183030381529060405260405180828051906020019080838360208310610c265780518252601f199092019160209182019101610c07565b670214e8348c4f000081565b60006002600060405160200180807f63757272656e744379636c655374617274426c6f636b00000000000000000000815250601601905060405160208183030381529060405260405180828051906020019080838360208310610b825780518252601f199092019160209182019101610b63565b61210a336129e8565b151561211557600080fd5b61211d612969565b151561212857600080fd5b600061213261133e565b1161213c57600080fd5b6000194301407f55252fa6eee4741b4e24a74a70e9c11fd2c2281df8d6ea13126ff845f7825c8961216b611630565b60408051602080825283518183015283519192839290830191858101910280838360005b838110156121a757818101518382015260200161218f565b505050509050019250505060405180910390a261150160006137f2565b6000600260006040516020018080600080516020614eea833981519152815250601001905060405160208183030381529060405260405180828051906020019080838360208310610b825780518252601f199092019160209182019101610b63565b6000600260008360405160200180807f76616c696461746f724665650000000000000000000000000000000000000000815250600c0182600160a060020a0316600160a060020a0316606060020a02815260140191505060405160208183030381529060405260405180828051906020019080838360208310611b165780518252601f199092019160209182019101611af7565b6000805b6122c7846126ad565b811015612302576122d8848261272f565b600160a060020a031683600160a060020a031614156122fa5760019150612307565b6001016122be565b600091505b5092915050565b6060600a60006040516020018080600080516020614f0a8339815191528152506011019050604051602081830303815290604052604051808280519060200190808383602083106116a55780518252601f199092019160209182019101611686565b61870090565b6060600a60006040516020018080600080516020614e8a8339815191528152506011019050604051602081830303815290604052604051808280519060200190808383602083106116a55780518252601f199092019160209182019101611686565b60006002600060405160200180807f63757272656e744379636c65456e64426c6f636b000000000000000000000000815250601401905060405160208183030381529060405260405180828051906020019080838360208310610b825780518252601f199092019160209182019101610b63565b6060611f2461230e565b600060026000836040516020018080600080516020614eca833981519152815250600b0182600160a060020a0316600160a060020a0316606060020a02815260140191505060405160208183030381529060405260405180828051906020019080838360208310611b165780518252601f199092019160209182019101611af7565b6004600060405160200180807f6f776e657200000000000000000000000000000000000000000000000000000081525060050190506040516020818303038152906040526040518082805190602001908083835b6020831061254b5780518252601f19909201916020918201910161252c565b51815160209384036101000a6000190180199092169116179052604080519290940182900390912086528501959095529290920160002054600160a060020a03163314925061259c91505057600080fd5b6125a461143e565b156125ae57600080fd5b6125cb73fffffffffffffffffffffffffffffffffffffffe613877565b6125d36134db565b600160a060020a03811615156125f1576125ec33613947565b6125fa565b6125fa81613947565b6126046001613326565b61143b60016139a7565b6a0422ca8b0a00a42500000081565b69152d02c7e14af680000081565b600060026000836040516020018080600080516020614eaa833981519152815250600b0182600160a060020a0316600160a060020a0316606060020a02815260140191505060405160208183030381529060405260405180828051906020019080838360208310611b165780518252601f199092019160209182019101611af7565b6000600a6000836040516020018080600080516020614e4a833981519152815250600a0182600160a060020a0316600160a060020a0316606060020a02815260140191505060405160208183030381529060405260405180828051906020019080838360208310611b165780518252601f199092019160209182019101611af7565b6000600a6000846040516020018080600080516020614e4a833981519152815250600a0182600160a060020a0316600160a060020a0316606060020a0281526014019150506040516020818303038152906040526040518082805190602001908083835b602083106127b25780518252601f199092019160209182019101612793565b51815160209384036101000a600019018019909216911617905260408051929094018290039091208652850195909552929092016000208054909350859250821090506127fb57fe5b600091825260209091200154600160a060020a03169392505050565b60006004600060405160200180807f70726f787953746f726167650000000000000000000000000000000000000000815250600c0190506040516020818303038152906040526040518082805190602001908083835b6020831061288c5780518252601f19909201916020918201910161286d565b51815160209384036101000a6000190180199092169116179052604080519290940182900390912086528501959095529290920160002054600160a060020a0316949350505050565b6000600260008360405160200180807f72656c65617365426c6f636b0000000000000000000000000000000000000000815250600c0182600160a060020a0316600160a060020a0316606060020a02815260140191505060405160208183030381529060405260405180828051906020019080838360208310611b165780518252601f199092019160209182019101611af7565b60006006600060405160200180807f73686f756c64456d6974496e6974696174654368616e676500000000000000008152506018019050604051602081830303815290604052604051808280519060200190808383602083106114b35780518252601f199092019160209182019101611494565b611efb338284613001565b6000805b6129f4611503565b81101561113657612a04816115ba565b600160a060020a031683600160a060020a03161415612a26576001915061113b565b6001016129ec565b6000805b612a3a6112dc565b81101561113657612a4a81610bc3565b600160a060020a031683600160a060020a03161415612a6c576001915061113b565b600101612a32565b6a0422ca8b0a00a42500000090565b60408051600080516020614f2a833981519152602080830191909152606060020a600160a060020a038088168202602f8501528616026043830152825160378184030181526057909201928390528151612b4d93859360029360009391929182918401908083835b60208310612b0a5780518252601f199092019160209182019101612aeb565b51815160209384036101000a6000190180199092169116179052604080519290940182900390912086528501959095529290920160002054939250506138659050565b60408051600080516020614f2a833981519152602080830191909152606060020a600160a060020a038089168202602f850152871602604383015282516037818403018152605790920192839052815160029360009392909182918401908083835b60208310612bce5780518252601f199092019160209182019101612baf565b51815160209384036101000a6000190180199092169116179052604080519290940182900390912086528501959095529290920160002093909355505050600160a060020a0382811690841614801590612c2f5750612c2d82846122ba565b155b15610b1a57610b1a8383613a1a565b612cc28160026000856040516020018080600080516020614eca833981519152815250600b0182600160a060020a0316600160a060020a0316606060020a02815260140191505060405160208183030381529060405260405180828051906020019080838360208310612b0a5780518252601f199092019160209182019101612aeb565b60026000846040516020018080600080516020614eca833981519152815250600b0182600160a060020a0316600160a060020a0316606060020a0281526014019150506040516020818303038152906040526040518082805190602001908083835b60208310612d435780518252601f199092019160209182019101612d24565b51815160209384036101000a60001901801990921691161790526040805192909401829003909120865285019590955292909201600020939093555050505050565b612d8e816110f0565b15612d9857600080fd5b600a60006040516020018080600080516020614e8a83398151915281525060110190506040516020818303038152906040526040518082805190602001908083835b60208310612df95780518252601f199092019160209182019101612dda565b51815160209384036101000a600019018019909216911617905260408051929094018290039091208652858101969096525092909201600090812080546001810182559082529390209092018054600160a060020a031916600160a060020a0394909416939093179092555050565b80600260008460405160200180807f76616c696461746f724665650000000000000000000000000000000000000000815250600c0182600160a060020a0316600160a060020a0316606060020a02815260140191505060405160208183030381529060405260405180828051906020019080838360208310612d435780518252601f199092019160209182019101612d24565b612f5f81600260006040516020018080600080516020614eea833981519152815250601001905060405160208183030381529060405260405180828051906020019080838360208310612b0a5780518252601f199092019160209182019101612aeb565b600260006040516020018080600080516020614eea83398151915281525060100190506040516020818303038152906040526040518082805190602001908083835b60208310612fc05780518252601f199092019160209182019101612fa1565b51815160209384036101000a600019018019909216911617905260408051929094018290039091208652850195909552929092016000209390935550505050565b6000600160a060020a038216151561301857600080fd5b6000831161302557600080fd5b61302e82612456565b83111561303a57600080fd5b6130448483611218565b83111561305057600080fd5b613059826129e8565b90506130636115ac565b61307c8461307085612456565b9063ffffffff613b0b16565b1080156130865750805b156130995761309482613b22565b613115565b6130a4848385613d20565b6130ae8284613f72565b80156130bd576130bd83613ff6565b6130c56115ac565b6130ce83612456565b10156130dd576130dd82613b22565b604051600160a060020a0385169084156108fc029085906000818181858888f19350505050158015613113573d6000803e3d6000fd5b505b50505050565b60008183101561312b578161312d565b825b9392505050565b6000808315156131475760009150612307565b5082820282848281151561315757fe5b041461312d57600080fd5b60008080831161317157600080fd5b828481151561317c57fe5b04949350505050565b61318e81613b22565b61143b8161405a565b6131a0816140ba565b6131a86115ac565b6131b182612456565b101580156131c557506131c381612a2e565b155b1561143b5761143b81612d85565b60008080805b845183101561326d5761320285848151811015156131f357fe5b90602001906020020151612456565b91508184019350613229858481518110151561321a57fe5b90602001906020020151612226565b90506132336110e4565b81101561326257613262858481518110151561324b57fe5b9060200190602002015161325d6110e4565b612e68565b6001830192506131d9565b61327684614260565b84600a60006040516020018080600080516020614f0a83398151915281525060110190506040516020818303038152906040526040518082805190602001908083835b602083106132d85780518252601f1990920191602091820191016132b9565b51815160001960209485036101000a01908116901991909116179052604080519490920184900390932086528583019690965250929093016000208451611ef6959194509201919050614d62565b806006600060405160200180807f697346696e616c697a6564000000000000000000000000000000000000000000815250600b019050604051602081830303815290604052604051808280519060200190808383602083106110975780518252601f199092019160209182019101611078565b60026000826040516020018080600080516020614e6a833981519152815250600c0182600160a060020a0316600160a060020a0316606060020a0281526014019150506040516020818303038152906040526040518082805190602001908083835b6020831061341a5780518252601f1990920191602091820191016133fb565b51815160209384036101000a60001901801990921691161790526040805192909401829003909120865285810196909652509283016000908120548451600080516020614e6a83398151915281880152600160a060020a038816606060020a02602c8201528551808203880181529086019586905280516001909201966002969395509093508291848201918190849084908310612fc05780518252601f199092019160209182019101612fa1565b60006134d36123d8565b431015905090565b436002600060405160200180807f63757272656e744379636c655374617274426c6f636b0000000000000000000081525060160190506040516020818303038152906040526040518082805190602001908083835b6020831061354f5780518252601f199092019160209182019101613530565b51815160209384036101000a60001901801990921691161790526040805192909401829003909120865285019590955292909201600020939093555061359791506123709050565b43016002600060405160200180807f63757272656e744379636c65456e64426c6f636b00000000000000000000000081525060140190506040516020818303038152906040526040518082805190602001908083835b6020831061360c5780518252601f1990920191602091820191016135ed565b51815160209384036101000a6000190180199092169116179052604080519290940182900390912086528501959095529290920160002093909355505050565b60008061366861271061184f855161184f610bb861185b612370565b91505b8251811015610b1a5781613695848381518110151561368657fe5b90602001906020020151611b57565b10156136c0576136bb83828151811015156136ac57fe5b906020019060200201516142c1565b613708565b60006136e284838151811015156136d357fe5b90602001906020020151611a93565b11156137085761370883828151811015156136f957fe5b906020019060200201516142e5565b613728838281518110151561371957fe5b90602001906020020151614524565b60010161366b565b80600a600060405160200180807f6e657756616c696461746f725365740000000000000000000000000000000000815250600f0190506040516020818303038152906040526040518082805190602001908083835b602083106137a45780518252601f199092019160209182019101613785565b51815160001960209485036101000a01908116901991909116179052604080519490920184900390932086528583019690965250929093016000208451611efb959194509201919050614d62565b806006600060405160200180807f73686f756c64456d6974496e6974696174654368616e676500000000000000008152506018019050604051602081830303815290604052604051808280519060200190808383602083106110975780518252601f199092019160209182019101611078565b60008282018381101561312d57600080fd5b806004600060405160200180807f53595354454d5f41444452455353000000000000000000000000000000000000815250600e0190506040516020818303038152906040526040518082805190602001908083835b602083106138eb5780518252601f1990920191602091820191016138cc565b51815160209384036101000a600019018019909216911617905260408051929094018290039091208652850195909552929092016000208054600160a060020a031916600160a060020a03959095169490941790935550505050565b600a60006040516020018080600080516020614f0a833981519152815250601101905060405160208183030381529060405260405180828051906020019080838360208310612df95780518252601f199092019160209182019101612dda565b806006600060405160200180807f6973496e697469616c697a656400000000000000000000000000000000000000815250600d019050604051602081830303815290604052604051808280519060200190808383602083106110975780518252601f199092019160209182019101611078565b600a6000826040516020018080600080516020614e4a833981519152815250600a0182600160a060020a0316600160a060020a0316606060020a0281526014019150506040516020818303038152906040526040518082805190602001908083835b60208310613a9b5780518252601f199092019160209182019101613a7c565b51815160209384036101000a600019018019909216911617905260408051929094018290039091208652858101969096525092909201600090812080546001810182559082529390209092018054600160a060020a031916600160a060020a039590951694909417909355505050565b60008083831115613b1b57600080fd5b5050900390565b6000808080805b613b316112dc565b831015613b7157613b4183610bc3565b600160a060020a031686600160a060020a03161415613b665782935060019450613b71565b600183019250613b29565b8415611ef6576001613b816112dc565b039150613b8d82610bc3565b9050600160a060020a03811615613ba857613ba884826145a6565b600a60006040516020018080600080516020614e8a83398151915281525060110190506040516020818303038152906040526040518082805190602001908083835b60208310613c095780518252601f199092019160209182019101613bea565b51815160209384036101000a60001901801990921691161790526040805192909401829003909120865285019590955292909201600020805490935085925082109050613c5257fe5b600091825260208083209091018054600160a060020a031916905560408051600080516020614e8a83398151915281840152815180820360110181526031909101918290528051600a94939192918291908401908083835b60208310613cc95780518252601f199092019160209182019101613caa565b51815160001960209485036101000a81019182169119929092161790915260408051959093018590039094208752860196909652509290930160002080549350613d17929091508301614dc7565b50505050505050565b60408051600080516020614f2a833981519152602080830191909152606060020a600160a060020a038088168202602f8501528616026043830152825160378184030181526057909201928390528151613dea93859360029360009391929182918401908083835b60208310613da75780518252601f199092019160209182019101613d88565b51815160209384036101000a600019018019909216911617905260408051929094018290039091208652850195909552929092016000205493925050613b0b9050565b60408051600080516020614f2a833981519152602080830191909152606060020a600160a060020a038089168202602f850152871602604383015282516037818403018152605790920192839052815160029360009392909182918401908083835b60208310613e6b5780518252601f199092019160209182019101613e4c565b51815160001960209485036101000a0190811690199190911617905260408051949092018490039093208652858301969096525092840160009081209590955550508151600080516020614f2a83398151915281830152606060020a600160a060020a038089168202602f84015287160260438201528251603781830301815260579091019283905280516002949391928291908401908083835b60208310613f255780518252601f199092019160209182019101613f06565b51815160209384036101000a600019018019909216911617905260408051929094018290039091208652850195909552929092016000205415159250610b1a91505057610b1a8383614683565b612cc28160026000856040516020018080600080516020614eca833981519152815250600b0182600160a060020a0316600160a060020a0316606060020a02815260140191505060405160208183030381529060405260405180828051906020019080838360208310613da75780518252601f199092019160209182019101613d88565b612f5f81600260006040516020018080600080516020614eea833981519152815250601001905060405160208183030381529060405260405180828051906020019080838360208310613da75780518252601f199092019160209182019101613d88565b600a60006040516020018080600080516020614e2a833981519152815250601001905060405160208183030381529060405260405180828051906020019080838360208310612df95780518252601f199092019160209182019101612dda565b6000808080805b6140c9610b1f565b831015614109576140d98361201f565b600160a060020a031686600160a060020a031614156140fe5782935060019450614109565b6001830192506140c1565b8415611ef6576001614119610b1f565b0391506141258261201f565b9050600160a060020a038116156141405761414084826148bc565b600a60006040516020018080600080516020614e2a83398151915281525060100190506040516020818303038152906040526040518082805190602001908083835b602083106141a15780518252601f199092019160209182019101614182565b51815160209384036101000a600019018019909216911617905260408051929094018290039091208652850195909552929092016000208054909350859250821090506141ea57fe5b600091825260208083209091018054600160a060020a031916905560408051600080516020614e2a83398151915281840152815180820360100181526030909101918290528051600a949391929182919084019080838360208310613cc95780518252601f199092019160209182019101613caa565b80600260006040516020018080600080516020614eea833981519152815250601001905060405160208183030381529060405260405180828051906020019080838360208310612fc05780518252601f199092019160209182019101612fa1565b6142ca81613b22565b6142d38161405a565b6142dc8161491d565b61143b81614b60565b60026000826040516020018080600080516020614eaa833981519152815250600b0182600160a060020a0316600160a060020a0316606060020a0281526014019150506040516020818303038152906040526040518082805190602001908083835b602083106143665780518252601f199092019160209182019101614347565b51815160209384036101000a60001901801990921691161790526040805192909401829003909120865285810196909652509283016000908120548451600080516020614eaa83398151915281880152600160a060020a038816606060020a02602b8201528551808203601f018152603f9091019586905280516001909201966002969395509093508291908401908083835b602083106144185780518252601f1990920191602091820191016143f9565b51815160209384036101000a600019018019909216911617905260408051929094018290039091208652858101969096525092830160009081209590955550508051600080516020614eaa83398151915281840152600160a060020a038516606060020a02602b8201528151808203601f018152603f90910191829052805160329460029490939182918401908083835b602083106144c85780518252601f1990920191602091820191016144a9565b6001836020036101000a03801982511681845116808217855250505050505090500191505060405180910390206000191660001916815260200190815260200160002054111561143b5761451b81614b60565b61143b81614be2565b600060026000836040516020018080600080516020614e6a833981519152815250600c0182600160a060020a0316600160a060020a0316606060020a02815260140191505060405160208183030381529060405260405180828051906020019080838360208310612fc05780518252601f199092019160209182019101612fa1565b80600a60006040516020018080600080516020614e8a83398151915281525060110190506040516020818303038152906040526040518082805190602001908083835b602083106146085780518252601f1990920191602091820191016145e9565b51815160209384036101000a6000190180199092169116179052604080519290940182900390912086528501959095529290920160002080549093508692508210905061465157fe5b9060005260206000200160006101000a815481600160a060020a030219169083600160a060020a031602179055505050565b6000808080805b614693866126ad565b8310156146d4576146a4868461272f565b600160a060020a031687600160a060020a031614156146c957829350600194506146d4565b60018301925061468a565b8415613d175760016146e5876126ad565b0391506146f2868361272f565b9050600160a060020a0381161561470e5761470e868583614c64565b600a6000876040516020018080600080516020614e4a833981519152815250600a0182600160a060020a0316600160a060020a0316606060020a0281526014019150506040516020818303038152906040526040518082805190602001908083835b6020831061478f5780518252601f199092019160209182019101614770565b51815160209384036101000a600019018019909216911617905260408051929094018290039091208652850195909552929092016000208054909350859250821090506147d857fe5b600091825260208083209091018054600160a060020a031916905560408051600080516020614e4a83398151915281840152606060020a600160a060020a038b1602602a8201528151601e818303018152603e909101918290528051600a94939192918291908401908083835b602083106148645780518252601f199092019160209182019101614845565b51815160001960209485036101000a810191821691199290921617909152604080519590930185900390942087528601969096525092909301600020805493506148b2929091508301614dc7565b5050505050505050565b80600a60006040516020018080600080516020614e2a8339815191528152506010019050604051602081830303815290604052604051808280519060200190808383602083106146085780518252601f1990920191602091820191016145e9565b600060026000836040516020018080600080516020614f4a833981519152815250600b0182600160a060020a0316600160a060020a0316606060020a0281526014019150506040516020818303038152906040526040518082805190602001908083835b602083106149a05780518252601f199092019160209182019101614981565b6001836020036101000a038019825116818451168082178552505050505050905001915050604051809103902060001916600019168152602001908152602001600020549050614a0260016130706149fa8461185b612370565b611f186123d8565b600260008460405160200180807f72656c65617365426c6f636b0000000000000000000000000000000000000000815250600c0182600160a060020a0316600160a060020a0316606060020a0281526014019150506040516020818303038152906040526040518082805190602001908083835b60208310614a955780518252601f199092019160209182019101614a76565b51815160209384036101000a60001901801990921691161790526040805192909401829003909120865285019590955292909201600020939093555050600582119050611efb578060010160026000846040516020018080600080516020614f4a833981519152815250600b0182600160a060020a0316600160a060020a0316606060020a02815260140191505060405160208183030381529060405260405180828051906020019080838360208310612d435780518252601f199092019160209182019101612d24565b600060026000836040516020018080600080516020614eaa833981519152815250600b0182600160a060020a0316600160a060020a0316606060020a02815260140191505060405160208183030381529060405260405180828051906020019080838360208310612fc05780518252601f199092019160209182019101612fa1565b600060026000836040516020018080600080516020614f4a833981519152815250600b0182600160a060020a0316600160a060020a0316606060020a02815260140191505060405160208183030381529060405260405180828051906020019080838360208310612fc05780518252601f199092019160209182019101612fa1565b80600a6000856040516020018080600080516020614e4a833981519152815250600a0182600160a060020a0316600160a060020a0316606060020a0281526014019150506040516020818303038152906040526040518082805190602001908083835b60208310614ce65780518252601f199092019160209182019101614cc7565b51815160209384036101000a60001901801990921691161790526040805192909401829003909120865285019590955292909201600020805490935086925082109050614d2f57fe5b9060005260206000200160006101000a815481600160a060020a030219169083600160a060020a03160217905550505050565b828054828255906000526020600020908101928215614db7579160200282015b82811115614db75782518254600160a060020a031916600160a060020a03909116178255602090920191600190910190614d82565b50614dc3929150614deb565b5090565b815481835581811115610b1a57600083815260209020610b1a918101908301614e0f565b610bc091905b80821115614dc3578054600160a060020a0319168155600101614df1565b610bc091905b80821115614dc35760008155600101614e1556006a61696c656456616c696461746f72730000000000000000000000000000000064656c656761746f727300000000000000000000000000000000000000000000626c6f636b436f756e746572000000000000000000000000000000000000000070656e64696e6756616c696461746f7273000000000000000000000000000000737472696b6552657365740000000000000000000000000000000000000000007374616b65416d6f756e74000000000000000000000000000000000000000000746f74616c5374616b65416d6f756e740000000000000000000000000000000063757272656e7456616c696461746f727300000000000000000000000000000064656c656761746564416d6f756e740000000000000000000000000000000000737472696b65436f756e74000000000000000000000000000000000000000000a165627a7a72305820f597296437c96cea9d1bb08905eebf8846944d8880bbbfc088242577138de6a60029",
  "linkReferences": {},
  "deployedLinkReferences": {}
}