{
  "_format": "hh-sol-artifact-1",
  "contractName": "Consensus",
  "sourceName": "contracts/Consensus.sol",
  "abi": [
    {
      "constant": true,
      "inputs": [],
      "name": "getLastSnapshotTakenAtBlock",
      "outputs": [
        {
          "name": "",
          "type": "uint256"
        }
      ],
      "payable": false,
      "stateMutability": "view",
      "type": "function"
    },
    {
      "constant": true,
      "inputs": [],
      "name": "jailedValidatorsLength",
      "outputs": [
        {
          "name": "",
          "type": "uint256"
        }
      ],
      "payable": false,
      "stateMutability": "view",
      "type": "function"
    },
    {
      "constant": true,
      "inputs": [
        {
          "name": "_p",
          "type": "uint256"
        }
      ],
      "name": "pendingValidatorsAtPosition",
      "outputs": [
        {
          "name": "",
          "type": "address"
        }
      ],
      "payable": false,
      "stateMutability": "view",
      "type": "function"
    },
    {
      "constant": true,
      "inputs": [
        {
          "name": "_snapshotId",
          "type": "uint256"
        }
      ],
      "name": "getSnapshotAddresses",
      "outputs": [
        {
          "name": "",
          "type": "address[]"
        }
      ],
      "payable": false,
      "stateMutability": "view",
      "type": "function"
    },
    {
      "constant": false,
      "inputs": [
        {
          "name": "_newAddress",
          "type": "address"
        }
      ],
      "name": "setProxyStorage",
      "outputs": [],
      "payable": false,
      "stateMutability": "nonpayable",
      "type": "function"
    },
    {
      "constant": true,
      "inputs": [],
      "name": "getMinValidatorFee",
      "outputs": [
        {
          "name": "",
          "type": "uint256"
        }
      ],
      "payable": false,
      "stateMutability": "pure",
      "type": "function"
    },
    {
      "constant": true,
      "inputs": [
        {
          "name": "_address",
          "type": "address"
        }
      ],
      "name": "isJailed",
      "outputs": [
        {
          "name": "",
          "type": "bool"
        }
      ],
      "payable": false,
      "stateMutability": "view",
      "type": "function"
    },
    {
      "constant": true,
      "inputs": [
        {
          "name": "_address",
          "type": "address"
        },
        {
          "name": "_validator",
          "type": "address"
        }
      ],
      "name": "delegatedAmount",
      "outputs": [
        {
          "name": "",
          "type": "uint256"
        }
      ],
      "payable": false,
      "stateMutability": "view",
      "type": "function"
    },
    {
      "constant": true,
      "inputs": [],
      "name": "SNAPSHOTS_PER_CYCLE",
      "outputs": [
        {
          "name": "",
          "type": "uint256"
        }
      ],
      "payable": false,
      "stateMutability": "view",
      "type": "function"
    },
    {
      "constant": true,
      "inputs": [],
      "name": "pendingValidatorsLength",
      "outputs": [
        {
          "name": "",
          "type": "uint256"
        }
      ],
      "payable": false,
      "stateMutability": "view",
      "type": "function"
    },
    {
      "constant": true,
      "inputs": [],
      "name": "newValidatorSetLength",
      "outputs": [
        {
          "name": "",
          "type": "uint256"
        }
      ],
      "payable": false,
      "stateMutability": "view",
      "type": "function"
    },
    {
      "constant": true,
      "inputs": [],
      "name": "DECIMALS",
      "outputs": [
        {
          "name": "",
          "type": "uint256"
        }
      ],
      "payable": false,
      "stateMutability": "view",
      "type": "function"
    },
    {
      "constant": false,
      "inputs": [
        {
          "name": "_amount",
          "type": "uint256"
        }
      ],
      "name": "withdraw",
      "outputs": [],
      "payable": false,
      "stateMutability": "nonpayable",
      "type": "function"
    },
    {
      "constant": true,
      "inputs": [],
      "name": "isInitialized",
      "outputs": [
        {
          "name": "",
          "type": "bool"
        }
      ],
      "payable": false,
      "stateMutability": "view",
      "type": "function"
    },
    {
      "constant": false,
      "inputs": [],
      "name": "stake",
      "outputs": [],
      "payable": true,
      "stateMutability": "payable",
      "type": "function"
    },
    {
      "constant": true,
      "inputs": [],
      "name": "currentValidatorsLength",
      "outputs": [
        {
          "name": "",
          "type": "uint256"
        }
      ],
      "payable": false,
      "stateMutability": "view",
      "type": "function"
    },
    {
      "constant": false,
      "inputs": [
        {
          "name": "_amount",
          "type": "uint256"
        }
      ],
      "name": "setValidatorFee",
      "outputs": [],
      "payable": false,
      "stateMutability": "nonpayable",
      "type": "function"
    },
    {
      "constant": true,
      "inputs": [],
      "name": "getMinStake",
      "outputs": [
        {
          "name": "",
          "type": "uint256"
        }
      ],
      "payable": false,
      "stateMutability": "pure",
      "type": "function"
    },
    {
      "constant": true,
      "inputs": [
        {
          "name": "_p",
          "type": "uint256"
        }
      ],
      "name": "currentValidatorsAtPosition",
      "outputs": [
        {
          "name": "",
          "type": "address"
        }
      ],
      "payable": false,
      "stateMutability": "view",
      "type": "function"
    },
    {
      "constant": false,
      "inputs": [
        {
          "name": "_validator",
          "type": "address"
        }
      ],
      "name": "delegate",
      "outputs": [],
      "payable": true,
      "stateMutability": "payable",
      "type": "function"
    },
    {
      "constant": true,
      "inputs": [],
      "name": "newValidatorSet",
      "outputs": [
        {
          "name": "",
          "type": "address[]"
        }
      ],
      "payable": false,
      "stateMutability": "view",
      "type": "function"
    },
    {
      "constant": true,
      "inputs": [],
      "name": "jailedValidators",
      "outputs": [
        {
          "name": "",
          "type": "address[]"
        }
      ],
      "payable": false,
      "stateMutability": "view",
      "type": "function"
    },
    {
      "constant": true,
      "inputs": [
        {
          "name": "_validator",
          "type": "address"
        },
        {
          "name": "_rewardAmount",
          "type": "uint256"
        }
      ],
      "name": "getDelegatorsForRewardDistribution",
      "outputs": [
        {
          "name": "",
          "type": "address[]"
        },
        {
          "name": "",
          "type": "uint256[]"
        }
      ],
      "payable": false,
      "stateMutability": "view",
      "type": "function"
    },
    {
      "constant": true,
      "inputs": [],
      "name": "STRIKE_RESET",
      "outputs": [
        {
          "name": "",
          "type": "uint256"
        }
      ],
      "payable": false,
      "stateMutability": "view",
      "type": "function"
    },
    {
      "constant": false,
      "inputs": [],
      "name": "maintenance",
      "outputs": [],
      "payable": false,
      "stateMutability": "nonpayable",
      "type": "function"
    },
    {
      "constant": false,
      "inputs": [],
      "name": "unJail",
      "outputs": [],
      "payable": false,
      "stateMutability": "nonpayable",
      "type": "function"
    },
    {
      "constant": true,
      "inputs": [],
      "name": "MAX_VALIDATORS",
      "outputs": [
        {
          "name": "",
          "type": "uint256"
        }
      ],
      "payable": false,
      "stateMutability": "view",
      "type": "function"
    },
    {
      "constant": true,
      "inputs": [],
      "name": "VALIDATOR_PRODUCTIVITY_BP",
      "outputs": [
        {
          "name": "",
          "type": "uint256"
        }
      ],
      "payable": false,
      "stateMutability": "view",
      "type": "function"
    },
    {
      "constant": false,
      "inputs": [],
      "name": "finalizeChange",
      "outputs": [],
      "payable": false,
      "stateMutability": "nonpayable",
      "type": "function"
    },
    {
      "constant": true,
      "inputs": [],
      "name": "getMaxValidators",
      "outputs": [
        {
          "name": "",
          "type": "uint256"
        }
      ],
      "payable": false,
      "stateMutability": "pure",
      "type": "function"
    },
    {
      "constant": true,
      "inputs": [
        {
          "name": "_validator",
          "type": "address"
        }
      ],
      "name": "getStrikes",
      "outputs": [
        {
          "name": "",
          "type": "uint256"
        }
      ],
      "payable": false,
      "stateMutability": "view",
      "type": "function"
    },
    {
      "constant": true,
      "inputs": [
        {
          "name": "_validator",
          "type": "address"
        }
      ],
      "name": "blockCounter",
      "outputs": [
        {
          "name": "",
          "type": "uint256"
        }
      ],
      "payable": false,
      "stateMutability": "view",
      "type": "function"
    },
    {
      "constant": true,
      "inputs": [],
      "name": "CYCLE_DURATION_BLOCKS",
      "outputs": [
        {
          "name": "",
          "type": "uint256"
        }
      ],
      "payable": false,
      "stateMutability": "view",
      "type": "function"
    },
    {
      "constant": false,
      "inputs": [
        {
          "name": "_validator",
          "type": "address"
        }
      ],
      "name": "cycle",
      "outputs": [],
      "payable": false,
      "stateMutability": "nonpayable",
      "type": "function"
    },
    {
      "constant": true,
      "inputs": [],
      "name": "MAX_STRIKE_COUNT",
      "outputs": [
        {
          "name": "",
          "type": "uint256"
        }
      ],
      "payable": false,
      "stateMutability": "view",
      "type": "function"
    },
    {
      "constant": true,
      "inputs": [],
      "name": "getSnapshotsPerCycle",
      "outputs": [
        {
          "name": "",
          "type": "uint256"
        }
      ],
      "payable": false,
      "stateMutability": "pure",
      "type": "function"
    },
    {
      "constant": true,
      "inputs": [],
      "name": "requiredSignatures",
      "outputs": [
        {
          "name": "",
          "type": "uint256"
        }
      ],
      "payable": false,
      "stateMutability": "view",
      "type": "function"
    },
    {
      "constant": true,
      "inputs": [
        {
          "name": "_validator",
          "type": "address"
        }
      ],
      "name": "delegators",
      "outputs": [
        {
          "name": "",
          "type": "address[]"
        }
      ],
      "payable": false,
      "stateMutability": "view",
      "type": "function"
    },
    {
      "constant": true,
      "inputs": [],
      "name": "isFinalized",
      "outputs": [
        {
          "name": "",
          "type": "bool"
        }
      ],
      "payable": false,
      "stateMutability": "view",
      "type": "function"
    },
    {
      "constant": true,
      "inputs": [
        {
          "name": "_p",
          "type": "uint256"
        }
      ],
      "name": "jailedValidatorsAtPosition",
      "outputs": [
        {
          "name": "",
          "type": "address"
        }
      ],
      "payable": false,
      "stateMutability": "view",
      "type": "function"
    },
    {
      "constant": true,
      "inputs": [],
      "name": "DEFAULT_VALIDATOR_FEE",
      "outputs": [
        {
          "name": "",
          "type": "uint256"
        }
      ],
      "payable": false,
      "stateMutability": "view",
      "type": "function"
    },
    {
      "constant": true,
      "inputs": [],
      "name": "getCurrentCycleStartBlock",
      "outputs": [
        {
          "name": "",
          "type": "uint256"
        }
      ],
      "payable": false,
      "stateMutability": "view",
      "type": "function"
    },
    {
      "constant": false,
      "inputs": [],
      "name": "emitInitiateChange",
      "outputs": [],
      "payable": false,
      "stateMutability": "nonpayable",
      "type": "function"
    },
    {
      "constant": true,
      "inputs": [],
      "name": "totalStakeAmount",
      "outputs": [
        {
          "name": "",
          "type": "uint256"
        }
      ],
      "payable": false,
      "stateMutability": "view",
      "type": "function"
    },
    {
      "constant": true,
      "inputs": [
        {
          "name": "_validator",
          "type": "address"
        }
      ],
      "name": "validatorFee",
      "outputs": [
        {
          "name": "",
          "type": "uint256"
        }
      ],
      "payable": false,
      "stateMutability": "view",
      "type": "function"
    },
    {
      "constant": true,
      "inputs": [
        {
          "name": "_validator",
          "type": "address"
        },
        {
          "name": "_address",
          "type": "address"
        }
      ],
      "name": "isDelegator",
      "outputs": [
        {
          "name": "",
          "type": "bool"
        }
      ],
      "payable": false,
      "stateMutability": "view",
      "type": "function"
    },
    {
      "constant": true,
      "inputs": [],
      "name": "currentValidators",
      "outputs": [
        {
          "name": "",
          "type": "address[]"
        }
      ],
      "payable": false,
      "stateMutability": "view",
      "type": "function"
    },
    {
      "constant": true,
      "inputs": [],
      "name": "getCycleDurationBlocks",
      "outputs": [
        {
          "name": "",
          "type": "uint256"
        }
      ],
      "payable": false,
      "stateMutability": "pure",
      "type": "function"
    },
    {
      "constant": true,
      "inputs": [],
      "name": "pendingValidators",
      "outputs": [
        {
          "name": "",
          "type": "address[]"
        }
      ],
      "payable": false,
      "stateMutability": "view",
      "type": "function"
    },
    {
      "constant": true,
      "inputs": [],
      "name": "getCurrentCycleEndBlock",
      "outputs": [
        {
          "name": "",
          "type": "uint256"
        }
      ],
      "payable": false,
      "stateMutability": "view",
      "type": "function"
    },
    {
      "constant": true,
      "inputs": [],
      "name": "getValidators",
      "outputs": [
        {
          "name": "",
          "type": "address[]"
        }
      ],
      "payable": false,
      "stateMutability": "view",
      "type": "function"
    },
    {
      "constant": true,
      "inputs": [
        {
          "name": "_address",
          "type": "address"
        }
      ],
      "name": "stakeAmount",
      "outputs": [
        {
          "name": "",
          "type": "uint256"
        }
      ],
      "payable": false,
      "stateMutability": "view",
      "type": "function"
    },
    {
      "constant": false,
      "inputs": [
        {
          "name": "_initialValidator",
          "type": "address"
        }
      ],
      "name": "initialize",
      "outputs": [],
      "payable": false,
      "stateMutability": "nonpayable",
      "type": "function"
    },
    {
      "constant": true,
      "inputs": [],
      "name": "MAX_STAKE",
      "outputs": [
        {
          "name": "",
          "type": "uint256"
        }
      ],
      "payable": false,
      "stateMutability": "view",
      "type": "function"
    },
    {
      "constant": true,
      "inputs": [],
      "name": "MIN_STAKE",
      "outputs": [
        {
          "name": "",
          "type": "uint256"
        }
      ],
      "payable": false,
      "stateMutability": "view",
      "type": "function"
    },
    {
      "constant": true,
      "inputs": [
        {
          "name": "_validator",
          "type": "address"
        }
      ],
      "name": "getStrikeReset",
      "outputs": [
        {
          "name": "",
          "type": "uint256"
        }
      ],
      "payable": false,
      "stateMutability": "view",
      "type": "function"
    },
    {
      "constant": true,
      "inputs": [
        {
          "name": "_validator",
          "type": "address"
        }
      ],
      "name": "delegatorsLength",
      "outputs": [
        {
          "name": "",
          "type": "uint256"
        }
      ],
      "payable": false,
      "stateMutability": "view",
      "type": "function"
    },
    {
      "constant": true,
      "inputs": [],
      "name": "getNextSnapshotId",
      "outputs": [
        {
          "name": "",
          "type": "uint256"
        }
      ],
      "payable": false,
      "stateMutability": "view",
      "type": "function"
    },
    {
      "constant": true,
      "inputs": [
        {
          "name": "_validator",
          "type": "address"
        },
        {
          "name": "_p",
          "type": "uint256"
        }
      ],
      "name": "delegatorsAtPosition",
      "outputs": [
        {
          "name": "",
          "type": "address"
        }
      ],
      "payable": false,
      "stateMutability": "view",
      "type": "function"
    },
    {
      "constant": true,
      "inputs": [],
      "name": "getProxyStorage",
      "outputs": [
        {
          "name": "",
          "type": "address"
        }
      ],
      "payable": false,
      "stateMutability": "view",
      "type": "function"
    },
    {
      "constant": true,
      "inputs": [
        {
          "name": "_validator",
          "type": "address"
        }
      ],
      "name": "getReleaseBlock",
      "outputs": [
        {
          "name": "",
          "type": "uint256"
        }
      ],
      "payable": false,
      "stateMutability": "view",
      "type": "function"
    },
    {
      "constant": true,
      "inputs": [],
      "name": "shouldEmitInitiateChange",
      "outputs": [
        {
          "name": "",
          "type": "bool"
        }
      ],
      "payable": false,
      "stateMutability": "view",
      "type": "function"
    },
    {
      "constant": false,
      "inputs": [
        {
          "name": "_validator",
          "type": "address"
        },
        {
          "name": "_amount",
          "type": "uint256"
        }
      ],
      "name": "withdraw",
      "outputs": [],
      "payable": false,
      "stateMutability": "nonpayable",
      "type": "function"
    },
    {
      "constant": true,
      "inputs": [
        {
          "name": "_address",
          "type": "address"
        }
      ],
      "name": "isValidator",
      "outputs": [
        {
          "name": "",
          "type": "bool"
        }
      ],
      "payable": false,
      "stateMutability": "view",
      "type": "function"
    },
    {
      "constant": true,
      "inputs": [
        {
          "name": "_address",
          "type": "address"
        }
      ],
      "name": "isPendingValidator",
      "outputs": [
        {
          "name": "",
          "type": "bool"
        }
      ],
      "payable": false,
      "stateMutability": "view",
      "type": "function"
    },
    {
      "constant": true,
      "inputs": [],
      "name": "getMaxStake",
      "outputs": [
        {
          "name": "",
          "type": "uint256"
        }
      ],
      "payable": false,
      "stateMutability": "pure",
      "type": "function"
    },
    {
      "payable": true,
      "stateMutability": "payable",
      "type": "fallback"
    },
    {
      "anonymous": false,
      "inputs": [
        {
          "indexed": false,
          "name": "newSet",
          "type": "address[]"
        }
      ],
      "name": "ChangeFinalized",
      "type": "event"
    },
    {
      "anonymous": false,
      "inputs": [],
      "name": "ShouldEmitInitiateChange",
      "type": "event"
    },
    {
      "anonymous": false,
      "inputs": [
        {
          "indexed": true,
          "name": "parentHash",
          "type": "bytes32"
        },
        {
          "indexed": false,
          "name": "newSet",
          "type": "address[]"
        }
      ],
      "name": "InitiateChange",
      "type": "event"
    }
  ],
  "bytecode": "0x608060405234801561001057600080fd5b50614f6f806100206000396000f3006080604052600436106102f25763ffffffff60e060020a6000350416630300fc3581146102ff57806308c90076146103265780630fe9d28e1461033b5780631043ca281461036f57806310855269146103d757806310f606e7146103f857806314bfb5271461040d57806321429e6014610442578063256f9193146104695780632a807f151461047e5780632bec36d2146104935780632e0f2625146104a85780632e1a7d4d146104bd578063392e53cd146104d55780633a4b66f1146104ea57806340c9cdeb146104f257806355460f811461050757806356a3b5fa1461051f57806357aeefc5146105345780635c19a95c1461054c5780635ccee1de14610560578063651d8c22146105755780636a28f12f1461058a5780636bdf1d5a146106475780636c376cc51461065c5780636eae5b1114610671578063714897df1461068657806372e81e321461069b57806375286211146106b057806376bd510f146106c55780637b1e52a5146106da5780637d8f7a61146106fb5780637e2bf1201461071c57806385cd8464146107315780638615b171146107525780638bbc1e6b146107675780638d0680431461077c5780638d23fc61146107915780638d4e4083146107b25780638da873f8146107c757806392b391f3146107df578063932781d6146107f457806393b4e25e1461080957806394409a561461081e5780639f77dc3014610833578063a0e1192914610854578063a2cde6091461087b578063a652492314610890578063a82f255b146108a5578063af295181146108ba578063b7ab4db5146108cf578063bf135267146108e4578063c4d66de814610905578063c98517c514610926578063cb1c2b5c1461093b578063d2166ce914610950578063ddb3f48714610971578063e9fbe9d414610992578063eb431b6a146109a7578063ec15a5e6146109cb578063ee19a7fc146109e0578063ef7b6d8914610a01578063f3fef3a314610a16578063facd743b14610a3a578063fb64aac114610a5b578063fe35505b14610a7c575b6102fd333433610a91565b005b34801561030b57600080fd5b50610314610b59565b60408051918252519081900360200190f35b34801561033257600080fd5b50610314610c0f565b34801561034757600080fd5b50610353600435610c71565b60408051600160a060020a039092168252519081900360200190f35b34801561037b57600080fd5b50610387600435610d38565b60408051602080825283518183015283519192839290830191858101910280838360005b838110156103c35781810151838201526020016103ab565b505050509050019250505060405180910390f35b3480156103e357600080fd5b506102fd600160a060020a0360043516610e73565b34801561040457600080fd5b50610314611192565b34801561041957600080fd5b5061042e600160a060020a036004351661119e565b604080519115158252519081900360200190f35b34801561044e57600080fd5b50610314600160a060020a03600435811690602435166111ef565b34801561047557600080fd5b506103146112b3565b34801561048a57600080fd5b506103146112b8565b34801561049f57600080fd5b5061031461131a565b3480156104b457600080fd5b5061031461138e565b3480156104c957600080fd5b506102fd60043561139a565b3480156104e157600080fd5b5061042e6113a8565b6102fd611460565b3480156104fe57600080fd5b5061031461146d565b34801561051357600080fd5b506102fd6004356114cf565b34801561052b57600080fd5b50610314611516565b34801561054057600080fd5b50610353600435611524565b6102fd600160a060020a0360043516611586565b34801561056c57600080fd5b50610387611591565b34801561058157600080fd5b5061038761169a565b34801561059657600080fd5b506105ae600160a060020a03600435166024356116fc565b604051808060200180602001838103835285818151815260200191508051906020019060200280838360005b838110156105f25781810151838201526020016105da565b50505050905001838103825284818151815260200191508051906020019060200280838360005b83811015610631578181015183820152602001610619565b5050505090500194505050505060405180910390f35b34801561065357600080fd5b506103146117fa565b34801561066857600080fd5b506102fd6117ff565b34801561067d57600080fd5b506102fd61182f565b34801561069257600080fd5b50610314611868565b3480156106a757600080fd5b5061031461186e565b3480156106bc57600080fd5b506102fd611874565b3480156106d157600080fd5b506103146119ed565b3480156106e657600080fd5b50610314600160a060020a03600435166119f3565b34801561070757600080fd5b50610314600160a060020a0360043516611ab7565b34801561072857600080fd5b50610314611b39565b34801561073d57600080fd5b506102fd600160a060020a0360043516611b3f565b34801561075e57600080fd5b50610314611e5f565b34801561077357600080fd5b50610314611e64565b34801561078857600080fd5b50610314611e69565b34801561079d57600080fd5b50610387600160a060020a0360043516611e8e565b3480156107be57600080fd5b5061042e611f10565b3480156107d357600080fd5b50610353600435611f84565b3480156107eb57600080fd5b50610314611fe6565b34801561080057600080fd5b50610314611ff2565b34801561081557600080fd5b506102fd612066565b34801561082a57600080fd5b50610314612129565b34801561083f57600080fd5b50610314600160a060020a036004351661218b565b34801561086057600080fd5b5061042e600160a060020a036004358116906024351661221f565b34801561088757600080fd5b50610387612273565b34801561089c57600080fd5b506103146122d5565b3480156108b157600080fd5b506103876122db565b3480156108c657600080fd5b5061031461233d565b3480156108db57600080fd5b506103876123b1565b3480156108f057600080fd5b50610314600160a060020a03600435166123bb565b34801561091157600080fd5b506102fd600160a060020a036004351661243d565b34801561093257600080fd5b50610314612573565b34801561094757600080fd5b50610314612582565b34801561095c57600080fd5b50610314600160a060020a0360043516612590565b34801561097d57600080fd5b50610314600160a060020a0360043516612612565b34801561099e57600080fd5b50610314612694565b3480156109b357600080fd5b50610353600160a060020a0360043516602435612708565b3480156109d757600080fd5b506103536127f0565b3480156109ec57600080fd5b50610314600160a060020a03600435166128ae565b348015610a0d57600080fd5b5061042e612942565b348015610a2257600080fd5b506102fd600160a060020a03600435166024356129b6565b348015610a4657600080fd5b5061042e600160a060020a03600435166129c1565b348015610a6757600080fd5b5061042e600160a060020a0360043516612a07565b348015610a8857600080fd5b50610314612a4d565b600160a060020a0383161515610aa657600080fd5b811515610ab257600080fd5b600160a060020a0381161515610ac757600080fd5b610ad2838284612a5c565b610adc8183612c17565b610ae4612a4d565b610aed826123bb565b1115610af857600080fd5b610b00611516565b610b09826123bb565b10158015610b1d5750610b1b81612a07565b155b15610b3d57610b2b81612d5e565b610b3d81670214e8348c4f0000612e41565b610b46816129c1565b15610b5457610b5482612ed4565b505050565b60006002600060405160200180807f6c617374536e617073686f7454616b656e4174426c6f636b000000000000000081525060180190506040516020818303038152906040526040518082805190602001908083835b60208310610bce5780518252601f199092019160209182019101610baf565b51815160209384036101000a600019018019909216911617905260408051929094018290039091208652850195909552929092016000205493505050505b90565b6000600a60006040516020018080600080516020614e04833981519152815250601001905060405160208183030381529060405260405180828051906020019080838360208310610bce5780518252601f199092019160209182019101610baf565b6000600a60006040516020018080600080516020614e6483398151915281525060110190506040516020818303038152906040526040518082805190602001908083835b60208310610cd45780518252601f199092019160209182019101610cb5565b51815160209384036101000a60001901801990921691161790526040805192909401829003909120865285019590955292909201600020805490935085925082109050610d1d57fe5b600091825260209091200154600160a060020a031692915050565b6060600a60008360405160200180807f736e617073686f74000000000000000000000000000000000000000000000000815250600801828152602001807f61646472657373657300000000000000000000000000000000000000000000008152506009019150506040516020818303038152906040526040518082805190602001908083835b60208310610ddd5780518252601f199092019160209182019101610dbe565b51815160209384036101000a600019018019909216911617905260408051929094018290039091208652858101969096525092830160002080548451818702810187019095528085529394909392508401905082828015610e6757602002820191906000526020600020905b8154600160a060020a03168152600190910190602001808311610e49575b50505050509050919050565b6004600060405160200180807f6f776e657200000000000000000000000000000000000000000000000000000081525060050190506040516020818303038152906040526040518082805190602001908083835b60208310610ee65780518252601f199092019160209182019101610ec7565b51815160209384036101000a6000190180199092169116179052604080519290940182900390912086528501959095529290920160002054600160a060020a031633149250610f3791505057600080fd5b600160a060020a0381161515610f4c57600080fd5b6006600060405160200180807f77617350726f787953746f72616765536574000000000000000000000000000081525060120190506040516020818303038152906040526040518082805190602001908083835b60208310610fbf5780518252601f199092019160209182019101610fa0565b51815160209384036101000a600019018019909216911617905260408051929094018290039091208652850195909552929092016000205460ff1615925061100991505057600080fd5b806004600060405160200180807f70726f787953746f726167650000000000000000000000000000000000000000815250600c0190506040516020818303038152906040526040518082805190602001908083835b6020831061107d5780518252601f19909201916020918201910161105e565b51815160209384036101000a600019018019909216911617905260408051929094018290039091208652858101969096525092830160009081208054600160a060020a031916600160a060020a039790971696909617909555505080517f77617350726f787953746f7261676553657400000000000000000000000000008184015281516012818303018152603290910191829052805160019460069490939182918401908083835b602083106111455780518252601f199092019160209182019101611126565b51815160209384036101000a60001901801990921691161790526040805192909401829003909120865285019590955292909201600020805460ff19169415159490941790935550505050565b670214e8348c4f000090565b6000805b6111aa610c0f565b8110156111e4576111ba81611f84565b600160a060020a031683600160a060020a031614156111dc57600191506111e9565b6001016111a2565b600091505b50919050565b60408051600080516020614f04833981519152602080830191909152606060020a600160a060020a038087168202602f85015285160260438301528251603781840301815260579092019283905281516000936002938593909282918401908083835b602083106112715780518252601f199092019160209182019101611252565b51815160209384036101000a60001901801990921691161790526040805192909401829003909120865285019590955292909201600020549695505050505050565b600081565b6000600a60006040516020018080600080516020614e64833981519152815250601101905060405160208183030381529060405260405180828051906020019080838360208310610bce5780518252601f199092019160209182019101610baf565b6000600a600060405160200180807f6e657756616c696461746f725365740000000000000000000000000000000000815250600f01905060405160208183030381529060405260405180828051906020019080838360208310610bce5780518252601f199092019160209182019101610baf565b670de0b6b3a764000081565b6113a5338233612fda565b50565b60006006600060405160200180807f6973496e697469616c697a656400000000000000000000000000000000000000815250600d0190506040516020818303038152906040526040518082805190602001908083835b6020831061141d5780518252601f1990920191602091820191016113fe565b51815160209384036101000a600019018019909216911617905260408051929094018290039091208652850195909552929092016000205460ff16949350505050565b61146b333433610a91565b565b6000600a60006040516020018080600080516020614ee4833981519152815250601101905060405160208183030381529060405260405180828051906020019080838360208310610bce5780518252601f199092019160209182019101610baf565b6114d8336129c1565b15156114e357600080fd5b670de0b6b3a76400008111156114f857600080fd5b611500611192565b81101561150c57600080fd5b6113a53382612e41565b69152d02c7e14af680000090565b6000600a60006040516020018080600080516020614ee4833981519152815250601101905060405160208183030381529060405260405180828051906020019080838360208310610cd45780518252601f199092019160209182019101610cb5565b6113a5333483610a91565b6060600a600060405160200180807f6e657756616c696461746f725365740000000000000000000000000000000000815250600f0190506040516020818303038152906040526040518082805190602001908083835b602083106116065780518252601f1990920191602091820191016115e7565b51815160209384036101000a60001901801990921691161790526040805192909401829003909120865285810196909652509283016000208054845181870281018701909552808552939490939250840190508282801561169057602002820191906000526020600020905b8154600160a060020a03168152600190910190602001808311611672575b5050505050905090565b6060600a60006040516020018080600080516020614e048339815191528152506010019050604051602081830303815290604052604051808280519060200190808383602083106116065780518252601f1990920191602091820191016115e7565b606080606080600080600061171089611e8e565b9450845160405190808252806020026020018201604052801561173d578160200160208202803883390190505b50935061175961174b611516565b6117548b6123bb565b6130f4565b92505b84518210156117eb576117786117728a84612708565b8a6111ef565b90506117c8670de0b6b3a76400006117b06117928c61218b565b670de0b6b3a7640000036117bc876117b08e8863ffffffff61310d16565b9063ffffffff61313b16565b9063ffffffff61310d16565b84838151811015156117d657fe5b6020908102909101015260019091019061175c565b50929791965090945050505050565b603281565b611808336129c1565b151561181357600080fd5b61181c3361119e565b1561182657600080fd5b61146b3361315e565b6118383361119e565b151561184357600080fd5b61184b61233d565b611854336128ae565b111561185f57600080fd5b61146b33613170565b6103e881565b610bb881565b6004600060405160200180807f53595354454d5f41444452455353000000000000000000000000000000000000815250600e0190506040516020818303038152906040526040518082805190602001908083835b602083106118e75780518252601f1990920191602091820191016118c8565b51815160209384036101000a6000190180199092169116179052604080519290940182900390912086528501959095529290920160002054600160a060020a03163314925061193891505057600080fd5b611940611f10565b1561194a57600080fd5b600061195461131a565b11156119e35761196a611965611591565b6131ac565b7f8564cd629b15f47dc310d45bcbfc9bcf5420b0d51bf0659a16c67f91d2763253611993612273565b60408051602080825283518183015283519192839290830191858101910280838360005b838110156119cf5781810151838201526020016119b7565b505050509050019250505060405180910390a15b61146b60016132ff565b6103e890565b600060026000836040516020018080600080516020614f24833981519152815250600b0182600160a060020a0316600160a060020a0316606060020a0281526014019150506040516020818303038152906040526040518082805190602001908083835b60208310611a765780518252601f199092019160209182019101611a57565b51815160209384036101000a600019018019909216911617905260408051929094018290039091208652850195909552929092016000205495945050505050565b600060026000836040516020018080600080516020614e44833981519152815250600c0182600160a060020a0316600160a060020a0316606060020a02815260140191505060405160208183030381529060405260405180828051906020019080838360208310611a765780518252601f199092019160209182019101611a57565b61870081565b6060611b496127f0565b600160a060020a031663f89d40866040518163ffffffff1660e060020a028152600401602060405180830381600087803b158015611b8657600080fd5b505af1158015611b9a573d6000803e3d6000fd5b505050506040513d6020811015611bb057600080fd5b5051600160a060020a03163314611bc657600080fd5b611bcf82613372565b611bd76134a2565b15611e5b57611be46127f0565b600160a060020a0316631986d3766040518163ffffffff1660e060020a028152600401602060405180830381600087803b158015611c2157600080fd5b505af1158015611c35573d6000803e3d6000fd5b505050506040513d6020811015611c4b57600080fd5b5051600160a060020a031663bbac62c8611c63612273565b6040518263ffffffff1660e060020a0281526004018080602001828103825283818151815260200191508051906020019060200280838360005b83811015611cb5578181015183820152602001611c9d565b5050505090500192505050600060405180830381600087803b158015611cda57600080fd5b505af1158015611cee573d6000803e3d6000fd5b50505050611cfa6134b4565b611d0a611d05612273565b613625565b611d126122db565b9050600081511115611d2757611d278161370a565b6000611d3161131a565b1115611d7557611d4160006132ff565b611d4b60016137cc565b6040517fad8a61077dff62d25ea1bf7cf1af88e1b48075c3d497d494ac9b129b73b0d37c90600090a15b611d7d6127f0565b600160a060020a031663f89d40866040518163ffffffff1660e060020a028152600401602060405180830381600087803b158015611dba57600080fd5b505af1158015611dce573d6000803e3d6000fd5b505050506040513d6020811015611de457600080fd5b5051604080517fb1f0c8e10000000000000000000000000000000000000000000000000000000081529051600160a060020a039092169163b1f0c8e19160048082019260009290919082900301818387803b158015611e4257600080fd5b505af1158015611e56573d6000803e3d6000fd5b505050505b5050565b600581565b600090565b6000611e896001611e7d60026117b061146d565b9063ffffffff61383f16565b905090565b6060600a6000836040516020018080600080516020614e24833981519152815250600a0182600160a060020a0316600160a060020a0316606060020a02815260140191505060405160208183030381529060405260405180828051906020019080838360208310610ddd5780518252601f199092019160209182019101610dbe565b60006006600060405160200180807f697346696e616c697a6564000000000000000000000000000000000000000000815250600b0190506040516020818303038152906040526040518082805190602001908083836020831061141d5780518252601f1990920191602091820191016113fe565b6000600a60006040516020018080600080516020614e04833981519152815250601001905060405160208183030381529060405260405180828051906020019080838360208310610cd45780518252601f199092019160209182019101610cb5565b670214e8348c4f000081565b60006002600060405160200180807f63757272656e744379636c655374617274426c6f636b00000000000000000000815250601601905060405160208183030381529060405260405180828051906020019080838360208310610bce5780518252601f199092019160209182019101610baf565b61206f336129c1565b151561207a57600080fd5b612082612942565b151561208d57600080fd5b600061209761131a565b116120a157600080fd5b6000194301407f55252fa6eee4741b4e24a74a70e9c11fd2c2281df8d6ea13126ff845f7825c896120d0611591565b60408051602080825283518183015283519192839290830191858101910280838360005b8381101561210c5781810151838201526020016120f4565b505050509050019250505060405180910390a261146b60006137cc565b6000600260006040516020018080600080516020614ec4833981519152815250601001905060405160208183030381529060405260405180828051906020019080838360208310610bce5780518252601f199092019160209182019101610baf565b6000600260008360405160200180807f76616c696461746f724665650000000000000000000000000000000000000000815250600c0182600160a060020a0316600160a060020a0316606060020a02815260140191505060405160208183030381529060405260405180828051906020019080838360208310611a765780518252601f199092019160209182019101611a57565b6000805b61222c84612612565b8110156122675761223d8482612708565b600160a060020a031683600160a060020a0316141561225f576001915061226c565b600101612223565b600091505b5092915050565b6060600a60006040516020018080600080516020614ee48339815191528152506011019050604051602081830303815290604052604051808280519060200190808383602083106116065780518252601f1990920191602091820191016115e7565b61870090565b6060600a60006040516020018080600080516020614e648339815191528152506011019050604051602081830303815290604052604051808280519060200190808383602083106116065780518252601f1990920191602091820191016115e7565b60006002600060405160200180807f63757272656e744379636c65456e64426c6f636b000000000000000000000000815250601401905060405160208183030381529060405260405180828051906020019080838360208310610bce5780518252601f199092019160209182019101610baf565b6060611e89612273565b600060026000836040516020018080600080516020614ea4833981519152815250600b0182600160a060020a0316600160a060020a0316606060020a02815260140191505060405160208183030381529060405260405180828051906020019080838360208310611a765780518252601f199092019160209182019101611a57565b6004600060405160200180807f6f776e657200000000000000000000000000000000000000000000000000000081525060050190506040516020818303038152906040526040518082805190602001908083835b602083106124b05780518252601f199092019160209182019101612491565b51815160209384036101000a6000190180199092169116179052604080519290940182900390912086528501959095529290920160002054600160a060020a03163314925061250191505057600080fd5b6125096113a8565b1561251357600080fd5b61253073fffffffffffffffffffffffffffffffffffffffe613851565b6125386134b4565b600160a060020a03811615156125565761255133613921565b61255f565b61255f81613921565b61256960016132ff565b6113a56001613981565b6a0422ca8b0a00a42500000081565b69152d02c7e14af680000081565b600060026000836040516020018080600080516020614e84833981519152815250600b0182600160a060020a0316600160a060020a0316606060020a02815260140191505060405160208183030381529060405260405180828051906020019080838360208310611a765780518252601f199092019160209182019101611a57565b6000600a6000836040516020018080600080516020614e24833981519152815250600a0182600160a060020a0316600160a060020a0316606060020a02815260140191505060405160208183030381529060405260405180828051906020019080838360208310611a765780518252601f199092019160209182019101611a57565b60006002600060405160200180807f6e657874536e617073686f744964000000000000000000000000000000000000815250600e01905060405160208183030381529060405260405180828051906020019080838360208310610bce5780518252601f199092019160209182019101610baf565b6000600a6000846040516020018080600080516020614e24833981519152815250600a0182600160a060020a0316600160a060020a0316606060020a0281526014019150506040516020818303038152906040526040518082805190602001908083835b6020831061278b5780518252601f19909201916020918201910161276c565b51815160209384036101000a600019018019909216911617905260408051929094018290039091208652850195909552929092016000208054909350859250821090506127d457fe5b600091825260209091200154600160a060020a03169392505050565b60006004600060405160200180807f70726f787953746f726167650000000000000000000000000000000000000000815250600c0190506040516020818303038152906040526040518082805190602001908083835b602083106128655780518252601f199092019160209182019101612846565b51815160209384036101000a6000190180199092169116179052604080519290940182900390912086528501959095529290920160002054600160a060020a0316949350505050565b6000600260008360405160200180807f72656c65617365426c6f636b0000000000000000000000000000000000000000815250600c0182600160a060020a0316600160a060020a0316606060020a02815260140191505060405160208183030381529060405260405180828051906020019080838360208310611a765780518252601f199092019160209182019101611a57565b60006006600060405160200180807f73686f756c64456d6974496e6974696174654368616e6765000000000000000081525060180190506040516020818303038152906040526040518082805190602001908083836020831061141d5780518252601f1990920191602091820191016113fe565b611e5b338284612fda565b6000805b6129cd61146d565b8110156111e4576129dd81611524565b600160a060020a031683600160a060020a031614156129ff57600191506111e9565b6001016129c5565b6000805b612a136112b8565b8110156111e457612a2381610c71565b600160a060020a031683600160a060020a03161415612a4557600191506111e9565b600101612a0b565b6a0422ca8b0a00a42500000090565b60408051600080516020614f04833981519152602080830191909152606060020a600160a060020a038088168202602f8501528616026043830152825160378184030181526057909201928390528151612b2693859360029360009391929182918401908083835b60208310612ae35780518252601f199092019160209182019101612ac4565b51815160209384036101000a60001901801990921691161790526040805192909401829003909120865285019590955292909201600020549392505061383f9050565b60408051600080516020614f04833981519152602080830191909152606060020a600160a060020a038089168202602f850152871602604383015282516037818403018152605790920192839052815160029360009392909182918401908083835b60208310612ba75780518252601f199092019160209182019101612b88565b51815160209384036101000a6000190180199092169116179052604080519290940182900390912086528501959095529290920160002093909355505050600160a060020a0382811690841614801590612c085750612c06828461221f565b155b15610b5457610b5483836139f4565b612c9b8160026000856040516020018080600080516020614ea4833981519152815250600b0182600160a060020a0316600160a060020a0316606060020a02815260140191505060405160208183030381529060405260405180828051906020019080838360208310612ae35780518252601f199092019160209182019101612ac4565b60026000846040516020018080600080516020614ea4833981519152815250600b0182600160a060020a0316600160a060020a0316606060020a0281526014019150506040516020818303038152906040526040518082805190602001908083835b60208310612d1c5780518252601f199092019160209182019101612cfd565b51815160209384036101000a60001901801990921691161790526040805192909401829003909120865285019590955292909201600020939093555050505050565b612d678161119e565b15612d7157600080fd5b600a60006040516020018080600080516020614e6483398151915281525060110190506040516020818303038152906040526040518082805190602001908083835b60208310612dd25780518252601f199092019160209182019101612db3565b51815160209384036101000a600019018019909216911617905260408051929094018290039091208652858101969096525092909201600090812080546001810182559082529390209092018054600160a060020a031916600160a060020a0394909416939093179092555050565b80600260008460405160200180807f76616c696461746f724665650000000000000000000000000000000000000000815250600c0182600160a060020a0316600160a060020a0316606060020a02815260140191505060405160208183030381529060405260405180828051906020019080838360208310612d1c5780518252601f199092019160209182019101612cfd565b612f3881600260006040516020018080600080516020614ec4833981519152815250601001905060405160208183030381529060405260405180828051906020019080838360208310612ae35780518252601f199092019160209182019101612ac4565b600260006040516020018080600080516020614ec483398151915281525060100190506040516020818303038152906040526040518082805190602001908083835b60208310612f995780518252601f199092019160209182019101612f7a565b51815160209384036101000a600019018019909216911617905260408051929094018290039091208652850195909552929092016000209390935550505050565b6000600160a060020a0382161515612ff157600080fd5b60008311612ffe57600080fd5b613007826123bb565b83111561301357600080fd5b61301d84836111ef565b83111561302957600080fd5b613032826129c1565b905061303c611516565b61305584613049856123bb565b9063ffffffff613ae516565b10801561305f5750805b156130725761306d82613afc565b6130ee565b61307d848385613cfa565b6130878284613f4c565b80156130965761309683613fd0565b61309e611516565b6130a7836123bb565b10156130b6576130b682613afc565b604051600160a060020a0385169084156108fc029085906000818181858888f193505050501580156130ec573d6000803e3d6000fd5b505b50505050565b6000818310156131045781613106565b825b9392505050565b600080831515613120576000915061226c565b5082820282848281151561313057fe5b041461310657600080fd5b60008080831161314a57600080fd5b828481151561315557fe5b04949350505050565b61316781613afc565b6113a581614034565b61317981614094565b613181611516565b61318a826123bb565b1015801561319e575061319c81612a07565b155b156113a5576113a581612d5e565b60008080805b8451831015613246576131db85848151811015156131cc57fe5b906020019060200201516123bb565b9150818401935061320285848151811015156131f357fe5b9060200190602002015161218b565b905061320c611192565b81101561323b5761323b858481518110151561322457fe5b90602001906020020151613236611192565b612e41565b6001909201916131b2565b61324f8461423a565b84600a60006040516020018080600080516020614ee483398151915281525060110190506040516020818303038152906040526040518082805190602001908083835b602083106132b15780518252601f199092019160209182019101613292565b51815160001960209485036101000a01908116901991909116179052604080519490920184900390932086528583019690965250929093016000208451611e56959194509201919050614d3c565b806006600060405160200180807f697346696e616c697a6564000000000000000000000000000000000000000000815250600b019050604051602081830303815290604052604051808280519060200190808383602083106111455780518252601f199092019160209182019101611126565b60026000826040516020018080600080516020614e44833981519152815250600c0182600160a060020a0316600160a060020a0316606060020a0281526014019150506040516020818303038152906040526040518082805190602001908083835b602083106133f35780518252601f1990920191602091820191016133d4565b51815160209384036101000a60001901801990921691161790526040805192909401829003909120865285810196909652509283016000908120548451600080516020614e4483398151915281880152600160a060020a038816606060020a02602c8201528551808203880181529086019586905280516001909201966002969395509093508291848201918190849084908310612f995780518252601f199092019160209182019101612f7a565b60006134ac61233d565b431015905090565b436002600060405160200180807f63757272656e744379636c655374617274426c6f636b0000000000000000000081525060160190506040516020818303038152906040526040518082805190602001908083835b602083106135285780518252601f199092019160209182019101613509565b51815160209384036101000a60001901801990921691161790526040805192909401829003909120865285019590955292909201600020939093555061357091506122d59050565b43016002600060405160200180807f63757272656e744379636c65456e64426c6f636b00000000000000000000000081525060140190506040516020818303038152906040526040518082805190602001908083835b602083106135e55780518252601f1990920191602091820191016135c6565b51815160209384036101000a6000190180199092169116179052604080519290940182900390912086528501959095529290920160002093909355505050565b6000806136416127106117b085516117b0610bb86117bc6122d5565b9150600090505b8251811015610b545781613672848381518110151561366357fe5b90602001906020020151611ab7565b101561369d57613698838281518110151561368957fe5b9060200190602002015161429b565b6136e2565b6136bd83828151811015156136ae57fe5b906020019060200201516119f3565b156136e2576136e283828151811015156136d357fe5b906020019060200201516142bf565b61370283828151811015156136f357fe5b906020019060200201516144fe565b600101613648565b80600a600060405160200180807f6e657756616c696461746f725365740000000000000000000000000000000000815250600f0190506040516020818303038152906040526040518082805190602001908083835b6020831061377e5780518252601f19909201916020918201910161375f565b51815160001960209485036101000a01908116901991909116179052604080519490920184900390932086528583019690965250929093016000208451611e5b959194509201919050614d3c565b806006600060405160200180807f73686f756c64456d6974496e6974696174654368616e676500000000000000008152506018019050604051602081830303815290604052604051808280519060200190808383602083106111455780518252601f199092019160209182019101611126565b60008282018381101561310657600080fd5b806004600060405160200180807f53595354454d5f41444452455353000000000000000000000000000000000000815250600e0190506040516020818303038152906040526040518082805190602001908083835b602083106138c55780518252601f1990920191602091820191016138a6565b51815160209384036101000a600019018019909216911617905260408051929094018290039091208652850195909552929092016000208054600160a060020a031916600160a060020a03959095169490941790935550505050565b600a60006040516020018080600080516020614ee4833981519152815250601101905060405160208183030381529060405260405180828051906020019080838360208310612dd25780518252601f199092019160209182019101612db3565b806006600060405160200180807f6973496e697469616c697a656400000000000000000000000000000000000000815250600d019050604051602081830303815290604052604051808280519060200190808383602083106111455780518252601f199092019160209182019101611126565b600a6000826040516020018080600080516020614e24833981519152815250600a0182600160a060020a0316600160a060020a0316606060020a0281526014019150506040516020818303038152906040526040518082805190602001908083835b60208310613a755780518252601f199092019160209182019101613a56565b51815160209384036101000a600019018019909216911617905260408051929094018290039091208652858101969096525092909201600090812080546001810182559082529390209092018054600160a060020a031916600160a060020a039590951694909417909355505050565b60008083831115613af557600080fd5b5050900390565b6000808080805b613b0b6112b8565b831015613b4b57613b1b83610c71565b600160a060020a031686600160a060020a03161415613b405782935060019450613b4b565b600190920191613b03565b8415611e56576001613b5b6112b8565b039150613b6782610c71565b9050600160a060020a03811615613b8257613b828482614580565b600a60006040516020018080600080516020614e6483398151915281525060110190506040516020818303038152906040526040518082805190602001908083835b60208310613be35780518252601f199092019160209182019101613bc4565b51815160209384036101000a60001901801990921691161790526040805192909401829003909120865285019590955292909201600020805490935085925082109050613c2c57fe5b600091825260208083209091018054600160a060020a031916905560408051600080516020614e6483398151915281840152815180820360110181526031909101918290528051600a94939192918291908401908083835b60208310613ca35780518252601f199092019160209182019101613c84565b51815160001960209485036101000a81019182169119929092161790915260408051959093018590039094208752860196909652509290930160002080549350613cf1929091508301614da1565b50505050505050565b60408051600080516020614f04833981519152602080830191909152606060020a600160a060020a038088168202602f8501528616026043830152825160378184030181526057909201928390528151613dc493859360029360009391929182918401908083835b60208310613d815780518252601f199092019160209182019101613d62565b51815160209384036101000a600019018019909216911617905260408051929094018290039091208652850195909552929092016000205493925050613ae59050565b60408051600080516020614f04833981519152602080830191909152606060020a600160a060020a038089168202602f850152871602604383015282516037818403018152605790920192839052815160029360009392909182918401908083835b60208310613e455780518252601f199092019160209182019101613e26565b51815160001960209485036101000a0190811690199190911617905260408051949092018490039093208652858301969096525092840160009081209590955550508151600080516020614f0483398151915281830152606060020a600160a060020a038089168202602f84015287160260438201528251603781830301815260579091019283905280516002949391928291908401908083835b60208310613eff5780518252601f199092019160209182019101613ee0565b51815160209384036101000a600019018019909216911617905260408051929094018290039091208652850195909552929092016000205415159250610b5491505057610b54838361465d565b612c9b8160026000856040516020018080600080516020614ea4833981519152815250600b0182600160a060020a0316600160a060020a0316606060020a02815260140191505060405160208183030381529060405260405180828051906020019080838360208310613d815780518252601f199092019160209182019101613d62565b612f3881600260006040516020018080600080516020614ec4833981519152815250601001905060405160208183030381529060405260405180828051906020019080838360208310613d815780518252601f199092019160209182019101613d62565b600a60006040516020018080600080516020614e04833981519152815250601001905060405160208183030381529060405260405180828051906020019080838360208310612dd25780518252601f199092019160209182019101612db3565b6000808080805b6140a3610c0f565b8310156140e3576140b383611f84565b600160a060020a031686600160a060020a031614156140d857829350600194506140e3565b60019092019161409b565b8415611e565760016140f3610c0f565b0391506140ff82611f84565b9050600160a060020a0381161561411a5761411a8482614896565b600a60006040516020018080600080516020614e0483398151915281525060100190506040516020818303038152906040526040518082805190602001908083835b6020831061417b5780518252601f19909201916020918201910161415c565b51815160209384036101000a600019018019909216911617905260408051929094018290039091208652850195909552929092016000208054909350859250821090506141c457fe5b600091825260208083209091018054600160a060020a031916905560408051600080516020614e0483398151915281840152815180820360100181526030909101918290528051600a949391929182919084019080838360208310613ca35780518252601f199092019160209182019101613c84565b80600260006040516020018080600080516020614ec4833981519152815250601001905060405160208183030381529060405260405180828051906020019080838360208310612f995780518252601f199092019160209182019101612f7a565b6142a481613afc565b6142ad81614034565b6142b6816148f7565b6113a581614b3a565b60026000826040516020018080600080516020614e84833981519152815250600b0182600160a060020a0316600160a060020a0316606060020a0281526014019150506040516020818303038152906040526040518082805190602001908083835b602083106143405780518252601f199092019160209182019101614321565b51815160209384036101000a60001901801990921691161790526040805192909401829003909120865285810196909652509283016000908120548451600080516020614e8483398151915281880152600160a060020a038816606060020a02602b8201528551808203601f018152603f9091019586905280516001909201966002969395509093508291908401908083835b602083106143f25780518252601f1990920191602091820191016143d3565b51815160209384036101000a600019018019909216911617905260408051929094018290039091208652858101969096525092830160009081209590955550508051600080516020614e8483398151915281840152600160a060020a038516606060020a02602b8201528151808203601f018152603f90910191829052805160329460029490939182918401908083835b602083106144a25780518252601f199092019160209182019101614483565b6001836020036101000a0380198251168184511680821785525050505050509050019150506040518091039020600019166000191681526020019081526020016000205411156113a5576144f581614b3a565b6113a581614bbc565b600060026000836040516020018080600080516020614e44833981519152815250600c0182600160a060020a0316600160a060020a0316606060020a02815260140191505060405160208183030381529060405260405180828051906020019080838360208310612f995780518252601f199092019160209182019101612f7a565b80600a60006040516020018080600080516020614e6483398151915281525060110190506040516020818303038152906040526040518082805190602001908083835b602083106145e25780518252601f1990920191602091820191016145c3565b51815160209384036101000a6000190180199092169116179052604080519290940182900390912086528501959095529290920160002080549093508692508210905061462b57fe5b9060005260206000200160006101000a815481600160a060020a030219169083600160a060020a031602179055505050565b6000808080805b61466d86612612565b8310156146ae5761467e8684612708565b600160a060020a031687600160a060020a031614156146a357829350600194506146ae565b600190920191614664565b8415613cf15760016146bf87612612565b0391506146cc8683612708565b9050600160a060020a038116156146e8576146e8868583614c3e565b600a6000876040516020018080600080516020614e24833981519152815250600a0182600160a060020a0316600160a060020a0316606060020a0281526014019150506040516020818303038152906040526040518082805190602001908083835b602083106147695780518252601f19909201916020918201910161474a565b51815160209384036101000a600019018019909216911617905260408051929094018290039091208652850195909552929092016000208054909350859250821090506147b257fe5b600091825260208083209091018054600160a060020a031916905560408051600080516020614e2483398151915281840152606060020a600160a060020a038b1602602a8201528151601e818303018152603e909101918290528051600a94939192918291908401908083835b6020831061483e5780518252601f19909201916020918201910161481f565b51815160001960209485036101000a8101918216911992909216179091526040805195909301859003909420875286019690965250929093016000208054935061488c929091508301614da1565b5050505050505050565b80600a60006040516020018080600080516020614e048339815191528152506010019050604051602081830303815290604052604051808280519060200190808383602083106145e25780518252601f1990920191602091820191016145c3565b600060026000836040516020018080600080516020614f24833981519152815250600b0182600160a060020a0316600160a060020a0316606060020a0281526014019150506040516020818303038152906040526040518082805190602001908083835b6020831061497a5780518252601f19909201916020918201910161495b565b6001836020036101000a0380198251168184511680821785525050505050509050019150506040518091039020600019166000191681526020019081526020016000205490506149dc60016130496149d4846117bc6122d5565b611e7d61233d565b600260008460405160200180807f72656c65617365426c6f636b0000000000000000000000000000000000000000815250600c0182600160a060020a0316600160a060020a0316606060020a0281526014019150506040516020818303038152906040526040518082805190602001908083835b60208310614a6f5780518252601f199092019160209182019101614a50565b51815160209384036101000a60001901801990921691161790526040805192909401829003909120865285019590955292909201600020939093555050600582119050611e5b578060010160026000846040516020018080600080516020614f24833981519152815250600b0182600160a060020a0316600160a060020a0316606060020a02815260140191505060405160208183030381529060405260405180828051906020019080838360208310612d1c5780518252601f199092019160209182019101612cfd565b600060026000836040516020018080600080516020614e84833981519152815250600b0182600160a060020a0316600160a060020a0316606060020a02815260140191505060405160208183030381529060405260405180828051906020019080838360208310612f995780518252601f199092019160209182019101612f7a565b600060026000836040516020018080600080516020614f24833981519152815250600b0182600160a060020a0316600160a060020a0316606060020a02815260140191505060405160208183030381529060405260405180828051906020019080838360208310612f995780518252601f199092019160209182019101612f7a565b80600a6000856040516020018080600080516020614e24833981519152815250600a0182600160a060020a0316600160a060020a0316606060020a0281526014019150506040516020818303038152906040526040518082805190602001908083835b60208310614cc05780518252601f199092019160209182019101614ca1565b51815160209384036101000a60001901801990921691161790526040805192909401829003909120865285019590955292909201600020805490935086925082109050614d0957fe5b9060005260206000200160006101000a815481600160a060020a030219169083600160a060020a03160217905550505050565b828054828255906000526020600020908101928215614d91579160200282015b82811115614d915782518254600160a060020a031916600160a060020a03909116178255602090920191600190910190614d5c565b50614d9d929150614dc5565b5090565b815481835581811115610b5457600083815260209020610b54918101908301614de9565b610c0c91905b80821115614d9d578054600160a060020a0319168155600101614dcb565b610c0c91905b80821115614d9d5760008155600101614def56006a61696c656456616c696461746f72730000000000000000000000000000000064656c656761746f727300000000000000000000000000000000000000000000626c6f636b436f756e746572000000000000000000000000000000000000000070656e64696e6756616c696461746f7273000000000000000000000000000000737472696b6552657365740000000000000000000000000000000000000000007374616b65416d6f756e74000000000000000000000000000000000000000000746f74616c5374616b65416d6f756e740000000000000000000000000000000063757272656e7456616c696461746f727300000000000000000000000000000064656c656761746564416d6f756e740000000000000000000000000000000000737472696b65436f756e74000000000000000000000000000000000000000000a165627a7a72305820b8d0701824398901836bee88d37f216d9fca16a9174f182468dc0a726f1e76990029",
  "linkReferences": {},
  "deployedLinkReferences": {}
}