{
  "_format": "hh-sol-artifact-1",
  "contractName": "Voting",
  "sourceName": "contracts/Voting.sol",
  "abi": [
    {
      "constant": true,
      "inputs": [
        {
          "name": "_id",
          "type": "uint256"
        }
      ],
      "name": "getStartBlock",
      "outputs": [
        {
          "name": "",
          "type": "uint256"
        }
      ],
      "payable": false,
      "stateMutability": "view",
      "type": "function"
    },
    {
      "constant": true,
      "inputs": [
        {
          "name": "_id",
          "type": "uint256"
        }
      ],
      "name": "getQuorumState",
      "outputs": [
        {
          "name": "",
          "type": "uint256"
        }
      ],
      "payable": false,
      "stateMutability": "view",
      "type": "function"
    },
    {
      "constant": true,
      "inputs": [],
      "name": "MIN_BALLOT_DURATION_CYCLES",
      "outputs": [
        {
          "name": "",
          "type": "uint256"
        }
      ],
      "payable": false,
      "stateMutability": "view",
      "type": "function"
    },
    {
      "constant": true,
      "inputs": [
        {
          "name": "_id",
          "type": "uint256"
        },
        {
          "name": "_key",
          "type": "address"
        }
      ],
      "name": "getVoterChoice",
      "outputs": [
        {
          "name": "",
          "type": "uint256"
        }
      ],
      "payable": false,
      "stateMutability": "view",
      "type": "function"
    },
    {
      "constant": true,
      "inputs": [
        {
          "name": "_id",
          "type": "uint256"
        }
      ],
      "name": "getAccepted",
      "outputs": [
        {
          "name": "",
          "type": "uint256"
        }
      ],
      "payable": false,
      "stateMutability": "view",
      "type": "function"
    },
    {
      "constant": true,
      "inputs": [
        {
          "name": "_id",
          "type": "uint256"
        }
      ],
      "name": "getIsFinalized",
      "outputs": [
        {
          "name": "",
          "type": "bool"
        }
      ],
      "payable": false,
      "stateMutability": "view",
      "type": "function"
    },
    {
      "constant": true,
      "inputs": [
        {
          "name": "_id",
          "type": "uint256"
        }
      ],
      "name": "isActiveBallot",
      "outputs": [
        {
          "name": "",
          "type": "bool"
        }
      ],
      "payable": false,
      "stateMutability": "view",
      "type": "function"
    },
    {
      "constant": true,
      "inputs": [
        {
          "name": "_id",
          "type": "uint256"
        }
      ],
      "name": "getFinalizeCalled",
      "outputs": [
        {
          "name": "",
          "type": "bool"
        }
      ],
      "payable": false,
      "stateMutability": "view",
      "type": "function"
    },
    {
      "constant": true,
      "inputs": [],
      "name": "DECIMALS",
      "outputs": [
        {
          "name": "",
          "type": "uint256"
        }
      ],
      "payable": false,
      "stateMutability": "view",
      "type": "function"
    },
    {
      "constant": true,
      "inputs": [],
      "name": "MINIMUM_TURNOUT_BP",
      "outputs": [
        {
          "name": "",
          "type": "uint256"
        }
      ],
      "payable": false,
      "stateMutability": "view",
      "type": "function"
    },
    {
      "constant": true,
      "inputs": [],
      "name": "isInitialized",
      "outputs": [
        {
          "name": "",
          "type": "bool"
        }
      ],
      "payable": false,
      "stateMutability": "view",
      "type": "function"
    },
    {
      "constant": true,
      "inputs": [],
      "name": "getNextBallotId",
      "outputs": [
        {
          "name": "",
          "type": "uint256"
        }
      ],
      "payable": false,
      "stateMutability": "view",
      "type": "function"
    },
    {
      "constant": true,
      "inputs": [
        {
          "name": "_id",
          "type": "uint256"
        }
      ],
      "name": "getTotalStake",
      "outputs": [
        {
          "name": "",
          "type": "uint256"
        }
      ],
      "payable": false,
      "stateMutability": "view",
      "type": "function"
    },
    {
      "constant": true,
      "inputs": [],
      "name": "MAX_BALLOT_DURATION_CYCLES",
      "outputs": [
        {
          "name": "",
          "type": "uint256"
        }
      ],
      "payable": false,
      "stateMutability": "view",
      "type": "function"
    },
    {
      "constant": true,
      "inputs": [
        {
          "name": "_id",
          "type": "uint256"
        }
      ],
      "name": "getDescription",
      "outputs": [
        {
          "name": "",
          "type": "string"
        }
      ],
      "payable": false,
      "stateMutability": "view",
      "type": "function"
    },
    {
      "constant": true,
      "inputs": [
        {
          "name": "_id",
          "type": "uint256"
        }
      ],
      "name": "getBelowTurnOut",
      "outputs": [
        {
          "name": "",
          "type": "bool"
        }
      ],
      "payable": false,
      "stateMutability": "view",
      "type": "function"
    },
    {
      "constant": true,
      "inputs": [
        {
          "name": "_id",
          "type": "uint256"
        }
      ],
      "name": "getRejected",
      "outputs": [
        {
          "name": "",
          "type": "uint256"
        }
      ],
      "payable": false,
      "stateMutability": "view",
      "type": "function"
    },
    {
      "constant": true,
      "inputs": [],
      "name": "activeBallotsLength",
      "outputs": [
        {
          "name": "",
          "type": "uint256"
        }
      ],
      "payable": false,
      "stateMutability": "view",
      "type": "function"
    },
    {
      "constant": true,
      "inputs": [
        {
          "name": "_address",
          "type": "address"
        }
      ],
      "name": "isValidVotingKey",
      "outputs": [
        {
          "name": "",
          "type": "bool"
        }
      ],
      "payable": false,
      "stateMutability": "view",
      "type": "function"
    },
    {
      "constant": false,
      "inputs": [],
      "name": "initialize",
      "outputs": [],
      "payable": false,
      "stateMutability": "nonpayable",
      "type": "function"
    },
    {
      "constant": true,
      "inputs": [
        {
          "name": "_id",
          "type": "uint256"
        }
      ],
      "name": "canBeFinalized",
      "outputs": [
        {
          "name": "",
          "type": "bool"
        }
      ],
      "payable": false,
      "stateMutability": "view",
      "type": "function"
    },
    {
      "constant": true,
      "inputs": [],
      "name": "MAX_LIMIT_OF_BALLOTS",
      "outputs": [
        {
          "name": "",
          "type": "uint256"
        }
      ],
      "payable": false,
      "stateMutability": "view",
      "type": "function"
    },
    {
      "constant": true,
      "inputs": [],
      "name": "getMaxBallotDurationCycles",
      "outputs": [
        {
          "name": "",
          "type": "uint256"
        }
      ],
      "payable": false,
      "stateMutability": "pure",
      "type": "function"
    },
    {
      "constant": true,
      "inputs": [
        {
          "name": "_id",
          "type": "uint256"
        },
        {
          "name": "_key",
          "type": "address"
        }
      ],
      "name": "getBallotInfo",
      "outputs": [
        {
          "name": "startBlock",
          "type": "uint256"
        },
        {
          "name": "endBlock",
          "type": "uint256"
        },
        {
          "name": "isFinalized",
          "type": "bool"
        },
        {
          "name": "proposedValue",
          "type": "address"
        },
        {
          "name": "contractType",
          "type": "uint256"
        },
        {
          "name": "creator",
          "type": "address"
        },
        {
          "name": "description",
          "type": "string"
        },
        {
          "name": "canBeFinalizedNow",
          "type": "bool"
        },
        {
          "name": "alreadyVoted",
          "type": "bool"
        },
        {
          "name": "belowTurnOut",
          "type": "bool"
        },
        {
          "name": "accepted",
          "type": "uint256"
        },
        {
          "name": "rejected",
          "type": "uint256"
        },
        {
          "name": "totalStake",
          "type": "uint256"
        }
      ],
      "payable": false,
      "stateMutability": "view",
      "type": "function"
    },
    {
      "constant": true,
      "inputs": [
        {
          "name": "_id",
          "type": "uint256"
        }
      ],
      "name": "getEndBlock",
      "outputs": [
        {
          "name": "",
          "type": "uint256"
        }
      ],
      "payable": false,
      "stateMutability": "view",
      "type": "function"
    },
    {
      "constant": true,
      "inputs": [
        {
          "name": "_id",
          "type": "uint256"
        }
      ],
      "name": "getIndex",
      "outputs": [
        {
          "name": "",
          "type": "uint256"
        }
      ],
      "payable": false,
      "stateMutability": "view",
      "type": "function"
    },
    {
      "constant": false,
      "inputs": [
        {
          "name": "_id",
          "type": "uint256"
        },
        {
          "name": "_choice",
          "type": "uint256"
        }
      ],
      "name": "vote",
      "outputs": [],
      "payable": false,
      "stateMutability": "nonpayable",
      "type": "function"
    },
    {
      "constant": false,
      "inputs": [
        {
          "name": "validators",
          "type": "address[]"
        }
      ],
      "name": "onCycleEnd",
      "outputs": [],
      "payable": false,
      "stateMutability": "nonpayable",
      "type": "function"
    },
    {
      "constant": true,
      "inputs": [
        {
          "name": "_id",
          "type": "uint256"
        }
      ],
      "name": "getContractType",
      "outputs": [
        {
          "name": "",
          "type": "uint256"
        }
      ],
      "payable": false,
      "stateMutability": "view",
      "type": "function"
    },
    {
      "constant": false,
      "inputs": [
        {
          "name": "_startAfterNumberOfCycles",
          "type": "uint256"
        },
        {
          "name": "_cyclesDuration",
          "type": "uint256"
        },
        {
          "name": "_contractType",
          "type": "uint256"
        },
        {
          "name": "_proposedValue",
          "type": "address"
        },
        {
          "name": "_description",
          "type": "string"
        }
      ],
      "name": "newBallot",
      "outputs": [
        {
          "name": "",
          "type": "uint256"
        }
      ],
      "payable": false,
      "stateMutability": "nonpayable",
      "type": "function"
    },
    {
      "constant": true,
      "inputs": [
        {
          "name": "_id",
          "type": "uint256"
        },
        {
          "name": "_key",
          "type": "address"
        }
      ],
      "name": "hasAlreadyVoted",
      "outputs": [
        {
          "name": "",
          "type": "bool"
        }
      ],
      "payable": false,
      "stateMutability": "view",
      "type": "function"
    },
    {
      "constant": true,
      "inputs": [],
      "name": "activeBallots",
      "outputs": [
        {
          "name": "",
          "type": "uint256[]"
        }
      ],
      "payable": false,
      "stateMutability": "view",
      "type": "function"
    },
    {
      "constant": true,
      "inputs": [
        {
          "name": "_id",
          "type": "uint256"
        }
      ],
      "name": "getCreator",
      "outputs": [
        {
          "name": "",
          "type": "address"
        }
      ],
      "payable": false,
      "stateMutability": "view",
      "type": "function"
    },
    {
      "constant": true,
      "inputs": [
        {
          "name": "_id",
          "type": "uint256"
        }
      ],
      "name": "getProposedValue",
      "outputs": [
        {
          "name": "",
          "type": "address"
        }
      ],
      "payable": false,
      "stateMutability": "view",
      "type": "function"
    },
    {
      "constant": true,
      "inputs": [
        {
          "name": "_index",
          "type": "uint256"
        }
      ],
      "name": "activeBallotsAtIndex",
      "outputs": [
        {
          "name": "",
          "type": "uint256"
        }
      ],
      "payable": false,
      "stateMutability": "view",
      "type": "function"
    },
    {
      "constant": true,
      "inputs": [],
      "name": "getProxyStorage",
      "outputs": [
        {
          "name": "",
          "type": "address"
        }
      ],
      "payable": false,
      "stateMutability": "view",
      "type": "function"
    },
    {
      "constant": true,
      "inputs": [
        {
          "name": "_contractType",
          "type": "uint256"
        }
      ],
      "name": "validContractType",
      "outputs": [
        {
          "name": "",
          "type": "bool"
        }
      ],
      "payable": false,
      "stateMutability": "view",
      "type": "function"
    },
    {
      "constant": true,
      "inputs": [],
      "name": "getMinBallotDurationCycles",
      "outputs": [
        {
          "name": "",
          "type": "uint256"
        }
      ],
      "payable": false,
      "stateMutability": "pure",
      "type": "function"
    },
    {
      "constant": true,
      "inputs": [
        {
          "name": "_key",
          "type": "address"
        }
      ],
      "name": "validatorActiveBallots",
      "outputs": [
        {
          "name": "",
          "type": "uint256"
        }
      ],
      "payable": false,
      "stateMutability": "view",
      "type": "function"
    },
    {
      "constant": true,
      "inputs": [],
      "name": "getBallotLimitPerValidator",
      "outputs": [
        {
          "name": "",
          "type": "uint256"
        }
      ],
      "payable": false,
      "stateMutability": "view",
      "type": "function"
    },
    {
      "anonymous": false,
      "inputs": [
        {
          "indexed": true,
          "name": "id",
          "type": "uint256"
        },
        {
          "indexed": true,
          "name": "creator",
          "type": "address"
        }
      ],
      "name": "BallotCreated",
      "type": "event"
    },
    {
      "anonymous": false,
      "inputs": [
        {
          "indexed": true,
          "name": "id",
          "type": "uint256"
        }
      ],
      "name": "BallotFinalized",
      "type": "event"
    },
    {
      "anonymous": false,
      "inputs": [
        {
          "indexed": true,
          "name": "id",
          "type": "uint256"
        },
        {
          "indexed": false,
          "name": "decision",
          "type": "uint256"
        },
        {
          "indexed": true,
          "name": "voter",
          "type": "address"
        }
      ],
      "name": "Vote",
      "type": "event"
    }
  ],
  "bytecode": "0x608060405234801561001057600080fd5b506138eb806100206000396000f3006080604052600436106101d45763ffffffff60e060020a60003504166301b2320e81146101d957806308dbb18e146102035780630af58e771461021b5780630eac27f41461023057806322e5fe9d1461025457806323e1a0a81461026c5780632b592f92146102985780632dfba528146102b05780632e0f2625146102c8578063340d3dc2146102dd578063392e53cd146102f25780633ee2f2121461030757806345367f231461031c578063480ca380146103345780634925ec551461034957806360970b6f146103d657806362f4c26b146103ee5780636ccc02341461040657806377da79301461041b5780638129fc1c1461043c57806382c4c96314610453578063897ba3e41461046b5780638be774d3146104805780638c64a20d146104955780638c8ab7ad146105b95780638e7cb6e1146105d1578063b384abef146105e9578063bbac62c814610604578063bdd4ae5514610624578063c12eefd21461063c578063c14bfd2914610675578063d21dc68a14610699578063d48e638a146106fe578063d6edcb3814610732578063df0444771461074a578063ec15a5e614610762578063edaab22314610777578063f3161a4d1461078f578063f49774ee146107a4578063fcff021c146107c5575b600080fd5b3480156101e557600080fd5b506101f16004356107da565b60408051918252519081900360200190f35b34801561020f57600080fd5b506101f16004356108b0565b34801561022757600080fd5b506101f1610942565b34801561023c57600080fd5b506101f1600435600160a060020a0360243516610947565b34801561026057600080fd5b506101f1600435610a39565b34801561027857600080fd5b50610284600435610acb565b604080519115158252519081900360200190f35b3480156102a457600080fd5b50610284600435610ba2565b3480156102bc57600080fd5b50610284600435610bc7565b3480156102d457600080fd5b506101f1610c43565b3480156102e957600080fd5b506101f1610c4f565b3480156102fe57600080fd5b50610284610c55565b34801561031357600080fd5b506101f1610d0e565b34801561032857600080fd5b506101f1600435610dc3565b34801561034057600080fd5b506101f1610e55565b34801561035557600080fd5b50610361600435610e5a565b6040805160208082528351818301528351919283929083019185019080838360005b8381101561039b578181015183820152602001610383565b50505050905090810190601f1680156103c85780820380516001836020036101000a031916815260200191505b509250505060405180910390f35b3480156103e257600080fd5b50610284600435610fd0565b3480156103fa57600080fd5b506101f1600435611062565b34801561041257600080fd5b506101f16110f4565b34801561042757600080fd5b50610284600160a060020a0360043516611156565b34801561044857600080fd5b506104516112e6565b005b34801561045f57600080fd5b506102846004356113c8565b34801561047757600080fd5b506101f1611420565b34801561048c57600080fd5b506101f1611425565b3480156104a157600080fd5b506104b9600435600160a060020a036024351661142a565b604051808e81526020018d81526020018c1515151581526020018b600160a060020a0316600160a060020a031681526020018a815260200189600160a060020a0316600160a060020a0316815260200180602001881515151581526020018715151515815260200186151515158152602001858152602001848152602001838152602001828103825289818151815260200191508051906020019080838360005b8381101561057257818101518382015260200161055a565b50505050905090810190601f16801561059f5780820380516001836020036101000a031916815260200191505b509e50505050505050505050505050505060405180910390f35b3480156105c557600080fd5b506101f16004356114e0565b3480156105dd57600080fd5b506101f1600435611572565b3480156105f557600080fd5b50610451600435602435611604565b34801561061057600080fd5b5061045160048035602481019101356116ad565b34801561063057600080fd5b506101f160043561189b565b34801561064857600080fd5b506101f16004803590602480359160443591600160a060020a03606435169160843591820191013561192d565b34801561068157600080fd5b50610284600435600160a060020a0360243516611a12565b3480156106a557600080fd5b506106ae611a40565b60408051602080825283518183015283519192839290830191858101910280838360005b838110156106ea5781810151838201526020016106d2565b505050509050019250505060405180910390f35b34801561070a57600080fd5b50610716600435611b2d565b60408051600160a060020a039092168252519081900360200190f35b34801561073e57600080fd5b50610716600435611c0a565b34801561075657600080fd5b506101f1600435611c9c565b34801561076e57600080fd5b50610716611d5a565b34801561078357600080fd5b50610284600435611e18565b34801561079b57600080fd5b506101f1611e9c565b3480156107b057600080fd5b506101f1600160a060020a0360043516611ea1565b3480156107d157600080fd5b506101f1611f3e565b6000600260008360405160200180806000805160206138a0833981519152815250600b01828152602001807f7374617274426c6f636b00000000000000000000000000000000000000000000815250600a019150506040516020818303038152906040526040518082805190602001908083835b6020831061086d5780518252601f19909201916020918201910161084e565b51815160209384036101000a600019018019909216911617905260408051929094018290039091208652850195909552929092016000205493505050505b919050565b6000600260008360405160200180806000805160206138a0833981519152815250600b01828152602001807f71756f72756d5374617465000000000000000000000000000000000000000000815250600b019150506040516020818303038152906040526040518082805190602001908083836020831061086d5780518252601f19909201916020918201910161084e565b600281565b604080516000805160206138a0833981519152602080830191909152602b82018590527f766f746572730000000000000000000000000000000000000000000000000000604b8301526c01000000000000000000000000600160a060020a0385160260518301528251604581840301815260659092019283905281516000936002938593909282918401908083835b602083106109f55780518252601f1990920191602091820191016109d6565b51815160209384036101000a600019018019909216911617905260408051929094018290039091208652850195909552929092016000205493505050505b92915050565b6000600260008360405160200180806000805160206138a0833981519152815250600b01828152602001807f61636365707465640000000000000000000000000000000000000000000000008152506008019150506040516020818303038152906040526040518082805190602001908083836020831061086d5780518252601f19909201916020918201910161084e565b6000600660008360405160200180806000805160206138a0833981519152815250600b01828152602001807f697346696e616c697a6564000000000000000000000000000000000000000000815250600b019150506040516020818303038152906040526040518082805190602001908083835b60208310610b5e5780518252601f199092019160209182019101610b3f565b51815160209384036101000a600019018019909216911617905260408051929094018290039091208652850195909552929092016000205460ff1695945050505050565b600043610bae836107da565b108015610a335750610bbf826114e0565b431092915050565b6000600660008360405160200180807f66696e616c697a6543616c6c6564000000000000000000000000000000000000815250600e0182815260200191505060405160208183030381529060405260405180828051906020019080838360208310610b5e5780518252601f199092019160209182019101610b3f565b670de0b6b3a764000081565b6107d081565b60006006600060405160200180807f6973496e697469616c697a656400000000000000000000000000000000000000815250600d0190506040516020818303038152906040526040518082805190602001908083835b60208310610cca5780518252601f199092019160209182019101610cab565b51815160209384036101000a600019018019909216911617905260408051929094018290039091208652850195909552929092016000205460ff1693505050505b90565b60006002600060405160200180807f6e65787442616c6c6f7449640000000000000000000000000000000000000000815250600c0190506040516020818303038152906040526040518082805190602001908083835b60208310610d835780518252601f199092019160209182019101610d64565b51815160209384036101000a6000190180199092169116179052604080519290940182900390912086528501959095529290920160002054949350505050565b6000600260008360405160200180806000805160206138a0833981519152815250600b01828152602001807f746f74616c5374616b6500000000000000000000000000000000000000000000815250600a019150506040516020818303038152906040526040518082805190602001908083836020831061086d5780518252601f19909201916020918201910161084e565b600e81565b6060600360008360405160200180806000805160206138a0833981519152815250600b01828152602001807f6465736372697074696f6e000000000000000000000000000000000000000000815250600b019150506040516020818303038152906040526040518082805190602001908083835b60208310610eed5780518252601f199092019160209182019101610ece565b6001836020036101000a0380198251168184511680821785525050505050509050019150506040518091039020600019166000191681526020019081526020016000208054600181600116156101000203166002900480601f016020809104026020016040519081016040528092919081815260200182805460018160011615610100020316600290048015610fc45780601f10610f9957610100808354040283529160200191610fc4565b820191906000526020600020905b815481529060010190602001808311610fa757829003601f168201915b50505050509050919050565b6000600660008360405160200180806000805160206138a0833981519152815250600b01828152602001807f62656c6f775475726e4f75740000000000000000000000000000000000000000815250600c0191505060405160208183030381529060405260405180828051906020019080838360208310610b5e5780518252601f199092019160209182019101610b3f565b6000600260008360405160200180806000805160206138a0833981519152815250600b01828152602001807f72656a65637465640000000000000000000000000000000000000000000000008152506008019150506040516020818303038152906040526040518082805190602001908083836020831061086d5780518252601f19909201916020918201910161084e565b6000600860006040516020018080600080516020613880833981519152815250600d01905060405160208183030381529060405260405180828051906020019080838360208310610d835780518252601f199092019160209182019101610d64565b600080808080611164611d5a565b600160a060020a031663179e740b6040518163ffffffff1660e060020a028152600401602060405180830381600087803b1580156111a157600080fd5b505af11580156111b5573d6000803e3d6000fd5b505050506040513d60208110156111cb57600080fd5b505192505b82600160a060020a03166340c9cdeb6040518163ffffffff1660e060020a028152600401602060405180830381600087803b15801561120e57600080fd5b505af1158015611222573d6000803e3d6000fd5b505050506040513d602081101561123857600080fd5b50518210156112dc5782600160a060020a03166357aeefc5836040518263ffffffff1660e060020a02815260040180828152602001915050602060405180830381600087803b15801561128a57600080fd5b505af115801561129e573d6000803e3d6000fd5b505050506040513d60208110156112b457600080fd5b50519050600160a060020a0380821690871614156112d157600193505b6001820191506111d0565b5091949350505050565b6004600060405160200180807f6f776e657200000000000000000000000000000000000000000000000000000081525060050190506040516020818303038152906040526040518082805190602001908083835b602083106113595780518252601f19909201916020918201910161133a565b51815160209384036101000a6000190180199092169116179052604080519290940182900390912086528501959095529290920160002054600160a060020a0316331492506113aa91505057600080fd5b6113b2610c55565b156113bc57600080fd5b6113c66001611f84565b565b60006113d2610d0e565b82106113e0575060006108ab565b436113ea836107da565b11156113f8575060006108ab565b61140182610acb565b1561140e575060006108ab565b611417826114e0565b43101592915050565b606481565b600e90565b60008060008060008060606000806000806000806114478f6107da565b9c506114528f6114e0565b9b5061145d8f610acb565b9a506114688f611c0a565b99506114738f61189b565b985061147e8f611b2d565b97506114898f610e5a565b96506114948f6113c8565b95506114a08f8f611a12565b94506114ab8f610fd0565b93506114b68f610a39565b92506114c18f611062565b91506114cc8f610dc3565b90509295989b9e9194979a9d509295989b50565b6000600260008360405160200180806000805160206138a0833981519152815250600b01828152602001807f656e64426c6f636b0000000000000000000000000000000000000000000000008152506008019150506040516020818303038152906040526040518082805190602001908083836020831061086d5780518252601f19909201916020918201910161084e565b6000600260008360405160200180806000805160206138a0833981519152815250600b01828152602001807f696e6465780000000000000000000000000000000000000000000000000000008152506005019150506040516020818303038152906040526040518082805190602001908083836020831061086d5780518252601f19909201916020918201910161084e565b600061160f83610acb565b1561161957600080fd5b503361162483610ba2565b151561162f57600080fd5b6116398382611a12565b1561164357600080fd5b60018214806116525750600282145b151561165d57600080fd5b611668838284612045565b604080518381529051600160a060020a0383169185917f7c2f48a4bf2e759e77b1e77a8bf1034cdf16e9034dad596d3655bb8b315f85eb9181900360200190a3505050565b600060606000806000806000806116c2611d5a565b600160a060020a031663179e740b6040518163ffffffff1660e060020a028152600401602060405180830381600087803b1580156116ff57600080fd5b505af1158015611713573d6000803e3d6000fd5b505050506040513d602081101561172957600080fd5b5051600160a060020a0316331461173f57600080fd5b88975087151561174e5761188f565b611756611a40565b96505b865186101561188f57868681518110151561177057fe5b90602001906020020151945043611786866107da565b108015611799575061179785610bc7565b155b15611884576117a7856113c8565b156118845760009350600092505b8782101561185e576117e2858b8b858181106117cd57fe5b90506020020135600160a060020a0316610947565b90506001811415611828576118216118148b8b858181106117ff57fe5b90506020020135600160a060020a0316612136565b859063ffffffff61220e16565b9350611853565b6002811415611853576118506118438b8b858181106117ff57fe5b849063ffffffff61220e16565b92505b6001909101906117b5565b611868858561222b565b61187285846122ff565b61187b85612390565b6118848561255a565b600186019550611759565b50505050505050505050565b6000600260008360405160200180806000805160206138a0833981519152815250600b01828152602001807f636f6e7472616374547970650000000000000000000000000000000000000000815250600c019150506040516020818303038152906040526040518082805190602001908083836020831061086d5780518252601f19909201916020918201910161084e565b6000803361193a81611156565b151561194557600080fd5b88886000821161195457600080fd5b6000811161196157600080fd5b611969611e9c565b81101561197557600080fd5b61197d611425565b81111561198957600080fd5b600160a060020a038816151561199e57600080fd5b6119a789611e18565b15156119b257600080fd5b6119ed8b8b89898080601f0160208091040260200160405190810160405280939291908181526020018383808284375061263e945050505050565b93506119f9848961273b565b611a03848a612837565b50919998505050505050505050565b6000600160a060020a0382161515611a2c57506000610a33565b6000611a388484610947565b119392505050565b6060600860006040516020018080600080516020613880833981519152815250600d0190506040516020818303038152906040526040518082805190602001908083835b60208310611aa35780518252601f199092019160209182019101611a84565b51815160209384036101000a600019018019909216911617905260408051929094018290039091208652858101969096525092830160002080548451818702810187019095528085529394909392508401905082828015611b2357602002820191906000526020600020905b815481526020019060010190808311611b0f575b5050505050905090565b6000600460008360405160200180806000805160206138a0833981519152815250600b01828152602001807f63726561746f72000000000000000000000000000000000000000000000000008152506007019150506040516020818303038152906040526040518082805190602001908083835b60208310611bc05780518252601f199092019160209182019101611ba1565b51815160209384036101000a6000190180199092169116179052604080519290940182900390912086528501959095529290920160002054600160a060020a031695945050505050565b6000600460008360405160200180806000805160206138a0833981519152815250600b01828152602001807f70726f706f73656456616c756500000000000000000000000000000000000000815250600d0191505060405160208183030381529060405260405180828051906020019080838360208310611bc05780518252601f199092019160209182019101611ba1565b6000600860006040516020018080600080516020613880833981519152815250600d0190506040516020818303038152906040526040518082805190602001908083835b60208310611cff5780518252601f199092019160209182019101611ce0565b51815160209384036101000a60001901801990921691161790526040805192909401829003909120865285019590955292909201600020805490935085925082109050611d4857fe5b90600052602060002001549050919050565b60006004600060405160200180807f70726f787953746f726167650000000000000000000000000000000000000000815250600c0190506040516020818303038152906040526040518082805190602001908083835b60208310611dcf5780518252601f199092019160209182019101611db0565b51815160209384036101000a6000190180199092169116179052604080519290940182900390912086528501959095529290920160002054600160a060020a0316949350505050565b6000611e22611d5a565b600160a060020a03166333875fdd836040518263ffffffff1660e060020a02815260040180828152602001915050602060405180830381600087803b158015611e6a57600080fd5b505af1158015611e7e573d6000803e3d6000fd5b505050506040513d6020811015611e9457600080fd5b505192915050565b600290565b6000600260008360405160200180807f76616c696461746f7241637469766542616c6c6f74730000000000000000000081525060160182600160a060020a0316600160a060020a03166c010000000000000000000000000281526014019150506040516020818303038152906040526040518082805190602001908083836020831061086d5780518252601f19909201916020918201910161084e565b6000806000611f4b6128c8565b9150811515611f5d5760649250611f7f565b611f6e60648363ffffffff6129c916565b9050801515611f7b575060015b8092505b505090565b806006600060405160200180807f6973496e697469616c697a656400000000000000000000000000000000000000815250600d0190506040516020818303038152906040526040518082805190602001908083835b60208310611ff85780518252601f199092019160209182019101611fd9565b51815160209384036101000a60001901801990921691161790526040805192909401829003909120865285019590955292909201600020805460ff19169415159490941790935550505050565b604080516000805160206138a0833981519152602080830191909152602b82018690527f766f746572730000000000000000000000000000000000000000000000000000604b8301526c01000000000000000000000000600160a060020a0386160260518301528251604581840301815260659092019283905281518493600293600093909282918401908083835b602083106120f35780518252601f1990920191602091820191016120d4565b51815160209384036101000a6000190180199092169116179052604080519290940182900390912086528501959095529290920160002093909355505050505050565b6000612140611d5a565b600160a060020a031663179e740b6040518163ffffffff1660e060020a028152600401602060405180830381600087803b15801561217d57600080fd5b505af1158015612191573d6000803e3d6000fd5b505050506040513d60208110156121a757600080fd5b5051604080517fbf135267000000000000000000000000000000000000000000000000000000008152600160a060020a0385811660048301529151919092169163bf1352679160248083019260209291908290030181600087803b158015611e6a57600080fd5b60008282018381101561222057600080fd5b8091505b5092915050565b80600260008460405160200180806000805160206138a0833981519152815250600b01828152602001807f61636365707465640000000000000000000000000000000000000000000000008152506008019150506040516020818303038152906040526040518082805190602001908083835b602083106122bd5780518252601f19909201916020918201910161229e565b51815160209384036101000a60001901801990921691161790526040805192909401829003909120865285019590955292909201600020939093555050505050565b80600260008460405160200180806000805160206138a0833981519152815250600b01828152602001807f72656a6563746564000000000000000000000000000000000000000000000000815250600801915050604051602081830303815290604052604051808280519060200190808383602083106122bd5780518252601f19909201916020918201910161229e565b612398611d5a565b600160a060020a031663179e740b6040518163ffffffff1660e060020a028152600401602060405180830381600087803b1580156123d557600080fd5b505af11580156123e9573d6000803e3d6000fd5b505050506040513d60208110156123ff57600080fd5b5051604080517f94409a560000000000000000000000000000000000000000000000000000000081529051600160a060020a03909216916394409a56916004808201926020929091908290030181600087803b15801561245e57600080fd5b505af1158015612472573d6000803e3d6000fd5b505050506040513d602081101561248857600080fd5b5051604080516000805160206138a0833981519152602082810191909152602b82018590527f746f74616c5374616b6500000000000000000000000000000000000000000000604b83015282516035818403018152605590920192839052815160029360009392909182918401908083835b602083106125195780518252601f1990920191602091820191016124fa565b51815160209384036101000a600019018019909216911617905260408051929094018290039091208652850195909552929092016000209390935550505050565b61256381610bc7565b151561257b57612572816129ec565b61257b81612a20565b61258481612a9c565b156125e55761259281611062565b61259b82610a39565b11156125ca576125aa81612acd565b156125c0576125bb8160025b612b49565b6125c5565b61263b565b6125d5565b6125d58160036125b6565b6125e0816000612bda565b6125fb565b6125f0816001612bda565b6125fb8160036125b6565b61260481612cba565b61260f816001612d0f565b60405181907fd470bb0d3dcb39ff5a62757e0a1cdfe60f8200eba22fd0d82383630d457f868690600090a25b50565b600080600061264b610c55565b151561265657600080fd5b33915061266282612da0565b151561266d57600080fd5b612675610d0e565b905061269061268b82600163ffffffff61220e16565b612dba565b61269a8187612e2d565b6126a481866130b6565b6126af816000612d0f565b6126ba8160016125b6565b6126c481836132ae565b6126ce818561333f565b6126df816126da6110f4565b61341f565b6126ea816000612bda565b6126f3816134b0565b6126fc82613565565b604051600160a060020a0383169082907fe64b3864f6f22f8969f8cb16c039eaf6454ef5e23c09791df010163000a7023590600090a395945050505050565b80600460008460405160200180806000805160206138a0833981519152815250600b01828152602001807f70726f706f73656456616c756500000000000000000000000000000000000000815250600d019150506040516020818303038152906040526040518082805190602001908083835b602083106127cd5780518252601f1990920191602091820191016127ae565b51815160209384036101000a60001901801990921691161790526040805192909401829003909120865285019590955292909201600020805473ffffffffffffffffffffffffffffffffffffffff1916600160a060020a0395909516949094179093555050505050565b80600260008460405160200180806000805160206138a0833981519152815250600b01828152602001807f636f6e7472616374547970650000000000000000000000000000000000000000815250600c01915050604051602081830303815290604052604051808280519060200190808383602083106122bd5780518252601f19909201916020918201910161229e565b60006128d2611d5a565b600160a060020a031663179e740b6040518163ffffffff1660e060020a028152600401602060405180830381600087803b15801561290f57600080fd5b505af1158015612923573d6000803e3d6000fd5b505050506040513d602081101561293957600080fd5b5051604080517f40c9cdeb0000000000000000000000000000000000000000000000000000000081529051600160a060020a03909216916340c9cdeb916004808201926020929091908290030181600087803b15801561299857600080fd5b505af11580156129ac573d6000803e3d6000fd5b505050506040513d60208110156129c257600080fd5b5051905090565b6000808083116129d857600080fd5b82848115156129e357fe5b04949350505050565b6000806129f883611b2d565b9150612a0382611ea1565b90506000811115612a1b57612a1b8260018303613583565b505050565b6001600660008360405160200180807f66696e616c697a6543616c6c6564000000000000000000000000000000000000815250600e0182815260200191505060405160208183030381529060405260405180828051906020019080838360208310611ff85780518252601f199092019160209182019101611fd9565b600080600080612aab85610dc3565b92506127106107d08402049150612ac185610a39565b91909111949350505050565b6000612ad7611d5a565b600160a060020a031663bb0165b1612aee8461189b565b612af785611c0a565b6040518363ffffffff1660e060020a0281526004018083815260200182600160a060020a0316600160a060020a0316815260200192505050602060405180830381600087803b158015611e6a57600080fd5b80600260008460405160200180806000805160206138a0833981519152815250600b01828152602001807f71756f72756d5374617465000000000000000000000000000000000000000000815250600b01915050604051602081830303815290604052604051808280519060200190808383602083106122bd5780518252601f19909201916020918201910161229e565b80600660008460405160200180806000805160206138a0833981519152815250600b01828152602001807f62656c6f775475726e4f75740000000000000000000000000000000000000000815250600c019150506040516020818303038152906040526040518082805190602001908083835b60208310612c6c5780518252601f199092019160209182019101612c4d565b51815160209384036101000a60001901801990921691161790526040805192909401829003909120865285019590955292909201600020805460ff1916941515949094179093555050505050565b6000806000612cc884611572565b92506001612cd46110f4565b039150612ce082611c9c565b9050612cec838261361f565b612cf6818461341f565b612d0182600061361f565b612d096136da565b50505050565b80600660008460405160200180806000805160206138a0833981519152815250600b01828152602001807f697346696e616c697a6564000000000000000000000000000000000000000000815250600b0191505060405160208183030381529060405260405180828051906020019080838360208310612c6c5780518252601f199092019160209182019101612c4d565b6000612daa611f3e565b612db383611ea1565b1092915050565b806002600060405160200180807f6e65787442616c6c6f7449640000000000000000000000000000000000000000815250600c019050604051602081830303815290604052604051808280519060200190808383602083106125195780518252601f1990920191602091820191016124fa565b600080600080612e3b611d5a565b600160a060020a031663179e740b6040518163ffffffff1660e060020a028152600401602060405180830381600087803b158015612e7857600080fd5b505af1158015612e8c573d6000803e3d6000fd5b505050506040513d6020811015612ea257600080fd5b5051604080517fa65249230000000000000000000000000000000000000000000000000000000081529051919550600160a060020a0386169163a6524923916004808201926020929091908290030181600087803b158015612f0357600080fd5b505af1158015612f17573d6000803e3d6000fd5b505050506040513d6020811015612f2d57600080fd5b5051604080517faf2951810000000000000000000000000000000000000000000000000000000081529051919450600160a060020a0386169163af295181916004808201926020929091908290030181600087803b158015612f8e57600080fd5b505af1158015612fa2573d6000803e3d6000fd5b505050506040513d6020811015612fb857600080fd5b50519150612fdc612fcf868563ffffffff61379916565b839063ffffffff61220e16565b905080600260008860405160200180806000805160206138a0833981519152815250600b01828152602001807f7374617274426c6f636b00000000000000000000000000000000000000000000815250600a019150506040516020818303038152906040526040518082805190602001908083835b602083106130705780518252601f199092019160209182019101613051565b51815160209384036101000a6000190180199092169116179052604080519290940182900390912086528501959095529290920160002093909355505050505050505050565b60008060006130c3611d5a565b600160a060020a031663179e740b6040518163ffffffff1660e060020a028152600401602060405180830381600087803b15801561310057600080fd5b505af1158015613114573d6000803e3d6000fd5b505050506040513d602081101561312a57600080fd5b5051604080517fa65249230000000000000000000000000000000000000000000000000000000081529051600160a060020a039092169163a6524923916004808201926020929091908290030181600087803b15801561318957600080fd5b505af115801561319d573d6000803e3d6000fd5b505050506040513d60208110156131b357600080fd5b505192506131c0856107da565b91506131d5612fcf858563ffffffff61379916565b905080600260008760405160200180806000805160206138a0833981519152815250600b01828152602001807f656e64426c6f636b0000000000000000000000000000000000000000000000008152506008019150506040516020818303038152906040526040518082805190602001908083835b602083106132695780518252601f19909201916020918201910161324a565b51815160209384036101000a60001901801990921691161790526040805192909401829003909120865285019590955292909201600020939093555050505050505050565b80600460008460405160200180806000805160206138a0833981519152815250600b01828152602001807f63726561746f7200000000000000000000000000000000000000000000000000815250600701915050604051602081830303815290604052604051808280519060200190808383602083106127cd5780518252601f1990920191602091820191016127ae565b80600360008460405160200180806000805160206138a0833981519152815250600b01828152602001807f6465736372697074696f6e000000000000000000000000000000000000000000815250600b019150506040516020818303038152906040526040518082805190602001908083835b602083106133d15780518252601f1990920191602091820191016133b2565b51815160001960209485036101000a01908116901991909116179052604080519490920184900390932086528583019690965250929093016000208451612a1b9591945092019190506137c7565b80600260008460405160200180806000805160206138a0833981519152815250600b01828152602001807f696e646578000000000000000000000000000000000000000000000000000000815250600501915050604051602081830303815290604052604051808280519060200190808383602083106122bd5780518252601f19909201916020918201910161229e565b600860006040516020018080600080516020613880833981519152815250600d0190506040516020818303038152906040526040518082805190602001908083835b602083106135115780518252601f1990920191602091820191016134f2565b51815160209384036101000a60001901801990921691161790526040805192909401829003909120865285810196909652509290920160009081208054600181018255908252939020909201929092555050565b61263b81613583600161357785611ea1565b9063ffffffff61220e16565b80600260008460405160200180807f76616c696461746f7241637469766542616c6c6f74730000000000000000000081525060160182600160a060020a0316600160a060020a03166c01000000000000000000000000028152601401915050604051602081830303815290604052604051808280519060200190808383602083106122bd5780518252601f19909201916020918201910161229e565b80600860006040516020018080600080516020613880833981519152815250600d0190506040516020818303038152906040526040518082805190602001908083835b602083106136815780518252601f199092019160209182019101613662565b51815160209384036101000a600019018019909216911617905260408051929094018290039091208652850195909552929092016000208054909350869250821090506136ca57fe5b6000918252602090912001555050565b60006136e46110f4565b11156113c657600860006040516020018080600080516020613880833981519152815250600d0190506040516020818303038152906040526040518082805190602001908083835b6020831061374b5780518252601f19909201916020918201910161372c565b51815160001960209485036101000a8101918216911992909216179091526040805195909301859003909420875286019690965250929093016000208054935061263b929091508301613845565b6000808315156137ac5760009150612224565b508282028284828115156137bc57fe5b041461222057600080fd5b828054600181600116156101000203166002900490600052602060002090601f016020900481019282601f1061380857805160ff1916838001178555613835565b82800160010185558215613835579182015b8281111561383557825182559160200191906001019061381a565b50613841929150613865565b5090565b815481835581811115612a1b57600083815260209020612a1b9181019083015b610d0b91905b80821115613841576000815560010161386b560061637469766542616c6c6f747300000000000000000000000000000000000000766f74696e675374617465000000000000000000000000000000000000000000a165627a7a723058203cca7651147a48a98f79f67ef2f4f6bcf3c42315283d444f57d983ebd6c37ea70029",
  "linkReferences": {},
  "deployedLinkReferences": {}
}